{
	"contracts/authentication.sol": {
		"Authentication": {
			"abi": [
				{
					"inputs": [],
					"stateMutability": "nonpayable",
					"type": "constructor"
				},
				{
					"inputs": [],
					"name": "getProjectDetails",
					"outputs": [
						{
							"internalType": "string[]",
							"name": "",
							"type": "string[]"
						},
						{
							"internalType": "string[]",
							"name": "",
							"type": "string[]"
						},
						{
							"internalType": "string[]",
							"name": "",
							"type": "string[]"
						},
						{
							"internalType": "string[]",
							"name": "",
							"type": "string[]"
						}
					],
					"stateMutability": "view",
					"type": "function"
				},
				{
					"inputs": [],
					"name": "getSignatureHash",
					"outputs": [
						{
							"internalType": "string",
							"name": "",
							"type": "string"
						}
					],
					"stateMutability": "view",
					"type": "function"
				},
				{
					"inputs": [],
					"name": "getUserAddress",
					"outputs": [
						{
							"internalType": "address",
							"name": "",
							"type": "address"
						}
					],
					"stateMutability": "view",
					"type": "function"
				},
				{
					"inputs": [],
					"name": "getUsername",
					"outputs": [
						{
							"internalType": "string",
							"name": "",
							"type": "string"
						}
					],
					"stateMutability": "view",
					"type": "function"
				},
				{
					"inputs": [
						{
							"internalType": "string",
							"name": "username",
							"type": "string"
						},
						{
							"internalType": "string",
							"name": "password",
							"type": "string"
						}
					],
					"name": "login",
					"outputs": [
						{
							"internalType": "string",
							"name": "",
							"type": "string"
						}
					],
					"stateMutability": "nonpayable",
					"type": "function"
				},
				{
					"inputs": [],
					"name": "nbOfUsers",
					"outputs": [
						{
							"internalType": "uint256",
							"name": "",
							"type": "uint256"
						}
					],
					"stateMutability": "view",
					"type": "function"
				},
				{
					"inputs": [
						{
							"internalType": "string",
							"name": "_signature",
							"type": "string"
						},
						{
							"internalType": "string",
							"name": "email",
							"type": "string"
						},
						{
							"internalType": "string",
							"name": "username",
							"type": "string"
						},
						{
							"internalType": "string",
							"name": "password",
							"type": "string"
						},
						{
							"internalType": "string",
							"name": "repeatPassword",
							"type": "string"
						}
					],
					"name": "register",
					"outputs": [
						{
							"internalType": "string",
							"name": "",
							"type": "string"
						}
					],
					"stateMutability": "nonpayable",
					"type": "function"
				},
				{
					"inputs": [
						{
							"internalType": "string",
							"name": "projectName",
							"type": "string"
						},
						{
							"internalType": "string",
							"name": "description",
							"type": "string"
						},
						{
							"internalType": "string",
							"name": "deadline",
							"type": "string"
						},
						{
							"internalType": "string",
							"name": "amount",
							"type": "string"
						}
					],
					"name": "saveProject",
					"outputs": [
						{
							"internalType": "string",
							"name": "",
							"type": "string"
						}
					],
					"stateMutability": "nonpayable",
					"type": "function"
				}
			],
			"devdoc": {
				"kind": "dev",
				"methods": {},
				"version": 1
			},
			"evm": {
				"assembly": "    /* \"contracts/authentication.sol\":60:3910  contract Authentication {... */\n  mstore(0x40, 0x80)\n    /* \"contracts/authentication.sol\":911:957  constructor() {... */\n  callvalue\n  dup1\n  iszero\n  tag_1\n  jumpi\n  0x00\n  dup1\n  revert\ntag_1:\n  pop\n    /* \"contracts/authentication.sol\":948:949  0 */\n  0x00\n    /* \"contracts/authentication.sol\":936:945  nbOfUsers */\n  dup1\n    /* \"contracts/authentication.sol\":936:949  nbOfUsers = 0 */\n  dup2\n  swap1\n  sstore\n  pop\n    /* \"contracts/authentication.sol\":60:3910  contract Authentication {... */\n  dataSize(sub_0)\n  dup1\n  dataOffset(sub_0)\n  0x00\n  codecopy\n  0x00\n  return\nstop\n\nsub_0: assembly {\n        /* \"contracts/authentication.sol\":60:3910  contract Authentication {... */\n      mstore(0x40, 0x80)\n      callvalue\n      dup1\n      iszero\n      tag_1\n      jumpi\n      0x00\n      dup1\n      revert\n    tag_1:\n      pop\n      jumpi(tag_2, lt(calldatasize, 0x04))\n      shr(0xe0, calldataload(0x00))\n      dup1\n      0xb4bfc3a5\n      gt\n      tag_11\n      jumpi\n      dup1\n      0xb4bfc3a5\n      eq\n      tag_7\n      jumpi\n      dup1\n      0xc127ae41\n      eq\n      tag_8\n      jumpi\n      dup1\n      0xebc3eee8\n      eq\n      tag_9\n      jumpi\n      dup1\n      0xff3a9c7e\n      eq\n      tag_10\n      jumpi\n      jump(tag_2)\n    tag_11:\n      dup1\n      0x12679323\n      eq\n      tag_3\n      jumpi\n      dup1\n      0x58467dbc\n      eq\n      tag_4\n      jumpi\n      dup1\n      0x5a09007b\n      eq\n      tag_5\n      jumpi\n      dup1\n      0x681f3e6d\n      eq\n      tag_6\n      jumpi\n    tag_2:\n      0x00\n      dup1\n      revert\n        /* \"contracts/authentication.sol\":91:115  uint256 public nbOfUsers */\n    tag_3:\n      tag_12\n      tag_13\n      jump\t// in\n    tag_12:\n      mload(0x40)\n      tag_14\n      swap2\n      swap1\n      tag_15\n      jump\t// in\n    tag_14:\n      mload(0x40)\n      dup1\n      swap2\n      sub\n      swap1\n      return\n        /* \"contracts/authentication.sol\":2403:2911  function login(string memory username, string memory password) public returns(string memory) {... */\n    tag_4:\n      tag_16\n      0x04\n      dup1\n      calldatasize\n      sub\n      dup2\n      add\n      swap1\n      tag_17\n      swap2\n      swap1\n      tag_18\n      jump\t// in\n    tag_17:\n      tag_19\n      jump\t// in\n    tag_16:\n      mload(0x40)\n      tag_20\n      swap2\n      swap1\n      tag_21\n      jump\t// in\n    tag_20:\n      mload(0x40)\n      dup1\n      swap2\n      sub\n      swap1\n      return\n        /* \"contracts/authentication.sol\":965:1809  function register(string memory _signature, string memory email, string memory username, string memory password, string memory repeatPassword) public returns(string memory) {... */\n    tag_5:\n      tag_22\n      0x04\n      dup1\n      calldatasize\n      sub\n      dup2\n      add\n      swap1\n      tag_23\n      swap2\n      swap1\n      tag_24\n      jump\t// in\n    tag_23:\n      tag_25\n      jump\t// in\n    tag_22:\n      mload(0x40)\n      tag_26\n      swap2\n      swap1\n      tag_21\n      jump\t// in\n    tag_26:\n      mload(0x40)\n      dup1\n      swap2\n      sub\n      swap1\n      return\n        /* \"contracts/authentication.sol\":2283:2397  function getUsername() public view returns (string memory) {... */\n    tag_6:\n      tag_27\n      tag_28\n      jump\t// in\n    tag_27:\n      mload(0x40)\n      tag_29\n      swap2\n      swap1\n      tag_21\n      jump\t// in\n    tag_29:\n      mload(0x40)\n      dup1\n      swap2\n      sub\n      swap1\n      return\n        /* \"contracts/authentication.sol\":2942:3715  function saveProject(string memory projectName, string memory description, string memory deadline, string memory amount) public returns(string memory) {... */\n    tag_7:\n      tag_30\n      0x04\n      dup1\n      calldatasize\n      sub\n      dup2\n      add\n      swap1\n      tag_31\n      swap2\n      swap1\n      tag_32\n      jump\t// in\n    tag_31:\n      tag_33\n      jump\t// in\n    tag_30:\n      mload(0x40)\n      tag_34\n      swap2\n      swap1\n      tag_21\n      jump\t// in\n    tag_34:\n      mload(0x40)\n      dup1\n      swap2\n      sub\n      swap1\n      return\n        /* \"contracts/authentication.sol\":1817:2016  function getSignatureHash() public view returns (string memory) {... */\n    tag_8:\n      tag_35\n      tag_36\n      jump\t// in\n    tag_35:\n      mload(0x40)\n      tag_37\n      swap2\n      swap1\n      tag_21\n      jump\t// in\n    tag_37:\n      mload(0x40)\n      dup1\n      swap2\n      sub\n      swap1\n      return\n        /* \"contracts/authentication.sol\":2024:2136  function getUserAddress() public view returns (address) {... */\n    tag_9:\n      tag_38\n      tag_39\n      jump\t// in\n    tag_38:\n      mload(0x40)\n      tag_40\n      swap2\n      swap1\n      tag_41\n      jump\t// in\n    tag_40:\n      mload(0x40)\n      dup1\n      swap2\n      sub\n      swap1\n      return\n        /* \"contracts/authentication.sol\":3727:3898  function getProjectDetails() public view returns(string[] memory, string[] memory, string[] memory, string[] memory) {... */\n    tag_10:\n      tag_42\n      tag_43\n      jump\t// in\n    tag_42:\n      mload(0x40)\n      tag_44\n      swap5\n      swap4\n      swap3\n      swap2\n      swap1\n      tag_45\n      jump\t// in\n    tag_44:\n      mload(0x40)\n      dup1\n      swap2\n      sub\n      swap1\n      return\n        /* \"contracts/authentication.sol\":91:115  uint256 public nbOfUsers */\n    tag_13:\n      sload(0x00)\n      dup2\n      jump\t// out\n        /* \"contracts/authentication.sol\":2403:2911  function login(string memory username, string memory password) public returns(string memory) {... */\n    tag_19:\n        /* \"contracts/authentication.sol\":2481:2494  string memory */\n      0x60\n        /* \"contracts/authentication.sol\":2509:2532  string memory _username */\n      0x00\n        /* \"contracts/authentication.sol\":2534:2547  getUsername() */\n      tag_47\n        /* \"contracts/authentication.sol\":2534:2545  getUsername */\n      tag_28\n        /* \"contracts/authentication.sol\":2534:2547  getUsername() */\n      jump\t// in\n    tag_47:\n        /* \"contracts/authentication.sol\":2509:2547  string memory _username= getUsername() */\n      swap1\n      pop\n        /* \"contracts/authentication.sol\":2560:2583  string memory _password */\n      0x00\n        /* \"contracts/authentication.sol\":2585:2589  user */\n      0x01\n        /* \"contracts/authentication.sol\":2585:2601  user[msg.sender] */\n      0x00\n        /* \"contracts/authentication.sol\":2590:2600  msg.sender */\n      caller\n        /* \"contracts/authentication.sol\":2585:2601  user[msg.sender] */\n      0xffffffffffffffffffffffffffffffffffffffff\n      and\n      0xffffffffffffffffffffffffffffffffffffffff\n      and\n      dup2\n      mstore\n      0x20\n      add\n      swap1\n      dup2\n      mstore\n      0x20\n      add\n      0x00\n      keccak256\n        /* \"contracts/authentication.sol\":2585:2610  user[msg.sender].password */\n      0x03\n      add\n        /* \"contracts/authentication.sol\":2560:2610  string memory _password= user[msg.sender].password */\n      dup1\n      sload\n      tag_48\n      swap1\n      tag_49\n      jump\t// in\n    tag_48:\n      dup1\n      0x1f\n      add\n      0x20\n      dup1\n      swap2\n      div\n      mul\n      0x20\n      add\n      mload(0x40)\n      swap1\n      dup2\n      add\n      0x40\n      mstore\n      dup1\n      swap3\n      swap2\n      swap1\n      dup2\n      dup2\n      mstore\n      0x20\n      add\n      dup3\n      dup1\n      sload\n      tag_50\n      swap1\n      tag_49\n      jump\t// in\n    tag_50:\n      dup1\n      iszero\n      tag_51\n      jumpi\n      dup1\n      0x1f\n      lt\n      tag_52\n      jumpi\n      0x0100\n      dup1\n      dup4\n      sload\n      div\n      mul\n      dup4\n      mstore\n      swap2\n      0x20\n      add\n      swap2\n      jump(tag_51)\n    tag_52:\n      dup3\n      add\n      swap2\n      swap1\n      0x00\n      mstore\n      keccak256(0x00, 0x20)\n      swap1\n    tag_53:\n      dup2\n      sload\n      dup2\n      mstore\n      swap1\n      0x01\n      add\n      swap1\n      0x20\n      add\n      dup1\n      dup4\n      gt\n      tag_53\n      jumpi\n      dup3\n      swap1\n      sub\n      0x1f\n      and\n      dup3\n      add\n      swap2\n    tag_51:\n      pop\n      pop\n      pop\n      pop\n      pop\n      swap1\n      pop\n        /* \"contracts/authentication.sol\":2673:2681  username */\n      dup5\n        /* \"contracts/authentication.sol\":2657:2683  keccak256(bytes(username)) */\n      dup1\n      mload\n      swap1\n      0x20\n      add\n      keccak256\n        /* \"contracts/authentication.sol\":2642:2651  _username */\n      dup3\n        /* \"contracts/authentication.sol\":2626:2653  keccak256(bytes(_username)) */\n      dup1\n      mload\n      swap1\n      0x20\n      add\n      keccak256\n        /* \"contracts/authentication.sol\":2626:2683  keccak256(bytes(_username)) == keccak256(bytes(username)) */\n      eq\n        /* \"contracts/authentication.sol\":2626:2744  keccak256(bytes(_username)) == keccak256(bytes(username)) && keccak256(bytes(_password)) == keccak256(bytes(password)) */\n      dup1\n      iszero\n      tag_54\n      jumpi\n      pop\n        /* \"contracts/authentication.sol\":2734:2742  password */\n      dup4\n        /* \"contracts/authentication.sol\":2718:2744  keccak256(bytes(password)) */\n      dup1\n      mload\n      swap1\n      0x20\n      add\n      keccak256\n        /* \"contracts/authentication.sol\":2703:2712  _password */\n      dup2\n        /* \"contracts/authentication.sol\":2687:2714  keccak256(bytes(_password)) */\n      dup1\n      mload\n      swap1\n      0x20\n      add\n      keccak256\n        /* \"contracts/authentication.sol\":2687:2744  keccak256(bytes(_password)) == keccak256(bytes(password)) */\n      eq\n        /* \"contracts/authentication.sol\":2626:2744  keccak256(bytes(_username)) == keccak256(bytes(username)) && keccak256(bytes(_password)) == keccak256(bytes(password)) */\n    tag_54:\n        /* \"contracts/authentication.sol\":2623:2904  if(keccak256(bytes(_username)) == keccak256(bytes(username)) && keccak256(bytes(_password)) == keccak256(bytes(password)) ) {... */\n      iszero\n      tag_55\n      jumpi\n        /* \"contracts/authentication.sol\":2783:2791  username */\n      dup5\n        /* \"contracts/authentication.sol\":2776:2791  return username */\n      swap3\n      pop\n      pop\n      pop\n      jump(tag_46)\n        /* \"contracts/authentication.sol\":2623:2904  if(keccak256(bytes(_username)) == keccak256(bytes(username)) && keccak256(bytes(_password)) == keccak256(bytes(password)) ) {... */\n    tag_55:\n        /* \"contracts/authentication.sol\":2836:2892  return \"User doesnot exist !! Register and try again !!\" */\n      mload(0x40)\n      dup1\n      0x60\n      add\n      0x40\n      mstore\n      dup1\n      0x2f\n      dup2\n      mstore\n      0x20\n      add\n      data_f8cee5838de095b73bc0eb68505c82192a6e7ef8eb72dc52884288f7c470afa7\n      0x2f\n      swap2\n      codecopy\n      swap3\n      pop\n      pop\n      pop\n        /* \"contracts/authentication.sol\":2403:2911  function login(string memory username, string memory password) public returns(string memory) {... */\n    tag_46:\n      swap3\n      swap2\n      pop\n      pop\n      jump\t// out\n        /* \"contracts/authentication.sol\":965:1809  function register(string memory _signature, string memory email, string memory username, string memory password, string memory repeatPassword) public returns(string memory) {... */\n    tag_25:\n        /* \"contracts/authentication.sol\":1123:1136  string memory */\n      0x60\n        /* \"contracts/authentication.sol\":1333:1343  _signature */\n      dup6\n        /* \"contracts/authentication.sol\":1300:1304  user */\n      0x01\n        /* \"contracts/authentication.sol\":1300:1316  user[msg.sender] */\n      0x00\n        /* \"contracts/authentication.sol\":1305:1315  msg.sender */\n      caller\n        /* \"contracts/authentication.sol\":1300:1316  user[msg.sender] */\n      0xffffffffffffffffffffffffffffffffffffffff\n      and\n      0xffffffffffffffffffffffffffffffffffffffff\n      and\n      dup2\n      mstore\n      0x20\n      add\n      swap1\n      dup2\n      mstore\n      0x20\n      add\n      0x00\n      keccak256\n        /* \"contracts/authentication.sol\":1300:1330  user[msg.sender].signatureHash */\n      0x00\n      add\n        /* \"contracts/authentication.sol\":1300:1343  user[msg.sender].signatureHash = _signature */\n      swap1\n      dup1\n      mload\n      swap1\n      0x20\n      add\n      swap1\n      tag_58\n      swap3\n      swap2\n      swap1\n      tag_59\n      jump\t// in\n    tag_58:\n      pop\n        /* \"contracts/authentication.sol\":1379:1384  email */\n      dup5\n        /* \"contracts/authentication.sol\":1354:1358  user */\n      0x01\n        /* \"contracts/authentication.sol\":1354:1370  user[msg.sender] */\n      0x00\n        /* \"contracts/authentication.sol\":1359:1369  msg.sender */\n      caller\n        /* \"contracts/authentication.sol\":1354:1370  user[msg.sender] */\n      0xffffffffffffffffffffffffffffffffffffffff\n      and\n      0xffffffffffffffffffffffffffffffffffffffff\n      and\n      dup2\n      mstore\n      0x20\n      add\n      swap1\n      dup2\n      mstore\n      0x20\n      add\n      0x00\n      keccak256\n        /* \"contracts/authentication.sol\":1354:1376  user[msg.sender].email */\n      0x01\n      add\n        /* \"contracts/authentication.sol\":1354:1384  user[msg.sender].email = email */\n      swap1\n      dup1\n      mload\n      swap1\n      0x20\n      add\n      swap1\n      tag_60\n      swap3\n      swap2\n      swap1\n      tag_59\n      jump\t// in\n    tag_60:\n      pop\n        /* \"contracts/authentication.sol\":1426:1436  msg.sender */\n      caller\n        /* \"contracts/authentication.sol\":1395:1399  user */\n      0x01\n        /* \"contracts/authentication.sol\":1395:1411  user[msg.sender] */\n      0x00\n        /* \"contracts/authentication.sol\":1400:1410  msg.sender */\n      caller\n        /* \"contracts/authentication.sol\":1395:1411  user[msg.sender] */\n      0xffffffffffffffffffffffffffffffffffffffff\n      and\n      0xffffffffffffffffffffffffffffffffffffffff\n      and\n      dup2\n      mstore\n      0x20\n      add\n      swap1\n      dup2\n      mstore\n      0x20\n      add\n      0x00\n      keccak256\n        /* \"contracts/authentication.sol\":1395:1423  user[msg.sender].userAddress */\n      0x05\n      add\n      0x00\n        /* \"contracts/authentication.sol\":1395:1436  user[msg.sender].userAddress = msg.sender */\n      0x0100\n      exp\n      dup2\n      sload\n      dup2\n      0xffffffffffffffffffffffffffffffffffffffff\n      mul\n      not\n      and\n      swap1\n      dup4\n      0xffffffffffffffffffffffffffffffffffffffff\n      and\n      mul\n      or\n      swap1\n      sstore\n      pop\n        /* \"contracts/authentication.sol\":1475:1483  username */\n      dup4\n        /* \"contracts/authentication.sol\":1447:1451  user */\n      0x01\n        /* \"contracts/authentication.sol\":1447:1463  user[msg.sender] */\n      0x00\n        /* \"contracts/authentication.sol\":1452:1462  msg.sender */\n      caller\n        /* \"contracts/authentication.sol\":1447:1463  user[msg.sender] */\n      0xffffffffffffffffffffffffffffffffffffffff\n      and\n      0xffffffffffffffffffffffffffffffffffffffff\n      and\n      dup2\n      mstore\n      0x20\n      add\n      swap1\n      dup2\n      mstore\n      0x20\n      add\n      0x00\n      keccak256\n        /* \"contracts/authentication.sol\":1447:1472  user[msg.sender].username */\n      0x02\n      add\n        /* \"contracts/authentication.sol\":1447:1483  user[msg.sender].username = username */\n      swap1\n      dup1\n      mload\n      swap1\n      0x20\n      add\n      swap1\n      tag_61\n      swap3\n      swap2\n      swap1\n      tag_59\n      jump\t// in\n    tag_61:\n      pop\n        /* \"contracts/authentication.sol\":1522:1530  password */\n      dup3\n        /* \"contracts/authentication.sol\":1494:1498  user */\n      0x01\n        /* \"contracts/authentication.sol\":1494:1510  user[msg.sender] */\n      0x00\n        /* \"contracts/authentication.sol\":1499:1509  msg.sender */\n      caller\n        /* \"contracts/authentication.sol\":1494:1510  user[msg.sender] */\n      0xffffffffffffffffffffffffffffffffffffffff\n      and\n      0xffffffffffffffffffffffffffffffffffffffff\n      and\n      dup2\n      mstore\n      0x20\n      add\n      swap1\n      dup2\n      mstore\n      0x20\n      add\n      0x00\n      keccak256\n        /* \"contracts/authentication.sol\":1494:1519  user[msg.sender].password */\n      0x03\n      add\n        /* \"contracts/authentication.sol\":1494:1530  user[msg.sender].password = password */\n      swap1\n      dup1\n      mload\n      swap1\n      0x20\n      add\n      swap1\n      tag_62\n      swap3\n      swap2\n      swap1\n      tag_59\n      jump\t// in\n    tag_62:\n      pop\n        /* \"contracts/authentication.sol\":1575:1589  repeatPassword */\n      dup2\n        /* \"contracts/authentication.sol\":1541:1545  user */\n      0x01\n        /* \"contracts/authentication.sol\":1541:1557  user[msg.sender] */\n      0x00\n        /* \"contracts/authentication.sol\":1546:1556  msg.sender */\n      caller\n        /* \"contracts/authentication.sol\":1541:1557  user[msg.sender] */\n      0xffffffffffffffffffffffffffffffffffffffff\n      and\n      0xffffffffffffffffffffffffffffffffffffffff\n      and\n      dup2\n      mstore\n      0x20\n      add\n      swap1\n      dup2\n      mstore\n      0x20\n      add\n      0x00\n      keccak256\n        /* \"contracts/authentication.sol\":1541:1572  user[msg.sender].repeatPassword */\n      0x04\n      add\n        /* \"contracts/authentication.sol\":1541:1589  user[msg.sender].repeatPassword = repeatPassword */\n      swap1\n      dup1\n      mload\n      swap1\n      0x20\n      add\n      swap1\n      tag_63\n      swap3\n      swap2\n      swap1\n      tag_59\n      jump\t// in\n    tag_63:\n      pop\n        /* \"contracts/authentication.sol\":1600:1609  nbOfUsers */\n      0x00\n      dup1\n        /* \"contracts/authentication.sol\":1600:1611  nbOfUsers++ */\n      dup2\n      sload\n      dup1\n      swap3\n      swap2\n      swap1\n      tag_64\n      swap1\n      tag_65\n      jump\t// in\n    tag_64:\n      swap2\n      swap1\n      pop\n      sstore\n      pop\n        /* \"contracts/authentication.sol\":1769:1801  return \"Successfully Registered\" */\n      mload(0x40)\n      dup1\n      0x40\n      add\n      0x40\n      mstore\n      dup1\n      0x17\n      dup2\n      mstore\n      0x20\n      add\n      0x5375636365737366756c6c792052656769737465726564000000000000000000\n      dup2\n      mstore\n      pop\n      swap1\n      pop\n        /* \"contracts/authentication.sol\":965:1809  function register(string memory _signature, string memory email, string memory username, string memory password, string memory repeatPassword) public returns(string memory) {... */\n      swap6\n      swap5\n      pop\n      pop\n      pop\n      pop\n      pop\n      jump\t// out\n        /* \"contracts/authentication.sol\":2283:2397  function getUsername() public view returns (string memory) {... */\n    tag_28:\n        /* \"contracts/authentication.sol\":2327:2340  string memory */\n      0x60\n        /* \"contracts/authentication.sol\":2362:2366  user */\n      0x01\n        /* \"contracts/authentication.sol\":2362:2378  user[msg.sender] */\n      0x00\n        /* \"contracts/authentication.sol\":2367:2377  msg.sender */\n      caller\n        /* \"contracts/authentication.sol\":2362:2378  user[msg.sender] */\n      0xffffffffffffffffffffffffffffffffffffffff\n      and\n      0xffffffffffffffffffffffffffffffffffffffff\n      and\n      dup2\n      mstore\n      0x20\n      add\n      swap1\n      dup2\n      mstore\n      0x20\n      add\n      0x00\n      keccak256\n        /* \"contracts/authentication.sol\":2362:2387  user[msg.sender].username */\n      0x02\n      add\n        /* \"contracts/authentication.sol\":2355:2387  return user[msg.sender].username */\n      dup1\n      sload\n      tag_67\n      swap1\n      tag_49\n      jump\t// in\n    tag_67:\n      dup1\n      0x1f\n      add\n      0x20\n      dup1\n      swap2\n      div\n      mul\n      0x20\n      add\n      mload(0x40)\n      swap1\n      dup2\n      add\n      0x40\n      mstore\n      dup1\n      swap3\n      swap2\n      swap1\n      dup2\n      dup2\n      mstore\n      0x20\n      add\n      dup3\n      dup1\n      sload\n      tag_68\n      swap1\n      tag_49\n      jump\t// in\n    tag_68:\n      dup1\n      iszero\n      tag_69\n      jumpi\n      dup1\n      0x1f\n      lt\n      tag_70\n      jumpi\n      0x0100\n      dup1\n      dup4\n      sload\n      div\n      mul\n      dup4\n      mstore\n      swap2\n      0x20\n      add\n      swap2\n      jump(tag_69)\n    tag_70:\n      dup3\n      add\n      swap2\n      swap1\n      0x00\n      mstore\n      keccak256(0x00, 0x20)\n      swap1\n    tag_71:\n      dup2\n      sload\n      dup2\n      mstore\n      swap1\n      0x01\n      add\n      swap1\n      0x20\n      add\n      dup1\n      dup4\n      gt\n      tag_71\n      jumpi\n      dup3\n      swap1\n      sub\n      0x1f\n      and\n      dup3\n      add\n      swap2\n    tag_69:\n      pop\n      pop\n      pop\n      pop\n      pop\n      swap1\n      pop\n        /* \"contracts/authentication.sol\":2283:2397  function getUsername() public view returns (string memory) {... */\n      swap1\n      jump\t// out\n        /* \"contracts/authentication.sol\":2942:3715  function saveProject(string memory projectName, string memory description, string memory deadline, string memory amount) public returns(string memory) {... */\n    tag_33:\n        /* \"contracts/authentication.sol\":3078:3091  string memory */\n      0x60\n        /* \"contracts/authentication.sol\":3140:3141  0 */\n      0x00\n        /* \"contracts/authentication.sol\":3117:3130  getUsername() */\n      tag_73\n        /* \"contracts/authentication.sol\":3117:3128  getUsername */\n      tag_28\n        /* \"contracts/authentication.sol\":3117:3130  getUsername() */\n      jump\t// in\n    tag_73:\n        /* \"contracts/authentication.sol\":3111:3138  bytes(getUsername()).length */\n      mload\n        /* \"contracts/authentication.sol\":3111:3141  bytes(getUsername()).length!=0 */\n      eq\n        /* \"contracts/authentication.sol\":3108:3706  if(bytes(getUsername()).length!=0) {... */\n      tag_74\n      jumpi\n        /* \"contracts/authentication.sol\":3188:3199  projectName */\n      dup5\n        /* \"contracts/authentication.sol\":3154:3161  project */\n      0x02\n        /* \"contracts/authentication.sol\":3154:3173  project[msg.sender] */\n      0x00\n        /* \"contracts/authentication.sol\":3162:3172  msg.sender */\n      caller\n        /* \"contracts/authentication.sol\":3154:3173  project[msg.sender] */\n      0xffffffffffffffffffffffffffffffffffffffff\n      and\n      0xffffffffffffffffffffffffffffffffffffffff\n      and\n      dup2\n      mstore\n      0x20\n      add\n      swap1\n      dup2\n      mstore\n      0x20\n      add\n      0x00\n      keccak256\n        /* \"contracts/authentication.sol\":3154:3185  project[msg.sender].projectName */\n      0x00\n      add\n        /* \"contracts/authentication.sol\":3154:3199  project[msg.sender].projectName = projectName */\n      swap1\n      dup1\n      mload\n      swap1\n      0x20\n      add\n      swap1\n      tag_75\n      swap3\n      swap2\n      swap1\n      tag_59\n      jump\t// in\n    tag_75:\n      pop\n        /* \"contracts/authentication.sol\":3244:3255  description */\n      dup4\n        /* \"contracts/authentication.sol\":3210:3217  project */\n      0x02\n        /* \"contracts/authentication.sol\":3210:3229  project[msg.sender] */\n      0x00\n        /* \"contracts/authentication.sol\":3218:3228  msg.sender */\n      caller\n        /* \"contracts/authentication.sol\":3210:3229  project[msg.sender] */\n      0xffffffffffffffffffffffffffffffffffffffff\n      and\n      0xffffffffffffffffffffffffffffffffffffffff\n      and\n      dup2\n      mstore\n      0x20\n      add\n      swap1\n      dup2\n      mstore\n      0x20\n      add\n      0x00\n      keccak256\n        /* \"contracts/authentication.sol\":3210:3241  project[msg.sender].description */\n      0x01\n      add\n        /* \"contracts/authentication.sol\":3210:3255  project[msg.sender].description = description */\n      swap1\n      dup1\n      mload\n      swap1\n      0x20\n      add\n      swap1\n      tag_76\n      swap3\n      swap2\n      swap1\n      tag_59\n      jump\t// in\n    tag_76:\n      pop\n        /* \"contracts/authentication.sol\":3297:3305  deadline */\n      dup3\n        /* \"contracts/authentication.sol\":3266:3273  project */\n      0x02\n        /* \"contracts/authentication.sol\":3266:3285  project[msg.sender] */\n      0x00\n        /* \"contracts/authentication.sol\":3274:3284  msg.sender */\n      caller\n        /* \"contracts/authentication.sol\":3266:3285  project[msg.sender] */\n      0xffffffffffffffffffffffffffffffffffffffff\n      and\n      0xffffffffffffffffffffffffffffffffffffffff\n      and\n      dup2\n      mstore\n      0x20\n      add\n      swap1\n      dup2\n      mstore\n      0x20\n      add\n      0x00\n      keccak256\n        /* \"contracts/authentication.sol\":3266:3294  project[msg.sender].deadline */\n      0x02\n      add\n        /* \"contracts/authentication.sol\":3266:3305  project[msg.sender].deadline = deadline */\n      swap1\n      dup1\n      mload\n      swap1\n      0x20\n      add\n      swap1\n      tag_77\n      swap3\n      swap2\n      swap1\n      tag_59\n      jump\t// in\n    tag_77:\n      pop\n        /* \"contracts/authentication.sol\":3345:3351  amount */\n      dup2\n        /* \"contracts/authentication.sol\":3316:3323  project */\n      0x02\n        /* \"contracts/authentication.sol\":3316:3335  project[msg.sender] */\n      0x00\n        /* \"contracts/authentication.sol\":3324:3334  msg.sender */\n      caller\n        /* \"contracts/authentication.sol\":3316:3335  project[msg.sender] */\n      0xffffffffffffffffffffffffffffffffffffffff\n      and\n      0xffffffffffffffffffffffffffffffffffffffff\n      and\n      dup2\n      mstore\n      0x20\n      add\n      swap1\n      dup2\n      mstore\n      0x20\n      add\n      0x00\n      keccak256\n        /* \"contracts/authentication.sol\":3316:3342  project[msg.sender].amount */\n      0x03\n      add\n        /* \"contracts/authentication.sol\":3316:3351  project[msg.sender].amount = amount */\n      swap1\n      dup1\n      mload\n      swap1\n      0x20\n      add\n      swap1\n      tag_78\n      swap3\n      swap2\n      swap1\n      tag_59\n      jump\t// in\n    tag_78:\n      pop\n        /* \"contracts/authentication.sol\":3362:3367  pName */\n      0x08\n        /* \"contracts/authentication.sol\":3373:3380  project */\n      0x02\n        /* \"contracts/authentication.sol\":3373:3392  project[msg.sender] */\n      0x00\n        /* \"contracts/authentication.sol\":3381:3391  msg.sender */\n      caller\n        /* \"contracts/authentication.sol\":3373:3392  project[msg.sender] */\n      0xffffffffffffffffffffffffffffffffffffffff\n      and\n      0xffffffffffffffffffffffffffffffffffffffff\n      and\n      dup2\n      mstore\n      0x20\n      add\n      swap1\n      dup2\n      mstore\n      0x20\n      add\n      0x00\n      keccak256\n        /* \"contracts/authentication.sol\":3373:3404  project[msg.sender].projectName */\n      0x00\n      add\n        /* \"contracts/authentication.sol\":3362:3405  pName.push(project[msg.sender].projectName) */\n      swap1\n      dup1\n      0x01\n      dup2\n      sload\n      add\n      dup1\n      dup3\n      sstore\n      dup1\n      swap2\n      pop\n      pop\n      0x01\n      swap1\n      sub\n      swap1\n      0x00\n      mstore\n      keccak256(0x00, 0x20)\n      add\n      0x00\n      swap1\n      swap2\n      swap1\n      swap2\n      swap1\n      swap2\n      pop\n      swap1\n      dup1\n      sload\n      tag_80\n      swap1\n      tag_49\n      jump\t// in\n    tag_80:\n      tag_81\n      swap3\n      swap2\n      swap1\n      tag_82\n      jump\t// in\n    tag_81:\n      pop\n        /* \"contracts/authentication.sol\":3416:3420  desc */\n      0x09\n        /* \"contracts/authentication.sol\":3426:3433  project */\n      0x02\n        /* \"contracts/authentication.sol\":3426:3445  project[msg.sender] */\n      0x00\n        /* \"contracts/authentication.sol\":3434:3444  msg.sender */\n      caller\n        /* \"contracts/authentication.sol\":3426:3445  project[msg.sender] */\n      0xffffffffffffffffffffffffffffffffffffffff\n      and\n      0xffffffffffffffffffffffffffffffffffffffff\n      and\n      dup2\n      mstore\n      0x20\n      add\n      swap1\n      dup2\n      mstore\n      0x20\n      add\n      0x00\n      keccak256\n        /* \"contracts/authentication.sol\":3426:3457  project[msg.sender].description */\n      0x01\n      add\n        /* \"contracts/authentication.sol\":3416:3458  desc.push(project[msg.sender].description) */\n      swap1\n      dup1\n      0x01\n      dup2\n      sload\n      add\n      dup1\n      dup3\n      sstore\n      dup1\n      swap2\n      pop\n      pop\n      0x01\n      swap1\n      sub\n      swap1\n      0x00\n      mstore\n      keccak256(0x00, 0x20)\n      add\n      0x00\n      swap1\n      swap2\n      swap1\n      swap2\n      swap1\n      swap2\n      pop\n      swap1\n      dup1\n      sload\n      tag_84\n      swap1\n      tag_49\n      jump\t// in\n    tag_84:\n      tag_85\n      swap3\n      swap2\n      swap1\n      tag_82\n      jump\t// in\n    tag_85:\n      pop\n        /* \"contracts/authentication.sol\":3469:3475  deadln */\n      0x0a\n        /* \"contracts/authentication.sol\":3481:3488  project */\n      0x02\n        /* \"contracts/authentication.sol\":3481:3500  project[msg.sender] */\n      0x00\n        /* \"contracts/authentication.sol\":3489:3499  msg.sender */\n      caller\n        /* \"contracts/authentication.sol\":3481:3500  project[msg.sender] */\n      0xffffffffffffffffffffffffffffffffffffffff\n      and\n      0xffffffffffffffffffffffffffffffffffffffff\n      and\n      dup2\n      mstore\n      0x20\n      add\n      swap1\n      dup2\n      mstore\n      0x20\n      add\n      0x00\n      keccak256\n        /* \"contracts/authentication.sol\":3481:3509  project[msg.sender].deadline */\n      0x02\n      add\n        /* \"contracts/authentication.sol\":3469:3510  deadln.push(project[msg.sender].deadline) */\n      swap1\n      dup1\n      0x01\n      dup2\n      sload\n      add\n      dup1\n      dup3\n      sstore\n      dup1\n      swap2\n      pop\n      pop\n      0x01\n      swap1\n      sub\n      swap1\n      0x00\n      mstore\n      keccak256(0x00, 0x20)\n      add\n      0x00\n      swap1\n      swap2\n      swap1\n      swap2\n      swap1\n      swap2\n      pop\n      swap1\n      dup1\n      sload\n      tag_87\n      swap1\n      tag_49\n      jump\t// in\n    tag_87:\n      tag_88\n      swap3\n      swap2\n      swap1\n      tag_82\n      jump\t// in\n    tag_88:\n      pop\n        /* \"contracts/authentication.sol\":3521:3524  amt */\n      0x0b\n        /* \"contracts/authentication.sol\":3530:3537  project */\n      0x02\n        /* \"contracts/authentication.sol\":3530:3549  project[msg.sender] */\n      0x00\n        /* \"contracts/authentication.sol\":3538:3548  msg.sender */\n      caller\n        /* \"contracts/authentication.sol\":3530:3549  project[msg.sender] */\n      0xffffffffffffffffffffffffffffffffffffffff\n      and\n      0xffffffffffffffffffffffffffffffffffffffff\n      and\n      dup2\n      mstore\n      0x20\n      add\n      swap1\n      dup2\n      mstore\n      0x20\n      add\n      0x00\n      keccak256\n        /* \"contracts/authentication.sol\":3530:3556  project[msg.sender].amount */\n      0x03\n      add\n        /* \"contracts/authentication.sol\":3521:3557  amt.push(project[msg.sender].amount) */\n      swap1\n      dup1\n      0x01\n      dup2\n      sload\n      add\n      dup1\n      dup3\n      sstore\n      dup1\n      swap2\n      pop\n      pop\n      0x01\n      swap1\n      sub\n      swap1\n      0x00\n      mstore\n      keccak256(0x00, 0x20)\n      add\n      0x00\n      swap1\n      swap2\n      swap1\n      swap2\n      swap1\n      swap2\n      pop\n      swap1\n      dup1\n      sload\n      tag_90\n      swap1\n      tag_49\n      jump\t// in\n    tag_90:\n      tag_91\n      swap3\n      swap2\n      swap1\n      tag_82\n      jump\t// in\n    tag_91:\n      pop\n        /* \"contracts/authentication.sol\":3606:3641  return \"Project Saved Successfully\" */\n      mload(0x40)\n      dup1\n      0x40\n      add\n      0x40\n      mstore\n      dup1\n      0x1a\n      dup2\n      mstore\n      0x20\n      add\n      0x50726f6a656374205361766564205375636365737366756c6c79000000000000\n      dup2\n      mstore\n      pop\n      swap1\n      pop\n      jump(tag_72)\n        /* \"contracts/authentication.sol\":3108:3706  if(bytes(getUsername()).length!=0) {... */\n    tag_74:\n        /* \"contracts/authentication.sol\":3668:3697  return \"Error Saving Project\" */\n      mload(0x40)\n      dup1\n      0x40\n      add\n      0x40\n      mstore\n      dup1\n      0x14\n      dup2\n      mstore\n      0x20\n      add\n      0x4572726f7220536176696e672050726f6a656374000000000000000000000000\n      dup2\n      mstore\n      pop\n      swap1\n      pop\n        /* \"contracts/authentication.sol\":2942:3715  function saveProject(string memory projectName, string memory description, string memory deadline, string memory amount) public returns(string memory) {... */\n    tag_72:\n      swap5\n      swap4\n      pop\n      pop\n      pop\n      pop\n      jump\t// out\n        /* \"contracts/authentication.sol\":1817:2016  function getSignatureHash() public view returns (string memory) {... */\n    tag_36:\n        /* \"contracts/authentication.sol\":1866:1879  string memory */\n      0x60\n        /* \"contracts/authentication.sol\":1914:1918  user */\n      0x01\n        /* \"contracts/authentication.sol\":1914:1930  user[msg.sender] */\n      0x00\n        /* \"contracts/authentication.sol\":1919:1929  msg.sender */\n      caller\n        /* \"contracts/authentication.sol\":1914:1930  user[msg.sender] */\n      0xffffffffffffffffffffffffffffffffffffffff\n      and\n      0xffffffffffffffffffffffffffffffffffffffff\n      and\n      dup2\n      mstore\n      0x20\n      add\n      swap1\n      dup2\n      mstore\n      0x20\n      add\n      0x00\n      keccak256\n        /* \"contracts/authentication.sol\":1914:1942  user[msg.sender].userAddress */\n      0x05\n      add\n      0x00\n      swap1\n      sload\n      swap1\n      0x0100\n      exp\n      swap1\n      div\n      0xffffffffffffffffffffffffffffffffffffffff\n      and\n        /* \"contracts/authentication.sol\":1900:1942  msg.sender == user[msg.sender].userAddress */\n      0xffffffffffffffffffffffffffffffffffffffff\n      and\n        /* \"contracts/authentication.sol\":1900:1910  msg.sender */\n      caller\n        /* \"contracts/authentication.sol\":1900:1942  msg.sender == user[msg.sender].userAddress */\n      0xffffffffffffffffffffffffffffffffffffffff\n      and\n      eq\n        /* \"contracts/authentication.sol\":1892:1958  require(msg.sender == user[msg.sender].userAddress, \"Not allowed\") */\n      tag_94\n      jumpi\n      mload(0x40)\n      0x08c379a000000000000000000000000000000000000000000000000000000000\n      dup2\n      mstore\n      0x04\n      add\n      tag_95\n      swap1\n      tag_96\n      jump\t// in\n    tag_95:\n      mload(0x40)\n      dup1\n      swap2\n      sub\n      swap1\n      revert\n    tag_94:\n        /* \"contracts/authentication.sol\":1978:1982  user */\n      0x01\n        /* \"contracts/authentication.sol\":1978:1994  user[msg.sender] */\n      0x00\n        /* \"contracts/authentication.sol\":1983:1993  msg.sender */\n      caller\n        /* \"contracts/authentication.sol\":1978:1994  user[msg.sender] */\n      0xffffffffffffffffffffffffffffffffffffffff\n      and\n      0xffffffffffffffffffffffffffffffffffffffff\n      and\n      dup2\n      mstore\n      0x20\n      add\n      swap1\n      dup2\n      mstore\n      0x20\n      add\n      0x00\n      keccak256\n        /* \"contracts/authentication.sol\":1978:2008  user[msg.sender].signatureHash */\n      0x00\n      add\n        /* \"contracts/authentication.sol\":1971:2008  return user[msg.sender].signatureHash */\n      dup1\n      sload\n      tag_97\n      swap1\n      tag_49\n      jump\t// in\n    tag_97:\n      dup1\n      0x1f\n      add\n      0x20\n      dup1\n      swap2\n      div\n      mul\n      0x20\n      add\n      mload(0x40)\n      swap1\n      dup2\n      add\n      0x40\n      mstore\n      dup1\n      swap3\n      swap2\n      swap1\n      dup2\n      dup2\n      mstore\n      0x20\n      add\n      dup3\n      dup1\n      sload\n      tag_98\n      swap1\n      tag_49\n      jump\t// in\n    tag_98:\n      dup1\n      iszero\n      tag_99\n      jumpi\n      dup1\n      0x1f\n      lt\n      tag_100\n      jumpi\n      0x0100\n      dup1\n      dup4\n      sload\n      div\n      mul\n      dup4\n      mstore\n      swap2\n      0x20\n      add\n      swap2\n      jump(tag_99)\n    tag_100:\n      dup3\n      add\n      swap2\n      swap1\n      0x00\n      mstore\n      keccak256(0x00, 0x20)\n      swap1\n    tag_101:\n      dup2\n      sload\n      dup2\n      mstore\n      swap1\n      0x01\n      add\n      swap1\n      0x20\n      add\n      dup1\n      dup4\n      gt\n      tag_101\n      jumpi\n      dup3\n      swap1\n      sub\n      0x1f\n      and\n      dup3\n      add\n      swap2\n    tag_99:\n      pop\n      pop\n      pop\n      pop\n      pop\n      swap1\n      pop\n        /* \"contracts/authentication.sol\":1817:2016  function getSignatureHash() public view returns (string memory) {... */\n      swap1\n      jump\t// out\n        /* \"contracts/authentication.sol\":2024:2136  function getUserAddress() public view returns (address) {... */\n    tag_39:\n        /* \"contracts/authentication.sol\":2071:2078  address */\n      0x00\n        /* \"contracts/authentication.sol\":2100:2104  user */\n      0x01\n        /* \"contracts/authentication.sol\":2100:2116  user[msg.sender] */\n      0x00\n        /* \"contracts/authentication.sol\":2105:2115  msg.sender */\n      caller\n        /* \"contracts/authentication.sol\":2100:2116  user[msg.sender] */\n      0xffffffffffffffffffffffffffffffffffffffff\n      and\n      0xffffffffffffffffffffffffffffffffffffffff\n      and\n      dup2\n      mstore\n      0x20\n      add\n      swap1\n      dup2\n      mstore\n      0x20\n      add\n      0x00\n      keccak256\n        /* \"contracts/authentication.sol\":2100:2128  user[msg.sender].userAddress */\n      0x05\n      add\n      0x00\n      swap1\n      sload\n      swap1\n      0x0100\n      exp\n      swap1\n      div\n      0xffffffffffffffffffffffffffffffffffffffff\n      and\n        /* \"contracts/authentication.sol\":2093:2128  return user[msg.sender].userAddress */\n      swap1\n      pop\n        /* \"contracts/authentication.sol\":2024:2136  function getUserAddress() public view returns (address) {... */\n      swap1\n      jump\t// out\n        /* \"contracts/authentication.sol\":3727:3898  function getProjectDetails() public view returns(string[] memory, string[] memory, string[] memory, string[] memory) {... */\n    tag_43:\n        /* \"contracts/authentication.sol\":3776:3791  string[] memory */\n      0x60\n        /* \"contracts/authentication.sol\":3793:3808  string[] memory */\n      dup1\n        /* \"contracts/authentication.sol\":3810:3825  string[] memory */\n      0x60\n        /* \"contracts/authentication.sol\":3827:3842  string[] memory */\n      dup1\n        /* \"contracts/authentication.sol\":3865:3870  pName */\n      0x08\n        /* \"contracts/authentication.sol\":3872:3876  desc */\n      0x09\n        /* \"contracts/authentication.sol\":3878:3884  deadln */\n      0x0a\n        /* \"contracts/authentication.sol\":3886:3889  amt */\n      0x0b\n        /* \"contracts/authentication.sol\":3857:3890  return (pName, desc, deadln, amt) */\n      dup4\n      dup1\n      sload\n      dup1\n      0x20\n      mul\n      0x20\n      add\n      mload(0x40)\n      swap1\n      dup2\n      add\n      0x40\n      mstore\n      dup1\n      swap3\n      swap2\n      swap1\n      dup2\n      dup2\n      mstore\n      0x20\n      add\n      0x00\n      swap1\n    tag_104:\n      dup3\n      dup3\n      lt\n      iszero\n      tag_105\n      jumpi\n      dup4\n      dup3\n      swap1\n      0x00\n      mstore\n      keccak256(0x00, 0x20)\n      add\n      dup1\n      sload\n      tag_107\n      swap1\n      tag_49\n      jump\t// in\n    tag_107:\n      dup1\n      0x1f\n      add\n      0x20\n      dup1\n      swap2\n      div\n      mul\n      0x20\n      add\n      mload(0x40)\n      swap1\n      dup2\n      add\n      0x40\n      mstore\n      dup1\n      swap3\n      swap2\n      swap1\n      dup2\n      dup2\n      mstore\n      0x20\n      add\n      dup3\n      dup1\n      sload\n      tag_108\n      swap1\n      tag_49\n      jump\t// in\n    tag_108:\n      dup1\n      iszero\n      tag_109\n      jumpi\n      dup1\n      0x1f\n      lt\n      tag_110\n      jumpi\n      0x0100\n      dup1\n      dup4\n      sload\n      div\n      mul\n      dup4\n      mstore\n      swap2\n      0x20\n      add\n      swap2\n      jump(tag_109)\n    tag_110:\n      dup3\n      add\n      swap2\n      swap1\n      0x00\n      mstore\n      keccak256(0x00, 0x20)\n      swap1\n    tag_111:\n      dup2\n      sload\n      dup2\n      mstore\n      swap1\n      0x01\n      add\n      swap1\n      0x20\n      add\n      dup1\n      dup4\n      gt\n      tag_111\n      jumpi\n      dup3\n      swap1\n      sub\n      0x1f\n      and\n      dup3\n      add\n      swap2\n    tag_109:\n      pop\n      pop\n      pop\n      pop\n      pop\n      dup2\n      mstore\n      0x20\n      add\n      swap1\n      0x01\n      add\n      swap1\n      jump(tag_104)\n    tag_105:\n      pop\n      pop\n      pop\n      pop\n      swap4\n      pop\n      dup3\n      dup1\n      sload\n      dup1\n      0x20\n      mul\n      0x20\n      add\n      mload(0x40)\n      swap1\n      dup2\n      add\n      0x40\n      mstore\n      dup1\n      swap3\n      swap2\n      swap1\n      dup2\n      dup2\n      mstore\n      0x20\n      add\n      0x00\n      swap1\n    tag_112:\n      dup3\n      dup3\n      lt\n      iszero\n      tag_113\n      jumpi\n      dup4\n      dup3\n      swap1\n      0x00\n      mstore\n      keccak256(0x00, 0x20)\n      add\n      dup1\n      sload\n      tag_115\n      swap1\n      tag_49\n      jump\t// in\n    tag_115:\n      dup1\n      0x1f\n      add\n      0x20\n      dup1\n      swap2\n      div\n      mul\n      0x20\n      add\n      mload(0x40)\n      swap1\n      dup2\n      add\n      0x40\n      mstore\n      dup1\n      swap3\n      swap2\n      swap1\n      dup2\n      dup2\n      mstore\n      0x20\n      add\n      dup3\n      dup1\n      sload\n      tag_116\n      swap1\n      tag_49\n      jump\t// in\n    tag_116:\n      dup1\n      iszero\n      tag_117\n      jumpi\n      dup1\n      0x1f\n      lt\n      tag_118\n      jumpi\n      0x0100\n      dup1\n      dup4\n      sload\n      div\n      mul\n      dup4\n      mstore\n      swap2\n      0x20\n      add\n      swap2\n      jump(tag_117)\n    tag_118:\n      dup3\n      add\n      swap2\n      swap1\n      0x00\n      mstore\n      keccak256(0x00, 0x20)\n      swap1\n    tag_119:\n      dup2\n      sload\n      dup2\n      mstore\n      swap1\n      0x01\n      add\n      swap1\n      0x20\n      add\n      dup1\n      dup4\n      gt\n      tag_119\n      jumpi\n      dup3\n      swap1\n      sub\n      0x1f\n      and\n      dup3\n      add\n      swap2\n    tag_117:\n      pop\n      pop\n      pop\n      pop\n      pop\n      dup2\n      mstore\n      0x20\n      add\n      swap1\n      0x01\n      add\n      swap1\n      jump(tag_112)\n    tag_113:\n      pop\n      pop\n      pop\n      pop\n      swap3\n      pop\n      dup2\n      dup1\n      sload\n      dup1\n      0x20\n      mul\n      0x20\n      add\n      mload(0x40)\n      swap1\n      dup2\n      add\n      0x40\n      mstore\n      dup1\n      swap3\n      swap2\n      swap1\n      dup2\n      dup2\n      mstore\n      0x20\n      add\n      0x00\n      swap1\n    tag_120:\n      dup3\n      dup3\n      lt\n      iszero\n      tag_121\n      jumpi\n      dup4\n      dup3\n      swap1\n      0x00\n      mstore\n      keccak256(0x00, 0x20)\n      add\n      dup1\n      sload\n      tag_123\n      swap1\n      tag_49\n      jump\t// in\n    tag_123:\n      dup1\n      0x1f\n      add\n      0x20\n      dup1\n      swap2\n      div\n      mul\n      0x20\n      add\n      mload(0x40)\n      swap1\n      dup2\n      add\n      0x40\n      mstore\n      dup1\n      swap3\n      swap2\n      swap1\n      dup2\n      dup2\n      mstore\n      0x20\n      add\n      dup3\n      dup1\n      sload\n      tag_124\n      swap1\n      tag_49\n      jump\t// in\n    tag_124:\n      dup1\n      iszero\n      tag_125\n      jumpi\n      dup1\n      0x1f\n      lt\n      tag_126\n      jumpi\n      0x0100\n      dup1\n      dup4\n      sload\n      div\n      mul\n      dup4\n      mstore\n      swap2\n      0x20\n      add\n      swap2\n      jump(tag_125)\n    tag_126:\n      dup3\n      add\n      swap2\n      swap1\n      0x00\n      mstore\n      keccak256(0x00, 0x20)\n      swap1\n    tag_127:\n      dup2\n      sload\n      dup2\n      mstore\n      swap1\n      0x01\n      add\n      swap1\n      0x20\n      add\n      dup1\n      dup4\n      gt\n      tag_127\n      jumpi\n      dup3\n      swap1\n      sub\n      0x1f\n      and\n      dup3\n      add\n      swap2\n    tag_125:\n      pop\n      pop\n      pop\n      pop\n      pop\n      dup2\n      mstore\n      0x20\n      add\n      swap1\n      0x01\n      add\n      swap1\n      jump(tag_120)\n    tag_121:\n      pop\n      pop\n      pop\n      pop\n      swap2\n      pop\n      dup1\n      dup1\n      sload\n      dup1\n      0x20\n      mul\n      0x20\n      add\n      mload(0x40)\n      swap1\n      dup2\n      add\n      0x40\n      mstore\n      dup1\n      swap3\n      swap2\n      swap1\n      dup2\n      dup2\n      mstore\n      0x20\n      add\n      0x00\n      swap1\n    tag_128:\n      dup3\n      dup3\n      lt\n      iszero\n      tag_129\n      jumpi\n      dup4\n      dup3\n      swap1\n      0x00\n      mstore\n      keccak256(0x00, 0x20)\n      add\n      dup1\n      sload\n      tag_131\n      swap1\n      tag_49\n      jump\t// in\n    tag_131:\n      dup1\n      0x1f\n      add\n      0x20\n      dup1\n      swap2\n      div\n      mul\n      0x20\n      add\n      mload(0x40)\n      swap1\n      dup2\n      add\n      0x40\n      mstore\n      dup1\n      swap3\n      swap2\n      swap1\n      dup2\n      dup2\n      mstore\n      0x20\n      add\n      dup3\n      dup1\n      sload\n      tag_132\n      swap1\n      tag_49\n      jump\t// in\n    tag_132:\n      dup1\n      iszero\n      tag_133\n      jumpi\n      dup1\n      0x1f\n      lt\n      tag_134\n      jumpi\n      0x0100\n      dup1\n      dup4\n      sload\n      div\n      mul\n      dup4\n      mstore\n      swap2\n      0x20\n      add\n      swap2\n      jump(tag_133)\n    tag_134:\n      dup3\n      add\n      swap2\n      swap1\n      0x00\n      mstore\n      keccak256(0x00, 0x20)\n      swap1\n    tag_135:\n      dup2\n      sload\n      dup2\n      mstore\n      swap1\n      0x01\n      add\n      swap1\n      0x20\n      add\n      dup1\n      dup4\n      gt\n      tag_135\n      jumpi\n      dup3\n      swap1\n      sub\n      0x1f\n      and\n      dup3\n      add\n      swap2\n    tag_133:\n      pop\n      pop\n      pop\n      pop\n      pop\n      dup2\n      mstore\n      0x20\n      add\n      swap1\n      0x01\n      add\n      swap1\n      jump(tag_128)\n    tag_129:\n      pop\n      pop\n      pop\n      pop\n      swap1\n      pop\n      swap4\n      pop\n      swap4\n      pop\n      swap4\n      pop\n      swap4\n      pop\n        /* \"contracts/authentication.sol\":3727:3898  function getProjectDetails() public view returns(string[] memory, string[] memory, string[] memory, string[] memory) {... */\n      swap1\n      swap2\n      swap3\n      swap4\n      jump\t// out\n    tag_59:\n      dup3\n      dup1\n      sload\n      tag_136\n      swap1\n      tag_49\n      jump\t// in\n    tag_136:\n      swap1\n      0x00\n      mstore\n      keccak256(0x00, 0x20)\n      swap1\n      0x1f\n      add\n      0x20\n      swap1\n      div\n      dup2\n      add\n      swap3\n      dup3\n      tag_138\n      jumpi\n      0x00\n      dup6\n      sstore\n      jump(tag_137)\n    tag_138:\n      dup3\n      0x1f\n      lt\n      tag_139\n      jumpi\n      dup1\n      mload\n      not(0xff)\n      and\n      dup4\n      dup1\n      add\n      or\n      dup6\n      sstore\n      jump(tag_137)\n    tag_139:\n      dup3\n      dup1\n      add\n      0x01\n      add\n      dup6\n      sstore\n      dup3\n      iszero\n      tag_137\n      jumpi\n      swap2\n      dup3\n      add\n    tag_140:\n      dup3\n      dup2\n      gt\n      iszero\n      tag_141\n      jumpi\n      dup3\n      mload\n      dup3\n      sstore\n      swap2\n      0x20\n      add\n      swap2\n      swap1\n      0x01\n      add\n      swap1\n      jump(tag_140)\n    tag_141:\n    tag_137:\n      pop\n      swap1\n      pop\n      tag_142\n      swap2\n      swap1\n      tag_143\n      jump\t// in\n    tag_142:\n      pop\n      swap1\n      jump\t// out\n    tag_82:\n      dup3\n      dup1\n      sload\n      tag_144\n      swap1\n      tag_49\n      jump\t// in\n    tag_144:\n      swap1\n      0x00\n      mstore\n      keccak256(0x00, 0x20)\n      swap1\n      0x1f\n      add\n      0x20\n      swap1\n      div\n      dup2\n      add\n      swap3\n      dup3\n      tag_146\n      jumpi\n      0x00\n      dup6\n      sstore\n      jump(tag_145)\n    tag_146:\n      dup3\n      0x1f\n      lt\n      tag_147\n      jumpi\n      dup1\n      sload\n      dup6\n      sstore\n      jump(tag_145)\n    tag_147:\n      dup3\n      dup1\n      add\n      0x01\n      add\n      dup6\n      sstore\n      dup3\n      iszero\n      tag_145\n      jumpi\n      0x00\n      mstore\n      keccak256(0x00, 0x20)\n      swap2\n      0x1f\n      add\n      0x20\n      swap1\n      div\n      dup3\n      add\n    tag_148:\n      dup3\n      dup2\n      gt\n      iszero\n      tag_149\n      jumpi\n      dup3\n      sload\n      dup3\n      sstore\n      swap2\n      0x01\n      add\n      swap2\n      swap1\n      0x01\n      add\n      swap1\n      jump(tag_148)\n    tag_149:\n    tag_145:\n      pop\n      swap1\n      pop\n      tag_150\n      swap2\n      swap1\n      tag_143\n      jump\t// in\n    tag_150:\n      pop\n      swap1\n      jump\t// out\n    tag_143:\n    tag_151:\n      dup1\n      dup3\n      gt\n      iszero\n      tag_152\n      jumpi\n      0x00\n      dup2\n      0x00\n      swap1\n      sstore\n      pop\n      0x01\n      add\n      jump(tag_151)\n    tag_152:\n      pop\n      swap1\n      jump\t// out\n        /* \"#utility.yul\":7:84   */\n    tag_153:\n        /* \"#utility.yul\":44:51   */\n      0x00\n        /* \"#utility.yul\":73:78   */\n      dup2\n        /* \"#utility.yul\":62:78   */\n      swap1\n      pop\n        /* \"#utility.yul\":7:84   */\n      swap2\n      swap1\n      pop\n      jump\t// out\n        /* \"#utility.yul\":90:208   */\n    tag_154:\n        /* \"#utility.yul\":177:201   */\n      tag_190\n        /* \"#utility.yul\":195:200   */\n      dup2\n        /* \"#utility.yul\":177:201   */\n      tag_153\n      jump\t// in\n    tag_190:\n        /* \"#utility.yul\":172:175   */\n      dup3\n        /* \"#utility.yul\":165:202   */\n      mstore\n        /* \"#utility.yul\":90:208   */\n      pop\n      pop\n      jump\t// out\n        /* \"#utility.yul\":214:436   */\n    tag_15:\n        /* \"#utility.yul\":307:311   */\n      0x00\n        /* \"#utility.yul\":345:347   */\n      0x20\n        /* \"#utility.yul\":334:343   */\n      dup3\n        /* \"#utility.yul\":330:348   */\n      add\n        /* \"#utility.yul\":322:348   */\n      swap1\n      pop\n        /* \"#utility.yul\":358:429   */\n      tag_192\n        /* \"#utility.yul\":426:427   */\n      0x00\n        /* \"#utility.yul\":415:424   */\n      dup4\n        /* \"#utility.yul\":411:428   */\n      add\n        /* \"#utility.yul\":402:408   */\n      dup5\n        /* \"#utility.yul\":358:429   */\n      tag_154\n      jump\t// in\n    tag_192:\n        /* \"#utility.yul\":214:436   */\n      swap3\n      swap2\n      pop\n      pop\n      jump\t// out\n        /* \"#utility.yul\":442:517   */\n    tag_155:\n        /* \"#utility.yul\":475:481   */\n      0x00\n        /* \"#utility.yul\":508:510   */\n      0x40\n        /* \"#utility.yul\":502:511   */\n      mload\n        /* \"#utility.yul\":492:511   */\n      swap1\n      pop\n        /* \"#utility.yul\":442:517   */\n      swap1\n      jump\t// out\n        /* \"#utility.yul\":523:640   */\n    tag_156:\n        /* \"#utility.yul\":632:633   */\n      0x00\n        /* \"#utility.yul\":629:630   */\n      dup1\n        /* \"#utility.yul\":622:634   */\n      revert\n        /* \"#utility.yul\":646:763   */\n    tag_157:\n        /* \"#utility.yul\":755:756   */\n      0x00\n        /* \"#utility.yul\":752:753   */\n      dup1\n        /* \"#utility.yul\":745:757   */\n      revert\n        /* \"#utility.yul\":769:886   */\n    tag_158:\n        /* \"#utility.yul\":878:879   */\n      0x00\n        /* \"#utility.yul\":875:876   */\n      dup1\n        /* \"#utility.yul\":868:880   */\n      revert\n        /* \"#utility.yul\":892:1009   */\n    tag_159:\n        /* \"#utility.yul\":1001:1002   */\n      0x00\n        /* \"#utility.yul\":998:999   */\n      dup1\n        /* \"#utility.yul\":991:1003   */\n      revert\n        /* \"#utility.yul\":1015:1117   */\n    tag_160:\n        /* \"#utility.yul\":1056:1062   */\n      0x00\n        /* \"#utility.yul\":1107:1109   */\n      0x1f\n        /* \"#utility.yul\":1103:1110   */\n      not\n        /* \"#utility.yul\":1098:1100   */\n      0x1f\n        /* \"#utility.yul\":1091:1096   */\n      dup4\n        /* \"#utility.yul\":1087:1101   */\n      add\n        /* \"#utility.yul\":1083:1111   */\n      and\n        /* \"#utility.yul\":1073:1111   */\n      swap1\n      pop\n        /* \"#utility.yul\":1015:1117   */\n      swap2\n      swap1\n      pop\n      jump\t// out\n        /* \"#utility.yul\":1123:1303   */\n    tag_161:\n        /* \"#utility.yul\":1171:1248   */\n      0x4e487b7100000000000000000000000000000000000000000000000000000000\n        /* \"#utility.yul\":1168:1169   */\n      0x00\n        /* \"#utility.yul\":1161:1249   */\n      mstore\n        /* \"#utility.yul\":1268:1272   */\n      0x41\n        /* \"#utility.yul\":1265:1266   */\n      0x04\n        /* \"#utility.yul\":1258:1273   */\n      mstore\n        /* \"#utility.yul\":1292:1296   */\n      0x24\n        /* \"#utility.yul\":1289:1290   */\n      0x00\n        /* \"#utility.yul\":1282:1297   */\n      revert\n        /* \"#utility.yul\":1309:1590   */\n    tag_162:\n        /* \"#utility.yul\":1392:1419   */\n      tag_201\n        /* \"#utility.yul\":1414:1418   */\n      dup3\n        /* \"#utility.yul\":1392:1419   */\n      tag_160\n      jump\t// in\n    tag_201:\n        /* \"#utility.yul\":1384:1390   */\n      dup2\n        /* \"#utility.yul\":1380:1420   */\n      add\n        /* \"#utility.yul\":1522:1528   */\n      dup2\n        /* \"#utility.yul\":1510:1520   */\n      dup2\n        /* \"#utility.yul\":1507:1529   */\n      lt\n        /* \"#utility.yul\":1486:1504   */\n      0xffffffffffffffff\n        /* \"#utility.yul\":1474:1484   */\n      dup3\n        /* \"#utility.yul\":1471:1505   */\n      gt\n        /* \"#utility.yul\":1468:1530   */\n      or\n        /* \"#utility.yul\":1465:1553   */\n      iszero\n      tag_202\n      jumpi\n        /* \"#utility.yul\":1533:1551   */\n      tag_203\n      tag_161\n      jump\t// in\n    tag_203:\n        /* \"#utility.yul\":1465:1553   */\n    tag_202:\n        /* \"#utility.yul\":1573:1583   */\n      dup1\n        /* \"#utility.yul\":1569:1571   */\n      0x40\n        /* \"#utility.yul\":1562:1584   */\n      mstore\n        /* \"#utility.yul\":1352:1590   */\n      pop\n        /* \"#utility.yul\":1309:1590   */\n      pop\n      pop\n      jump\t// out\n        /* \"#utility.yul\":1596:1725   */\n    tag_163:\n        /* \"#utility.yul\":1630:1636   */\n      0x00\n        /* \"#utility.yul\":1657:1677   */\n      tag_205\n      tag_155\n      jump\t// in\n    tag_205:\n        /* \"#utility.yul\":1647:1677   */\n      swap1\n      pop\n        /* \"#utility.yul\":1686:1719   */\n      tag_206\n        /* \"#utility.yul\":1714:1718   */\n      dup3\n        /* \"#utility.yul\":1706:1712   */\n      dup3\n        /* \"#utility.yul\":1686:1719   */\n      tag_162\n      jump\t// in\n    tag_206:\n        /* \"#utility.yul\":1596:1725   */\n      swap2\n      swap1\n      pop\n      jump\t// out\n        /* \"#utility.yul\":1731:2039   */\n    tag_164:\n        /* \"#utility.yul\":1793:1797   */\n      0x00\n        /* \"#utility.yul\":1883:1901   */\n      0xffffffffffffffff\n        /* \"#utility.yul\":1875:1881   */\n      dup3\n        /* \"#utility.yul\":1872:1902   */\n      gt\n        /* \"#utility.yul\":1869:1925   */\n      iszero\n      tag_208\n      jumpi\n        /* \"#utility.yul\":1905:1923   */\n      tag_209\n      tag_161\n      jump\t// in\n    tag_209:\n        /* \"#utility.yul\":1869:1925   */\n    tag_208:\n        /* \"#utility.yul\":1943:1972   */\n      tag_210\n        /* \"#utility.yul\":1965:1971   */\n      dup3\n        /* \"#utility.yul\":1943:1972   */\n      tag_160\n      jump\t// in\n    tag_210:\n        /* \"#utility.yul\":1935:1972   */\n      swap1\n      pop\n        /* \"#utility.yul\":2027:2031   */\n      0x20\n        /* \"#utility.yul\":2021:2025   */\n      dup2\n        /* \"#utility.yul\":2017:2032   */\n      add\n        /* \"#utility.yul\":2009:2032   */\n      swap1\n      pop\n        /* \"#utility.yul\":1731:2039   */\n      swap2\n      swap1\n      pop\n      jump\t// out\n        /* \"#utility.yul\":2045:2199   */\n    tag_165:\n        /* \"#utility.yul\":2129:2135   */\n      dup3\n        /* \"#utility.yul\":2124:2127   */\n      dup2\n        /* \"#utility.yul\":2119:2122   */\n      dup4\n        /* \"#utility.yul\":2106:2136   */\n      calldatacopy\n        /* \"#utility.yul\":2191:2192   */\n      0x00\n        /* \"#utility.yul\":2182:2188   */\n      dup4\n        /* \"#utility.yul\":2177:2180   */\n      dup4\n        /* \"#utility.yul\":2173:2189   */\n      add\n        /* \"#utility.yul\":2166:2193   */\n      mstore\n        /* \"#utility.yul\":2045:2199   */\n      pop\n      pop\n      pop\n      jump\t// out\n        /* \"#utility.yul\":2205:2617   */\n    tag_166:\n        /* \"#utility.yul\":2283:2288   */\n      0x00\n        /* \"#utility.yul\":2308:2374   */\n      tag_213\n        /* \"#utility.yul\":2324:2373   */\n      tag_214\n        /* \"#utility.yul\":2366:2372   */\n      dup5\n        /* \"#utility.yul\":2324:2373   */\n      tag_164\n      jump\t// in\n    tag_214:\n        /* \"#utility.yul\":2308:2374   */\n      tag_163\n      jump\t// in\n    tag_213:\n        /* \"#utility.yul\":2299:2374   */\n      swap1\n      pop\n        /* \"#utility.yul\":2397:2403   */\n      dup3\n        /* \"#utility.yul\":2390:2395   */\n      dup2\n        /* \"#utility.yul\":2383:2404   */\n      mstore\n        /* \"#utility.yul\":2435:2439   */\n      0x20\n        /* \"#utility.yul\":2428:2433   */\n      dup2\n        /* \"#utility.yul\":2424:2440   */\n      add\n        /* \"#utility.yul\":2473:2476   */\n      dup5\n        /* \"#utility.yul\":2464:2470   */\n      dup5\n        /* \"#utility.yul\":2459:2462   */\n      dup5\n        /* \"#utility.yul\":2455:2471   */\n      add\n        /* \"#utility.yul\":2452:2477   */\n      gt\n        /* \"#utility.yul\":2449:2561   */\n      iszero\n      tag_215\n      jumpi\n        /* \"#utility.yul\":2480:2559   */\n      tag_216\n      tag_159\n      jump\t// in\n    tag_216:\n        /* \"#utility.yul\":2449:2561   */\n    tag_215:\n        /* \"#utility.yul\":2570:2611   */\n      tag_217\n        /* \"#utility.yul\":2604:2610   */\n      dup5\n        /* \"#utility.yul\":2599:2602   */\n      dup3\n        /* \"#utility.yul\":2594:2597   */\n      dup6\n        /* \"#utility.yul\":2570:2611   */\n      tag_165\n      jump\t// in\n    tag_217:\n        /* \"#utility.yul\":2289:2617   */\n      pop\n        /* \"#utility.yul\":2205:2617   */\n      swap4\n      swap3\n      pop\n      pop\n      pop\n      jump\t// out\n        /* \"#utility.yul\":2637:2977   */\n    tag_167:\n        /* \"#utility.yul\":2693:2698   */\n      0x00\n        /* \"#utility.yul\":2742:2745   */\n      dup3\n        /* \"#utility.yul\":2735:2739   */\n      0x1f\n        /* \"#utility.yul\":2727:2733   */\n      dup4\n        /* \"#utility.yul\":2723:2740   */\n      add\n        /* \"#utility.yul\":2719:2746   */\n      slt\n        /* \"#utility.yul\":2709:2831   */\n      tag_219\n      jumpi\n        /* \"#utility.yul\":2750:2829   */\n      tag_220\n      tag_158\n      jump\t// in\n    tag_220:\n        /* \"#utility.yul\":2709:2831   */\n    tag_219:\n        /* \"#utility.yul\":2867:2873   */\n      dup2\n        /* \"#utility.yul\":2854:2874   */\n      calldataload\n        /* \"#utility.yul\":2892:2971   */\n      tag_221\n        /* \"#utility.yul\":2967:2970   */\n      dup5\n        /* \"#utility.yul\":2959:2965   */\n      dup3\n        /* \"#utility.yul\":2952:2956   */\n      0x20\n        /* \"#utility.yul\":2944:2950   */\n      dup7\n        /* \"#utility.yul\":2940:2957   */\n      add\n        /* \"#utility.yul\":2892:2971   */\n      tag_166\n      jump\t// in\n    tag_221:\n        /* \"#utility.yul\":2883:2971   */\n      swap2\n      pop\n        /* \"#utility.yul\":2699:2977   */\n      pop\n        /* \"#utility.yul\":2637:2977   */\n      swap3\n      swap2\n      pop\n      pop\n      jump\t// out\n        /* \"#utility.yul\":2983:3817   */\n    tag_18:\n        /* \"#utility.yul\":3071:3077   */\n      0x00\n        /* \"#utility.yul\":3079:3085   */\n      dup1\n        /* \"#utility.yul\":3128:3130   */\n      0x40\n        /* \"#utility.yul\":3116:3125   */\n      dup4\n        /* \"#utility.yul\":3107:3114   */\n      dup6\n        /* \"#utility.yul\":3103:3126   */\n      sub\n        /* \"#utility.yul\":3099:3131   */\n      slt\n        /* \"#utility.yul\":3096:3215   */\n      iszero\n      tag_223\n      jumpi\n        /* \"#utility.yul\":3134:3213   */\n      tag_224\n      tag_156\n      jump\t// in\n    tag_224:\n        /* \"#utility.yul\":3096:3215   */\n    tag_223:\n        /* \"#utility.yul\":3282:3283   */\n      0x00\n        /* \"#utility.yul\":3271:3280   */\n      dup4\n        /* \"#utility.yul\":3267:3284   */\n      add\n        /* \"#utility.yul\":3254:3285   */\n      calldataload\n        /* \"#utility.yul\":3312:3330   */\n      0xffffffffffffffff\n        /* \"#utility.yul\":3304:3310   */\n      dup2\n        /* \"#utility.yul\":3301:3331   */\n      gt\n        /* \"#utility.yul\":3298:3415   */\n      iszero\n      tag_225\n      jumpi\n        /* \"#utility.yul\":3334:3413   */\n      tag_226\n      tag_157\n      jump\t// in\n    tag_226:\n        /* \"#utility.yul\":3298:3415   */\n    tag_225:\n        /* \"#utility.yul\":3439:3502   */\n      tag_227\n        /* \"#utility.yul\":3494:3501   */\n      dup6\n        /* \"#utility.yul\":3485:3491   */\n      dup3\n        /* \"#utility.yul\":3474:3483   */\n      dup7\n        /* \"#utility.yul\":3470:3492   */\n      add\n        /* \"#utility.yul\":3439:3502   */\n      tag_167\n      jump\t// in\n    tag_227:\n        /* \"#utility.yul\":3429:3502   */\n      swap3\n      pop\n        /* \"#utility.yul\":3225:3512   */\n      pop\n        /* \"#utility.yul\":3579:3581   */\n      0x20\n        /* \"#utility.yul\":3568:3577   */\n      dup4\n        /* \"#utility.yul\":3564:3582   */\n      add\n        /* \"#utility.yul\":3551:3583   */\n      calldataload\n        /* \"#utility.yul\":3610:3628   */\n      0xffffffffffffffff\n        /* \"#utility.yul\":3602:3608   */\n      dup2\n        /* \"#utility.yul\":3599:3629   */\n      gt\n        /* \"#utility.yul\":3596:3713   */\n      iszero\n      tag_228\n      jumpi\n        /* \"#utility.yul\":3632:3711   */\n      tag_229\n      tag_157\n      jump\t// in\n    tag_229:\n        /* \"#utility.yul\":3596:3713   */\n    tag_228:\n        /* \"#utility.yul\":3737:3800   */\n      tag_230\n        /* \"#utility.yul\":3792:3799   */\n      dup6\n        /* \"#utility.yul\":3783:3789   */\n      dup3\n        /* \"#utility.yul\":3772:3781   */\n      dup7\n        /* \"#utility.yul\":3768:3790   */\n      add\n        /* \"#utility.yul\":3737:3800   */\n      tag_167\n      jump\t// in\n    tag_230:\n        /* \"#utility.yul\":3727:3800   */\n      swap2\n      pop\n        /* \"#utility.yul\":3522:3810   */\n      pop\n        /* \"#utility.yul\":2983:3817   */\n      swap3\n      pop\n      swap3\n      swap1\n      pop\n      jump\t// out\n        /* \"#utility.yul\":3823:3922   */\n    tag_168:\n        /* \"#utility.yul\":3875:3881   */\n      0x00\n        /* \"#utility.yul\":3909:3914   */\n      dup2\n        /* \"#utility.yul\":3903:3915   */\n      mload\n        /* \"#utility.yul\":3893:3915   */\n      swap1\n      pop\n        /* \"#utility.yul\":3823:3922   */\n      swap2\n      swap1\n      pop\n      jump\t// out\n        /* \"#utility.yul\":3928:4097   */\n    tag_169:\n        /* \"#utility.yul\":4012:4023   */\n      0x00\n        /* \"#utility.yul\":4046:4052   */\n      dup3\n        /* \"#utility.yul\":4041:4044   */\n      dup3\n        /* \"#utility.yul\":4034:4053   */\n      mstore\n        /* \"#utility.yul\":4086:4090   */\n      0x20\n        /* \"#utility.yul\":4081:4084   */\n      dup3\n        /* \"#utility.yul\":4077:4091   */\n      add\n        /* \"#utility.yul\":4062:4091   */\n      swap1\n      pop\n        /* \"#utility.yul\":3928:4097   */\n      swap3\n      swap2\n      pop\n      pop\n      jump\t// out\n        /* \"#utility.yul\":4103:4410   */\n    tag_170:\n        /* \"#utility.yul\":4171:4172   */\n      0x00\n        /* \"#utility.yul\":4181:4294   */\n    tag_234:\n        /* \"#utility.yul\":4195:4201   */\n      dup4\n        /* \"#utility.yul\":4192:4193   */\n      dup2\n        /* \"#utility.yul\":4189:4202   */\n      lt\n        /* \"#utility.yul\":4181:4294   */\n      iszero\n      tag_236\n      jumpi\n        /* \"#utility.yul\":4280:4281   */\n      dup1\n        /* \"#utility.yul\":4275:4278   */\n      dup3\n        /* \"#utility.yul\":4271:4282   */\n      add\n        /* \"#utility.yul\":4265:4283   */\n      mload\n        /* \"#utility.yul\":4261:4262   */\n      dup2\n        /* \"#utility.yul\":4256:4259   */\n      dup5\n        /* \"#utility.yul\":4252:4263   */\n      add\n        /* \"#utility.yul\":4245:4284   */\n      mstore\n        /* \"#utility.yul\":4217:4219   */\n      0x20\n        /* \"#utility.yul\":4214:4215   */\n      dup2\n        /* \"#utility.yul\":4210:4220   */\n      add\n        /* \"#utility.yul\":4205:4220   */\n      swap1\n      pop\n        /* \"#utility.yul\":4181:4294   */\n      jump(tag_234)\n    tag_236:\n        /* \"#utility.yul\":4312:4318   */\n      dup4\n        /* \"#utility.yul\":4309:4310   */\n      dup2\n        /* \"#utility.yul\":4306:4319   */\n      gt\n        /* \"#utility.yul\":4303:4404   */\n      iszero\n      tag_237\n      jumpi\n        /* \"#utility.yul\":4392:4393   */\n      0x00\n        /* \"#utility.yul\":4383:4389   */\n      dup5\n        /* \"#utility.yul\":4378:4381   */\n      dup5\n        /* \"#utility.yul\":4374:4390   */\n      add\n        /* \"#utility.yul\":4367:4394   */\n      mstore\n        /* \"#utility.yul\":4303:4404   */\n    tag_237:\n        /* \"#utility.yul\":4152:4410   */\n      pop\n        /* \"#utility.yul\":4103:4410   */\n      pop\n      pop\n      pop\n      jump\t// out\n        /* \"#utility.yul\":4416:4780   */\n    tag_171:\n        /* \"#utility.yul\":4504:4507   */\n      0x00\n        /* \"#utility.yul\":4532:4571   */\n      tag_239\n        /* \"#utility.yul\":4565:4570   */\n      dup3\n        /* \"#utility.yul\":4532:4571   */\n      tag_168\n      jump\t// in\n    tag_239:\n        /* \"#utility.yul\":4587:4658   */\n      tag_240\n        /* \"#utility.yul\":4651:4657   */\n      dup2\n        /* \"#utility.yul\":4646:4649   */\n      dup6\n        /* \"#utility.yul\":4587:4658   */\n      tag_169\n      jump\t// in\n    tag_240:\n        /* \"#utility.yul\":4580:4658   */\n      swap4\n      pop\n        /* \"#utility.yul\":4667:4719   */\n      tag_241\n        /* \"#utility.yul\":4712:4718   */\n      dup2\n        /* \"#utility.yul\":4707:4710   */\n      dup6\n        /* \"#utility.yul\":4700:4704   */\n      0x20\n        /* \"#utility.yul\":4693:4698   */\n      dup7\n        /* \"#utility.yul\":4689:4705   */\n      add\n        /* \"#utility.yul\":4667:4719   */\n      tag_170\n      jump\t// in\n    tag_241:\n        /* \"#utility.yul\":4744:4773   */\n      tag_242\n        /* \"#utility.yul\":4766:4772   */\n      dup2\n        /* \"#utility.yul\":4744:4773   */\n      tag_160\n      jump\t// in\n    tag_242:\n        /* \"#utility.yul\":4739:4742   */\n      dup5\n        /* \"#utility.yul\":4735:4774   */\n      add\n        /* \"#utility.yul\":4728:4774   */\n      swap2\n      pop\n        /* \"#utility.yul\":4508:4780   */\n      pop\n        /* \"#utility.yul\":4416:4780   */\n      swap3\n      swap2\n      pop\n      pop\n      jump\t// out\n        /* \"#utility.yul\":4786:5099   */\n    tag_21:\n        /* \"#utility.yul\":4899:4903   */\n      0x00\n        /* \"#utility.yul\":4937:4939   */\n      0x20\n        /* \"#utility.yul\":4926:4935   */\n      dup3\n        /* \"#utility.yul\":4922:4940   */\n      add\n        /* \"#utility.yul\":4914:4940   */\n      swap1\n      pop\n        /* \"#utility.yul\":4986:4995   */\n      dup2\n        /* \"#utility.yul\":4980:4984   */\n      dup2\n        /* \"#utility.yul\":4976:4996   */\n      sub\n        /* \"#utility.yul\":4972:4973   */\n      0x00\n        /* \"#utility.yul\":4961:4970   */\n      dup4\n        /* \"#utility.yul\":4957:4974   */\n      add\n        /* \"#utility.yul\":4950:4997   */\n      mstore\n        /* \"#utility.yul\":5014:5092   */\n      tag_244\n        /* \"#utility.yul\":5087:5091   */\n      dup2\n        /* \"#utility.yul\":5078:5084   */\n      dup5\n        /* \"#utility.yul\":5014:5092   */\n      tag_171\n      jump\t// in\n    tag_244:\n        /* \"#utility.yul\":5006:5092   */\n      swap1\n      pop\n        /* \"#utility.yul\":4786:5099   */\n      swap3\n      swap2\n      pop\n      pop\n      jump\t// out\n        /* \"#utility.yul\":5105:6916   */\n    tag_24:\n        /* \"#utility.yul\":5250:5256   */\n      0x00\n        /* \"#utility.yul\":5258:5264   */\n      dup1\n        /* \"#utility.yul\":5266:5272   */\n      0x00\n        /* \"#utility.yul\":5274:5280   */\n      dup1\n        /* \"#utility.yul\":5282:5288   */\n      0x00\n        /* \"#utility.yul\":5331:5334   */\n      0xa0\n        /* \"#utility.yul\":5319:5328   */\n      dup7\n        /* \"#utility.yul\":5310:5317   */\n      dup9\n        /* \"#utility.yul\":5306:5329   */\n      sub\n        /* \"#utility.yul\":5302:5335   */\n      slt\n        /* \"#utility.yul\":5299:5419   */\n      iszero\n      tag_246\n      jumpi\n        /* \"#utility.yul\":5338:5417   */\n      tag_247\n      tag_156\n      jump\t// in\n    tag_247:\n        /* \"#utility.yul\":5299:5419   */\n    tag_246:\n        /* \"#utility.yul\":5486:5487   */\n      0x00\n        /* \"#utility.yul\":5475:5484   */\n      dup7\n        /* \"#utility.yul\":5471:5488   */\n      add\n        /* \"#utility.yul\":5458:5489   */\n      calldataload\n        /* \"#utility.yul\":5516:5534   */\n      0xffffffffffffffff\n        /* \"#utility.yul\":5508:5514   */\n      dup2\n        /* \"#utility.yul\":5505:5535   */\n      gt\n        /* \"#utility.yul\":5502:5619   */\n      iszero\n      tag_248\n      jumpi\n        /* \"#utility.yul\":5538:5617   */\n      tag_249\n      tag_157\n      jump\t// in\n    tag_249:\n        /* \"#utility.yul\":5502:5619   */\n    tag_248:\n        /* \"#utility.yul\":5643:5706   */\n      tag_250\n        /* \"#utility.yul\":5698:5705   */\n      dup9\n        /* \"#utility.yul\":5689:5695   */\n      dup3\n        /* \"#utility.yul\":5678:5687   */\n      dup10\n        /* \"#utility.yul\":5674:5696   */\n      add\n        /* \"#utility.yul\":5643:5706   */\n      tag_167\n      jump\t// in\n    tag_250:\n        /* \"#utility.yul\":5633:5706   */\n      swap6\n      pop\n        /* \"#utility.yul\":5429:5716   */\n      pop\n        /* \"#utility.yul\":5783:5785   */\n      0x20\n        /* \"#utility.yul\":5772:5781   */\n      dup7\n        /* \"#utility.yul\":5768:5786   */\n      add\n        /* \"#utility.yul\":5755:5787   */\n      calldataload\n        /* \"#utility.yul\":5814:5832   */\n      0xffffffffffffffff\n        /* \"#utility.yul\":5806:5812   */\n      dup2\n        /* \"#utility.yul\":5803:5833   */\n      gt\n        /* \"#utility.yul\":5800:5917   */\n      iszero\n      tag_251\n      jumpi\n        /* \"#utility.yul\":5836:5915   */\n      tag_252\n      tag_157\n      jump\t// in\n    tag_252:\n        /* \"#utility.yul\":5800:5917   */\n    tag_251:\n        /* \"#utility.yul\":5941:6004   */\n      tag_253\n        /* \"#utility.yul\":5996:6003   */\n      dup9\n        /* \"#utility.yul\":5987:5993   */\n      dup3\n        /* \"#utility.yul\":5976:5985   */\n      dup10\n        /* \"#utility.yul\":5972:5994   */\n      add\n        /* \"#utility.yul\":5941:6004   */\n      tag_167\n      jump\t// in\n    tag_253:\n        /* \"#utility.yul\":5931:6004   */\n      swap5\n      pop\n        /* \"#utility.yul\":5726:6014   */\n      pop\n        /* \"#utility.yul\":6081:6083   */\n      0x40\n        /* \"#utility.yul\":6070:6079   */\n      dup7\n        /* \"#utility.yul\":6066:6084   */\n      add\n        /* \"#utility.yul\":6053:6085   */\n      calldataload\n        /* \"#utility.yul\":6112:6130   */\n      0xffffffffffffffff\n        /* \"#utility.yul\":6104:6110   */\n      dup2\n        /* \"#utility.yul\":6101:6131   */\n      gt\n        /* \"#utility.yul\":6098:6215   */\n      iszero\n      tag_254\n      jumpi\n        /* \"#utility.yul\":6134:6213   */\n      tag_255\n      tag_157\n      jump\t// in\n    tag_255:\n        /* \"#utility.yul\":6098:6215   */\n    tag_254:\n        /* \"#utility.yul\":6239:6302   */\n      tag_256\n        /* \"#utility.yul\":6294:6301   */\n      dup9\n        /* \"#utility.yul\":6285:6291   */\n      dup3\n        /* \"#utility.yul\":6274:6283   */\n      dup10\n        /* \"#utility.yul\":6270:6292   */\n      add\n        /* \"#utility.yul\":6239:6302   */\n      tag_167\n      jump\t// in\n    tag_256:\n        /* \"#utility.yul\":6229:6302   */\n      swap4\n      pop\n        /* \"#utility.yul\":6024:6312   */\n      pop\n        /* \"#utility.yul\":6379:6381   */\n      0x60\n        /* \"#utility.yul\":6368:6377   */\n      dup7\n        /* \"#utility.yul\":6364:6382   */\n      add\n        /* \"#utility.yul\":6351:6383   */\n      calldataload\n        /* \"#utility.yul\":6410:6428   */\n      0xffffffffffffffff\n        /* \"#utility.yul\":6402:6408   */\n      dup2\n        /* \"#utility.yul\":6399:6429   */\n      gt\n        /* \"#utility.yul\":6396:6513   */\n      iszero\n      tag_257\n      jumpi\n        /* \"#utility.yul\":6432:6511   */\n      tag_258\n      tag_157\n      jump\t// in\n    tag_258:\n        /* \"#utility.yul\":6396:6513   */\n    tag_257:\n        /* \"#utility.yul\":6537:6600   */\n      tag_259\n        /* \"#utility.yul\":6592:6599   */\n      dup9\n        /* \"#utility.yul\":6583:6589   */\n      dup3\n        /* \"#utility.yul\":6572:6581   */\n      dup10\n        /* \"#utility.yul\":6568:6590   */\n      add\n        /* \"#utility.yul\":6537:6600   */\n      tag_167\n      jump\t// in\n    tag_259:\n        /* \"#utility.yul\":6527:6600   */\n      swap3\n      pop\n        /* \"#utility.yul\":6322:6610   */\n      pop\n        /* \"#utility.yul\":6677:6680   */\n      0x80\n        /* \"#utility.yul\":6666:6675   */\n      dup7\n        /* \"#utility.yul\":6662:6681   */\n      add\n        /* \"#utility.yul\":6649:6682   */\n      calldataload\n        /* \"#utility.yul\":6709:6727   */\n      0xffffffffffffffff\n        /* \"#utility.yul\":6701:6707   */\n      dup2\n        /* \"#utility.yul\":6698:6728   */\n      gt\n        /* \"#utility.yul\":6695:6812   */\n      iszero\n      tag_260\n      jumpi\n        /* \"#utility.yul\":6731:6810   */\n      tag_261\n      tag_157\n      jump\t// in\n    tag_261:\n        /* \"#utility.yul\":6695:6812   */\n    tag_260:\n        /* \"#utility.yul\":6836:6899   */\n      tag_262\n        /* \"#utility.yul\":6891:6898   */\n      dup9\n        /* \"#utility.yul\":6882:6888   */\n      dup3\n        /* \"#utility.yul\":6871:6880   */\n      dup10\n        /* \"#utility.yul\":6867:6889   */\n      add\n        /* \"#utility.yul\":6836:6899   */\n      tag_167\n      jump\t// in\n    tag_262:\n        /* \"#utility.yul\":6826:6899   */\n      swap2\n      pop\n        /* \"#utility.yul\":6620:6909   */\n      pop\n        /* \"#utility.yul\":5105:6916   */\n      swap3\n      swap6\n      pop\n      swap3\n      swap6\n      swap1\n      swap4\n      pop\n      jump\t// out\n        /* \"#utility.yul\":6922:8407   */\n    tag_32:\n        /* \"#utility.yul\":7048:7054   */\n      0x00\n        /* \"#utility.yul\":7056:7062   */\n      dup1\n        /* \"#utility.yul\":7064:7070   */\n      0x00\n        /* \"#utility.yul\":7072:7078   */\n      dup1\n        /* \"#utility.yul\":7121:7124   */\n      0x80\n        /* \"#utility.yul\":7109:7118   */\n      dup6\n        /* \"#utility.yul\":7100:7107   */\n      dup8\n        /* \"#utility.yul\":7096:7119   */\n      sub\n        /* \"#utility.yul\":7092:7125   */\n      slt\n        /* \"#utility.yul\":7089:7209   */\n      iszero\n      tag_264\n      jumpi\n        /* \"#utility.yul\":7128:7207   */\n      tag_265\n      tag_156\n      jump\t// in\n    tag_265:\n        /* \"#utility.yul\":7089:7209   */\n    tag_264:\n        /* \"#utility.yul\":7276:7277   */\n      0x00\n        /* \"#utility.yul\":7265:7274   */\n      dup6\n        /* \"#utility.yul\":7261:7278   */\n      add\n        /* \"#utility.yul\":7248:7279   */\n      calldataload\n        /* \"#utility.yul\":7306:7324   */\n      0xffffffffffffffff\n        /* \"#utility.yul\":7298:7304   */\n      dup2\n        /* \"#utility.yul\":7295:7325   */\n      gt\n        /* \"#utility.yul\":7292:7409   */\n      iszero\n      tag_266\n      jumpi\n        /* \"#utility.yul\":7328:7407   */\n      tag_267\n      tag_157\n      jump\t// in\n    tag_267:\n        /* \"#utility.yul\":7292:7409   */\n    tag_266:\n        /* \"#utility.yul\":7433:7496   */\n      tag_268\n        /* \"#utility.yul\":7488:7495   */\n      dup8\n        /* \"#utility.yul\":7479:7485   */\n      dup3\n        /* \"#utility.yul\":7468:7477   */\n      dup9\n        /* \"#utility.yul\":7464:7486   */\n      add\n        /* \"#utility.yul\":7433:7496   */\n      tag_167\n      jump\t// in\n    tag_268:\n        /* \"#utility.yul\":7423:7496   */\n      swap5\n      pop\n        /* \"#utility.yul\":7219:7506   */\n      pop\n        /* \"#utility.yul\":7573:7575   */\n      0x20\n        /* \"#utility.yul\":7562:7571   */\n      dup6\n        /* \"#utility.yul\":7558:7576   */\n      add\n        /* \"#utility.yul\":7545:7577   */\n      calldataload\n        /* \"#utility.yul\":7604:7622   */\n      0xffffffffffffffff\n        /* \"#utility.yul\":7596:7602   */\n      dup2\n        /* \"#utility.yul\":7593:7623   */\n      gt\n        /* \"#utility.yul\":7590:7707   */\n      iszero\n      tag_269\n      jumpi\n        /* \"#utility.yul\":7626:7705   */\n      tag_270\n      tag_157\n      jump\t// in\n    tag_270:\n        /* \"#utility.yul\":7590:7707   */\n    tag_269:\n        /* \"#utility.yul\":7731:7794   */\n      tag_271\n        /* \"#utility.yul\":7786:7793   */\n      dup8\n        /* \"#utility.yul\":7777:7783   */\n      dup3\n        /* \"#utility.yul\":7766:7775   */\n      dup9\n        /* \"#utility.yul\":7762:7784   */\n      add\n        /* \"#utility.yul\":7731:7794   */\n      tag_167\n      jump\t// in\n    tag_271:\n        /* \"#utility.yul\":7721:7794   */\n      swap4\n      pop\n        /* \"#utility.yul\":7516:7804   */\n      pop\n        /* \"#utility.yul\":7871:7873   */\n      0x40\n        /* \"#utility.yul\":7860:7869   */\n      dup6\n        /* \"#utility.yul\":7856:7874   */\n      add\n        /* \"#utility.yul\":7843:7875   */\n      calldataload\n        /* \"#utility.yul\":7902:7920   */\n      0xffffffffffffffff\n        /* \"#utility.yul\":7894:7900   */\n      dup2\n        /* \"#utility.yul\":7891:7921   */\n      gt\n        /* \"#utility.yul\":7888:8005   */\n      iszero\n      tag_272\n      jumpi\n        /* \"#utility.yul\":7924:8003   */\n      tag_273\n      tag_157\n      jump\t// in\n    tag_273:\n        /* \"#utility.yul\":7888:8005   */\n    tag_272:\n        /* \"#utility.yul\":8029:8092   */\n      tag_274\n        /* \"#utility.yul\":8084:8091   */\n      dup8\n        /* \"#utility.yul\":8075:8081   */\n      dup3\n        /* \"#utility.yul\":8064:8073   */\n      dup9\n        /* \"#utility.yul\":8060:8082   */\n      add\n        /* \"#utility.yul\":8029:8092   */\n      tag_167\n      jump\t// in\n    tag_274:\n        /* \"#utility.yul\":8019:8092   */\n      swap3\n      pop\n        /* \"#utility.yul\":7814:8102   */\n      pop\n        /* \"#utility.yul\":8169:8171   */\n      0x60\n        /* \"#utility.yul\":8158:8167   */\n      dup6\n        /* \"#utility.yul\":8154:8172   */\n      add\n        /* \"#utility.yul\":8141:8173   */\n      calldataload\n        /* \"#utility.yul\":8200:8218   */\n      0xffffffffffffffff\n        /* \"#utility.yul\":8192:8198   */\n      dup2\n        /* \"#utility.yul\":8189:8219   */\n      gt\n        /* \"#utility.yul\":8186:8303   */\n      iszero\n      tag_275\n      jumpi\n        /* \"#utility.yul\":8222:8301   */\n      tag_276\n      tag_157\n      jump\t// in\n    tag_276:\n        /* \"#utility.yul\":8186:8303   */\n    tag_275:\n        /* \"#utility.yul\":8327:8390   */\n      tag_277\n        /* \"#utility.yul\":8382:8389   */\n      dup8\n        /* \"#utility.yul\":8373:8379   */\n      dup3\n        /* \"#utility.yul\":8362:8371   */\n      dup9\n        /* \"#utility.yul\":8358:8380   */\n      add\n        /* \"#utility.yul\":8327:8390   */\n      tag_167\n      jump\t// in\n    tag_277:\n        /* \"#utility.yul\":8317:8390   */\n      swap2\n      pop\n        /* \"#utility.yul\":8112:8400   */\n      pop\n        /* \"#utility.yul\":6922:8407   */\n      swap3\n      swap6\n      swap2\n      swap5\n      pop\n      swap3\n      pop\n      jump\t// out\n        /* \"#utility.yul\":8413:8539   */\n    tag_172:\n        /* \"#utility.yul\":8450:8457   */\n      0x00\n        /* \"#utility.yul\":8490:8532   */\n      0xffffffffffffffffffffffffffffffffffffffff\n        /* \"#utility.yul\":8483:8488   */\n      dup3\n        /* \"#utility.yul\":8479:8533   */\n      and\n        /* \"#utility.yul\":8468:8533   */\n      swap1\n      pop\n        /* \"#utility.yul\":8413:8539   */\n      swap2\n      swap1\n      pop\n      jump\t// out\n        /* \"#utility.yul\":8545:8641   */\n    tag_173:\n        /* \"#utility.yul\":8582:8589   */\n      0x00\n        /* \"#utility.yul\":8611:8635   */\n      tag_280\n        /* \"#utility.yul\":8629:8634   */\n      dup3\n        /* \"#utility.yul\":8611:8635   */\n      tag_172\n      jump\t// in\n    tag_280:\n        /* \"#utility.yul\":8600:8635   */\n      swap1\n      pop\n        /* \"#utility.yul\":8545:8641   */\n      swap2\n      swap1\n      pop\n      jump\t// out\n        /* \"#utility.yul\":8647:8765   */\n    tag_174:\n        /* \"#utility.yul\":8734:8758   */\n      tag_282\n        /* \"#utility.yul\":8752:8757   */\n      dup2\n        /* \"#utility.yul\":8734:8758   */\n      tag_173\n      jump\t// in\n    tag_282:\n        /* \"#utility.yul\":8729:8732   */\n      dup3\n        /* \"#utility.yul\":8722:8759   */\n      mstore\n        /* \"#utility.yul\":8647:8765   */\n      pop\n      pop\n      jump\t// out\n        /* \"#utility.yul\":8771:8993   */\n    tag_41:\n        /* \"#utility.yul\":8864:8868   */\n      0x00\n        /* \"#utility.yul\":8902:8904   */\n      0x20\n        /* \"#utility.yul\":8891:8900   */\n      dup3\n        /* \"#utility.yul\":8887:8905   */\n      add\n        /* \"#utility.yul\":8879:8905   */\n      swap1\n      pop\n        /* \"#utility.yul\":8915:8986   */\n      tag_284\n        /* \"#utility.yul\":8983:8984   */\n      0x00\n        /* \"#utility.yul\":8972:8981   */\n      dup4\n        /* \"#utility.yul\":8968:8985   */\n      add\n        /* \"#utility.yul\":8959:8965   */\n      dup5\n        /* \"#utility.yul\":8915:8986   */\n      tag_174\n      jump\t// in\n    tag_284:\n        /* \"#utility.yul\":8771:8993   */\n      swap3\n      swap2\n      pop\n      pop\n      jump\t// out\n        /* \"#utility.yul\":8999:9123   */\n    tag_175:\n        /* \"#utility.yul\":9076:9082   */\n      0x00\n        /* \"#utility.yul\":9110:9115   */\n      dup2\n        /* \"#utility.yul\":9104:9116   */\n      mload\n        /* \"#utility.yul\":9094:9116   */\n      swap1\n      pop\n        /* \"#utility.yul\":8999:9123   */\n      swap2\n      swap1\n      pop\n      jump\t// out\n        /* \"#utility.yul\":9129:9323   */\n    tag_176:\n        /* \"#utility.yul\":9238:9249   */\n      0x00\n        /* \"#utility.yul\":9272:9278   */\n      dup3\n        /* \"#utility.yul\":9267:9270   */\n      dup3\n        /* \"#utility.yul\":9260:9279   */\n      mstore\n        /* \"#utility.yul\":9312:9316   */\n      0x20\n        /* \"#utility.yul\":9307:9310   */\n      dup3\n        /* \"#utility.yul\":9303:9317   */\n      add\n        /* \"#utility.yul\":9288:9317   */\n      swap1\n      pop\n        /* \"#utility.yul\":9129:9323   */\n      swap3\n      swap2\n      pop\n      pop\n      jump\t// out\n        /* \"#utility.yul\":9329:9471   */\n    tag_177:\n        /* \"#utility.yul\":9406:9410   */\n      0x00\n        /* \"#utility.yul\":9429:9432   */\n      dup2\n        /* \"#utility.yul\":9421:9432   */\n      swap1\n      pop\n        /* \"#utility.yul\":9459:9463   */\n      0x20\n        /* \"#utility.yul\":9454:9457   */\n      dup3\n        /* \"#utility.yul\":9450:9464   */\n      add\n        /* \"#utility.yul\":9442:9464   */\n      swap1\n      pop\n        /* \"#utility.yul\":9329:9471   */\n      swap2\n      swap1\n      pop\n      jump\t// out\n        /* \"#utility.yul\":9477:9636   */\n    tag_178:\n        /* \"#utility.yul\":9551:9562   */\n      0x00\n        /* \"#utility.yul\":9585:9591   */\n      dup3\n        /* \"#utility.yul\":9580:9583   */\n      dup3\n        /* \"#utility.yul\":9573:9592   */\n      mstore\n        /* \"#utility.yul\":9625:9629   */\n      0x20\n        /* \"#utility.yul\":9620:9623   */\n      dup3\n        /* \"#utility.yul\":9616:9630   */\n      add\n        /* \"#utility.yul\":9601:9630   */\n      swap1\n      pop\n        /* \"#utility.yul\":9477:9636   */\n      swap3\n      swap2\n      pop\n      pop\n      jump\t// out\n        /* \"#utility.yul\":9642:9986   */\n    tag_179:\n        /* \"#utility.yul\":9720:9723   */\n      0x00\n        /* \"#utility.yul\":9748:9787   */\n      tag_290\n        /* \"#utility.yul\":9781:9786   */\n      dup3\n        /* \"#utility.yul\":9748:9787   */\n      tag_168\n      jump\t// in\n    tag_290:\n        /* \"#utility.yul\":9803:9864   */\n      tag_291\n        /* \"#utility.yul\":9857:9863   */\n      dup2\n        /* \"#utility.yul\":9852:9855   */\n      dup6\n        /* \"#utility.yul\":9803:9864   */\n      tag_178\n      jump\t// in\n    tag_291:\n        /* \"#utility.yul\":9796:9864   */\n      swap4\n      pop\n        /* \"#utility.yul\":9873:9925   */\n      tag_292\n        /* \"#utility.yul\":9918:9924   */\n      dup2\n        /* \"#utility.yul\":9913:9916   */\n      dup6\n        /* \"#utility.yul\":9906:9910   */\n      0x20\n        /* \"#utility.yul\":9899:9904   */\n      dup7\n        /* \"#utility.yul\":9895:9911   */\n      add\n        /* \"#utility.yul\":9873:9925   */\n      tag_170\n      jump\t// in\n    tag_292:\n        /* \"#utility.yul\":9950:9979   */\n      tag_293\n        /* \"#utility.yul\":9972:9978   */\n      dup2\n        /* \"#utility.yul\":9950:9979   */\n      tag_160\n      jump\t// in\n    tag_293:\n        /* \"#utility.yul\":9945:9948   */\n      dup5\n        /* \"#utility.yul\":9941:9980   */\n      add\n        /* \"#utility.yul\":9934:9980   */\n      swap2\n      pop\n        /* \"#utility.yul\":9724:9986   */\n      pop\n        /* \"#utility.yul\":9642:9986   */\n      swap3\n      swap2\n      pop\n      pop\n      jump\t// out\n        /* \"#utility.yul\":9992:10188   */\n    tag_180:\n        /* \"#utility.yul\":10081:10091   */\n      0x00\n        /* \"#utility.yul\":10116:10182   */\n      tag_295\n        /* \"#utility.yul\":10178:10181   */\n      dup4\n        /* \"#utility.yul\":10170:10176   */\n      dup4\n        /* \"#utility.yul\":10116:10182   */\n      tag_179\n      jump\t// in\n    tag_295:\n        /* \"#utility.yul\":10102:10182   */\n      swap1\n      pop\n        /* \"#utility.yul\":9992:10188   */\n      swap3\n      swap2\n      pop\n      pop\n      jump\t// out\n        /* \"#utility.yul\":10194:10317   */\n    tag_181:\n        /* \"#utility.yul\":10274:10278   */\n      0x00\n        /* \"#utility.yul\":10306:10310   */\n      0x20\n        /* \"#utility.yul\":10301:10304   */\n      dup3\n        /* \"#utility.yul\":10297:10311   */\n      add\n        /* \"#utility.yul\":10289:10311   */\n      swap1\n      pop\n        /* \"#utility.yul\":10194:10317   */\n      swap2\n      swap1\n      pop\n      jump\t// out\n        /* \"#utility.yul\":10351:11342   */\n    tag_182:\n        /* \"#utility.yul\":10490:10493   */\n      0x00\n        /* \"#utility.yul\":10519:10583   */\n      tag_298\n        /* \"#utility.yul\":10577:10582   */\n      dup3\n        /* \"#utility.yul\":10519:10583   */\n      tag_175\n      jump\t// in\n    tag_298:\n        /* \"#utility.yul\":10599:10695   */\n      tag_299\n        /* \"#utility.yul\":10688:10694   */\n      dup2\n        /* \"#utility.yul\":10683:10686   */\n      dup6\n        /* \"#utility.yul\":10599:10695   */\n      tag_176\n      jump\t// in\n    tag_299:\n        /* \"#utility.yul\":10592:10695   */\n      swap4\n      pop\n        /* \"#utility.yul\":10721:10724   */\n      dup4\n        /* \"#utility.yul\":10766:10770   */\n      0x20\n        /* \"#utility.yul\":10758:10764   */\n      dup3\n        /* \"#utility.yul\":10754:10771   */\n      mul\n        /* \"#utility.yul\":10749:10752   */\n      dup6\n        /* \"#utility.yul\":10745:10772   */\n      add\n        /* \"#utility.yul\":10796:10862   */\n      tag_300\n        /* \"#utility.yul\":10856:10861   */\n      dup6\n        /* \"#utility.yul\":10796:10862   */\n      tag_177\n      jump\t// in\n    tag_300:\n        /* \"#utility.yul\":10885:10892   */\n      dup1\n        /* \"#utility.yul\":10916:10917   */\n      0x00\n        /* \"#utility.yul\":10901:11297   */\n    tag_301:\n        /* \"#utility.yul\":10926:10932   */\n      dup6\n        /* \"#utility.yul\":10923:10924   */\n      dup2\n        /* \"#utility.yul\":10920:10933   */\n      lt\n        /* \"#utility.yul\":10901:11297   */\n      iszero\n      tag_303\n      jumpi\n        /* \"#utility.yul\":10997:11006   */\n      dup5\n        /* \"#utility.yul\":10991:10995   */\n      dup5\n        /* \"#utility.yul\":10987:11007   */\n      sub\n        /* \"#utility.yul\":10982:10985   */\n      dup10\n        /* \"#utility.yul\":10975:11008   */\n      mstore\n        /* \"#utility.yul\":11048:11054   */\n      dup2\n        /* \"#utility.yul\":11042:11055   */\n      mload\n        /* \"#utility.yul\":11076:11160   */\n      tag_304\n        /* \"#utility.yul\":11155:11159   */\n      dup6\n        /* \"#utility.yul\":11140:11153   */\n      dup3\n        /* \"#utility.yul\":11076:11160   */\n      tag_180\n      jump\t// in\n    tag_304:\n        /* \"#utility.yul\":11068:11160   */\n      swap5\n      pop\n        /* \"#utility.yul\":11183:11253   */\n      tag_305\n        /* \"#utility.yul\":11246:11252   */\n      dup4\n        /* \"#utility.yul\":11183:11253   */\n      tag_181\n      jump\t// in\n    tag_305:\n        /* \"#utility.yul\":11173:11253   */\n      swap3\n      pop\n        /* \"#utility.yul\":11282:11286   */\n      0x20\n        /* \"#utility.yul\":11277:11280   */\n      dup11\n        /* \"#utility.yul\":11273:11287   */\n      add\n        /* \"#utility.yul\":11266:11287   */\n      swap10\n      pop\n        /* \"#utility.yul\":10961:11297   */\n      pop\n        /* \"#utility.yul\":10948:10949   */\n      0x01\n        /* \"#utility.yul\":10945:10946   */\n      dup2\n        /* \"#utility.yul\":10941:10950   */\n      add\n        /* \"#utility.yul\":10936:10950   */\n      swap1\n      pop\n        /* \"#utility.yul\":10901:11297   */\n      jump(tag_301)\n    tag_303:\n        /* \"#utility.yul\":10905:10919   */\n      pop\n        /* \"#utility.yul\":11313:11317   */\n      dup3\n        /* \"#utility.yul\":11306:11317   */\n      swap8\n      pop\n        /* \"#utility.yul\":11333:11336   */\n      dup8\n        /* \"#utility.yul\":11326:11336   */\n      swap6\n      pop\n        /* \"#utility.yul\":10495:11342   */\n      pop\n      pop\n      pop\n      pop\n      pop\n        /* \"#utility.yul\":10351:11342   */\n      swap3\n      swap2\n      pop\n      pop\n      jump\t// out\n        /* \"#utility.yul\":11348:12665   */\n    tag_45:\n        /* \"#utility.yul\":11805:11809   */\n      0x00\n        /* \"#utility.yul\":11843:11846   */\n      0x80\n        /* \"#utility.yul\":11832:11841   */\n      dup3\n        /* \"#utility.yul\":11828:11847   */\n      add\n        /* \"#utility.yul\":11820:11847   */\n      swap1\n      pop\n        /* \"#utility.yul\":11893:11902   */\n      dup2\n        /* \"#utility.yul\":11887:11891   */\n      dup2\n        /* \"#utility.yul\":11883:11903   */\n      sub\n        /* \"#utility.yul\":11879:11880   */\n      0x00\n        /* \"#utility.yul\":11868:11877   */\n      dup4\n        /* \"#utility.yul\":11864:11881   */\n      add\n        /* \"#utility.yul\":11857:11904   */\n      mstore\n        /* \"#utility.yul\":11921:12049   */\n      tag_307\n        /* \"#utility.yul\":12044:12048   */\n      dup2\n        /* \"#utility.yul\":12035:12041   */\n      dup8\n        /* \"#utility.yul\":11921:12049   */\n      tag_182\n      jump\t// in\n    tag_307:\n        /* \"#utility.yul\":11913:12049   */\n      swap1\n      pop\n        /* \"#utility.yul\":12096:12105   */\n      dup2\n        /* \"#utility.yul\":12090:12094   */\n      dup2\n        /* \"#utility.yul\":12086:12106   */\n      sub\n        /* \"#utility.yul\":12081:12083   */\n      0x20\n        /* \"#utility.yul\":12070:12079   */\n      dup4\n        /* \"#utility.yul\":12066:12084   */\n      add\n        /* \"#utility.yul\":12059:12107   */\n      mstore\n        /* \"#utility.yul\":12124:12252   */\n      tag_308\n        /* \"#utility.yul\":12247:12251   */\n      dup2\n        /* \"#utility.yul\":12238:12244   */\n      dup7\n        /* \"#utility.yul\":12124:12252   */\n      tag_182\n      jump\t// in\n    tag_308:\n        /* \"#utility.yul\":12116:12252   */\n      swap1\n      pop\n        /* \"#utility.yul\":12299:12308   */\n      dup2\n        /* \"#utility.yul\":12293:12297   */\n      dup2\n        /* \"#utility.yul\":12289:12309   */\n      sub\n        /* \"#utility.yul\":12284:12286   */\n      0x40\n        /* \"#utility.yul\":12273:12282   */\n      dup4\n        /* \"#utility.yul\":12269:12287   */\n      add\n        /* \"#utility.yul\":12262:12310   */\n      mstore\n        /* \"#utility.yul\":12327:12455   */\n      tag_309\n        /* \"#utility.yul\":12450:12454   */\n      dup2\n        /* \"#utility.yul\":12441:12447   */\n      dup6\n        /* \"#utility.yul\":12327:12455   */\n      tag_182\n      jump\t// in\n    tag_309:\n        /* \"#utility.yul\":12319:12455   */\n      swap1\n      pop\n        /* \"#utility.yul\":12502:12511   */\n      dup2\n        /* \"#utility.yul\":12496:12500   */\n      dup2\n        /* \"#utility.yul\":12492:12512   */\n      sub\n        /* \"#utility.yul\":12487:12489   */\n      0x60\n        /* \"#utility.yul\":12476:12485   */\n      dup4\n        /* \"#utility.yul\":12472:12490   */\n      add\n        /* \"#utility.yul\":12465:12513   */\n      mstore\n        /* \"#utility.yul\":12530:12658   */\n      tag_310\n        /* \"#utility.yul\":12653:12657   */\n      dup2\n        /* \"#utility.yul\":12644:12650   */\n      dup5\n        /* \"#utility.yul\":12530:12658   */\n      tag_182\n      jump\t// in\n    tag_310:\n        /* \"#utility.yul\":12522:12658   */\n      swap1\n      pop\n        /* \"#utility.yul\":11348:12665   */\n      swap6\n      swap5\n      pop\n      pop\n      pop\n      pop\n      pop\n      jump\t// out\n        /* \"#utility.yul\":12671:12851   */\n    tag_183:\n        /* \"#utility.yul\":12719:12796   */\n      0x4e487b7100000000000000000000000000000000000000000000000000000000\n        /* \"#utility.yul\":12716:12717   */\n      0x00\n        /* \"#utility.yul\":12709:12797   */\n      mstore\n        /* \"#utility.yul\":12816:12820   */\n      0x22\n        /* \"#utility.yul\":12813:12814   */\n      0x04\n        /* \"#utility.yul\":12806:12821   */\n      mstore\n        /* \"#utility.yul\":12840:12844   */\n      0x24\n        /* \"#utility.yul\":12837:12838   */\n      0x00\n        /* \"#utility.yul\":12830:12845   */\n      revert\n        /* \"#utility.yul\":12857:13177   */\n    tag_49:\n        /* \"#utility.yul\":12901:12907   */\n      0x00\n        /* \"#utility.yul\":12938:12939   */\n      0x02\n        /* \"#utility.yul\":12932:12936   */\n      dup3\n        /* \"#utility.yul\":12928:12940   */\n      div\n        /* \"#utility.yul\":12918:12940   */\n      swap1\n      pop\n        /* \"#utility.yul\":12985:12986   */\n      0x01\n        /* \"#utility.yul\":12979:12983   */\n      dup3\n        /* \"#utility.yul\":12975:12987   */\n      and\n        /* \"#utility.yul\":13006:13024   */\n      dup1\n        /* \"#utility.yul\":12996:13077   */\n      tag_313\n      jumpi\n        /* \"#utility.yul\":13062:13066   */\n      0x7f\n        /* \"#utility.yul\":13054:13060   */\n      dup3\n        /* \"#utility.yul\":13050:13067   */\n      and\n        /* \"#utility.yul\":13040:13067   */\n      swap2\n      pop\n        /* \"#utility.yul\":12996:13077   */\n    tag_313:\n        /* \"#utility.yul\":13124:13126   */\n      0x20\n        /* \"#utility.yul\":13116:13122   */\n      dup3\n        /* \"#utility.yul\":13113:13127   */\n      lt\n        /* \"#utility.yul\":13093:13111   */\n      dup2\n        /* \"#utility.yul\":13090:13128   */\n      sub\n        /* \"#utility.yul\":13087:13171   */\n      tag_314\n      jumpi\n        /* \"#utility.yul\":13143:13161   */\n      tag_315\n      tag_183\n      jump\t// in\n    tag_315:\n        /* \"#utility.yul\":13087:13171   */\n    tag_314:\n        /* \"#utility.yul\":12908:13177   */\n      pop\n        /* \"#utility.yul\":12857:13177   */\n      swap2\n      swap1\n      pop\n      jump\t// out\n        /* \"#utility.yul\":13183:13363   */\n    tag_184:\n        /* \"#utility.yul\":13231:13308   */\n      0x4e487b7100000000000000000000000000000000000000000000000000000000\n        /* \"#utility.yul\":13228:13229   */\n      0x00\n        /* \"#utility.yul\":13221:13309   */\n      mstore\n        /* \"#utility.yul\":13328:13332   */\n      0x11\n        /* \"#utility.yul\":13325:13326   */\n      0x04\n        /* \"#utility.yul\":13318:13333   */\n      mstore\n        /* \"#utility.yul\":13352:13356   */\n      0x24\n        /* \"#utility.yul\":13349:13350   */\n      0x00\n        /* \"#utility.yul\":13342:13357   */\n      revert\n        /* \"#utility.yul\":13369:13602   */\n    tag_65:\n        /* \"#utility.yul\":13408:13411   */\n      0x00\n        /* \"#utility.yul\":13431:13455   */\n      tag_318\n        /* \"#utility.yul\":13449:13454   */\n      dup3\n        /* \"#utility.yul\":13431:13455   */\n      tag_153\n      jump\t// in\n    tag_318:\n        /* \"#utility.yul\":13422:13455   */\n      swap2\n      pop\n        /* \"#utility.yul\":13477:13543   */\n      0xffffffffffffffffffffffffffffffffffffffffffffffffffffffffffffffff\n        /* \"#utility.yul\":13470:13475   */\n      dup3\n        /* \"#utility.yul\":13467:13544   */\n      sub\n        /* \"#utility.yul\":13464:13567   */\n      tag_319\n      jumpi\n        /* \"#utility.yul\":13547:13565   */\n      tag_320\n      tag_184\n      jump\t// in\n    tag_320:\n        /* \"#utility.yul\":13464:13567   */\n    tag_319:\n        /* \"#utility.yul\":13594:13595   */\n      0x01\n        /* \"#utility.yul\":13587:13592   */\n      dup3\n        /* \"#utility.yul\":13583:13596   */\n      add\n        /* \"#utility.yul\":13576:13596   */\n      swap1\n      pop\n        /* \"#utility.yul\":13369:13602   */\n      swap2\n      swap1\n      pop\n      jump\t// out\n        /* \"#utility.yul\":13608:13769   */\n    tag_185:\n        /* \"#utility.yul\":13748:13761   */\n      0x4e6f7420616c6c6f776564000000000000000000000000000000000000000000\n        /* \"#utility.yul\":13744:13745   */\n      0x00\n        /* \"#utility.yul\":13736:13742   */\n      dup3\n        /* \"#utility.yul\":13732:13746   */\n      add\n        /* \"#utility.yul\":13725:13762   */\n      mstore\n        /* \"#utility.yul\":13608:13769   */\n      pop\n      jump\t// out\n        /* \"#utility.yul\":13775:14141   */\n    tag_186:\n        /* \"#utility.yul\":13917:13920   */\n      0x00\n        /* \"#utility.yul\":13938:14005   */\n      tag_323\n        /* \"#utility.yul\":14002:14004   */\n      0x0b\n        /* \"#utility.yul\":13997:14000   */\n      dup4\n        /* \"#utility.yul\":13938:14005   */\n      tag_169\n      jump\t// in\n    tag_323:\n        /* \"#utility.yul\":13931:14005   */\n      swap2\n      pop\n        /* \"#utility.yul\":14014:14107   */\n      tag_324\n        /* \"#utility.yul\":14103:14106   */\n      dup3\n        /* \"#utility.yul\":14014:14107   */\n      tag_185\n      jump\t// in\n    tag_324:\n        /* \"#utility.yul\":14132:14134   */\n      0x20\n        /* \"#utility.yul\":14127:14130   */\n      dup3\n        /* \"#utility.yul\":14123:14135   */\n      add\n        /* \"#utility.yul\":14116:14135   */\n      swap1\n      pop\n        /* \"#utility.yul\":13775:14141   */\n      swap2\n      swap1\n      pop\n      jump\t// out\n        /* \"#utility.yul\":14147:14566   */\n    tag_96:\n        /* \"#utility.yul\":14313:14317   */\n      0x00\n        /* \"#utility.yul\":14351:14353   */\n      0x20\n        /* \"#utility.yul\":14340:14349   */\n      dup3\n        /* \"#utility.yul\":14336:14354   */\n      add\n        /* \"#utility.yul\":14328:14354   */\n      swap1\n      pop\n        /* \"#utility.yul\":14400:14409   */\n      dup2\n        /* \"#utility.yul\":14394:14398   */\n      dup2\n        /* \"#utility.yul\":14390:14410   */\n      sub\n        /* \"#utility.yul\":14386:14387   */\n      0x00\n        /* \"#utility.yul\":14375:14384   */\n      dup4\n        /* \"#utility.yul\":14371:14388   */\n      add\n        /* \"#utility.yul\":14364:14411   */\n      mstore\n        /* \"#utility.yul\":14428:14559   */\n      tag_326\n        /* \"#utility.yul\":14554:14558   */\n      dup2\n        /* \"#utility.yul\":14428:14559   */\n      tag_186\n      jump\t// in\n    tag_326:\n        /* \"#utility.yul\":14420:14559   */\n      swap1\n      pop\n        /* \"#utility.yul\":14147:14566   */\n      swap2\n      swap1\n      pop\n      jump\t// out\n    stop\n    data_f8cee5838de095b73bc0eb68505c82192a6e7ef8eb72dc52884288f7c470afa7 5573657220646f65736e6f7420657869737420212120526567697374657220616e642074727920616761696e202121\n\n    auxdata: 0xa26469706673582212200c6dc4c8c4a6e6b2106342cf1e6a57ad7810fa5bf5b7fcef1820141f6003fa3564736f6c634300080d0033\n}\n",
				"bytecode": {
					"linkReferences": {},
					"object": "608060405234801561001057600080fd5b50600080819055506118e9806100276000396000f3fe608060405234801561001057600080fd5b50600436106100885760003560e01c8063b4bfc3a51161005b578063b4bfc3a514610129578063c127ae4114610159578063ebc3eee814610177578063ff3a9c7e1461019557610088565b8063126793231461008d57806358467dbc146100ab5780635a09007b146100db578063681f3e6d1461010b575b600080fd5b6100956101b6565b6040516100a29190611103565b60405180910390f35b6100c560048036038101906100c09190611278565b6101bc565b6040516100d29190611378565b60405180910390f35b6100f560048036038101906100f0919061139a565b6102f6565b6040516101029190611378565b60405180910390f35b610113610584565b6040516101209190611378565b60405180910390f35b610143600480360381019061013e91906114a1565b610656565b6040516101509190611378565b60405180910390f35b610161610a46565b60405161016e9190611378565b60405180910390f35b61017f610be8565b60405161018c91906115b9565b60405180910390f35b61019d610c52565b6040516101ad94939291906116e0565b60405180910390f35b60005481565b606060006101c8610584565b90506000600160003373ffffffffffffffffffffffffffffffffffffffff1673ffffffffffffffffffffffffffffffffffffffff168152602001908152602001600020600301805461021990611770565b80601f016020809104026020016040519081016040528092919081815260200182805461024590611770565b80156102925780601f1061026757610100808354040283529160200191610292565b820191906000526020600020905b81548152906001019060200180831161027557829003601f168201915b50505050509050848051906020012082805190602001201480156102c3575083805190602001208180519060200120145b156102d25784925050506102f0565b6040518060600160405280602f8152602001611885602f9139925050505b92915050565b606085600160003373ffffffffffffffffffffffffffffffffffffffff1673ffffffffffffffffffffffffffffffffffffffff168152602001908152602001600020600001908051906020019061034e929190610fba565b5084600160003373ffffffffffffffffffffffffffffffffffffffff1673ffffffffffffffffffffffffffffffffffffffff16815260200190815260200160002060010190805190602001906103a5929190610fba565b5033600160003373ffffffffffffffffffffffffffffffffffffffff1673ffffffffffffffffffffffffffffffffffffffff16815260200190815260200160002060050160006101000a81548173ffffffffffffffffffffffffffffffffffffffff021916908373ffffffffffffffffffffffffffffffffffffffff16021790555083600160003373ffffffffffffffffffffffffffffffffffffffff1673ffffffffffffffffffffffffffffffffffffffff168152602001908152602001600020600201908051906020019061047d929190610fba565b5082600160003373ffffffffffffffffffffffffffffffffffffffff1673ffffffffffffffffffffffffffffffffffffffff16815260200190815260200160002060030190805190602001906104d4929190610fba565b5081600160003373ffffffffffffffffffffffffffffffffffffffff1673ffffffffffffffffffffffffffffffffffffffff168152602001908152602001600020600401908051906020019061052b929190610fba565b5060008081548092919061053e906117d0565b91905055506040518060400160405280601781526020017f5375636365737366756c6c792052656769737465726564000000000000000000815250905095945050505050565b6060600160003373ffffffffffffffffffffffffffffffffffffffff1673ffffffffffffffffffffffffffffffffffffffff16815260200190815260200160002060020180546105d390611770565b80601f01602080910402602001604051908101604052809291908181526020018280546105ff90611770565b801561064c5780601f106106215761010080835404028352916020019161064c565b820191906000526020600020905b81548152906001019060200180831161062f57829003601f168201915b5050505050905090565b60606000610662610584565b5114610a055784600260003373ffffffffffffffffffffffffffffffffffffffff1673ffffffffffffffffffffffffffffffffffffffff16815260200190815260200160002060000190805190602001906106be929190610fba565b5083600260003373ffffffffffffffffffffffffffffffffffffffff1673ffffffffffffffffffffffffffffffffffffffff1681526020019081526020016000206001019080519060200190610715929190610fba565b5082600260003373ffffffffffffffffffffffffffffffffffffffff1673ffffffffffffffffffffffffffffffffffffffff168152602001908152602001600020600201908051906020019061076c929190610fba565b5081600260003373ffffffffffffffffffffffffffffffffffffffff1673ffffffffffffffffffffffffffffffffffffffff16815260200190815260200160002060030190805190602001906107c3929190610fba565b506008600260003373ffffffffffffffffffffffffffffffffffffffff1673ffffffffffffffffffffffffffffffffffffffff1681526020019081526020016000206000019080600181540180825580915050600190039060005260206000200160009091909190915090805461083990611770565b610844929190611040565b506009600260003373ffffffffffffffffffffffffffffffffffffffff1673ffffffffffffffffffffffffffffffffffffffff168152602001908152602001600020600101908060018154018082558091505060019003906000526020600020016000909190919091509080546108ba90611770565b6108c5929190611040565b50600a600260003373ffffffffffffffffffffffffffffffffffffffff1673ffffffffffffffffffffffffffffffffffffffff1681526020019081526020016000206002019080600181540180825580915050600190039060005260206000200160009091909190915090805461093b90611770565b610946929190611040565b50600b600260003373ffffffffffffffffffffffffffffffffffffffff1673ffffffffffffffffffffffffffffffffffffffff168152602001908152602001600020600301908060018154018082558091505060019003906000526020600020016000909190919091509080546109bc90611770565b6109c7929190611040565b506040518060400160405280601a81526020017f50726f6a656374205361766564205375636365737366756c6c790000000000008152509050610a3e565b6040518060400160405280601481526020017f4572726f7220536176696e672050726f6a65637400000000000000000000000081525090505b949350505050565b6060600160003373ffffffffffffffffffffffffffffffffffffffff1673ffffffffffffffffffffffffffffffffffffffff16815260200190815260200160002060050160009054906101000a900473ffffffffffffffffffffffffffffffffffffffff1673ffffffffffffffffffffffffffffffffffffffff163373ffffffffffffffffffffffffffffffffffffffff1614610b18576040517f08c379a0000000000000000000000000000000000000000000000000000000008152600401610b0f90611864565b60405180910390fd5b600160003373ffffffffffffffffffffffffffffffffffffffff1673ffffffffffffffffffffffffffffffffffffffff1681526020019081526020016000206000018054610b6590611770565b80601f0160208091040260200160405190810160405280929190818152602001828054610b9190611770565b8015610bde5780601f10610bb357610100808354040283529160200191610bde565b820191906000526020600020905b815481529060010190602001808311610bc157829003601f168201915b5050505050905090565b6000600160003373ffffffffffffffffffffffffffffffffffffffff1673ffffffffffffffffffffffffffffffffffffffff16815260200190815260200160002060050160009054906101000a900473ffffffffffffffffffffffffffffffffffffffff16905090565b60608060608060086009600a600b83805480602002602001604051908101604052809291908181526020016000905b82821015610d2d578382906000526020600020018054610ca090611770565b80601f0160208091040260200160405190810160405280929190818152602001828054610ccc90611770565b8015610d195780601f10610cee57610100808354040283529160200191610d19565b820191906000526020600020905b815481529060010190602001808311610cfc57829003601f168201915b505050505081526020019060010190610c81565b50505050935082805480602002602001604051908101604052809291908181526020016000905b82821015610e00578382906000526020600020018054610d7390611770565b80601f0160208091040260200160405190810160405280929190818152602001828054610d9f90611770565b8015610dec5780601f10610dc157610100808354040283529160200191610dec565b820191906000526020600020905b815481529060010190602001808311610dcf57829003601f168201915b505050505081526020019060010190610d54565b50505050925081805480602002602001604051908101604052809291908181526020016000905b82821015610ed3578382906000526020600020018054610e4690611770565b80601f0160208091040260200160405190810160405280929190818152602001828054610e7290611770565b8015610ebf5780601f10610e9457610100808354040283529160200191610ebf565b820191906000526020600020905b815481529060010190602001808311610ea257829003601f168201915b505050505081526020019060010190610e27565b50505050915080805480602002602001604051908101604052809291908181526020016000905b82821015610fa6578382906000526020600020018054610f1990611770565b80601f0160208091040260200160405190810160405280929190818152602001828054610f4590611770565b8015610f925780601f10610f6757610100808354040283529160200191610f92565b820191906000526020600020905b815481529060010190602001808311610f7557829003601f168201915b505050505081526020019060010190610efa565b505050509050935093509350935090919293565b828054610fc690611770565b90600052602060002090601f016020900481019282610fe8576000855561102f565b82601f1061100157805160ff191683800117855561102f565b8280016001018555821561102f579182015b8281111561102e578251825591602001919060010190611013565b5b50905061103c91906110cd565b5090565b82805461104c90611770565b90600052602060002090601f01602090048101928261106e57600085556110bc565b82601f1061107f57805485556110bc565b828001600101855582156110bc57600052602060002091601f016020900482015b828111156110bb5782548255916001019190600101906110a0565b5b5090506110c991906110cd565b5090565b5b808211156110e65760008160009055506001016110ce565b5090565b6000819050919050565b6110fd816110ea565b82525050565b600060208201905061111860008301846110f4565b92915050565b6000604051905090565b600080fd5b600080fd5b600080fd5b600080fd5b6000601f19601f8301169050919050565b7f4e487b7100000000000000000000000000000000000000000000000000000000600052604160045260246000fd5b6111858261113c565b810181811067ffffffffffffffff821117156111a4576111a361114d565b5b80604052505050565b60006111b761111e565b90506111c3828261117c565b919050565b600067ffffffffffffffff8211156111e3576111e261114d565b5b6111ec8261113c565b9050602081019050919050565b82818337600083830152505050565b600061121b611216846111c8565b6111ad565b90508281526020810184848401111561123757611236611137565b5b6112428482856111f9565b509392505050565b600082601f83011261125f5761125e611132565b5b813561126f848260208601611208565b91505092915050565b6000806040838503121561128f5761128e611128565b5b600083013567ffffffffffffffff8111156112ad576112ac61112d565b5b6112b98582860161124a565b925050602083013567ffffffffffffffff8111156112da576112d961112d565b5b6112e68582860161124a565b9150509250929050565b600081519050919050565b600082825260208201905092915050565b60005b8381101561132a57808201518184015260208101905061130f565b83811115611339576000848401525b50505050565b600061134a826112f0565b61135481856112fb565b935061136481856020860161130c565b61136d8161113c565b840191505092915050565b60006020820190508181036000830152611392818461133f565b905092915050565b600080600080600060a086880312156113b6576113b5611128565b5b600086013567ffffffffffffffff8111156113d4576113d361112d565b5b6113e08882890161124a565b955050602086013567ffffffffffffffff8111156114015761140061112d565b5b61140d8882890161124a565b945050604086013567ffffffffffffffff81111561142e5761142d61112d565b5b61143a8882890161124a565b935050606086013567ffffffffffffffff81111561145b5761145a61112d565b5b6114678882890161124a565b925050608086013567ffffffffffffffff8111156114885761148761112d565b5b6114948882890161124a565b9150509295509295909350565b600080600080608085870312156114bb576114ba611128565b5b600085013567ffffffffffffffff8111156114d9576114d861112d565b5b6114e58782880161124a565b945050602085013567ffffffffffffffff8111156115065761150561112d565b5b6115128782880161124a565b935050604085013567ffffffffffffffff8111156115335761153261112d565b5b61153f8782880161124a565b925050606085013567ffffffffffffffff8111156115605761155f61112d565b5b61156c8782880161124a565b91505092959194509250565b600073ffffffffffffffffffffffffffffffffffffffff82169050919050565b60006115a382611578565b9050919050565b6115b381611598565b82525050565b60006020820190506115ce60008301846115aa565b92915050565b600081519050919050565b600082825260208201905092915050565b6000819050602082019050919050565b600082825260208201905092915050565b600061161c826112f0565b6116268185611600565b935061163681856020860161130c565b61163f8161113c565b840191505092915050565b60006116568383611611565b905092915050565b6000602082019050919050565b6000611676826115d4565b61168081856115df565b935083602082028501611692856115f0565b8060005b858110156116ce57848403895281516116af858261164a565b94506116ba8361165e565b925060208a01995050600181019050611696565b50829750879550505050505092915050565b600060808201905081810360008301526116fa818761166b565b9050818103602083015261170e818661166b565b90508181036040830152611722818561166b565b90508181036060830152611736818461166b565b905095945050505050565b7f4e487b7100000000000000000000000000000000000000000000000000000000600052602260045260246000fd5b6000600282049050600182168061178857607f821691505b60208210810361179b5761179a611741565b5b50919050565b7f4e487b7100000000000000000000000000000000000000000000000000000000600052601160045260246000fd5b60006117db826110ea565b91507fffffffffffffffffffffffffffffffffffffffffffffffffffffffffffffffff820361180d5761180c6117a1565b5b600182019050919050565b7f4e6f7420616c6c6f776564000000000000000000000000000000000000000000600082015250565b600061184e600b836112fb565b915061185982611818565b602082019050919050565b6000602082019050818103600083015261187d81611841565b905091905056fe5573657220646f65736e6f7420657869737420212120526567697374657220616e642074727920616761696e202121a26469706673582212200c6dc4c8c4a6e6b2106342cf1e6a57ad7810fa5bf5b7fcef1820141f6003fa3564736f6c634300080d0033",
					"opcodes": "PUSH1 0x80 PUSH1 0x40 MSTORE CALLVALUE DUP1 ISZERO PUSH2 0x10 JUMPI PUSH1 0x0 DUP1 REVERT JUMPDEST POP PUSH1 0x0 DUP1 DUP2 SWAP1 SSTORE POP PUSH2 0x18E9 DUP1 PUSH2 0x27 PUSH1 0x0 CODECOPY PUSH1 0x0 RETURN INVALID PUSH1 0x80 PUSH1 0x40 MSTORE CALLVALUE DUP1 ISZERO PUSH2 0x10 JUMPI PUSH1 0x0 DUP1 REVERT JUMPDEST POP PUSH1 0x4 CALLDATASIZE LT PUSH2 0x88 JUMPI PUSH1 0x0 CALLDATALOAD PUSH1 0xE0 SHR DUP1 PUSH4 0xB4BFC3A5 GT PUSH2 0x5B JUMPI DUP1 PUSH4 0xB4BFC3A5 EQ PUSH2 0x129 JUMPI DUP1 PUSH4 0xC127AE41 EQ PUSH2 0x159 JUMPI DUP1 PUSH4 0xEBC3EEE8 EQ PUSH2 0x177 JUMPI DUP1 PUSH4 0xFF3A9C7E EQ PUSH2 0x195 JUMPI PUSH2 0x88 JUMP JUMPDEST DUP1 PUSH4 0x12679323 EQ PUSH2 0x8D JUMPI DUP1 PUSH4 0x58467DBC EQ PUSH2 0xAB JUMPI DUP1 PUSH4 0x5A09007B EQ PUSH2 0xDB JUMPI DUP1 PUSH4 0x681F3E6D EQ PUSH2 0x10B JUMPI JUMPDEST PUSH1 0x0 DUP1 REVERT JUMPDEST PUSH2 0x95 PUSH2 0x1B6 JUMP JUMPDEST PUSH1 0x40 MLOAD PUSH2 0xA2 SWAP2 SWAP1 PUSH2 0x1103 JUMP JUMPDEST PUSH1 0x40 MLOAD DUP1 SWAP2 SUB SWAP1 RETURN JUMPDEST PUSH2 0xC5 PUSH1 0x4 DUP1 CALLDATASIZE SUB DUP2 ADD SWAP1 PUSH2 0xC0 SWAP2 SWAP1 PUSH2 0x1278 JUMP JUMPDEST PUSH2 0x1BC JUMP JUMPDEST PUSH1 0x40 MLOAD PUSH2 0xD2 SWAP2 SWAP1 PUSH2 0x1378 JUMP JUMPDEST PUSH1 0x40 MLOAD DUP1 SWAP2 SUB SWAP1 RETURN JUMPDEST PUSH2 0xF5 PUSH1 0x4 DUP1 CALLDATASIZE SUB DUP2 ADD SWAP1 PUSH2 0xF0 SWAP2 SWAP1 PUSH2 0x139A JUMP JUMPDEST PUSH2 0x2F6 JUMP JUMPDEST PUSH1 0x40 MLOAD PUSH2 0x102 SWAP2 SWAP1 PUSH2 0x1378 JUMP JUMPDEST PUSH1 0x40 MLOAD DUP1 SWAP2 SUB SWAP1 RETURN JUMPDEST PUSH2 0x113 PUSH2 0x584 JUMP JUMPDEST PUSH1 0x40 MLOAD PUSH2 0x120 SWAP2 SWAP1 PUSH2 0x1378 JUMP JUMPDEST PUSH1 0x40 MLOAD DUP1 SWAP2 SUB SWAP1 RETURN JUMPDEST PUSH2 0x143 PUSH1 0x4 DUP1 CALLDATASIZE SUB DUP2 ADD SWAP1 PUSH2 0x13E SWAP2 SWAP1 PUSH2 0x14A1 JUMP JUMPDEST PUSH2 0x656 JUMP JUMPDEST PUSH1 0x40 MLOAD PUSH2 0x150 SWAP2 SWAP1 PUSH2 0x1378 JUMP JUMPDEST PUSH1 0x40 MLOAD DUP1 SWAP2 SUB SWAP1 RETURN JUMPDEST PUSH2 0x161 PUSH2 0xA46 JUMP JUMPDEST PUSH1 0x40 MLOAD PUSH2 0x16E SWAP2 SWAP1 PUSH2 0x1378 JUMP JUMPDEST PUSH1 0x40 MLOAD DUP1 SWAP2 SUB SWAP1 RETURN JUMPDEST PUSH2 0x17F PUSH2 0xBE8 JUMP JUMPDEST PUSH1 0x40 MLOAD PUSH2 0x18C SWAP2 SWAP1 PUSH2 0x15B9 JUMP JUMPDEST PUSH1 0x40 MLOAD DUP1 SWAP2 SUB SWAP1 RETURN JUMPDEST PUSH2 0x19D PUSH2 0xC52 JUMP JUMPDEST PUSH1 0x40 MLOAD PUSH2 0x1AD SWAP5 SWAP4 SWAP3 SWAP2 SWAP1 PUSH2 0x16E0 JUMP JUMPDEST PUSH1 0x40 MLOAD DUP1 SWAP2 SUB SWAP1 RETURN JUMPDEST PUSH1 0x0 SLOAD DUP2 JUMP JUMPDEST PUSH1 0x60 PUSH1 0x0 PUSH2 0x1C8 PUSH2 0x584 JUMP JUMPDEST SWAP1 POP PUSH1 0x0 PUSH1 0x1 PUSH1 0x0 CALLER PUSH20 0xFFFFFFFFFFFFFFFFFFFFFFFFFFFFFFFFFFFFFFFF AND PUSH20 0xFFFFFFFFFFFFFFFFFFFFFFFFFFFFFFFFFFFFFFFF AND DUP2 MSTORE PUSH1 0x20 ADD SWAP1 DUP2 MSTORE PUSH1 0x20 ADD PUSH1 0x0 KECCAK256 PUSH1 0x3 ADD DUP1 SLOAD PUSH2 0x219 SWAP1 PUSH2 0x1770 JUMP JUMPDEST DUP1 PUSH1 0x1F ADD PUSH1 0x20 DUP1 SWAP2 DIV MUL PUSH1 0x20 ADD PUSH1 0x40 MLOAD SWAP1 DUP2 ADD PUSH1 0x40 MSTORE DUP1 SWAP3 SWAP2 SWAP1 DUP2 DUP2 MSTORE PUSH1 0x20 ADD DUP3 DUP1 SLOAD PUSH2 0x245 SWAP1 PUSH2 0x1770 JUMP JUMPDEST DUP1 ISZERO PUSH2 0x292 JUMPI DUP1 PUSH1 0x1F LT PUSH2 0x267 JUMPI PUSH2 0x100 DUP1 DUP4 SLOAD DIV MUL DUP4 MSTORE SWAP2 PUSH1 0x20 ADD SWAP2 PUSH2 0x292 JUMP JUMPDEST DUP3 ADD SWAP2 SWAP1 PUSH1 0x0 MSTORE PUSH1 0x20 PUSH1 0x0 KECCAK256 SWAP1 JUMPDEST DUP2 SLOAD DUP2 MSTORE SWAP1 PUSH1 0x1 ADD SWAP1 PUSH1 0x20 ADD DUP1 DUP4 GT PUSH2 0x275 JUMPI DUP3 SWAP1 SUB PUSH1 0x1F AND DUP3 ADD SWAP2 JUMPDEST POP POP POP POP POP SWAP1 POP DUP5 DUP1 MLOAD SWAP1 PUSH1 0x20 ADD KECCAK256 DUP3 DUP1 MLOAD SWAP1 PUSH1 0x20 ADD KECCAK256 EQ DUP1 ISZERO PUSH2 0x2C3 JUMPI POP DUP4 DUP1 MLOAD SWAP1 PUSH1 0x20 ADD KECCAK256 DUP2 DUP1 MLOAD SWAP1 PUSH1 0x20 ADD KECCAK256 EQ JUMPDEST ISZERO PUSH2 0x2D2 JUMPI DUP5 SWAP3 POP POP POP PUSH2 0x2F0 JUMP JUMPDEST PUSH1 0x40 MLOAD DUP1 PUSH1 0x60 ADD PUSH1 0x40 MSTORE DUP1 PUSH1 0x2F DUP2 MSTORE PUSH1 0x20 ADD PUSH2 0x1885 PUSH1 0x2F SWAP2 CODECOPY SWAP3 POP POP POP JUMPDEST SWAP3 SWAP2 POP POP JUMP JUMPDEST PUSH1 0x60 DUP6 PUSH1 0x1 PUSH1 0x0 CALLER PUSH20 0xFFFFFFFFFFFFFFFFFFFFFFFFFFFFFFFFFFFFFFFF AND PUSH20 0xFFFFFFFFFFFFFFFFFFFFFFFFFFFFFFFFFFFFFFFF AND DUP2 MSTORE PUSH1 0x20 ADD SWAP1 DUP2 MSTORE PUSH1 0x20 ADD PUSH1 0x0 KECCAK256 PUSH1 0x0 ADD SWAP1 DUP1 MLOAD SWAP1 PUSH1 0x20 ADD SWAP1 PUSH2 0x34E SWAP3 SWAP2 SWAP1 PUSH2 0xFBA JUMP JUMPDEST POP DUP5 PUSH1 0x1 PUSH1 0x0 CALLER PUSH20 0xFFFFFFFFFFFFFFFFFFFFFFFFFFFFFFFFFFFFFFFF AND PUSH20 0xFFFFFFFFFFFFFFFFFFFFFFFFFFFFFFFFFFFFFFFF AND DUP2 MSTORE PUSH1 0x20 ADD SWAP1 DUP2 MSTORE PUSH1 0x20 ADD PUSH1 0x0 KECCAK256 PUSH1 0x1 ADD SWAP1 DUP1 MLOAD SWAP1 PUSH1 0x20 ADD SWAP1 PUSH2 0x3A5 SWAP3 SWAP2 SWAP1 PUSH2 0xFBA JUMP JUMPDEST POP CALLER PUSH1 0x1 PUSH1 0x0 CALLER PUSH20 0xFFFFFFFFFFFFFFFFFFFFFFFFFFFFFFFFFFFFFFFF AND PUSH20 0xFFFFFFFFFFFFFFFFFFFFFFFFFFFFFFFFFFFFFFFF AND DUP2 MSTORE PUSH1 0x20 ADD SWAP1 DUP2 MSTORE PUSH1 0x20 ADD PUSH1 0x0 KECCAK256 PUSH1 0x5 ADD PUSH1 0x0 PUSH2 0x100 EXP DUP2 SLOAD DUP2 PUSH20 0xFFFFFFFFFFFFFFFFFFFFFFFFFFFFFFFFFFFFFFFF MUL NOT AND SWAP1 DUP4 PUSH20 0xFFFFFFFFFFFFFFFFFFFFFFFFFFFFFFFFFFFFFFFF AND MUL OR SWAP1 SSTORE POP DUP4 PUSH1 0x1 PUSH1 0x0 CALLER PUSH20 0xFFFFFFFFFFFFFFFFFFFFFFFFFFFFFFFFFFFFFFFF AND PUSH20 0xFFFFFFFFFFFFFFFFFFFFFFFFFFFFFFFFFFFFFFFF AND DUP2 MSTORE PUSH1 0x20 ADD SWAP1 DUP2 MSTORE PUSH1 0x20 ADD PUSH1 0x0 KECCAK256 PUSH1 0x2 ADD SWAP1 DUP1 MLOAD SWAP1 PUSH1 0x20 ADD SWAP1 PUSH2 0x47D SWAP3 SWAP2 SWAP1 PUSH2 0xFBA JUMP JUMPDEST POP DUP3 PUSH1 0x1 PUSH1 0x0 CALLER PUSH20 0xFFFFFFFFFFFFFFFFFFFFFFFFFFFFFFFFFFFFFFFF AND PUSH20 0xFFFFFFFFFFFFFFFFFFFFFFFFFFFFFFFFFFFFFFFF AND DUP2 MSTORE PUSH1 0x20 ADD SWAP1 DUP2 MSTORE PUSH1 0x20 ADD PUSH1 0x0 KECCAK256 PUSH1 0x3 ADD SWAP1 DUP1 MLOAD SWAP1 PUSH1 0x20 ADD SWAP1 PUSH2 0x4D4 SWAP3 SWAP2 SWAP1 PUSH2 0xFBA JUMP JUMPDEST POP DUP2 PUSH1 0x1 PUSH1 0x0 CALLER PUSH20 0xFFFFFFFFFFFFFFFFFFFFFFFFFFFFFFFFFFFFFFFF AND PUSH20 0xFFFFFFFFFFFFFFFFFFFFFFFFFFFFFFFFFFFFFFFF AND DUP2 MSTORE PUSH1 0x20 ADD SWAP1 DUP2 MSTORE PUSH1 0x20 ADD PUSH1 0x0 KECCAK256 PUSH1 0x4 ADD SWAP1 DUP1 MLOAD SWAP1 PUSH1 0x20 ADD SWAP1 PUSH2 0x52B SWAP3 SWAP2 SWAP1 PUSH2 0xFBA JUMP JUMPDEST POP PUSH1 0x0 DUP1 DUP2 SLOAD DUP1 SWAP3 SWAP2 SWAP1 PUSH2 0x53E SWAP1 PUSH2 0x17D0 JUMP JUMPDEST SWAP2 SWAP1 POP SSTORE POP PUSH1 0x40 MLOAD DUP1 PUSH1 0x40 ADD PUSH1 0x40 MSTORE DUP1 PUSH1 0x17 DUP2 MSTORE PUSH1 0x20 ADD PUSH32 0x5375636365737366756C6C792052656769737465726564000000000000000000 DUP2 MSTORE POP SWAP1 POP SWAP6 SWAP5 POP POP POP POP POP JUMP JUMPDEST PUSH1 0x60 PUSH1 0x1 PUSH1 0x0 CALLER PUSH20 0xFFFFFFFFFFFFFFFFFFFFFFFFFFFFFFFFFFFFFFFF AND PUSH20 0xFFFFFFFFFFFFFFFFFFFFFFFFFFFFFFFFFFFFFFFF AND DUP2 MSTORE PUSH1 0x20 ADD SWAP1 DUP2 MSTORE PUSH1 0x20 ADD PUSH1 0x0 KECCAK256 PUSH1 0x2 ADD DUP1 SLOAD PUSH2 0x5D3 SWAP1 PUSH2 0x1770 JUMP JUMPDEST DUP1 PUSH1 0x1F ADD PUSH1 0x20 DUP1 SWAP2 DIV MUL PUSH1 0x20 ADD PUSH1 0x40 MLOAD SWAP1 DUP2 ADD PUSH1 0x40 MSTORE DUP1 SWAP3 SWAP2 SWAP1 DUP2 DUP2 MSTORE PUSH1 0x20 ADD DUP3 DUP1 SLOAD PUSH2 0x5FF SWAP1 PUSH2 0x1770 JUMP JUMPDEST DUP1 ISZERO PUSH2 0x64C JUMPI DUP1 PUSH1 0x1F LT PUSH2 0x621 JUMPI PUSH2 0x100 DUP1 DUP4 SLOAD DIV MUL DUP4 MSTORE SWAP2 PUSH1 0x20 ADD SWAP2 PUSH2 0x64C JUMP JUMPDEST DUP3 ADD SWAP2 SWAP1 PUSH1 0x0 MSTORE PUSH1 0x20 PUSH1 0x0 KECCAK256 SWAP1 JUMPDEST DUP2 SLOAD DUP2 MSTORE SWAP1 PUSH1 0x1 ADD SWAP1 PUSH1 0x20 ADD DUP1 DUP4 GT PUSH2 0x62F JUMPI DUP3 SWAP1 SUB PUSH1 0x1F AND DUP3 ADD SWAP2 JUMPDEST POP POP POP POP POP SWAP1 POP SWAP1 JUMP JUMPDEST PUSH1 0x60 PUSH1 0x0 PUSH2 0x662 PUSH2 0x584 JUMP JUMPDEST MLOAD EQ PUSH2 0xA05 JUMPI DUP5 PUSH1 0x2 PUSH1 0x0 CALLER PUSH20 0xFFFFFFFFFFFFFFFFFFFFFFFFFFFFFFFFFFFFFFFF AND PUSH20 0xFFFFFFFFFFFFFFFFFFFFFFFFFFFFFFFFFFFFFFFF AND DUP2 MSTORE PUSH1 0x20 ADD SWAP1 DUP2 MSTORE PUSH1 0x20 ADD PUSH1 0x0 KECCAK256 PUSH1 0x0 ADD SWAP1 DUP1 MLOAD SWAP1 PUSH1 0x20 ADD SWAP1 PUSH2 0x6BE SWAP3 SWAP2 SWAP1 PUSH2 0xFBA JUMP JUMPDEST POP DUP4 PUSH1 0x2 PUSH1 0x0 CALLER PUSH20 0xFFFFFFFFFFFFFFFFFFFFFFFFFFFFFFFFFFFFFFFF AND PUSH20 0xFFFFFFFFFFFFFFFFFFFFFFFFFFFFFFFFFFFFFFFF AND DUP2 MSTORE PUSH1 0x20 ADD SWAP1 DUP2 MSTORE PUSH1 0x20 ADD PUSH1 0x0 KECCAK256 PUSH1 0x1 ADD SWAP1 DUP1 MLOAD SWAP1 PUSH1 0x20 ADD SWAP1 PUSH2 0x715 SWAP3 SWAP2 SWAP1 PUSH2 0xFBA JUMP JUMPDEST POP DUP3 PUSH1 0x2 PUSH1 0x0 CALLER PUSH20 0xFFFFFFFFFFFFFFFFFFFFFFFFFFFFFFFFFFFFFFFF AND PUSH20 0xFFFFFFFFFFFFFFFFFFFFFFFFFFFFFFFFFFFFFFFF AND DUP2 MSTORE PUSH1 0x20 ADD SWAP1 DUP2 MSTORE PUSH1 0x20 ADD PUSH1 0x0 KECCAK256 PUSH1 0x2 ADD SWAP1 DUP1 MLOAD SWAP1 PUSH1 0x20 ADD SWAP1 PUSH2 0x76C SWAP3 SWAP2 SWAP1 PUSH2 0xFBA JUMP JUMPDEST POP DUP2 PUSH1 0x2 PUSH1 0x0 CALLER PUSH20 0xFFFFFFFFFFFFFFFFFFFFFFFFFFFFFFFFFFFFFFFF AND PUSH20 0xFFFFFFFFFFFFFFFFFFFFFFFFFFFFFFFFFFFFFFFF AND DUP2 MSTORE PUSH1 0x20 ADD SWAP1 DUP2 MSTORE PUSH1 0x20 ADD PUSH1 0x0 KECCAK256 PUSH1 0x3 ADD SWAP1 DUP1 MLOAD SWAP1 PUSH1 0x20 ADD SWAP1 PUSH2 0x7C3 SWAP3 SWAP2 SWAP1 PUSH2 0xFBA JUMP JUMPDEST POP PUSH1 0x8 PUSH1 0x2 PUSH1 0x0 CALLER PUSH20 0xFFFFFFFFFFFFFFFFFFFFFFFFFFFFFFFFFFFFFFFF AND PUSH20 0xFFFFFFFFFFFFFFFFFFFFFFFFFFFFFFFFFFFFFFFF AND DUP2 MSTORE PUSH1 0x20 ADD SWAP1 DUP2 MSTORE PUSH1 0x20 ADD PUSH1 0x0 KECCAK256 PUSH1 0x0 ADD SWAP1 DUP1 PUSH1 0x1 DUP2 SLOAD ADD DUP1 DUP3 SSTORE DUP1 SWAP2 POP POP PUSH1 0x1 SWAP1 SUB SWAP1 PUSH1 0x0 MSTORE PUSH1 0x20 PUSH1 0x0 KECCAK256 ADD PUSH1 0x0 SWAP1 SWAP2 SWAP1 SWAP2 SWAP1 SWAP2 POP SWAP1 DUP1 SLOAD PUSH2 0x839 SWAP1 PUSH2 0x1770 JUMP JUMPDEST PUSH2 0x844 SWAP3 SWAP2 SWAP1 PUSH2 0x1040 JUMP JUMPDEST POP PUSH1 0x9 PUSH1 0x2 PUSH1 0x0 CALLER PUSH20 0xFFFFFFFFFFFFFFFFFFFFFFFFFFFFFFFFFFFFFFFF AND PUSH20 0xFFFFFFFFFFFFFFFFFFFFFFFFFFFFFFFFFFFFFFFF AND DUP2 MSTORE PUSH1 0x20 ADD SWAP1 DUP2 MSTORE PUSH1 0x20 ADD PUSH1 0x0 KECCAK256 PUSH1 0x1 ADD SWAP1 DUP1 PUSH1 0x1 DUP2 SLOAD ADD DUP1 DUP3 SSTORE DUP1 SWAP2 POP POP PUSH1 0x1 SWAP1 SUB SWAP1 PUSH1 0x0 MSTORE PUSH1 0x20 PUSH1 0x0 KECCAK256 ADD PUSH1 0x0 SWAP1 SWAP2 SWAP1 SWAP2 SWAP1 SWAP2 POP SWAP1 DUP1 SLOAD PUSH2 0x8BA SWAP1 PUSH2 0x1770 JUMP JUMPDEST PUSH2 0x8C5 SWAP3 SWAP2 SWAP1 PUSH2 0x1040 JUMP JUMPDEST POP PUSH1 0xA PUSH1 0x2 PUSH1 0x0 CALLER PUSH20 0xFFFFFFFFFFFFFFFFFFFFFFFFFFFFFFFFFFFFFFFF AND PUSH20 0xFFFFFFFFFFFFFFFFFFFFFFFFFFFFFFFFFFFFFFFF AND DUP2 MSTORE PUSH1 0x20 ADD SWAP1 DUP2 MSTORE PUSH1 0x20 ADD PUSH1 0x0 KECCAK256 PUSH1 0x2 ADD SWAP1 DUP1 PUSH1 0x1 DUP2 SLOAD ADD DUP1 DUP3 SSTORE DUP1 SWAP2 POP POP PUSH1 0x1 SWAP1 SUB SWAP1 PUSH1 0x0 MSTORE PUSH1 0x20 PUSH1 0x0 KECCAK256 ADD PUSH1 0x0 SWAP1 SWAP2 SWAP1 SWAP2 SWAP1 SWAP2 POP SWAP1 DUP1 SLOAD PUSH2 0x93B SWAP1 PUSH2 0x1770 JUMP JUMPDEST PUSH2 0x946 SWAP3 SWAP2 SWAP1 PUSH2 0x1040 JUMP JUMPDEST POP PUSH1 0xB PUSH1 0x2 PUSH1 0x0 CALLER PUSH20 0xFFFFFFFFFFFFFFFFFFFFFFFFFFFFFFFFFFFFFFFF AND PUSH20 0xFFFFFFFFFFFFFFFFFFFFFFFFFFFFFFFFFFFFFFFF AND DUP2 MSTORE PUSH1 0x20 ADD SWAP1 DUP2 MSTORE PUSH1 0x20 ADD PUSH1 0x0 KECCAK256 PUSH1 0x3 ADD SWAP1 DUP1 PUSH1 0x1 DUP2 SLOAD ADD DUP1 DUP3 SSTORE DUP1 SWAP2 POP POP PUSH1 0x1 SWAP1 SUB SWAP1 PUSH1 0x0 MSTORE PUSH1 0x20 PUSH1 0x0 KECCAK256 ADD PUSH1 0x0 SWAP1 SWAP2 SWAP1 SWAP2 SWAP1 SWAP2 POP SWAP1 DUP1 SLOAD PUSH2 0x9BC SWAP1 PUSH2 0x1770 JUMP JUMPDEST PUSH2 0x9C7 SWAP3 SWAP2 SWAP1 PUSH2 0x1040 JUMP JUMPDEST POP PUSH1 0x40 MLOAD DUP1 PUSH1 0x40 ADD PUSH1 0x40 MSTORE DUP1 PUSH1 0x1A DUP2 MSTORE PUSH1 0x20 ADD PUSH32 0x50726F6A656374205361766564205375636365737366756C6C79000000000000 DUP2 MSTORE POP SWAP1 POP PUSH2 0xA3E JUMP JUMPDEST PUSH1 0x40 MLOAD DUP1 PUSH1 0x40 ADD PUSH1 0x40 MSTORE DUP1 PUSH1 0x14 DUP2 MSTORE PUSH1 0x20 ADD PUSH32 0x4572726F7220536176696E672050726F6A656374000000000000000000000000 DUP2 MSTORE POP SWAP1 POP JUMPDEST SWAP5 SWAP4 POP POP POP POP JUMP JUMPDEST PUSH1 0x60 PUSH1 0x1 PUSH1 0x0 CALLER PUSH20 0xFFFFFFFFFFFFFFFFFFFFFFFFFFFFFFFFFFFFFFFF AND PUSH20 0xFFFFFFFFFFFFFFFFFFFFFFFFFFFFFFFFFFFFFFFF AND DUP2 MSTORE PUSH1 0x20 ADD SWAP1 DUP2 MSTORE PUSH1 0x20 ADD PUSH1 0x0 KECCAK256 PUSH1 0x5 ADD PUSH1 0x0 SWAP1 SLOAD SWAP1 PUSH2 0x100 EXP SWAP1 DIV PUSH20 0xFFFFFFFFFFFFFFFFFFFFFFFFFFFFFFFFFFFFFFFF AND PUSH20 0xFFFFFFFFFFFFFFFFFFFFFFFFFFFFFFFFFFFFFFFF AND CALLER PUSH20 0xFFFFFFFFFFFFFFFFFFFFFFFFFFFFFFFFFFFFFFFF AND EQ PUSH2 0xB18 JUMPI PUSH1 0x40 MLOAD PUSH32 0x8C379A000000000000000000000000000000000000000000000000000000000 DUP2 MSTORE PUSH1 0x4 ADD PUSH2 0xB0F SWAP1 PUSH2 0x1864 JUMP JUMPDEST PUSH1 0x40 MLOAD DUP1 SWAP2 SUB SWAP1 REVERT JUMPDEST PUSH1 0x1 PUSH1 0x0 CALLER PUSH20 0xFFFFFFFFFFFFFFFFFFFFFFFFFFFFFFFFFFFFFFFF AND PUSH20 0xFFFFFFFFFFFFFFFFFFFFFFFFFFFFFFFFFFFFFFFF AND DUP2 MSTORE PUSH1 0x20 ADD SWAP1 DUP2 MSTORE PUSH1 0x20 ADD PUSH1 0x0 KECCAK256 PUSH1 0x0 ADD DUP1 SLOAD PUSH2 0xB65 SWAP1 PUSH2 0x1770 JUMP JUMPDEST DUP1 PUSH1 0x1F ADD PUSH1 0x20 DUP1 SWAP2 DIV MUL PUSH1 0x20 ADD PUSH1 0x40 MLOAD SWAP1 DUP2 ADD PUSH1 0x40 MSTORE DUP1 SWAP3 SWAP2 SWAP1 DUP2 DUP2 MSTORE PUSH1 0x20 ADD DUP3 DUP1 SLOAD PUSH2 0xB91 SWAP1 PUSH2 0x1770 JUMP JUMPDEST DUP1 ISZERO PUSH2 0xBDE JUMPI DUP1 PUSH1 0x1F LT PUSH2 0xBB3 JUMPI PUSH2 0x100 DUP1 DUP4 SLOAD DIV MUL DUP4 MSTORE SWAP2 PUSH1 0x20 ADD SWAP2 PUSH2 0xBDE JUMP JUMPDEST DUP3 ADD SWAP2 SWAP1 PUSH1 0x0 MSTORE PUSH1 0x20 PUSH1 0x0 KECCAK256 SWAP1 JUMPDEST DUP2 SLOAD DUP2 MSTORE SWAP1 PUSH1 0x1 ADD SWAP1 PUSH1 0x20 ADD DUP1 DUP4 GT PUSH2 0xBC1 JUMPI DUP3 SWAP1 SUB PUSH1 0x1F AND DUP3 ADD SWAP2 JUMPDEST POP POP POP POP POP SWAP1 POP SWAP1 JUMP JUMPDEST PUSH1 0x0 PUSH1 0x1 PUSH1 0x0 CALLER PUSH20 0xFFFFFFFFFFFFFFFFFFFFFFFFFFFFFFFFFFFFFFFF AND PUSH20 0xFFFFFFFFFFFFFFFFFFFFFFFFFFFFFFFFFFFFFFFF AND DUP2 MSTORE PUSH1 0x20 ADD SWAP1 DUP2 MSTORE PUSH1 0x20 ADD PUSH1 0x0 KECCAK256 PUSH1 0x5 ADD PUSH1 0x0 SWAP1 SLOAD SWAP1 PUSH2 0x100 EXP SWAP1 DIV PUSH20 0xFFFFFFFFFFFFFFFFFFFFFFFFFFFFFFFFFFFFFFFF AND SWAP1 POP SWAP1 JUMP JUMPDEST PUSH1 0x60 DUP1 PUSH1 0x60 DUP1 PUSH1 0x8 PUSH1 0x9 PUSH1 0xA PUSH1 0xB DUP4 DUP1 SLOAD DUP1 PUSH1 0x20 MUL PUSH1 0x20 ADD PUSH1 0x40 MLOAD SWAP1 DUP2 ADD PUSH1 0x40 MSTORE DUP1 SWAP3 SWAP2 SWAP1 DUP2 DUP2 MSTORE PUSH1 0x20 ADD PUSH1 0x0 SWAP1 JUMPDEST DUP3 DUP3 LT ISZERO PUSH2 0xD2D JUMPI DUP4 DUP3 SWAP1 PUSH1 0x0 MSTORE PUSH1 0x20 PUSH1 0x0 KECCAK256 ADD DUP1 SLOAD PUSH2 0xCA0 SWAP1 PUSH2 0x1770 JUMP JUMPDEST DUP1 PUSH1 0x1F ADD PUSH1 0x20 DUP1 SWAP2 DIV MUL PUSH1 0x20 ADD PUSH1 0x40 MLOAD SWAP1 DUP2 ADD PUSH1 0x40 MSTORE DUP1 SWAP3 SWAP2 SWAP1 DUP2 DUP2 MSTORE PUSH1 0x20 ADD DUP3 DUP1 SLOAD PUSH2 0xCCC SWAP1 PUSH2 0x1770 JUMP JUMPDEST DUP1 ISZERO PUSH2 0xD19 JUMPI DUP1 PUSH1 0x1F LT PUSH2 0xCEE JUMPI PUSH2 0x100 DUP1 DUP4 SLOAD DIV MUL DUP4 MSTORE SWAP2 PUSH1 0x20 ADD SWAP2 PUSH2 0xD19 JUMP JUMPDEST DUP3 ADD SWAP2 SWAP1 PUSH1 0x0 MSTORE PUSH1 0x20 PUSH1 0x0 KECCAK256 SWAP1 JUMPDEST DUP2 SLOAD DUP2 MSTORE SWAP1 PUSH1 0x1 ADD SWAP1 PUSH1 0x20 ADD DUP1 DUP4 GT PUSH2 0xCFC JUMPI DUP3 SWAP1 SUB PUSH1 0x1F AND DUP3 ADD SWAP2 JUMPDEST POP POP POP POP POP DUP2 MSTORE PUSH1 0x20 ADD SWAP1 PUSH1 0x1 ADD SWAP1 PUSH2 0xC81 JUMP JUMPDEST POP POP POP POP SWAP4 POP DUP3 DUP1 SLOAD DUP1 PUSH1 0x20 MUL PUSH1 0x20 ADD PUSH1 0x40 MLOAD SWAP1 DUP2 ADD PUSH1 0x40 MSTORE DUP1 SWAP3 SWAP2 SWAP1 DUP2 DUP2 MSTORE PUSH1 0x20 ADD PUSH1 0x0 SWAP1 JUMPDEST DUP3 DUP3 LT ISZERO PUSH2 0xE00 JUMPI DUP4 DUP3 SWAP1 PUSH1 0x0 MSTORE PUSH1 0x20 PUSH1 0x0 KECCAK256 ADD DUP1 SLOAD PUSH2 0xD73 SWAP1 PUSH2 0x1770 JUMP JUMPDEST DUP1 PUSH1 0x1F ADD PUSH1 0x20 DUP1 SWAP2 DIV MUL PUSH1 0x20 ADD PUSH1 0x40 MLOAD SWAP1 DUP2 ADD PUSH1 0x40 MSTORE DUP1 SWAP3 SWAP2 SWAP1 DUP2 DUP2 MSTORE PUSH1 0x20 ADD DUP3 DUP1 SLOAD PUSH2 0xD9F SWAP1 PUSH2 0x1770 JUMP JUMPDEST DUP1 ISZERO PUSH2 0xDEC JUMPI DUP1 PUSH1 0x1F LT PUSH2 0xDC1 JUMPI PUSH2 0x100 DUP1 DUP4 SLOAD DIV MUL DUP4 MSTORE SWAP2 PUSH1 0x20 ADD SWAP2 PUSH2 0xDEC JUMP JUMPDEST DUP3 ADD SWAP2 SWAP1 PUSH1 0x0 MSTORE PUSH1 0x20 PUSH1 0x0 KECCAK256 SWAP1 JUMPDEST DUP2 SLOAD DUP2 MSTORE SWAP1 PUSH1 0x1 ADD SWAP1 PUSH1 0x20 ADD DUP1 DUP4 GT PUSH2 0xDCF JUMPI DUP3 SWAP1 SUB PUSH1 0x1F AND DUP3 ADD SWAP2 JUMPDEST POP POP POP POP POP DUP2 MSTORE PUSH1 0x20 ADD SWAP1 PUSH1 0x1 ADD SWAP1 PUSH2 0xD54 JUMP JUMPDEST POP POP POP POP SWAP3 POP DUP2 DUP1 SLOAD DUP1 PUSH1 0x20 MUL PUSH1 0x20 ADD PUSH1 0x40 MLOAD SWAP1 DUP2 ADD PUSH1 0x40 MSTORE DUP1 SWAP3 SWAP2 SWAP1 DUP2 DUP2 MSTORE PUSH1 0x20 ADD PUSH1 0x0 SWAP1 JUMPDEST DUP3 DUP3 LT ISZERO PUSH2 0xED3 JUMPI DUP4 DUP3 SWAP1 PUSH1 0x0 MSTORE PUSH1 0x20 PUSH1 0x0 KECCAK256 ADD DUP1 SLOAD PUSH2 0xE46 SWAP1 PUSH2 0x1770 JUMP JUMPDEST DUP1 PUSH1 0x1F ADD PUSH1 0x20 DUP1 SWAP2 DIV MUL PUSH1 0x20 ADD PUSH1 0x40 MLOAD SWAP1 DUP2 ADD PUSH1 0x40 MSTORE DUP1 SWAP3 SWAP2 SWAP1 DUP2 DUP2 MSTORE PUSH1 0x20 ADD DUP3 DUP1 SLOAD PUSH2 0xE72 SWAP1 PUSH2 0x1770 JUMP JUMPDEST DUP1 ISZERO PUSH2 0xEBF JUMPI DUP1 PUSH1 0x1F LT PUSH2 0xE94 JUMPI PUSH2 0x100 DUP1 DUP4 SLOAD DIV MUL DUP4 MSTORE SWAP2 PUSH1 0x20 ADD SWAP2 PUSH2 0xEBF JUMP JUMPDEST DUP3 ADD SWAP2 SWAP1 PUSH1 0x0 MSTORE PUSH1 0x20 PUSH1 0x0 KECCAK256 SWAP1 JUMPDEST DUP2 SLOAD DUP2 MSTORE SWAP1 PUSH1 0x1 ADD SWAP1 PUSH1 0x20 ADD DUP1 DUP4 GT PUSH2 0xEA2 JUMPI DUP3 SWAP1 SUB PUSH1 0x1F AND DUP3 ADD SWAP2 JUMPDEST POP POP POP POP POP DUP2 MSTORE PUSH1 0x20 ADD SWAP1 PUSH1 0x1 ADD SWAP1 PUSH2 0xE27 JUMP JUMPDEST POP POP POP POP SWAP2 POP DUP1 DUP1 SLOAD DUP1 PUSH1 0x20 MUL PUSH1 0x20 ADD PUSH1 0x40 MLOAD SWAP1 DUP2 ADD PUSH1 0x40 MSTORE DUP1 SWAP3 SWAP2 SWAP1 DUP2 DUP2 MSTORE PUSH1 0x20 ADD PUSH1 0x0 SWAP1 JUMPDEST DUP3 DUP3 LT ISZERO PUSH2 0xFA6 JUMPI DUP4 DUP3 SWAP1 PUSH1 0x0 MSTORE PUSH1 0x20 PUSH1 0x0 KECCAK256 ADD DUP1 SLOAD PUSH2 0xF19 SWAP1 PUSH2 0x1770 JUMP JUMPDEST DUP1 PUSH1 0x1F ADD PUSH1 0x20 DUP1 SWAP2 DIV MUL PUSH1 0x20 ADD PUSH1 0x40 MLOAD SWAP1 DUP2 ADD PUSH1 0x40 MSTORE DUP1 SWAP3 SWAP2 SWAP1 DUP2 DUP2 MSTORE PUSH1 0x20 ADD DUP3 DUP1 SLOAD PUSH2 0xF45 SWAP1 PUSH2 0x1770 JUMP JUMPDEST DUP1 ISZERO PUSH2 0xF92 JUMPI DUP1 PUSH1 0x1F LT PUSH2 0xF67 JUMPI PUSH2 0x100 DUP1 DUP4 SLOAD DIV MUL DUP4 MSTORE SWAP2 PUSH1 0x20 ADD SWAP2 PUSH2 0xF92 JUMP JUMPDEST DUP3 ADD SWAP2 SWAP1 PUSH1 0x0 MSTORE PUSH1 0x20 PUSH1 0x0 KECCAK256 SWAP1 JUMPDEST DUP2 SLOAD DUP2 MSTORE SWAP1 PUSH1 0x1 ADD SWAP1 PUSH1 0x20 ADD DUP1 DUP4 GT PUSH2 0xF75 JUMPI DUP3 SWAP1 SUB PUSH1 0x1F AND DUP3 ADD SWAP2 JUMPDEST POP POP POP POP POP DUP2 MSTORE PUSH1 0x20 ADD SWAP1 PUSH1 0x1 ADD SWAP1 PUSH2 0xEFA JUMP JUMPDEST POP POP POP POP SWAP1 POP SWAP4 POP SWAP4 POP SWAP4 POP SWAP4 POP SWAP1 SWAP2 SWAP3 SWAP4 JUMP JUMPDEST DUP3 DUP1 SLOAD PUSH2 0xFC6 SWAP1 PUSH2 0x1770 JUMP JUMPDEST SWAP1 PUSH1 0x0 MSTORE PUSH1 0x20 PUSH1 0x0 KECCAK256 SWAP1 PUSH1 0x1F ADD PUSH1 0x20 SWAP1 DIV DUP2 ADD SWAP3 DUP3 PUSH2 0xFE8 JUMPI PUSH1 0x0 DUP6 SSTORE PUSH2 0x102F JUMP JUMPDEST DUP3 PUSH1 0x1F LT PUSH2 0x1001 JUMPI DUP1 MLOAD PUSH1 0xFF NOT AND DUP4 DUP1 ADD OR DUP6 SSTORE PUSH2 0x102F JUMP JUMPDEST DUP3 DUP1 ADD PUSH1 0x1 ADD DUP6 SSTORE DUP3 ISZERO PUSH2 0x102F JUMPI SWAP2 DUP3 ADD JUMPDEST DUP3 DUP2 GT ISZERO PUSH2 0x102E JUMPI DUP3 MLOAD DUP3 SSTORE SWAP2 PUSH1 0x20 ADD SWAP2 SWAP1 PUSH1 0x1 ADD SWAP1 PUSH2 0x1013 JUMP JUMPDEST JUMPDEST POP SWAP1 POP PUSH2 0x103C SWAP2 SWAP1 PUSH2 0x10CD JUMP JUMPDEST POP SWAP1 JUMP JUMPDEST DUP3 DUP1 SLOAD PUSH2 0x104C SWAP1 PUSH2 0x1770 JUMP JUMPDEST SWAP1 PUSH1 0x0 MSTORE PUSH1 0x20 PUSH1 0x0 KECCAK256 SWAP1 PUSH1 0x1F ADD PUSH1 0x20 SWAP1 DIV DUP2 ADD SWAP3 DUP3 PUSH2 0x106E JUMPI PUSH1 0x0 DUP6 SSTORE PUSH2 0x10BC JUMP JUMPDEST DUP3 PUSH1 0x1F LT PUSH2 0x107F JUMPI DUP1 SLOAD DUP6 SSTORE PUSH2 0x10BC JUMP JUMPDEST DUP3 DUP1 ADD PUSH1 0x1 ADD DUP6 SSTORE DUP3 ISZERO PUSH2 0x10BC JUMPI PUSH1 0x0 MSTORE PUSH1 0x20 PUSH1 0x0 KECCAK256 SWAP2 PUSH1 0x1F ADD PUSH1 0x20 SWAP1 DIV DUP3 ADD JUMPDEST DUP3 DUP2 GT ISZERO PUSH2 0x10BB JUMPI DUP3 SLOAD DUP3 SSTORE SWAP2 PUSH1 0x1 ADD SWAP2 SWAP1 PUSH1 0x1 ADD SWAP1 PUSH2 0x10A0 JUMP JUMPDEST JUMPDEST POP SWAP1 POP PUSH2 0x10C9 SWAP2 SWAP1 PUSH2 0x10CD JUMP JUMPDEST POP SWAP1 JUMP JUMPDEST JUMPDEST DUP1 DUP3 GT ISZERO PUSH2 0x10E6 JUMPI PUSH1 0x0 DUP2 PUSH1 0x0 SWAP1 SSTORE POP PUSH1 0x1 ADD PUSH2 0x10CE JUMP JUMPDEST POP SWAP1 JUMP JUMPDEST PUSH1 0x0 DUP2 SWAP1 POP SWAP2 SWAP1 POP JUMP JUMPDEST PUSH2 0x10FD DUP2 PUSH2 0x10EA JUMP JUMPDEST DUP3 MSTORE POP POP JUMP JUMPDEST PUSH1 0x0 PUSH1 0x20 DUP3 ADD SWAP1 POP PUSH2 0x1118 PUSH1 0x0 DUP4 ADD DUP5 PUSH2 0x10F4 JUMP JUMPDEST SWAP3 SWAP2 POP POP JUMP JUMPDEST PUSH1 0x0 PUSH1 0x40 MLOAD SWAP1 POP SWAP1 JUMP JUMPDEST PUSH1 0x0 DUP1 REVERT JUMPDEST PUSH1 0x0 DUP1 REVERT JUMPDEST PUSH1 0x0 DUP1 REVERT JUMPDEST PUSH1 0x0 DUP1 REVERT JUMPDEST PUSH1 0x0 PUSH1 0x1F NOT PUSH1 0x1F DUP4 ADD AND SWAP1 POP SWAP2 SWAP1 POP JUMP JUMPDEST PUSH32 0x4E487B7100000000000000000000000000000000000000000000000000000000 PUSH1 0x0 MSTORE PUSH1 0x41 PUSH1 0x4 MSTORE PUSH1 0x24 PUSH1 0x0 REVERT JUMPDEST PUSH2 0x1185 DUP3 PUSH2 0x113C JUMP JUMPDEST DUP2 ADD DUP2 DUP2 LT PUSH8 0xFFFFFFFFFFFFFFFF DUP3 GT OR ISZERO PUSH2 0x11A4 JUMPI PUSH2 0x11A3 PUSH2 0x114D JUMP JUMPDEST JUMPDEST DUP1 PUSH1 0x40 MSTORE POP POP POP JUMP JUMPDEST PUSH1 0x0 PUSH2 0x11B7 PUSH2 0x111E JUMP JUMPDEST SWAP1 POP PUSH2 0x11C3 DUP3 DUP3 PUSH2 0x117C JUMP JUMPDEST SWAP2 SWAP1 POP JUMP JUMPDEST PUSH1 0x0 PUSH8 0xFFFFFFFFFFFFFFFF DUP3 GT ISZERO PUSH2 0x11E3 JUMPI PUSH2 0x11E2 PUSH2 0x114D JUMP JUMPDEST JUMPDEST PUSH2 0x11EC DUP3 PUSH2 0x113C JUMP JUMPDEST SWAP1 POP PUSH1 0x20 DUP2 ADD SWAP1 POP SWAP2 SWAP1 POP JUMP JUMPDEST DUP3 DUP2 DUP4 CALLDATACOPY PUSH1 0x0 DUP4 DUP4 ADD MSTORE POP POP POP JUMP JUMPDEST PUSH1 0x0 PUSH2 0x121B PUSH2 0x1216 DUP5 PUSH2 0x11C8 JUMP JUMPDEST PUSH2 0x11AD JUMP JUMPDEST SWAP1 POP DUP3 DUP2 MSTORE PUSH1 0x20 DUP2 ADD DUP5 DUP5 DUP5 ADD GT ISZERO PUSH2 0x1237 JUMPI PUSH2 0x1236 PUSH2 0x1137 JUMP JUMPDEST JUMPDEST PUSH2 0x1242 DUP5 DUP3 DUP6 PUSH2 0x11F9 JUMP JUMPDEST POP SWAP4 SWAP3 POP POP POP JUMP JUMPDEST PUSH1 0x0 DUP3 PUSH1 0x1F DUP4 ADD SLT PUSH2 0x125F JUMPI PUSH2 0x125E PUSH2 0x1132 JUMP JUMPDEST JUMPDEST DUP2 CALLDATALOAD PUSH2 0x126F DUP5 DUP3 PUSH1 0x20 DUP7 ADD PUSH2 0x1208 JUMP JUMPDEST SWAP2 POP POP SWAP3 SWAP2 POP POP JUMP JUMPDEST PUSH1 0x0 DUP1 PUSH1 0x40 DUP4 DUP6 SUB SLT ISZERO PUSH2 0x128F JUMPI PUSH2 0x128E PUSH2 0x1128 JUMP JUMPDEST JUMPDEST PUSH1 0x0 DUP4 ADD CALLDATALOAD PUSH8 0xFFFFFFFFFFFFFFFF DUP2 GT ISZERO PUSH2 0x12AD JUMPI PUSH2 0x12AC PUSH2 0x112D JUMP JUMPDEST JUMPDEST PUSH2 0x12B9 DUP6 DUP3 DUP7 ADD PUSH2 0x124A JUMP JUMPDEST SWAP3 POP POP PUSH1 0x20 DUP4 ADD CALLDATALOAD PUSH8 0xFFFFFFFFFFFFFFFF DUP2 GT ISZERO PUSH2 0x12DA JUMPI PUSH2 0x12D9 PUSH2 0x112D JUMP JUMPDEST JUMPDEST PUSH2 0x12E6 DUP6 DUP3 DUP7 ADD PUSH2 0x124A JUMP JUMPDEST SWAP2 POP POP SWAP3 POP SWAP3 SWAP1 POP JUMP JUMPDEST PUSH1 0x0 DUP2 MLOAD SWAP1 POP SWAP2 SWAP1 POP JUMP JUMPDEST PUSH1 0x0 DUP3 DUP3 MSTORE PUSH1 0x20 DUP3 ADD SWAP1 POP SWAP3 SWAP2 POP POP JUMP JUMPDEST PUSH1 0x0 JUMPDEST DUP4 DUP2 LT ISZERO PUSH2 0x132A JUMPI DUP1 DUP3 ADD MLOAD DUP2 DUP5 ADD MSTORE PUSH1 0x20 DUP2 ADD SWAP1 POP PUSH2 0x130F JUMP JUMPDEST DUP4 DUP2 GT ISZERO PUSH2 0x1339 JUMPI PUSH1 0x0 DUP5 DUP5 ADD MSTORE JUMPDEST POP POP POP POP JUMP JUMPDEST PUSH1 0x0 PUSH2 0x134A DUP3 PUSH2 0x12F0 JUMP JUMPDEST PUSH2 0x1354 DUP2 DUP6 PUSH2 0x12FB JUMP JUMPDEST SWAP4 POP PUSH2 0x1364 DUP2 DUP6 PUSH1 0x20 DUP7 ADD PUSH2 0x130C JUMP JUMPDEST PUSH2 0x136D DUP2 PUSH2 0x113C JUMP JUMPDEST DUP5 ADD SWAP2 POP POP SWAP3 SWAP2 POP POP JUMP JUMPDEST PUSH1 0x0 PUSH1 0x20 DUP3 ADD SWAP1 POP DUP2 DUP2 SUB PUSH1 0x0 DUP4 ADD MSTORE PUSH2 0x1392 DUP2 DUP5 PUSH2 0x133F JUMP JUMPDEST SWAP1 POP SWAP3 SWAP2 POP POP JUMP JUMPDEST PUSH1 0x0 DUP1 PUSH1 0x0 DUP1 PUSH1 0x0 PUSH1 0xA0 DUP7 DUP9 SUB SLT ISZERO PUSH2 0x13B6 JUMPI PUSH2 0x13B5 PUSH2 0x1128 JUMP JUMPDEST JUMPDEST PUSH1 0x0 DUP7 ADD CALLDATALOAD PUSH8 0xFFFFFFFFFFFFFFFF DUP2 GT ISZERO PUSH2 0x13D4 JUMPI PUSH2 0x13D3 PUSH2 0x112D JUMP JUMPDEST JUMPDEST PUSH2 0x13E0 DUP9 DUP3 DUP10 ADD PUSH2 0x124A JUMP JUMPDEST SWAP6 POP POP PUSH1 0x20 DUP7 ADD CALLDATALOAD PUSH8 0xFFFFFFFFFFFFFFFF DUP2 GT ISZERO PUSH2 0x1401 JUMPI PUSH2 0x1400 PUSH2 0x112D JUMP JUMPDEST JUMPDEST PUSH2 0x140D DUP9 DUP3 DUP10 ADD PUSH2 0x124A JUMP JUMPDEST SWAP5 POP POP PUSH1 0x40 DUP7 ADD CALLDATALOAD PUSH8 0xFFFFFFFFFFFFFFFF DUP2 GT ISZERO PUSH2 0x142E JUMPI PUSH2 0x142D PUSH2 0x112D JUMP JUMPDEST JUMPDEST PUSH2 0x143A DUP9 DUP3 DUP10 ADD PUSH2 0x124A JUMP JUMPDEST SWAP4 POP POP PUSH1 0x60 DUP7 ADD CALLDATALOAD PUSH8 0xFFFFFFFFFFFFFFFF DUP2 GT ISZERO PUSH2 0x145B JUMPI PUSH2 0x145A PUSH2 0x112D JUMP JUMPDEST JUMPDEST PUSH2 0x1467 DUP9 DUP3 DUP10 ADD PUSH2 0x124A JUMP JUMPDEST SWAP3 POP POP PUSH1 0x80 DUP7 ADD CALLDATALOAD PUSH8 0xFFFFFFFFFFFFFFFF DUP2 GT ISZERO PUSH2 0x1488 JUMPI PUSH2 0x1487 PUSH2 0x112D JUMP JUMPDEST JUMPDEST PUSH2 0x1494 DUP9 DUP3 DUP10 ADD PUSH2 0x124A JUMP JUMPDEST SWAP2 POP POP SWAP3 SWAP6 POP SWAP3 SWAP6 SWAP1 SWAP4 POP JUMP JUMPDEST PUSH1 0x0 DUP1 PUSH1 0x0 DUP1 PUSH1 0x80 DUP6 DUP8 SUB SLT ISZERO PUSH2 0x14BB JUMPI PUSH2 0x14BA PUSH2 0x1128 JUMP JUMPDEST JUMPDEST PUSH1 0x0 DUP6 ADD CALLDATALOAD PUSH8 0xFFFFFFFFFFFFFFFF DUP2 GT ISZERO PUSH2 0x14D9 JUMPI PUSH2 0x14D8 PUSH2 0x112D JUMP JUMPDEST JUMPDEST PUSH2 0x14E5 DUP8 DUP3 DUP9 ADD PUSH2 0x124A JUMP JUMPDEST SWAP5 POP POP PUSH1 0x20 DUP6 ADD CALLDATALOAD PUSH8 0xFFFFFFFFFFFFFFFF DUP2 GT ISZERO PUSH2 0x1506 JUMPI PUSH2 0x1505 PUSH2 0x112D JUMP JUMPDEST JUMPDEST PUSH2 0x1512 DUP8 DUP3 DUP9 ADD PUSH2 0x124A JUMP JUMPDEST SWAP4 POP POP PUSH1 0x40 DUP6 ADD CALLDATALOAD PUSH8 0xFFFFFFFFFFFFFFFF DUP2 GT ISZERO PUSH2 0x1533 JUMPI PUSH2 0x1532 PUSH2 0x112D JUMP JUMPDEST JUMPDEST PUSH2 0x153F DUP8 DUP3 DUP9 ADD PUSH2 0x124A JUMP JUMPDEST SWAP3 POP POP PUSH1 0x60 DUP6 ADD CALLDATALOAD PUSH8 0xFFFFFFFFFFFFFFFF DUP2 GT ISZERO PUSH2 0x1560 JUMPI PUSH2 0x155F PUSH2 0x112D JUMP JUMPDEST JUMPDEST PUSH2 0x156C DUP8 DUP3 DUP9 ADD PUSH2 0x124A JUMP JUMPDEST SWAP2 POP POP SWAP3 SWAP6 SWAP2 SWAP5 POP SWAP3 POP JUMP JUMPDEST PUSH1 0x0 PUSH20 0xFFFFFFFFFFFFFFFFFFFFFFFFFFFFFFFFFFFFFFFF DUP3 AND SWAP1 POP SWAP2 SWAP1 POP JUMP JUMPDEST PUSH1 0x0 PUSH2 0x15A3 DUP3 PUSH2 0x1578 JUMP JUMPDEST SWAP1 POP SWAP2 SWAP1 POP JUMP JUMPDEST PUSH2 0x15B3 DUP2 PUSH2 0x1598 JUMP JUMPDEST DUP3 MSTORE POP POP JUMP JUMPDEST PUSH1 0x0 PUSH1 0x20 DUP3 ADD SWAP1 POP PUSH2 0x15CE PUSH1 0x0 DUP4 ADD DUP5 PUSH2 0x15AA JUMP JUMPDEST SWAP3 SWAP2 POP POP JUMP JUMPDEST PUSH1 0x0 DUP2 MLOAD SWAP1 POP SWAP2 SWAP1 POP JUMP JUMPDEST PUSH1 0x0 DUP3 DUP3 MSTORE PUSH1 0x20 DUP3 ADD SWAP1 POP SWAP3 SWAP2 POP POP JUMP JUMPDEST PUSH1 0x0 DUP2 SWAP1 POP PUSH1 0x20 DUP3 ADD SWAP1 POP SWAP2 SWAP1 POP JUMP JUMPDEST PUSH1 0x0 DUP3 DUP3 MSTORE PUSH1 0x20 DUP3 ADD SWAP1 POP SWAP3 SWAP2 POP POP JUMP JUMPDEST PUSH1 0x0 PUSH2 0x161C DUP3 PUSH2 0x12F0 JUMP JUMPDEST PUSH2 0x1626 DUP2 DUP6 PUSH2 0x1600 JUMP JUMPDEST SWAP4 POP PUSH2 0x1636 DUP2 DUP6 PUSH1 0x20 DUP7 ADD PUSH2 0x130C JUMP JUMPDEST PUSH2 0x163F DUP2 PUSH2 0x113C JUMP JUMPDEST DUP5 ADD SWAP2 POP POP SWAP3 SWAP2 POP POP JUMP JUMPDEST PUSH1 0x0 PUSH2 0x1656 DUP4 DUP4 PUSH2 0x1611 JUMP JUMPDEST SWAP1 POP SWAP3 SWAP2 POP POP JUMP JUMPDEST PUSH1 0x0 PUSH1 0x20 DUP3 ADD SWAP1 POP SWAP2 SWAP1 POP JUMP JUMPDEST PUSH1 0x0 PUSH2 0x1676 DUP3 PUSH2 0x15D4 JUMP JUMPDEST PUSH2 0x1680 DUP2 DUP6 PUSH2 0x15DF JUMP JUMPDEST SWAP4 POP DUP4 PUSH1 0x20 DUP3 MUL DUP6 ADD PUSH2 0x1692 DUP6 PUSH2 0x15F0 JUMP JUMPDEST DUP1 PUSH1 0x0 JUMPDEST DUP6 DUP2 LT ISZERO PUSH2 0x16CE JUMPI DUP5 DUP5 SUB DUP10 MSTORE DUP2 MLOAD PUSH2 0x16AF DUP6 DUP3 PUSH2 0x164A JUMP JUMPDEST SWAP5 POP PUSH2 0x16BA DUP4 PUSH2 0x165E JUMP JUMPDEST SWAP3 POP PUSH1 0x20 DUP11 ADD SWAP10 POP POP PUSH1 0x1 DUP2 ADD SWAP1 POP PUSH2 0x1696 JUMP JUMPDEST POP DUP3 SWAP8 POP DUP8 SWAP6 POP POP POP POP POP POP SWAP3 SWAP2 POP POP JUMP JUMPDEST PUSH1 0x0 PUSH1 0x80 DUP3 ADD SWAP1 POP DUP2 DUP2 SUB PUSH1 0x0 DUP4 ADD MSTORE PUSH2 0x16FA DUP2 DUP8 PUSH2 0x166B JUMP JUMPDEST SWAP1 POP DUP2 DUP2 SUB PUSH1 0x20 DUP4 ADD MSTORE PUSH2 0x170E DUP2 DUP7 PUSH2 0x166B JUMP JUMPDEST SWAP1 POP DUP2 DUP2 SUB PUSH1 0x40 DUP4 ADD MSTORE PUSH2 0x1722 DUP2 DUP6 PUSH2 0x166B JUMP JUMPDEST SWAP1 POP DUP2 DUP2 SUB PUSH1 0x60 DUP4 ADD MSTORE PUSH2 0x1736 DUP2 DUP5 PUSH2 0x166B JUMP JUMPDEST SWAP1 POP SWAP6 SWAP5 POP POP POP POP POP JUMP JUMPDEST PUSH32 0x4E487B7100000000000000000000000000000000000000000000000000000000 PUSH1 0x0 MSTORE PUSH1 0x22 PUSH1 0x4 MSTORE PUSH1 0x24 PUSH1 0x0 REVERT JUMPDEST PUSH1 0x0 PUSH1 0x2 DUP3 DIV SWAP1 POP PUSH1 0x1 DUP3 AND DUP1 PUSH2 0x1788 JUMPI PUSH1 0x7F DUP3 AND SWAP2 POP JUMPDEST PUSH1 0x20 DUP3 LT DUP2 SUB PUSH2 0x179B JUMPI PUSH2 0x179A PUSH2 0x1741 JUMP JUMPDEST JUMPDEST POP SWAP2 SWAP1 POP JUMP JUMPDEST PUSH32 0x4E487B7100000000000000000000000000000000000000000000000000000000 PUSH1 0x0 MSTORE PUSH1 0x11 PUSH1 0x4 MSTORE PUSH1 0x24 PUSH1 0x0 REVERT JUMPDEST PUSH1 0x0 PUSH2 0x17DB DUP3 PUSH2 0x10EA JUMP JUMPDEST SWAP2 POP PUSH32 0xFFFFFFFFFFFFFFFFFFFFFFFFFFFFFFFFFFFFFFFFFFFFFFFFFFFFFFFFFFFFFFFF DUP3 SUB PUSH2 0x180D JUMPI PUSH2 0x180C PUSH2 0x17A1 JUMP JUMPDEST JUMPDEST PUSH1 0x1 DUP3 ADD SWAP1 POP SWAP2 SWAP1 POP JUMP JUMPDEST PUSH32 0x4E6F7420616C6C6F776564000000000000000000000000000000000000000000 PUSH1 0x0 DUP3 ADD MSTORE POP JUMP JUMPDEST PUSH1 0x0 PUSH2 0x184E PUSH1 0xB DUP4 PUSH2 0x12FB JUMP JUMPDEST SWAP2 POP PUSH2 0x1859 DUP3 PUSH2 0x1818 JUMP JUMPDEST PUSH1 0x20 DUP3 ADD SWAP1 POP SWAP2 SWAP1 POP JUMP JUMPDEST PUSH1 0x0 PUSH1 0x20 DUP3 ADD SWAP1 POP DUP2 DUP2 SUB PUSH1 0x0 DUP4 ADD MSTORE PUSH2 0x187D DUP2 PUSH2 0x1841 JUMP JUMPDEST SWAP1 POP SWAP2 SWAP1 POP JUMP INVALID SSTORE PUSH20 0x657220646F65736E6F7420657869737420212120 MSTORE PUSH6 0x676973746572 KECCAK256 PUSH2 0x6E64 KECCAK256 PUSH21 0x727920616761696E202121A2646970667358221220 0xC PUSH14 0xC4C8C4A6E6B2106342CF1E6A57AD PUSH25 0x10FA5BF5B7FCEF1820141F6003FA3564736F6C634300080D00 CALLER "
				},
				"gasEstimates": {
					"creation": {
						"codeDepositCost": "1275400",
						"executionCost": "6343",
						"totalCost": "1281743"
					},
					"external": {
						"getProjectDetails()": "infinite",
						"getSignatureHash()": "infinite",
						"getUserAddress()": "2661",
						"getUsername()": "infinite",
						"login(string,string)": "infinite",
						"nbOfUsers()": "2430",
						"register(string,string,string,string,string)": "infinite",
						"saveProject(string,string,string,string)": "infinite"
					}
				},
				"methodIdentifiers": {
					"getProjectDetails()": "ff3a9c7e",
					"getSignatureHash()": "c127ae41",
					"getUserAddress()": "ebc3eee8",
					"getUsername()": "681f3e6d",
					"login(string,string)": "58467dbc",
					"nbOfUsers()": "12679323",
					"register(string,string,string,string,string)": "5a09007b",
					"saveProject(string,string,string,string)": "b4bfc3a5"
				}
			},
			"storageLayout": {
				"storage": [
					{
						"astId": 3,
						"contract": "contracts/authentication.sol:Authentication",
						"label": "nbOfUsers",
						"offset": 0,
						"slot": "0",
						"type": "t_uint256"
					},
					{
						"astId": 21,
						"contract": "contracts/authentication.sol:Authentication",
						"label": "user",
						"offset": 0,
						"slot": "1",
						"type": "t_mapping(t_address,t_struct(User)16_storage)"
					},
					{
						"astId": 37,
						"contract": "contracts/authentication.sol:Authentication",
						"label": "project",
						"offset": 0,
						"slot": "2",
						"type": "t_mapping(t_address,t_struct(Project)32_storage)"
					},
					{
						"astId": 51,
						"contract": "contracts/authentication.sol:Authentication",
						"label": "allProject",
						"offset": 0,
						"slot": "3",
						"type": "t_struct(AllProject)48_storage"
					},
					{
						"astId": 54,
						"contract": "contracts/authentication.sol:Authentication",
						"label": "pName",
						"offset": 0,
						"slot": "8",
						"type": "t_array(t_string_storage)dyn_storage"
					},
					{
						"astId": 57,
						"contract": "contracts/authentication.sol:Authentication",
						"label": "desc",
						"offset": 0,
						"slot": "9",
						"type": "t_array(t_string_storage)dyn_storage"
					},
					{
						"astId": 60,
						"contract": "contracts/authentication.sol:Authentication",
						"label": "deadln",
						"offset": 0,
						"slot": "10",
						"type": "t_array(t_string_storage)dyn_storage"
					},
					{
						"astId": 63,
						"contract": "contracts/authentication.sol:Authentication",
						"label": "amt",
						"offset": 0,
						"slot": "11",
						"type": "t_array(t_string_storage)dyn_storage"
					},
					{
						"astId": 66,
						"contract": "contracts/authentication.sol:Authentication",
						"label": "usrAdd",
						"offset": 0,
						"slot": "12",
						"type": "t_array(t_address)dyn_storage"
					}
				],
				"types": {
					"t_address": {
						"encoding": "inplace",
						"label": "address",
						"numberOfBytes": "20"
					},
					"t_array(t_address)dyn_storage": {
						"base": "t_address",
						"encoding": "dynamic_array",
						"label": "address[]",
						"numberOfBytes": "32"
					},
					"t_array(t_string_storage)dyn_storage": {
						"base": "t_string_storage",
						"encoding": "dynamic_array",
						"label": "string[]",
						"numberOfBytes": "32"
					},
					"t_mapping(t_address,t_struct(Project)32_storage)": {
						"encoding": "mapping",
						"key": "t_address",
						"label": "mapping(address => struct Authentication.Project)",
						"numberOfBytes": "32",
						"value": "t_struct(Project)32_storage"
					},
					"t_mapping(t_address,t_struct(User)16_storage)": {
						"encoding": "mapping",
						"key": "t_address",
						"label": "mapping(address => struct Authentication.User)",
						"numberOfBytes": "32",
						"value": "t_struct(User)16_storage"
					},
					"t_string_storage": {
						"encoding": "bytes",
						"label": "string",
						"numberOfBytes": "32"
					},
					"t_struct(AllProject)48_storage": {
						"encoding": "inplace",
						"label": "struct Authentication.AllProject",
						"members": [
							{
								"astId": 39,
								"contract": "contracts/authentication.sol:Authentication",
								"label": "projectName",
								"offset": 0,
								"slot": "0",
								"type": "t_string_storage"
							},
							{
								"astId": 41,
								"contract": "contracts/authentication.sol:Authentication",
								"label": "description",
								"offset": 0,
								"slot": "1",
								"type": "t_string_storage"
							},
							{
								"astId": 43,
								"contract": "contracts/authentication.sol:Authentication",
								"label": "deadline",
								"offset": 0,
								"slot": "2",
								"type": "t_string_storage"
							},
							{
								"astId": 45,
								"contract": "contracts/authentication.sol:Authentication",
								"label": "amount",
								"offset": 0,
								"slot": "3",
								"type": "t_string_storage"
							},
							{
								"astId": 47,
								"contract": "contracts/authentication.sol:Authentication",
								"label": "userAddress",
								"offset": 0,
								"slot": "4",
								"type": "t_address"
							}
						],
						"numberOfBytes": "160"
					},
					"t_struct(Project)32_storage": {
						"encoding": "inplace",
						"label": "struct Authentication.Project",
						"members": [
							{
								"astId": 23,
								"contract": "contracts/authentication.sol:Authentication",
								"label": "projectName",
								"offset": 0,
								"slot": "0",
								"type": "t_string_storage"
							},
							{
								"astId": 25,
								"contract": "contracts/authentication.sol:Authentication",
								"label": "description",
								"offset": 0,
								"slot": "1",
								"type": "t_string_storage"
							},
							{
								"astId": 27,
								"contract": "contracts/authentication.sol:Authentication",
								"label": "deadline",
								"offset": 0,
								"slot": "2",
								"type": "t_string_storage"
							},
							{
								"astId": 29,
								"contract": "contracts/authentication.sol:Authentication",
								"label": "amount",
								"offset": 0,
								"slot": "3",
								"type": "t_string_storage"
							},
							{
								"astId": 31,
								"contract": "contracts/authentication.sol:Authentication",
								"label": "userAddress",
								"offset": 0,
								"slot": "4",
								"type": "t_address"
							}
						],
						"numberOfBytes": "160"
					},
					"t_struct(User)16_storage": {
						"encoding": "inplace",
						"label": "struct Authentication.User",
						"members": [
							{
								"astId": 5,
								"contract": "contracts/authentication.sol:Authentication",
								"label": "signatureHash",
								"offset": 0,
								"slot": "0",
								"type": "t_string_storage"
							},
							{
								"astId": 7,
								"contract": "contracts/authentication.sol:Authentication",
								"label": "email",
								"offset": 0,
								"slot": "1",
								"type": "t_string_storage"
							},
							{
								"astId": 9,
								"contract": "contracts/authentication.sol:Authentication",
								"label": "username",
								"offset": 0,
								"slot": "2",
								"type": "t_string_storage"
							},
							{
								"astId": 11,
								"contract": "contracts/authentication.sol:Authentication",
								"label": "password",
								"offset": 0,
								"slot": "3",
								"type": "t_string_storage"
							},
							{
								"astId": 13,
								"contract": "contracts/authentication.sol:Authentication",
								"label": "repeatPassword",
								"offset": 0,
								"slot": "4",
								"type": "t_string_storage"
							},
							{
								"astId": 15,
								"contract": "contracts/authentication.sol:Authentication",
								"label": "userAddress",
								"offset": 0,
								"slot": "5",
								"type": "t_address"
							}
						],
						"numberOfBytes": "192"
					},
					"t_uint256": {
						"encoding": "inplace",
						"label": "uint256",
						"numberOfBytes": "32"
					}
				}
			},
			"userdoc": {
				"kind": "user",
				"methods": {},
				"version": 1
			}
		}
	}
}