{
	"contracts/authentication.sol": {
		"Authentication": {
			"abi": [
				{
					"inputs": [],
					"stateMutability": "nonpayable",
					"type": "constructor"
				},
				{
					"inputs": [],
					"name": "getProjectDetails",
					"outputs": [
						{
							"internalType": "string",
							"name": "",
							"type": "string"
						}
					],
					"stateMutability": "view",
					"type": "function"
				},
				{
					"inputs": [],
					"name": "getSignatureHash",
					"outputs": [
						{
							"internalType": "string",
							"name": "",
							"type": "string"
						}
					],
					"stateMutability": "view",
					"type": "function"
				},
				{
					"inputs": [],
					"name": "getUserAddress",
					"outputs": [
						{
							"internalType": "address",
							"name": "",
							"type": "address"
						}
					],
					"stateMutability": "view",
					"type": "function"
				},
				{
					"inputs": [],
					"name": "getUsername",
					"outputs": [
						{
							"internalType": "string",
							"name": "",
							"type": "string"
						}
					],
					"stateMutability": "view",
					"type": "function"
				},
				{
					"inputs": [
						{
							"internalType": "string",
							"name": "username",
							"type": "string"
						},
						{
							"internalType": "string",
							"name": "password",
							"type": "string"
						}
					],
					"name": "login",
					"outputs": [
						{
							"internalType": "string",
							"name": "",
							"type": "string"
						}
					],
					"stateMutability": "nonpayable",
					"type": "function"
				},
				{
					"inputs": [],
					"name": "nbOfUsers",
					"outputs": [
						{
							"internalType": "uint256",
							"name": "",
							"type": "uint256"
						}
					],
					"stateMutability": "view",
					"type": "function"
				},
				{
					"inputs": [
						{
							"internalType": "uint256",
							"name": "",
							"type": "uint256"
						}
					],
					"name": "projects",
					"outputs": [
						{
							"internalType": "string",
							"name": "projectName",
							"type": "string"
						},
						{
							"internalType": "string",
							"name": "description",
							"type": "string"
						},
						{
							"internalType": "string",
							"name": "deadline",
							"type": "string"
						},
						{
							"internalType": "string",
							"name": "amount",
							"type": "string"
						},
						{
							"internalType": "address",
							"name": "userAddress",
							"type": "address"
						}
					],
					"stateMutability": "view",
					"type": "function"
				},
				{
					"inputs": [
						{
							"internalType": "string",
							"name": "_signature",
							"type": "string"
						},
						{
							"internalType": "string",
							"name": "email",
							"type": "string"
						},
						{
							"internalType": "string",
							"name": "username",
							"type": "string"
						},
						{
							"internalType": "string",
							"name": "password",
							"type": "string"
						},
						{
							"internalType": "string",
							"name": "repeatPassword",
							"type": "string"
						}
					],
					"name": "register",
					"outputs": [
						{
							"internalType": "string",
							"name": "",
							"type": "string"
						}
					],
					"stateMutability": "nonpayable",
					"type": "function"
				},
				{
					"inputs": [
						{
							"internalType": "string",
							"name": "projectName",
							"type": "string"
						},
						{
							"internalType": "string",
							"name": "description",
							"type": "string"
						},
						{
							"internalType": "string",
							"name": "deadline",
							"type": "string"
						},
						{
							"internalType": "string",
							"name": "amount",
							"type": "string"
						}
					],
					"name": "saveProject",
					"outputs": [
						{
							"internalType": "string",
							"name": "",
							"type": "string"
						}
					],
					"stateMutability": "nonpayable",
					"type": "function"
				}
			],
			"devdoc": {
				"kind": "dev",
				"methods": {},
				"version": 1
			},
			"evm": {
				"assembly": "    /* \"contracts/authentication.sol\":60:3476  contract Authentication {... */\n  mstore(0x40, 0x80)\n    /* \"contracts/authentication.sol\":684:730  constructor() {... */\n  callvalue\n  dup1\n  iszero\n  tag_1\n  jumpi\n  0x00\n  dup1\n  revert\ntag_1:\n  pop\n    /* \"contracts/authentication.sol\":721:722  0 */\n  0x00\n    /* \"contracts/authentication.sol\":709:718  nbOfUsers */\n  dup1\n    /* \"contracts/authentication.sol\":709:722  nbOfUsers = 0 */\n  dup2\n  swap1\n  sstore\n  pop\n    /* \"contracts/authentication.sol\":60:3476  contract Authentication {... */\n  dataSize(sub_0)\n  dup1\n  dataOffset(sub_0)\n  0x00\n  codecopy\n  0x00\n  return\nstop\n\nsub_0: assembly {\n        /* \"contracts/authentication.sol\":60:3476  contract Authentication {... */\n      mstore(0x40, 0x80)\n      callvalue\n      dup1\n      iszero\n      tag_1\n      jumpi\n      0x00\n      dup1\n      revert\n    tag_1:\n      pop\n      jumpi(tag_2, lt(calldatasize, 0x04))\n      shr(0xe0, calldataload(0x00))\n      dup1\n      0x681f3e6d\n      gt\n      tag_12\n      jumpi\n      dup1\n      0x681f3e6d\n      eq\n      tag_7\n      jumpi\n      dup1\n      0xb4bfc3a5\n      eq\n      tag_8\n      jumpi\n      dup1\n      0xc127ae41\n      eq\n      tag_9\n      jumpi\n      dup1\n      0xebc3eee8\n      eq\n      tag_10\n      jumpi\n      dup1\n      0xff3a9c7e\n      eq\n      tag_11\n      jumpi\n      jump(tag_2)\n    tag_12:\n      dup1\n      0x107046bd\n      eq\n      tag_3\n      jumpi\n      dup1\n      0x12679323\n      eq\n      tag_4\n      jumpi\n      dup1\n      0x58467dbc\n      eq\n      tag_5\n      jumpi\n      dup1\n      0x5a09007b\n      eq\n      tag_6\n      jumpi\n    tag_2:\n      0x00\n      dup1\n      revert\n        /* \"contracts/authentication.sol\":589:614  Project[] public projects */\n    tag_3:\n      tag_13\n      0x04\n      dup1\n      calldatasize\n      sub\n      dup2\n      add\n      swap1\n      tag_14\n      swap2\n      swap1\n      tag_15\n      jump\t// in\n    tag_14:\n      tag_16\n      jump\t// in\n    tag_13:\n      mload(0x40)\n      tag_17\n      swap6\n      swap5\n      swap4\n      swap3\n      swap2\n      swap1\n      tag_18\n      jump\t// in\n    tag_17:\n      mload(0x40)\n      dup1\n      swap2\n      sub\n      swap1\n      return\n        /* \"contracts/authentication.sol\":91:115  uint256 public nbOfUsers */\n    tag_4:\n      tag_19\n      tag_20\n      jump\t// in\n    tag_19:\n      mload(0x40)\n      tag_21\n      swap2\n      swap1\n      tag_22\n      jump\t// in\n    tag_21:\n      mload(0x40)\n      dup1\n      swap2\n      sub\n      swap1\n      return\n        /* \"contracts/authentication.sol\":2176:2684  function login(string memory username, string memory password) public returns(string memory) {... */\n    tag_5:\n      tag_23\n      0x04\n      dup1\n      calldatasize\n      sub\n      dup2\n      add\n      swap1\n      tag_24\n      swap2\n      swap1\n      tag_25\n      jump\t// in\n    tag_24:\n      tag_26\n      jump\t// in\n    tag_23:\n      mload(0x40)\n      tag_27\n      swap2\n      swap1\n      tag_28\n      jump\t// in\n    tag_27:\n      mload(0x40)\n      dup1\n      swap2\n      sub\n      swap1\n      return\n        /* \"contracts/authentication.sol\":738:1582  function register(string memory _signature, string memory email, string memory username, string memory password, string memory repeatPassword) public returns(string memory) {... */\n    tag_6:\n      tag_29\n      0x04\n      dup1\n      calldatasize\n      sub\n      dup2\n      add\n      swap1\n      tag_30\n      swap2\n      swap1\n      tag_31\n      jump\t// in\n    tag_30:\n      tag_32\n      jump\t// in\n    tag_29:\n      mload(0x40)\n      tag_33\n      swap2\n      swap1\n      tag_28\n      jump\t// in\n    tag_33:\n      mload(0x40)\n      dup1\n      swap2\n      sub\n      swap1\n      return\n        /* \"contracts/authentication.sol\":2056:2170  function getUsername() public view returns (string memory) {... */\n    tag_7:\n      tag_34\n      tag_35\n      jump\t// in\n    tag_34:\n      mload(0x40)\n      tag_36\n      swap2\n      swap1\n      tag_28\n      jump\t// in\n    tag_36:\n      mload(0x40)\n      dup1\n      swap2\n      sub\n      swap1\n      return\n        /* \"contracts/authentication.sol\":2715:3344  function saveProject(string memory projectName, string memory description, string memory deadline, string memory amount) public returns(string memory) {... */\n    tag_8:\n      tag_37\n      0x04\n      dup1\n      calldatasize\n      sub\n      dup2\n      add\n      swap1\n      tag_38\n      swap2\n      swap1\n      tag_39\n      jump\t// in\n    tag_38:\n      tag_40\n      jump\t// in\n    tag_37:\n      mload(0x40)\n      tag_41\n      swap2\n      swap1\n      tag_28\n      jump\t// in\n    tag_41:\n      mload(0x40)\n      dup1\n      swap2\n      sub\n      swap1\n      return\n        /* \"contracts/authentication.sol\":1590:1789  function getSignatureHash() public view returns (string memory) {... */\n    tag_9:\n      tag_42\n      tag_43\n      jump\t// in\n    tag_42:\n      mload(0x40)\n      tag_44\n      swap2\n      swap1\n      tag_28\n      jump\t// in\n    tag_44:\n      mload(0x40)\n      dup1\n      swap2\n      sub\n      swap1\n      return\n        /* \"contracts/authentication.sol\":1797:1909  function getUserAddress() public view returns (address) {... */\n    tag_10:\n      tag_45\n      tag_46\n      jump\t// in\n    tag_45:\n      mload(0x40)\n      tag_47\n      swap2\n      swap1\n      tag_48\n      jump\t// in\n    tag_47:\n      mload(0x40)\n      dup1\n      swap2\n      sub\n      swap1\n      return\n        /* \"contracts/authentication.sol\":3356:3464  function getProjectDetails() public view returns(string memory) {... */\n    tag_11:\n      tag_49\n      tag_50\n      jump\t// in\n    tag_49:\n      mload(0x40)\n      tag_51\n      swap2\n      swap1\n      tag_28\n      jump\t// in\n    tag_51:\n      mload(0x40)\n      dup1\n      swap2\n      sub\n      swap1\n      return\n        /* \"contracts/authentication.sol\":589:614  Project[] public projects */\n    tag_16:\n      0x03\n      dup2\n      dup2\n      sload\n      dup2\n      lt\n      tag_52\n      jumpi\n      0x00\n      dup1\n      revert\n    tag_52:\n      swap1\n      0x00\n      mstore\n      keccak256(0x00, 0x20)\n      swap1\n      0x05\n      mul\n      add\n      0x00\n      swap2\n      pop\n      swap1\n      pop\n      dup1\n      0x00\n      add\n      dup1\n      sload\n      tag_54\n      swap1\n      tag_55\n      jump\t// in\n    tag_54:\n      dup1\n      0x1f\n      add\n      0x20\n      dup1\n      swap2\n      div\n      mul\n      0x20\n      add\n      mload(0x40)\n      swap1\n      dup2\n      add\n      0x40\n      mstore\n      dup1\n      swap3\n      swap2\n      swap1\n      dup2\n      dup2\n      mstore\n      0x20\n      add\n      dup3\n      dup1\n      sload\n      tag_56\n      swap1\n      tag_55\n      jump\t// in\n    tag_56:\n      dup1\n      iszero\n      tag_57\n      jumpi\n      dup1\n      0x1f\n      lt\n      tag_58\n      jumpi\n      0x0100\n      dup1\n      dup4\n      sload\n      div\n      mul\n      dup4\n      mstore\n      swap2\n      0x20\n      add\n      swap2\n      jump(tag_57)\n    tag_58:\n      dup3\n      add\n      swap2\n      swap1\n      0x00\n      mstore\n      keccak256(0x00, 0x20)\n      swap1\n    tag_59:\n      dup2\n      sload\n      dup2\n      mstore\n      swap1\n      0x01\n      add\n      swap1\n      0x20\n      add\n      dup1\n      dup4\n      gt\n      tag_59\n      jumpi\n      dup3\n      swap1\n      sub\n      0x1f\n      and\n      dup3\n      add\n      swap2\n    tag_57:\n      pop\n      pop\n      pop\n      pop\n      pop\n      swap1\n      dup1\n      0x01\n      add\n      dup1\n      sload\n      tag_60\n      swap1\n      tag_55\n      jump\t// in\n    tag_60:\n      dup1\n      0x1f\n      add\n      0x20\n      dup1\n      swap2\n      div\n      mul\n      0x20\n      add\n      mload(0x40)\n      swap1\n      dup2\n      add\n      0x40\n      mstore\n      dup1\n      swap3\n      swap2\n      swap1\n      dup2\n      dup2\n      mstore\n      0x20\n      add\n      dup3\n      dup1\n      sload\n      tag_61\n      swap1\n      tag_55\n      jump\t// in\n    tag_61:\n      dup1\n      iszero\n      tag_62\n      jumpi\n      dup1\n      0x1f\n      lt\n      tag_63\n      jumpi\n      0x0100\n      dup1\n      dup4\n      sload\n      div\n      mul\n      dup4\n      mstore\n      swap2\n      0x20\n      add\n      swap2\n      jump(tag_62)\n    tag_63:\n      dup3\n      add\n      swap2\n      swap1\n      0x00\n      mstore\n      keccak256(0x00, 0x20)\n      swap1\n    tag_64:\n      dup2\n      sload\n      dup2\n      mstore\n      swap1\n      0x01\n      add\n      swap1\n      0x20\n      add\n      dup1\n      dup4\n      gt\n      tag_64\n      jumpi\n      dup3\n      swap1\n      sub\n      0x1f\n      and\n      dup3\n      add\n      swap2\n    tag_62:\n      pop\n      pop\n      pop\n      pop\n      pop\n      swap1\n      dup1\n      0x02\n      add\n      dup1\n      sload\n      tag_65\n      swap1\n      tag_55\n      jump\t// in\n    tag_65:\n      dup1\n      0x1f\n      add\n      0x20\n      dup1\n      swap2\n      div\n      mul\n      0x20\n      add\n      mload(0x40)\n      swap1\n      dup2\n      add\n      0x40\n      mstore\n      dup1\n      swap3\n      swap2\n      swap1\n      dup2\n      dup2\n      mstore\n      0x20\n      add\n      dup3\n      dup1\n      sload\n      tag_66\n      swap1\n      tag_55\n      jump\t// in\n    tag_66:\n      dup1\n      iszero\n      tag_67\n      jumpi\n      dup1\n      0x1f\n      lt\n      tag_68\n      jumpi\n      0x0100\n      dup1\n      dup4\n      sload\n      div\n      mul\n      dup4\n      mstore\n      swap2\n      0x20\n      add\n      swap2\n      jump(tag_67)\n    tag_68:\n      dup3\n      add\n      swap2\n      swap1\n      0x00\n      mstore\n      keccak256(0x00, 0x20)\n      swap1\n    tag_69:\n      dup2\n      sload\n      dup2\n      mstore\n      swap1\n      0x01\n      add\n      swap1\n      0x20\n      add\n      dup1\n      dup4\n      gt\n      tag_69\n      jumpi\n      dup3\n      swap1\n      sub\n      0x1f\n      and\n      dup3\n      add\n      swap2\n    tag_67:\n      pop\n      pop\n      pop\n      pop\n      pop\n      swap1\n      dup1\n      0x03\n      add\n      dup1\n      sload\n      tag_70\n      swap1\n      tag_55\n      jump\t// in\n    tag_70:\n      dup1\n      0x1f\n      add\n      0x20\n      dup1\n      swap2\n      div\n      mul\n      0x20\n      add\n      mload(0x40)\n      swap1\n      dup2\n      add\n      0x40\n      mstore\n      dup1\n      swap3\n      swap2\n      swap1\n      dup2\n      dup2\n      mstore\n      0x20\n      add\n      dup3\n      dup1\n      sload\n      tag_71\n      swap1\n      tag_55\n      jump\t// in\n    tag_71:\n      dup1\n      iszero\n      tag_72\n      jumpi\n      dup1\n      0x1f\n      lt\n      tag_73\n      jumpi\n      0x0100\n      dup1\n      dup4\n      sload\n      div\n      mul\n      dup4\n      mstore\n      swap2\n      0x20\n      add\n      swap2\n      jump(tag_72)\n    tag_73:\n      dup3\n      add\n      swap2\n      swap1\n      0x00\n      mstore\n      keccak256(0x00, 0x20)\n      swap1\n    tag_74:\n      dup2\n      sload\n      dup2\n      mstore\n      swap1\n      0x01\n      add\n      swap1\n      0x20\n      add\n      dup1\n      dup4\n      gt\n      tag_74\n      jumpi\n      dup3\n      swap1\n      sub\n      0x1f\n      and\n      dup3\n      add\n      swap2\n    tag_72:\n      pop\n      pop\n      pop\n      pop\n      pop\n      swap1\n      dup1\n      0x04\n      add\n      0x00\n      swap1\n      sload\n      swap1\n      0x0100\n      exp\n      swap1\n      div\n      0xffffffffffffffffffffffffffffffffffffffff\n      and\n      swap1\n      pop\n      dup6\n      jump\t// out\n        /* \"contracts/authentication.sol\":91:115  uint256 public nbOfUsers */\n    tag_20:\n      sload(0x00)\n      dup2\n      jump\t// out\n        /* \"contracts/authentication.sol\":2176:2684  function login(string memory username, string memory password) public returns(string memory) {... */\n    tag_26:\n        /* \"contracts/authentication.sol\":2254:2267  string memory */\n      0x60\n        /* \"contracts/authentication.sol\":2282:2305  string memory _username */\n      0x00\n        /* \"contracts/authentication.sol\":2307:2320  getUsername() */\n      tag_76\n        /* \"contracts/authentication.sol\":2307:2318  getUsername */\n      tag_35\n        /* \"contracts/authentication.sol\":2307:2320  getUsername() */\n      jump\t// in\n    tag_76:\n        /* \"contracts/authentication.sol\":2282:2320  string memory _username= getUsername() */\n      swap1\n      pop\n        /* \"contracts/authentication.sol\":2333:2356  string memory _password */\n      0x00\n        /* \"contracts/authentication.sol\":2358:2362  user */\n      0x01\n        /* \"contracts/authentication.sol\":2358:2374  user[msg.sender] */\n      0x00\n        /* \"contracts/authentication.sol\":2363:2373  msg.sender */\n      caller\n        /* \"contracts/authentication.sol\":2358:2374  user[msg.sender] */\n      0xffffffffffffffffffffffffffffffffffffffff\n      and\n      0xffffffffffffffffffffffffffffffffffffffff\n      and\n      dup2\n      mstore\n      0x20\n      add\n      swap1\n      dup2\n      mstore\n      0x20\n      add\n      0x00\n      keccak256\n        /* \"contracts/authentication.sol\":2358:2383  user[msg.sender].password */\n      0x03\n      add\n        /* \"contracts/authentication.sol\":2333:2383  string memory _password= user[msg.sender].password */\n      dup1\n      sload\n      tag_77\n      swap1\n      tag_55\n      jump\t// in\n    tag_77:\n      dup1\n      0x1f\n      add\n      0x20\n      dup1\n      swap2\n      div\n      mul\n      0x20\n      add\n      mload(0x40)\n      swap1\n      dup2\n      add\n      0x40\n      mstore\n      dup1\n      swap3\n      swap2\n      swap1\n      dup2\n      dup2\n      mstore\n      0x20\n      add\n      dup3\n      dup1\n      sload\n      tag_78\n      swap1\n      tag_55\n      jump\t// in\n    tag_78:\n      dup1\n      iszero\n      tag_79\n      jumpi\n      dup1\n      0x1f\n      lt\n      tag_80\n      jumpi\n      0x0100\n      dup1\n      dup4\n      sload\n      div\n      mul\n      dup4\n      mstore\n      swap2\n      0x20\n      add\n      swap2\n      jump(tag_79)\n    tag_80:\n      dup3\n      add\n      swap2\n      swap1\n      0x00\n      mstore\n      keccak256(0x00, 0x20)\n      swap1\n    tag_81:\n      dup2\n      sload\n      dup2\n      mstore\n      swap1\n      0x01\n      add\n      swap1\n      0x20\n      add\n      dup1\n      dup4\n      gt\n      tag_81\n      jumpi\n      dup3\n      swap1\n      sub\n      0x1f\n      and\n      dup3\n      add\n      swap2\n    tag_79:\n      pop\n      pop\n      pop\n      pop\n      pop\n      swap1\n      pop\n        /* \"contracts/authentication.sol\":2446:2454  username */\n      dup5\n        /* \"contracts/authentication.sol\":2430:2456  keccak256(bytes(username)) */\n      dup1\n      mload\n      swap1\n      0x20\n      add\n      keccak256\n        /* \"contracts/authentication.sol\":2415:2424  _username */\n      dup3\n        /* \"contracts/authentication.sol\":2399:2426  keccak256(bytes(_username)) */\n      dup1\n      mload\n      swap1\n      0x20\n      add\n      keccak256\n        /* \"contracts/authentication.sol\":2399:2456  keccak256(bytes(_username)) == keccak256(bytes(username)) */\n      eq\n        /* \"contracts/authentication.sol\":2399:2517  keccak256(bytes(_username)) == keccak256(bytes(username)) && keccak256(bytes(_password)) == keccak256(bytes(password)) */\n      dup1\n      iszero\n      tag_82\n      jumpi\n      pop\n        /* \"contracts/authentication.sol\":2507:2515  password */\n      dup4\n        /* \"contracts/authentication.sol\":2491:2517  keccak256(bytes(password)) */\n      dup1\n      mload\n      swap1\n      0x20\n      add\n      keccak256\n        /* \"contracts/authentication.sol\":2476:2485  _password */\n      dup2\n        /* \"contracts/authentication.sol\":2460:2487  keccak256(bytes(_password)) */\n      dup1\n      mload\n      swap1\n      0x20\n      add\n      keccak256\n        /* \"contracts/authentication.sol\":2460:2517  keccak256(bytes(_password)) == keccak256(bytes(password)) */\n      eq\n        /* \"contracts/authentication.sol\":2399:2517  keccak256(bytes(_username)) == keccak256(bytes(username)) && keccak256(bytes(_password)) == keccak256(bytes(password)) */\n    tag_82:\n        /* \"contracts/authentication.sol\":2396:2677  if(keccak256(bytes(_username)) == keccak256(bytes(username)) && keccak256(bytes(_password)) == keccak256(bytes(password)) ) {... */\n      iszero\n      tag_83\n      jumpi\n        /* \"contracts/authentication.sol\":2556:2564  username */\n      dup5\n        /* \"contracts/authentication.sol\":2549:2564  return username */\n      swap3\n      pop\n      pop\n      pop\n      jump(tag_75)\n        /* \"contracts/authentication.sol\":2396:2677  if(keccak256(bytes(_username)) == keccak256(bytes(username)) && keccak256(bytes(_password)) == keccak256(bytes(password)) ) {... */\n    tag_83:\n        /* \"contracts/authentication.sol\":2609:2665  return \"User doesnot exist !! Register and try again !!\" */\n      mload(0x40)\n      dup1\n      0x60\n      add\n      0x40\n      mstore\n      dup1\n      0x2f\n      dup2\n      mstore\n      0x20\n      add\n      data_f8cee5838de095b73bc0eb68505c82192a6e7ef8eb72dc52884288f7c470afa7\n      0x2f\n      swap2\n      codecopy\n      swap3\n      pop\n      pop\n      pop\n        /* \"contracts/authentication.sol\":2176:2684  function login(string memory username, string memory password) public returns(string memory) {... */\n    tag_75:\n      swap3\n      swap2\n      pop\n      pop\n      jump\t// out\n        /* \"contracts/authentication.sol\":738:1582  function register(string memory _signature, string memory email, string memory username, string memory password, string memory repeatPassword) public returns(string memory) {... */\n    tag_32:\n        /* \"contracts/authentication.sol\":896:909  string memory */\n      0x60\n        /* \"contracts/authentication.sol\":1106:1116  _signature */\n      dup6\n        /* \"contracts/authentication.sol\":1073:1077  user */\n      0x01\n        /* \"contracts/authentication.sol\":1073:1089  user[msg.sender] */\n      0x00\n        /* \"contracts/authentication.sol\":1078:1088  msg.sender */\n      caller\n        /* \"contracts/authentication.sol\":1073:1089  user[msg.sender] */\n      0xffffffffffffffffffffffffffffffffffffffff\n      and\n      0xffffffffffffffffffffffffffffffffffffffff\n      and\n      dup2\n      mstore\n      0x20\n      add\n      swap1\n      dup2\n      mstore\n      0x20\n      add\n      0x00\n      keccak256\n        /* \"contracts/authentication.sol\":1073:1103  user[msg.sender].signatureHash */\n      0x00\n      add\n        /* \"contracts/authentication.sol\":1073:1116  user[msg.sender].signatureHash = _signature */\n      swap1\n      dup1\n      mload\n      swap1\n      0x20\n      add\n      swap1\n      tag_86\n      swap3\n      swap2\n      swap1\n      tag_87\n      jump\t// in\n    tag_86:\n      pop\n        /* \"contracts/authentication.sol\":1152:1157  email */\n      dup5\n        /* \"contracts/authentication.sol\":1127:1131  user */\n      0x01\n        /* \"contracts/authentication.sol\":1127:1143  user[msg.sender] */\n      0x00\n        /* \"contracts/authentication.sol\":1132:1142  msg.sender */\n      caller\n        /* \"contracts/authentication.sol\":1127:1143  user[msg.sender] */\n      0xffffffffffffffffffffffffffffffffffffffff\n      and\n      0xffffffffffffffffffffffffffffffffffffffff\n      and\n      dup2\n      mstore\n      0x20\n      add\n      swap1\n      dup2\n      mstore\n      0x20\n      add\n      0x00\n      keccak256\n        /* \"contracts/authentication.sol\":1127:1149  user[msg.sender].email */\n      0x01\n      add\n        /* \"contracts/authentication.sol\":1127:1157  user[msg.sender].email = email */\n      swap1\n      dup1\n      mload\n      swap1\n      0x20\n      add\n      swap1\n      tag_88\n      swap3\n      swap2\n      swap1\n      tag_87\n      jump\t// in\n    tag_88:\n      pop\n        /* \"contracts/authentication.sol\":1199:1209  msg.sender */\n      caller\n        /* \"contracts/authentication.sol\":1168:1172  user */\n      0x01\n        /* \"contracts/authentication.sol\":1168:1184  user[msg.sender] */\n      0x00\n        /* \"contracts/authentication.sol\":1173:1183  msg.sender */\n      caller\n        /* \"contracts/authentication.sol\":1168:1184  user[msg.sender] */\n      0xffffffffffffffffffffffffffffffffffffffff\n      and\n      0xffffffffffffffffffffffffffffffffffffffff\n      and\n      dup2\n      mstore\n      0x20\n      add\n      swap1\n      dup2\n      mstore\n      0x20\n      add\n      0x00\n      keccak256\n        /* \"contracts/authentication.sol\":1168:1196  user[msg.sender].userAddress */\n      0x05\n      add\n      0x00\n        /* \"contracts/authentication.sol\":1168:1209  user[msg.sender].userAddress = msg.sender */\n      0x0100\n      exp\n      dup2\n      sload\n      dup2\n      0xffffffffffffffffffffffffffffffffffffffff\n      mul\n      not\n      and\n      swap1\n      dup4\n      0xffffffffffffffffffffffffffffffffffffffff\n      and\n      mul\n      or\n      swap1\n      sstore\n      pop\n        /* \"contracts/authentication.sol\":1248:1256  username */\n      dup4\n        /* \"contracts/authentication.sol\":1220:1224  user */\n      0x01\n        /* \"contracts/authentication.sol\":1220:1236  user[msg.sender] */\n      0x00\n        /* \"contracts/authentication.sol\":1225:1235  msg.sender */\n      caller\n        /* \"contracts/authentication.sol\":1220:1236  user[msg.sender] */\n      0xffffffffffffffffffffffffffffffffffffffff\n      and\n      0xffffffffffffffffffffffffffffffffffffffff\n      and\n      dup2\n      mstore\n      0x20\n      add\n      swap1\n      dup2\n      mstore\n      0x20\n      add\n      0x00\n      keccak256\n        /* \"contracts/authentication.sol\":1220:1245  user[msg.sender].username */\n      0x02\n      add\n        /* \"contracts/authentication.sol\":1220:1256  user[msg.sender].username = username */\n      swap1\n      dup1\n      mload\n      swap1\n      0x20\n      add\n      swap1\n      tag_89\n      swap3\n      swap2\n      swap1\n      tag_87\n      jump\t// in\n    tag_89:\n      pop\n        /* \"contracts/authentication.sol\":1295:1303  password */\n      dup3\n        /* \"contracts/authentication.sol\":1267:1271  user */\n      0x01\n        /* \"contracts/authentication.sol\":1267:1283  user[msg.sender] */\n      0x00\n        /* \"contracts/authentication.sol\":1272:1282  msg.sender */\n      caller\n        /* \"contracts/authentication.sol\":1267:1283  user[msg.sender] */\n      0xffffffffffffffffffffffffffffffffffffffff\n      and\n      0xffffffffffffffffffffffffffffffffffffffff\n      and\n      dup2\n      mstore\n      0x20\n      add\n      swap1\n      dup2\n      mstore\n      0x20\n      add\n      0x00\n      keccak256\n        /* \"contracts/authentication.sol\":1267:1292  user[msg.sender].password */\n      0x03\n      add\n        /* \"contracts/authentication.sol\":1267:1303  user[msg.sender].password = password */\n      swap1\n      dup1\n      mload\n      swap1\n      0x20\n      add\n      swap1\n      tag_90\n      swap3\n      swap2\n      swap1\n      tag_87\n      jump\t// in\n    tag_90:\n      pop\n        /* \"contracts/authentication.sol\":1348:1362  repeatPassword */\n      dup2\n        /* \"contracts/authentication.sol\":1314:1318  user */\n      0x01\n        /* \"contracts/authentication.sol\":1314:1330  user[msg.sender] */\n      0x00\n        /* \"contracts/authentication.sol\":1319:1329  msg.sender */\n      caller\n        /* \"contracts/authentication.sol\":1314:1330  user[msg.sender] */\n      0xffffffffffffffffffffffffffffffffffffffff\n      and\n      0xffffffffffffffffffffffffffffffffffffffff\n      and\n      dup2\n      mstore\n      0x20\n      add\n      swap1\n      dup2\n      mstore\n      0x20\n      add\n      0x00\n      keccak256\n        /* \"contracts/authentication.sol\":1314:1345  user[msg.sender].repeatPassword */\n      0x04\n      add\n        /* \"contracts/authentication.sol\":1314:1362  user[msg.sender].repeatPassword = repeatPassword */\n      swap1\n      dup1\n      mload\n      swap1\n      0x20\n      add\n      swap1\n      tag_91\n      swap3\n      swap2\n      swap1\n      tag_87\n      jump\t// in\n    tag_91:\n      pop\n        /* \"contracts/authentication.sol\":1373:1382  nbOfUsers */\n      0x00\n      dup1\n        /* \"contracts/authentication.sol\":1373:1384  nbOfUsers++ */\n      dup2\n      sload\n      dup1\n      swap3\n      swap2\n      swap1\n      tag_92\n      swap1\n      tag_93\n      jump\t// in\n    tag_92:\n      swap2\n      swap1\n      pop\n      sstore\n      pop\n        /* \"contracts/authentication.sol\":1542:1574  return \"Successfully Registered\" */\n      mload(0x40)\n      dup1\n      0x40\n      add\n      0x40\n      mstore\n      dup1\n      0x17\n      dup2\n      mstore\n      0x20\n      add\n      0x5375636365737366756c6c792052656769737465726564000000000000000000\n      dup2\n      mstore\n      pop\n      swap1\n      pop\n        /* \"contracts/authentication.sol\":738:1582  function register(string memory _signature, string memory email, string memory username, string memory password, string memory repeatPassword) public returns(string memory) {... */\n      swap6\n      swap5\n      pop\n      pop\n      pop\n      pop\n      pop\n      jump\t// out\n        /* \"contracts/authentication.sol\":2056:2170  function getUsername() public view returns (string memory) {... */\n    tag_35:\n        /* \"contracts/authentication.sol\":2100:2113  string memory */\n      0x60\n        /* \"contracts/authentication.sol\":2135:2139  user */\n      0x01\n        /* \"contracts/authentication.sol\":2135:2151  user[msg.sender] */\n      0x00\n        /* \"contracts/authentication.sol\":2140:2150  msg.sender */\n      caller\n        /* \"contracts/authentication.sol\":2135:2151  user[msg.sender] */\n      0xffffffffffffffffffffffffffffffffffffffff\n      and\n      0xffffffffffffffffffffffffffffffffffffffff\n      and\n      dup2\n      mstore\n      0x20\n      add\n      swap1\n      dup2\n      mstore\n      0x20\n      add\n      0x00\n      keccak256\n        /* \"contracts/authentication.sol\":2135:2160  user[msg.sender].username */\n      0x02\n      add\n        /* \"contracts/authentication.sol\":2128:2160  return user[msg.sender].username */\n      dup1\n      sload\n      tag_95\n      swap1\n      tag_55\n      jump\t// in\n    tag_95:\n      dup1\n      0x1f\n      add\n      0x20\n      dup1\n      swap2\n      div\n      mul\n      0x20\n      add\n      mload(0x40)\n      swap1\n      dup2\n      add\n      0x40\n      mstore\n      dup1\n      swap3\n      swap2\n      swap1\n      dup2\n      dup2\n      mstore\n      0x20\n      add\n      dup3\n      dup1\n      sload\n      tag_96\n      swap1\n      tag_55\n      jump\t// in\n    tag_96:\n      dup1\n      iszero\n      tag_97\n      jumpi\n      dup1\n      0x1f\n      lt\n      tag_98\n      jumpi\n      0x0100\n      dup1\n      dup4\n      sload\n      div\n      mul\n      dup4\n      mstore\n      swap2\n      0x20\n      add\n      swap2\n      jump(tag_97)\n    tag_98:\n      dup3\n      add\n      swap2\n      swap1\n      0x00\n      mstore\n      keccak256(0x00, 0x20)\n      swap1\n    tag_99:\n      dup2\n      sload\n      dup2\n      mstore\n      swap1\n      0x01\n      add\n      swap1\n      0x20\n      add\n      dup1\n      dup4\n      gt\n      tag_99\n      jumpi\n      dup3\n      swap1\n      sub\n      0x1f\n      and\n      dup3\n      add\n      swap2\n    tag_97:\n      pop\n      pop\n      pop\n      pop\n      pop\n      swap1\n      pop\n        /* \"contracts/authentication.sol\":2056:2170  function getUsername() public view returns (string memory) {... */\n      swap1\n      jump\t// out\n        /* \"contracts/authentication.sol\":2715:3344  function saveProject(string memory projectName, string memory description, string memory deadline, string memory amount) public returns(string memory) {... */\n    tag_40:\n        /* \"contracts/authentication.sol\":2851:2864  string memory */\n      0x60\n        /* \"contracts/authentication.sol\":2913:2914  0 */\n      0x00\n        /* \"contracts/authentication.sol\":2890:2903  getUsername() */\n      tag_101\n        /* \"contracts/authentication.sol\":2890:2901  getUsername */\n      tag_35\n        /* \"contracts/authentication.sol\":2890:2903  getUsername() */\n      jump\t// in\n    tag_101:\n        /* \"contracts/authentication.sol\":2884:2911  bytes(getUsername()).length */\n      mload\n        /* \"contracts/authentication.sol\":2884:2914  bytes(getUsername()).length!=0 */\n      eq\n        /* \"contracts/authentication.sol\":2881:3335  if(bytes(getUsername()).length!=0) {... */\n      tag_102\n      jumpi\n        /* \"contracts/authentication.sol\":2961:2972  projectName */\n      dup5\n        /* \"contracts/authentication.sol\":2927:2934  project */\n      0x02\n        /* \"contracts/authentication.sol\":2927:2946  project[msg.sender] */\n      0x00\n        /* \"contracts/authentication.sol\":2935:2945  msg.sender */\n      caller\n        /* \"contracts/authentication.sol\":2927:2946  project[msg.sender] */\n      0xffffffffffffffffffffffffffffffffffffffff\n      and\n      0xffffffffffffffffffffffffffffffffffffffff\n      and\n      dup2\n      mstore\n      0x20\n      add\n      swap1\n      dup2\n      mstore\n      0x20\n      add\n      0x00\n      keccak256\n        /* \"contracts/authentication.sol\":2927:2958  project[msg.sender].projectName */\n      0x00\n      add\n        /* \"contracts/authentication.sol\":2927:2972  project[msg.sender].projectName = projectName */\n      swap1\n      dup1\n      mload\n      swap1\n      0x20\n      add\n      swap1\n      tag_103\n      swap3\n      swap2\n      swap1\n      tag_87\n      jump\t// in\n    tag_103:\n      pop\n        /* \"contracts/authentication.sol\":3017:3028  description */\n      dup4\n        /* \"contracts/authentication.sol\":2983:2990  project */\n      0x02\n        /* \"contracts/authentication.sol\":2983:3002  project[msg.sender] */\n      0x00\n        /* \"contracts/authentication.sol\":2991:3001  msg.sender */\n      caller\n        /* \"contracts/authentication.sol\":2983:3002  project[msg.sender] */\n      0xffffffffffffffffffffffffffffffffffffffff\n      and\n      0xffffffffffffffffffffffffffffffffffffffff\n      and\n      dup2\n      mstore\n      0x20\n      add\n      swap1\n      dup2\n      mstore\n      0x20\n      add\n      0x00\n      keccak256\n        /* \"contracts/authentication.sol\":2983:3014  project[msg.sender].description */\n      0x01\n      add\n        /* \"contracts/authentication.sol\":2983:3028  project[msg.sender].description = description */\n      swap1\n      dup1\n      mload\n      swap1\n      0x20\n      add\n      swap1\n      tag_104\n      swap3\n      swap2\n      swap1\n      tag_87\n      jump\t// in\n    tag_104:\n      pop\n        /* \"contracts/authentication.sol\":3070:3078  deadline */\n      dup3\n        /* \"contracts/authentication.sol\":3039:3046  project */\n      0x02\n        /* \"contracts/authentication.sol\":3039:3058  project[msg.sender] */\n      0x00\n        /* \"contracts/authentication.sol\":3047:3057  msg.sender */\n      caller\n        /* \"contracts/authentication.sol\":3039:3058  project[msg.sender] */\n      0xffffffffffffffffffffffffffffffffffffffff\n      and\n      0xffffffffffffffffffffffffffffffffffffffff\n      and\n      dup2\n      mstore\n      0x20\n      add\n      swap1\n      dup2\n      mstore\n      0x20\n      add\n      0x00\n      keccak256\n        /* \"contracts/authentication.sol\":3039:3067  project[msg.sender].deadline */\n      0x02\n      add\n        /* \"contracts/authentication.sol\":3039:3078  project[msg.sender].deadline = deadline */\n      swap1\n      dup1\n      mload\n      swap1\n      0x20\n      add\n      swap1\n      tag_105\n      swap3\n      swap2\n      swap1\n      tag_87\n      jump\t// in\n    tag_105:\n      pop\n        /* \"contracts/authentication.sol\":3118:3124  amount */\n      dup2\n        /* \"contracts/authentication.sol\":3089:3096  project */\n      0x02\n        /* \"contracts/authentication.sol\":3089:3108  project[msg.sender] */\n      0x00\n        /* \"contracts/authentication.sol\":3097:3107  msg.sender */\n      caller\n        /* \"contracts/authentication.sol\":3089:3108  project[msg.sender] */\n      0xffffffffffffffffffffffffffffffffffffffff\n      and\n      0xffffffffffffffffffffffffffffffffffffffff\n      and\n      dup2\n      mstore\n      0x20\n      add\n      swap1\n      dup2\n      mstore\n      0x20\n      add\n      0x00\n      keccak256\n        /* \"contracts/authentication.sol\":3089:3115  project[msg.sender].amount */\n      0x03\n      add\n        /* \"contracts/authentication.sol\":3089:3124  project[msg.sender].amount = amount */\n      swap1\n      dup1\n      mload\n      swap1\n      0x20\n      add\n      swap1\n      tag_106\n      swap3\n      swap2\n      swap1\n      tag_87\n      jump\t// in\n    tag_106:\n      pop\n        /* \"contracts/authentication.sol\":3168:3178  msg.sender */\n      caller\n        /* \"contracts/authentication.sol\":3135:3142  project */\n      0x02\n        /* \"contracts/authentication.sol\":3135:3154  project[msg.sender] */\n      0x00\n        /* \"contracts/authentication.sol\":3143:3153  msg.sender */\n      caller\n        /* \"contracts/authentication.sol\":3135:3154  project[msg.sender] */\n      0xffffffffffffffffffffffffffffffffffffffff\n      and\n      0xffffffffffffffffffffffffffffffffffffffff\n      and\n      dup2\n      mstore\n      0x20\n      add\n      swap1\n      dup2\n      mstore\n      0x20\n      add\n      0x00\n      keccak256\n        /* \"contracts/authentication.sol\":3135:3166  project[msg.sender].userAddress */\n      0x04\n      add\n      0x00\n        /* \"contracts/authentication.sol\":3135:3178  project[msg.sender].userAddress= msg.sender */\n      0x0100\n      exp\n      dup2\n      sload\n      dup2\n      0xffffffffffffffffffffffffffffffffffffffff\n      mul\n      not\n      and\n      swap1\n      dup4\n      0xffffffffffffffffffffffffffffffffffffffff\n      and\n      mul\n      or\n      swap1\n      sstore\n      pop\n        /* \"contracts/authentication.sol\":3189:3197  projects */\n      0x03\n        /* \"contracts/authentication.sol\":3204:3211  project */\n      0x02\n        /* \"contracts/authentication.sol\":3204:3223  project[msg.sender] */\n      0x00\n        /* \"contracts/authentication.sol\":3212:3222  msg.sender */\n      caller\n        /* \"contracts/authentication.sol\":3204:3223  project[msg.sender] */\n      0xffffffffffffffffffffffffffffffffffffffff\n      and\n      0xffffffffffffffffffffffffffffffffffffffff\n      and\n      dup2\n      mstore\n      0x20\n      add\n      swap1\n      dup2\n      mstore\n      0x20\n      add\n      0x00\n      keccak256\n        /* \"contracts/authentication.sol\":3189:3224  projects.push( project[msg.sender]) */\n      swap1\n      dup1\n      0x01\n      dup2\n      sload\n      add\n      dup1\n      dup3\n      sstore\n      dup1\n      swap2\n      pop\n      pop\n      0x01\n      swap1\n      sub\n      swap1\n      0x00\n      mstore\n      keccak256(0x00, 0x20)\n      swap1\n      0x05\n      mul\n      add\n      0x00\n      swap1\n      swap2\n      swap1\n      swap2\n      swap1\n      swap2\n      pop\n      0x00\n      dup3\n      add\n      dup2\n      0x00\n      add\n      swap1\n      dup1\n      sload\n      tag_108\n      swap1\n      tag_55\n      jump\t// in\n    tag_108:\n      tag_109\n      swap3\n      swap2\n      swap1\n      tag_110\n      jump\t// in\n    tag_109:\n      pop\n      0x01\n      dup3\n      add\n      dup2\n      0x01\n      add\n      swap1\n      dup1\n      sload\n      tag_111\n      swap1\n      tag_55\n      jump\t// in\n    tag_111:\n      tag_112\n      swap3\n      swap2\n      swap1\n      tag_110\n      jump\t// in\n    tag_112:\n      pop\n      0x02\n      dup3\n      add\n      dup2\n      0x02\n      add\n      swap1\n      dup1\n      sload\n      tag_113\n      swap1\n      tag_55\n      jump\t// in\n    tag_113:\n      tag_114\n      swap3\n      swap2\n      swap1\n      tag_110\n      jump\t// in\n    tag_114:\n      pop\n      0x03\n      dup3\n      add\n      dup2\n      0x03\n      add\n      swap1\n      dup1\n      sload\n      tag_115\n      swap1\n      tag_55\n      jump\t// in\n    tag_115:\n      tag_116\n      swap3\n      swap2\n      swap1\n      tag_110\n      jump\t// in\n    tag_116:\n      pop\n      0x04\n      dup3\n      add\n      0x00\n      swap1\n      sload\n      swap1\n      0x0100\n      exp\n      swap1\n      div\n      0xffffffffffffffffffffffffffffffffffffffff\n      and\n      dup2\n      0x04\n      add\n      exp(0x0100, 0x00)\n      dup2\n      sload\n      dup2\n      0xffffffffffffffffffffffffffffffffffffffff\n      mul\n      not\n      and\n      swap1\n      dup4\n      0xffffffffffffffffffffffffffffffffffffffff\n      and\n      mul\n      or\n      swap1\n      sstore\n      pop\n      pop\n      pop\n        /* \"contracts/authentication.sol\":3235:3270  return \"Project Saved Successfully\" */\n      mload(0x40)\n      dup1\n      0x40\n      add\n      0x40\n      mstore\n      dup1\n      0x1a\n      dup2\n      mstore\n      0x20\n      add\n      0x50726f6a656374205361766564205375636365737366756c6c79000000000000\n      dup2\n      mstore\n      pop\n      swap1\n      pop\n      jump(tag_100)\n        /* \"contracts/authentication.sol\":2881:3335  if(bytes(getUsername()).length!=0) {... */\n    tag_102:\n        /* \"contracts/authentication.sol\":3297:3326  return \"Error Saving Project\" */\n      mload(0x40)\n      dup1\n      0x40\n      add\n      0x40\n      mstore\n      dup1\n      0x14\n      dup2\n      mstore\n      0x20\n      add\n      0x4572726f7220536176696e672050726f6a656374000000000000000000000000\n      dup2\n      mstore\n      pop\n      swap1\n      pop\n        /* \"contracts/authentication.sol\":2715:3344  function saveProject(string memory projectName, string memory description, string memory deadline, string memory amount) public returns(string memory) {... */\n    tag_100:\n      swap5\n      swap4\n      pop\n      pop\n      pop\n      pop\n      jump\t// out\n        /* \"contracts/authentication.sol\":1590:1789  function getSignatureHash() public view returns (string memory) {... */\n    tag_43:\n        /* \"contracts/authentication.sol\":1639:1652  string memory */\n      0x60\n        /* \"contracts/authentication.sol\":1687:1691  user */\n      0x01\n        /* \"contracts/authentication.sol\":1687:1703  user[msg.sender] */\n      0x00\n        /* \"contracts/authentication.sol\":1692:1702  msg.sender */\n      caller\n        /* \"contracts/authentication.sol\":1687:1703  user[msg.sender] */\n      0xffffffffffffffffffffffffffffffffffffffff\n      and\n      0xffffffffffffffffffffffffffffffffffffffff\n      and\n      dup2\n      mstore\n      0x20\n      add\n      swap1\n      dup2\n      mstore\n      0x20\n      add\n      0x00\n      keccak256\n        /* \"contracts/authentication.sol\":1687:1715  user[msg.sender].userAddress */\n      0x05\n      add\n      0x00\n      swap1\n      sload\n      swap1\n      0x0100\n      exp\n      swap1\n      div\n      0xffffffffffffffffffffffffffffffffffffffff\n      and\n        /* \"contracts/authentication.sol\":1673:1715  msg.sender == user[msg.sender].userAddress */\n      0xffffffffffffffffffffffffffffffffffffffff\n      and\n        /* \"contracts/authentication.sol\":1673:1683  msg.sender */\n      caller\n        /* \"contracts/authentication.sol\":1673:1715  msg.sender == user[msg.sender].userAddress */\n      0xffffffffffffffffffffffffffffffffffffffff\n      and\n      eq\n        /* \"contracts/authentication.sol\":1665:1731  require(msg.sender == user[msg.sender].userAddress, \"Not allowed\") */\n      tag_119\n      jumpi\n      mload(0x40)\n      0x08c379a000000000000000000000000000000000000000000000000000000000\n      dup2\n      mstore\n      0x04\n      add\n      tag_120\n      swap1\n      tag_121\n      jump\t// in\n    tag_120:\n      mload(0x40)\n      dup1\n      swap2\n      sub\n      swap1\n      revert\n    tag_119:\n        /* \"contracts/authentication.sol\":1751:1755  user */\n      0x01\n        /* \"contracts/authentication.sol\":1751:1767  user[msg.sender] */\n      0x00\n        /* \"contracts/authentication.sol\":1756:1766  msg.sender */\n      caller\n        /* \"contracts/authentication.sol\":1751:1767  user[msg.sender] */\n      0xffffffffffffffffffffffffffffffffffffffff\n      and\n      0xffffffffffffffffffffffffffffffffffffffff\n      and\n      dup2\n      mstore\n      0x20\n      add\n      swap1\n      dup2\n      mstore\n      0x20\n      add\n      0x00\n      keccak256\n        /* \"contracts/authentication.sol\":1751:1781  user[msg.sender].signatureHash */\n      0x00\n      add\n        /* \"contracts/authentication.sol\":1744:1781  return user[msg.sender].signatureHash */\n      dup1\n      sload\n      tag_122\n      swap1\n      tag_55\n      jump\t// in\n    tag_122:\n      dup1\n      0x1f\n      add\n      0x20\n      dup1\n      swap2\n      div\n      mul\n      0x20\n      add\n      mload(0x40)\n      swap1\n      dup2\n      add\n      0x40\n      mstore\n      dup1\n      swap3\n      swap2\n      swap1\n      dup2\n      dup2\n      mstore\n      0x20\n      add\n      dup3\n      dup1\n      sload\n      tag_123\n      swap1\n      tag_55\n      jump\t// in\n    tag_123:\n      dup1\n      iszero\n      tag_124\n      jumpi\n      dup1\n      0x1f\n      lt\n      tag_125\n      jumpi\n      0x0100\n      dup1\n      dup4\n      sload\n      div\n      mul\n      dup4\n      mstore\n      swap2\n      0x20\n      add\n      swap2\n      jump(tag_124)\n    tag_125:\n      dup3\n      add\n      swap2\n      swap1\n      0x00\n      mstore\n      keccak256(0x00, 0x20)\n      swap1\n    tag_126:\n      dup2\n      sload\n      dup2\n      mstore\n      swap1\n      0x01\n      add\n      swap1\n      0x20\n      add\n      dup1\n      dup4\n      gt\n      tag_126\n      jumpi\n      dup3\n      swap1\n      sub\n      0x1f\n      and\n      dup3\n      add\n      swap2\n    tag_124:\n      pop\n      pop\n      pop\n      pop\n      pop\n      swap1\n      pop\n        /* \"contracts/authentication.sol\":1590:1789  function getSignatureHash() public view returns (string memory) {... */\n      swap1\n      jump\t// out\n        /* \"contracts/authentication.sol\":1797:1909  function getUserAddress() public view returns (address) {... */\n    tag_46:\n        /* \"contracts/authentication.sol\":1844:1851  address */\n      0x00\n        /* \"contracts/authentication.sol\":1873:1877  user */\n      0x01\n        /* \"contracts/authentication.sol\":1873:1889  user[msg.sender] */\n      0x00\n        /* \"contracts/authentication.sol\":1878:1888  msg.sender */\n      caller\n        /* \"contracts/authentication.sol\":1873:1889  user[msg.sender] */\n      0xffffffffffffffffffffffffffffffffffffffff\n      and\n      0xffffffffffffffffffffffffffffffffffffffff\n      and\n      dup2\n      mstore\n      0x20\n      add\n      swap1\n      dup2\n      mstore\n      0x20\n      add\n      0x00\n      keccak256\n        /* \"contracts/authentication.sol\":1873:1901  user[msg.sender].userAddress */\n      0x05\n      add\n      0x00\n      swap1\n      sload\n      swap1\n      0x0100\n      exp\n      swap1\n      div\n      0xffffffffffffffffffffffffffffffffffffffff\n      and\n        /* \"contracts/authentication.sol\":1866:1901  return user[msg.sender].userAddress */\n      swap1\n      pop\n        /* \"contracts/authentication.sol\":1797:1909  function getUserAddress() public view returns (address) {... */\n      swap1\n      jump\t// out\n        /* \"contracts/authentication.sol\":3356:3464  function getProjectDetails() public view returns(string memory) {... */\n    tag_50:\n        /* \"contracts/authentication.sol\":3405:3418  string memory */\n      0x60\n        /* \"contracts/authentication.sol\":3439:3456  return \"projects\" */\n      mload(0x40)\n      dup1\n      0x40\n      add\n      0x40\n      mstore\n      dup1\n      0x08\n      dup2\n      mstore\n      0x20\n      add\n      0x70726f6a65637473000000000000000000000000000000000000000000000000\n      dup2\n      mstore\n      pop\n      swap1\n      pop\n        /* \"contracts/authentication.sol\":3356:3464  function getProjectDetails() public view returns(string memory) {... */\n      swap1\n      jump\t// out\n    tag_87:\n      dup3\n      dup1\n      sload\n      tag_129\n      swap1\n      tag_55\n      jump\t// in\n    tag_129:\n      swap1\n      0x00\n      mstore\n      keccak256(0x00, 0x20)\n      swap1\n      0x1f\n      add\n      0x20\n      swap1\n      div\n      dup2\n      add\n      swap3\n      dup3\n      tag_131\n      jumpi\n      0x00\n      dup6\n      sstore\n      jump(tag_130)\n    tag_131:\n      dup3\n      0x1f\n      lt\n      tag_132\n      jumpi\n      dup1\n      mload\n      not(0xff)\n      and\n      dup4\n      dup1\n      add\n      or\n      dup6\n      sstore\n      jump(tag_130)\n    tag_132:\n      dup3\n      dup1\n      add\n      0x01\n      add\n      dup6\n      sstore\n      dup3\n      iszero\n      tag_130\n      jumpi\n      swap2\n      dup3\n      add\n    tag_133:\n      dup3\n      dup2\n      gt\n      iszero\n      tag_134\n      jumpi\n      dup3\n      mload\n      dup3\n      sstore\n      swap2\n      0x20\n      add\n      swap2\n      swap1\n      0x01\n      add\n      swap1\n      jump(tag_133)\n    tag_134:\n    tag_130:\n      pop\n      swap1\n      pop\n      tag_135\n      swap2\n      swap1\n      tag_136\n      jump\t// in\n    tag_135:\n      pop\n      swap1\n      jump\t// out\n    tag_110:\n      dup3\n      dup1\n      sload\n      tag_137\n      swap1\n      tag_55\n      jump\t// in\n    tag_137:\n      swap1\n      0x00\n      mstore\n      keccak256(0x00, 0x20)\n      swap1\n      0x1f\n      add\n      0x20\n      swap1\n      div\n      dup2\n      add\n      swap3\n      dup3\n      tag_139\n      jumpi\n      0x00\n      dup6\n      sstore\n      jump(tag_138)\n    tag_139:\n      dup3\n      0x1f\n      lt\n      tag_140\n      jumpi\n      dup1\n      sload\n      dup6\n      sstore\n      jump(tag_138)\n    tag_140:\n      dup3\n      dup1\n      add\n      0x01\n      add\n      dup6\n      sstore\n      dup3\n      iszero\n      tag_138\n      jumpi\n      0x00\n      mstore\n      keccak256(0x00, 0x20)\n      swap2\n      0x1f\n      add\n      0x20\n      swap1\n      div\n      dup3\n      add\n    tag_141:\n      dup3\n      dup2\n      gt\n      iszero\n      tag_142\n      jumpi\n      dup3\n      sload\n      dup3\n      sstore\n      swap2\n      0x01\n      add\n      swap2\n      swap1\n      0x01\n      add\n      swap1\n      jump(tag_141)\n    tag_142:\n    tag_138:\n      pop\n      swap1\n      pop\n      tag_143\n      swap2\n      swap1\n      tag_136\n      jump\t// in\n    tag_143:\n      pop\n      swap1\n      jump\t// out\n    tag_136:\n    tag_144:\n      dup1\n      dup3\n      gt\n      iszero\n      tag_145\n      jumpi\n      0x00\n      dup2\n      0x00\n      swap1\n      sstore\n      pop\n      0x01\n      add\n      jump(tag_144)\n    tag_145:\n      pop\n      swap1\n      jump\t// out\n        /* \"#utility.yul\":7:82   */\n    tag_146:\n        /* \"#utility.yul\":40:46   */\n      0x00\n        /* \"#utility.yul\":73:75   */\n      0x40\n        /* \"#utility.yul\":67:76   */\n      mload\n        /* \"#utility.yul\":57:76   */\n      swap1\n      pop\n        /* \"#utility.yul\":7:82   */\n      swap1\n      jump\t// out\n        /* \"#utility.yul\":88:205   */\n    tag_147:\n        /* \"#utility.yul\":197:198   */\n      0x00\n        /* \"#utility.yul\":194:195   */\n      dup1\n        /* \"#utility.yul\":187:199   */\n      revert\n        /* \"#utility.yul\":211:328   */\n    tag_148:\n        /* \"#utility.yul\":320:321   */\n      0x00\n        /* \"#utility.yul\":317:318   */\n      dup1\n        /* \"#utility.yul\":310:322   */\n      revert\n        /* \"#utility.yul\":334:411   */\n    tag_149:\n        /* \"#utility.yul\":371:378   */\n      0x00\n        /* \"#utility.yul\":400:405   */\n      dup2\n        /* \"#utility.yul\":389:405   */\n      swap1\n      pop\n        /* \"#utility.yul\":334:411   */\n      swap2\n      swap1\n      pop\n      jump\t// out\n        /* \"#utility.yul\":417:539   */\n    tag_150:\n        /* \"#utility.yul\":490:514   */\n      tag_180\n        /* \"#utility.yul\":508:513   */\n      dup2\n        /* \"#utility.yul\":490:514   */\n      tag_149\n      jump\t// in\n    tag_180:\n        /* \"#utility.yul\":483:488   */\n      dup2\n        /* \"#utility.yul\":480:515   */\n      eq\n        /* \"#utility.yul\":470:533   */\n      tag_181\n      jumpi\n        /* \"#utility.yul\":529:530   */\n      0x00\n        /* \"#utility.yul\":526:527   */\n      dup1\n        /* \"#utility.yul\":519:531   */\n      revert\n        /* \"#utility.yul\":470:533   */\n    tag_181:\n        /* \"#utility.yul\":417:539   */\n      pop\n      jump\t// out\n        /* \"#utility.yul\":545:684   */\n    tag_151:\n        /* \"#utility.yul\":591:596   */\n      0x00\n        /* \"#utility.yul\":629:635   */\n      dup2\n        /* \"#utility.yul\":616:636   */\n      calldataload\n        /* \"#utility.yul\":607:636   */\n      swap1\n      pop\n        /* \"#utility.yul\":645:678   */\n      tag_183\n        /* \"#utility.yul\":672:677   */\n      dup2\n        /* \"#utility.yul\":645:678   */\n      tag_150\n      jump\t// in\n    tag_183:\n        /* \"#utility.yul\":545:684   */\n      swap3\n      swap2\n      pop\n      pop\n      jump\t// out\n        /* \"#utility.yul\":690:1019   */\n    tag_15:\n        /* \"#utility.yul\":749:755   */\n      0x00\n        /* \"#utility.yul\":798:800   */\n      0x20\n        /* \"#utility.yul\":786:795   */\n      dup3\n        /* \"#utility.yul\":777:784   */\n      dup5\n        /* \"#utility.yul\":773:796   */\n      sub\n        /* \"#utility.yul\":769:801   */\n      slt\n        /* \"#utility.yul\":766:885   */\n      iszero\n      tag_185\n      jumpi\n        /* \"#utility.yul\":804:883   */\n      tag_186\n      tag_147\n      jump\t// in\n    tag_186:\n        /* \"#utility.yul\":766:885   */\n    tag_185:\n        /* \"#utility.yul\":924:925   */\n      0x00\n        /* \"#utility.yul\":949:1002   */\n      tag_187\n        /* \"#utility.yul\":994:1001   */\n      dup5\n        /* \"#utility.yul\":985:991   */\n      dup3\n        /* \"#utility.yul\":974:983   */\n      dup6\n        /* \"#utility.yul\":970:992   */\n      add\n        /* \"#utility.yul\":949:1002   */\n      tag_151\n      jump\t// in\n    tag_187:\n        /* \"#utility.yul\":939:1002   */\n      swap2\n      pop\n        /* \"#utility.yul\":895:1012   */\n      pop\n        /* \"#utility.yul\":690:1019   */\n      swap3\n      swap2\n      pop\n      pop\n      jump\t// out\n        /* \"#utility.yul\":1025:1124   */\n    tag_152:\n        /* \"#utility.yul\":1077:1083   */\n      0x00\n        /* \"#utility.yul\":1111:1116   */\n      dup2\n        /* \"#utility.yul\":1105:1117   */\n      mload\n        /* \"#utility.yul\":1095:1117   */\n      swap1\n      pop\n        /* \"#utility.yul\":1025:1124   */\n      swap2\n      swap1\n      pop\n      jump\t// out\n        /* \"#utility.yul\":1130:1299   */\n    tag_153:\n        /* \"#utility.yul\":1214:1225   */\n      0x00\n        /* \"#utility.yul\":1248:1254   */\n      dup3\n        /* \"#utility.yul\":1243:1246   */\n      dup3\n        /* \"#utility.yul\":1236:1255   */\n      mstore\n        /* \"#utility.yul\":1288:1292   */\n      0x20\n        /* \"#utility.yul\":1283:1286   */\n      dup3\n        /* \"#utility.yul\":1279:1293   */\n      add\n        /* \"#utility.yul\":1264:1293   */\n      swap1\n      pop\n        /* \"#utility.yul\":1130:1299   */\n      swap3\n      swap2\n      pop\n      pop\n      jump\t// out\n        /* \"#utility.yul\":1305:1612   */\n    tag_154:\n        /* \"#utility.yul\":1373:1374   */\n      0x00\n        /* \"#utility.yul\":1383:1496   */\n    tag_191:\n        /* \"#utility.yul\":1397:1403   */\n      dup4\n        /* \"#utility.yul\":1394:1395   */\n      dup2\n        /* \"#utility.yul\":1391:1404   */\n      lt\n        /* \"#utility.yul\":1383:1496   */\n      iszero\n      tag_193\n      jumpi\n        /* \"#utility.yul\":1482:1483   */\n      dup1\n        /* \"#utility.yul\":1477:1480   */\n      dup3\n        /* \"#utility.yul\":1473:1484   */\n      add\n        /* \"#utility.yul\":1467:1485   */\n      mload\n        /* \"#utility.yul\":1463:1464   */\n      dup2\n        /* \"#utility.yul\":1458:1461   */\n      dup5\n        /* \"#utility.yul\":1454:1465   */\n      add\n        /* \"#utility.yul\":1447:1486   */\n      mstore\n        /* \"#utility.yul\":1419:1421   */\n      0x20\n        /* \"#utility.yul\":1416:1417   */\n      dup2\n        /* \"#utility.yul\":1412:1422   */\n      add\n        /* \"#utility.yul\":1407:1422   */\n      swap1\n      pop\n        /* \"#utility.yul\":1383:1496   */\n      jump(tag_191)\n    tag_193:\n        /* \"#utility.yul\":1514:1520   */\n      dup4\n        /* \"#utility.yul\":1511:1512   */\n      dup2\n        /* \"#utility.yul\":1508:1521   */\n      gt\n        /* \"#utility.yul\":1505:1606   */\n      iszero\n      tag_194\n      jumpi\n        /* \"#utility.yul\":1594:1595   */\n      0x00\n        /* \"#utility.yul\":1585:1591   */\n      dup5\n        /* \"#utility.yul\":1580:1583   */\n      dup5\n        /* \"#utility.yul\":1576:1592   */\n      add\n        /* \"#utility.yul\":1569:1596   */\n      mstore\n        /* \"#utility.yul\":1505:1606   */\n    tag_194:\n        /* \"#utility.yul\":1354:1612   */\n      pop\n        /* \"#utility.yul\":1305:1612   */\n      pop\n      pop\n      pop\n      jump\t// out\n        /* \"#utility.yul\":1618:1720   */\n    tag_155:\n        /* \"#utility.yul\":1659:1665   */\n      0x00\n        /* \"#utility.yul\":1710:1712   */\n      0x1f\n        /* \"#utility.yul\":1706:1713   */\n      not\n        /* \"#utility.yul\":1701:1703   */\n      0x1f\n        /* \"#utility.yul\":1694:1699   */\n      dup4\n        /* \"#utility.yul\":1690:1704   */\n      add\n        /* \"#utility.yul\":1686:1714   */\n      and\n        /* \"#utility.yul\":1676:1714   */\n      swap1\n      pop\n        /* \"#utility.yul\":1618:1720   */\n      swap2\n      swap1\n      pop\n      jump\t// out\n        /* \"#utility.yul\":1726:2090   */\n    tag_156:\n        /* \"#utility.yul\":1814:1817   */\n      0x00\n        /* \"#utility.yul\":1842:1881   */\n      tag_197\n        /* \"#utility.yul\":1875:1880   */\n      dup3\n        /* \"#utility.yul\":1842:1881   */\n      tag_152\n      jump\t// in\n    tag_197:\n        /* \"#utility.yul\":1897:1968   */\n      tag_198\n        /* \"#utility.yul\":1961:1967   */\n      dup2\n        /* \"#utility.yul\":1956:1959   */\n      dup6\n        /* \"#utility.yul\":1897:1968   */\n      tag_153\n      jump\t// in\n    tag_198:\n        /* \"#utility.yul\":1890:1968   */\n      swap4\n      pop\n        /* \"#utility.yul\":1977:2029   */\n      tag_199\n        /* \"#utility.yul\":2022:2028   */\n      dup2\n        /* \"#utility.yul\":2017:2020   */\n      dup6\n        /* \"#utility.yul\":2010:2014   */\n      0x20\n        /* \"#utility.yul\":2003:2008   */\n      dup7\n        /* \"#utility.yul\":1999:2015   */\n      add\n        /* \"#utility.yul\":1977:2029   */\n      tag_154\n      jump\t// in\n    tag_199:\n        /* \"#utility.yul\":2054:2083   */\n      tag_200\n        /* \"#utility.yul\":2076:2082   */\n      dup2\n        /* \"#utility.yul\":2054:2083   */\n      tag_155\n      jump\t// in\n    tag_200:\n        /* \"#utility.yul\":2049:2052   */\n      dup5\n        /* \"#utility.yul\":2045:2084   */\n      add\n        /* \"#utility.yul\":2038:2084   */\n      swap2\n      pop\n        /* \"#utility.yul\":1818:2090   */\n      pop\n        /* \"#utility.yul\":1726:2090   */\n      swap3\n      swap2\n      pop\n      pop\n      jump\t// out\n        /* \"#utility.yul\":2096:2222   */\n    tag_157:\n        /* \"#utility.yul\":2133:2140   */\n      0x00\n        /* \"#utility.yul\":2173:2215   */\n      0xffffffffffffffffffffffffffffffffffffffff\n        /* \"#utility.yul\":2166:2171   */\n      dup3\n        /* \"#utility.yul\":2162:2216   */\n      and\n        /* \"#utility.yul\":2151:2216   */\n      swap1\n      pop\n        /* \"#utility.yul\":2096:2222   */\n      swap2\n      swap1\n      pop\n      jump\t// out\n        /* \"#utility.yul\":2228:2324   */\n    tag_158:\n        /* \"#utility.yul\":2265:2272   */\n      0x00\n        /* \"#utility.yul\":2294:2318   */\n      tag_203\n        /* \"#utility.yul\":2312:2317   */\n      dup3\n        /* \"#utility.yul\":2294:2318   */\n      tag_157\n      jump\t// in\n    tag_203:\n        /* \"#utility.yul\":2283:2318   */\n      swap1\n      pop\n        /* \"#utility.yul\":2228:2324   */\n      swap2\n      swap1\n      pop\n      jump\t// out\n        /* \"#utility.yul\":2330:2448   */\n    tag_159:\n        /* \"#utility.yul\":2417:2441   */\n      tag_205\n        /* \"#utility.yul\":2435:2440   */\n      dup2\n        /* \"#utility.yul\":2417:2441   */\n      tag_158\n      jump\t// in\n    tag_205:\n        /* \"#utility.yul\":2412:2415   */\n      dup3\n        /* \"#utility.yul\":2405:2442   */\n      mstore\n        /* \"#utility.yul\":2330:2448   */\n      pop\n      pop\n      jump\t// out\n        /* \"#utility.yul\":2454:3482   */\n    tag_18:\n        /* \"#utility.yul\":2739:2743   */\n      0x00\n        /* \"#utility.yul\":2777:2780   */\n      0xa0\n        /* \"#utility.yul\":2766:2775   */\n      dup3\n        /* \"#utility.yul\":2762:2781   */\n      add\n        /* \"#utility.yul\":2754:2781   */\n      swap1\n      pop\n        /* \"#utility.yul\":2827:2836   */\n      dup2\n        /* \"#utility.yul\":2821:2825   */\n      dup2\n        /* \"#utility.yul\":2817:2837   */\n      sub\n        /* \"#utility.yul\":2813:2814   */\n      0x00\n        /* \"#utility.yul\":2802:2811   */\n      dup4\n        /* \"#utility.yul\":2798:2815   */\n      add\n        /* \"#utility.yul\":2791:2838   */\n      mstore\n        /* \"#utility.yul\":2855:2933   */\n      tag_207\n        /* \"#utility.yul\":2928:2932   */\n      dup2\n        /* \"#utility.yul\":2919:2925   */\n      dup9\n        /* \"#utility.yul\":2855:2933   */\n      tag_156\n      jump\t// in\n    tag_207:\n        /* \"#utility.yul\":2847:2933   */\n      swap1\n      pop\n        /* \"#utility.yul\":2980:2989   */\n      dup2\n        /* \"#utility.yul\":2974:2978   */\n      dup2\n        /* \"#utility.yul\":2970:2990   */\n      sub\n        /* \"#utility.yul\":2965:2967   */\n      0x20\n        /* \"#utility.yul\":2954:2963   */\n      dup4\n        /* \"#utility.yul\":2950:2968   */\n      add\n        /* \"#utility.yul\":2943:2991   */\n      mstore\n        /* \"#utility.yul\":3008:3086   */\n      tag_208\n        /* \"#utility.yul\":3081:3085   */\n      dup2\n        /* \"#utility.yul\":3072:3078   */\n      dup8\n        /* \"#utility.yul\":3008:3086   */\n      tag_156\n      jump\t// in\n    tag_208:\n        /* \"#utility.yul\":3000:3086   */\n      swap1\n      pop\n        /* \"#utility.yul\":3133:3142   */\n      dup2\n        /* \"#utility.yul\":3127:3131   */\n      dup2\n        /* \"#utility.yul\":3123:3143   */\n      sub\n        /* \"#utility.yul\":3118:3120   */\n      0x40\n        /* \"#utility.yul\":3107:3116   */\n      dup4\n        /* \"#utility.yul\":3103:3121   */\n      add\n        /* \"#utility.yul\":3096:3144   */\n      mstore\n        /* \"#utility.yul\":3161:3239   */\n      tag_209\n        /* \"#utility.yul\":3234:3238   */\n      dup2\n        /* \"#utility.yul\":3225:3231   */\n      dup7\n        /* \"#utility.yul\":3161:3239   */\n      tag_156\n      jump\t// in\n    tag_209:\n        /* \"#utility.yul\":3153:3239   */\n      swap1\n      pop\n        /* \"#utility.yul\":3286:3295   */\n      dup2\n        /* \"#utility.yul\":3280:3284   */\n      dup2\n        /* \"#utility.yul\":3276:3296   */\n      sub\n        /* \"#utility.yul\":3271:3273   */\n      0x60\n        /* \"#utility.yul\":3260:3269   */\n      dup4\n        /* \"#utility.yul\":3256:3274   */\n      add\n        /* \"#utility.yul\":3249:3297   */\n      mstore\n        /* \"#utility.yul\":3314:3392   */\n      tag_210\n        /* \"#utility.yul\":3387:3391   */\n      dup2\n        /* \"#utility.yul\":3378:3384   */\n      dup6\n        /* \"#utility.yul\":3314:3392   */\n      tag_156\n      jump\t// in\n    tag_210:\n        /* \"#utility.yul\":3306:3392   */\n      swap1\n      pop\n        /* \"#utility.yul\":3402:3475   */\n      tag_211\n        /* \"#utility.yul\":3470:3473   */\n      0x80\n        /* \"#utility.yul\":3459:3468   */\n      dup4\n        /* \"#utility.yul\":3455:3474   */\n      add\n        /* \"#utility.yul\":3446:3452   */\n      dup5\n        /* \"#utility.yul\":3402:3475   */\n      tag_159\n      jump\t// in\n    tag_211:\n        /* \"#utility.yul\":2454:3482   */\n      swap7\n      swap6\n      pop\n      pop\n      pop\n      pop\n      pop\n      pop\n      jump\t// out\n        /* \"#utility.yul\":3488:3606   */\n    tag_160:\n        /* \"#utility.yul\":3575:3599   */\n      tag_213\n        /* \"#utility.yul\":3593:3598   */\n      dup2\n        /* \"#utility.yul\":3575:3599   */\n      tag_149\n      jump\t// in\n    tag_213:\n        /* \"#utility.yul\":3570:3573   */\n      dup3\n        /* \"#utility.yul\":3563:3600   */\n      mstore\n        /* \"#utility.yul\":3488:3606   */\n      pop\n      pop\n      jump\t// out\n        /* \"#utility.yul\":3612:3834   */\n    tag_22:\n        /* \"#utility.yul\":3705:3709   */\n      0x00\n        /* \"#utility.yul\":3743:3745   */\n      0x20\n        /* \"#utility.yul\":3732:3741   */\n      dup3\n        /* \"#utility.yul\":3728:3746   */\n      add\n        /* \"#utility.yul\":3720:3746   */\n      swap1\n      pop\n        /* \"#utility.yul\":3756:3827   */\n      tag_215\n        /* \"#utility.yul\":3824:3825   */\n      0x00\n        /* \"#utility.yul\":3813:3822   */\n      dup4\n        /* \"#utility.yul\":3809:3826   */\n      add\n        /* \"#utility.yul\":3800:3806   */\n      dup5\n        /* \"#utility.yul\":3756:3827   */\n      tag_160\n      jump\t// in\n    tag_215:\n        /* \"#utility.yul\":3612:3834   */\n      swap3\n      swap2\n      pop\n      pop\n      jump\t// out\n        /* \"#utility.yul\":3840:3957   */\n    tag_161:\n        /* \"#utility.yul\":3949:3950   */\n      0x00\n        /* \"#utility.yul\":3946:3947   */\n      dup1\n        /* \"#utility.yul\":3939:3951   */\n      revert\n        /* \"#utility.yul\":3963:4080   */\n    tag_162:\n        /* \"#utility.yul\":4072:4073   */\n      0x00\n        /* \"#utility.yul\":4069:4070   */\n      dup1\n        /* \"#utility.yul\":4062:4074   */\n      revert\n        /* \"#utility.yul\":4086:4266   */\n    tag_163:\n        /* \"#utility.yul\":4134:4211   */\n      0x4e487b7100000000000000000000000000000000000000000000000000000000\n        /* \"#utility.yul\":4131:4132   */\n      0x00\n        /* \"#utility.yul\":4124:4212   */\n      mstore\n        /* \"#utility.yul\":4231:4235   */\n      0x41\n        /* \"#utility.yul\":4228:4229   */\n      0x04\n        /* \"#utility.yul\":4221:4236   */\n      mstore\n        /* \"#utility.yul\":4255:4259   */\n      0x24\n        /* \"#utility.yul\":4252:4253   */\n      0x00\n        /* \"#utility.yul\":4245:4260   */\n      revert\n        /* \"#utility.yul\":4272:4553   */\n    tag_164:\n        /* \"#utility.yul\":4355:4382   */\n      tag_220\n        /* \"#utility.yul\":4377:4381   */\n      dup3\n        /* \"#utility.yul\":4355:4382   */\n      tag_155\n      jump\t// in\n    tag_220:\n        /* \"#utility.yul\":4347:4353   */\n      dup2\n        /* \"#utility.yul\":4343:4383   */\n      add\n        /* \"#utility.yul\":4485:4491   */\n      dup2\n        /* \"#utility.yul\":4473:4483   */\n      dup2\n        /* \"#utility.yul\":4470:4492   */\n      lt\n        /* \"#utility.yul\":4449:4467   */\n      0xffffffffffffffff\n        /* \"#utility.yul\":4437:4447   */\n      dup3\n        /* \"#utility.yul\":4434:4468   */\n      gt\n        /* \"#utility.yul\":4431:4493   */\n      or\n        /* \"#utility.yul\":4428:4516   */\n      iszero\n      tag_221\n      jumpi\n        /* \"#utility.yul\":4496:4514   */\n      tag_222\n      tag_163\n      jump\t// in\n    tag_222:\n        /* \"#utility.yul\":4428:4516   */\n    tag_221:\n        /* \"#utility.yul\":4536:4546   */\n      dup1\n        /* \"#utility.yul\":4532:4534   */\n      0x40\n        /* \"#utility.yul\":4525:4547   */\n      mstore\n        /* \"#utility.yul\":4315:4553   */\n      pop\n        /* \"#utility.yul\":4272:4553   */\n      pop\n      pop\n      jump\t// out\n        /* \"#utility.yul\":4559:4688   */\n    tag_165:\n        /* \"#utility.yul\":4593:4599   */\n      0x00\n        /* \"#utility.yul\":4620:4640   */\n      tag_224\n      tag_146\n      jump\t// in\n    tag_224:\n        /* \"#utility.yul\":4610:4640   */\n      swap1\n      pop\n        /* \"#utility.yul\":4649:4682   */\n      tag_225\n        /* \"#utility.yul\":4677:4681   */\n      dup3\n        /* \"#utility.yul\":4669:4675   */\n      dup3\n        /* \"#utility.yul\":4649:4682   */\n      tag_164\n      jump\t// in\n    tag_225:\n        /* \"#utility.yul\":4559:4688   */\n      swap2\n      swap1\n      pop\n      jump\t// out\n        /* \"#utility.yul\":4694:5002   */\n    tag_166:\n        /* \"#utility.yul\":4756:4760   */\n      0x00\n        /* \"#utility.yul\":4846:4864   */\n      0xffffffffffffffff\n        /* \"#utility.yul\":4838:4844   */\n      dup3\n        /* \"#utility.yul\":4835:4865   */\n      gt\n        /* \"#utility.yul\":4832:4888   */\n      iszero\n      tag_227\n      jumpi\n        /* \"#utility.yul\":4868:4886   */\n      tag_228\n      tag_163\n      jump\t// in\n    tag_228:\n        /* \"#utility.yul\":4832:4888   */\n    tag_227:\n        /* \"#utility.yul\":4906:4935   */\n      tag_229\n        /* \"#utility.yul\":4928:4934   */\n      dup3\n        /* \"#utility.yul\":4906:4935   */\n      tag_155\n      jump\t// in\n    tag_229:\n        /* \"#utility.yul\":4898:4935   */\n      swap1\n      pop\n        /* \"#utility.yul\":4990:4994   */\n      0x20\n        /* \"#utility.yul\":4984:4988   */\n      dup2\n        /* \"#utility.yul\":4980:4995   */\n      add\n        /* \"#utility.yul\":4972:4995   */\n      swap1\n      pop\n        /* \"#utility.yul\":4694:5002   */\n      swap2\n      swap1\n      pop\n      jump\t// out\n        /* \"#utility.yul\":5008:5162   */\n    tag_167:\n        /* \"#utility.yul\":5092:5098   */\n      dup3\n        /* \"#utility.yul\":5087:5090   */\n      dup2\n        /* \"#utility.yul\":5082:5085   */\n      dup4\n        /* \"#utility.yul\":5069:5099   */\n      calldatacopy\n        /* \"#utility.yul\":5154:5155   */\n      0x00\n        /* \"#utility.yul\":5145:5151   */\n      dup4\n        /* \"#utility.yul\":5140:5143   */\n      dup4\n        /* \"#utility.yul\":5136:5152   */\n      add\n        /* \"#utility.yul\":5129:5156   */\n      mstore\n        /* \"#utility.yul\":5008:5162   */\n      pop\n      pop\n      pop\n      jump\t// out\n        /* \"#utility.yul\":5168:5580   */\n    tag_168:\n        /* \"#utility.yul\":5246:5251   */\n      0x00\n        /* \"#utility.yul\":5271:5337   */\n      tag_232\n        /* \"#utility.yul\":5287:5336   */\n      tag_233\n        /* \"#utility.yul\":5329:5335   */\n      dup5\n        /* \"#utility.yul\":5287:5336   */\n      tag_166\n      jump\t// in\n    tag_233:\n        /* \"#utility.yul\":5271:5337   */\n      tag_165\n      jump\t// in\n    tag_232:\n        /* \"#utility.yul\":5262:5337   */\n      swap1\n      pop\n        /* \"#utility.yul\":5360:5366   */\n      dup3\n        /* \"#utility.yul\":5353:5358   */\n      dup2\n        /* \"#utility.yul\":5346:5367   */\n      mstore\n        /* \"#utility.yul\":5398:5402   */\n      0x20\n        /* \"#utility.yul\":5391:5396   */\n      dup2\n        /* \"#utility.yul\":5387:5403   */\n      add\n        /* \"#utility.yul\":5436:5439   */\n      dup5\n        /* \"#utility.yul\":5427:5433   */\n      dup5\n        /* \"#utility.yul\":5422:5425   */\n      dup5\n        /* \"#utility.yul\":5418:5434   */\n      add\n        /* \"#utility.yul\":5415:5440   */\n      gt\n        /* \"#utility.yul\":5412:5524   */\n      iszero\n      tag_234\n      jumpi\n        /* \"#utility.yul\":5443:5522   */\n      tag_235\n      tag_162\n      jump\t// in\n    tag_235:\n        /* \"#utility.yul\":5412:5524   */\n    tag_234:\n        /* \"#utility.yul\":5533:5574   */\n      tag_236\n        /* \"#utility.yul\":5567:5573   */\n      dup5\n        /* \"#utility.yul\":5562:5565   */\n      dup3\n        /* \"#utility.yul\":5557:5560   */\n      dup6\n        /* \"#utility.yul\":5533:5574   */\n      tag_167\n      jump\t// in\n    tag_236:\n        /* \"#utility.yul\":5252:5580   */\n      pop\n        /* \"#utility.yul\":5168:5580   */\n      swap4\n      swap3\n      pop\n      pop\n      pop\n      jump\t// out\n        /* \"#utility.yul\":5600:5940   */\n    tag_169:\n        /* \"#utility.yul\":5656:5661   */\n      0x00\n        /* \"#utility.yul\":5705:5708   */\n      dup3\n        /* \"#utility.yul\":5698:5702   */\n      0x1f\n        /* \"#utility.yul\":5690:5696   */\n      dup4\n        /* \"#utility.yul\":5686:5703   */\n      add\n        /* \"#utility.yul\":5682:5709   */\n      slt\n        /* \"#utility.yul\":5672:5794   */\n      tag_238\n      jumpi\n        /* \"#utility.yul\":5713:5792   */\n      tag_239\n      tag_161\n      jump\t// in\n    tag_239:\n        /* \"#utility.yul\":5672:5794   */\n    tag_238:\n        /* \"#utility.yul\":5830:5836   */\n      dup2\n        /* \"#utility.yul\":5817:5837   */\n      calldataload\n        /* \"#utility.yul\":5855:5934   */\n      tag_240\n        /* \"#utility.yul\":5930:5933   */\n      dup5\n        /* \"#utility.yul\":5922:5928   */\n      dup3\n        /* \"#utility.yul\":5915:5919   */\n      0x20\n        /* \"#utility.yul\":5907:5913   */\n      dup7\n        /* \"#utility.yul\":5903:5920   */\n      add\n        /* \"#utility.yul\":5855:5934   */\n      tag_168\n      jump\t// in\n    tag_240:\n        /* \"#utility.yul\":5846:5934   */\n      swap2\n      pop\n        /* \"#utility.yul\":5662:5940   */\n      pop\n        /* \"#utility.yul\":5600:5940   */\n      swap3\n      swap2\n      pop\n      pop\n      jump\t// out\n        /* \"#utility.yul\":5946:6780   */\n    tag_25:\n        /* \"#utility.yul\":6034:6040   */\n      0x00\n        /* \"#utility.yul\":6042:6048   */\n      dup1\n        /* \"#utility.yul\":6091:6093   */\n      0x40\n        /* \"#utility.yul\":6079:6088   */\n      dup4\n        /* \"#utility.yul\":6070:6077   */\n      dup6\n        /* \"#utility.yul\":6066:6089   */\n      sub\n        /* \"#utility.yul\":6062:6094   */\n      slt\n        /* \"#utility.yul\":6059:6178   */\n      iszero\n      tag_242\n      jumpi\n        /* \"#utility.yul\":6097:6176   */\n      tag_243\n      tag_147\n      jump\t// in\n    tag_243:\n        /* \"#utility.yul\":6059:6178   */\n    tag_242:\n        /* \"#utility.yul\":6245:6246   */\n      0x00\n        /* \"#utility.yul\":6234:6243   */\n      dup4\n        /* \"#utility.yul\":6230:6247   */\n      add\n        /* \"#utility.yul\":6217:6248   */\n      calldataload\n        /* \"#utility.yul\":6275:6293   */\n      0xffffffffffffffff\n        /* \"#utility.yul\":6267:6273   */\n      dup2\n        /* \"#utility.yul\":6264:6294   */\n      gt\n        /* \"#utility.yul\":6261:6378   */\n      iszero\n      tag_244\n      jumpi\n        /* \"#utility.yul\":6297:6376   */\n      tag_245\n      tag_148\n      jump\t// in\n    tag_245:\n        /* \"#utility.yul\":6261:6378   */\n    tag_244:\n        /* \"#utility.yul\":6402:6465   */\n      tag_246\n        /* \"#utility.yul\":6457:6464   */\n      dup6\n        /* \"#utility.yul\":6448:6454   */\n      dup3\n        /* \"#utility.yul\":6437:6446   */\n      dup7\n        /* \"#utility.yul\":6433:6455   */\n      add\n        /* \"#utility.yul\":6402:6465   */\n      tag_169\n      jump\t// in\n    tag_246:\n        /* \"#utility.yul\":6392:6465   */\n      swap3\n      pop\n        /* \"#utility.yul\":6188:6475   */\n      pop\n        /* \"#utility.yul\":6542:6544   */\n      0x20\n        /* \"#utility.yul\":6531:6540   */\n      dup4\n        /* \"#utility.yul\":6527:6545   */\n      add\n        /* \"#utility.yul\":6514:6546   */\n      calldataload\n        /* \"#utility.yul\":6573:6591   */\n      0xffffffffffffffff\n        /* \"#utility.yul\":6565:6571   */\n      dup2\n        /* \"#utility.yul\":6562:6592   */\n      gt\n        /* \"#utility.yul\":6559:6676   */\n      iszero\n      tag_247\n      jumpi\n        /* \"#utility.yul\":6595:6674   */\n      tag_248\n      tag_148\n      jump\t// in\n    tag_248:\n        /* \"#utility.yul\":6559:6676   */\n    tag_247:\n        /* \"#utility.yul\":6700:6763   */\n      tag_249\n        /* \"#utility.yul\":6755:6762   */\n      dup6\n        /* \"#utility.yul\":6746:6752   */\n      dup3\n        /* \"#utility.yul\":6735:6744   */\n      dup7\n        /* \"#utility.yul\":6731:6753   */\n      add\n        /* \"#utility.yul\":6700:6763   */\n      tag_169\n      jump\t// in\n    tag_249:\n        /* \"#utility.yul\":6690:6763   */\n      swap2\n      pop\n        /* \"#utility.yul\":6485:6773   */\n      pop\n        /* \"#utility.yul\":5946:6780   */\n      swap3\n      pop\n      swap3\n      swap1\n      pop\n      jump\t// out\n        /* \"#utility.yul\":6786:7099   */\n    tag_28:\n        /* \"#utility.yul\":6899:6903   */\n      0x00\n        /* \"#utility.yul\":6937:6939   */\n      0x20\n        /* \"#utility.yul\":6926:6935   */\n      dup3\n        /* \"#utility.yul\":6922:6940   */\n      add\n        /* \"#utility.yul\":6914:6940   */\n      swap1\n      pop\n        /* \"#utility.yul\":6986:6995   */\n      dup2\n        /* \"#utility.yul\":6980:6984   */\n      dup2\n        /* \"#utility.yul\":6976:6996   */\n      sub\n        /* \"#utility.yul\":6972:6973   */\n      0x00\n        /* \"#utility.yul\":6961:6970   */\n      dup4\n        /* \"#utility.yul\":6957:6974   */\n      add\n        /* \"#utility.yul\":6950:6997   */\n      mstore\n        /* \"#utility.yul\":7014:7092   */\n      tag_251\n        /* \"#utility.yul\":7087:7091   */\n      dup2\n        /* \"#utility.yul\":7078:7084   */\n      dup5\n        /* \"#utility.yul\":7014:7092   */\n      tag_156\n      jump\t// in\n    tag_251:\n        /* \"#utility.yul\":7006:7092   */\n      swap1\n      pop\n        /* \"#utility.yul\":6786:7099   */\n      swap3\n      swap2\n      pop\n      pop\n      jump\t// out\n        /* \"#utility.yul\":7105:8916   */\n    tag_31:\n        /* \"#utility.yul\":7250:7256   */\n      0x00\n        /* \"#utility.yul\":7258:7264   */\n      dup1\n        /* \"#utility.yul\":7266:7272   */\n      0x00\n        /* \"#utility.yul\":7274:7280   */\n      dup1\n        /* \"#utility.yul\":7282:7288   */\n      0x00\n        /* \"#utility.yul\":7331:7334   */\n      0xa0\n        /* \"#utility.yul\":7319:7328   */\n      dup7\n        /* \"#utility.yul\":7310:7317   */\n      dup9\n        /* \"#utility.yul\":7306:7329   */\n      sub\n        /* \"#utility.yul\":7302:7335   */\n      slt\n        /* \"#utility.yul\":7299:7419   */\n      iszero\n      tag_253\n      jumpi\n        /* \"#utility.yul\":7338:7417   */\n      tag_254\n      tag_147\n      jump\t// in\n    tag_254:\n        /* \"#utility.yul\":7299:7419   */\n    tag_253:\n        /* \"#utility.yul\":7486:7487   */\n      0x00\n        /* \"#utility.yul\":7475:7484   */\n      dup7\n        /* \"#utility.yul\":7471:7488   */\n      add\n        /* \"#utility.yul\":7458:7489   */\n      calldataload\n        /* \"#utility.yul\":7516:7534   */\n      0xffffffffffffffff\n        /* \"#utility.yul\":7508:7514   */\n      dup2\n        /* \"#utility.yul\":7505:7535   */\n      gt\n        /* \"#utility.yul\":7502:7619   */\n      iszero\n      tag_255\n      jumpi\n        /* \"#utility.yul\":7538:7617   */\n      tag_256\n      tag_148\n      jump\t// in\n    tag_256:\n        /* \"#utility.yul\":7502:7619   */\n    tag_255:\n        /* \"#utility.yul\":7643:7706   */\n      tag_257\n        /* \"#utility.yul\":7698:7705   */\n      dup9\n        /* \"#utility.yul\":7689:7695   */\n      dup3\n        /* \"#utility.yul\":7678:7687   */\n      dup10\n        /* \"#utility.yul\":7674:7696   */\n      add\n        /* \"#utility.yul\":7643:7706   */\n      tag_169\n      jump\t// in\n    tag_257:\n        /* \"#utility.yul\":7633:7706   */\n      swap6\n      pop\n        /* \"#utility.yul\":7429:7716   */\n      pop\n        /* \"#utility.yul\":7783:7785   */\n      0x20\n        /* \"#utility.yul\":7772:7781   */\n      dup7\n        /* \"#utility.yul\":7768:7786   */\n      add\n        /* \"#utility.yul\":7755:7787   */\n      calldataload\n        /* \"#utility.yul\":7814:7832   */\n      0xffffffffffffffff\n        /* \"#utility.yul\":7806:7812   */\n      dup2\n        /* \"#utility.yul\":7803:7833   */\n      gt\n        /* \"#utility.yul\":7800:7917   */\n      iszero\n      tag_258\n      jumpi\n        /* \"#utility.yul\":7836:7915   */\n      tag_259\n      tag_148\n      jump\t// in\n    tag_259:\n        /* \"#utility.yul\":7800:7917   */\n    tag_258:\n        /* \"#utility.yul\":7941:8004   */\n      tag_260\n        /* \"#utility.yul\":7996:8003   */\n      dup9\n        /* \"#utility.yul\":7987:7993   */\n      dup3\n        /* \"#utility.yul\":7976:7985   */\n      dup10\n        /* \"#utility.yul\":7972:7994   */\n      add\n        /* \"#utility.yul\":7941:8004   */\n      tag_169\n      jump\t// in\n    tag_260:\n        /* \"#utility.yul\":7931:8004   */\n      swap5\n      pop\n        /* \"#utility.yul\":7726:8014   */\n      pop\n        /* \"#utility.yul\":8081:8083   */\n      0x40\n        /* \"#utility.yul\":8070:8079   */\n      dup7\n        /* \"#utility.yul\":8066:8084   */\n      add\n        /* \"#utility.yul\":8053:8085   */\n      calldataload\n        /* \"#utility.yul\":8112:8130   */\n      0xffffffffffffffff\n        /* \"#utility.yul\":8104:8110   */\n      dup2\n        /* \"#utility.yul\":8101:8131   */\n      gt\n        /* \"#utility.yul\":8098:8215   */\n      iszero\n      tag_261\n      jumpi\n        /* \"#utility.yul\":8134:8213   */\n      tag_262\n      tag_148\n      jump\t// in\n    tag_262:\n        /* \"#utility.yul\":8098:8215   */\n    tag_261:\n        /* \"#utility.yul\":8239:8302   */\n      tag_263\n        /* \"#utility.yul\":8294:8301   */\n      dup9\n        /* \"#utility.yul\":8285:8291   */\n      dup3\n        /* \"#utility.yul\":8274:8283   */\n      dup10\n        /* \"#utility.yul\":8270:8292   */\n      add\n        /* \"#utility.yul\":8239:8302   */\n      tag_169\n      jump\t// in\n    tag_263:\n        /* \"#utility.yul\":8229:8302   */\n      swap4\n      pop\n        /* \"#utility.yul\":8024:8312   */\n      pop\n        /* \"#utility.yul\":8379:8381   */\n      0x60\n        /* \"#utility.yul\":8368:8377   */\n      dup7\n        /* \"#utility.yul\":8364:8382   */\n      add\n        /* \"#utility.yul\":8351:8383   */\n      calldataload\n        /* \"#utility.yul\":8410:8428   */\n      0xffffffffffffffff\n        /* \"#utility.yul\":8402:8408   */\n      dup2\n        /* \"#utility.yul\":8399:8429   */\n      gt\n        /* \"#utility.yul\":8396:8513   */\n      iszero\n      tag_264\n      jumpi\n        /* \"#utility.yul\":8432:8511   */\n      tag_265\n      tag_148\n      jump\t// in\n    tag_265:\n        /* \"#utility.yul\":8396:8513   */\n    tag_264:\n        /* \"#utility.yul\":8537:8600   */\n      tag_266\n        /* \"#utility.yul\":8592:8599   */\n      dup9\n        /* \"#utility.yul\":8583:8589   */\n      dup3\n        /* \"#utility.yul\":8572:8581   */\n      dup10\n        /* \"#utility.yul\":8568:8590   */\n      add\n        /* \"#utility.yul\":8537:8600   */\n      tag_169\n      jump\t// in\n    tag_266:\n        /* \"#utility.yul\":8527:8600   */\n      swap3\n      pop\n        /* \"#utility.yul\":8322:8610   */\n      pop\n        /* \"#utility.yul\":8677:8680   */\n      0x80\n        /* \"#utility.yul\":8666:8675   */\n      dup7\n        /* \"#utility.yul\":8662:8681   */\n      add\n        /* \"#utility.yul\":8649:8682   */\n      calldataload\n        /* \"#utility.yul\":8709:8727   */\n      0xffffffffffffffff\n        /* \"#utility.yul\":8701:8707   */\n      dup2\n        /* \"#utility.yul\":8698:8728   */\n      gt\n        /* \"#utility.yul\":8695:8812   */\n      iszero\n      tag_267\n      jumpi\n        /* \"#utility.yul\":8731:8810   */\n      tag_268\n      tag_148\n      jump\t// in\n    tag_268:\n        /* \"#utility.yul\":8695:8812   */\n    tag_267:\n        /* \"#utility.yul\":8836:8899   */\n      tag_269\n        /* \"#utility.yul\":8891:8898   */\n      dup9\n        /* \"#utility.yul\":8882:8888   */\n      dup3\n        /* \"#utility.yul\":8871:8880   */\n      dup10\n        /* \"#utility.yul\":8867:8889   */\n      add\n        /* \"#utility.yul\":8836:8899   */\n      tag_169\n      jump\t// in\n    tag_269:\n        /* \"#utility.yul\":8826:8899   */\n      swap2\n      pop\n        /* \"#utility.yul\":8620:8909   */\n      pop\n        /* \"#utility.yul\":7105:8916   */\n      swap3\n      swap6\n      pop\n      swap3\n      swap6\n      swap1\n      swap4\n      pop\n      jump\t// out\n        /* \"#utility.yul\":8922:10407   */\n    tag_39:\n        /* \"#utility.yul\":9048:9054   */\n      0x00\n        /* \"#utility.yul\":9056:9062   */\n      dup1\n        /* \"#utility.yul\":9064:9070   */\n      0x00\n        /* \"#utility.yul\":9072:9078   */\n      dup1\n        /* \"#utility.yul\":9121:9124   */\n      0x80\n        /* \"#utility.yul\":9109:9118   */\n      dup6\n        /* \"#utility.yul\":9100:9107   */\n      dup8\n        /* \"#utility.yul\":9096:9119   */\n      sub\n        /* \"#utility.yul\":9092:9125   */\n      slt\n        /* \"#utility.yul\":9089:9209   */\n      iszero\n      tag_271\n      jumpi\n        /* \"#utility.yul\":9128:9207   */\n      tag_272\n      tag_147\n      jump\t// in\n    tag_272:\n        /* \"#utility.yul\":9089:9209   */\n    tag_271:\n        /* \"#utility.yul\":9276:9277   */\n      0x00\n        /* \"#utility.yul\":9265:9274   */\n      dup6\n        /* \"#utility.yul\":9261:9278   */\n      add\n        /* \"#utility.yul\":9248:9279   */\n      calldataload\n        /* \"#utility.yul\":9306:9324   */\n      0xffffffffffffffff\n        /* \"#utility.yul\":9298:9304   */\n      dup2\n        /* \"#utility.yul\":9295:9325   */\n      gt\n        /* \"#utility.yul\":9292:9409   */\n      iszero\n      tag_273\n      jumpi\n        /* \"#utility.yul\":9328:9407   */\n      tag_274\n      tag_148\n      jump\t// in\n    tag_274:\n        /* \"#utility.yul\":9292:9409   */\n    tag_273:\n        /* \"#utility.yul\":9433:9496   */\n      tag_275\n        /* \"#utility.yul\":9488:9495   */\n      dup8\n        /* \"#utility.yul\":9479:9485   */\n      dup3\n        /* \"#utility.yul\":9468:9477   */\n      dup9\n        /* \"#utility.yul\":9464:9486   */\n      add\n        /* \"#utility.yul\":9433:9496   */\n      tag_169\n      jump\t// in\n    tag_275:\n        /* \"#utility.yul\":9423:9496   */\n      swap5\n      pop\n        /* \"#utility.yul\":9219:9506   */\n      pop\n        /* \"#utility.yul\":9573:9575   */\n      0x20\n        /* \"#utility.yul\":9562:9571   */\n      dup6\n        /* \"#utility.yul\":9558:9576   */\n      add\n        /* \"#utility.yul\":9545:9577   */\n      calldataload\n        /* \"#utility.yul\":9604:9622   */\n      0xffffffffffffffff\n        /* \"#utility.yul\":9596:9602   */\n      dup2\n        /* \"#utility.yul\":9593:9623   */\n      gt\n        /* \"#utility.yul\":9590:9707   */\n      iszero\n      tag_276\n      jumpi\n        /* \"#utility.yul\":9626:9705   */\n      tag_277\n      tag_148\n      jump\t// in\n    tag_277:\n        /* \"#utility.yul\":9590:9707   */\n    tag_276:\n        /* \"#utility.yul\":9731:9794   */\n      tag_278\n        /* \"#utility.yul\":9786:9793   */\n      dup8\n        /* \"#utility.yul\":9777:9783   */\n      dup3\n        /* \"#utility.yul\":9766:9775   */\n      dup9\n        /* \"#utility.yul\":9762:9784   */\n      add\n        /* \"#utility.yul\":9731:9794   */\n      tag_169\n      jump\t// in\n    tag_278:\n        /* \"#utility.yul\":9721:9794   */\n      swap4\n      pop\n        /* \"#utility.yul\":9516:9804   */\n      pop\n        /* \"#utility.yul\":9871:9873   */\n      0x40\n        /* \"#utility.yul\":9860:9869   */\n      dup6\n        /* \"#utility.yul\":9856:9874   */\n      add\n        /* \"#utility.yul\":9843:9875   */\n      calldataload\n        /* \"#utility.yul\":9902:9920   */\n      0xffffffffffffffff\n        /* \"#utility.yul\":9894:9900   */\n      dup2\n        /* \"#utility.yul\":9891:9921   */\n      gt\n        /* \"#utility.yul\":9888:10005   */\n      iszero\n      tag_279\n      jumpi\n        /* \"#utility.yul\":9924:10003   */\n      tag_280\n      tag_148\n      jump\t// in\n    tag_280:\n        /* \"#utility.yul\":9888:10005   */\n    tag_279:\n        /* \"#utility.yul\":10029:10092   */\n      tag_281\n        /* \"#utility.yul\":10084:10091   */\n      dup8\n        /* \"#utility.yul\":10075:10081   */\n      dup3\n        /* \"#utility.yul\":10064:10073   */\n      dup9\n        /* \"#utility.yul\":10060:10082   */\n      add\n        /* \"#utility.yul\":10029:10092   */\n      tag_169\n      jump\t// in\n    tag_281:\n        /* \"#utility.yul\":10019:10092   */\n      swap3\n      pop\n        /* \"#utility.yul\":9814:10102   */\n      pop\n        /* \"#utility.yul\":10169:10171   */\n      0x60\n        /* \"#utility.yul\":10158:10167   */\n      dup6\n        /* \"#utility.yul\":10154:10172   */\n      add\n        /* \"#utility.yul\":10141:10173   */\n      calldataload\n        /* \"#utility.yul\":10200:10218   */\n      0xffffffffffffffff\n        /* \"#utility.yul\":10192:10198   */\n      dup2\n        /* \"#utility.yul\":10189:10219   */\n      gt\n        /* \"#utility.yul\":10186:10303   */\n      iszero\n      tag_282\n      jumpi\n        /* \"#utility.yul\":10222:10301   */\n      tag_283\n      tag_148\n      jump\t// in\n    tag_283:\n        /* \"#utility.yul\":10186:10303   */\n    tag_282:\n        /* \"#utility.yul\":10327:10390   */\n      tag_284\n        /* \"#utility.yul\":10382:10389   */\n      dup8\n        /* \"#utility.yul\":10373:10379   */\n      dup3\n        /* \"#utility.yul\":10362:10371   */\n      dup9\n        /* \"#utility.yul\":10358:10380   */\n      add\n        /* \"#utility.yul\":10327:10390   */\n      tag_169\n      jump\t// in\n    tag_284:\n        /* \"#utility.yul\":10317:10390   */\n      swap2\n      pop\n        /* \"#utility.yul\":10112:10400   */\n      pop\n        /* \"#utility.yul\":8922:10407   */\n      swap3\n      swap6\n      swap2\n      swap5\n      pop\n      swap3\n      pop\n      jump\t// out\n        /* \"#utility.yul\":10413:10635   */\n    tag_48:\n        /* \"#utility.yul\":10506:10510   */\n      0x00\n        /* \"#utility.yul\":10544:10546   */\n      0x20\n        /* \"#utility.yul\":10533:10542   */\n      dup3\n        /* \"#utility.yul\":10529:10547   */\n      add\n        /* \"#utility.yul\":10521:10547   */\n      swap1\n      pop\n        /* \"#utility.yul\":10557:10628   */\n      tag_286\n        /* \"#utility.yul\":10625:10626   */\n      0x00\n        /* \"#utility.yul\":10614:10623   */\n      dup4\n        /* \"#utility.yul\":10610:10627   */\n      add\n        /* \"#utility.yul\":10601:10607   */\n      dup5\n        /* \"#utility.yul\":10557:10628   */\n      tag_159\n      jump\t// in\n    tag_286:\n        /* \"#utility.yul\":10413:10635   */\n      swap3\n      swap2\n      pop\n      pop\n      jump\t// out\n        /* \"#utility.yul\":10641:10821   */\n    tag_170:\n        /* \"#utility.yul\":10689:10766   */\n      0x4e487b7100000000000000000000000000000000000000000000000000000000\n        /* \"#utility.yul\":10686:10687   */\n      0x00\n        /* \"#utility.yul\":10679:10767   */\n      mstore\n        /* \"#utility.yul\":10786:10790   */\n      0x22\n        /* \"#utility.yul\":10783:10784   */\n      0x04\n        /* \"#utility.yul\":10776:10791   */\n      mstore\n        /* \"#utility.yul\":10810:10814   */\n      0x24\n        /* \"#utility.yul\":10807:10808   */\n      0x00\n        /* \"#utility.yul\":10800:10815   */\n      revert\n        /* \"#utility.yul\":10827:11147   */\n    tag_55:\n        /* \"#utility.yul\":10871:10877   */\n      0x00\n        /* \"#utility.yul\":10908:10909   */\n      0x02\n        /* \"#utility.yul\":10902:10906   */\n      dup3\n        /* \"#utility.yul\":10898:10910   */\n      div\n        /* \"#utility.yul\":10888:10910   */\n      swap1\n      pop\n        /* \"#utility.yul\":10955:10956   */\n      0x01\n        /* \"#utility.yul\":10949:10953   */\n      dup3\n        /* \"#utility.yul\":10945:10957   */\n      and\n        /* \"#utility.yul\":10976:10994   */\n      dup1\n        /* \"#utility.yul\":10966:11047   */\n      tag_289\n      jumpi\n        /* \"#utility.yul\":11032:11036   */\n      0x7f\n        /* \"#utility.yul\":11024:11030   */\n      dup3\n        /* \"#utility.yul\":11020:11037   */\n      and\n        /* \"#utility.yul\":11010:11037   */\n      swap2\n      pop\n        /* \"#utility.yul\":10966:11047   */\n    tag_289:\n        /* \"#utility.yul\":11094:11096   */\n      0x20\n        /* \"#utility.yul\":11086:11092   */\n      dup3\n        /* \"#utility.yul\":11083:11097   */\n      lt\n        /* \"#utility.yul\":11063:11081   */\n      dup2\n        /* \"#utility.yul\":11060:11098   */\n      sub\n        /* \"#utility.yul\":11057:11141   */\n      tag_290\n      jumpi\n        /* \"#utility.yul\":11113:11131   */\n      tag_291\n      tag_170\n      jump\t// in\n    tag_291:\n        /* \"#utility.yul\":11057:11141   */\n    tag_290:\n        /* \"#utility.yul\":10878:11147   */\n      pop\n        /* \"#utility.yul\":10827:11147   */\n      swap2\n      swap1\n      pop\n      jump\t// out\n        /* \"#utility.yul\":11153:11333   */\n    tag_171:\n        /* \"#utility.yul\":11201:11278   */\n      0x4e487b7100000000000000000000000000000000000000000000000000000000\n        /* \"#utility.yul\":11198:11199   */\n      0x00\n        /* \"#utility.yul\":11191:11279   */\n      mstore\n        /* \"#utility.yul\":11298:11302   */\n      0x11\n        /* \"#utility.yul\":11295:11296   */\n      0x04\n        /* \"#utility.yul\":11288:11303   */\n      mstore\n        /* \"#utility.yul\":11322:11326   */\n      0x24\n        /* \"#utility.yul\":11319:11320   */\n      0x00\n        /* \"#utility.yul\":11312:11327   */\n      revert\n        /* \"#utility.yul\":11339:11572   */\n    tag_93:\n        /* \"#utility.yul\":11378:11381   */\n      0x00\n        /* \"#utility.yul\":11401:11425   */\n      tag_294\n        /* \"#utility.yul\":11419:11424   */\n      dup3\n        /* \"#utility.yul\":11401:11425   */\n      tag_149\n      jump\t// in\n    tag_294:\n        /* \"#utility.yul\":11392:11425   */\n      swap2\n      pop\n        /* \"#utility.yul\":11447:11513   */\n      0xffffffffffffffffffffffffffffffffffffffffffffffffffffffffffffffff\n        /* \"#utility.yul\":11440:11445   */\n      dup3\n        /* \"#utility.yul\":11437:11514   */\n      sub\n        /* \"#utility.yul\":11434:11537   */\n      tag_295\n      jumpi\n        /* \"#utility.yul\":11517:11535   */\n      tag_296\n      tag_171\n      jump\t// in\n    tag_296:\n        /* \"#utility.yul\":11434:11537   */\n    tag_295:\n        /* \"#utility.yul\":11564:11565   */\n      0x01\n        /* \"#utility.yul\":11557:11562   */\n      dup3\n        /* \"#utility.yul\":11553:11566   */\n      add\n        /* \"#utility.yul\":11546:11566   */\n      swap1\n      pop\n        /* \"#utility.yul\":11339:11572   */\n      swap2\n      swap1\n      pop\n      jump\t// out\n        /* \"#utility.yul\":11578:11739   */\n    tag_172:\n        /* \"#utility.yul\":11718:11731   */\n      0x4e6f7420616c6c6f776564000000000000000000000000000000000000000000\n        /* \"#utility.yul\":11714:11715   */\n      0x00\n        /* \"#utility.yul\":11706:11712   */\n      dup3\n        /* \"#utility.yul\":11702:11716   */\n      add\n        /* \"#utility.yul\":11695:11732   */\n      mstore\n        /* \"#utility.yul\":11578:11739   */\n      pop\n      jump\t// out\n        /* \"#utility.yul\":11745:12111   */\n    tag_173:\n        /* \"#utility.yul\":11887:11890   */\n      0x00\n        /* \"#utility.yul\":11908:11975   */\n      tag_299\n        /* \"#utility.yul\":11972:11974   */\n      0x0b\n        /* \"#utility.yul\":11967:11970   */\n      dup4\n        /* \"#utility.yul\":11908:11975   */\n      tag_153\n      jump\t// in\n    tag_299:\n        /* \"#utility.yul\":11901:11975   */\n      swap2\n      pop\n        /* \"#utility.yul\":11984:12077   */\n      tag_300\n        /* \"#utility.yul\":12073:12076   */\n      dup3\n        /* \"#utility.yul\":11984:12077   */\n      tag_172\n      jump\t// in\n    tag_300:\n        /* \"#utility.yul\":12102:12104   */\n      0x20\n        /* \"#utility.yul\":12097:12100   */\n      dup3\n        /* \"#utility.yul\":12093:12105   */\n      add\n        /* \"#utility.yul\":12086:12105   */\n      swap1\n      pop\n        /* \"#utility.yul\":11745:12111   */\n      swap2\n      swap1\n      pop\n      jump\t// out\n        /* \"#utility.yul\":12117:12536   */\n    tag_121:\n        /* \"#utility.yul\":12283:12287   */\n      0x00\n        /* \"#utility.yul\":12321:12323   */\n      0x20\n        /* \"#utility.yul\":12310:12319   */\n      dup3\n        /* \"#utility.yul\":12306:12324   */\n      add\n        /* \"#utility.yul\":12298:12324   */\n      swap1\n      pop\n        /* \"#utility.yul\":12370:12379   */\n      dup2\n        /* \"#utility.yul\":12364:12368   */\n      dup2\n        /* \"#utility.yul\":12360:12380   */\n      sub\n        /* \"#utility.yul\":12356:12357   */\n      0x00\n        /* \"#utility.yul\":12345:12354   */\n      dup4\n        /* \"#utility.yul\":12341:12358   */\n      add\n        /* \"#utility.yul\":12334:12381   */\n      mstore\n        /* \"#utility.yul\":12398:12529   */\n      tag_302\n        /* \"#utility.yul\":12524:12528   */\n      dup2\n        /* \"#utility.yul\":12398:12529   */\n      tag_173\n      jump\t// in\n    tag_302:\n        /* \"#utility.yul\":12390:12529   */\n      swap1\n      pop\n        /* \"#utility.yul\":12117:12536   */\n      swap2\n      swap1\n      pop\n      jump\t// out\n    stop\n    data_f8cee5838de095b73bc0eb68505c82192a6e7ef8eb72dc52884288f7c470afa7 5573657220646f65736e6f7420657869737420212120526567697374657220616e642074727920616761696e202121\n\n    auxdata: 0xa2646970667358221220bb47c793b7cbfd5afd9223ab9254aec7cc62c3e7d639d43c6034058f6a930bb264736f6c634300080d0033\n}\n",
				"bytecode": {
					"linkReferences": {},
					"object": "608060405234801561001057600080fd5b50600080819055506117ab806100276000396000f3fe608060405234801561001057600080fd5b50600436106100935760003560e01c8063681f3e6d11610066578063681f3e6d1461014a578063b4bfc3a514610168578063c127ae4114610198578063ebc3eee8146101b6578063ff3a9c7e146101d457610093565b8063107046bd1461009857806312679323146100cc57806358467dbc146100ea5780635a09007b1461011a575b600080fd5b6100b260048036038101906100ad919061109b565b6101f2565b6040516100c39594939291906111a2565b60405180910390f35b6100d4610478565b6040516100e19190611220565b60405180910390f35b61010460048036038101906100ff9190611370565b61047e565b60405161011191906113e8565b60405180910390f35b610134600480360381019061012f919061140a565b6105b8565b60405161014191906113e8565b60405180910390f35b610152610846565b60405161015f91906113e8565b60405180910390f35b610182600480360381019061017d9190611511565b610918565b60405161018f91906113e8565b60405180910390f35b6101a0610cd8565b6040516101ad91906113e8565b60405180910390f35b6101be610e7a565b6040516101cb91906115e8565b60405180910390f35b6101dc610ee4565b6040516101e991906113e8565b60405180910390f35b6003818154811061020257600080fd5b906000526020600020906005020160009150905080600001805461022590611632565b80601f016020809104026020016040519081016040528092919081815260200182805461025190611632565b801561029e5780601f106102735761010080835404028352916020019161029e565b820191906000526020600020905b81548152906001019060200180831161028157829003601f168201915b5050505050908060010180546102b390611632565b80601f01602080910402602001604051908101604052809291908181526020018280546102df90611632565b801561032c5780601f106103015761010080835404028352916020019161032c565b820191906000526020600020905b81548152906001019060200180831161030f57829003601f168201915b50505050509080600201805461034190611632565b80601f016020809104026020016040519081016040528092919081815260200182805461036d90611632565b80156103ba5780601f1061038f576101008083540402835291602001916103ba565b820191906000526020600020905b81548152906001019060200180831161039d57829003601f168201915b5050505050908060030180546103cf90611632565b80601f01602080910402602001604051908101604052809291908181526020018280546103fb90611632565b80156104485780601f1061041d57610100808354040283529160200191610448565b820191906000526020600020905b81548152906001019060200180831161042b57829003601f168201915b5050505050908060040160009054906101000a900473ffffffffffffffffffffffffffffffffffffffff16905085565b60005481565b6060600061048a610846565b90506000600160003373ffffffffffffffffffffffffffffffffffffffff1673ffffffffffffffffffffffffffffffffffffffff16815260200190815260200160002060030180546104db90611632565b80601f016020809104026020016040519081016040528092919081815260200182805461050790611632565b80156105545780601f1061052957610100808354040283529160200191610554565b820191906000526020600020905b81548152906001019060200180831161053757829003601f168201915b5050505050905084805190602001208280519060200120148015610585575083805190602001208180519060200120145b156105945784925050506105b2565b6040518060600160405280602f8152602001611747602f9139925050505b92915050565b606085600160003373ffffffffffffffffffffffffffffffffffffffff1673ffffffffffffffffffffffffffffffffffffffff1681526020019081526020016000206000019080519060200190610610929190610f21565b5084600160003373ffffffffffffffffffffffffffffffffffffffff1673ffffffffffffffffffffffffffffffffffffffff1681526020019081526020016000206001019080519060200190610667929190610f21565b5033600160003373ffffffffffffffffffffffffffffffffffffffff1673ffffffffffffffffffffffffffffffffffffffff16815260200190815260200160002060050160006101000a81548173ffffffffffffffffffffffffffffffffffffffff021916908373ffffffffffffffffffffffffffffffffffffffff16021790555083600160003373ffffffffffffffffffffffffffffffffffffffff1673ffffffffffffffffffffffffffffffffffffffff168152602001908152602001600020600201908051906020019061073f929190610f21565b5082600160003373ffffffffffffffffffffffffffffffffffffffff1673ffffffffffffffffffffffffffffffffffffffff1681526020019081526020016000206003019080519060200190610796929190610f21565b5081600160003373ffffffffffffffffffffffffffffffffffffffff1673ffffffffffffffffffffffffffffffffffffffff16815260200190815260200160002060040190805190602001906107ed929190610f21565b5060008081548092919061080090611692565b91905055506040518060400160405280601781526020017f5375636365737366756c6c792052656769737465726564000000000000000000815250905095945050505050565b6060600160003373ffffffffffffffffffffffffffffffffffffffff1673ffffffffffffffffffffffffffffffffffffffff168152602001908152602001600020600201805461089590611632565b80601f01602080910402602001604051908101604052809291908181526020018280546108c190611632565b801561090e5780601f106108e35761010080835404028352916020019161090e565b820191906000526020600020905b8154815290600101906020018083116108f157829003601f168201915b5050505050905090565b60606000610924610846565b5114610c975784600260003373ffffffffffffffffffffffffffffffffffffffff1673ffffffffffffffffffffffffffffffffffffffff1681526020019081526020016000206000019080519060200190610980929190610f21565b5083600260003373ffffffffffffffffffffffffffffffffffffffff1673ffffffffffffffffffffffffffffffffffffffff16815260200190815260200160002060010190805190602001906109d7929190610f21565b5082600260003373ffffffffffffffffffffffffffffffffffffffff1673ffffffffffffffffffffffffffffffffffffffff1681526020019081526020016000206002019080519060200190610a2e929190610f21565b5081600260003373ffffffffffffffffffffffffffffffffffffffff1673ffffffffffffffffffffffffffffffffffffffff1681526020019081526020016000206003019080519060200190610a85929190610f21565b5033600260003373ffffffffffffffffffffffffffffffffffffffff1673ffffffffffffffffffffffffffffffffffffffff16815260200190815260200160002060040160006101000a81548173ffffffffffffffffffffffffffffffffffffffff021916908373ffffffffffffffffffffffffffffffffffffffff1602179055506003600260003373ffffffffffffffffffffffffffffffffffffffff1673ffffffffffffffffffffffffffffffffffffffff16815260200190815260200160002090806001815401808255809150506001900390600052602060002090600502016000909190919091506000820181600001908054610b8590611632565b610b90929190610fa7565b506001820181600101908054610ba590611632565b610bb0929190610fa7565b506002820181600201908054610bc590611632565b610bd0929190610fa7565b506003820181600301908054610be590611632565b610bf0929190610fa7565b506004820160009054906101000a900473ffffffffffffffffffffffffffffffffffffffff168160040160006101000a81548173ffffffffffffffffffffffffffffffffffffffff021916908373ffffffffffffffffffffffffffffffffffffffff16021790555050506040518060400160405280601a81526020017f50726f6a656374205361766564205375636365737366756c6c790000000000008152509050610cd0565b6040518060400160405280601481526020017f4572726f7220536176696e672050726f6a65637400000000000000000000000081525090505b949350505050565b6060600160003373ffffffffffffffffffffffffffffffffffffffff1673ffffffffffffffffffffffffffffffffffffffff16815260200190815260200160002060050160009054906101000a900473ffffffffffffffffffffffffffffffffffffffff1673ffffffffffffffffffffffffffffffffffffffff163373ffffffffffffffffffffffffffffffffffffffff1614610daa576040517f08c379a0000000000000000000000000000000000000000000000000000000008152600401610da190611726565b60405180910390fd5b600160003373ffffffffffffffffffffffffffffffffffffffff1673ffffffffffffffffffffffffffffffffffffffff1681526020019081526020016000206000018054610df790611632565b80601f0160208091040260200160405190810160405280929190818152602001828054610e2390611632565b8015610e705780601f10610e4557610100808354040283529160200191610e70565b820191906000526020600020905b815481529060010190602001808311610e5357829003601f168201915b5050505050905090565b6000600160003373ffffffffffffffffffffffffffffffffffffffff1673ffffffffffffffffffffffffffffffffffffffff16815260200190815260200160002060050160009054906101000a900473ffffffffffffffffffffffffffffffffffffffff16905090565b60606040518060400160405280600881526020017f70726f6a65637473000000000000000000000000000000000000000000000000815250905090565b828054610f2d90611632565b90600052602060002090601f016020900481019282610f4f5760008555610f96565b82601f10610f6857805160ff1916838001178555610f96565b82800160010185558215610f96579182015b82811115610f95578251825591602001919060010190610f7a565b5b509050610fa39190611034565b5090565b828054610fb390611632565b90600052602060002090601f016020900481019282610fd55760008555611023565b82601f10610fe65780548555611023565b8280016001018555821561102357600052602060002091601f016020900482015b82811115611022578254825591600101919060010190611007565b5b5090506110309190611034565b5090565b5b8082111561104d576000816000905550600101611035565b5090565b6000604051905090565b600080fd5b600080fd5b6000819050919050565b61107881611065565b811461108357600080fd5b50565b6000813590506110958161106f565b92915050565b6000602082840312156110b1576110b061105b565b5b60006110bf84828501611086565b91505092915050565b600081519050919050565b600082825260208201905092915050565b60005b838110156111025780820151818401526020810190506110e7565b83811115611111576000848401525b50505050565b6000601f19601f8301169050919050565b6000611133826110c8565b61113d81856110d3565b935061114d8185602086016110e4565b61115681611117565b840191505092915050565b600073ffffffffffffffffffffffffffffffffffffffff82169050919050565b600061118c82611161565b9050919050565b61119c81611181565b82525050565b600060a08201905081810360008301526111bc8188611128565b905081810360208301526111d08187611128565b905081810360408301526111e48186611128565b905081810360608301526111f88185611128565b90506112076080830184611193565b9695505050505050565b61121a81611065565b82525050565b60006020820190506112356000830184611211565b92915050565b600080fd5b600080fd5b7f4e487b7100000000000000000000000000000000000000000000000000000000600052604160045260246000fd5b61127d82611117565b810181811067ffffffffffffffff8211171561129c5761129b611245565b5b80604052505050565b60006112af611051565b90506112bb8282611274565b919050565b600067ffffffffffffffff8211156112db576112da611245565b5b6112e482611117565b9050602081019050919050565b82818337600083830152505050565b600061131361130e846112c0565b6112a5565b90508281526020810184848401111561132f5761132e611240565b5b61133a8482856112f1565b509392505050565b600082601f8301126113575761135661123b565b5b8135611367848260208601611300565b91505092915050565b600080604083850312156113875761138661105b565b5b600083013567ffffffffffffffff8111156113a5576113a4611060565b5b6113b185828601611342565b925050602083013567ffffffffffffffff8111156113d2576113d1611060565b5b6113de85828601611342565b9150509250929050565b600060208201905081810360008301526114028184611128565b905092915050565b600080600080600060a086880312156114265761142561105b565b5b600086013567ffffffffffffffff81111561144457611443611060565b5b61145088828901611342565b955050602086013567ffffffffffffffff81111561147157611470611060565b5b61147d88828901611342565b945050604086013567ffffffffffffffff81111561149e5761149d611060565b5b6114aa88828901611342565b935050606086013567ffffffffffffffff8111156114cb576114ca611060565b5b6114d788828901611342565b925050608086013567ffffffffffffffff8111156114f8576114f7611060565b5b61150488828901611342565b9150509295509295909350565b6000806000806080858703121561152b5761152a61105b565b5b600085013567ffffffffffffffff81111561154957611548611060565b5b61155587828801611342565b945050602085013567ffffffffffffffff81111561157657611575611060565b5b61158287828801611342565b935050604085013567ffffffffffffffff8111156115a3576115a2611060565b5b6115af87828801611342565b925050606085013567ffffffffffffffff8111156115d0576115cf611060565b5b6115dc87828801611342565b91505092959194509250565b60006020820190506115fd6000830184611193565b92915050565b7f4e487b7100000000000000000000000000000000000000000000000000000000600052602260045260246000fd5b6000600282049050600182168061164a57607f821691505b60208210810361165d5761165c611603565b5b50919050565b7f4e487b7100000000000000000000000000000000000000000000000000000000600052601160045260246000fd5b600061169d82611065565b91507fffffffffffffffffffffffffffffffffffffffffffffffffffffffffffffffff82036116cf576116ce611663565b5b600182019050919050565b7f4e6f7420616c6c6f776564000000000000000000000000000000000000000000600082015250565b6000611710600b836110d3565b915061171b826116da565b602082019050919050565b6000602082019050818103600083015261173f81611703565b905091905056fe5573657220646f65736e6f7420657869737420212120526567697374657220616e642074727920616761696e202121a2646970667358221220bb47c793b7cbfd5afd9223ab9254aec7cc62c3e7d639d43c6034058f6a930bb264736f6c634300080d0033",
					"opcodes": "PUSH1 0x80 PUSH1 0x40 MSTORE CALLVALUE DUP1 ISZERO PUSH2 0x10 JUMPI PUSH1 0x0 DUP1 REVERT JUMPDEST POP PUSH1 0x0 DUP1 DUP2 SWAP1 SSTORE POP PUSH2 0x17AB DUP1 PUSH2 0x27 PUSH1 0x0 CODECOPY PUSH1 0x0 RETURN INVALID PUSH1 0x80 PUSH1 0x40 MSTORE CALLVALUE DUP1 ISZERO PUSH2 0x10 JUMPI PUSH1 0x0 DUP1 REVERT JUMPDEST POP PUSH1 0x4 CALLDATASIZE LT PUSH2 0x93 JUMPI PUSH1 0x0 CALLDATALOAD PUSH1 0xE0 SHR DUP1 PUSH4 0x681F3E6D GT PUSH2 0x66 JUMPI DUP1 PUSH4 0x681F3E6D EQ PUSH2 0x14A JUMPI DUP1 PUSH4 0xB4BFC3A5 EQ PUSH2 0x168 JUMPI DUP1 PUSH4 0xC127AE41 EQ PUSH2 0x198 JUMPI DUP1 PUSH4 0xEBC3EEE8 EQ PUSH2 0x1B6 JUMPI DUP1 PUSH4 0xFF3A9C7E EQ PUSH2 0x1D4 JUMPI PUSH2 0x93 JUMP JUMPDEST DUP1 PUSH4 0x107046BD EQ PUSH2 0x98 JUMPI DUP1 PUSH4 0x12679323 EQ PUSH2 0xCC JUMPI DUP1 PUSH4 0x58467DBC EQ PUSH2 0xEA JUMPI DUP1 PUSH4 0x5A09007B EQ PUSH2 0x11A JUMPI JUMPDEST PUSH1 0x0 DUP1 REVERT JUMPDEST PUSH2 0xB2 PUSH1 0x4 DUP1 CALLDATASIZE SUB DUP2 ADD SWAP1 PUSH2 0xAD SWAP2 SWAP1 PUSH2 0x109B JUMP JUMPDEST PUSH2 0x1F2 JUMP JUMPDEST PUSH1 0x40 MLOAD PUSH2 0xC3 SWAP6 SWAP5 SWAP4 SWAP3 SWAP2 SWAP1 PUSH2 0x11A2 JUMP JUMPDEST PUSH1 0x40 MLOAD DUP1 SWAP2 SUB SWAP1 RETURN JUMPDEST PUSH2 0xD4 PUSH2 0x478 JUMP JUMPDEST PUSH1 0x40 MLOAD PUSH2 0xE1 SWAP2 SWAP1 PUSH2 0x1220 JUMP JUMPDEST PUSH1 0x40 MLOAD DUP1 SWAP2 SUB SWAP1 RETURN JUMPDEST PUSH2 0x104 PUSH1 0x4 DUP1 CALLDATASIZE SUB DUP2 ADD SWAP1 PUSH2 0xFF SWAP2 SWAP1 PUSH2 0x1370 JUMP JUMPDEST PUSH2 0x47E JUMP JUMPDEST PUSH1 0x40 MLOAD PUSH2 0x111 SWAP2 SWAP1 PUSH2 0x13E8 JUMP JUMPDEST PUSH1 0x40 MLOAD DUP1 SWAP2 SUB SWAP1 RETURN JUMPDEST PUSH2 0x134 PUSH1 0x4 DUP1 CALLDATASIZE SUB DUP2 ADD SWAP1 PUSH2 0x12F SWAP2 SWAP1 PUSH2 0x140A JUMP JUMPDEST PUSH2 0x5B8 JUMP JUMPDEST PUSH1 0x40 MLOAD PUSH2 0x141 SWAP2 SWAP1 PUSH2 0x13E8 JUMP JUMPDEST PUSH1 0x40 MLOAD DUP1 SWAP2 SUB SWAP1 RETURN JUMPDEST PUSH2 0x152 PUSH2 0x846 JUMP JUMPDEST PUSH1 0x40 MLOAD PUSH2 0x15F SWAP2 SWAP1 PUSH2 0x13E8 JUMP JUMPDEST PUSH1 0x40 MLOAD DUP1 SWAP2 SUB SWAP1 RETURN JUMPDEST PUSH2 0x182 PUSH1 0x4 DUP1 CALLDATASIZE SUB DUP2 ADD SWAP1 PUSH2 0x17D SWAP2 SWAP1 PUSH2 0x1511 JUMP JUMPDEST PUSH2 0x918 JUMP JUMPDEST PUSH1 0x40 MLOAD PUSH2 0x18F SWAP2 SWAP1 PUSH2 0x13E8 JUMP JUMPDEST PUSH1 0x40 MLOAD DUP1 SWAP2 SUB SWAP1 RETURN JUMPDEST PUSH2 0x1A0 PUSH2 0xCD8 JUMP JUMPDEST PUSH1 0x40 MLOAD PUSH2 0x1AD SWAP2 SWAP1 PUSH2 0x13E8 JUMP JUMPDEST PUSH1 0x40 MLOAD DUP1 SWAP2 SUB SWAP1 RETURN JUMPDEST PUSH2 0x1BE PUSH2 0xE7A JUMP JUMPDEST PUSH1 0x40 MLOAD PUSH2 0x1CB SWAP2 SWAP1 PUSH2 0x15E8 JUMP JUMPDEST PUSH1 0x40 MLOAD DUP1 SWAP2 SUB SWAP1 RETURN JUMPDEST PUSH2 0x1DC PUSH2 0xEE4 JUMP JUMPDEST PUSH1 0x40 MLOAD PUSH2 0x1E9 SWAP2 SWAP1 PUSH2 0x13E8 JUMP JUMPDEST PUSH1 0x40 MLOAD DUP1 SWAP2 SUB SWAP1 RETURN JUMPDEST PUSH1 0x3 DUP2 DUP2 SLOAD DUP2 LT PUSH2 0x202 JUMPI PUSH1 0x0 DUP1 REVERT JUMPDEST SWAP1 PUSH1 0x0 MSTORE PUSH1 0x20 PUSH1 0x0 KECCAK256 SWAP1 PUSH1 0x5 MUL ADD PUSH1 0x0 SWAP2 POP SWAP1 POP DUP1 PUSH1 0x0 ADD DUP1 SLOAD PUSH2 0x225 SWAP1 PUSH2 0x1632 JUMP JUMPDEST DUP1 PUSH1 0x1F ADD PUSH1 0x20 DUP1 SWAP2 DIV MUL PUSH1 0x20 ADD PUSH1 0x40 MLOAD SWAP1 DUP2 ADD PUSH1 0x40 MSTORE DUP1 SWAP3 SWAP2 SWAP1 DUP2 DUP2 MSTORE PUSH1 0x20 ADD DUP3 DUP1 SLOAD PUSH2 0x251 SWAP1 PUSH2 0x1632 JUMP JUMPDEST DUP1 ISZERO PUSH2 0x29E JUMPI DUP1 PUSH1 0x1F LT PUSH2 0x273 JUMPI PUSH2 0x100 DUP1 DUP4 SLOAD DIV MUL DUP4 MSTORE SWAP2 PUSH1 0x20 ADD SWAP2 PUSH2 0x29E JUMP JUMPDEST DUP3 ADD SWAP2 SWAP1 PUSH1 0x0 MSTORE PUSH1 0x20 PUSH1 0x0 KECCAK256 SWAP1 JUMPDEST DUP2 SLOAD DUP2 MSTORE SWAP1 PUSH1 0x1 ADD SWAP1 PUSH1 0x20 ADD DUP1 DUP4 GT PUSH2 0x281 JUMPI DUP3 SWAP1 SUB PUSH1 0x1F AND DUP3 ADD SWAP2 JUMPDEST POP POP POP POP POP SWAP1 DUP1 PUSH1 0x1 ADD DUP1 SLOAD PUSH2 0x2B3 SWAP1 PUSH2 0x1632 JUMP JUMPDEST DUP1 PUSH1 0x1F ADD PUSH1 0x20 DUP1 SWAP2 DIV MUL PUSH1 0x20 ADD PUSH1 0x40 MLOAD SWAP1 DUP2 ADD PUSH1 0x40 MSTORE DUP1 SWAP3 SWAP2 SWAP1 DUP2 DUP2 MSTORE PUSH1 0x20 ADD DUP3 DUP1 SLOAD PUSH2 0x2DF SWAP1 PUSH2 0x1632 JUMP JUMPDEST DUP1 ISZERO PUSH2 0x32C JUMPI DUP1 PUSH1 0x1F LT PUSH2 0x301 JUMPI PUSH2 0x100 DUP1 DUP4 SLOAD DIV MUL DUP4 MSTORE SWAP2 PUSH1 0x20 ADD SWAP2 PUSH2 0x32C JUMP JUMPDEST DUP3 ADD SWAP2 SWAP1 PUSH1 0x0 MSTORE PUSH1 0x20 PUSH1 0x0 KECCAK256 SWAP1 JUMPDEST DUP2 SLOAD DUP2 MSTORE SWAP1 PUSH1 0x1 ADD SWAP1 PUSH1 0x20 ADD DUP1 DUP4 GT PUSH2 0x30F JUMPI DUP3 SWAP1 SUB PUSH1 0x1F AND DUP3 ADD SWAP2 JUMPDEST POP POP POP POP POP SWAP1 DUP1 PUSH1 0x2 ADD DUP1 SLOAD PUSH2 0x341 SWAP1 PUSH2 0x1632 JUMP JUMPDEST DUP1 PUSH1 0x1F ADD PUSH1 0x20 DUP1 SWAP2 DIV MUL PUSH1 0x20 ADD PUSH1 0x40 MLOAD SWAP1 DUP2 ADD PUSH1 0x40 MSTORE DUP1 SWAP3 SWAP2 SWAP1 DUP2 DUP2 MSTORE PUSH1 0x20 ADD DUP3 DUP1 SLOAD PUSH2 0x36D SWAP1 PUSH2 0x1632 JUMP JUMPDEST DUP1 ISZERO PUSH2 0x3BA JUMPI DUP1 PUSH1 0x1F LT PUSH2 0x38F JUMPI PUSH2 0x100 DUP1 DUP4 SLOAD DIV MUL DUP4 MSTORE SWAP2 PUSH1 0x20 ADD SWAP2 PUSH2 0x3BA JUMP JUMPDEST DUP3 ADD SWAP2 SWAP1 PUSH1 0x0 MSTORE PUSH1 0x20 PUSH1 0x0 KECCAK256 SWAP1 JUMPDEST DUP2 SLOAD DUP2 MSTORE SWAP1 PUSH1 0x1 ADD SWAP1 PUSH1 0x20 ADD DUP1 DUP4 GT PUSH2 0x39D JUMPI DUP3 SWAP1 SUB PUSH1 0x1F AND DUP3 ADD SWAP2 JUMPDEST POP POP POP POP POP SWAP1 DUP1 PUSH1 0x3 ADD DUP1 SLOAD PUSH2 0x3CF SWAP1 PUSH2 0x1632 JUMP JUMPDEST DUP1 PUSH1 0x1F ADD PUSH1 0x20 DUP1 SWAP2 DIV MUL PUSH1 0x20 ADD PUSH1 0x40 MLOAD SWAP1 DUP2 ADD PUSH1 0x40 MSTORE DUP1 SWAP3 SWAP2 SWAP1 DUP2 DUP2 MSTORE PUSH1 0x20 ADD DUP3 DUP1 SLOAD PUSH2 0x3FB SWAP1 PUSH2 0x1632 JUMP JUMPDEST DUP1 ISZERO PUSH2 0x448 JUMPI DUP1 PUSH1 0x1F LT PUSH2 0x41D JUMPI PUSH2 0x100 DUP1 DUP4 SLOAD DIV MUL DUP4 MSTORE SWAP2 PUSH1 0x20 ADD SWAP2 PUSH2 0x448 JUMP JUMPDEST DUP3 ADD SWAP2 SWAP1 PUSH1 0x0 MSTORE PUSH1 0x20 PUSH1 0x0 KECCAK256 SWAP1 JUMPDEST DUP2 SLOAD DUP2 MSTORE SWAP1 PUSH1 0x1 ADD SWAP1 PUSH1 0x20 ADD DUP1 DUP4 GT PUSH2 0x42B JUMPI DUP3 SWAP1 SUB PUSH1 0x1F AND DUP3 ADD SWAP2 JUMPDEST POP POP POP POP POP SWAP1 DUP1 PUSH1 0x4 ADD PUSH1 0x0 SWAP1 SLOAD SWAP1 PUSH2 0x100 EXP SWAP1 DIV PUSH20 0xFFFFFFFFFFFFFFFFFFFFFFFFFFFFFFFFFFFFFFFF AND SWAP1 POP DUP6 JUMP JUMPDEST PUSH1 0x0 SLOAD DUP2 JUMP JUMPDEST PUSH1 0x60 PUSH1 0x0 PUSH2 0x48A PUSH2 0x846 JUMP JUMPDEST SWAP1 POP PUSH1 0x0 PUSH1 0x1 PUSH1 0x0 CALLER PUSH20 0xFFFFFFFFFFFFFFFFFFFFFFFFFFFFFFFFFFFFFFFF AND PUSH20 0xFFFFFFFFFFFFFFFFFFFFFFFFFFFFFFFFFFFFFFFF AND DUP2 MSTORE PUSH1 0x20 ADD SWAP1 DUP2 MSTORE PUSH1 0x20 ADD PUSH1 0x0 KECCAK256 PUSH1 0x3 ADD DUP1 SLOAD PUSH2 0x4DB SWAP1 PUSH2 0x1632 JUMP JUMPDEST DUP1 PUSH1 0x1F ADD PUSH1 0x20 DUP1 SWAP2 DIV MUL PUSH1 0x20 ADD PUSH1 0x40 MLOAD SWAP1 DUP2 ADD PUSH1 0x40 MSTORE DUP1 SWAP3 SWAP2 SWAP1 DUP2 DUP2 MSTORE PUSH1 0x20 ADD DUP3 DUP1 SLOAD PUSH2 0x507 SWAP1 PUSH2 0x1632 JUMP JUMPDEST DUP1 ISZERO PUSH2 0x554 JUMPI DUP1 PUSH1 0x1F LT PUSH2 0x529 JUMPI PUSH2 0x100 DUP1 DUP4 SLOAD DIV MUL DUP4 MSTORE SWAP2 PUSH1 0x20 ADD SWAP2 PUSH2 0x554 JUMP JUMPDEST DUP3 ADD SWAP2 SWAP1 PUSH1 0x0 MSTORE PUSH1 0x20 PUSH1 0x0 KECCAK256 SWAP1 JUMPDEST DUP2 SLOAD DUP2 MSTORE SWAP1 PUSH1 0x1 ADD SWAP1 PUSH1 0x20 ADD DUP1 DUP4 GT PUSH2 0x537 JUMPI DUP3 SWAP1 SUB PUSH1 0x1F AND DUP3 ADD SWAP2 JUMPDEST POP POP POP POP POP SWAP1 POP DUP5 DUP1 MLOAD SWAP1 PUSH1 0x20 ADD KECCAK256 DUP3 DUP1 MLOAD SWAP1 PUSH1 0x20 ADD KECCAK256 EQ DUP1 ISZERO PUSH2 0x585 JUMPI POP DUP4 DUP1 MLOAD SWAP1 PUSH1 0x20 ADD KECCAK256 DUP2 DUP1 MLOAD SWAP1 PUSH1 0x20 ADD KECCAK256 EQ JUMPDEST ISZERO PUSH2 0x594 JUMPI DUP5 SWAP3 POP POP POP PUSH2 0x5B2 JUMP JUMPDEST PUSH1 0x40 MLOAD DUP1 PUSH1 0x60 ADD PUSH1 0x40 MSTORE DUP1 PUSH1 0x2F DUP2 MSTORE PUSH1 0x20 ADD PUSH2 0x1747 PUSH1 0x2F SWAP2 CODECOPY SWAP3 POP POP POP JUMPDEST SWAP3 SWAP2 POP POP JUMP JUMPDEST PUSH1 0x60 DUP6 PUSH1 0x1 PUSH1 0x0 CALLER PUSH20 0xFFFFFFFFFFFFFFFFFFFFFFFFFFFFFFFFFFFFFFFF AND PUSH20 0xFFFFFFFFFFFFFFFFFFFFFFFFFFFFFFFFFFFFFFFF AND DUP2 MSTORE PUSH1 0x20 ADD SWAP1 DUP2 MSTORE PUSH1 0x20 ADD PUSH1 0x0 KECCAK256 PUSH1 0x0 ADD SWAP1 DUP1 MLOAD SWAP1 PUSH1 0x20 ADD SWAP1 PUSH2 0x610 SWAP3 SWAP2 SWAP1 PUSH2 0xF21 JUMP JUMPDEST POP DUP5 PUSH1 0x1 PUSH1 0x0 CALLER PUSH20 0xFFFFFFFFFFFFFFFFFFFFFFFFFFFFFFFFFFFFFFFF AND PUSH20 0xFFFFFFFFFFFFFFFFFFFFFFFFFFFFFFFFFFFFFFFF AND DUP2 MSTORE PUSH1 0x20 ADD SWAP1 DUP2 MSTORE PUSH1 0x20 ADD PUSH1 0x0 KECCAK256 PUSH1 0x1 ADD SWAP1 DUP1 MLOAD SWAP1 PUSH1 0x20 ADD SWAP1 PUSH2 0x667 SWAP3 SWAP2 SWAP1 PUSH2 0xF21 JUMP JUMPDEST POP CALLER PUSH1 0x1 PUSH1 0x0 CALLER PUSH20 0xFFFFFFFFFFFFFFFFFFFFFFFFFFFFFFFFFFFFFFFF AND PUSH20 0xFFFFFFFFFFFFFFFFFFFFFFFFFFFFFFFFFFFFFFFF AND DUP2 MSTORE PUSH1 0x20 ADD SWAP1 DUP2 MSTORE PUSH1 0x20 ADD PUSH1 0x0 KECCAK256 PUSH1 0x5 ADD PUSH1 0x0 PUSH2 0x100 EXP DUP2 SLOAD DUP2 PUSH20 0xFFFFFFFFFFFFFFFFFFFFFFFFFFFFFFFFFFFFFFFF MUL NOT AND SWAP1 DUP4 PUSH20 0xFFFFFFFFFFFFFFFFFFFFFFFFFFFFFFFFFFFFFFFF AND MUL OR SWAP1 SSTORE POP DUP4 PUSH1 0x1 PUSH1 0x0 CALLER PUSH20 0xFFFFFFFFFFFFFFFFFFFFFFFFFFFFFFFFFFFFFFFF AND PUSH20 0xFFFFFFFFFFFFFFFFFFFFFFFFFFFFFFFFFFFFFFFF AND DUP2 MSTORE PUSH1 0x20 ADD SWAP1 DUP2 MSTORE PUSH1 0x20 ADD PUSH1 0x0 KECCAK256 PUSH1 0x2 ADD SWAP1 DUP1 MLOAD SWAP1 PUSH1 0x20 ADD SWAP1 PUSH2 0x73F SWAP3 SWAP2 SWAP1 PUSH2 0xF21 JUMP JUMPDEST POP DUP3 PUSH1 0x1 PUSH1 0x0 CALLER PUSH20 0xFFFFFFFFFFFFFFFFFFFFFFFFFFFFFFFFFFFFFFFF AND PUSH20 0xFFFFFFFFFFFFFFFFFFFFFFFFFFFFFFFFFFFFFFFF AND DUP2 MSTORE PUSH1 0x20 ADD SWAP1 DUP2 MSTORE PUSH1 0x20 ADD PUSH1 0x0 KECCAK256 PUSH1 0x3 ADD SWAP1 DUP1 MLOAD SWAP1 PUSH1 0x20 ADD SWAP1 PUSH2 0x796 SWAP3 SWAP2 SWAP1 PUSH2 0xF21 JUMP JUMPDEST POP DUP2 PUSH1 0x1 PUSH1 0x0 CALLER PUSH20 0xFFFFFFFFFFFFFFFFFFFFFFFFFFFFFFFFFFFFFFFF AND PUSH20 0xFFFFFFFFFFFFFFFFFFFFFFFFFFFFFFFFFFFFFFFF AND DUP2 MSTORE PUSH1 0x20 ADD SWAP1 DUP2 MSTORE PUSH1 0x20 ADD PUSH1 0x0 KECCAK256 PUSH1 0x4 ADD SWAP1 DUP1 MLOAD SWAP1 PUSH1 0x20 ADD SWAP1 PUSH2 0x7ED SWAP3 SWAP2 SWAP1 PUSH2 0xF21 JUMP JUMPDEST POP PUSH1 0x0 DUP1 DUP2 SLOAD DUP1 SWAP3 SWAP2 SWAP1 PUSH2 0x800 SWAP1 PUSH2 0x1692 JUMP JUMPDEST SWAP2 SWAP1 POP SSTORE POP PUSH1 0x40 MLOAD DUP1 PUSH1 0x40 ADD PUSH1 0x40 MSTORE DUP1 PUSH1 0x17 DUP2 MSTORE PUSH1 0x20 ADD PUSH32 0x5375636365737366756C6C792052656769737465726564000000000000000000 DUP2 MSTORE POP SWAP1 POP SWAP6 SWAP5 POP POP POP POP POP JUMP JUMPDEST PUSH1 0x60 PUSH1 0x1 PUSH1 0x0 CALLER PUSH20 0xFFFFFFFFFFFFFFFFFFFFFFFFFFFFFFFFFFFFFFFF AND PUSH20 0xFFFFFFFFFFFFFFFFFFFFFFFFFFFFFFFFFFFFFFFF AND DUP2 MSTORE PUSH1 0x20 ADD SWAP1 DUP2 MSTORE PUSH1 0x20 ADD PUSH1 0x0 KECCAK256 PUSH1 0x2 ADD DUP1 SLOAD PUSH2 0x895 SWAP1 PUSH2 0x1632 JUMP JUMPDEST DUP1 PUSH1 0x1F ADD PUSH1 0x20 DUP1 SWAP2 DIV MUL PUSH1 0x20 ADD PUSH1 0x40 MLOAD SWAP1 DUP2 ADD PUSH1 0x40 MSTORE DUP1 SWAP3 SWAP2 SWAP1 DUP2 DUP2 MSTORE PUSH1 0x20 ADD DUP3 DUP1 SLOAD PUSH2 0x8C1 SWAP1 PUSH2 0x1632 JUMP JUMPDEST DUP1 ISZERO PUSH2 0x90E JUMPI DUP1 PUSH1 0x1F LT PUSH2 0x8E3 JUMPI PUSH2 0x100 DUP1 DUP4 SLOAD DIV MUL DUP4 MSTORE SWAP2 PUSH1 0x20 ADD SWAP2 PUSH2 0x90E JUMP JUMPDEST DUP3 ADD SWAP2 SWAP1 PUSH1 0x0 MSTORE PUSH1 0x20 PUSH1 0x0 KECCAK256 SWAP1 JUMPDEST DUP2 SLOAD DUP2 MSTORE SWAP1 PUSH1 0x1 ADD SWAP1 PUSH1 0x20 ADD DUP1 DUP4 GT PUSH2 0x8F1 JUMPI DUP3 SWAP1 SUB PUSH1 0x1F AND DUP3 ADD SWAP2 JUMPDEST POP POP POP POP POP SWAP1 POP SWAP1 JUMP JUMPDEST PUSH1 0x60 PUSH1 0x0 PUSH2 0x924 PUSH2 0x846 JUMP JUMPDEST MLOAD EQ PUSH2 0xC97 JUMPI DUP5 PUSH1 0x2 PUSH1 0x0 CALLER PUSH20 0xFFFFFFFFFFFFFFFFFFFFFFFFFFFFFFFFFFFFFFFF AND PUSH20 0xFFFFFFFFFFFFFFFFFFFFFFFFFFFFFFFFFFFFFFFF AND DUP2 MSTORE PUSH1 0x20 ADD SWAP1 DUP2 MSTORE PUSH1 0x20 ADD PUSH1 0x0 KECCAK256 PUSH1 0x0 ADD SWAP1 DUP1 MLOAD SWAP1 PUSH1 0x20 ADD SWAP1 PUSH2 0x980 SWAP3 SWAP2 SWAP1 PUSH2 0xF21 JUMP JUMPDEST POP DUP4 PUSH1 0x2 PUSH1 0x0 CALLER PUSH20 0xFFFFFFFFFFFFFFFFFFFFFFFFFFFFFFFFFFFFFFFF AND PUSH20 0xFFFFFFFFFFFFFFFFFFFFFFFFFFFFFFFFFFFFFFFF AND DUP2 MSTORE PUSH1 0x20 ADD SWAP1 DUP2 MSTORE PUSH1 0x20 ADD PUSH1 0x0 KECCAK256 PUSH1 0x1 ADD SWAP1 DUP1 MLOAD SWAP1 PUSH1 0x20 ADD SWAP1 PUSH2 0x9D7 SWAP3 SWAP2 SWAP1 PUSH2 0xF21 JUMP JUMPDEST POP DUP3 PUSH1 0x2 PUSH1 0x0 CALLER PUSH20 0xFFFFFFFFFFFFFFFFFFFFFFFFFFFFFFFFFFFFFFFF AND PUSH20 0xFFFFFFFFFFFFFFFFFFFFFFFFFFFFFFFFFFFFFFFF AND DUP2 MSTORE PUSH1 0x20 ADD SWAP1 DUP2 MSTORE PUSH1 0x20 ADD PUSH1 0x0 KECCAK256 PUSH1 0x2 ADD SWAP1 DUP1 MLOAD SWAP1 PUSH1 0x20 ADD SWAP1 PUSH2 0xA2E SWAP3 SWAP2 SWAP1 PUSH2 0xF21 JUMP JUMPDEST POP DUP2 PUSH1 0x2 PUSH1 0x0 CALLER PUSH20 0xFFFFFFFFFFFFFFFFFFFFFFFFFFFFFFFFFFFFFFFF AND PUSH20 0xFFFFFFFFFFFFFFFFFFFFFFFFFFFFFFFFFFFFFFFF AND DUP2 MSTORE PUSH1 0x20 ADD SWAP1 DUP2 MSTORE PUSH1 0x20 ADD PUSH1 0x0 KECCAK256 PUSH1 0x3 ADD SWAP1 DUP1 MLOAD SWAP1 PUSH1 0x20 ADD SWAP1 PUSH2 0xA85 SWAP3 SWAP2 SWAP1 PUSH2 0xF21 JUMP JUMPDEST POP CALLER PUSH1 0x2 PUSH1 0x0 CALLER PUSH20 0xFFFFFFFFFFFFFFFFFFFFFFFFFFFFFFFFFFFFFFFF AND PUSH20 0xFFFFFFFFFFFFFFFFFFFFFFFFFFFFFFFFFFFFFFFF AND DUP2 MSTORE PUSH1 0x20 ADD SWAP1 DUP2 MSTORE PUSH1 0x20 ADD PUSH1 0x0 KECCAK256 PUSH1 0x4 ADD PUSH1 0x0 PUSH2 0x100 EXP DUP2 SLOAD DUP2 PUSH20 0xFFFFFFFFFFFFFFFFFFFFFFFFFFFFFFFFFFFFFFFF MUL NOT AND SWAP1 DUP4 PUSH20 0xFFFFFFFFFFFFFFFFFFFFFFFFFFFFFFFFFFFFFFFF AND MUL OR SWAP1 SSTORE POP PUSH1 0x3 PUSH1 0x2 PUSH1 0x0 CALLER PUSH20 0xFFFFFFFFFFFFFFFFFFFFFFFFFFFFFFFFFFFFFFFF AND PUSH20 0xFFFFFFFFFFFFFFFFFFFFFFFFFFFFFFFFFFFFFFFF AND DUP2 MSTORE PUSH1 0x20 ADD SWAP1 DUP2 MSTORE PUSH1 0x20 ADD PUSH1 0x0 KECCAK256 SWAP1 DUP1 PUSH1 0x1 DUP2 SLOAD ADD DUP1 DUP3 SSTORE DUP1 SWAP2 POP POP PUSH1 0x1 SWAP1 SUB SWAP1 PUSH1 0x0 MSTORE PUSH1 0x20 PUSH1 0x0 KECCAK256 SWAP1 PUSH1 0x5 MUL ADD PUSH1 0x0 SWAP1 SWAP2 SWAP1 SWAP2 SWAP1 SWAP2 POP PUSH1 0x0 DUP3 ADD DUP2 PUSH1 0x0 ADD SWAP1 DUP1 SLOAD PUSH2 0xB85 SWAP1 PUSH2 0x1632 JUMP JUMPDEST PUSH2 0xB90 SWAP3 SWAP2 SWAP1 PUSH2 0xFA7 JUMP JUMPDEST POP PUSH1 0x1 DUP3 ADD DUP2 PUSH1 0x1 ADD SWAP1 DUP1 SLOAD PUSH2 0xBA5 SWAP1 PUSH2 0x1632 JUMP JUMPDEST PUSH2 0xBB0 SWAP3 SWAP2 SWAP1 PUSH2 0xFA7 JUMP JUMPDEST POP PUSH1 0x2 DUP3 ADD DUP2 PUSH1 0x2 ADD SWAP1 DUP1 SLOAD PUSH2 0xBC5 SWAP1 PUSH2 0x1632 JUMP JUMPDEST PUSH2 0xBD0 SWAP3 SWAP2 SWAP1 PUSH2 0xFA7 JUMP JUMPDEST POP PUSH1 0x3 DUP3 ADD DUP2 PUSH1 0x3 ADD SWAP1 DUP1 SLOAD PUSH2 0xBE5 SWAP1 PUSH2 0x1632 JUMP JUMPDEST PUSH2 0xBF0 SWAP3 SWAP2 SWAP1 PUSH2 0xFA7 JUMP JUMPDEST POP PUSH1 0x4 DUP3 ADD PUSH1 0x0 SWAP1 SLOAD SWAP1 PUSH2 0x100 EXP SWAP1 DIV PUSH20 0xFFFFFFFFFFFFFFFFFFFFFFFFFFFFFFFFFFFFFFFF AND DUP2 PUSH1 0x4 ADD PUSH1 0x0 PUSH2 0x100 EXP DUP2 SLOAD DUP2 PUSH20 0xFFFFFFFFFFFFFFFFFFFFFFFFFFFFFFFFFFFFFFFF MUL NOT AND SWAP1 DUP4 PUSH20 0xFFFFFFFFFFFFFFFFFFFFFFFFFFFFFFFFFFFFFFFF AND MUL OR SWAP1 SSTORE POP POP POP PUSH1 0x40 MLOAD DUP1 PUSH1 0x40 ADD PUSH1 0x40 MSTORE DUP1 PUSH1 0x1A DUP2 MSTORE PUSH1 0x20 ADD PUSH32 0x50726F6A656374205361766564205375636365737366756C6C79000000000000 DUP2 MSTORE POP SWAP1 POP PUSH2 0xCD0 JUMP JUMPDEST PUSH1 0x40 MLOAD DUP1 PUSH1 0x40 ADD PUSH1 0x40 MSTORE DUP1 PUSH1 0x14 DUP2 MSTORE PUSH1 0x20 ADD PUSH32 0x4572726F7220536176696E672050726F6A656374000000000000000000000000 DUP2 MSTORE POP SWAP1 POP JUMPDEST SWAP5 SWAP4 POP POP POP POP JUMP JUMPDEST PUSH1 0x60 PUSH1 0x1 PUSH1 0x0 CALLER PUSH20 0xFFFFFFFFFFFFFFFFFFFFFFFFFFFFFFFFFFFFFFFF AND PUSH20 0xFFFFFFFFFFFFFFFFFFFFFFFFFFFFFFFFFFFFFFFF AND DUP2 MSTORE PUSH1 0x20 ADD SWAP1 DUP2 MSTORE PUSH1 0x20 ADD PUSH1 0x0 KECCAK256 PUSH1 0x5 ADD PUSH1 0x0 SWAP1 SLOAD SWAP1 PUSH2 0x100 EXP SWAP1 DIV PUSH20 0xFFFFFFFFFFFFFFFFFFFFFFFFFFFFFFFFFFFFFFFF AND PUSH20 0xFFFFFFFFFFFFFFFFFFFFFFFFFFFFFFFFFFFFFFFF AND CALLER PUSH20 0xFFFFFFFFFFFFFFFFFFFFFFFFFFFFFFFFFFFFFFFF AND EQ PUSH2 0xDAA JUMPI PUSH1 0x40 MLOAD PUSH32 0x8C379A000000000000000000000000000000000000000000000000000000000 DUP2 MSTORE PUSH1 0x4 ADD PUSH2 0xDA1 SWAP1 PUSH2 0x1726 JUMP JUMPDEST PUSH1 0x40 MLOAD DUP1 SWAP2 SUB SWAP1 REVERT JUMPDEST PUSH1 0x1 PUSH1 0x0 CALLER PUSH20 0xFFFFFFFFFFFFFFFFFFFFFFFFFFFFFFFFFFFFFFFF AND PUSH20 0xFFFFFFFFFFFFFFFFFFFFFFFFFFFFFFFFFFFFFFFF AND DUP2 MSTORE PUSH1 0x20 ADD SWAP1 DUP2 MSTORE PUSH1 0x20 ADD PUSH1 0x0 KECCAK256 PUSH1 0x0 ADD DUP1 SLOAD PUSH2 0xDF7 SWAP1 PUSH2 0x1632 JUMP JUMPDEST DUP1 PUSH1 0x1F ADD PUSH1 0x20 DUP1 SWAP2 DIV MUL PUSH1 0x20 ADD PUSH1 0x40 MLOAD SWAP1 DUP2 ADD PUSH1 0x40 MSTORE DUP1 SWAP3 SWAP2 SWAP1 DUP2 DUP2 MSTORE PUSH1 0x20 ADD DUP3 DUP1 SLOAD PUSH2 0xE23 SWAP1 PUSH2 0x1632 JUMP JUMPDEST DUP1 ISZERO PUSH2 0xE70 JUMPI DUP1 PUSH1 0x1F LT PUSH2 0xE45 JUMPI PUSH2 0x100 DUP1 DUP4 SLOAD DIV MUL DUP4 MSTORE SWAP2 PUSH1 0x20 ADD SWAP2 PUSH2 0xE70 JUMP JUMPDEST DUP3 ADD SWAP2 SWAP1 PUSH1 0x0 MSTORE PUSH1 0x20 PUSH1 0x0 KECCAK256 SWAP1 JUMPDEST DUP2 SLOAD DUP2 MSTORE SWAP1 PUSH1 0x1 ADD SWAP1 PUSH1 0x20 ADD DUP1 DUP4 GT PUSH2 0xE53 JUMPI DUP3 SWAP1 SUB PUSH1 0x1F AND DUP3 ADD SWAP2 JUMPDEST POP POP POP POP POP SWAP1 POP SWAP1 JUMP JUMPDEST PUSH1 0x0 PUSH1 0x1 PUSH1 0x0 CALLER PUSH20 0xFFFFFFFFFFFFFFFFFFFFFFFFFFFFFFFFFFFFFFFF AND PUSH20 0xFFFFFFFFFFFFFFFFFFFFFFFFFFFFFFFFFFFFFFFF AND DUP2 MSTORE PUSH1 0x20 ADD SWAP1 DUP2 MSTORE PUSH1 0x20 ADD PUSH1 0x0 KECCAK256 PUSH1 0x5 ADD PUSH1 0x0 SWAP1 SLOAD SWAP1 PUSH2 0x100 EXP SWAP1 DIV PUSH20 0xFFFFFFFFFFFFFFFFFFFFFFFFFFFFFFFFFFFFFFFF AND SWAP1 POP SWAP1 JUMP JUMPDEST PUSH1 0x60 PUSH1 0x40 MLOAD DUP1 PUSH1 0x40 ADD PUSH1 0x40 MSTORE DUP1 PUSH1 0x8 DUP2 MSTORE PUSH1 0x20 ADD PUSH32 0x70726F6A65637473000000000000000000000000000000000000000000000000 DUP2 MSTORE POP SWAP1 POP SWAP1 JUMP JUMPDEST DUP3 DUP1 SLOAD PUSH2 0xF2D SWAP1 PUSH2 0x1632 JUMP JUMPDEST SWAP1 PUSH1 0x0 MSTORE PUSH1 0x20 PUSH1 0x0 KECCAK256 SWAP1 PUSH1 0x1F ADD PUSH1 0x20 SWAP1 DIV DUP2 ADD SWAP3 DUP3 PUSH2 0xF4F JUMPI PUSH1 0x0 DUP6 SSTORE PUSH2 0xF96 JUMP JUMPDEST DUP3 PUSH1 0x1F LT PUSH2 0xF68 JUMPI DUP1 MLOAD PUSH1 0xFF NOT AND DUP4 DUP1 ADD OR DUP6 SSTORE PUSH2 0xF96 JUMP JUMPDEST DUP3 DUP1 ADD PUSH1 0x1 ADD DUP6 SSTORE DUP3 ISZERO PUSH2 0xF96 JUMPI SWAP2 DUP3 ADD JUMPDEST DUP3 DUP2 GT ISZERO PUSH2 0xF95 JUMPI DUP3 MLOAD DUP3 SSTORE SWAP2 PUSH1 0x20 ADD SWAP2 SWAP1 PUSH1 0x1 ADD SWAP1 PUSH2 0xF7A JUMP JUMPDEST JUMPDEST POP SWAP1 POP PUSH2 0xFA3 SWAP2 SWAP1 PUSH2 0x1034 JUMP JUMPDEST POP SWAP1 JUMP JUMPDEST DUP3 DUP1 SLOAD PUSH2 0xFB3 SWAP1 PUSH2 0x1632 JUMP JUMPDEST SWAP1 PUSH1 0x0 MSTORE PUSH1 0x20 PUSH1 0x0 KECCAK256 SWAP1 PUSH1 0x1F ADD PUSH1 0x20 SWAP1 DIV DUP2 ADD SWAP3 DUP3 PUSH2 0xFD5 JUMPI PUSH1 0x0 DUP6 SSTORE PUSH2 0x1023 JUMP JUMPDEST DUP3 PUSH1 0x1F LT PUSH2 0xFE6 JUMPI DUP1 SLOAD DUP6 SSTORE PUSH2 0x1023 JUMP JUMPDEST DUP3 DUP1 ADD PUSH1 0x1 ADD DUP6 SSTORE DUP3 ISZERO PUSH2 0x1023 JUMPI PUSH1 0x0 MSTORE PUSH1 0x20 PUSH1 0x0 KECCAK256 SWAP2 PUSH1 0x1F ADD PUSH1 0x20 SWAP1 DIV DUP3 ADD JUMPDEST DUP3 DUP2 GT ISZERO PUSH2 0x1022 JUMPI DUP3 SLOAD DUP3 SSTORE SWAP2 PUSH1 0x1 ADD SWAP2 SWAP1 PUSH1 0x1 ADD SWAP1 PUSH2 0x1007 JUMP JUMPDEST JUMPDEST POP SWAP1 POP PUSH2 0x1030 SWAP2 SWAP1 PUSH2 0x1034 JUMP JUMPDEST POP SWAP1 JUMP JUMPDEST JUMPDEST DUP1 DUP3 GT ISZERO PUSH2 0x104D JUMPI PUSH1 0x0 DUP2 PUSH1 0x0 SWAP1 SSTORE POP PUSH1 0x1 ADD PUSH2 0x1035 JUMP JUMPDEST POP SWAP1 JUMP JUMPDEST PUSH1 0x0 PUSH1 0x40 MLOAD SWAP1 POP SWAP1 JUMP JUMPDEST PUSH1 0x0 DUP1 REVERT JUMPDEST PUSH1 0x0 DUP1 REVERT JUMPDEST PUSH1 0x0 DUP2 SWAP1 POP SWAP2 SWAP1 POP JUMP JUMPDEST PUSH2 0x1078 DUP2 PUSH2 0x1065 JUMP JUMPDEST DUP2 EQ PUSH2 0x1083 JUMPI PUSH1 0x0 DUP1 REVERT JUMPDEST POP JUMP JUMPDEST PUSH1 0x0 DUP2 CALLDATALOAD SWAP1 POP PUSH2 0x1095 DUP2 PUSH2 0x106F JUMP JUMPDEST SWAP3 SWAP2 POP POP JUMP JUMPDEST PUSH1 0x0 PUSH1 0x20 DUP3 DUP5 SUB SLT ISZERO PUSH2 0x10B1 JUMPI PUSH2 0x10B0 PUSH2 0x105B JUMP JUMPDEST JUMPDEST PUSH1 0x0 PUSH2 0x10BF DUP5 DUP3 DUP6 ADD PUSH2 0x1086 JUMP JUMPDEST SWAP2 POP POP SWAP3 SWAP2 POP POP JUMP JUMPDEST PUSH1 0x0 DUP2 MLOAD SWAP1 POP SWAP2 SWAP1 POP JUMP JUMPDEST PUSH1 0x0 DUP3 DUP3 MSTORE PUSH1 0x20 DUP3 ADD SWAP1 POP SWAP3 SWAP2 POP POP JUMP JUMPDEST PUSH1 0x0 JUMPDEST DUP4 DUP2 LT ISZERO PUSH2 0x1102 JUMPI DUP1 DUP3 ADD MLOAD DUP2 DUP5 ADD MSTORE PUSH1 0x20 DUP2 ADD SWAP1 POP PUSH2 0x10E7 JUMP JUMPDEST DUP4 DUP2 GT ISZERO PUSH2 0x1111 JUMPI PUSH1 0x0 DUP5 DUP5 ADD MSTORE JUMPDEST POP POP POP POP JUMP JUMPDEST PUSH1 0x0 PUSH1 0x1F NOT PUSH1 0x1F DUP4 ADD AND SWAP1 POP SWAP2 SWAP1 POP JUMP JUMPDEST PUSH1 0x0 PUSH2 0x1133 DUP3 PUSH2 0x10C8 JUMP JUMPDEST PUSH2 0x113D DUP2 DUP6 PUSH2 0x10D3 JUMP JUMPDEST SWAP4 POP PUSH2 0x114D DUP2 DUP6 PUSH1 0x20 DUP7 ADD PUSH2 0x10E4 JUMP JUMPDEST PUSH2 0x1156 DUP2 PUSH2 0x1117 JUMP JUMPDEST DUP5 ADD SWAP2 POP POP SWAP3 SWAP2 POP POP JUMP JUMPDEST PUSH1 0x0 PUSH20 0xFFFFFFFFFFFFFFFFFFFFFFFFFFFFFFFFFFFFFFFF DUP3 AND SWAP1 POP SWAP2 SWAP1 POP JUMP JUMPDEST PUSH1 0x0 PUSH2 0x118C DUP3 PUSH2 0x1161 JUMP JUMPDEST SWAP1 POP SWAP2 SWAP1 POP JUMP JUMPDEST PUSH2 0x119C DUP2 PUSH2 0x1181 JUMP JUMPDEST DUP3 MSTORE POP POP JUMP JUMPDEST PUSH1 0x0 PUSH1 0xA0 DUP3 ADD SWAP1 POP DUP2 DUP2 SUB PUSH1 0x0 DUP4 ADD MSTORE PUSH2 0x11BC DUP2 DUP9 PUSH2 0x1128 JUMP JUMPDEST SWAP1 POP DUP2 DUP2 SUB PUSH1 0x20 DUP4 ADD MSTORE PUSH2 0x11D0 DUP2 DUP8 PUSH2 0x1128 JUMP JUMPDEST SWAP1 POP DUP2 DUP2 SUB PUSH1 0x40 DUP4 ADD MSTORE PUSH2 0x11E4 DUP2 DUP7 PUSH2 0x1128 JUMP JUMPDEST SWAP1 POP DUP2 DUP2 SUB PUSH1 0x60 DUP4 ADD MSTORE PUSH2 0x11F8 DUP2 DUP6 PUSH2 0x1128 JUMP JUMPDEST SWAP1 POP PUSH2 0x1207 PUSH1 0x80 DUP4 ADD DUP5 PUSH2 0x1193 JUMP JUMPDEST SWAP7 SWAP6 POP POP POP POP POP POP JUMP JUMPDEST PUSH2 0x121A DUP2 PUSH2 0x1065 JUMP JUMPDEST DUP3 MSTORE POP POP JUMP JUMPDEST PUSH1 0x0 PUSH1 0x20 DUP3 ADD SWAP1 POP PUSH2 0x1235 PUSH1 0x0 DUP4 ADD DUP5 PUSH2 0x1211 JUMP JUMPDEST SWAP3 SWAP2 POP POP JUMP JUMPDEST PUSH1 0x0 DUP1 REVERT JUMPDEST PUSH1 0x0 DUP1 REVERT JUMPDEST PUSH32 0x4E487B7100000000000000000000000000000000000000000000000000000000 PUSH1 0x0 MSTORE PUSH1 0x41 PUSH1 0x4 MSTORE PUSH1 0x24 PUSH1 0x0 REVERT JUMPDEST PUSH2 0x127D DUP3 PUSH2 0x1117 JUMP JUMPDEST DUP2 ADD DUP2 DUP2 LT PUSH8 0xFFFFFFFFFFFFFFFF DUP3 GT OR ISZERO PUSH2 0x129C JUMPI PUSH2 0x129B PUSH2 0x1245 JUMP JUMPDEST JUMPDEST DUP1 PUSH1 0x40 MSTORE POP POP POP JUMP JUMPDEST PUSH1 0x0 PUSH2 0x12AF PUSH2 0x1051 JUMP JUMPDEST SWAP1 POP PUSH2 0x12BB DUP3 DUP3 PUSH2 0x1274 JUMP JUMPDEST SWAP2 SWAP1 POP JUMP JUMPDEST PUSH1 0x0 PUSH8 0xFFFFFFFFFFFFFFFF DUP3 GT ISZERO PUSH2 0x12DB JUMPI PUSH2 0x12DA PUSH2 0x1245 JUMP JUMPDEST JUMPDEST PUSH2 0x12E4 DUP3 PUSH2 0x1117 JUMP JUMPDEST SWAP1 POP PUSH1 0x20 DUP2 ADD SWAP1 POP SWAP2 SWAP1 POP JUMP JUMPDEST DUP3 DUP2 DUP4 CALLDATACOPY PUSH1 0x0 DUP4 DUP4 ADD MSTORE POP POP POP JUMP JUMPDEST PUSH1 0x0 PUSH2 0x1313 PUSH2 0x130E DUP5 PUSH2 0x12C0 JUMP JUMPDEST PUSH2 0x12A5 JUMP JUMPDEST SWAP1 POP DUP3 DUP2 MSTORE PUSH1 0x20 DUP2 ADD DUP5 DUP5 DUP5 ADD GT ISZERO PUSH2 0x132F JUMPI PUSH2 0x132E PUSH2 0x1240 JUMP JUMPDEST JUMPDEST PUSH2 0x133A DUP5 DUP3 DUP6 PUSH2 0x12F1 JUMP JUMPDEST POP SWAP4 SWAP3 POP POP POP JUMP JUMPDEST PUSH1 0x0 DUP3 PUSH1 0x1F DUP4 ADD SLT PUSH2 0x1357 JUMPI PUSH2 0x1356 PUSH2 0x123B JUMP JUMPDEST JUMPDEST DUP2 CALLDATALOAD PUSH2 0x1367 DUP5 DUP3 PUSH1 0x20 DUP7 ADD PUSH2 0x1300 JUMP JUMPDEST SWAP2 POP POP SWAP3 SWAP2 POP POP JUMP JUMPDEST PUSH1 0x0 DUP1 PUSH1 0x40 DUP4 DUP6 SUB SLT ISZERO PUSH2 0x1387 JUMPI PUSH2 0x1386 PUSH2 0x105B JUMP JUMPDEST JUMPDEST PUSH1 0x0 DUP4 ADD CALLDATALOAD PUSH8 0xFFFFFFFFFFFFFFFF DUP2 GT ISZERO PUSH2 0x13A5 JUMPI PUSH2 0x13A4 PUSH2 0x1060 JUMP JUMPDEST JUMPDEST PUSH2 0x13B1 DUP6 DUP3 DUP7 ADD PUSH2 0x1342 JUMP JUMPDEST SWAP3 POP POP PUSH1 0x20 DUP4 ADD CALLDATALOAD PUSH8 0xFFFFFFFFFFFFFFFF DUP2 GT ISZERO PUSH2 0x13D2 JUMPI PUSH2 0x13D1 PUSH2 0x1060 JUMP JUMPDEST JUMPDEST PUSH2 0x13DE DUP6 DUP3 DUP7 ADD PUSH2 0x1342 JUMP JUMPDEST SWAP2 POP POP SWAP3 POP SWAP3 SWAP1 POP JUMP JUMPDEST PUSH1 0x0 PUSH1 0x20 DUP3 ADD SWAP1 POP DUP2 DUP2 SUB PUSH1 0x0 DUP4 ADD MSTORE PUSH2 0x1402 DUP2 DUP5 PUSH2 0x1128 JUMP JUMPDEST SWAP1 POP SWAP3 SWAP2 POP POP JUMP JUMPDEST PUSH1 0x0 DUP1 PUSH1 0x0 DUP1 PUSH1 0x0 PUSH1 0xA0 DUP7 DUP9 SUB SLT ISZERO PUSH2 0x1426 JUMPI PUSH2 0x1425 PUSH2 0x105B JUMP JUMPDEST JUMPDEST PUSH1 0x0 DUP7 ADD CALLDATALOAD PUSH8 0xFFFFFFFFFFFFFFFF DUP2 GT ISZERO PUSH2 0x1444 JUMPI PUSH2 0x1443 PUSH2 0x1060 JUMP JUMPDEST JUMPDEST PUSH2 0x1450 DUP9 DUP3 DUP10 ADD PUSH2 0x1342 JUMP JUMPDEST SWAP6 POP POP PUSH1 0x20 DUP7 ADD CALLDATALOAD PUSH8 0xFFFFFFFFFFFFFFFF DUP2 GT ISZERO PUSH2 0x1471 JUMPI PUSH2 0x1470 PUSH2 0x1060 JUMP JUMPDEST JUMPDEST PUSH2 0x147D DUP9 DUP3 DUP10 ADD PUSH2 0x1342 JUMP JUMPDEST SWAP5 POP POP PUSH1 0x40 DUP7 ADD CALLDATALOAD PUSH8 0xFFFFFFFFFFFFFFFF DUP2 GT ISZERO PUSH2 0x149E JUMPI PUSH2 0x149D PUSH2 0x1060 JUMP JUMPDEST JUMPDEST PUSH2 0x14AA DUP9 DUP3 DUP10 ADD PUSH2 0x1342 JUMP JUMPDEST SWAP4 POP POP PUSH1 0x60 DUP7 ADD CALLDATALOAD PUSH8 0xFFFFFFFFFFFFFFFF DUP2 GT ISZERO PUSH2 0x14CB JUMPI PUSH2 0x14CA PUSH2 0x1060 JUMP JUMPDEST JUMPDEST PUSH2 0x14D7 DUP9 DUP3 DUP10 ADD PUSH2 0x1342 JUMP JUMPDEST SWAP3 POP POP PUSH1 0x80 DUP7 ADD CALLDATALOAD PUSH8 0xFFFFFFFFFFFFFFFF DUP2 GT ISZERO PUSH2 0x14F8 JUMPI PUSH2 0x14F7 PUSH2 0x1060 JUMP JUMPDEST JUMPDEST PUSH2 0x1504 DUP9 DUP3 DUP10 ADD PUSH2 0x1342 JUMP JUMPDEST SWAP2 POP POP SWAP3 SWAP6 POP SWAP3 SWAP6 SWAP1 SWAP4 POP JUMP JUMPDEST PUSH1 0x0 DUP1 PUSH1 0x0 DUP1 PUSH1 0x80 DUP6 DUP8 SUB SLT ISZERO PUSH2 0x152B JUMPI PUSH2 0x152A PUSH2 0x105B JUMP JUMPDEST JUMPDEST PUSH1 0x0 DUP6 ADD CALLDATALOAD PUSH8 0xFFFFFFFFFFFFFFFF DUP2 GT ISZERO PUSH2 0x1549 JUMPI PUSH2 0x1548 PUSH2 0x1060 JUMP JUMPDEST JUMPDEST PUSH2 0x1555 DUP8 DUP3 DUP9 ADD PUSH2 0x1342 JUMP JUMPDEST SWAP5 POP POP PUSH1 0x20 DUP6 ADD CALLDATALOAD PUSH8 0xFFFFFFFFFFFFFFFF DUP2 GT ISZERO PUSH2 0x1576 JUMPI PUSH2 0x1575 PUSH2 0x1060 JUMP JUMPDEST JUMPDEST PUSH2 0x1582 DUP8 DUP3 DUP9 ADD PUSH2 0x1342 JUMP JUMPDEST SWAP4 POP POP PUSH1 0x40 DUP6 ADD CALLDATALOAD PUSH8 0xFFFFFFFFFFFFFFFF DUP2 GT ISZERO PUSH2 0x15A3 JUMPI PUSH2 0x15A2 PUSH2 0x1060 JUMP JUMPDEST JUMPDEST PUSH2 0x15AF DUP8 DUP3 DUP9 ADD PUSH2 0x1342 JUMP JUMPDEST SWAP3 POP POP PUSH1 0x60 DUP6 ADD CALLDATALOAD PUSH8 0xFFFFFFFFFFFFFFFF DUP2 GT ISZERO PUSH2 0x15D0 JUMPI PUSH2 0x15CF PUSH2 0x1060 JUMP JUMPDEST JUMPDEST PUSH2 0x15DC DUP8 DUP3 DUP9 ADD PUSH2 0x1342 JUMP JUMPDEST SWAP2 POP POP SWAP3 SWAP6 SWAP2 SWAP5 POP SWAP3 POP JUMP JUMPDEST PUSH1 0x0 PUSH1 0x20 DUP3 ADD SWAP1 POP PUSH2 0x15FD PUSH1 0x0 DUP4 ADD DUP5 PUSH2 0x1193 JUMP JUMPDEST SWAP3 SWAP2 POP POP JUMP JUMPDEST PUSH32 0x4E487B7100000000000000000000000000000000000000000000000000000000 PUSH1 0x0 MSTORE PUSH1 0x22 PUSH1 0x4 MSTORE PUSH1 0x24 PUSH1 0x0 REVERT JUMPDEST PUSH1 0x0 PUSH1 0x2 DUP3 DIV SWAP1 POP PUSH1 0x1 DUP3 AND DUP1 PUSH2 0x164A JUMPI PUSH1 0x7F DUP3 AND SWAP2 POP JUMPDEST PUSH1 0x20 DUP3 LT DUP2 SUB PUSH2 0x165D JUMPI PUSH2 0x165C PUSH2 0x1603 JUMP JUMPDEST JUMPDEST POP SWAP2 SWAP1 POP JUMP JUMPDEST PUSH32 0x4E487B7100000000000000000000000000000000000000000000000000000000 PUSH1 0x0 MSTORE PUSH1 0x11 PUSH1 0x4 MSTORE PUSH1 0x24 PUSH1 0x0 REVERT JUMPDEST PUSH1 0x0 PUSH2 0x169D DUP3 PUSH2 0x1065 JUMP JUMPDEST SWAP2 POP PUSH32 0xFFFFFFFFFFFFFFFFFFFFFFFFFFFFFFFFFFFFFFFFFFFFFFFFFFFFFFFFFFFFFFFF DUP3 SUB PUSH2 0x16CF JUMPI PUSH2 0x16CE PUSH2 0x1663 JUMP JUMPDEST JUMPDEST PUSH1 0x1 DUP3 ADD SWAP1 POP SWAP2 SWAP1 POP JUMP JUMPDEST PUSH32 0x4E6F7420616C6C6F776564000000000000000000000000000000000000000000 PUSH1 0x0 DUP3 ADD MSTORE POP JUMP JUMPDEST PUSH1 0x0 PUSH2 0x1710 PUSH1 0xB DUP4 PUSH2 0x10D3 JUMP JUMPDEST SWAP2 POP PUSH2 0x171B DUP3 PUSH2 0x16DA JUMP JUMPDEST PUSH1 0x20 DUP3 ADD SWAP1 POP SWAP2 SWAP1 POP JUMP JUMPDEST PUSH1 0x0 PUSH1 0x20 DUP3 ADD SWAP1 POP DUP2 DUP2 SUB PUSH1 0x0 DUP4 ADD MSTORE PUSH2 0x173F DUP2 PUSH2 0x1703 JUMP JUMPDEST SWAP1 POP SWAP2 SWAP1 POP JUMP INVALID SSTORE PUSH20 0x657220646F65736E6F7420657869737420212120 MSTORE PUSH6 0x676973746572 KECCAK256 PUSH2 0x6E64 KECCAK256 PUSH21 0x727920616761696E202121A2646970667358221220 0xBB SELFBALANCE 0xC7 SWAP4 0xB7 0xCB REVERT GAS REVERT SWAP3 0x23 0xAB SWAP3 SLOAD 0xAE 0xC7 0xCC PUSH3 0xC3E7D6 CODECOPY 0xD4 EXTCODECOPY PUSH1 0x34 SDIV DUP16 PUSH11 0x930BB264736F6C63430008 0xD STOP CALLER "
				},
				"gasEstimates": {
					"creation": {
						"codeDepositCost": "1211800",
						"executionCost": "6275",
						"totalCost": "1218075"
					},
					"external": {
						"getProjectDetails()": "infinite",
						"getSignatureHash()": "infinite",
						"getUserAddress()": "2683",
						"getUsername()": "infinite",
						"login(string,string)": "infinite",
						"nbOfUsers()": "2452",
						"projects(uint256)": "infinite",
						"register(string,string,string,string,string)": "infinite",
						"saveProject(string,string,string,string)": "infinite"
					}
				},
				"methodIdentifiers": {
					"getProjectDetails()": "ff3a9c7e",
					"getSignatureHash()": "c127ae41",
					"getUserAddress()": "ebc3eee8",
					"getUsername()": "681f3e6d",
					"login(string,string)": "58467dbc",
					"nbOfUsers()": "12679323",
					"projects(uint256)": "107046bd",
					"register(string,string,string,string,string)": "5a09007b",
					"saveProject(string,string,string,string)": "b4bfc3a5"
				}
			},
			"storageLayout": {
				"storage": [
					{
						"astId": 3,
						"contract": "contracts/authentication.sol:Authentication",
						"label": "nbOfUsers",
						"offset": 0,
						"slot": "0",
						"type": "t_uint256"
					},
					{
						"astId": 21,
						"contract": "contracts/authentication.sol:Authentication",
						"label": "user",
						"offset": 0,
						"slot": "1",
						"type": "t_mapping(t_address,t_struct(User)16_storage)"
					},
					{
						"astId": 37,
						"contract": "contracts/authentication.sol:Authentication",
						"label": "project",
						"offset": 0,
						"slot": "2",
						"type": "t_mapping(t_address,t_struct(Project)32_storage)"
					},
					{
						"astId": 41,
						"contract": "contracts/authentication.sol:Authentication",
						"label": "projects",
						"offset": 0,
						"slot": "3",
						"type": "t_array(t_struct(Project)32_storage)dyn_storage"
					}
				],
				"types": {
					"t_address": {
						"encoding": "inplace",
						"label": "address",
						"numberOfBytes": "20"
					},
					"t_array(t_struct(Project)32_storage)dyn_storage": {
						"base": "t_struct(Project)32_storage",
						"encoding": "dynamic_array",
						"label": "struct Authentication.Project[]",
						"numberOfBytes": "32"
					},
					"t_mapping(t_address,t_struct(Project)32_storage)": {
						"encoding": "mapping",
						"key": "t_address",
						"label": "mapping(address => struct Authentication.Project)",
						"numberOfBytes": "32",
						"value": "t_struct(Project)32_storage"
					},
					"t_mapping(t_address,t_struct(User)16_storage)": {
						"encoding": "mapping",
						"key": "t_address",
						"label": "mapping(address => struct Authentication.User)",
						"numberOfBytes": "32",
						"value": "t_struct(User)16_storage"
					},
					"t_string_storage": {
						"encoding": "bytes",
						"label": "string",
						"numberOfBytes": "32"
					},
					"t_struct(Project)32_storage": {
						"encoding": "inplace",
						"label": "struct Authentication.Project",
						"members": [
							{
								"astId": 23,
								"contract": "contracts/authentication.sol:Authentication",
								"label": "projectName",
								"offset": 0,
								"slot": "0",
								"type": "t_string_storage"
							},
							{
								"astId": 25,
								"contract": "contracts/authentication.sol:Authentication",
								"label": "description",
								"offset": 0,
								"slot": "1",
								"type": "t_string_storage"
							},
							{
								"astId": 27,
								"contract": "contracts/authentication.sol:Authentication",
								"label": "deadline",
								"offset": 0,
								"slot": "2",
								"type": "t_string_storage"
							},
							{
								"astId": 29,
								"contract": "contracts/authentication.sol:Authentication",
								"label": "amount",
								"offset": 0,
								"slot": "3",
								"type": "t_string_storage"
							},
							{
								"astId": 31,
								"contract": "contracts/authentication.sol:Authentication",
								"label": "userAddress",
								"offset": 0,
								"slot": "4",
								"type": "t_address"
							}
						],
						"numberOfBytes": "160"
					},
					"t_struct(User)16_storage": {
						"encoding": "inplace",
						"label": "struct Authentication.User",
						"members": [
							{
								"astId": 5,
								"contract": "contracts/authentication.sol:Authentication",
								"label": "signatureHash",
								"offset": 0,
								"slot": "0",
								"type": "t_string_storage"
							},
							{
								"astId": 7,
								"contract": "contracts/authentication.sol:Authentication",
								"label": "email",
								"offset": 0,
								"slot": "1",
								"type": "t_string_storage"
							},
							{
								"astId": 9,
								"contract": "contracts/authentication.sol:Authentication",
								"label": "username",
								"offset": 0,
								"slot": "2",
								"type": "t_string_storage"
							},
							{
								"astId": 11,
								"contract": "contracts/authentication.sol:Authentication",
								"label": "password",
								"offset": 0,
								"slot": "3",
								"type": "t_string_storage"
							},
							{
								"astId": 13,
								"contract": "contracts/authentication.sol:Authentication",
								"label": "repeatPassword",
								"offset": 0,
								"slot": "4",
								"type": "t_string_storage"
							},
							{
								"astId": 15,
								"contract": "contracts/authentication.sol:Authentication",
								"label": "userAddress",
								"offset": 0,
								"slot": "5",
								"type": "t_address"
							}
						],
						"numberOfBytes": "192"
					},
					"t_uint256": {
						"encoding": "inplace",
						"label": "uint256",
						"numberOfBytes": "32"
					}
				}
			},
			"userdoc": {
				"kind": "user",
				"methods": {},
				"version": 1
			}
		}
	}
}