{
	"contracts/fundTransfer.sol": {
		"TestContract": {
			"abi": [
				{
					"inputs": [
						{
							"internalType": "address payable",
							"name": "account",
							"type": "address"
						}
					],
					"name": "payBill",
					"outputs": [],
					"stateMutability": "payable",
					"type": "function"
				},
				{
					"inputs": [],
					"name": "transactionAmount",
					"outputs": [
						{
							"internalType": "uint256",
							"name": "",
							"type": "uint256"
						}
					],
					"stateMutability": "view",
					"type": "function"
				},
				{
					"inputs": [],
					"name": "transactionCount",
					"outputs": [
						{
							"internalType": "uint256",
							"name": "",
							"type": "uint256"
						}
					],
					"stateMutability": "view",
					"type": "function"
				}
			],
			"devdoc": {
				"kind": "dev",
				"methods": {},
				"version": 1
			},
			"evm": {
				"assembly": "    /* \"contracts/fundTransfer.sol\":1763:2113  contract TestContract is SafeMath {... */\n  mstore(0x40, 0x80)\n    /* \"contracts/fundTransfer.sol\":1835:1836  0 */\n  0x00\n    /* \"contracts/fundTransfer.sol\":1804:1836  uint public transactionCount = 0 */\n  dup1\n  sstore\n    /* \"contracts/fundTransfer.sol\":1875:1876  0 */\n  0x00\n    /* \"contracts/fundTransfer.sol\":1843:1876  uint public transactionAmount = 0 */\n  0x01\n  sstore\n    /* \"contracts/fundTransfer.sol\":1763:2113  contract TestContract is SafeMath {... */\n  callvalue\n  dup1\n  iszero\n  tag_1\n  jumpi\n  0x00\n  dup1\n  revert\ntag_1:\n  pop\n  dataSize(sub_0)\n  dup1\n  dataOffset(sub_0)\n  0x00\n  codecopy\n  0x00\n  return\nstop\n\nsub_0: assembly {\n        /* \"contracts/fundTransfer.sol\":1763:2113  contract TestContract is SafeMath {... */\n      mstore(0x40, 0x80)\n      jumpi(tag_1, lt(calldatasize, 0x04))\n      shr(0xe0, calldataload(0x00))\n      dup1\n      0xb77bf600\n      eq\n      tag_2\n      jumpi\n      dup1\n      0xd942bffa\n      eq\n      tag_3\n      jumpi\n      dup1\n      0xff4472c6\n      eq\n      tag_4\n      jumpi\n    tag_1:\n      0x00\n      dup1\n      revert\n        /* \"contracts/fundTransfer.sol\":1804:1836  uint public transactionCount = 0 */\n    tag_2:\n      callvalue\n      dup1\n      iszero\n      tag_5\n      jumpi\n      0x00\n      dup1\n      revert\n    tag_5:\n      pop\n      tag_6\n      tag_7\n      jump\t// in\n    tag_6:\n      mload(0x40)\n      tag_8\n      swap2\n      swap1\n      tag_9\n      jump\t// in\n    tag_8:\n      mload(0x40)\n      dup1\n      swap2\n      sub\n      swap1\n      return\n        /* \"contracts/fundTransfer.sol\":1843:1876  uint public transactionAmount = 0 */\n    tag_3:\n      callvalue\n      dup1\n      iszero\n      tag_10\n      jumpi\n      0x00\n      dup1\n      revert\n    tag_10:\n      pop\n      tag_11\n      tag_12\n      jump\t// in\n    tag_11:\n      mload(0x40)\n      tag_13\n      swap2\n      swap1\n      tag_9\n      jump\t// in\n    tag_13:\n      mload(0x40)\n      dup1\n      swap2\n      sub\n      swap1\n      return\n        /* \"contracts/fundTransfer.sol\":1885:2110  function payBill(address payable account) payable public {... */\n    tag_4:\n      tag_14\n      0x04\n      dup1\n      calldatasize\n      sub\n      dup2\n      add\n      swap1\n      tag_15\n      swap2\n      swap1\n      tag_16\n      jump\t// in\n    tag_15:\n      tag_17\n      jump\t// in\n    tag_14:\n      stop\n        /* \"contracts/fundTransfer.sol\":1804:1836  uint public transactionCount = 0 */\n    tag_7:\n      sload(0x00)\n      dup2\n      jump\t// out\n        /* \"contracts/fundTransfer.sol\":1843:1876  uint public transactionAmount = 0 */\n    tag_12:\n      sload(0x01)\n      dup2\n      jump\t// out\n        /* \"contracts/fundTransfer.sol\":1885:2110  function payBill(address payable account) payable public {... */\n    tag_17:\n        /* \"contracts/fundTransfer.sol\":1972:1996  add(transactionCount, 1) */\n      tag_19\n        /* \"contracts/fundTransfer.sol\":1976:1992  transactionCount */\n      sload(0x00)\n        /* \"contracts/fundTransfer.sol\":1994:1995  1 */\n      0x01\n        /* \"contracts/fundTransfer.sol\":1972:1975  add */\n      tag_20\n        /* \"contracts/fundTransfer.sol\":1972:1996  add(transactionCount, 1) */\n      jump\t// in\n    tag_19:\n        /* \"contracts/fundTransfer.sol\":1953:1969  transactionCount */\n      0x00\n        /* \"contracts/fundTransfer.sol\":1953:1996  transactionCount = add(transactionCount, 1) */\n      dup2\n      swap1\n      sstore\n      pop\n        /* \"contracts/fundTransfer.sol\":2027:2060  add(transactionAmount, msg.value) */\n      tag_21\n        /* \"contracts/fundTransfer.sol\":2031:2048  transactionAmount */\n      sload(0x01)\n        /* \"contracts/fundTransfer.sol\":2050:2059  msg.value */\n      callvalue\n        /* \"contracts/fundTransfer.sol\":2027:2030  add */\n      tag_20\n        /* \"contracts/fundTransfer.sol\":2027:2060  add(transactionAmount, msg.value) */\n      jump\t// in\n    tag_21:\n        /* \"contracts/fundTransfer.sol\":2007:2024  transactionAmount */\n      0x01\n        /* \"contracts/fundTransfer.sol\":2007:2060  transactionAmount = add(transactionAmount, msg.value) */\n      dup2\n      swap1\n      sstore\n      pop\n        /* \"contracts/fundTransfer.sol\":2074:2081  account */\n      dup1\n        /* \"contracts/fundTransfer.sol\":2073:2091  (account).transfer */\n      0xffffffffffffffffffffffffffffffffffffffff\n      and\n        /* \"contracts/fundTransfer.sol\":2073:2102  (account).transfer(msg.value) */\n      0x08fc\n        /* \"contracts/fundTransfer.sol\":2092:2101  msg.value */\n      callvalue\n        /* \"contracts/fundTransfer.sol\":2073:2102  (account).transfer(msg.value) */\n      swap1\n      dup2\n      iszero\n      mul\n      swap1\n      mload(0x40)\n      0x00\n      mload(0x40)\n      dup1\n      dup4\n      sub\n      dup2\n      dup6\n      dup9\n      dup9\n      call\n      swap4\n      pop\n      pop\n      pop\n      pop\n      iszero\n      dup1\n      iszero\n      tag_23\n      jumpi\n      returndatasize\n      0x00\n      dup1\n      returndatacopy\n      revert(0x00, returndatasize)\n    tag_23:\n      pop\n        /* \"contracts/fundTransfer.sol\":1885:2110  function payBill(address payable account) payable public {... */\n      pop\n      jump\t// out\n        /* \"contracts/fundTransfer.sol\":1334:1484  function add(uint256 a, uint256 b) internal pure returns (uint256) {... */\n    tag_20:\n        /* \"contracts/fundTransfer.sol\":1392:1399  uint256 */\n      0x00\n        /* \"contracts/fundTransfer.sol\":1412:1421  uint256 c */\n      dup1\n        /* \"contracts/fundTransfer.sol\":1428:1429  b */\n      dup3\n        /* \"contracts/fundTransfer.sol\":1424:1425  a */\n      dup5\n        /* \"contracts/fundTransfer.sol\":1424:1429  a + b */\n      tag_25\n      swap2\n      swap1\n      tag_26\n      jump\t// in\n    tag_25:\n        /* \"contracts/fundTransfer.sol\":1412:1429  uint256 c = a + b */\n      swap1\n      pop\n        /* \"contracts/fundTransfer.sol\":1453:1454  a */\n      dup4\n        /* \"contracts/fundTransfer.sol\":1448:1449  c */\n      dup2\n        /* \"contracts/fundTransfer.sol\":1448:1454  c >= a */\n      lt\n      iszero\n        /* \"contracts/fundTransfer.sol\":1440:1455  require(c >= a) */\n      tag_27\n      jumpi\n      0x00\n      dup1\n      revert\n    tag_27:\n        /* \"contracts/fundTransfer.sol\":1475:1476  c */\n      dup1\n        /* \"contracts/fundTransfer.sol\":1468:1476  return c */\n      swap2\n      pop\n      pop\n        /* \"contracts/fundTransfer.sol\":1334:1484  function add(uint256 a, uint256 b) internal pure returns (uint256) {... */\n      swap3\n      swap2\n      pop\n      pop\n      jump\t// out\n        /* \"#utility.yul\":7:84   */\n    tag_28:\n        /* \"#utility.yul\":44:51   */\n      0x00\n        /* \"#utility.yul\":73:78   */\n      dup2\n        /* \"#utility.yul\":62:78   */\n      swap1\n      pop\n        /* \"#utility.yul\":7:84   */\n      swap2\n      swap1\n      pop\n      jump\t// out\n        /* \"#utility.yul\":90:208   */\n    tag_29:\n        /* \"#utility.yul\":177:201   */\n      tag_41\n        /* \"#utility.yul\":195:200   */\n      dup2\n        /* \"#utility.yul\":177:201   */\n      tag_28\n      jump\t// in\n    tag_41:\n        /* \"#utility.yul\":172:175   */\n      dup3\n        /* \"#utility.yul\":165:202   */\n      mstore\n        /* \"#utility.yul\":90:208   */\n      pop\n      pop\n      jump\t// out\n        /* \"#utility.yul\":214:436   */\n    tag_9:\n        /* \"#utility.yul\":307:311   */\n      0x00\n        /* \"#utility.yul\":345:347   */\n      0x20\n        /* \"#utility.yul\":334:343   */\n      dup3\n        /* \"#utility.yul\":330:348   */\n      add\n        /* \"#utility.yul\":322:348   */\n      swap1\n      pop\n        /* \"#utility.yul\":358:429   */\n      tag_43\n        /* \"#utility.yul\":426:427   */\n      0x00\n        /* \"#utility.yul\":415:424   */\n      dup4\n        /* \"#utility.yul\":411:428   */\n      add\n        /* \"#utility.yul\":402:408   */\n      dup5\n        /* \"#utility.yul\":358:429   */\n      tag_29\n      jump\t// in\n    tag_43:\n        /* \"#utility.yul\":214:436   */\n      swap3\n      swap2\n      pop\n      pop\n      jump\t// out\n        /* \"#utility.yul\":523:640   */\n    tag_31:\n        /* \"#utility.yul\":632:633   */\n      0x00\n        /* \"#utility.yul\":629:630   */\n      dup1\n        /* \"#utility.yul\":622:634   */\n      revert\n        /* \"#utility.yul\":769:895   */\n    tag_33:\n        /* \"#utility.yul\":806:813   */\n      0x00\n        /* \"#utility.yul\":846:888   */\n      0xffffffffffffffffffffffffffffffffffffffff\n        /* \"#utility.yul\":839:844   */\n      dup3\n        /* \"#utility.yul\":835:889   */\n      and\n        /* \"#utility.yul\":824:889   */\n      swap1\n      pop\n        /* \"#utility.yul\":769:895   */\n      swap2\n      swap1\n      pop\n      jump\t// out\n        /* \"#utility.yul\":901:1005   */\n    tag_34:\n        /* \"#utility.yul\":946:953   */\n      0x00\n        /* \"#utility.yul\":975:999   */\n      tag_49\n        /* \"#utility.yul\":993:998   */\n      dup3\n        /* \"#utility.yul\":975:999   */\n      tag_33\n      jump\t// in\n    tag_49:\n        /* \"#utility.yul\":964:999   */\n      swap1\n      pop\n        /* \"#utility.yul\":901:1005   */\n      swap2\n      swap1\n      pop\n      jump\t// out\n        /* \"#utility.yul\":1011:1149   */\n    tag_35:\n        /* \"#utility.yul\":1092:1124   */\n      tag_51\n        /* \"#utility.yul\":1118:1123   */\n      dup2\n        /* \"#utility.yul\":1092:1124   */\n      tag_34\n      jump\t// in\n    tag_51:\n        /* \"#utility.yul\":1085:1090   */\n      dup2\n        /* \"#utility.yul\":1082:1125   */\n      eq\n        /* \"#utility.yul\":1072:1143   */\n      tag_52\n      jumpi\n        /* \"#utility.yul\":1139:1140   */\n      0x00\n        /* \"#utility.yul\":1136:1137   */\n      dup1\n        /* \"#utility.yul\":1129:1141   */\n      revert\n        /* \"#utility.yul\":1072:1143   */\n    tag_52:\n        /* \"#utility.yul\":1011:1149   */\n      pop\n      jump\t// out\n        /* \"#utility.yul\":1155:1310   */\n    tag_36:\n        /* \"#utility.yul\":1209:1214   */\n      0x00\n        /* \"#utility.yul\":1247:1253   */\n      dup2\n        /* \"#utility.yul\":1234:1254   */\n      calldataload\n        /* \"#utility.yul\":1225:1254   */\n      swap1\n      pop\n        /* \"#utility.yul\":1263:1304   */\n      tag_54\n        /* \"#utility.yul\":1298:1303   */\n      dup2\n        /* \"#utility.yul\":1263:1304   */\n      tag_35\n      jump\t// in\n    tag_54:\n        /* \"#utility.yul\":1155:1310   */\n      swap3\n      swap2\n      pop\n      pop\n      jump\t// out\n        /* \"#utility.yul\":1316:1661   */\n    tag_16:\n        /* \"#utility.yul\":1383:1389   */\n      0x00\n        /* \"#utility.yul\":1432:1434   */\n      0x20\n        /* \"#utility.yul\":1420:1429   */\n      dup3\n        /* \"#utility.yul\":1411:1418   */\n      dup5\n        /* \"#utility.yul\":1407:1430   */\n      sub\n        /* \"#utility.yul\":1403:1435   */\n      slt\n        /* \"#utility.yul\":1400:1519   */\n      iszero\n      tag_56\n      jumpi\n        /* \"#utility.yul\":1438:1517   */\n      tag_57\n      tag_31\n      jump\t// in\n    tag_57:\n        /* \"#utility.yul\":1400:1519   */\n    tag_56:\n        /* \"#utility.yul\":1558:1559   */\n      0x00\n        /* \"#utility.yul\":1583:1644   */\n      tag_58\n        /* \"#utility.yul\":1636:1643   */\n      dup5\n        /* \"#utility.yul\":1627:1633   */\n      dup3\n        /* \"#utility.yul\":1616:1625   */\n      dup6\n        /* \"#utility.yul\":1612:1634   */\n      add\n        /* \"#utility.yul\":1583:1644   */\n      tag_36\n      jump\t// in\n    tag_58:\n        /* \"#utility.yul\":1573:1644   */\n      swap2\n      pop\n        /* \"#utility.yul\":1529:1654   */\n      pop\n        /* \"#utility.yul\":1316:1661   */\n      swap3\n      swap2\n      pop\n      pop\n      jump\t// out\n        /* \"#utility.yul\":1667:1847   */\n    tag_37:\n        /* \"#utility.yul\":1715:1792   */\n      0x4e487b7100000000000000000000000000000000000000000000000000000000\n        /* \"#utility.yul\":1712:1713   */\n      0x00\n        /* \"#utility.yul\":1705:1793   */\n      mstore\n        /* \"#utility.yul\":1812:1816   */\n      0x11\n        /* \"#utility.yul\":1809:1810   */\n      0x04\n        /* \"#utility.yul\":1802:1817   */\n      mstore\n        /* \"#utility.yul\":1836:1840   */\n      0x24\n        /* \"#utility.yul\":1833:1834   */\n      0x00\n        /* \"#utility.yul\":1826:1841   */\n      revert\n        /* \"#utility.yul\":1853:2158   */\n    tag_26:\n        /* \"#utility.yul\":1893:1896   */\n      0x00\n        /* \"#utility.yul\":1912:1932   */\n      tag_61\n        /* \"#utility.yul\":1930:1931   */\n      dup3\n        /* \"#utility.yul\":1912:1932   */\n      tag_28\n      jump\t// in\n    tag_61:\n        /* \"#utility.yul\":1907:1932   */\n      swap2\n      pop\n        /* \"#utility.yul\":1946:1966   */\n      tag_62\n        /* \"#utility.yul\":1964:1965   */\n      dup4\n        /* \"#utility.yul\":1946:1966   */\n      tag_28\n      jump\t// in\n    tag_62:\n        /* \"#utility.yul\":1941:1966   */\n      swap3\n      pop\n        /* \"#utility.yul\":2100:2101   */\n      dup3\n        /* \"#utility.yul\":2032:2098   */\n      0xffffffffffffffffffffffffffffffffffffffffffffffffffffffffffffffff\n        /* \"#utility.yul\":2028:2102   */\n      sub\n        /* \"#utility.yul\":2025:2026   */\n      dup3\n        /* \"#utility.yul\":2022:2103   */\n      gt\n        /* \"#utility.yul\":2019:2126   */\n      iszero\n      tag_63\n      jumpi\n        /* \"#utility.yul\":2106:2124   */\n      tag_64\n      tag_37\n      jump\t// in\n    tag_64:\n        /* \"#utility.yul\":2019:2126   */\n    tag_63:\n        /* \"#utility.yul\":2150:2151   */\n      dup3\n        /* \"#utility.yul\":2147:2148   */\n      dup3\n        /* \"#utility.yul\":2143:2152   */\n      add\n        /* \"#utility.yul\":2136:2152   */\n      swap1\n      pop\n        /* \"#utility.yul\":1853:2158   */\n      swap3\n      swap2\n      pop\n      pop\n      jump\t// out\n\n    auxdata: 0xa2646970667358221220feca3c34b94000d35abe2212de397c4845d055ed6a285a5fb663c52d10eb2e5d64736f6c634300080d0033\n}\n",
				"bytecode": {
					"linkReferences": {},
					"object": "608060405260008055600060015534801561001957600080fd5b506102cd806100296000396000f3fe6080604052600436106100345760003560e01c8063b77bf60014610039578063d942bffa14610064578063ff4472c61461008f575b600080fd5b34801561004557600080fd5b5061004e6100ab565b60405161005b9190610167565b60405180910390f35b34801561007057600080fd5b506100796100b1565b6040516100869190610167565b60405180910390f35b6100a960048036038101906100a491906101e5565b6100b7565b005b60005481565b60015481565b6100c46000546001610126565b6000819055506100d660015434610126565b6001819055508073ffffffffffffffffffffffffffffffffffffffff166108fc349081150290604051600060405180830381858888f19350505050158015610122573d6000803e3d6000fd5b5050565b60008082846101359190610241565b90508381101561014457600080fd5b8091505092915050565b6000819050919050565b6101618161014e565b82525050565b600060208201905061017c6000830184610158565b92915050565b600080fd5b600073ffffffffffffffffffffffffffffffffffffffff82169050919050565b60006101b282610187565b9050919050565b6101c2816101a7565b81146101cd57600080fd5b50565b6000813590506101df816101b9565b92915050565b6000602082840312156101fb576101fa610182565b5b6000610209848285016101d0565b91505092915050565b7f4e487b7100000000000000000000000000000000000000000000000000000000600052601160045260246000fd5b600061024c8261014e565b91506102578361014e565b9250827fffffffffffffffffffffffffffffffffffffffffffffffffffffffffffffffff0382111561028c5761028b610212565b5b82820190509291505056fea2646970667358221220feca3c34b94000d35abe2212de397c4845d055ed6a285a5fb663c52d10eb2e5d64736f6c634300080d0033",
					"opcodes": "PUSH1 0x80 PUSH1 0x40 MSTORE PUSH1 0x0 DUP1 SSTORE PUSH1 0x0 PUSH1 0x1 SSTORE CALLVALUE DUP1 ISZERO PUSH2 0x19 JUMPI PUSH1 0x0 DUP1 REVERT JUMPDEST POP PUSH2 0x2CD DUP1 PUSH2 0x29 PUSH1 0x0 CODECOPY PUSH1 0x0 RETURN INVALID PUSH1 0x80 PUSH1 0x40 MSTORE PUSH1 0x4 CALLDATASIZE LT PUSH2 0x34 JUMPI PUSH1 0x0 CALLDATALOAD PUSH1 0xE0 SHR DUP1 PUSH4 0xB77BF600 EQ PUSH2 0x39 JUMPI DUP1 PUSH4 0xD942BFFA EQ PUSH2 0x64 JUMPI DUP1 PUSH4 0xFF4472C6 EQ PUSH2 0x8F JUMPI JUMPDEST PUSH1 0x0 DUP1 REVERT JUMPDEST CALLVALUE DUP1 ISZERO PUSH2 0x45 JUMPI PUSH1 0x0 DUP1 REVERT JUMPDEST POP PUSH2 0x4E PUSH2 0xAB JUMP JUMPDEST PUSH1 0x40 MLOAD PUSH2 0x5B SWAP2 SWAP1 PUSH2 0x167 JUMP JUMPDEST PUSH1 0x40 MLOAD DUP1 SWAP2 SUB SWAP1 RETURN JUMPDEST CALLVALUE DUP1 ISZERO PUSH2 0x70 JUMPI PUSH1 0x0 DUP1 REVERT JUMPDEST POP PUSH2 0x79 PUSH2 0xB1 JUMP JUMPDEST PUSH1 0x40 MLOAD PUSH2 0x86 SWAP2 SWAP1 PUSH2 0x167 JUMP JUMPDEST PUSH1 0x40 MLOAD DUP1 SWAP2 SUB SWAP1 RETURN JUMPDEST PUSH2 0xA9 PUSH1 0x4 DUP1 CALLDATASIZE SUB DUP2 ADD SWAP1 PUSH2 0xA4 SWAP2 SWAP1 PUSH2 0x1E5 JUMP JUMPDEST PUSH2 0xB7 JUMP JUMPDEST STOP JUMPDEST PUSH1 0x0 SLOAD DUP2 JUMP JUMPDEST PUSH1 0x1 SLOAD DUP2 JUMP JUMPDEST PUSH2 0xC4 PUSH1 0x0 SLOAD PUSH1 0x1 PUSH2 0x126 JUMP JUMPDEST PUSH1 0x0 DUP2 SWAP1 SSTORE POP PUSH2 0xD6 PUSH1 0x1 SLOAD CALLVALUE PUSH2 0x126 JUMP JUMPDEST PUSH1 0x1 DUP2 SWAP1 SSTORE POP DUP1 PUSH20 0xFFFFFFFFFFFFFFFFFFFFFFFFFFFFFFFFFFFFFFFF AND PUSH2 0x8FC CALLVALUE SWAP1 DUP2 ISZERO MUL SWAP1 PUSH1 0x40 MLOAD PUSH1 0x0 PUSH1 0x40 MLOAD DUP1 DUP4 SUB DUP2 DUP6 DUP9 DUP9 CALL SWAP4 POP POP POP POP ISZERO DUP1 ISZERO PUSH2 0x122 JUMPI RETURNDATASIZE PUSH1 0x0 DUP1 RETURNDATACOPY RETURNDATASIZE PUSH1 0x0 REVERT JUMPDEST POP POP JUMP JUMPDEST PUSH1 0x0 DUP1 DUP3 DUP5 PUSH2 0x135 SWAP2 SWAP1 PUSH2 0x241 JUMP JUMPDEST SWAP1 POP DUP4 DUP2 LT ISZERO PUSH2 0x144 JUMPI PUSH1 0x0 DUP1 REVERT JUMPDEST DUP1 SWAP2 POP POP SWAP3 SWAP2 POP POP JUMP JUMPDEST PUSH1 0x0 DUP2 SWAP1 POP SWAP2 SWAP1 POP JUMP JUMPDEST PUSH2 0x161 DUP2 PUSH2 0x14E JUMP JUMPDEST DUP3 MSTORE POP POP JUMP JUMPDEST PUSH1 0x0 PUSH1 0x20 DUP3 ADD SWAP1 POP PUSH2 0x17C PUSH1 0x0 DUP4 ADD DUP5 PUSH2 0x158 JUMP JUMPDEST SWAP3 SWAP2 POP POP JUMP JUMPDEST PUSH1 0x0 DUP1 REVERT JUMPDEST PUSH1 0x0 PUSH20 0xFFFFFFFFFFFFFFFFFFFFFFFFFFFFFFFFFFFFFFFF DUP3 AND SWAP1 POP SWAP2 SWAP1 POP JUMP JUMPDEST PUSH1 0x0 PUSH2 0x1B2 DUP3 PUSH2 0x187 JUMP JUMPDEST SWAP1 POP SWAP2 SWAP1 POP JUMP JUMPDEST PUSH2 0x1C2 DUP2 PUSH2 0x1A7 JUMP JUMPDEST DUP2 EQ PUSH2 0x1CD JUMPI PUSH1 0x0 DUP1 REVERT JUMPDEST POP JUMP JUMPDEST PUSH1 0x0 DUP2 CALLDATALOAD SWAP1 POP PUSH2 0x1DF DUP2 PUSH2 0x1B9 JUMP JUMPDEST SWAP3 SWAP2 POP POP JUMP JUMPDEST PUSH1 0x0 PUSH1 0x20 DUP3 DUP5 SUB SLT ISZERO PUSH2 0x1FB JUMPI PUSH2 0x1FA PUSH2 0x182 JUMP JUMPDEST JUMPDEST PUSH1 0x0 PUSH2 0x209 DUP5 DUP3 DUP6 ADD PUSH2 0x1D0 JUMP JUMPDEST SWAP2 POP POP SWAP3 SWAP2 POP POP JUMP JUMPDEST PUSH32 0x4E487B7100000000000000000000000000000000000000000000000000000000 PUSH1 0x0 MSTORE PUSH1 0x11 PUSH1 0x4 MSTORE PUSH1 0x24 PUSH1 0x0 REVERT JUMPDEST PUSH1 0x0 PUSH2 0x24C DUP3 PUSH2 0x14E JUMP JUMPDEST SWAP2 POP PUSH2 0x257 DUP4 PUSH2 0x14E JUMP JUMPDEST SWAP3 POP DUP3 PUSH32 0xFFFFFFFFFFFFFFFFFFFFFFFFFFFFFFFFFFFFFFFFFFFFFFFFFFFFFFFFFFFFFFFF SUB DUP3 GT ISZERO PUSH2 0x28C JUMPI PUSH2 0x28B PUSH2 0x212 JUMP JUMPDEST JUMPDEST DUP3 DUP3 ADD SWAP1 POP SWAP3 SWAP2 POP POP JUMP INVALID LOG2 PUSH5 0x6970667358 0x22 SLT KECCAK256 INVALID 0xCA EXTCODECOPY CALLVALUE 0xB9 BLOCKHASH STOP 0xD3 GAS 0xBE 0x22 SLT 0xDE CODECOPY PUSH29 0x4845D055ED6A285A5FB663C52D10EB2E5D64736F6C634300080D003300 "
				},
				"gasEstimates": {
					"creation": {
						"codeDepositCost": "143400",
						"executionCost": "10202",
						"totalCost": "153602"
					},
					"external": {
						"payBill(address)": "infinite",
						"transactionAmount()": "2429",
						"transactionCount()": "2407"
					}
				},
				"methodIdentifiers": {
					"payBill(address)": "ff4472c6",
					"transactionAmount()": "d942bffa",
					"transactionCount()": "b77bf600"
				}
			},
			"storageLayout": {
				"storage": [
					{
						"astId": 136,
						"contract": "contracts/fundTransfer.sol:TestContract",
						"label": "transactionCount",
						"offset": 0,
						"slot": "0",
						"type": "t_uint256"
					},
					{
						"astId": 139,
						"contract": "contracts/fundTransfer.sol:TestContract",
						"label": "transactionAmount",
						"offset": 0,
						"slot": "1",
						"type": "t_uint256"
					}
				],
				"types": {
					"t_uint256": {
						"encoding": "inplace",
						"label": "uint256",
						"numberOfBytes": "32"
					}
				}
			},
			"userdoc": {
				"kind": "user",
				"methods": {},
				"version": 1
			}
		}
	}
}