{
	"contracts/authentication.sol": {
		"Authentication": {
			"abi": [
				{
					"inputs": [],
					"stateMutability": "nonpayable",
					"type": "constructor"
				},
				{
					"inputs": [],
					"name": "getSignatureHash",
					"outputs": [
						{
							"internalType": "string",
							"name": "",
							"type": "string"
						}
					],
					"stateMutability": "view",
					"type": "function"
				},
				{
					"inputs": [],
					"name": "getUserAddress",
					"outputs": [
						{
							"internalType": "address",
							"name": "",
							"type": "address"
						}
					],
					"stateMutability": "view",
					"type": "function"
				},
				{
					"inputs": [],
					"name": "getUsername",
					"outputs": [
						{
							"internalType": "string",
							"name": "",
							"type": "string"
						}
					],
					"stateMutability": "view",
					"type": "function"
				},
				{
					"inputs": [],
					"name": "nbOfUsers",
					"outputs": [
						{
							"internalType": "uint256",
							"name": "",
							"type": "uint256"
						}
					],
					"stateMutability": "view",
					"type": "function"
				},
				{
					"inputs": [
						{
							"internalType": "string",
							"name": "_signature",
							"type": "string"
						},
						{
							"internalType": "string",
							"name": "email",
							"type": "string"
						},
						{
							"internalType": "string",
							"name": "username",
							"type": "string"
						},
						{
							"internalType": "string",
							"name": "password",
							"type": "string"
						},
						{
							"internalType": "string",
							"name": "repeatPassword",
							"type": "string"
						}
					],
					"name": "register",
					"outputs": [
						{
							"internalType": "string",
							"name": "",
							"type": "string"
						}
					],
					"stateMutability": "nonpayable",
					"type": "function"
				}
			],
			"devdoc": {
				"kind": "dev",
				"methods": {},
				"version": 1
			},
			"evm": {
				"assembly": "    /* \"contracts/authentication.sol\":59:1647  contract Authentication {\r... */\n  mstore(0x40, 0x80)\n    /* \"contracts/authentication.sol\":365:411  constructor() {\r... */\n  callvalue\n  dup1\n  iszero\n  tag_1\n  jumpi\n  0x00\n  dup1\n  revert\ntag_1:\n  pop\n    /* \"contracts/authentication.sol\":402:403  0 */\n  0x00\n    /* \"contracts/authentication.sol\":390:399  nbOfUsers */\n  dup1\n    /* \"contracts/authentication.sol\":390:403  nbOfUsers = 0 */\n  dup2\n  swap1\n  sstore\n  pop\n    /* \"contracts/authentication.sol\":59:1647  contract Authentication {\r... */\n  dataSize(sub_0)\n  dup1\n  dataOffset(sub_0)\n  0x00\n  codecopy\n  0x00\n  return\nstop\n\nsub_0: assembly {\n        /* \"contracts/authentication.sol\":59:1647  contract Authentication {\r... */\n      mstore(0x40, 0x80)\n      callvalue\n      dup1\n      iszero\n      tag_1\n      jumpi\n      0x00\n      dup1\n      revert\n    tag_1:\n      pop\n      jumpi(tag_2, lt(calldatasize, 0x04))\n      shr(0xe0, calldataload(0x00))\n      dup1\n      0x12679323\n      eq\n      tag_3\n      jumpi\n      dup1\n      0x5a09007b\n      eq\n      tag_4\n      jumpi\n      dup1\n      0x681f3e6d\n      eq\n      tag_5\n      jumpi\n      dup1\n      0xc127ae41\n      eq\n      tag_6\n      jumpi\n      dup1\n      0xebc3eee8\n      eq\n      tag_7\n      jumpi\n    tag_2:\n      0x00\n      dup1\n      revert\n        /* \"contracts/authentication.sol\":90:114  uint256 public nbOfUsers */\n    tag_3:\n      tag_8\n      tag_9\n      jump\t// in\n    tag_8:\n      mload(0x40)\n      tag_10\n      swap2\n      swap1\n      tag_11\n      jump\t// in\n    tag_10:\n      mload(0x40)\n      dup1\n      swap2\n      sub\n      swap1\n      return\n        /* \"contracts/authentication.sol\":419:1201  function register(string memory _signature, string memory email, string memory username, string memory password, string memory repeatPassword) public returns(string memory) {\r... */\n    tag_4:\n      tag_12\n      0x04\n      dup1\n      calldatasize\n      sub\n      dup2\n      add\n      swap1\n      tag_13\n      swap2\n      swap1\n      tag_14\n      jump\t// in\n    tag_13:\n      tag_15\n      jump\t// in\n    tag_12:\n      mload(0x40)\n      tag_16\n      swap2\n      swap1\n      tag_17\n      jump\t// in\n    tag_16:\n      mload(0x40)\n      dup1\n      swap2\n      sub\n      swap1\n      return\n        /* \"contracts/authentication.sol\":1534:1644  function getUsername() public view returns (string memory) {\r... */\n    tag_5:\n      tag_18\n      tag_19\n      jump\t// in\n    tag_18:\n      mload(0x40)\n      tag_20\n      swap2\n      swap1\n      tag_17\n      jump\t// in\n    tag_20:\n      mload(0x40)\n      dup1\n      swap2\n      sub\n      swap1\n      return\n        /* \"contracts/authentication.sol\":1209:1408  function getSignatureHash() public view returns (string memory) {\r... */\n    tag_6:\n      tag_21\n      tag_22\n      jump\t// in\n    tag_21:\n      mload(0x40)\n      tag_23\n      swap2\n      swap1\n      tag_17\n      jump\t// in\n    tag_23:\n      mload(0x40)\n      dup1\n      swap2\n      sub\n      swap1\n      return\n        /* \"contracts/authentication.sol\":1416:1526  function getUserAddress() public view returns (address) {\r... */\n    tag_7:\n      tag_24\n      tag_25\n      jump\t// in\n    tag_24:\n      mload(0x40)\n      tag_26\n      swap2\n      swap1\n      tag_27\n      jump\t// in\n    tag_26:\n      mload(0x40)\n      dup1\n      swap2\n      sub\n      swap1\n      return\n        /* \"contracts/authentication.sol\":90:114  uint256 public nbOfUsers */\n    tag_9:\n      sload(0x00)\n      dup2\n      jump\t// out\n        /* \"contracts/authentication.sol\":419:1201  function register(string memory _signature, string memory email, string memory username, string memory password, string memory repeatPassword) public returns(string memory) {\r... */\n    tag_15:\n        /* \"contracts/authentication.sol\":577:590  string memory */\n      0x60\n        /* \"contracts/authentication.sol\":787:797  _signature */\n      dup6\n        /* \"contracts/authentication.sol\":754:758  user */\n      0x01\n        /* \"contracts/authentication.sol\":754:770  user[msg.sender] */\n      0x00\n        /* \"contracts/authentication.sol\":759:769  msg.sender */\n      caller\n        /* \"contracts/authentication.sol\":754:770  user[msg.sender] */\n      0xffffffffffffffffffffffffffffffffffffffff\n      and\n      0xffffffffffffffffffffffffffffffffffffffff\n      and\n      dup2\n      mstore\n      0x20\n      add\n      swap1\n      dup2\n      mstore\n      0x20\n      add\n      0x00\n      keccak256\n        /* \"contracts/authentication.sol\":754:784  user[msg.sender].signatureHash */\n      0x00\n      add\n        /* \"contracts/authentication.sol\":754:797  user[msg.sender].signatureHash = _signature */\n      swap1\n      dup1\n      mload\n      swap1\n      0x20\n      add\n      swap1\n      tag_29\n      swap3\n      swap2\n      swap1\n      tag_30\n      jump\t// in\n    tag_29:\n      pop\n        /* \"contracts/authentication.sol\":833:838  email */\n      dup5\n        /* \"contracts/authentication.sol\":808:812  user */\n      0x01\n        /* \"contracts/authentication.sol\":808:824  user[msg.sender] */\n      0x00\n        /* \"contracts/authentication.sol\":813:823  msg.sender */\n      caller\n        /* \"contracts/authentication.sol\":808:824  user[msg.sender] */\n      0xffffffffffffffffffffffffffffffffffffffff\n      and\n      0xffffffffffffffffffffffffffffffffffffffff\n      and\n      dup2\n      mstore\n      0x20\n      add\n      swap1\n      dup2\n      mstore\n      0x20\n      add\n      0x00\n      keccak256\n        /* \"contracts/authentication.sol\":808:830  user[msg.sender].email */\n      0x01\n      add\n        /* \"contracts/authentication.sol\":808:838  user[msg.sender].email = email */\n      swap1\n      dup1\n      mload\n      swap1\n      0x20\n      add\n      swap1\n      tag_31\n      swap3\n      swap2\n      swap1\n      tag_30\n      jump\t// in\n    tag_31:\n      pop\n        /* \"contracts/authentication.sol\":880:890  msg.sender */\n      caller\n        /* \"contracts/authentication.sol\":849:853  user */\n      0x01\n        /* \"contracts/authentication.sol\":849:865  user[msg.sender] */\n      0x00\n        /* \"contracts/authentication.sol\":854:864  msg.sender */\n      caller\n        /* \"contracts/authentication.sol\":849:865  user[msg.sender] */\n      0xffffffffffffffffffffffffffffffffffffffff\n      and\n      0xffffffffffffffffffffffffffffffffffffffff\n      and\n      dup2\n      mstore\n      0x20\n      add\n      swap1\n      dup2\n      mstore\n      0x20\n      add\n      0x00\n      keccak256\n        /* \"contracts/authentication.sol\":849:877  user[msg.sender].userAddress */\n      0x05\n      add\n      0x00\n        /* \"contracts/authentication.sol\":849:890  user[msg.sender].userAddress = msg.sender */\n      0x0100\n      exp\n      dup2\n      sload\n      dup2\n      0xffffffffffffffffffffffffffffffffffffffff\n      mul\n      not\n      and\n      swap1\n      dup4\n      0xffffffffffffffffffffffffffffffffffffffff\n      and\n      mul\n      or\n      swap1\n      sstore\n      pop\n        /* \"contracts/authentication.sol\":929:937  username */\n      dup4\n        /* \"contracts/authentication.sol\":901:905  user */\n      0x01\n        /* \"contracts/authentication.sol\":901:917  user[msg.sender] */\n      0x00\n        /* \"contracts/authentication.sol\":906:916  msg.sender */\n      caller\n        /* \"contracts/authentication.sol\":901:917  user[msg.sender] */\n      0xffffffffffffffffffffffffffffffffffffffff\n      and\n      0xffffffffffffffffffffffffffffffffffffffff\n      and\n      dup2\n      mstore\n      0x20\n      add\n      swap1\n      dup2\n      mstore\n      0x20\n      add\n      0x00\n      keccak256\n        /* \"contracts/authentication.sol\":901:926  user[msg.sender].username */\n      0x02\n      add\n        /* \"contracts/authentication.sol\":901:937  user[msg.sender].username = username */\n      swap1\n      dup1\n      mload\n      swap1\n      0x20\n      add\n      swap1\n      tag_32\n      swap3\n      swap2\n      swap1\n      tag_30\n      jump\t// in\n    tag_32:\n      pop\n        /* \"contracts/authentication.sol\":976:984  password */\n      dup3\n        /* \"contracts/authentication.sol\":948:952  user */\n      0x01\n        /* \"contracts/authentication.sol\":948:964  user[msg.sender] */\n      0x00\n        /* \"contracts/authentication.sol\":953:963  msg.sender */\n      caller\n        /* \"contracts/authentication.sol\":948:964  user[msg.sender] */\n      0xffffffffffffffffffffffffffffffffffffffff\n      and\n      0xffffffffffffffffffffffffffffffffffffffff\n      and\n      dup2\n      mstore\n      0x20\n      add\n      swap1\n      dup2\n      mstore\n      0x20\n      add\n      0x00\n      keccak256\n        /* \"contracts/authentication.sol\":948:973  user[msg.sender].password */\n      0x03\n      add\n        /* \"contracts/authentication.sol\":948:984  user[msg.sender].password = password */\n      swap1\n      dup1\n      mload\n      swap1\n      0x20\n      add\n      swap1\n      tag_33\n      swap3\n      swap2\n      swap1\n      tag_30\n      jump\t// in\n    tag_33:\n      pop\n        /* \"contracts/authentication.sol\":1029:1043  repeatPassword */\n      dup2\n        /* \"contracts/authentication.sol\":995:999  user */\n      0x01\n        /* \"contracts/authentication.sol\":995:1011  user[msg.sender] */\n      0x00\n        /* \"contracts/authentication.sol\":1000:1010  msg.sender */\n      caller\n        /* \"contracts/authentication.sol\":995:1011  user[msg.sender] */\n      0xffffffffffffffffffffffffffffffffffffffff\n      and\n      0xffffffffffffffffffffffffffffffffffffffff\n      and\n      dup2\n      mstore\n      0x20\n      add\n      swap1\n      dup2\n      mstore\n      0x20\n      add\n      0x00\n      keccak256\n        /* \"contracts/authentication.sol\":995:1026  user[msg.sender].repeatPassword */\n      0x04\n      add\n        /* \"contracts/authentication.sol\":995:1043  user[msg.sender].repeatPassword = repeatPassword */\n      swap1\n      dup1\n      mload\n      swap1\n      0x20\n      add\n      swap1\n      tag_34\n      swap3\n      swap2\n      swap1\n      tag_30\n      jump\t// in\n    tag_34:\n      pop\n        /* \"contracts/authentication.sol\":1054:1063  nbOfUsers */\n      0x00\n      dup1\n        /* \"contracts/authentication.sol\":1054:1065  nbOfUsers++ */\n      dup2\n      sload\n      dup1\n      swap3\n      swap2\n      swap1\n      tag_35\n      swap1\n      tag_36\n      jump\t// in\n    tag_35:\n      swap2\n      swap1\n      pop\n      sstore\n      pop\n        /* \"contracts/authentication.sol\":1098:1099  1 */\n      0x01\n        /* \"contracts/authentication.sol\":1085:1094  nbOfUsers */\n      sload(0x00)\n        /* \"contracts/authentication.sol\":1085:1099  nbOfUsers == 1 */\n      eq\n        /* \"contracts/authentication.sol\":1076:1150  require( nbOfUsers == 1,\r... */\n      tag_37\n      jumpi\n      mload(0x40)\n      0x08c379a000000000000000000000000000000000000000000000000000000000\n      dup2\n      mstore\n      0x04\n      add\n      tag_38\n      swap1\n      tag_39\n      jump\t// in\n    tag_38:\n      mload(0x40)\n      dup1\n      swap2\n      sub\n      swap1\n      revert\n    tag_37:\n        /* \"contracts/authentication.sol\":1161:1193  return \"Successfully Registered\" */\n      mload(0x40)\n      dup1\n      0x40\n      add\n      0x40\n      mstore\n      dup1\n      0x17\n      dup2\n      mstore\n      0x20\n      add\n      0x5375636365737366756c6c792052656769737465726564000000000000000000\n      dup2\n      mstore\n      pop\n      swap1\n      pop\n        /* \"contracts/authentication.sol\":419:1201  function register(string memory _signature, string memory email, string memory username, string memory password, string memory repeatPassword) public returns(string memory) {\r... */\n      swap6\n      swap5\n      pop\n      pop\n      pop\n      pop\n      pop\n      jump\t// out\n        /* \"contracts/authentication.sol\":1534:1644  function getUsername() public view returns (string memory) {\r... */\n    tag_19:\n        /* \"contracts/authentication.sol\":1578:1591  string memory */\n      0x60\n        /* \"contracts/authentication.sol\":1611:1615  user */\n      0x01\n        /* \"contracts/authentication.sol\":1611:1627  user[msg.sender] */\n      0x00\n        /* \"contracts/authentication.sol\":1616:1626  msg.sender */\n      caller\n        /* \"contracts/authentication.sol\":1611:1627  user[msg.sender] */\n      0xffffffffffffffffffffffffffffffffffffffff\n      and\n      0xffffffffffffffffffffffffffffffffffffffff\n      and\n      dup2\n      mstore\n      0x20\n      add\n      swap1\n      dup2\n      mstore\n      0x20\n      add\n      0x00\n      keccak256\n        /* \"contracts/authentication.sol\":1611:1636  user[msg.sender].username */\n      0x02\n      add\n        /* \"contracts/authentication.sol\":1604:1636  return user[msg.sender].username */\n      dup1\n      sload\n      tag_41\n      swap1\n      tag_42\n      jump\t// in\n    tag_41:\n      dup1\n      0x1f\n      add\n      0x20\n      dup1\n      swap2\n      div\n      mul\n      0x20\n      add\n      mload(0x40)\n      swap1\n      dup2\n      add\n      0x40\n      mstore\n      dup1\n      swap3\n      swap2\n      swap1\n      dup2\n      dup2\n      mstore\n      0x20\n      add\n      dup3\n      dup1\n      sload\n      tag_43\n      swap1\n      tag_42\n      jump\t// in\n    tag_43:\n      dup1\n      iszero\n      tag_44\n      jumpi\n      dup1\n      0x1f\n      lt\n      tag_45\n      jumpi\n      0x0100\n      dup1\n      dup4\n      sload\n      div\n      mul\n      dup4\n      mstore\n      swap2\n      0x20\n      add\n      swap2\n      jump(tag_44)\n    tag_45:\n      dup3\n      add\n      swap2\n      swap1\n      0x00\n      mstore\n      keccak256(0x00, 0x20)\n      swap1\n    tag_46:\n      dup2\n      sload\n      dup2\n      mstore\n      swap1\n      0x01\n      add\n      swap1\n      0x20\n      add\n      dup1\n      dup4\n      gt\n      tag_46\n      jumpi\n      dup3\n      swap1\n      sub\n      0x1f\n      and\n      dup3\n      add\n      swap2\n    tag_44:\n      pop\n      pop\n      pop\n      pop\n      pop\n      swap1\n      pop\n        /* \"contracts/authentication.sol\":1534:1644  function getUsername() public view returns (string memory) {\r... */\n      swap1\n      jump\t// out\n        /* \"contracts/authentication.sol\":1209:1408  function getSignatureHash() public view returns (string memory) {\r... */\n    tag_22:\n        /* \"contracts/authentication.sol\":1258:1271  string memory */\n      0x60\n        /* \"contracts/authentication.sol\":1306:1310  user */\n      0x01\n        /* \"contracts/authentication.sol\":1306:1322  user[msg.sender] */\n      0x00\n        /* \"contracts/authentication.sol\":1311:1321  msg.sender */\n      caller\n        /* \"contracts/authentication.sol\":1306:1322  user[msg.sender] */\n      0xffffffffffffffffffffffffffffffffffffffff\n      and\n      0xffffffffffffffffffffffffffffffffffffffff\n      and\n      dup2\n      mstore\n      0x20\n      add\n      swap1\n      dup2\n      mstore\n      0x20\n      add\n      0x00\n      keccak256\n        /* \"contracts/authentication.sol\":1306:1334  user[msg.sender].userAddress */\n      0x05\n      add\n      0x00\n      swap1\n      sload\n      swap1\n      0x0100\n      exp\n      swap1\n      div\n      0xffffffffffffffffffffffffffffffffffffffff\n      and\n        /* \"contracts/authentication.sol\":1292:1334  msg.sender == user[msg.sender].userAddress */\n      0xffffffffffffffffffffffffffffffffffffffff\n      and\n        /* \"contracts/authentication.sol\":1292:1302  msg.sender */\n      caller\n        /* \"contracts/authentication.sol\":1292:1334  msg.sender == user[msg.sender].userAddress */\n      0xffffffffffffffffffffffffffffffffffffffff\n      and\n      eq\n        /* \"contracts/authentication.sol\":1284:1350  require(msg.sender == user[msg.sender].userAddress, \"Not allowed\") */\n      tag_48\n      jumpi\n      mload(0x40)\n      0x08c379a000000000000000000000000000000000000000000000000000000000\n      dup2\n      mstore\n      0x04\n      add\n      tag_49\n      swap1\n      tag_50\n      jump\t// in\n    tag_49:\n      mload(0x40)\n      dup1\n      swap2\n      sub\n      swap1\n      revert\n    tag_48:\n        /* \"contracts/authentication.sol\":1370:1374  user */\n      0x01\n        /* \"contracts/authentication.sol\":1370:1386  user[msg.sender] */\n      0x00\n        /* \"contracts/authentication.sol\":1375:1385  msg.sender */\n      caller\n        /* \"contracts/authentication.sol\":1370:1386  user[msg.sender] */\n      0xffffffffffffffffffffffffffffffffffffffff\n      and\n      0xffffffffffffffffffffffffffffffffffffffff\n      and\n      dup2\n      mstore\n      0x20\n      add\n      swap1\n      dup2\n      mstore\n      0x20\n      add\n      0x00\n      keccak256\n        /* \"contracts/authentication.sol\":1370:1400  user[msg.sender].signatureHash */\n      0x00\n      add\n        /* \"contracts/authentication.sol\":1363:1400  return user[msg.sender].signatureHash */\n      dup1\n      sload\n      tag_51\n      swap1\n      tag_42\n      jump\t// in\n    tag_51:\n      dup1\n      0x1f\n      add\n      0x20\n      dup1\n      swap2\n      div\n      mul\n      0x20\n      add\n      mload(0x40)\n      swap1\n      dup2\n      add\n      0x40\n      mstore\n      dup1\n      swap3\n      swap2\n      swap1\n      dup2\n      dup2\n      mstore\n      0x20\n      add\n      dup3\n      dup1\n      sload\n      tag_52\n      swap1\n      tag_42\n      jump\t// in\n    tag_52:\n      dup1\n      iszero\n      tag_53\n      jumpi\n      dup1\n      0x1f\n      lt\n      tag_54\n      jumpi\n      0x0100\n      dup1\n      dup4\n      sload\n      div\n      mul\n      dup4\n      mstore\n      swap2\n      0x20\n      add\n      swap2\n      jump(tag_53)\n    tag_54:\n      dup3\n      add\n      swap2\n      swap1\n      0x00\n      mstore\n      keccak256(0x00, 0x20)\n      swap1\n    tag_55:\n      dup2\n      sload\n      dup2\n      mstore\n      swap1\n      0x01\n      add\n      swap1\n      0x20\n      add\n      dup1\n      dup4\n      gt\n      tag_55\n      jumpi\n      dup3\n      swap1\n      sub\n      0x1f\n      and\n      dup3\n      add\n      swap2\n    tag_53:\n      pop\n      pop\n      pop\n      pop\n      pop\n      swap1\n      pop\n        /* \"contracts/authentication.sol\":1209:1408  function getSignatureHash() public view returns (string memory) {\r... */\n      swap1\n      jump\t// out\n        /* \"contracts/authentication.sol\":1416:1526  function getUserAddress() public view returns (address) {\r... */\n    tag_25:\n        /* \"contracts/authentication.sol\":1463:1470  address */\n      0x00\n        /* \"contracts/authentication.sol\":1490:1494  user */\n      0x01\n        /* \"contracts/authentication.sol\":1490:1506  user[msg.sender] */\n      0x00\n        /* \"contracts/authentication.sol\":1495:1505  msg.sender */\n      caller\n        /* \"contracts/authentication.sol\":1490:1506  user[msg.sender] */\n      0xffffffffffffffffffffffffffffffffffffffff\n      and\n      0xffffffffffffffffffffffffffffffffffffffff\n      and\n      dup2\n      mstore\n      0x20\n      add\n      swap1\n      dup2\n      mstore\n      0x20\n      add\n      0x00\n      keccak256\n        /* \"contracts/authentication.sol\":1490:1518  user[msg.sender].userAddress */\n      0x05\n      add\n      0x00\n      swap1\n      sload\n      swap1\n      0x0100\n      exp\n      swap1\n      div\n      0xffffffffffffffffffffffffffffffffffffffff\n      and\n        /* \"contracts/authentication.sol\":1483:1518  return user[msg.sender].userAddress */\n      swap1\n      pop\n        /* \"contracts/authentication.sol\":1416:1526  function getUserAddress() public view returns (address) {\r... */\n      swap1\n      jump\t// out\n    tag_30:\n      dup3\n      dup1\n      sload\n      tag_57\n      swap1\n      tag_42\n      jump\t// in\n    tag_57:\n      swap1\n      0x00\n      mstore\n      keccak256(0x00, 0x20)\n      swap1\n      0x1f\n      add\n      0x20\n      swap1\n      div\n      dup2\n      add\n      swap3\n      dup3\n      tag_59\n      jumpi\n      0x00\n      dup6\n      sstore\n      jump(tag_58)\n    tag_59:\n      dup3\n      0x1f\n      lt\n      tag_60\n      jumpi\n      dup1\n      mload\n      not(0xff)\n      and\n      dup4\n      dup1\n      add\n      or\n      dup6\n      sstore\n      jump(tag_58)\n    tag_60:\n      dup3\n      dup1\n      add\n      0x01\n      add\n      dup6\n      sstore\n      dup3\n      iszero\n      tag_58\n      jumpi\n      swap2\n      dup3\n      add\n    tag_61:\n      dup3\n      dup2\n      gt\n      iszero\n      tag_62\n      jumpi\n      dup3\n      mload\n      dup3\n      sstore\n      swap2\n      0x20\n      add\n      swap2\n      swap1\n      0x01\n      add\n      swap1\n      jump(tag_61)\n    tag_62:\n    tag_58:\n      pop\n      swap1\n      pop\n      tag_63\n      swap2\n      swap1\n      tag_64\n      jump\t// in\n    tag_63:\n      pop\n      swap1\n      jump\t// out\n    tag_64:\n    tag_65:\n      dup1\n      dup3\n      gt\n      iszero\n      tag_66\n      jumpi\n      0x00\n      dup2\n      0x00\n      swap1\n      sstore\n      pop\n      0x01\n      add\n      jump(tag_65)\n    tag_66:\n      pop\n      swap1\n      jump\t// out\n        /* \"#utility.yul\":7:419   */\n    tag_68:\n        /* \"#utility.yul\":85:90   */\n      0x00\n        /* \"#utility.yul\":110:176   */\n      tag_70\n        /* \"#utility.yul\":126:175   */\n      tag_71\n        /* \"#utility.yul\":168:174   */\n      dup5\n        /* \"#utility.yul\":126:175   */\n      tag_72\n      jump\t// in\n    tag_71:\n        /* \"#utility.yul\":110:176   */\n      tag_73\n      jump\t// in\n    tag_70:\n        /* \"#utility.yul\":101:176   */\n      swap1\n      pop\n        /* \"#utility.yul\":199:205   */\n      dup3\n        /* \"#utility.yul\":192:197   */\n      dup2\n        /* \"#utility.yul\":185:206   */\n      mstore\n        /* \"#utility.yul\":237:241   */\n      0x20\n        /* \"#utility.yul\":230:235   */\n      dup2\n        /* \"#utility.yul\":226:242   */\n      add\n        /* \"#utility.yul\":275:278   */\n      dup5\n        /* \"#utility.yul\":266:272   */\n      dup5\n        /* \"#utility.yul\":261:264   */\n      dup5\n        /* \"#utility.yul\":257:273   */\n      add\n        /* \"#utility.yul\":254:279   */\n      gt\n        /* \"#utility.yul\":251:253   */\n      iszero\n      tag_74\n      jumpi\n        /* \"#utility.yul\":282:361   */\n      tag_75\n      tag_76\n      jump\t// in\n    tag_75:\n        /* \"#utility.yul\":251:253   */\n    tag_74:\n        /* \"#utility.yul\":372:413   */\n      tag_77\n        /* \"#utility.yul\":406:412   */\n      dup5\n        /* \"#utility.yul\":401:404   */\n      dup3\n        /* \"#utility.yul\":396:399   */\n      dup6\n        /* \"#utility.yul\":372:413   */\n      tag_78\n      jump\t// in\n    tag_77:\n        /* \"#utility.yul\":91:419   */\n      pop\n      swap4\n      swap3\n      pop\n      pop\n      pop\n      jump\t// out\n        /* \"#utility.yul\":439:779   */\n    tag_79:\n        /* \"#utility.yul\":495:500   */\n      0x00\n        /* \"#utility.yul\":544:547   */\n      dup3\n        /* \"#utility.yul\":537:541   */\n      0x1f\n        /* \"#utility.yul\":529:535   */\n      dup4\n        /* \"#utility.yul\":525:542   */\n      add\n        /* \"#utility.yul\":521:548   */\n      slt\n        /* \"#utility.yul\":511:513   */\n      tag_81\n      jumpi\n        /* \"#utility.yul\":552:631   */\n      tag_82\n      tag_83\n      jump\t// in\n    tag_82:\n        /* \"#utility.yul\":511:513   */\n    tag_81:\n        /* \"#utility.yul\":669:675   */\n      dup2\n        /* \"#utility.yul\":656:676   */\n      calldataload\n        /* \"#utility.yul\":694:773   */\n      tag_84\n        /* \"#utility.yul\":769:772   */\n      dup5\n        /* \"#utility.yul\":761:767   */\n      dup3\n        /* \"#utility.yul\":754:758   */\n      0x20\n        /* \"#utility.yul\":746:752   */\n      dup7\n        /* \"#utility.yul\":742:759   */\n      add\n        /* \"#utility.yul\":694:773   */\n      tag_68\n      jump\t// in\n    tag_84:\n        /* \"#utility.yul\":685:773   */\n      swap2\n      pop\n        /* \"#utility.yul\":501:779   */\n      pop\n      swap3\n      swap2\n      pop\n      pop\n      jump\t// out\n        /* \"#utility.yul\":785:2596   */\n    tag_14:\n        /* \"#utility.yul\":930:936   */\n      0x00\n        /* \"#utility.yul\":938:944   */\n      dup1\n        /* \"#utility.yul\":946:952   */\n      0x00\n        /* \"#utility.yul\":954:960   */\n      dup1\n        /* \"#utility.yul\":962:968   */\n      0x00\n        /* \"#utility.yul\":1011:1014   */\n      0xa0\n        /* \"#utility.yul\":999:1008   */\n      dup7\n        /* \"#utility.yul\":990:997   */\n      dup9\n        /* \"#utility.yul\":986:1009   */\n      sub\n        /* \"#utility.yul\":982:1015   */\n      slt\n        /* \"#utility.yul\":979:981   */\n      iszero\n      tag_86\n      jumpi\n        /* \"#utility.yul\":1018:1097   */\n      tag_87\n      tag_88\n      jump\t// in\n    tag_87:\n        /* \"#utility.yul\":979:981   */\n    tag_86:\n        /* \"#utility.yul\":1166:1167   */\n      0x00\n        /* \"#utility.yul\":1155:1164   */\n      dup7\n        /* \"#utility.yul\":1151:1168   */\n      add\n        /* \"#utility.yul\":1138:1169   */\n      calldataload\n        /* \"#utility.yul\":1196:1214   */\n      0xffffffffffffffff\n        /* \"#utility.yul\":1188:1194   */\n      dup2\n        /* \"#utility.yul\":1185:1215   */\n      gt\n        /* \"#utility.yul\":1182:1184   */\n      iszero\n      tag_89\n      jumpi\n        /* \"#utility.yul\":1218:1297   */\n      tag_90\n      tag_91\n      jump\t// in\n    tag_90:\n        /* \"#utility.yul\":1182:1184   */\n    tag_89:\n        /* \"#utility.yul\":1323:1386   */\n      tag_92\n        /* \"#utility.yul\":1378:1385   */\n      dup9\n        /* \"#utility.yul\":1369:1375   */\n      dup3\n        /* \"#utility.yul\":1358:1367   */\n      dup10\n        /* \"#utility.yul\":1354:1376   */\n      add\n        /* \"#utility.yul\":1323:1386   */\n      tag_79\n      jump\t// in\n    tag_92:\n        /* \"#utility.yul\":1313:1386   */\n      swap6\n      pop\n        /* \"#utility.yul\":1109:1396   */\n      pop\n        /* \"#utility.yul\":1463:1465   */\n      0x20\n        /* \"#utility.yul\":1452:1461   */\n      dup7\n        /* \"#utility.yul\":1448:1466   */\n      add\n        /* \"#utility.yul\":1435:1467   */\n      calldataload\n        /* \"#utility.yul\":1494:1512   */\n      0xffffffffffffffff\n        /* \"#utility.yul\":1486:1492   */\n      dup2\n        /* \"#utility.yul\":1483:1513   */\n      gt\n        /* \"#utility.yul\":1480:1482   */\n      iszero\n      tag_93\n      jumpi\n        /* \"#utility.yul\":1516:1595   */\n      tag_94\n      tag_91\n      jump\t// in\n    tag_94:\n        /* \"#utility.yul\":1480:1482   */\n    tag_93:\n        /* \"#utility.yul\":1621:1684   */\n      tag_95\n        /* \"#utility.yul\":1676:1683   */\n      dup9\n        /* \"#utility.yul\":1667:1673   */\n      dup3\n        /* \"#utility.yul\":1656:1665   */\n      dup10\n        /* \"#utility.yul\":1652:1674   */\n      add\n        /* \"#utility.yul\":1621:1684   */\n      tag_79\n      jump\t// in\n    tag_95:\n        /* \"#utility.yul\":1611:1684   */\n      swap5\n      pop\n        /* \"#utility.yul\":1406:1694   */\n      pop\n        /* \"#utility.yul\":1761:1763   */\n      0x40\n        /* \"#utility.yul\":1750:1759   */\n      dup7\n        /* \"#utility.yul\":1746:1764   */\n      add\n        /* \"#utility.yul\":1733:1765   */\n      calldataload\n        /* \"#utility.yul\":1792:1810   */\n      0xffffffffffffffff\n        /* \"#utility.yul\":1784:1790   */\n      dup2\n        /* \"#utility.yul\":1781:1811   */\n      gt\n        /* \"#utility.yul\":1778:1780   */\n      iszero\n      tag_96\n      jumpi\n        /* \"#utility.yul\":1814:1893   */\n      tag_97\n      tag_91\n      jump\t// in\n    tag_97:\n        /* \"#utility.yul\":1778:1780   */\n    tag_96:\n        /* \"#utility.yul\":1919:1982   */\n      tag_98\n        /* \"#utility.yul\":1974:1981   */\n      dup9\n        /* \"#utility.yul\":1965:1971   */\n      dup3\n        /* \"#utility.yul\":1954:1963   */\n      dup10\n        /* \"#utility.yul\":1950:1972   */\n      add\n        /* \"#utility.yul\":1919:1982   */\n      tag_79\n      jump\t// in\n    tag_98:\n        /* \"#utility.yul\":1909:1982   */\n      swap4\n      pop\n        /* \"#utility.yul\":1704:1992   */\n      pop\n        /* \"#utility.yul\":2059:2061   */\n      0x60\n        /* \"#utility.yul\":2048:2057   */\n      dup7\n        /* \"#utility.yul\":2044:2062   */\n      add\n        /* \"#utility.yul\":2031:2063   */\n      calldataload\n        /* \"#utility.yul\":2090:2108   */\n      0xffffffffffffffff\n        /* \"#utility.yul\":2082:2088   */\n      dup2\n        /* \"#utility.yul\":2079:2109   */\n      gt\n        /* \"#utility.yul\":2076:2078   */\n      iszero\n      tag_99\n      jumpi\n        /* \"#utility.yul\":2112:2191   */\n      tag_100\n      tag_91\n      jump\t// in\n    tag_100:\n        /* \"#utility.yul\":2076:2078   */\n    tag_99:\n        /* \"#utility.yul\":2217:2280   */\n      tag_101\n        /* \"#utility.yul\":2272:2279   */\n      dup9\n        /* \"#utility.yul\":2263:2269   */\n      dup3\n        /* \"#utility.yul\":2252:2261   */\n      dup10\n        /* \"#utility.yul\":2248:2270   */\n      add\n        /* \"#utility.yul\":2217:2280   */\n      tag_79\n      jump\t// in\n    tag_101:\n        /* \"#utility.yul\":2207:2280   */\n      swap3\n      pop\n        /* \"#utility.yul\":2002:2290   */\n      pop\n        /* \"#utility.yul\":2357:2360   */\n      0x80\n        /* \"#utility.yul\":2346:2355   */\n      dup7\n        /* \"#utility.yul\":2342:2361   */\n      add\n        /* \"#utility.yul\":2329:2362   */\n      calldataload\n        /* \"#utility.yul\":2389:2407   */\n      0xffffffffffffffff\n        /* \"#utility.yul\":2381:2387   */\n      dup2\n        /* \"#utility.yul\":2378:2408   */\n      gt\n        /* \"#utility.yul\":2375:2377   */\n      iszero\n      tag_102\n      jumpi\n        /* \"#utility.yul\":2411:2490   */\n      tag_103\n      tag_91\n      jump\t// in\n    tag_103:\n        /* \"#utility.yul\":2375:2377   */\n    tag_102:\n        /* \"#utility.yul\":2516:2579   */\n      tag_104\n        /* \"#utility.yul\":2571:2578   */\n      dup9\n        /* \"#utility.yul\":2562:2568   */\n      dup3\n        /* \"#utility.yul\":2551:2560   */\n      dup10\n        /* \"#utility.yul\":2547:2569   */\n      add\n        /* \"#utility.yul\":2516:2579   */\n      tag_79\n      jump\t// in\n    tag_104:\n        /* \"#utility.yul\":2506:2579   */\n      swap2\n      pop\n        /* \"#utility.yul\":2300:2589   */\n      pop\n        /* \"#utility.yul\":969:2596   */\n      swap3\n      swap6\n      pop\n      swap3\n      swap6\n      swap1\n      swap4\n      pop\n      jump\t// out\n        /* \"#utility.yul\":2602:2720   */\n    tag_105:\n        /* \"#utility.yul\":2689:2713   */\n      tag_107\n        /* \"#utility.yul\":2707:2712   */\n      dup2\n        /* \"#utility.yul\":2689:2713   */\n      tag_108\n      jump\t// in\n    tag_107:\n        /* \"#utility.yul\":2684:2687   */\n      dup3\n        /* \"#utility.yul\":2677:2714   */\n      mstore\n        /* \"#utility.yul\":2667:2720   */\n      pop\n      pop\n      jump\t// out\n        /* \"#utility.yul\":2726:3090   */\n    tag_109:\n        /* \"#utility.yul\":2814:2817   */\n      0x00\n        /* \"#utility.yul\":2842:2881   */\n      tag_111\n        /* \"#utility.yul\":2875:2880   */\n      dup3\n        /* \"#utility.yul\":2842:2881   */\n      tag_112\n      jump\t// in\n    tag_111:\n        /* \"#utility.yul\":2897:2968   */\n      tag_113\n        /* \"#utility.yul\":2961:2967   */\n      dup2\n        /* \"#utility.yul\":2956:2959   */\n      dup6\n        /* \"#utility.yul\":2897:2968   */\n      tag_114\n      jump\t// in\n    tag_113:\n        /* \"#utility.yul\":2890:2968   */\n      swap4\n      pop\n        /* \"#utility.yul\":2977:3029   */\n      tag_115\n        /* \"#utility.yul\":3022:3028   */\n      dup2\n        /* \"#utility.yul\":3017:3020   */\n      dup6\n        /* \"#utility.yul\":3010:3014   */\n      0x20\n        /* \"#utility.yul\":3003:3008   */\n      dup7\n        /* \"#utility.yul\":2999:3015   */\n      add\n        /* \"#utility.yul\":2977:3029   */\n      tag_116\n      jump\t// in\n    tag_115:\n        /* \"#utility.yul\":3054:3083   */\n      tag_117\n        /* \"#utility.yul\":3076:3082   */\n      dup2\n        /* \"#utility.yul\":3054:3083   */\n      tag_118\n      jump\t// in\n    tag_117:\n        /* \"#utility.yul\":3049:3052   */\n      dup5\n        /* \"#utility.yul\":3045:3084   */\n      add\n        /* \"#utility.yul\":3038:3084   */\n      swap2\n      pop\n        /* \"#utility.yul\":2818:3090   */\n      pop\n      swap3\n      swap2\n      pop\n      pop\n      jump\t// out\n        /* \"#utility.yul\":3096:3462   */\n    tag_119:\n        /* \"#utility.yul\":3238:3241   */\n      0x00\n        /* \"#utility.yul\":3259:3326   */\n      tag_121\n        /* \"#utility.yul\":3323:3325   */\n      0x0b\n        /* \"#utility.yul\":3318:3321   */\n      dup4\n        /* \"#utility.yul\":3259:3326   */\n      tag_114\n      jump\t// in\n    tag_121:\n        /* \"#utility.yul\":3252:3326   */\n      swap2\n      pop\n        /* \"#utility.yul\":3335:3428   */\n      tag_122\n        /* \"#utility.yul\":3424:3427   */\n      dup3\n        /* \"#utility.yul\":3335:3428   */\n      tag_123\n      jump\t// in\n    tag_122:\n        /* \"#utility.yul\":3453:3455   */\n      0x20\n        /* \"#utility.yul\":3448:3451   */\n      dup3\n        /* \"#utility.yul\":3444:3456   */\n      add\n        /* \"#utility.yul\":3437:3456   */\n      swap1\n      pop\n        /* \"#utility.yul\":3242:3462   */\n      swap2\n      swap1\n      pop\n      jump\t// out\n        /* \"#utility.yul\":3468:3834   */\n    tag_124:\n        /* \"#utility.yul\":3610:3613   */\n      0x00\n        /* \"#utility.yul\":3631:3698   */\n      tag_126\n        /* \"#utility.yul\":3695:3697   */\n      0x17\n        /* \"#utility.yul\":3690:3693   */\n      dup4\n        /* \"#utility.yul\":3631:3698   */\n      tag_114\n      jump\t// in\n    tag_126:\n        /* \"#utility.yul\":3624:3698   */\n      swap2\n      pop\n        /* \"#utility.yul\":3707:3800   */\n      tag_127\n        /* \"#utility.yul\":3796:3799   */\n      dup3\n        /* \"#utility.yul\":3707:3800   */\n      tag_128\n      jump\t// in\n    tag_127:\n        /* \"#utility.yul\":3825:3827   */\n      0x20\n        /* \"#utility.yul\":3820:3823   */\n      dup3\n        /* \"#utility.yul\":3816:3828   */\n      add\n        /* \"#utility.yul\":3809:3828   */\n      swap1\n      pop\n        /* \"#utility.yul\":3614:3834   */\n      swap2\n      swap1\n      pop\n      jump\t// out\n        /* \"#utility.yul\":3840:3958   */\n    tag_129:\n        /* \"#utility.yul\":3927:3951   */\n      tag_131\n        /* \"#utility.yul\":3945:3950   */\n      dup2\n        /* \"#utility.yul\":3927:3951   */\n      tag_132\n      jump\t// in\n    tag_131:\n        /* \"#utility.yul\":3922:3925   */\n      dup3\n        /* \"#utility.yul\":3915:3952   */\n      mstore\n        /* \"#utility.yul\":3905:3958   */\n      pop\n      pop\n      jump\t// out\n        /* \"#utility.yul\":3964:4186   */\n    tag_27:\n        /* \"#utility.yul\":4057:4061   */\n      0x00\n        /* \"#utility.yul\":4095:4097   */\n      0x20\n        /* \"#utility.yul\":4084:4093   */\n      dup3\n        /* \"#utility.yul\":4080:4098   */\n      add\n        /* \"#utility.yul\":4072:4098   */\n      swap1\n      pop\n        /* \"#utility.yul\":4108:4179   */\n      tag_134\n        /* \"#utility.yul\":4176:4177   */\n      0x00\n        /* \"#utility.yul\":4165:4174   */\n      dup4\n        /* \"#utility.yul\":4161:4178   */\n      add\n        /* \"#utility.yul\":4152:4158   */\n      dup5\n        /* \"#utility.yul\":4108:4179   */\n      tag_105\n      jump\t// in\n    tag_134:\n        /* \"#utility.yul\":4062:4186   */\n      swap3\n      swap2\n      pop\n      pop\n      jump\t// out\n        /* \"#utility.yul\":4192:4505   */\n    tag_17:\n        /* \"#utility.yul\":4305:4309   */\n      0x00\n        /* \"#utility.yul\":4343:4345   */\n      0x20\n        /* \"#utility.yul\":4332:4341   */\n      dup3\n        /* \"#utility.yul\":4328:4346   */\n      add\n        /* \"#utility.yul\":4320:4346   */\n      swap1\n      pop\n        /* \"#utility.yul\":4392:4401   */\n      dup2\n        /* \"#utility.yul\":4386:4390   */\n      dup2\n        /* \"#utility.yul\":4382:4402   */\n      sub\n        /* \"#utility.yul\":4378:4379   */\n      0x00\n        /* \"#utility.yul\":4367:4376   */\n      dup4\n        /* \"#utility.yul\":4363:4380   */\n      add\n        /* \"#utility.yul\":4356:4403   */\n      mstore\n        /* \"#utility.yul\":4420:4498   */\n      tag_136\n        /* \"#utility.yul\":4493:4497   */\n      dup2\n        /* \"#utility.yul\":4484:4490   */\n      dup5\n        /* \"#utility.yul\":4420:4498   */\n      tag_109\n      jump\t// in\n    tag_136:\n        /* \"#utility.yul\":4412:4498   */\n      swap1\n      pop\n        /* \"#utility.yul\":4310:4505   */\n      swap3\n      swap2\n      pop\n      pop\n      jump\t// out\n        /* \"#utility.yul\":4511:4930   */\n    tag_50:\n        /* \"#utility.yul\":4677:4681   */\n      0x00\n        /* \"#utility.yul\":4715:4717   */\n      0x20\n        /* \"#utility.yul\":4704:4713   */\n      dup3\n        /* \"#utility.yul\":4700:4718   */\n      add\n        /* \"#utility.yul\":4692:4718   */\n      swap1\n      pop\n        /* \"#utility.yul\":4764:4773   */\n      dup2\n        /* \"#utility.yul\":4758:4762   */\n      dup2\n        /* \"#utility.yul\":4754:4774   */\n      sub\n        /* \"#utility.yul\":4750:4751   */\n      0x00\n        /* \"#utility.yul\":4739:4748   */\n      dup4\n        /* \"#utility.yul\":4735:4752   */\n      add\n        /* \"#utility.yul\":4728:4775   */\n      mstore\n        /* \"#utility.yul\":4792:4923   */\n      tag_138\n        /* \"#utility.yul\":4918:4922   */\n      dup2\n        /* \"#utility.yul\":4792:4923   */\n      tag_119\n      jump\t// in\n    tag_138:\n        /* \"#utility.yul\":4784:4923   */\n      swap1\n      pop\n        /* \"#utility.yul\":4682:4930   */\n      swap2\n      swap1\n      pop\n      jump\t// out\n        /* \"#utility.yul\":4936:5355   */\n    tag_39:\n        /* \"#utility.yul\":5102:5106   */\n      0x00\n        /* \"#utility.yul\":5140:5142   */\n      0x20\n        /* \"#utility.yul\":5129:5138   */\n      dup3\n        /* \"#utility.yul\":5125:5143   */\n      add\n        /* \"#utility.yul\":5117:5143   */\n      swap1\n      pop\n        /* \"#utility.yul\":5189:5198   */\n      dup2\n        /* \"#utility.yul\":5183:5187   */\n      dup2\n        /* \"#utility.yul\":5179:5199   */\n      sub\n        /* \"#utility.yul\":5175:5176   */\n      0x00\n        /* \"#utility.yul\":5164:5173   */\n      dup4\n        /* \"#utility.yul\":5160:5177   */\n      add\n        /* \"#utility.yul\":5153:5200   */\n      mstore\n        /* \"#utility.yul\":5217:5348   */\n      tag_140\n        /* \"#utility.yul\":5343:5347   */\n      dup2\n        /* \"#utility.yul\":5217:5348   */\n      tag_124\n      jump\t// in\n    tag_140:\n        /* \"#utility.yul\":5209:5348   */\n      swap1\n      pop\n        /* \"#utility.yul\":5107:5355   */\n      swap2\n      swap1\n      pop\n      jump\t// out\n        /* \"#utility.yul\":5361:5583   */\n    tag_11:\n        /* \"#utility.yul\":5454:5458   */\n      0x00\n        /* \"#utility.yul\":5492:5494   */\n      0x20\n        /* \"#utility.yul\":5481:5490   */\n      dup3\n        /* \"#utility.yul\":5477:5495   */\n      add\n        /* \"#utility.yul\":5469:5495   */\n      swap1\n      pop\n        /* \"#utility.yul\":5505:5576   */\n      tag_142\n        /* \"#utility.yul\":5573:5574   */\n      0x00\n        /* \"#utility.yul\":5562:5571   */\n      dup4\n        /* \"#utility.yul\":5558:5575   */\n      add\n        /* \"#utility.yul\":5549:5555   */\n      dup5\n        /* \"#utility.yul\":5505:5576   */\n      tag_129\n      jump\t// in\n    tag_142:\n        /* \"#utility.yul\":5459:5583   */\n      swap3\n      swap2\n      pop\n      pop\n      jump\t// out\n        /* \"#utility.yul\":5589:5718   */\n    tag_73:\n        /* \"#utility.yul\":5623:5629   */\n      0x00\n        /* \"#utility.yul\":5650:5670   */\n      tag_144\n      tag_145\n      jump\t// in\n    tag_144:\n        /* \"#utility.yul\":5640:5670   */\n      swap1\n      pop\n        /* \"#utility.yul\":5679:5712   */\n      tag_146\n        /* \"#utility.yul\":5707:5711   */\n      dup3\n        /* \"#utility.yul\":5699:5705   */\n      dup3\n        /* \"#utility.yul\":5679:5712   */\n      tag_147\n      jump\t// in\n    tag_146:\n        /* \"#utility.yul\":5630:5718   */\n      swap2\n      swap1\n      pop\n      jump\t// out\n        /* \"#utility.yul\":5724:5799   */\n    tag_145:\n        /* \"#utility.yul\":5757:5763   */\n      0x00\n        /* \"#utility.yul\":5790:5792   */\n      0x40\n        /* \"#utility.yul\":5784:5793   */\n      mload\n        /* \"#utility.yul\":5774:5793   */\n      swap1\n      pop\n        /* \"#utility.yul\":5764:5799   */\n      swap1\n      jump\t// out\n        /* \"#utility.yul\":5805:6113   */\n    tag_72:\n        /* \"#utility.yul\":5867:5871   */\n      0x00\n        /* \"#utility.yul\":5957:5975   */\n      0xffffffffffffffff\n        /* \"#utility.yul\":5949:5955   */\n      dup3\n        /* \"#utility.yul\":5946:5976   */\n      gt\n        /* \"#utility.yul\":5943:5945   */\n      iszero\n      tag_150\n      jumpi\n        /* \"#utility.yul\":5979:5997   */\n      tag_151\n      tag_152\n      jump\t// in\n    tag_151:\n        /* \"#utility.yul\":5943:5945   */\n    tag_150:\n        /* \"#utility.yul\":6017:6046   */\n      tag_153\n        /* \"#utility.yul\":6039:6045   */\n      dup3\n        /* \"#utility.yul\":6017:6046   */\n      tag_118\n      jump\t// in\n    tag_153:\n        /* \"#utility.yul\":6009:6046   */\n      swap1\n      pop\n        /* \"#utility.yul\":6101:6105   */\n      0x20\n        /* \"#utility.yul\":6095:6099   */\n      dup2\n        /* \"#utility.yul\":6091:6106   */\n      add\n        /* \"#utility.yul\":6083:6106   */\n      swap1\n      pop\n        /* \"#utility.yul\":5872:6113   */\n      swap2\n      swap1\n      pop\n      jump\t// out\n        /* \"#utility.yul\":6119:6218   */\n    tag_112:\n        /* \"#utility.yul\":6171:6177   */\n      0x00\n        /* \"#utility.yul\":6205:6210   */\n      dup2\n        /* \"#utility.yul\":6199:6211   */\n      mload\n        /* \"#utility.yul\":6189:6211   */\n      swap1\n      pop\n        /* \"#utility.yul\":6178:6218   */\n      swap2\n      swap1\n      pop\n      jump\t// out\n        /* \"#utility.yul\":6224:6393   */\n    tag_114:\n        /* \"#utility.yul\":6308:6319   */\n      0x00\n        /* \"#utility.yul\":6342:6348   */\n      dup3\n        /* \"#utility.yul\":6337:6340   */\n      dup3\n        /* \"#utility.yul\":6330:6349   */\n      mstore\n        /* \"#utility.yul\":6382:6386   */\n      0x20\n        /* \"#utility.yul\":6377:6380   */\n      dup3\n        /* \"#utility.yul\":6373:6387   */\n      add\n        /* \"#utility.yul\":6358:6387   */\n      swap1\n      pop\n        /* \"#utility.yul\":6320:6393   */\n      swap3\n      swap2\n      pop\n      pop\n      jump\t// out\n        /* \"#utility.yul\":6399:6495   */\n    tag_108:\n        /* \"#utility.yul\":6436:6443   */\n      0x00\n        /* \"#utility.yul\":6465:6489   */\n      tag_157\n        /* \"#utility.yul\":6483:6488   */\n      dup3\n        /* \"#utility.yul\":6465:6489   */\n      tag_158\n      jump\t// in\n    tag_157:\n        /* \"#utility.yul\":6454:6489   */\n      swap1\n      pop\n        /* \"#utility.yul\":6444:6495   */\n      swap2\n      swap1\n      pop\n      jump\t// out\n        /* \"#utility.yul\":6501:6627   */\n    tag_158:\n        /* \"#utility.yul\":6538:6545   */\n      0x00\n        /* \"#utility.yul\":6578:6620   */\n      0xffffffffffffffffffffffffffffffffffffffff\n        /* \"#utility.yul\":6571:6576   */\n      dup3\n        /* \"#utility.yul\":6567:6621   */\n      and\n        /* \"#utility.yul\":6556:6621   */\n      swap1\n      pop\n        /* \"#utility.yul\":6546:6627   */\n      swap2\n      swap1\n      pop\n      jump\t// out\n        /* \"#utility.yul\":6633:6710   */\n    tag_132:\n        /* \"#utility.yul\":6670:6677   */\n      0x00\n        /* \"#utility.yul\":6699:6704   */\n      dup2\n        /* \"#utility.yul\":6688:6704   */\n      swap1\n      pop\n        /* \"#utility.yul\":6678:6710   */\n      swap2\n      swap1\n      pop\n      jump\t// out\n        /* \"#utility.yul\":6716:6870   */\n    tag_78:\n        /* \"#utility.yul\":6800:6806   */\n      dup3\n        /* \"#utility.yul\":6795:6798   */\n      dup2\n        /* \"#utility.yul\":6790:6793   */\n      dup4\n        /* \"#utility.yul\":6777:6807   */\n      calldatacopy\n        /* \"#utility.yul\":6862:6863   */\n      0x00\n        /* \"#utility.yul\":6853:6859   */\n      dup4\n        /* \"#utility.yul\":6848:6851   */\n      dup4\n        /* \"#utility.yul\":6844:6860   */\n      add\n        /* \"#utility.yul\":6837:6864   */\n      mstore\n        /* \"#utility.yul\":6767:6870   */\n      pop\n      pop\n      pop\n      jump\t// out\n        /* \"#utility.yul\":6876:7183   */\n    tag_116:\n        /* \"#utility.yul\":6944:6945   */\n      0x00\n        /* \"#utility.yul\":6954:7067   */\n    tag_163:\n        /* \"#utility.yul\":6968:6974   */\n      dup4\n        /* \"#utility.yul\":6965:6966   */\n      dup2\n        /* \"#utility.yul\":6962:6975   */\n      lt\n        /* \"#utility.yul\":6954:7067   */\n      iszero\n      tag_165\n      jumpi\n        /* \"#utility.yul\":7053:7054   */\n      dup1\n        /* \"#utility.yul\":7048:7051   */\n      dup3\n        /* \"#utility.yul\":7044:7055   */\n      add\n        /* \"#utility.yul\":7038:7056   */\n      mload\n        /* \"#utility.yul\":7034:7035   */\n      dup2\n        /* \"#utility.yul\":7029:7032   */\n      dup5\n        /* \"#utility.yul\":7025:7036   */\n      add\n        /* \"#utility.yul\":7018:7057   */\n      mstore\n        /* \"#utility.yul\":6990:6992   */\n      0x20\n        /* \"#utility.yul\":6987:6988   */\n      dup2\n        /* \"#utility.yul\":6983:6993   */\n      add\n        /* \"#utility.yul\":6978:6993   */\n      swap1\n      pop\n        /* \"#utility.yul\":6954:7067   */\n      jump(tag_163)\n    tag_165:\n        /* \"#utility.yul\":7085:7091   */\n      dup4\n        /* \"#utility.yul\":7082:7083   */\n      dup2\n        /* \"#utility.yul\":7079:7092   */\n      gt\n        /* \"#utility.yul\":7076:7078   */\n      iszero\n      tag_166\n      jumpi\n        /* \"#utility.yul\":7165:7166   */\n      0x00\n        /* \"#utility.yul\":7156:7162   */\n      dup5\n        /* \"#utility.yul\":7151:7154   */\n      dup5\n        /* \"#utility.yul\":7147:7163   */\n      add\n        /* \"#utility.yul\":7140:7167   */\n      mstore\n        /* \"#utility.yul\":7076:7078   */\n    tag_166:\n        /* \"#utility.yul\":6925:7183   */\n      pop\n      pop\n      pop\n      pop\n      jump\t// out\n        /* \"#utility.yul\":7189:7509   */\n    tag_42:\n        /* \"#utility.yul\":7233:7239   */\n      0x00\n        /* \"#utility.yul\":7270:7271   */\n      0x02\n        /* \"#utility.yul\":7264:7268   */\n      dup3\n        /* \"#utility.yul\":7260:7272   */\n      div\n        /* \"#utility.yul\":7250:7272   */\n      swap1\n      pop\n        /* \"#utility.yul\":7317:7318   */\n      0x01\n        /* \"#utility.yul\":7311:7315   */\n      dup3\n        /* \"#utility.yul\":7307:7319   */\n      and\n        /* \"#utility.yul\":7338:7356   */\n      dup1\n        /* \"#utility.yul\":7328:7330   */\n      tag_168\n      jumpi\n        /* \"#utility.yul\":7394:7398   */\n      0x7f\n        /* \"#utility.yul\":7386:7392   */\n      dup3\n        /* \"#utility.yul\":7382:7399   */\n      and\n        /* \"#utility.yul\":7372:7399   */\n      swap2\n      pop\n        /* \"#utility.yul\":7328:7330   */\n    tag_168:\n        /* \"#utility.yul\":7456:7458   */\n      0x20\n        /* \"#utility.yul\":7448:7454   */\n      dup3\n        /* \"#utility.yul\":7445:7459   */\n      lt\n        /* \"#utility.yul\":7425:7443   */\n      dup2\n        /* \"#utility.yul\":7422:7460   */\n      eq\n        /* \"#utility.yul\":7419:7421   */\n      iszero\n      tag_169\n      jumpi\n        /* \"#utility.yul\":7475:7493   */\n      tag_170\n      tag_171\n      jump\t// in\n    tag_170:\n        /* \"#utility.yul\":7419:7421   */\n    tag_169:\n        /* \"#utility.yul\":7240:7509   */\n      pop\n      swap2\n      swap1\n      pop\n      jump\t// out\n        /* \"#utility.yul\":7515:7796   */\n    tag_147:\n        /* \"#utility.yul\":7598:7625   */\n      tag_173\n        /* \"#utility.yul\":7620:7624   */\n      dup3\n        /* \"#utility.yul\":7598:7625   */\n      tag_118\n      jump\t// in\n    tag_173:\n        /* \"#utility.yul\":7590:7596   */\n      dup2\n        /* \"#utility.yul\":7586:7626   */\n      add\n        /* \"#utility.yul\":7728:7734   */\n      dup2\n        /* \"#utility.yul\":7716:7726   */\n      dup2\n        /* \"#utility.yul\":7713:7735   */\n      lt\n        /* \"#utility.yul\":7692:7710   */\n      0xffffffffffffffff\n        /* \"#utility.yul\":7680:7690   */\n      dup3\n        /* \"#utility.yul\":7677:7711   */\n      gt\n        /* \"#utility.yul\":7674:7736   */\n      or\n        /* \"#utility.yul\":7671:7673   */\n      iszero\n      tag_174\n      jumpi\n        /* \"#utility.yul\":7739:7757   */\n      tag_175\n      tag_152\n      jump\t// in\n    tag_175:\n        /* \"#utility.yul\":7671:7673   */\n    tag_174:\n        /* \"#utility.yul\":7779:7789   */\n      dup1\n        /* \"#utility.yul\":7775:7777   */\n      0x40\n        /* \"#utility.yul\":7768:7790   */\n      mstore\n        /* \"#utility.yul\":7558:7796   */\n      pop\n      pop\n      pop\n      jump\t// out\n        /* \"#utility.yul\":7802:8035   */\n    tag_36:\n        /* \"#utility.yul\":7841:7844   */\n      0x00\n        /* \"#utility.yul\":7864:7888   */\n      tag_177\n        /* \"#utility.yul\":7882:7887   */\n      dup3\n        /* \"#utility.yul\":7864:7888   */\n      tag_132\n      jump\t// in\n    tag_177:\n        /* \"#utility.yul\":7855:7888   */\n      swap2\n      pop\n        /* \"#utility.yul\":7910:7976   */\n      0xffffffffffffffffffffffffffffffffffffffffffffffffffffffffffffffff\n        /* \"#utility.yul\":7903:7908   */\n      dup3\n        /* \"#utility.yul\":7900:7977   */\n      eq\n        /* \"#utility.yul\":7897:7899   */\n      iszero\n      tag_178\n      jumpi\n        /* \"#utility.yul\":7980:7998   */\n      tag_179\n      tag_180\n      jump\t// in\n    tag_179:\n        /* \"#utility.yul\":7897:7899   */\n    tag_178:\n        /* \"#utility.yul\":8027:8028   */\n      0x01\n        /* \"#utility.yul\":8020:8025   */\n      dup3\n        /* \"#utility.yul\":8016:8029   */\n      add\n        /* \"#utility.yul\":8009:8029   */\n      swap1\n      pop\n        /* \"#utility.yul\":7845:8035   */\n      swap2\n      swap1\n      pop\n      jump\t// out\n        /* \"#utility.yul\":8041:8221   */\n    tag_180:\n        /* \"#utility.yul\":8089:8166   */\n      0x4e487b7100000000000000000000000000000000000000000000000000000000\n        /* \"#utility.yul\":8086:8087   */\n      0x00\n        /* \"#utility.yul\":8079:8167   */\n      mstore\n        /* \"#utility.yul\":8186:8190   */\n      0x11\n        /* \"#utility.yul\":8183:8184   */\n      0x04\n        /* \"#utility.yul\":8176:8191   */\n      mstore\n        /* \"#utility.yul\":8210:8214   */\n      0x24\n        /* \"#utility.yul\":8207:8208   */\n      0x00\n        /* \"#utility.yul\":8200:8215   */\n      revert\n        /* \"#utility.yul\":8227:8407   */\n    tag_171:\n        /* \"#utility.yul\":8275:8352   */\n      0x4e487b7100000000000000000000000000000000000000000000000000000000\n        /* \"#utility.yul\":8272:8273   */\n      0x00\n        /* \"#utility.yul\":8265:8353   */\n      mstore\n        /* \"#utility.yul\":8372:8376   */\n      0x22\n        /* \"#utility.yul\":8369:8370   */\n      0x04\n        /* \"#utility.yul\":8362:8377   */\n      mstore\n        /* \"#utility.yul\":8396:8400   */\n      0x24\n        /* \"#utility.yul\":8393:8394   */\n      0x00\n        /* \"#utility.yul\":8386:8401   */\n      revert\n        /* \"#utility.yul\":8413:8593   */\n    tag_152:\n        /* \"#utility.yul\":8461:8538   */\n      0x4e487b7100000000000000000000000000000000000000000000000000000000\n        /* \"#utility.yul\":8458:8459   */\n      0x00\n        /* \"#utility.yul\":8451:8539   */\n      mstore\n        /* \"#utility.yul\":8558:8562   */\n      0x41\n        /* \"#utility.yul\":8555:8556   */\n      0x04\n        /* \"#utility.yul\":8548:8563   */\n      mstore\n        /* \"#utility.yul\":8582:8586   */\n      0x24\n        /* \"#utility.yul\":8579:8580   */\n      0x00\n        /* \"#utility.yul\":8572:8587   */\n      revert\n        /* \"#utility.yul\":8599:8716   */\n    tag_83:\n        /* \"#utility.yul\":8708:8709   */\n      0x00\n        /* \"#utility.yul\":8705:8706   */\n      dup1\n        /* \"#utility.yul\":8698:8710   */\n      revert\n        /* \"#utility.yul\":8722:8839   */\n    tag_76:\n        /* \"#utility.yul\":8831:8832   */\n      0x00\n        /* \"#utility.yul\":8828:8829   */\n      dup1\n        /* \"#utility.yul\":8821:8833   */\n      revert\n        /* \"#utility.yul\":8845:8962   */\n    tag_91:\n        /* \"#utility.yul\":8954:8955   */\n      0x00\n        /* \"#utility.yul\":8951:8952   */\n      dup1\n        /* \"#utility.yul\":8944:8956   */\n      revert\n        /* \"#utility.yul\":8968:9085   */\n    tag_88:\n        /* \"#utility.yul\":9077:9078   */\n      0x00\n        /* \"#utility.yul\":9074:9075   */\n      dup1\n        /* \"#utility.yul\":9067:9079   */\n      revert\n        /* \"#utility.yul\":9091:9193   */\n    tag_118:\n        /* \"#utility.yul\":9132:9138   */\n      0x00\n        /* \"#utility.yul\":9183:9185   */\n      0x1f\n        /* \"#utility.yul\":9179:9186   */\n      not\n        /* \"#utility.yul\":9174:9176   */\n      0x1f\n        /* \"#utility.yul\":9167:9172   */\n      dup4\n        /* \"#utility.yul\":9163:9177   */\n      add\n        /* \"#utility.yul\":9159:9187   */\n      and\n        /* \"#utility.yul\":9149:9187   */\n      swap1\n      pop\n        /* \"#utility.yul\":9139:9193   */\n      swap2\n      swap1\n      pop\n      jump\t// out\n        /* \"#utility.yul\":9199:9360   */\n    tag_123:\n        /* \"#utility.yul\":9339:9352   */\n      0x4e6f7420616c6c6f776564000000000000000000000000000000000000000000\n        /* \"#utility.yul\":9335:9336   */\n      0x00\n        /* \"#utility.yul\":9327:9333   */\n      dup3\n        /* \"#utility.yul\":9323:9337   */\n      add\n        /* \"#utility.yul\":9316:9353   */\n      mstore\n        /* \"#utility.yul\":9305:9360   */\n      pop\n      jump\t// out\n        /* \"#utility.yul\":9366:9539   */\n    tag_128:\n        /* \"#utility.yul\":9506:9531   */\n      0x5375636365737366756c6c792052656769737465726564000000000000000000\n        /* \"#utility.yul\":9502:9503   */\n      0x00\n        /* \"#utility.yul\":9494:9500   */\n      dup3\n        /* \"#utility.yul\":9490:9504   */\n      add\n        /* \"#utility.yul\":9483:9532   */\n      mstore\n        /* \"#utility.yul\":9472:9539   */\n      pop\n      jump\t// out\n\n    auxdata: 0xa2646970667358221220e42464b396827ed26ce487ce0e15920d90bf8f87c26f6c54cd4c6469c8d434b064736f6c63430008060033\n}\n",
				"bytecode": {
					"linkReferences": {},
					"object": "608060405234801561001057600080fd5b5060008081905550610ce0806100276000396000f3fe608060405234801561001057600080fd5b50600436106100575760003560e01c8063126793231461005c5780635a09007b1461007a578063681f3e6d146100aa578063c127ae41146100c8578063ebc3eee8146100e6575b600080fd5b610064610104565b60405161007191906109ef565b60405180910390f35b610094600480360381019061008f91906107ce565b61010a565b6040516100a1919061098d565b60405180910390f35b6100b26103dd565b6040516100bf919061098d565b60405180910390f35b6100d06104af565b6040516100dd919061098d565b60405180910390f35b6100ee610651565b6040516100fb9190610972565b60405180910390f35b60005481565b606085600160003373ffffffffffffffffffffffffffffffffffffffff1673ffffffffffffffffffffffffffffffffffffffff16815260200190815260200160002060000190805190602001906101629291906106bb565b5084600160003373ffffffffffffffffffffffffffffffffffffffff1673ffffffffffffffffffffffffffffffffffffffff16815260200190815260200160002060010190805190602001906101b99291906106bb565b5033600160003373ffffffffffffffffffffffffffffffffffffffff1673ffffffffffffffffffffffffffffffffffffffff16815260200190815260200160002060050160006101000a81548173ffffffffffffffffffffffffffffffffffffffff021916908373ffffffffffffffffffffffffffffffffffffffff16021790555083600160003373ffffffffffffffffffffffffffffffffffffffff1673ffffffffffffffffffffffffffffffffffffffff16815260200190815260200160002060020190805190602001906102919291906106bb565b5082600160003373ffffffffffffffffffffffffffffffffffffffff1673ffffffffffffffffffffffffffffffffffffffff16815260200190815260200160002060030190805190602001906102e89291906106bb565b5081600160003373ffffffffffffffffffffffffffffffffffffffff1673ffffffffffffffffffffffffffffffffffffffff168152602001908152602001600020600401908051906020019061033f9291906106bb565b5060008081548092919061035290610b5d565b919050555060016000541461039c576040517f08c379a0000000000000000000000000000000000000000000000000000000008152600401610393906109cf565b60405180910390fd5b6040518060400160405280601781526020017f5375636365737366756c6c792052656769737465726564000000000000000000815250905095945050505050565b6060600160003373ffffffffffffffffffffffffffffffffffffffff1673ffffffffffffffffffffffffffffffffffffffff168152602001908152602001600020600201805461042c90610afa565b80601f016020809104026020016040519081016040528092919081815260200182805461045890610afa565b80156104a55780601f1061047a576101008083540402835291602001916104a5565b820191906000526020600020905b81548152906001019060200180831161048857829003601f168201915b5050505050905090565b6060600160003373ffffffffffffffffffffffffffffffffffffffff1673ffffffffffffffffffffffffffffffffffffffff16815260200190815260200160002060050160009054906101000a900473ffffffffffffffffffffffffffffffffffffffff1673ffffffffffffffffffffffffffffffffffffffff163373ffffffffffffffffffffffffffffffffffffffff1614610581576040517f08c379a0000000000000000000000000000000000000000000000000000000008152600401610578906109af565b60405180910390fd5b600160003373ffffffffffffffffffffffffffffffffffffffff1673ffffffffffffffffffffffffffffffffffffffff16815260200190815260200160002060000180546105ce90610afa565b80601f01602080910402602001604051908101604052809291908181526020018280546105fa90610afa565b80156106475780601f1061061c57610100808354040283529160200191610647565b820191906000526020600020905b81548152906001019060200180831161062a57829003601f168201915b5050505050905090565b6000600160003373ffffffffffffffffffffffffffffffffffffffff1673ffffffffffffffffffffffffffffffffffffffff16815260200190815260200160002060050160009054906101000a900473ffffffffffffffffffffffffffffffffffffffff16905090565b8280546106c790610afa565b90600052602060002090601f0160209004810192826106e95760008555610730565b82601f1061070257805160ff1916838001178555610730565b82800160010185558215610730579182015b8281111561072f578251825591602001919060010190610714565b5b50905061073d9190610741565b5090565b5b8082111561075a576000816000905550600101610742565b5090565b600061077161076c84610a2f565b610a0a565b90508281526020810184848401111561078d5761078c610c38565b5b610798848285610ab8565b509392505050565b600082601f8301126107b5576107b4610c33565b5b81356107c584826020860161075e565b91505092915050565b600080600080600060a086880312156107ea576107e9610c42565b5b600086013567ffffffffffffffff81111561080857610807610c3d565b5b610814888289016107a0565b955050602086013567ffffffffffffffff81111561083557610834610c3d565b5b610841888289016107a0565b945050604086013567ffffffffffffffff81111561086257610861610c3d565b5b61086e888289016107a0565b935050606086013567ffffffffffffffff81111561088f5761088e610c3d565b5b61089b888289016107a0565b925050608086013567ffffffffffffffff8111156108bc576108bb610c3d565b5b6108c8888289016107a0565b9150509295509295909350565b6108de81610a7c565b82525050565b60006108ef82610a60565b6108f98185610a6b565b9350610909818560208601610ac7565b61091281610c47565b840191505092915050565b600061092a600b83610a6b565b915061093582610c58565b602082019050919050565b600061094d601783610a6b565b915061095882610c81565b602082019050919050565b61096c81610aae565b82525050565b600060208201905061098760008301846108d5565b92915050565b600060208201905081810360008301526109a781846108e4565b905092915050565b600060208201905081810360008301526109c88161091d565b9050919050565b600060208201905081810360008301526109e881610940565b9050919050565b6000602082019050610a046000830184610963565b92915050565b6000610a14610a25565b9050610a208282610b2c565b919050565b6000604051905090565b600067ffffffffffffffff821115610a4a57610a49610c04565b5b610a5382610c47565b9050602081019050919050565b600081519050919050565b600082825260208201905092915050565b6000610a8782610a8e565b9050919050565b600073ffffffffffffffffffffffffffffffffffffffff82169050919050565b6000819050919050565b82818337600083830152505050565b60005b83811015610ae5578082015181840152602081019050610aca565b83811115610af4576000848401525b50505050565b60006002820490506001821680610b1257607f821691505b60208210811415610b2657610b25610bd5565b5b50919050565b610b3582610c47565b810181811067ffffffffffffffff82111715610b5457610b53610c04565b5b80604052505050565b6000610b6882610aae565b91507fffffffffffffffffffffffffffffffffffffffffffffffffffffffffffffffff821415610b9b57610b9a610ba6565b5b600182019050919050565b7f4e487b7100000000000000000000000000000000000000000000000000000000600052601160045260246000fd5b7f4e487b7100000000000000000000000000000000000000000000000000000000600052602260045260246000fd5b7f4e487b7100000000000000000000000000000000000000000000000000000000600052604160045260246000fd5b600080fd5b600080fd5b600080fd5b600080fd5b6000601f19601f8301169050919050565b7f4e6f7420616c6c6f776564000000000000000000000000000000000000000000600082015250565b7f5375636365737366756c6c79205265676973746572656400000000000000000060008201525056fea2646970667358221220e42464b396827ed26ce487ce0e15920d90bf8f87c26f6c54cd4c6469c8d434b064736f6c63430008060033",
					"opcodes": "PUSH1 0x80 PUSH1 0x40 MSTORE CALLVALUE DUP1 ISZERO PUSH2 0x10 JUMPI PUSH1 0x0 DUP1 REVERT JUMPDEST POP PUSH1 0x0 DUP1 DUP2 SWAP1 SSTORE POP PUSH2 0xCE0 DUP1 PUSH2 0x27 PUSH1 0x0 CODECOPY PUSH1 0x0 RETURN INVALID PUSH1 0x80 PUSH1 0x40 MSTORE CALLVALUE DUP1 ISZERO PUSH2 0x10 JUMPI PUSH1 0x0 DUP1 REVERT JUMPDEST POP PUSH1 0x4 CALLDATASIZE LT PUSH2 0x57 JUMPI PUSH1 0x0 CALLDATALOAD PUSH1 0xE0 SHR DUP1 PUSH4 0x12679323 EQ PUSH2 0x5C JUMPI DUP1 PUSH4 0x5A09007B EQ PUSH2 0x7A JUMPI DUP1 PUSH4 0x681F3E6D EQ PUSH2 0xAA JUMPI DUP1 PUSH4 0xC127AE41 EQ PUSH2 0xC8 JUMPI DUP1 PUSH4 0xEBC3EEE8 EQ PUSH2 0xE6 JUMPI JUMPDEST PUSH1 0x0 DUP1 REVERT JUMPDEST PUSH2 0x64 PUSH2 0x104 JUMP JUMPDEST PUSH1 0x40 MLOAD PUSH2 0x71 SWAP2 SWAP1 PUSH2 0x9EF JUMP JUMPDEST PUSH1 0x40 MLOAD DUP1 SWAP2 SUB SWAP1 RETURN JUMPDEST PUSH2 0x94 PUSH1 0x4 DUP1 CALLDATASIZE SUB DUP2 ADD SWAP1 PUSH2 0x8F SWAP2 SWAP1 PUSH2 0x7CE JUMP JUMPDEST PUSH2 0x10A JUMP JUMPDEST PUSH1 0x40 MLOAD PUSH2 0xA1 SWAP2 SWAP1 PUSH2 0x98D JUMP JUMPDEST PUSH1 0x40 MLOAD DUP1 SWAP2 SUB SWAP1 RETURN JUMPDEST PUSH2 0xB2 PUSH2 0x3DD JUMP JUMPDEST PUSH1 0x40 MLOAD PUSH2 0xBF SWAP2 SWAP1 PUSH2 0x98D JUMP JUMPDEST PUSH1 0x40 MLOAD DUP1 SWAP2 SUB SWAP1 RETURN JUMPDEST PUSH2 0xD0 PUSH2 0x4AF JUMP JUMPDEST PUSH1 0x40 MLOAD PUSH2 0xDD SWAP2 SWAP1 PUSH2 0x98D JUMP JUMPDEST PUSH1 0x40 MLOAD DUP1 SWAP2 SUB SWAP1 RETURN JUMPDEST PUSH2 0xEE PUSH2 0x651 JUMP JUMPDEST PUSH1 0x40 MLOAD PUSH2 0xFB SWAP2 SWAP1 PUSH2 0x972 JUMP JUMPDEST PUSH1 0x40 MLOAD DUP1 SWAP2 SUB SWAP1 RETURN JUMPDEST PUSH1 0x0 SLOAD DUP2 JUMP JUMPDEST PUSH1 0x60 DUP6 PUSH1 0x1 PUSH1 0x0 CALLER PUSH20 0xFFFFFFFFFFFFFFFFFFFFFFFFFFFFFFFFFFFFFFFF AND PUSH20 0xFFFFFFFFFFFFFFFFFFFFFFFFFFFFFFFFFFFFFFFF AND DUP2 MSTORE PUSH1 0x20 ADD SWAP1 DUP2 MSTORE PUSH1 0x20 ADD PUSH1 0x0 KECCAK256 PUSH1 0x0 ADD SWAP1 DUP1 MLOAD SWAP1 PUSH1 0x20 ADD SWAP1 PUSH2 0x162 SWAP3 SWAP2 SWAP1 PUSH2 0x6BB JUMP JUMPDEST POP DUP5 PUSH1 0x1 PUSH1 0x0 CALLER PUSH20 0xFFFFFFFFFFFFFFFFFFFFFFFFFFFFFFFFFFFFFFFF AND PUSH20 0xFFFFFFFFFFFFFFFFFFFFFFFFFFFFFFFFFFFFFFFF AND DUP2 MSTORE PUSH1 0x20 ADD SWAP1 DUP2 MSTORE PUSH1 0x20 ADD PUSH1 0x0 KECCAK256 PUSH1 0x1 ADD SWAP1 DUP1 MLOAD SWAP1 PUSH1 0x20 ADD SWAP1 PUSH2 0x1B9 SWAP3 SWAP2 SWAP1 PUSH2 0x6BB JUMP JUMPDEST POP CALLER PUSH1 0x1 PUSH1 0x0 CALLER PUSH20 0xFFFFFFFFFFFFFFFFFFFFFFFFFFFFFFFFFFFFFFFF AND PUSH20 0xFFFFFFFFFFFFFFFFFFFFFFFFFFFFFFFFFFFFFFFF AND DUP2 MSTORE PUSH1 0x20 ADD SWAP1 DUP2 MSTORE PUSH1 0x20 ADD PUSH1 0x0 KECCAK256 PUSH1 0x5 ADD PUSH1 0x0 PUSH2 0x100 EXP DUP2 SLOAD DUP2 PUSH20 0xFFFFFFFFFFFFFFFFFFFFFFFFFFFFFFFFFFFFFFFF MUL NOT AND SWAP1 DUP4 PUSH20 0xFFFFFFFFFFFFFFFFFFFFFFFFFFFFFFFFFFFFFFFF AND MUL OR SWAP1 SSTORE POP DUP4 PUSH1 0x1 PUSH1 0x0 CALLER PUSH20 0xFFFFFFFFFFFFFFFFFFFFFFFFFFFFFFFFFFFFFFFF AND PUSH20 0xFFFFFFFFFFFFFFFFFFFFFFFFFFFFFFFFFFFFFFFF AND DUP2 MSTORE PUSH1 0x20 ADD SWAP1 DUP2 MSTORE PUSH1 0x20 ADD PUSH1 0x0 KECCAK256 PUSH1 0x2 ADD SWAP1 DUP1 MLOAD SWAP1 PUSH1 0x20 ADD SWAP1 PUSH2 0x291 SWAP3 SWAP2 SWAP1 PUSH2 0x6BB JUMP JUMPDEST POP DUP3 PUSH1 0x1 PUSH1 0x0 CALLER PUSH20 0xFFFFFFFFFFFFFFFFFFFFFFFFFFFFFFFFFFFFFFFF AND PUSH20 0xFFFFFFFFFFFFFFFFFFFFFFFFFFFFFFFFFFFFFFFF AND DUP2 MSTORE PUSH1 0x20 ADD SWAP1 DUP2 MSTORE PUSH1 0x20 ADD PUSH1 0x0 KECCAK256 PUSH1 0x3 ADD SWAP1 DUP1 MLOAD SWAP1 PUSH1 0x20 ADD SWAP1 PUSH2 0x2E8 SWAP3 SWAP2 SWAP1 PUSH2 0x6BB JUMP JUMPDEST POP DUP2 PUSH1 0x1 PUSH1 0x0 CALLER PUSH20 0xFFFFFFFFFFFFFFFFFFFFFFFFFFFFFFFFFFFFFFFF AND PUSH20 0xFFFFFFFFFFFFFFFFFFFFFFFFFFFFFFFFFFFFFFFF AND DUP2 MSTORE PUSH1 0x20 ADD SWAP1 DUP2 MSTORE PUSH1 0x20 ADD PUSH1 0x0 KECCAK256 PUSH1 0x4 ADD SWAP1 DUP1 MLOAD SWAP1 PUSH1 0x20 ADD SWAP1 PUSH2 0x33F SWAP3 SWAP2 SWAP1 PUSH2 0x6BB JUMP JUMPDEST POP PUSH1 0x0 DUP1 DUP2 SLOAD DUP1 SWAP3 SWAP2 SWAP1 PUSH2 0x352 SWAP1 PUSH2 0xB5D JUMP JUMPDEST SWAP2 SWAP1 POP SSTORE POP PUSH1 0x1 PUSH1 0x0 SLOAD EQ PUSH2 0x39C JUMPI PUSH1 0x40 MLOAD PUSH32 0x8C379A000000000000000000000000000000000000000000000000000000000 DUP2 MSTORE PUSH1 0x4 ADD PUSH2 0x393 SWAP1 PUSH2 0x9CF JUMP JUMPDEST PUSH1 0x40 MLOAD DUP1 SWAP2 SUB SWAP1 REVERT JUMPDEST PUSH1 0x40 MLOAD DUP1 PUSH1 0x40 ADD PUSH1 0x40 MSTORE DUP1 PUSH1 0x17 DUP2 MSTORE PUSH1 0x20 ADD PUSH32 0x5375636365737366756C6C792052656769737465726564000000000000000000 DUP2 MSTORE POP SWAP1 POP SWAP6 SWAP5 POP POP POP POP POP JUMP JUMPDEST PUSH1 0x60 PUSH1 0x1 PUSH1 0x0 CALLER PUSH20 0xFFFFFFFFFFFFFFFFFFFFFFFFFFFFFFFFFFFFFFFF AND PUSH20 0xFFFFFFFFFFFFFFFFFFFFFFFFFFFFFFFFFFFFFFFF AND DUP2 MSTORE PUSH1 0x20 ADD SWAP1 DUP2 MSTORE PUSH1 0x20 ADD PUSH1 0x0 KECCAK256 PUSH1 0x2 ADD DUP1 SLOAD PUSH2 0x42C SWAP1 PUSH2 0xAFA JUMP JUMPDEST DUP1 PUSH1 0x1F ADD PUSH1 0x20 DUP1 SWAP2 DIV MUL PUSH1 0x20 ADD PUSH1 0x40 MLOAD SWAP1 DUP2 ADD PUSH1 0x40 MSTORE DUP1 SWAP3 SWAP2 SWAP1 DUP2 DUP2 MSTORE PUSH1 0x20 ADD DUP3 DUP1 SLOAD PUSH2 0x458 SWAP1 PUSH2 0xAFA JUMP JUMPDEST DUP1 ISZERO PUSH2 0x4A5 JUMPI DUP1 PUSH1 0x1F LT PUSH2 0x47A JUMPI PUSH2 0x100 DUP1 DUP4 SLOAD DIV MUL DUP4 MSTORE SWAP2 PUSH1 0x20 ADD SWAP2 PUSH2 0x4A5 JUMP JUMPDEST DUP3 ADD SWAP2 SWAP1 PUSH1 0x0 MSTORE PUSH1 0x20 PUSH1 0x0 KECCAK256 SWAP1 JUMPDEST DUP2 SLOAD DUP2 MSTORE SWAP1 PUSH1 0x1 ADD SWAP1 PUSH1 0x20 ADD DUP1 DUP4 GT PUSH2 0x488 JUMPI DUP3 SWAP1 SUB PUSH1 0x1F AND DUP3 ADD SWAP2 JUMPDEST POP POP POP POP POP SWAP1 POP SWAP1 JUMP JUMPDEST PUSH1 0x60 PUSH1 0x1 PUSH1 0x0 CALLER PUSH20 0xFFFFFFFFFFFFFFFFFFFFFFFFFFFFFFFFFFFFFFFF AND PUSH20 0xFFFFFFFFFFFFFFFFFFFFFFFFFFFFFFFFFFFFFFFF AND DUP2 MSTORE PUSH1 0x20 ADD SWAP1 DUP2 MSTORE PUSH1 0x20 ADD PUSH1 0x0 KECCAK256 PUSH1 0x5 ADD PUSH1 0x0 SWAP1 SLOAD SWAP1 PUSH2 0x100 EXP SWAP1 DIV PUSH20 0xFFFFFFFFFFFFFFFFFFFFFFFFFFFFFFFFFFFFFFFF AND PUSH20 0xFFFFFFFFFFFFFFFFFFFFFFFFFFFFFFFFFFFFFFFF AND CALLER PUSH20 0xFFFFFFFFFFFFFFFFFFFFFFFFFFFFFFFFFFFFFFFF AND EQ PUSH2 0x581 JUMPI PUSH1 0x40 MLOAD PUSH32 0x8C379A000000000000000000000000000000000000000000000000000000000 DUP2 MSTORE PUSH1 0x4 ADD PUSH2 0x578 SWAP1 PUSH2 0x9AF JUMP JUMPDEST PUSH1 0x40 MLOAD DUP1 SWAP2 SUB SWAP1 REVERT JUMPDEST PUSH1 0x1 PUSH1 0x0 CALLER PUSH20 0xFFFFFFFFFFFFFFFFFFFFFFFFFFFFFFFFFFFFFFFF AND PUSH20 0xFFFFFFFFFFFFFFFFFFFFFFFFFFFFFFFFFFFFFFFF AND DUP2 MSTORE PUSH1 0x20 ADD SWAP1 DUP2 MSTORE PUSH1 0x20 ADD PUSH1 0x0 KECCAK256 PUSH1 0x0 ADD DUP1 SLOAD PUSH2 0x5CE SWAP1 PUSH2 0xAFA JUMP JUMPDEST DUP1 PUSH1 0x1F ADD PUSH1 0x20 DUP1 SWAP2 DIV MUL PUSH1 0x20 ADD PUSH1 0x40 MLOAD SWAP1 DUP2 ADD PUSH1 0x40 MSTORE DUP1 SWAP3 SWAP2 SWAP1 DUP2 DUP2 MSTORE PUSH1 0x20 ADD DUP3 DUP1 SLOAD PUSH2 0x5FA SWAP1 PUSH2 0xAFA JUMP JUMPDEST DUP1 ISZERO PUSH2 0x647 JUMPI DUP1 PUSH1 0x1F LT PUSH2 0x61C JUMPI PUSH2 0x100 DUP1 DUP4 SLOAD DIV MUL DUP4 MSTORE SWAP2 PUSH1 0x20 ADD SWAP2 PUSH2 0x647 JUMP JUMPDEST DUP3 ADD SWAP2 SWAP1 PUSH1 0x0 MSTORE PUSH1 0x20 PUSH1 0x0 KECCAK256 SWAP1 JUMPDEST DUP2 SLOAD DUP2 MSTORE SWAP1 PUSH1 0x1 ADD SWAP1 PUSH1 0x20 ADD DUP1 DUP4 GT PUSH2 0x62A JUMPI DUP3 SWAP1 SUB PUSH1 0x1F AND DUP3 ADD SWAP2 JUMPDEST POP POP POP POP POP SWAP1 POP SWAP1 JUMP JUMPDEST PUSH1 0x0 PUSH1 0x1 PUSH1 0x0 CALLER PUSH20 0xFFFFFFFFFFFFFFFFFFFFFFFFFFFFFFFFFFFFFFFF AND PUSH20 0xFFFFFFFFFFFFFFFFFFFFFFFFFFFFFFFFFFFFFFFF AND DUP2 MSTORE PUSH1 0x20 ADD SWAP1 DUP2 MSTORE PUSH1 0x20 ADD PUSH1 0x0 KECCAK256 PUSH1 0x5 ADD PUSH1 0x0 SWAP1 SLOAD SWAP1 PUSH2 0x100 EXP SWAP1 DIV PUSH20 0xFFFFFFFFFFFFFFFFFFFFFFFFFFFFFFFFFFFFFFFF AND SWAP1 POP SWAP1 JUMP JUMPDEST DUP3 DUP1 SLOAD PUSH2 0x6C7 SWAP1 PUSH2 0xAFA JUMP JUMPDEST SWAP1 PUSH1 0x0 MSTORE PUSH1 0x20 PUSH1 0x0 KECCAK256 SWAP1 PUSH1 0x1F ADD PUSH1 0x20 SWAP1 DIV DUP2 ADD SWAP3 DUP3 PUSH2 0x6E9 JUMPI PUSH1 0x0 DUP6 SSTORE PUSH2 0x730 JUMP JUMPDEST DUP3 PUSH1 0x1F LT PUSH2 0x702 JUMPI DUP1 MLOAD PUSH1 0xFF NOT AND DUP4 DUP1 ADD OR DUP6 SSTORE PUSH2 0x730 JUMP JUMPDEST DUP3 DUP1 ADD PUSH1 0x1 ADD DUP6 SSTORE DUP3 ISZERO PUSH2 0x730 JUMPI SWAP2 DUP3 ADD JUMPDEST DUP3 DUP2 GT ISZERO PUSH2 0x72F JUMPI DUP3 MLOAD DUP3 SSTORE SWAP2 PUSH1 0x20 ADD SWAP2 SWAP1 PUSH1 0x1 ADD SWAP1 PUSH2 0x714 JUMP JUMPDEST JUMPDEST POP SWAP1 POP PUSH2 0x73D SWAP2 SWAP1 PUSH2 0x741 JUMP JUMPDEST POP SWAP1 JUMP JUMPDEST JUMPDEST DUP1 DUP3 GT ISZERO PUSH2 0x75A JUMPI PUSH1 0x0 DUP2 PUSH1 0x0 SWAP1 SSTORE POP PUSH1 0x1 ADD PUSH2 0x742 JUMP JUMPDEST POP SWAP1 JUMP JUMPDEST PUSH1 0x0 PUSH2 0x771 PUSH2 0x76C DUP5 PUSH2 0xA2F JUMP JUMPDEST PUSH2 0xA0A JUMP JUMPDEST SWAP1 POP DUP3 DUP2 MSTORE PUSH1 0x20 DUP2 ADD DUP5 DUP5 DUP5 ADD GT ISZERO PUSH2 0x78D JUMPI PUSH2 0x78C PUSH2 0xC38 JUMP JUMPDEST JUMPDEST PUSH2 0x798 DUP5 DUP3 DUP6 PUSH2 0xAB8 JUMP JUMPDEST POP SWAP4 SWAP3 POP POP POP JUMP JUMPDEST PUSH1 0x0 DUP3 PUSH1 0x1F DUP4 ADD SLT PUSH2 0x7B5 JUMPI PUSH2 0x7B4 PUSH2 0xC33 JUMP JUMPDEST JUMPDEST DUP2 CALLDATALOAD PUSH2 0x7C5 DUP5 DUP3 PUSH1 0x20 DUP7 ADD PUSH2 0x75E JUMP JUMPDEST SWAP2 POP POP SWAP3 SWAP2 POP POP JUMP JUMPDEST PUSH1 0x0 DUP1 PUSH1 0x0 DUP1 PUSH1 0x0 PUSH1 0xA0 DUP7 DUP9 SUB SLT ISZERO PUSH2 0x7EA JUMPI PUSH2 0x7E9 PUSH2 0xC42 JUMP JUMPDEST JUMPDEST PUSH1 0x0 DUP7 ADD CALLDATALOAD PUSH8 0xFFFFFFFFFFFFFFFF DUP2 GT ISZERO PUSH2 0x808 JUMPI PUSH2 0x807 PUSH2 0xC3D JUMP JUMPDEST JUMPDEST PUSH2 0x814 DUP9 DUP3 DUP10 ADD PUSH2 0x7A0 JUMP JUMPDEST SWAP6 POP POP PUSH1 0x20 DUP7 ADD CALLDATALOAD PUSH8 0xFFFFFFFFFFFFFFFF DUP2 GT ISZERO PUSH2 0x835 JUMPI PUSH2 0x834 PUSH2 0xC3D JUMP JUMPDEST JUMPDEST PUSH2 0x841 DUP9 DUP3 DUP10 ADD PUSH2 0x7A0 JUMP JUMPDEST SWAP5 POP POP PUSH1 0x40 DUP7 ADD CALLDATALOAD PUSH8 0xFFFFFFFFFFFFFFFF DUP2 GT ISZERO PUSH2 0x862 JUMPI PUSH2 0x861 PUSH2 0xC3D JUMP JUMPDEST JUMPDEST PUSH2 0x86E DUP9 DUP3 DUP10 ADD PUSH2 0x7A0 JUMP JUMPDEST SWAP4 POP POP PUSH1 0x60 DUP7 ADD CALLDATALOAD PUSH8 0xFFFFFFFFFFFFFFFF DUP2 GT ISZERO PUSH2 0x88F JUMPI PUSH2 0x88E PUSH2 0xC3D JUMP JUMPDEST JUMPDEST PUSH2 0x89B DUP9 DUP3 DUP10 ADD PUSH2 0x7A0 JUMP JUMPDEST SWAP3 POP POP PUSH1 0x80 DUP7 ADD CALLDATALOAD PUSH8 0xFFFFFFFFFFFFFFFF DUP2 GT ISZERO PUSH2 0x8BC JUMPI PUSH2 0x8BB PUSH2 0xC3D JUMP JUMPDEST JUMPDEST PUSH2 0x8C8 DUP9 DUP3 DUP10 ADD PUSH2 0x7A0 JUMP JUMPDEST SWAP2 POP POP SWAP3 SWAP6 POP SWAP3 SWAP6 SWAP1 SWAP4 POP JUMP JUMPDEST PUSH2 0x8DE DUP2 PUSH2 0xA7C JUMP JUMPDEST DUP3 MSTORE POP POP JUMP JUMPDEST PUSH1 0x0 PUSH2 0x8EF DUP3 PUSH2 0xA60 JUMP JUMPDEST PUSH2 0x8F9 DUP2 DUP6 PUSH2 0xA6B JUMP JUMPDEST SWAP4 POP PUSH2 0x909 DUP2 DUP6 PUSH1 0x20 DUP7 ADD PUSH2 0xAC7 JUMP JUMPDEST PUSH2 0x912 DUP2 PUSH2 0xC47 JUMP JUMPDEST DUP5 ADD SWAP2 POP POP SWAP3 SWAP2 POP POP JUMP JUMPDEST PUSH1 0x0 PUSH2 0x92A PUSH1 0xB DUP4 PUSH2 0xA6B JUMP JUMPDEST SWAP2 POP PUSH2 0x935 DUP3 PUSH2 0xC58 JUMP JUMPDEST PUSH1 0x20 DUP3 ADD SWAP1 POP SWAP2 SWAP1 POP JUMP JUMPDEST PUSH1 0x0 PUSH2 0x94D PUSH1 0x17 DUP4 PUSH2 0xA6B JUMP JUMPDEST SWAP2 POP PUSH2 0x958 DUP3 PUSH2 0xC81 JUMP JUMPDEST PUSH1 0x20 DUP3 ADD SWAP1 POP SWAP2 SWAP1 POP JUMP JUMPDEST PUSH2 0x96C DUP2 PUSH2 0xAAE JUMP JUMPDEST DUP3 MSTORE POP POP JUMP JUMPDEST PUSH1 0x0 PUSH1 0x20 DUP3 ADD SWAP1 POP PUSH2 0x987 PUSH1 0x0 DUP4 ADD DUP5 PUSH2 0x8D5 JUMP JUMPDEST SWAP3 SWAP2 POP POP JUMP JUMPDEST PUSH1 0x0 PUSH1 0x20 DUP3 ADD SWAP1 POP DUP2 DUP2 SUB PUSH1 0x0 DUP4 ADD MSTORE PUSH2 0x9A7 DUP2 DUP5 PUSH2 0x8E4 JUMP JUMPDEST SWAP1 POP SWAP3 SWAP2 POP POP JUMP JUMPDEST PUSH1 0x0 PUSH1 0x20 DUP3 ADD SWAP1 POP DUP2 DUP2 SUB PUSH1 0x0 DUP4 ADD MSTORE PUSH2 0x9C8 DUP2 PUSH2 0x91D JUMP JUMPDEST SWAP1 POP SWAP2 SWAP1 POP JUMP JUMPDEST PUSH1 0x0 PUSH1 0x20 DUP3 ADD SWAP1 POP DUP2 DUP2 SUB PUSH1 0x0 DUP4 ADD MSTORE PUSH2 0x9E8 DUP2 PUSH2 0x940 JUMP JUMPDEST SWAP1 POP SWAP2 SWAP1 POP JUMP JUMPDEST PUSH1 0x0 PUSH1 0x20 DUP3 ADD SWAP1 POP PUSH2 0xA04 PUSH1 0x0 DUP4 ADD DUP5 PUSH2 0x963 JUMP JUMPDEST SWAP3 SWAP2 POP POP JUMP JUMPDEST PUSH1 0x0 PUSH2 0xA14 PUSH2 0xA25 JUMP JUMPDEST SWAP1 POP PUSH2 0xA20 DUP3 DUP3 PUSH2 0xB2C JUMP JUMPDEST SWAP2 SWAP1 POP JUMP JUMPDEST PUSH1 0x0 PUSH1 0x40 MLOAD SWAP1 POP SWAP1 JUMP JUMPDEST PUSH1 0x0 PUSH8 0xFFFFFFFFFFFFFFFF DUP3 GT ISZERO PUSH2 0xA4A JUMPI PUSH2 0xA49 PUSH2 0xC04 JUMP JUMPDEST JUMPDEST PUSH2 0xA53 DUP3 PUSH2 0xC47 JUMP JUMPDEST SWAP1 POP PUSH1 0x20 DUP2 ADD SWAP1 POP SWAP2 SWAP1 POP JUMP JUMPDEST PUSH1 0x0 DUP2 MLOAD SWAP1 POP SWAP2 SWAP1 POP JUMP JUMPDEST PUSH1 0x0 DUP3 DUP3 MSTORE PUSH1 0x20 DUP3 ADD SWAP1 POP SWAP3 SWAP2 POP POP JUMP JUMPDEST PUSH1 0x0 PUSH2 0xA87 DUP3 PUSH2 0xA8E JUMP JUMPDEST SWAP1 POP SWAP2 SWAP1 POP JUMP JUMPDEST PUSH1 0x0 PUSH20 0xFFFFFFFFFFFFFFFFFFFFFFFFFFFFFFFFFFFFFFFF DUP3 AND SWAP1 POP SWAP2 SWAP1 POP JUMP JUMPDEST PUSH1 0x0 DUP2 SWAP1 POP SWAP2 SWAP1 POP JUMP JUMPDEST DUP3 DUP2 DUP4 CALLDATACOPY PUSH1 0x0 DUP4 DUP4 ADD MSTORE POP POP POP JUMP JUMPDEST PUSH1 0x0 JUMPDEST DUP4 DUP2 LT ISZERO PUSH2 0xAE5 JUMPI DUP1 DUP3 ADD MLOAD DUP2 DUP5 ADD MSTORE PUSH1 0x20 DUP2 ADD SWAP1 POP PUSH2 0xACA JUMP JUMPDEST DUP4 DUP2 GT ISZERO PUSH2 0xAF4 JUMPI PUSH1 0x0 DUP5 DUP5 ADD MSTORE JUMPDEST POP POP POP POP JUMP JUMPDEST PUSH1 0x0 PUSH1 0x2 DUP3 DIV SWAP1 POP PUSH1 0x1 DUP3 AND DUP1 PUSH2 0xB12 JUMPI PUSH1 0x7F DUP3 AND SWAP2 POP JUMPDEST PUSH1 0x20 DUP3 LT DUP2 EQ ISZERO PUSH2 0xB26 JUMPI PUSH2 0xB25 PUSH2 0xBD5 JUMP JUMPDEST JUMPDEST POP SWAP2 SWAP1 POP JUMP JUMPDEST PUSH2 0xB35 DUP3 PUSH2 0xC47 JUMP JUMPDEST DUP2 ADD DUP2 DUP2 LT PUSH8 0xFFFFFFFFFFFFFFFF DUP3 GT OR ISZERO PUSH2 0xB54 JUMPI PUSH2 0xB53 PUSH2 0xC04 JUMP JUMPDEST JUMPDEST DUP1 PUSH1 0x40 MSTORE POP POP POP JUMP JUMPDEST PUSH1 0x0 PUSH2 0xB68 DUP3 PUSH2 0xAAE JUMP JUMPDEST SWAP2 POP PUSH32 0xFFFFFFFFFFFFFFFFFFFFFFFFFFFFFFFFFFFFFFFFFFFFFFFFFFFFFFFFFFFFFFFF DUP3 EQ ISZERO PUSH2 0xB9B JUMPI PUSH2 0xB9A PUSH2 0xBA6 JUMP JUMPDEST JUMPDEST PUSH1 0x1 DUP3 ADD SWAP1 POP SWAP2 SWAP1 POP JUMP JUMPDEST PUSH32 0x4E487B7100000000000000000000000000000000000000000000000000000000 PUSH1 0x0 MSTORE PUSH1 0x11 PUSH1 0x4 MSTORE PUSH1 0x24 PUSH1 0x0 REVERT JUMPDEST PUSH32 0x4E487B7100000000000000000000000000000000000000000000000000000000 PUSH1 0x0 MSTORE PUSH1 0x22 PUSH1 0x4 MSTORE PUSH1 0x24 PUSH1 0x0 REVERT JUMPDEST PUSH32 0x4E487B7100000000000000000000000000000000000000000000000000000000 PUSH1 0x0 MSTORE PUSH1 0x41 PUSH1 0x4 MSTORE PUSH1 0x24 PUSH1 0x0 REVERT JUMPDEST PUSH1 0x0 DUP1 REVERT JUMPDEST PUSH1 0x0 DUP1 REVERT JUMPDEST PUSH1 0x0 DUP1 REVERT JUMPDEST PUSH1 0x0 DUP1 REVERT JUMPDEST PUSH1 0x0 PUSH1 0x1F NOT PUSH1 0x1F DUP4 ADD AND SWAP1 POP SWAP2 SWAP1 POP JUMP JUMPDEST PUSH32 0x4E6F7420616C6C6F776564000000000000000000000000000000000000000000 PUSH1 0x0 DUP3 ADD MSTORE POP JUMP JUMPDEST PUSH32 0x5375636365737366756C6C792052656769737465726564000000000000000000 PUSH1 0x0 DUP3 ADD MSTORE POP JUMP INVALID LOG2 PUSH5 0x6970667358 0x22 SLT KECCAK256 0xE4 0x24 PUSH5 0xB396827ED2 PUSH13 0xE487CE0E15920D90BF8F87C26F PUSH13 0x54CD4C6469C8D434B064736F6C PUSH4 0x43000806 STOP CALLER "
				},
				"gasEstimates": {
					"creation": {
						"codeDepositCost": "659200",
						"executionCost": "5703",
						"totalCost": "664903"
					},
					"external": {
						"getSignatureHash()": "infinite",
						"getUserAddress()": "2683",
						"getUsername()": "infinite",
						"nbOfUsers()": "2407",
						"register(string,string,string,string,string)": "infinite"
					}
				},
				"methodIdentifiers": {
					"getSignatureHash()": "c127ae41",
					"getUserAddress()": "ebc3eee8",
					"getUsername()": "681f3e6d",
					"nbOfUsers()": "12679323",
					"register(string,string,string,string,string)": "5a09007b"
				}
			},
			"userdoc": {
				"kind": "user",
				"methods": {},
				"version": 1
			}
		}
	}
}