{
	"contracts/authentication.sol": {
		"Authentication": {
			"abi": [
				{
					"inputs": [],
					"stateMutability": "nonpayable",
					"type": "constructor"
				},
				{
					"inputs": [
						{
							"internalType": "string",
							"name": "userName",
							"type": "string"
						}
					],
					"name": "getProjectDetails",
					"outputs": [
						{
							"components": [
								{
									"internalType": "string",
									"name": "projectName",
									"type": "string"
								},
								{
									"internalType": "string",
									"name": "description",
									"type": "string"
								},
								{
									"internalType": "string",
									"name": "deadline",
									"type": "string"
								},
								{
									"internalType": "string",
									"name": "amount",
									"type": "string"
								},
								{
									"internalType": "address",
									"name": "userAddress",
									"type": "address"
								}
							],
							"internalType": "struct Authentication.Project[]",
							"name": "",
							"type": "tuple[]"
						}
					],
					"stateMutability": "view",
					"type": "function"
				},
				{
					"inputs": [],
					"name": "getSignatureHash",
					"outputs": [
						{
							"internalType": "string",
							"name": "",
							"type": "string"
						}
					],
					"stateMutability": "view",
					"type": "function"
				},
				{
					"inputs": [],
					"name": "getUserAddress",
					"outputs": [
						{
							"internalType": "address",
							"name": "",
							"type": "address"
						}
					],
					"stateMutability": "view",
					"type": "function"
				},
				{
					"inputs": [],
					"name": "getUsername",
					"outputs": [
						{
							"internalType": "string",
							"name": "",
							"type": "string"
						}
					],
					"stateMutability": "view",
					"type": "function"
				},
				{
					"inputs": [
						{
							"internalType": "string",
							"name": "username",
							"type": "string"
						},
						{
							"internalType": "string",
							"name": "password",
							"type": "string"
						}
					],
					"name": "login",
					"outputs": [
						{
							"internalType": "string",
							"name": "",
							"type": "string"
						}
					],
					"stateMutability": "nonpayable",
					"type": "function"
				},
				{
					"inputs": [],
					"name": "nbOfUsers",
					"outputs": [
						{
							"internalType": "uint256",
							"name": "",
							"type": "uint256"
						}
					],
					"stateMutability": "view",
					"type": "function"
				},
				{
					"inputs": [
						{
							"internalType": "uint256",
							"name": "",
							"type": "uint256"
						}
					],
					"name": "projects",
					"outputs": [
						{
							"internalType": "string",
							"name": "projectName",
							"type": "string"
						},
						{
							"internalType": "string",
							"name": "description",
							"type": "string"
						},
						{
							"internalType": "string",
							"name": "deadline",
							"type": "string"
						},
						{
							"internalType": "string",
							"name": "amount",
							"type": "string"
						},
						{
							"internalType": "address",
							"name": "userAddress",
							"type": "address"
						}
					],
					"stateMutability": "view",
					"type": "function"
				},
				{
					"inputs": [
						{
							"internalType": "string",
							"name": "_signature",
							"type": "string"
						},
						{
							"internalType": "string",
							"name": "email",
							"type": "string"
						},
						{
							"internalType": "string",
							"name": "username",
							"type": "string"
						},
						{
							"internalType": "string",
							"name": "password",
							"type": "string"
						},
						{
							"internalType": "string",
							"name": "repeatPassword",
							"type": "string"
						}
					],
					"name": "register",
					"outputs": [
						{
							"internalType": "string",
							"name": "",
							"type": "string"
						}
					],
					"stateMutability": "nonpayable",
					"type": "function"
				},
				{
					"inputs": [
						{
							"internalType": "string",
							"name": "projectName",
							"type": "string"
						},
						{
							"internalType": "string",
							"name": "description",
							"type": "string"
						},
						{
							"internalType": "string",
							"name": "deadline",
							"type": "string"
						},
						{
							"internalType": "string",
							"name": "amount",
							"type": "string"
						}
					],
					"name": "saveProject",
					"outputs": [
						{
							"internalType": "string",
							"name": "",
							"type": "string"
						}
					],
					"stateMutability": "nonpayable",
					"type": "function"
				}
			],
			"devdoc": {
				"kind": "dev",
				"methods": {},
				"version": 1
			},
			"evm": {
				"assembly": "    /* \"contracts/authentication.sol\":60:3673  contract Authentication {... */\n  mstore(0x40, 0x80)\n    /* \"contracts/authentication.sol\":684:730  constructor() {... */\n  callvalue\n  dup1\n  iszero\n  tag_1\n  jumpi\n  0x00\n  dup1\n  revert\ntag_1:\n  pop\n    /* \"contracts/authentication.sol\":721:722  0 */\n  0x00\n    /* \"contracts/authentication.sol\":709:718  nbOfUsers */\n  dup1\n    /* \"contracts/authentication.sol\":709:722  nbOfUsers = 0 */\n  dup2\n  swap1\n  sstore\n  pop\n    /* \"contracts/authentication.sol\":60:3673  contract Authentication {... */\n  dataSize(sub_0)\n  dup1\n  dataOffset(sub_0)\n  0x00\n  codecopy\n  0x00\n  return\nstop\n\nsub_0: assembly {\n        /* \"contracts/authentication.sol\":60:3673  contract Authentication {... */\n      mstore(0x40, 0x80)\n      callvalue\n      dup1\n      iszero\n      tag_1\n      jumpi\n      0x00\n      dup1\n      revert\n    tag_1:\n      pop\n      jumpi(tag_2, lt(calldatasize, 0x04))\n      shr(0xe0, calldataload(0x00))\n      dup1\n      0x5a09007b\n      gt\n      tag_12\n      jumpi\n      dup1\n      0x5a09007b\n      eq\n      tag_7\n      jumpi\n      dup1\n      0x681f3e6d\n      eq\n      tag_8\n      jumpi\n      dup1\n      0xb4bfc3a5\n      eq\n      tag_9\n      jumpi\n      dup1\n      0xc127ae41\n      eq\n      tag_10\n      jumpi\n      dup1\n      0xebc3eee8\n      eq\n      tag_11\n      jumpi\n      jump(tag_2)\n    tag_12:\n      dup1\n      0x107046bd\n      eq\n      tag_3\n      jumpi\n      dup1\n      0x12679323\n      eq\n      tag_4\n      jumpi\n      dup1\n      0x3162a709\n      eq\n      tag_5\n      jumpi\n      dup1\n      0x58467dbc\n      eq\n      tag_6\n      jumpi\n    tag_2:\n      0x00\n      dup1\n      revert\n        /* \"contracts/authentication.sol\":589:614  Project[] public projects */\n    tag_3:\n      tag_13\n      0x04\n      dup1\n      calldatasize\n      sub\n      dup2\n      add\n      swap1\n      tag_14\n      swap2\n      swap1\n      tag_15\n      jump\t// in\n    tag_14:\n      tag_16\n      jump\t// in\n    tag_13:\n      mload(0x40)\n      tag_17\n      swap6\n      swap5\n      swap4\n      swap3\n      swap2\n      swap1\n      tag_18\n      jump\t// in\n    tag_17:\n      mload(0x40)\n      dup1\n      swap2\n      sub\n      swap1\n      return\n        /* \"contracts/authentication.sol\":91:115  uint256 public nbOfUsers */\n    tag_4:\n      tag_19\n      tag_20\n      jump\t// in\n    tag_19:\n      mload(0x40)\n      tag_21\n      swap2\n      swap1\n      tag_22\n      jump\t// in\n    tag_21:\n      mload(0x40)\n      dup1\n      swap2\n      sub\n      swap1\n      return\n        /* \"contracts/authentication.sol\":3381:3661  function getProjectDetails(string memory userName) public view returns(Project[] memory) {... */\n    tag_5:\n      tag_23\n      0x04\n      dup1\n      calldatasize\n      sub\n      dup2\n      add\n      swap1\n      tag_24\n      swap2\n      swap1\n      tag_25\n      jump\t// in\n    tag_24:\n      tag_26\n      jump\t// in\n    tag_23:\n      mload(0x40)\n      tag_27\n      swap2\n      swap1\n      tag_28\n      jump\t// in\n    tag_27:\n      mload(0x40)\n      dup1\n      swap2\n      sub\n      swap1\n      return\n        /* \"contracts/authentication.sol\":2203:2711  function login(string memory username, string memory password) public returns(string memory) {... */\n    tag_6:\n      tag_29\n      0x04\n      dup1\n      calldatasize\n      sub\n      dup2\n      add\n      swap1\n      tag_30\n      swap2\n      swap1\n      tag_31\n      jump\t// in\n    tag_30:\n      tag_32\n      jump\t// in\n    tag_29:\n      mload(0x40)\n      tag_33\n      swap2\n      swap1\n      tag_34\n      jump\t// in\n    tag_33:\n      mload(0x40)\n      dup1\n      swap2\n      sub\n      swap1\n      return\n        /* \"contracts/authentication.sol\":738:1609  function register(string memory _signature, string memory email, string memory username, string memory password, string memory repeatPassword) public returns(string memory) {... */\n    tag_7:\n      tag_35\n      0x04\n      dup1\n      calldatasize\n      sub\n      dup2\n      add\n      swap1\n      tag_36\n      swap2\n      swap1\n      tag_37\n      jump\t// in\n    tag_36:\n      tag_38\n      jump\t// in\n    tag_35:\n      mload(0x40)\n      tag_39\n      swap2\n      swap1\n      tag_34\n      jump\t// in\n    tag_39:\n      mload(0x40)\n      dup1\n      swap2\n      sub\n      swap1\n      return\n        /* \"contracts/authentication.sol\":2083:2197  function getUsername() public view returns (string memory) {... */\n    tag_8:\n      tag_40\n      tag_41\n      jump\t// in\n    tag_40:\n      mload(0x40)\n      tag_42\n      swap2\n      swap1\n      tag_34\n      jump\t// in\n    tag_42:\n      mload(0x40)\n      dup1\n      swap2\n      sub\n      swap1\n      return\n        /* \"contracts/authentication.sol\":2742:3373  function saveProject(string memory projectName, string memory description, string memory deadline, string memory amount) public returns(string memory) {... */\n    tag_9:\n      tag_43\n      0x04\n      dup1\n      calldatasize\n      sub\n      dup2\n      add\n      swap1\n      tag_44\n      swap2\n      swap1\n      tag_45\n      jump\t// in\n    tag_44:\n      tag_46\n      jump\t// in\n    tag_43:\n      mload(0x40)\n      tag_47\n      swap2\n      swap1\n      tag_34\n      jump\t// in\n    tag_47:\n      mload(0x40)\n      dup1\n      swap2\n      sub\n      swap1\n      return\n        /* \"contracts/authentication.sol\":1617:1816  function getSignatureHash() public view returns (string memory) {... */\n    tag_10:\n      tag_48\n      tag_49\n      jump\t// in\n    tag_48:\n      mload(0x40)\n      tag_50\n      swap2\n      swap1\n      tag_34\n      jump\t// in\n    tag_50:\n      mload(0x40)\n      dup1\n      swap2\n      sub\n      swap1\n      return\n        /* \"contracts/authentication.sol\":1824:1936  function getUserAddress() public view returns (address) {... */\n    tag_11:\n      tag_51\n      tag_52\n      jump\t// in\n    tag_51:\n      mload(0x40)\n      tag_53\n      swap2\n      swap1\n      tag_54\n      jump\t// in\n    tag_53:\n      mload(0x40)\n      dup1\n      swap2\n      sub\n      swap1\n      return\n        /* \"contracts/authentication.sol\":589:614  Project[] public projects */\n    tag_16:\n      0x03\n      dup2\n      dup2\n      sload\n      dup2\n      lt\n      tag_55\n      jumpi\n      0x00\n      dup1\n      revert\n    tag_55:\n      swap1\n      0x00\n      mstore\n      keccak256(0x00, 0x20)\n      swap1\n      0x05\n      mul\n      add\n      0x00\n      swap2\n      pop\n      swap1\n      pop\n      dup1\n      0x00\n      add\n      dup1\n      sload\n      tag_57\n      swap1\n      tag_58\n      jump\t// in\n    tag_57:\n      dup1\n      0x1f\n      add\n      0x20\n      dup1\n      swap2\n      div\n      mul\n      0x20\n      add\n      mload(0x40)\n      swap1\n      dup2\n      add\n      0x40\n      mstore\n      dup1\n      swap3\n      swap2\n      swap1\n      dup2\n      dup2\n      mstore\n      0x20\n      add\n      dup3\n      dup1\n      sload\n      tag_59\n      swap1\n      tag_58\n      jump\t// in\n    tag_59:\n      dup1\n      iszero\n      tag_60\n      jumpi\n      dup1\n      0x1f\n      lt\n      tag_61\n      jumpi\n      0x0100\n      dup1\n      dup4\n      sload\n      div\n      mul\n      dup4\n      mstore\n      swap2\n      0x20\n      add\n      swap2\n      jump(tag_60)\n    tag_61:\n      dup3\n      add\n      swap2\n      swap1\n      0x00\n      mstore\n      keccak256(0x00, 0x20)\n      swap1\n    tag_62:\n      dup2\n      sload\n      dup2\n      mstore\n      swap1\n      0x01\n      add\n      swap1\n      0x20\n      add\n      dup1\n      dup4\n      gt\n      tag_62\n      jumpi\n      dup3\n      swap1\n      sub\n      0x1f\n      and\n      dup3\n      add\n      swap2\n    tag_60:\n      pop\n      pop\n      pop\n      pop\n      pop\n      swap1\n      dup1\n      0x01\n      add\n      dup1\n      sload\n      tag_63\n      swap1\n      tag_58\n      jump\t// in\n    tag_63:\n      dup1\n      0x1f\n      add\n      0x20\n      dup1\n      swap2\n      div\n      mul\n      0x20\n      add\n      mload(0x40)\n      swap1\n      dup2\n      add\n      0x40\n      mstore\n      dup1\n      swap3\n      swap2\n      swap1\n      dup2\n      dup2\n      mstore\n      0x20\n      add\n      dup3\n      dup1\n      sload\n      tag_64\n      swap1\n      tag_58\n      jump\t// in\n    tag_64:\n      dup1\n      iszero\n      tag_65\n      jumpi\n      dup1\n      0x1f\n      lt\n      tag_66\n      jumpi\n      0x0100\n      dup1\n      dup4\n      sload\n      div\n      mul\n      dup4\n      mstore\n      swap2\n      0x20\n      add\n      swap2\n      jump(tag_65)\n    tag_66:\n      dup3\n      add\n      swap2\n      swap1\n      0x00\n      mstore\n      keccak256(0x00, 0x20)\n      swap1\n    tag_67:\n      dup2\n      sload\n      dup2\n      mstore\n      swap1\n      0x01\n      add\n      swap1\n      0x20\n      add\n      dup1\n      dup4\n      gt\n      tag_67\n      jumpi\n      dup3\n      swap1\n      sub\n      0x1f\n      and\n      dup3\n      add\n      swap2\n    tag_65:\n      pop\n      pop\n      pop\n      pop\n      pop\n      swap1\n      dup1\n      0x02\n      add\n      dup1\n      sload\n      tag_68\n      swap1\n      tag_58\n      jump\t// in\n    tag_68:\n      dup1\n      0x1f\n      add\n      0x20\n      dup1\n      swap2\n      div\n      mul\n      0x20\n      add\n      mload(0x40)\n      swap1\n      dup2\n      add\n      0x40\n      mstore\n      dup1\n      swap3\n      swap2\n      swap1\n      dup2\n      dup2\n      mstore\n      0x20\n      add\n      dup3\n      dup1\n      sload\n      tag_69\n      swap1\n      tag_58\n      jump\t// in\n    tag_69:\n      dup1\n      iszero\n      tag_70\n      jumpi\n      dup1\n      0x1f\n      lt\n      tag_71\n      jumpi\n      0x0100\n      dup1\n      dup4\n      sload\n      div\n      mul\n      dup4\n      mstore\n      swap2\n      0x20\n      add\n      swap2\n      jump(tag_70)\n    tag_71:\n      dup3\n      add\n      swap2\n      swap1\n      0x00\n      mstore\n      keccak256(0x00, 0x20)\n      swap1\n    tag_72:\n      dup2\n      sload\n      dup2\n      mstore\n      swap1\n      0x01\n      add\n      swap1\n      0x20\n      add\n      dup1\n      dup4\n      gt\n      tag_72\n      jumpi\n      dup3\n      swap1\n      sub\n      0x1f\n      and\n      dup3\n      add\n      swap2\n    tag_70:\n      pop\n      pop\n      pop\n      pop\n      pop\n      swap1\n      dup1\n      0x03\n      add\n      dup1\n      sload\n      tag_73\n      swap1\n      tag_58\n      jump\t// in\n    tag_73:\n      dup1\n      0x1f\n      add\n      0x20\n      dup1\n      swap2\n      div\n      mul\n      0x20\n      add\n      mload(0x40)\n      swap1\n      dup2\n      add\n      0x40\n      mstore\n      dup1\n      swap3\n      swap2\n      swap1\n      dup2\n      dup2\n      mstore\n      0x20\n      add\n      dup3\n      dup1\n      sload\n      tag_74\n      swap1\n      tag_58\n      jump\t// in\n    tag_74:\n      dup1\n      iszero\n      tag_75\n      jumpi\n      dup1\n      0x1f\n      lt\n      tag_76\n      jumpi\n      0x0100\n      dup1\n      dup4\n      sload\n      div\n      mul\n      dup4\n      mstore\n      swap2\n      0x20\n      add\n      swap2\n      jump(tag_75)\n    tag_76:\n      dup3\n      add\n      swap2\n      swap1\n      0x00\n      mstore\n      keccak256(0x00, 0x20)\n      swap1\n    tag_77:\n      dup2\n      sload\n      dup2\n      mstore\n      swap1\n      0x01\n      add\n      swap1\n      0x20\n      add\n      dup1\n      dup4\n      gt\n      tag_77\n      jumpi\n      dup3\n      swap1\n      sub\n      0x1f\n      and\n      dup3\n      add\n      swap2\n    tag_75:\n      pop\n      pop\n      pop\n      pop\n      pop\n      swap1\n      dup1\n      0x04\n      add\n      0x00\n      swap1\n      sload\n      swap1\n      0x0100\n      exp\n      swap1\n      div\n      0xffffffffffffffffffffffffffffffffffffffff\n      and\n      swap1\n      pop\n      dup6\n      jump\t// out\n        /* \"contracts/authentication.sol\":91:115  uint256 public nbOfUsers */\n    tag_20:\n      sload(0x00)\n      dup2\n      jump\t// out\n        /* \"contracts/authentication.sol\":3381:3661  function getProjectDetails(string memory userName) public view returns(Project[] memory) {... */\n    tag_26:\n        /* \"contracts/authentication.sol\":3452:3468  Project[] memory */\n      0x60\n        /* \"contracts/authentication.sol\":3483:3506  string memory _username */\n      0x00\n        /* \"contracts/authentication.sol\":3508:3521  getUsername() */\n      tag_79\n        /* \"contracts/authentication.sol\":3508:3519  getUsername */\n      tag_41\n        /* \"contracts/authentication.sol\":3508:3521  getUsername() */\n      jump\t// in\n    tag_79:\n        /* \"contracts/authentication.sol\":3483:3521  string memory _username= getUsername() */\n      swap1\n      pop\n        /* \"contracts/authentication.sol\":3582:3590  userName */\n      dup3\n        /* \"contracts/authentication.sol\":3566:3592  keccak256(bytes(userName)) */\n      dup1\n      mload\n      swap1\n      0x20\n      add\n      keccak256\n        /* \"contracts/authentication.sol\":3551:3560  _username */\n      dup2\n        /* \"contracts/authentication.sol\":3535:3562  keccak256(bytes(_username)) */\n      dup1\n      mload\n      swap1\n      0x20\n      add\n      keccak256\n        /* \"contracts/authentication.sol\":3535:3592  keccak256(bytes(_username)) == keccak256(bytes(userName)) */\n      sub\n        /* \"contracts/authentication.sol\":3531:3645  if (keccak256(bytes(_username)) == keccak256(bytes(userName))) {... */\n      tag_80\n      jumpi\n        /* \"contracts/authentication.sol\":3624:3632  projects */\n      0x03\n        /* \"contracts/authentication.sol\":3617:3632  return projects */\n      dup1\n      sload\n      dup1\n      0x20\n      mul\n      0x20\n      add\n      mload(0x40)\n      swap1\n      dup2\n      add\n      0x40\n      mstore\n      dup1\n      swap3\n      swap2\n      swap1\n      dup2\n      dup2\n      mstore\n      0x20\n      add\n      0x00\n      swap1\n    tag_81:\n      dup3\n      dup3\n      lt\n      iszero\n      tag_82\n      jumpi\n      dup4\n      dup3\n      swap1\n      0x00\n      mstore\n      keccak256(0x00, 0x20)\n      swap1\n      0x05\n      mul\n      add\n      mload(0x40)\n      dup1\n      0xa0\n      add\n      0x40\n      mstore\n      swap1\n      dup2\n      0x00\n      dup3\n      add\n      dup1\n      sload\n      tag_84\n      swap1\n      tag_58\n      jump\t// in\n    tag_84:\n      dup1\n      0x1f\n      add\n      0x20\n      dup1\n      swap2\n      div\n      mul\n      0x20\n      add\n      mload(0x40)\n      swap1\n      dup2\n      add\n      0x40\n      mstore\n      dup1\n      swap3\n      swap2\n      swap1\n      dup2\n      dup2\n      mstore\n      0x20\n      add\n      dup3\n      dup1\n      sload\n      tag_85\n      swap1\n      tag_58\n      jump\t// in\n    tag_85:\n      dup1\n      iszero\n      tag_86\n      jumpi\n      dup1\n      0x1f\n      lt\n      tag_87\n      jumpi\n      0x0100\n      dup1\n      dup4\n      sload\n      div\n      mul\n      dup4\n      mstore\n      swap2\n      0x20\n      add\n      swap2\n      jump(tag_86)\n    tag_87:\n      dup3\n      add\n      swap2\n      swap1\n      0x00\n      mstore\n      keccak256(0x00, 0x20)\n      swap1\n    tag_88:\n      dup2\n      sload\n      dup2\n      mstore\n      swap1\n      0x01\n      add\n      swap1\n      0x20\n      add\n      dup1\n      dup4\n      gt\n      tag_88\n      jumpi\n      dup3\n      swap1\n      sub\n      0x1f\n      and\n      dup3\n      add\n      swap2\n    tag_86:\n      pop\n      pop\n      pop\n      pop\n      pop\n      dup2\n      mstore\n      0x20\n      add\n      0x01\n      dup3\n      add\n      dup1\n      sload\n      tag_89\n      swap1\n      tag_58\n      jump\t// in\n    tag_89:\n      dup1\n      0x1f\n      add\n      0x20\n      dup1\n      swap2\n      div\n      mul\n      0x20\n      add\n      mload(0x40)\n      swap1\n      dup2\n      add\n      0x40\n      mstore\n      dup1\n      swap3\n      swap2\n      swap1\n      dup2\n      dup2\n      mstore\n      0x20\n      add\n      dup3\n      dup1\n      sload\n      tag_90\n      swap1\n      tag_58\n      jump\t// in\n    tag_90:\n      dup1\n      iszero\n      tag_91\n      jumpi\n      dup1\n      0x1f\n      lt\n      tag_92\n      jumpi\n      0x0100\n      dup1\n      dup4\n      sload\n      div\n      mul\n      dup4\n      mstore\n      swap2\n      0x20\n      add\n      swap2\n      jump(tag_91)\n    tag_92:\n      dup3\n      add\n      swap2\n      swap1\n      0x00\n      mstore\n      keccak256(0x00, 0x20)\n      swap1\n    tag_93:\n      dup2\n      sload\n      dup2\n      mstore\n      swap1\n      0x01\n      add\n      swap1\n      0x20\n      add\n      dup1\n      dup4\n      gt\n      tag_93\n      jumpi\n      dup3\n      swap1\n      sub\n      0x1f\n      and\n      dup3\n      add\n      swap2\n    tag_91:\n      pop\n      pop\n      pop\n      pop\n      pop\n      dup2\n      mstore\n      0x20\n      add\n      0x02\n      dup3\n      add\n      dup1\n      sload\n      tag_94\n      swap1\n      tag_58\n      jump\t// in\n    tag_94:\n      dup1\n      0x1f\n      add\n      0x20\n      dup1\n      swap2\n      div\n      mul\n      0x20\n      add\n      mload(0x40)\n      swap1\n      dup2\n      add\n      0x40\n      mstore\n      dup1\n      swap3\n      swap2\n      swap1\n      dup2\n      dup2\n      mstore\n      0x20\n      add\n      dup3\n      dup1\n      sload\n      tag_95\n      swap1\n      tag_58\n      jump\t// in\n    tag_95:\n      dup1\n      iszero\n      tag_96\n      jumpi\n      dup1\n      0x1f\n      lt\n      tag_97\n      jumpi\n      0x0100\n      dup1\n      dup4\n      sload\n      div\n      mul\n      dup4\n      mstore\n      swap2\n      0x20\n      add\n      swap2\n      jump(tag_96)\n    tag_97:\n      dup3\n      add\n      swap2\n      swap1\n      0x00\n      mstore\n      keccak256(0x00, 0x20)\n      swap1\n    tag_98:\n      dup2\n      sload\n      dup2\n      mstore\n      swap1\n      0x01\n      add\n      swap1\n      0x20\n      add\n      dup1\n      dup4\n      gt\n      tag_98\n      jumpi\n      dup3\n      swap1\n      sub\n      0x1f\n      and\n      dup3\n      add\n      swap2\n    tag_96:\n      pop\n      pop\n      pop\n      pop\n      pop\n      dup2\n      mstore\n      0x20\n      add\n      0x03\n      dup3\n      add\n      dup1\n      sload\n      tag_99\n      swap1\n      tag_58\n      jump\t// in\n    tag_99:\n      dup1\n      0x1f\n      add\n      0x20\n      dup1\n      swap2\n      div\n      mul\n      0x20\n      add\n      mload(0x40)\n      swap1\n      dup2\n      add\n      0x40\n      mstore\n      dup1\n      swap3\n      swap2\n      swap1\n      dup2\n      dup2\n      mstore\n      0x20\n      add\n      dup3\n      dup1\n      sload\n      tag_100\n      swap1\n      tag_58\n      jump\t// in\n    tag_100:\n      dup1\n      iszero\n      tag_101\n      jumpi\n      dup1\n      0x1f\n      lt\n      tag_102\n      jumpi\n      0x0100\n      dup1\n      dup4\n      sload\n      div\n      mul\n      dup4\n      mstore\n      swap2\n      0x20\n      add\n      swap2\n      jump(tag_101)\n    tag_102:\n      dup3\n      add\n      swap2\n      swap1\n      0x00\n      mstore\n      keccak256(0x00, 0x20)\n      swap1\n    tag_103:\n      dup2\n      sload\n      dup2\n      mstore\n      swap1\n      0x01\n      add\n      swap1\n      0x20\n      add\n      dup1\n      dup4\n      gt\n      tag_103\n      jumpi\n      dup3\n      swap1\n      sub\n      0x1f\n      and\n      dup3\n      add\n      swap2\n    tag_101:\n      pop\n      pop\n      pop\n      pop\n      pop\n      dup2\n      mstore\n      0x20\n      add\n      0x04\n      dup3\n      add\n      0x00\n      swap1\n      sload\n      swap1\n      0x0100\n      exp\n      swap1\n      div\n      0xffffffffffffffffffffffffffffffffffffffff\n      and\n      0xffffffffffffffffffffffffffffffffffffffff\n      and\n      0xffffffffffffffffffffffffffffffffffffffff\n      and\n      dup2\n      mstore\n      pop\n      pop\n      dup2\n      mstore\n      0x20\n      add\n      swap1\n      0x01\n      add\n      swap1\n      jump(tag_81)\n    tag_82:\n      pop\n      pop\n      pop\n      pop\n      swap2\n      pop\n      pop\n      jump(tag_78)\n        /* \"contracts/authentication.sol\":3531:3645  if (keccak256(bytes(_username)) == keccak256(bytes(userName))) {... */\n    tag_80:\n        /* \"contracts/authentication.sol\":3470:3661  {... */\n      pop\n        /* \"contracts/authentication.sol\":3381:3661  function getProjectDetails(string memory userName) public view returns(Project[] memory) {... */\n    tag_78:\n      swap2\n      swap1\n      pop\n      jump\t// out\n        /* \"contracts/authentication.sol\":2203:2711  function login(string memory username, string memory password) public returns(string memory) {... */\n    tag_32:\n        /* \"contracts/authentication.sol\":2281:2294  string memory */\n      0x60\n        /* \"contracts/authentication.sol\":2309:2332  string memory _username */\n      0x00\n        /* \"contracts/authentication.sol\":2334:2347  getUsername() */\n      tag_105\n        /* \"contracts/authentication.sol\":2334:2345  getUsername */\n      tag_41\n        /* \"contracts/authentication.sol\":2334:2347  getUsername() */\n      jump\t// in\n    tag_105:\n        /* \"contracts/authentication.sol\":2309:2347  string memory _username= getUsername() */\n      swap1\n      pop\n        /* \"contracts/authentication.sol\":2360:2383  string memory _password */\n      0x00\n        /* \"contracts/authentication.sol\":2385:2389  user */\n      0x01\n        /* \"contracts/authentication.sol\":2385:2401  user[msg.sender] */\n      0x00\n        /* \"contracts/authentication.sol\":2390:2400  msg.sender */\n      caller\n        /* \"contracts/authentication.sol\":2385:2401  user[msg.sender] */\n      0xffffffffffffffffffffffffffffffffffffffff\n      and\n      0xffffffffffffffffffffffffffffffffffffffff\n      and\n      dup2\n      mstore\n      0x20\n      add\n      swap1\n      dup2\n      mstore\n      0x20\n      add\n      0x00\n      keccak256\n        /* \"contracts/authentication.sol\":2385:2410  user[msg.sender].password */\n      0x03\n      add\n        /* \"contracts/authentication.sol\":2360:2410  string memory _password= user[msg.sender].password */\n      dup1\n      sload\n      tag_106\n      swap1\n      tag_58\n      jump\t// in\n    tag_106:\n      dup1\n      0x1f\n      add\n      0x20\n      dup1\n      swap2\n      div\n      mul\n      0x20\n      add\n      mload(0x40)\n      swap1\n      dup2\n      add\n      0x40\n      mstore\n      dup1\n      swap3\n      swap2\n      swap1\n      dup2\n      dup2\n      mstore\n      0x20\n      add\n      dup3\n      dup1\n      sload\n      tag_107\n      swap1\n      tag_58\n      jump\t// in\n    tag_107:\n      dup1\n      iszero\n      tag_108\n      jumpi\n      dup1\n      0x1f\n      lt\n      tag_109\n      jumpi\n      0x0100\n      dup1\n      dup4\n      sload\n      div\n      mul\n      dup4\n      mstore\n      swap2\n      0x20\n      add\n      swap2\n      jump(tag_108)\n    tag_109:\n      dup3\n      add\n      swap2\n      swap1\n      0x00\n      mstore\n      keccak256(0x00, 0x20)\n      swap1\n    tag_110:\n      dup2\n      sload\n      dup2\n      mstore\n      swap1\n      0x01\n      add\n      swap1\n      0x20\n      add\n      dup1\n      dup4\n      gt\n      tag_110\n      jumpi\n      dup3\n      swap1\n      sub\n      0x1f\n      and\n      dup3\n      add\n      swap2\n    tag_108:\n      pop\n      pop\n      pop\n      pop\n      pop\n      swap1\n      pop\n        /* \"contracts/authentication.sol\":2473:2481  username */\n      dup5\n        /* \"contracts/authentication.sol\":2457:2483  keccak256(bytes(username)) */\n      dup1\n      mload\n      swap1\n      0x20\n      add\n      keccak256\n        /* \"contracts/authentication.sol\":2442:2451  _username */\n      dup3\n        /* \"contracts/authentication.sol\":2426:2453  keccak256(bytes(_username)) */\n      dup1\n      mload\n      swap1\n      0x20\n      add\n      keccak256\n        /* \"contracts/authentication.sol\":2426:2483  keccak256(bytes(_username)) == keccak256(bytes(username)) */\n      eq\n        /* \"contracts/authentication.sol\":2426:2544  keccak256(bytes(_username)) == keccak256(bytes(username)) && keccak256(bytes(_password)) == keccak256(bytes(password)) */\n      dup1\n      iszero\n      tag_111\n      jumpi\n      pop\n        /* \"contracts/authentication.sol\":2534:2542  password */\n      dup4\n        /* \"contracts/authentication.sol\":2518:2544  keccak256(bytes(password)) */\n      dup1\n      mload\n      swap1\n      0x20\n      add\n      keccak256\n        /* \"contracts/authentication.sol\":2503:2512  _password */\n      dup2\n        /* \"contracts/authentication.sol\":2487:2514  keccak256(bytes(_password)) */\n      dup1\n      mload\n      swap1\n      0x20\n      add\n      keccak256\n        /* \"contracts/authentication.sol\":2487:2544  keccak256(bytes(_password)) == keccak256(bytes(password)) */\n      eq\n        /* \"contracts/authentication.sol\":2426:2544  keccak256(bytes(_username)) == keccak256(bytes(username)) && keccak256(bytes(_password)) == keccak256(bytes(password)) */\n    tag_111:\n        /* \"contracts/authentication.sol\":2423:2704  if(keccak256(bytes(_username)) == keccak256(bytes(username)) && keccak256(bytes(_password)) == keccak256(bytes(password)) ) {... */\n      iszero\n      tag_112\n      jumpi\n        /* \"contracts/authentication.sol\":2583:2591  username */\n      dup5\n        /* \"contracts/authentication.sol\":2576:2591  return username */\n      swap3\n      pop\n      pop\n      pop\n      jump(tag_104)\n        /* \"contracts/authentication.sol\":2423:2704  if(keccak256(bytes(_username)) == keccak256(bytes(username)) && keccak256(bytes(_password)) == keccak256(bytes(password)) ) {... */\n    tag_112:\n        /* \"contracts/authentication.sol\":2636:2692  return \"User doesnot exist !! Register and try again !!\" */\n      mload(0x40)\n      dup1\n      0x60\n      add\n      0x40\n      mstore\n      dup1\n      0x2f\n      dup2\n      mstore\n      0x20\n      add\n      data_f8cee5838de095b73bc0eb68505c82192a6e7ef8eb72dc52884288f7c470afa7\n      0x2f\n      swap2\n      codecopy\n      swap3\n      pop\n      pop\n      pop\n        /* \"contracts/authentication.sol\":2203:2711  function login(string memory username, string memory password) public returns(string memory) {... */\n    tag_104:\n      swap3\n      swap2\n      pop\n      pop\n      jump\t// out\n        /* \"contracts/authentication.sol\":738:1609  function register(string memory _signature, string memory email, string memory username, string memory password, string memory repeatPassword) public returns(string memory) {... */\n    tag_38:\n        /* \"contracts/authentication.sol\":896:909  string memory */\n      0x60\n        /* \"contracts/authentication.sol\":993:1009  getUserAddress() */\n      tag_115\n        /* \"contracts/authentication.sol\":993:1007  getUserAddress */\n      tag_52\n        /* \"contracts/authentication.sol\":993:1009  getUserAddress() */\n      jump\t// in\n    tag_115:\n        /* \"contracts/authentication.sol\":944:1009  user[msg.sender].userAddress ==... */\n      0xffffffffffffffffffffffffffffffffffffffff\n      and\n        /* \"contracts/authentication.sol\":944:948  user */\n      0x01\n        /* \"contracts/authentication.sol\":944:960  user[msg.sender] */\n      0x00\n        /* \"contracts/authentication.sol\":949:959  msg.sender */\n      caller\n        /* \"contracts/authentication.sol\":944:960  user[msg.sender] */\n      0xffffffffffffffffffffffffffffffffffffffff\n      and\n      0xffffffffffffffffffffffffffffffffffffffff\n      and\n      dup2\n      mstore\n      0x20\n      add\n      swap1\n      dup2\n      mstore\n      0x20\n      add\n      0x00\n      keccak256\n        /* \"contracts/authentication.sol\":944:972  user[msg.sender].userAddress */\n      0x05\n      add\n      0x00\n      swap1\n      sload\n      swap1\n      0x0100\n      exp\n      swap1\n      div\n      0xffffffffffffffffffffffffffffffffffffffff\n      and\n        /* \"contracts/authentication.sol\":944:1009  user[msg.sender].userAddress ==... */\n      0xffffffffffffffffffffffffffffffffffffffff\n      and\n      eq\n        /* \"contracts/authentication.sol\":922:1087  require(... */\n      tag_116\n      jumpi\n      mload(0x40)\n      0x08c379a000000000000000000000000000000000000000000000000000000000\n      dup2\n      mstore\n      0x04\n      add\n      tag_117\n      swap1\n      tag_118\n      jump\t// in\n    tag_117:\n      mload(0x40)\n      dup1\n      swap2\n      sub\n      swap1\n      revert\n    tag_116:\n        /* \"contracts/authentication.sol\":1133:1143  _signature */\n      dup6\n        /* \"contracts/authentication.sol\":1100:1104  user */\n      0x01\n        /* \"contracts/authentication.sol\":1100:1116  user[msg.sender] */\n      0x00\n        /* \"contracts/authentication.sol\":1105:1115  msg.sender */\n      caller\n        /* \"contracts/authentication.sol\":1100:1116  user[msg.sender] */\n      0xffffffffffffffffffffffffffffffffffffffff\n      and\n      0xffffffffffffffffffffffffffffffffffffffff\n      and\n      dup2\n      mstore\n      0x20\n      add\n      swap1\n      dup2\n      mstore\n      0x20\n      add\n      0x00\n      keccak256\n        /* \"contracts/authentication.sol\":1100:1130  user[msg.sender].signatureHash */\n      0x00\n      add\n        /* \"contracts/authentication.sol\":1100:1143  user[msg.sender].signatureHash = _signature */\n      swap1\n      dup1\n      mload\n      swap1\n      0x20\n      add\n      swap1\n      tag_119\n      swap3\n      swap2\n      swap1\n      tag_120\n      jump\t// in\n    tag_119:\n      pop\n        /* \"contracts/authentication.sol\":1179:1184  email */\n      dup5\n        /* \"contracts/authentication.sol\":1154:1158  user */\n      0x01\n        /* \"contracts/authentication.sol\":1154:1170  user[msg.sender] */\n      0x00\n        /* \"contracts/authentication.sol\":1159:1169  msg.sender */\n      caller\n        /* \"contracts/authentication.sol\":1154:1170  user[msg.sender] */\n      0xffffffffffffffffffffffffffffffffffffffff\n      and\n      0xffffffffffffffffffffffffffffffffffffffff\n      and\n      dup2\n      mstore\n      0x20\n      add\n      swap1\n      dup2\n      mstore\n      0x20\n      add\n      0x00\n      keccak256\n        /* \"contracts/authentication.sol\":1154:1176  user[msg.sender].email */\n      0x01\n      add\n        /* \"contracts/authentication.sol\":1154:1184  user[msg.sender].email = email */\n      swap1\n      dup1\n      mload\n      swap1\n      0x20\n      add\n      swap1\n      tag_121\n      swap3\n      swap2\n      swap1\n      tag_120\n      jump\t// in\n    tag_121:\n      pop\n        /* \"contracts/authentication.sol\":1226:1236  msg.sender */\n      caller\n        /* \"contracts/authentication.sol\":1195:1199  user */\n      0x01\n        /* \"contracts/authentication.sol\":1195:1211  user[msg.sender] */\n      0x00\n        /* \"contracts/authentication.sol\":1200:1210  msg.sender */\n      caller\n        /* \"contracts/authentication.sol\":1195:1211  user[msg.sender] */\n      0xffffffffffffffffffffffffffffffffffffffff\n      and\n      0xffffffffffffffffffffffffffffffffffffffff\n      and\n      dup2\n      mstore\n      0x20\n      add\n      swap1\n      dup2\n      mstore\n      0x20\n      add\n      0x00\n      keccak256\n        /* \"contracts/authentication.sol\":1195:1223  user[msg.sender].userAddress */\n      0x05\n      add\n      0x00\n        /* \"contracts/authentication.sol\":1195:1236  user[msg.sender].userAddress = msg.sender */\n      0x0100\n      exp\n      dup2\n      sload\n      dup2\n      0xffffffffffffffffffffffffffffffffffffffff\n      mul\n      not\n      and\n      swap1\n      dup4\n      0xffffffffffffffffffffffffffffffffffffffff\n      and\n      mul\n      or\n      swap1\n      sstore\n      pop\n        /* \"contracts/authentication.sol\":1275:1283  username */\n      dup4\n        /* \"contracts/authentication.sol\":1247:1251  user */\n      0x01\n        /* \"contracts/authentication.sol\":1247:1263  user[msg.sender] */\n      0x00\n        /* \"contracts/authentication.sol\":1252:1262  msg.sender */\n      caller\n        /* \"contracts/authentication.sol\":1247:1263  user[msg.sender] */\n      0xffffffffffffffffffffffffffffffffffffffff\n      and\n      0xffffffffffffffffffffffffffffffffffffffff\n      and\n      dup2\n      mstore\n      0x20\n      add\n      swap1\n      dup2\n      mstore\n      0x20\n      add\n      0x00\n      keccak256\n        /* \"contracts/authentication.sol\":1247:1272  user[msg.sender].username */\n      0x02\n      add\n        /* \"contracts/authentication.sol\":1247:1283  user[msg.sender].username = username */\n      swap1\n      dup1\n      mload\n      swap1\n      0x20\n      add\n      swap1\n      tag_122\n      swap3\n      swap2\n      swap1\n      tag_120\n      jump\t// in\n    tag_122:\n      pop\n        /* \"contracts/authentication.sol\":1322:1330  password */\n      dup3\n        /* \"contracts/authentication.sol\":1294:1298  user */\n      0x01\n        /* \"contracts/authentication.sol\":1294:1310  user[msg.sender] */\n      0x00\n        /* \"contracts/authentication.sol\":1299:1309  msg.sender */\n      caller\n        /* \"contracts/authentication.sol\":1294:1310  user[msg.sender] */\n      0xffffffffffffffffffffffffffffffffffffffff\n      and\n      0xffffffffffffffffffffffffffffffffffffffff\n      and\n      dup2\n      mstore\n      0x20\n      add\n      swap1\n      dup2\n      mstore\n      0x20\n      add\n      0x00\n      keccak256\n        /* \"contracts/authentication.sol\":1294:1319  user[msg.sender].password */\n      0x03\n      add\n        /* \"contracts/authentication.sol\":1294:1330  user[msg.sender].password = password */\n      swap1\n      dup1\n      mload\n      swap1\n      0x20\n      add\n      swap1\n      tag_123\n      swap3\n      swap2\n      swap1\n      tag_120\n      jump\t// in\n    tag_123:\n      pop\n        /* \"contracts/authentication.sol\":1375:1389  repeatPassword */\n      dup2\n        /* \"contracts/authentication.sol\":1341:1345  user */\n      0x01\n        /* \"contracts/authentication.sol\":1341:1357  user[msg.sender] */\n      0x00\n        /* \"contracts/authentication.sol\":1346:1356  msg.sender */\n      caller\n        /* \"contracts/authentication.sol\":1341:1357  user[msg.sender] */\n      0xffffffffffffffffffffffffffffffffffffffff\n      and\n      0xffffffffffffffffffffffffffffffffffffffff\n      and\n      dup2\n      mstore\n      0x20\n      add\n      swap1\n      dup2\n      mstore\n      0x20\n      add\n      0x00\n      keccak256\n        /* \"contracts/authentication.sol\":1341:1372  user[msg.sender].repeatPassword */\n      0x04\n      add\n        /* \"contracts/authentication.sol\":1341:1389  user[msg.sender].repeatPassword = repeatPassword */\n      swap1\n      dup1\n      mload\n      swap1\n      0x20\n      add\n      swap1\n      tag_124\n      swap3\n      swap2\n      swap1\n      tag_120\n      jump\t// in\n    tag_124:\n      pop\n        /* \"contracts/authentication.sol\":1400:1409  nbOfUsers */\n      0x00\n      dup1\n        /* \"contracts/authentication.sol\":1400:1411  nbOfUsers++ */\n      dup2\n      sload\n      dup1\n      swap3\n      swap2\n      swap1\n      tag_125\n      swap1\n      tag_126\n      jump\t// in\n    tag_125:\n      swap2\n      swap1\n      pop\n      sstore\n      pop\n        /* \"contracts/authentication.sol\":1569:1601  return \"Successfully Registered\" */\n      mload(0x40)\n      dup1\n      0x40\n      add\n      0x40\n      mstore\n      dup1\n      0x17\n      dup2\n      mstore\n      0x20\n      add\n      0x5375636365737366756c6c792052656769737465726564000000000000000000\n      dup2\n      mstore\n      pop\n      swap1\n      pop\n        /* \"contracts/authentication.sol\":738:1609  function register(string memory _signature, string memory email, string memory username, string memory password, string memory repeatPassword) public returns(string memory) {... */\n      swap6\n      swap5\n      pop\n      pop\n      pop\n      pop\n      pop\n      jump\t// out\n        /* \"contracts/authentication.sol\":2083:2197  function getUsername() public view returns (string memory) {... */\n    tag_41:\n        /* \"contracts/authentication.sol\":2127:2140  string memory */\n      0x60\n        /* \"contracts/authentication.sol\":2162:2166  user */\n      0x01\n        /* \"contracts/authentication.sol\":2162:2178  user[msg.sender] */\n      0x00\n        /* \"contracts/authentication.sol\":2167:2177  msg.sender */\n      caller\n        /* \"contracts/authentication.sol\":2162:2178  user[msg.sender] */\n      0xffffffffffffffffffffffffffffffffffffffff\n      and\n      0xffffffffffffffffffffffffffffffffffffffff\n      and\n      dup2\n      mstore\n      0x20\n      add\n      swap1\n      dup2\n      mstore\n      0x20\n      add\n      0x00\n      keccak256\n        /* \"contracts/authentication.sol\":2162:2187  user[msg.sender].username */\n      0x02\n      add\n        /* \"contracts/authentication.sol\":2155:2187  return user[msg.sender].username */\n      dup1\n      sload\n      tag_128\n      swap1\n      tag_58\n      jump\t// in\n    tag_128:\n      dup1\n      0x1f\n      add\n      0x20\n      dup1\n      swap2\n      div\n      mul\n      0x20\n      add\n      mload(0x40)\n      swap1\n      dup2\n      add\n      0x40\n      mstore\n      dup1\n      swap3\n      swap2\n      swap1\n      dup2\n      dup2\n      mstore\n      0x20\n      add\n      dup3\n      dup1\n      sload\n      tag_129\n      swap1\n      tag_58\n      jump\t// in\n    tag_129:\n      dup1\n      iszero\n      tag_130\n      jumpi\n      dup1\n      0x1f\n      lt\n      tag_131\n      jumpi\n      0x0100\n      dup1\n      dup4\n      sload\n      div\n      mul\n      dup4\n      mstore\n      swap2\n      0x20\n      add\n      swap2\n      jump(tag_130)\n    tag_131:\n      dup3\n      add\n      swap2\n      swap1\n      0x00\n      mstore\n      keccak256(0x00, 0x20)\n      swap1\n    tag_132:\n      dup2\n      sload\n      dup2\n      mstore\n      swap1\n      0x01\n      add\n      swap1\n      0x20\n      add\n      dup1\n      dup4\n      gt\n      tag_132\n      jumpi\n      dup3\n      swap1\n      sub\n      0x1f\n      and\n      dup3\n      add\n      swap2\n    tag_130:\n      pop\n      pop\n      pop\n      pop\n      pop\n      swap1\n      pop\n        /* \"contracts/authentication.sol\":2083:2197  function getUsername() public view returns (string memory) {... */\n      swap1\n      jump\t// out\n        /* \"contracts/authentication.sol\":2742:3373  function saveProject(string memory projectName, string memory description, string memory deadline, string memory amount) public returns(string memory) {... */\n    tag_46:\n        /* \"contracts/authentication.sol\":2878:2891  string memory */\n      0x60\n        /* \"contracts/authentication.sol\":2940:2941  0 */\n      0x00\n        /* \"contracts/authentication.sol\":2917:2930  getUsername() */\n      tag_134\n        /* \"contracts/authentication.sol\":2917:2928  getUsername */\n      tag_41\n        /* \"contracts/authentication.sol\":2917:2930  getUsername() */\n      jump\t// in\n    tag_134:\n        /* \"contracts/authentication.sol\":2911:2938  bytes(getUsername()).length */\n      mload\n        /* \"contracts/authentication.sol\":2911:2941  bytes(getUsername()).length!=0 */\n      eq\n        /* \"contracts/authentication.sol\":2908:3364  if(bytes(getUsername()).length!=0) {... */\n      tag_135\n      jumpi\n        /* \"contracts/authentication.sol\":2988:2999  projectName */\n      dup5\n        /* \"contracts/authentication.sol\":2954:2961  project */\n      0x02\n        /* \"contracts/authentication.sol\":2954:2973  project[msg.sender] */\n      0x00\n        /* \"contracts/authentication.sol\":2962:2972  msg.sender */\n      caller\n        /* \"contracts/authentication.sol\":2954:2973  project[msg.sender] */\n      0xffffffffffffffffffffffffffffffffffffffff\n      and\n      0xffffffffffffffffffffffffffffffffffffffff\n      and\n      dup2\n      mstore\n      0x20\n      add\n      swap1\n      dup2\n      mstore\n      0x20\n      add\n      0x00\n      keccak256\n        /* \"contracts/authentication.sol\":2954:2985  project[msg.sender].projectName */\n      0x00\n      add\n        /* \"contracts/authentication.sol\":2954:2999  project[msg.sender].projectName = projectName */\n      swap1\n      dup1\n      mload\n      swap1\n      0x20\n      add\n      swap1\n      tag_136\n      swap3\n      swap2\n      swap1\n      tag_120\n      jump\t// in\n    tag_136:\n      pop\n        /* \"contracts/authentication.sol\":3044:3055  description */\n      dup4\n        /* \"contracts/authentication.sol\":3010:3017  project */\n      0x02\n        /* \"contracts/authentication.sol\":3010:3029  project[msg.sender] */\n      0x00\n        /* \"contracts/authentication.sol\":3018:3028  msg.sender */\n      caller\n        /* \"contracts/authentication.sol\":3010:3029  project[msg.sender] */\n      0xffffffffffffffffffffffffffffffffffffffff\n      and\n      0xffffffffffffffffffffffffffffffffffffffff\n      and\n      dup2\n      mstore\n      0x20\n      add\n      swap1\n      dup2\n      mstore\n      0x20\n      add\n      0x00\n      keccak256\n        /* \"contracts/authentication.sol\":3010:3041  project[msg.sender].description */\n      0x01\n      add\n        /* \"contracts/authentication.sol\":3010:3055  project[msg.sender].description = description */\n      swap1\n      dup1\n      mload\n      swap1\n      0x20\n      add\n      swap1\n      tag_137\n      swap3\n      swap2\n      swap1\n      tag_120\n      jump\t// in\n    tag_137:\n      pop\n        /* \"contracts/authentication.sol\":3097:3105  deadline */\n      dup3\n        /* \"contracts/authentication.sol\":3066:3073  project */\n      0x02\n        /* \"contracts/authentication.sol\":3066:3085  project[msg.sender] */\n      0x00\n        /* \"contracts/authentication.sol\":3074:3084  msg.sender */\n      caller\n        /* \"contracts/authentication.sol\":3066:3085  project[msg.sender] */\n      0xffffffffffffffffffffffffffffffffffffffff\n      and\n      0xffffffffffffffffffffffffffffffffffffffff\n      and\n      dup2\n      mstore\n      0x20\n      add\n      swap1\n      dup2\n      mstore\n      0x20\n      add\n      0x00\n      keccak256\n        /* \"contracts/authentication.sol\":3066:3094  project[msg.sender].deadline */\n      0x02\n      add\n        /* \"contracts/authentication.sol\":3066:3105  project[msg.sender].deadline = deadline */\n      swap1\n      dup1\n      mload\n      swap1\n      0x20\n      add\n      swap1\n      tag_138\n      swap3\n      swap2\n      swap1\n      tag_120\n      jump\t// in\n    tag_138:\n      pop\n        /* \"contracts/authentication.sol\":3145:3151  amount */\n      dup2\n        /* \"contracts/authentication.sol\":3116:3123  project */\n      0x02\n        /* \"contracts/authentication.sol\":3116:3135  project[msg.sender] */\n      0x00\n        /* \"contracts/authentication.sol\":3124:3134  msg.sender */\n      caller\n        /* \"contracts/authentication.sol\":3116:3135  project[msg.sender] */\n      0xffffffffffffffffffffffffffffffffffffffff\n      and\n      0xffffffffffffffffffffffffffffffffffffffff\n      and\n      dup2\n      mstore\n      0x20\n      add\n      swap1\n      dup2\n      mstore\n      0x20\n      add\n      0x00\n      keccak256\n        /* \"contracts/authentication.sol\":3116:3142  project[msg.sender].amount */\n      0x03\n      add\n        /* \"contracts/authentication.sol\":3116:3151  project[msg.sender].amount = amount */\n      swap1\n      dup1\n      mload\n      swap1\n      0x20\n      add\n      swap1\n      tag_139\n      swap3\n      swap2\n      swap1\n      tag_120\n      jump\t// in\n    tag_139:\n      pop\n        /* \"contracts/authentication.sol\":3195:3205  msg.sender */\n      caller\n        /* \"contracts/authentication.sol\":3162:3169  project */\n      0x02\n        /* \"contracts/authentication.sol\":3162:3181  project[msg.sender] */\n      0x00\n        /* \"contracts/authentication.sol\":3170:3180  msg.sender */\n      caller\n        /* \"contracts/authentication.sol\":3162:3181  project[msg.sender] */\n      0xffffffffffffffffffffffffffffffffffffffff\n      and\n      0xffffffffffffffffffffffffffffffffffffffff\n      and\n      dup2\n      mstore\n      0x20\n      add\n      swap1\n      dup2\n      mstore\n      0x20\n      add\n      0x00\n      keccak256\n        /* \"contracts/authentication.sol\":3162:3193  project[msg.sender].userAddress */\n      0x04\n      add\n      0x00\n        /* \"contracts/authentication.sol\":3162:3205  project[msg.sender].userAddress= msg.sender */\n      0x0100\n      exp\n      dup2\n      sload\n      dup2\n      0xffffffffffffffffffffffffffffffffffffffff\n      mul\n      not\n      and\n      swap1\n      dup4\n      0xffffffffffffffffffffffffffffffffffffffff\n      and\n      mul\n      or\n      swap1\n      sstore\n      pop\n        /* \"contracts/authentication.sol\":3216:3224  projects */\n      0x03\n        /* \"contracts/authentication.sol\":3231:3238  project */\n      0x02\n        /* \"contracts/authentication.sol\":3231:3250  project[msg.sender] */\n      0x00\n        /* \"contracts/authentication.sol\":3239:3249  msg.sender */\n      caller\n        /* \"contracts/authentication.sol\":3231:3250  project[msg.sender] */\n      0xffffffffffffffffffffffffffffffffffffffff\n      and\n      0xffffffffffffffffffffffffffffffffffffffff\n      and\n      dup2\n      mstore\n      0x20\n      add\n      swap1\n      dup2\n      mstore\n      0x20\n      add\n      0x00\n      keccak256\n        /* \"contracts/authentication.sol\":3216:3251  projects.push( project[msg.sender]) */\n      swap1\n      dup1\n      0x01\n      dup2\n      sload\n      add\n      dup1\n      dup3\n      sstore\n      dup1\n      swap2\n      pop\n      pop\n      0x01\n      swap1\n      sub\n      swap1\n      0x00\n      mstore\n      keccak256(0x00, 0x20)\n      swap1\n      0x05\n      mul\n      add\n      0x00\n      swap1\n      swap2\n      swap1\n      swap2\n      swap1\n      swap2\n      pop\n      0x00\n      dup3\n      add\n      dup2\n      0x00\n      add\n      swap1\n      dup1\n      sload\n      tag_141\n      swap1\n      tag_58\n      jump\t// in\n    tag_141:\n      tag_142\n      swap3\n      swap2\n      swap1\n      tag_143\n      jump\t// in\n    tag_142:\n      pop\n      0x01\n      dup3\n      add\n      dup2\n      0x01\n      add\n      swap1\n      dup1\n      sload\n      tag_144\n      swap1\n      tag_58\n      jump\t// in\n    tag_144:\n      tag_145\n      swap3\n      swap2\n      swap1\n      tag_143\n      jump\t// in\n    tag_145:\n      pop\n      0x02\n      dup3\n      add\n      dup2\n      0x02\n      add\n      swap1\n      dup1\n      sload\n      tag_146\n      swap1\n      tag_58\n      jump\t// in\n    tag_146:\n      tag_147\n      swap3\n      swap2\n      swap1\n      tag_143\n      jump\t// in\n    tag_147:\n      pop\n      0x03\n      dup3\n      add\n      dup2\n      0x03\n      add\n      swap1\n      dup1\n      sload\n      tag_148\n      swap1\n      tag_58\n      jump\t// in\n    tag_148:\n      tag_149\n      swap3\n      swap2\n      swap1\n      tag_143\n      jump\t// in\n    tag_149:\n      pop\n      0x04\n      dup3\n      add\n      0x00\n      swap1\n      sload\n      swap1\n      0x0100\n      exp\n      swap1\n      div\n      0xffffffffffffffffffffffffffffffffffffffff\n      and\n      dup2\n      0x04\n      add\n      exp(0x0100, 0x00)\n      dup2\n      sload\n      dup2\n      0xffffffffffffffffffffffffffffffffffffffff\n      mul\n      not\n      and\n      swap1\n      dup4\n      0xffffffffffffffffffffffffffffffffffffffff\n      and\n      mul\n      or\n      swap1\n      sstore\n      pop\n      pop\n      pop\n        /* \"contracts/authentication.sol\":3264:3299  return \"Project Saved Successfully\" */\n      mload(0x40)\n      dup1\n      0x40\n      add\n      0x40\n      mstore\n      dup1\n      0x1a\n      dup2\n      mstore\n      0x20\n      add\n      0x50726f6a656374205361766564205375636365737366756c6c79000000000000\n      dup2\n      mstore\n      pop\n      swap1\n      pop\n      jump(tag_133)\n        /* \"contracts/authentication.sol\":2908:3364  if(bytes(getUsername()).length!=0) {... */\n    tag_135:\n        /* \"contracts/authentication.sol\":3326:3355  return \"Error Saving Project\" */\n      mload(0x40)\n      dup1\n      0x40\n      add\n      0x40\n      mstore\n      dup1\n      0x14\n      dup2\n      mstore\n      0x20\n      add\n      0x4572726f7220536176696e672050726f6a656374000000000000000000000000\n      dup2\n      mstore\n      pop\n      swap1\n      pop\n        /* \"contracts/authentication.sol\":2742:3373  function saveProject(string memory projectName, string memory description, string memory deadline, string memory amount) public returns(string memory) {... */\n    tag_133:\n      swap5\n      swap4\n      pop\n      pop\n      pop\n      pop\n      jump\t// out\n        /* \"contracts/authentication.sol\":1617:1816  function getSignatureHash() public view returns (string memory) {... */\n    tag_49:\n        /* \"contracts/authentication.sol\":1666:1679  string memory */\n      0x60\n        /* \"contracts/authentication.sol\":1714:1718  user */\n      0x01\n        /* \"contracts/authentication.sol\":1714:1730  user[msg.sender] */\n      0x00\n        /* \"contracts/authentication.sol\":1719:1729  msg.sender */\n      caller\n        /* \"contracts/authentication.sol\":1714:1730  user[msg.sender] */\n      0xffffffffffffffffffffffffffffffffffffffff\n      and\n      0xffffffffffffffffffffffffffffffffffffffff\n      and\n      dup2\n      mstore\n      0x20\n      add\n      swap1\n      dup2\n      mstore\n      0x20\n      add\n      0x00\n      keccak256\n        /* \"contracts/authentication.sol\":1714:1742  user[msg.sender].userAddress */\n      0x05\n      add\n      0x00\n      swap1\n      sload\n      swap1\n      0x0100\n      exp\n      swap1\n      div\n      0xffffffffffffffffffffffffffffffffffffffff\n      and\n        /* \"contracts/authentication.sol\":1700:1742  msg.sender == user[msg.sender].userAddress */\n      0xffffffffffffffffffffffffffffffffffffffff\n      and\n        /* \"contracts/authentication.sol\":1700:1710  msg.sender */\n      caller\n        /* \"contracts/authentication.sol\":1700:1742  msg.sender == user[msg.sender].userAddress */\n      0xffffffffffffffffffffffffffffffffffffffff\n      and\n      eq\n        /* \"contracts/authentication.sol\":1692:1758  require(msg.sender == user[msg.sender].userAddress, \"Not allowed\") */\n      tag_152\n      jumpi\n      mload(0x40)\n      0x08c379a000000000000000000000000000000000000000000000000000000000\n      dup2\n      mstore\n      0x04\n      add\n      tag_153\n      swap1\n      tag_154\n      jump\t// in\n    tag_153:\n      mload(0x40)\n      dup1\n      swap2\n      sub\n      swap1\n      revert\n    tag_152:\n        /* \"contracts/authentication.sol\":1778:1782  user */\n      0x01\n        /* \"contracts/authentication.sol\":1778:1794  user[msg.sender] */\n      0x00\n        /* \"contracts/authentication.sol\":1783:1793  msg.sender */\n      caller\n        /* \"contracts/authentication.sol\":1778:1794  user[msg.sender] */\n      0xffffffffffffffffffffffffffffffffffffffff\n      and\n      0xffffffffffffffffffffffffffffffffffffffff\n      and\n      dup2\n      mstore\n      0x20\n      add\n      swap1\n      dup2\n      mstore\n      0x20\n      add\n      0x00\n      keccak256\n        /* \"contracts/authentication.sol\":1778:1808  user[msg.sender].signatureHash */\n      0x00\n      add\n        /* \"contracts/authentication.sol\":1771:1808  return user[msg.sender].signatureHash */\n      dup1\n      sload\n      tag_155\n      swap1\n      tag_58\n      jump\t// in\n    tag_155:\n      dup1\n      0x1f\n      add\n      0x20\n      dup1\n      swap2\n      div\n      mul\n      0x20\n      add\n      mload(0x40)\n      swap1\n      dup2\n      add\n      0x40\n      mstore\n      dup1\n      swap3\n      swap2\n      swap1\n      dup2\n      dup2\n      mstore\n      0x20\n      add\n      dup3\n      dup1\n      sload\n      tag_156\n      swap1\n      tag_58\n      jump\t// in\n    tag_156:\n      dup1\n      iszero\n      tag_157\n      jumpi\n      dup1\n      0x1f\n      lt\n      tag_158\n      jumpi\n      0x0100\n      dup1\n      dup4\n      sload\n      div\n      mul\n      dup4\n      mstore\n      swap2\n      0x20\n      add\n      swap2\n      jump(tag_157)\n    tag_158:\n      dup3\n      add\n      swap2\n      swap1\n      0x00\n      mstore\n      keccak256(0x00, 0x20)\n      swap1\n    tag_159:\n      dup2\n      sload\n      dup2\n      mstore\n      swap1\n      0x01\n      add\n      swap1\n      0x20\n      add\n      dup1\n      dup4\n      gt\n      tag_159\n      jumpi\n      dup3\n      swap1\n      sub\n      0x1f\n      and\n      dup3\n      add\n      swap2\n    tag_157:\n      pop\n      pop\n      pop\n      pop\n      pop\n      swap1\n      pop\n        /* \"contracts/authentication.sol\":1617:1816  function getSignatureHash() public view returns (string memory) {... */\n      swap1\n      jump\t// out\n        /* \"contracts/authentication.sol\":1824:1936  function getUserAddress() public view returns (address) {... */\n    tag_52:\n        /* \"contracts/authentication.sol\":1871:1878  address */\n      0x00\n        /* \"contracts/authentication.sol\":1900:1904  user */\n      0x01\n        /* \"contracts/authentication.sol\":1900:1916  user[msg.sender] */\n      0x00\n        /* \"contracts/authentication.sol\":1905:1915  msg.sender */\n      caller\n        /* \"contracts/authentication.sol\":1900:1916  user[msg.sender] */\n      0xffffffffffffffffffffffffffffffffffffffff\n      and\n      0xffffffffffffffffffffffffffffffffffffffff\n      and\n      dup2\n      mstore\n      0x20\n      add\n      swap1\n      dup2\n      mstore\n      0x20\n      add\n      0x00\n      keccak256\n        /* \"contracts/authentication.sol\":1900:1928  user[msg.sender].userAddress */\n      0x05\n      add\n      0x00\n      swap1\n      sload\n      swap1\n      0x0100\n      exp\n      swap1\n      div\n      0xffffffffffffffffffffffffffffffffffffffff\n      and\n        /* \"contracts/authentication.sol\":1893:1928  return user[msg.sender].userAddress */\n      swap1\n      pop\n        /* \"contracts/authentication.sol\":1824:1936  function getUserAddress() public view returns (address) {... */\n      swap1\n      jump\t// out\n    tag_120:\n      dup3\n      dup1\n      sload\n      tag_161\n      swap1\n      tag_58\n      jump\t// in\n    tag_161:\n      swap1\n      0x00\n      mstore\n      keccak256(0x00, 0x20)\n      swap1\n      0x1f\n      add\n      0x20\n      swap1\n      div\n      dup2\n      add\n      swap3\n      dup3\n      tag_163\n      jumpi\n      0x00\n      dup6\n      sstore\n      jump(tag_162)\n    tag_163:\n      dup3\n      0x1f\n      lt\n      tag_164\n      jumpi\n      dup1\n      mload\n      not(0xff)\n      and\n      dup4\n      dup1\n      add\n      or\n      dup6\n      sstore\n      jump(tag_162)\n    tag_164:\n      dup3\n      dup1\n      add\n      0x01\n      add\n      dup6\n      sstore\n      dup3\n      iszero\n      tag_162\n      jumpi\n      swap2\n      dup3\n      add\n    tag_165:\n      dup3\n      dup2\n      gt\n      iszero\n      tag_166\n      jumpi\n      dup3\n      mload\n      dup3\n      sstore\n      swap2\n      0x20\n      add\n      swap2\n      swap1\n      0x01\n      add\n      swap1\n      jump(tag_165)\n    tag_166:\n    tag_162:\n      pop\n      swap1\n      pop\n      tag_167\n      swap2\n      swap1\n      tag_168\n      jump\t// in\n    tag_167:\n      pop\n      swap1\n      jump\t// out\n    tag_143:\n      dup3\n      dup1\n      sload\n      tag_169\n      swap1\n      tag_58\n      jump\t// in\n    tag_169:\n      swap1\n      0x00\n      mstore\n      keccak256(0x00, 0x20)\n      swap1\n      0x1f\n      add\n      0x20\n      swap1\n      div\n      dup2\n      add\n      swap3\n      dup3\n      tag_171\n      jumpi\n      0x00\n      dup6\n      sstore\n      jump(tag_170)\n    tag_171:\n      dup3\n      0x1f\n      lt\n      tag_172\n      jumpi\n      dup1\n      sload\n      dup6\n      sstore\n      jump(tag_170)\n    tag_172:\n      dup3\n      dup1\n      add\n      0x01\n      add\n      dup6\n      sstore\n      dup3\n      iszero\n      tag_170\n      jumpi\n      0x00\n      mstore\n      keccak256(0x00, 0x20)\n      swap2\n      0x1f\n      add\n      0x20\n      swap1\n      div\n      dup3\n      add\n    tag_173:\n      dup3\n      dup2\n      gt\n      iszero\n      tag_174\n      jumpi\n      dup3\n      sload\n      dup3\n      sstore\n      swap2\n      0x01\n      add\n      swap2\n      swap1\n      0x01\n      add\n      swap1\n      jump(tag_173)\n    tag_174:\n    tag_170:\n      pop\n      swap1\n      pop\n      tag_175\n      swap2\n      swap1\n      tag_168\n      jump\t// in\n    tag_175:\n      pop\n      swap1\n      jump\t// out\n    tag_168:\n    tag_176:\n      dup1\n      dup3\n      gt\n      iszero\n      tag_177\n      jumpi\n      0x00\n      dup2\n      0x00\n      swap1\n      sstore\n      pop\n      0x01\n      add\n      jump(tag_176)\n    tag_177:\n      pop\n      swap1\n      jump\t// out\n        /* \"#utility.yul\":7:82   */\n    tag_178:\n        /* \"#utility.yul\":40:46   */\n      0x00\n        /* \"#utility.yul\":73:75   */\n      0x40\n        /* \"#utility.yul\":67:76   */\n      mload\n        /* \"#utility.yul\":57:76   */\n      swap1\n      pop\n        /* \"#utility.yul\":7:82   */\n      swap1\n      jump\t// out\n        /* \"#utility.yul\":88:205   */\n    tag_179:\n        /* \"#utility.yul\":197:198   */\n      0x00\n        /* \"#utility.yul\":194:195   */\n      dup1\n        /* \"#utility.yul\":187:199   */\n      revert\n        /* \"#utility.yul\":211:328   */\n    tag_180:\n        /* \"#utility.yul\":320:321   */\n      0x00\n        /* \"#utility.yul\":317:318   */\n      dup1\n        /* \"#utility.yul\":310:322   */\n      revert\n        /* \"#utility.yul\":334:411   */\n    tag_181:\n        /* \"#utility.yul\":371:378   */\n      0x00\n        /* \"#utility.yul\":400:405   */\n      dup2\n        /* \"#utility.yul\":389:405   */\n      swap1\n      pop\n        /* \"#utility.yul\":334:411   */\n      swap2\n      swap1\n      pop\n      jump\t// out\n        /* \"#utility.yul\":417:539   */\n    tag_182:\n        /* \"#utility.yul\":490:514   */\n      tag_224\n        /* \"#utility.yul\":508:513   */\n      dup2\n        /* \"#utility.yul\":490:514   */\n      tag_181\n      jump\t// in\n    tag_224:\n        /* \"#utility.yul\":483:488   */\n      dup2\n        /* \"#utility.yul\":480:515   */\n      eq\n        /* \"#utility.yul\":470:533   */\n      tag_225\n      jumpi\n        /* \"#utility.yul\":529:530   */\n      0x00\n        /* \"#utility.yul\":526:527   */\n      dup1\n        /* \"#utility.yul\":519:531   */\n      revert\n        /* \"#utility.yul\":470:533   */\n    tag_225:\n        /* \"#utility.yul\":417:539   */\n      pop\n      jump\t// out\n        /* \"#utility.yul\":545:684   */\n    tag_183:\n        /* \"#utility.yul\":591:596   */\n      0x00\n        /* \"#utility.yul\":629:635   */\n      dup2\n        /* \"#utility.yul\":616:636   */\n      calldataload\n        /* \"#utility.yul\":607:636   */\n      swap1\n      pop\n        /* \"#utility.yul\":645:678   */\n      tag_227\n        /* \"#utility.yul\":672:677   */\n      dup2\n        /* \"#utility.yul\":645:678   */\n      tag_182\n      jump\t// in\n    tag_227:\n        /* \"#utility.yul\":545:684   */\n      swap3\n      swap2\n      pop\n      pop\n      jump\t// out\n        /* \"#utility.yul\":690:1019   */\n    tag_15:\n        /* \"#utility.yul\":749:755   */\n      0x00\n        /* \"#utility.yul\":798:800   */\n      0x20\n        /* \"#utility.yul\":786:795   */\n      dup3\n        /* \"#utility.yul\":777:784   */\n      dup5\n        /* \"#utility.yul\":773:796   */\n      sub\n        /* \"#utility.yul\":769:801   */\n      slt\n        /* \"#utility.yul\":766:885   */\n      iszero\n      tag_229\n      jumpi\n        /* \"#utility.yul\":804:883   */\n      tag_230\n      tag_179\n      jump\t// in\n    tag_230:\n        /* \"#utility.yul\":766:885   */\n    tag_229:\n        /* \"#utility.yul\":924:925   */\n      0x00\n        /* \"#utility.yul\":949:1002   */\n      tag_231\n        /* \"#utility.yul\":994:1001   */\n      dup5\n        /* \"#utility.yul\":985:991   */\n      dup3\n        /* \"#utility.yul\":974:983   */\n      dup6\n        /* \"#utility.yul\":970:992   */\n      add\n        /* \"#utility.yul\":949:1002   */\n      tag_183\n      jump\t// in\n    tag_231:\n        /* \"#utility.yul\":939:1002   */\n      swap2\n      pop\n        /* \"#utility.yul\":895:1012   */\n      pop\n        /* \"#utility.yul\":690:1019   */\n      swap3\n      swap2\n      pop\n      pop\n      jump\t// out\n        /* \"#utility.yul\":1025:1124   */\n    tag_184:\n        /* \"#utility.yul\":1077:1083   */\n      0x00\n        /* \"#utility.yul\":1111:1116   */\n      dup2\n        /* \"#utility.yul\":1105:1117   */\n      mload\n        /* \"#utility.yul\":1095:1117   */\n      swap1\n      pop\n        /* \"#utility.yul\":1025:1124   */\n      swap2\n      swap1\n      pop\n      jump\t// out\n        /* \"#utility.yul\":1130:1299   */\n    tag_185:\n        /* \"#utility.yul\":1214:1225   */\n      0x00\n        /* \"#utility.yul\":1248:1254   */\n      dup3\n        /* \"#utility.yul\":1243:1246   */\n      dup3\n        /* \"#utility.yul\":1236:1255   */\n      mstore\n        /* \"#utility.yul\":1288:1292   */\n      0x20\n        /* \"#utility.yul\":1283:1286   */\n      dup3\n        /* \"#utility.yul\":1279:1293   */\n      add\n        /* \"#utility.yul\":1264:1293   */\n      swap1\n      pop\n        /* \"#utility.yul\":1130:1299   */\n      swap3\n      swap2\n      pop\n      pop\n      jump\t// out\n        /* \"#utility.yul\":1305:1612   */\n    tag_186:\n        /* \"#utility.yul\":1373:1374   */\n      0x00\n        /* \"#utility.yul\":1383:1496   */\n    tag_235:\n        /* \"#utility.yul\":1397:1403   */\n      dup4\n        /* \"#utility.yul\":1394:1395   */\n      dup2\n        /* \"#utility.yul\":1391:1404   */\n      lt\n        /* \"#utility.yul\":1383:1496   */\n      iszero\n      tag_237\n      jumpi\n        /* \"#utility.yul\":1482:1483   */\n      dup1\n        /* \"#utility.yul\":1477:1480   */\n      dup3\n        /* \"#utility.yul\":1473:1484   */\n      add\n        /* \"#utility.yul\":1467:1485   */\n      mload\n        /* \"#utility.yul\":1463:1464   */\n      dup2\n        /* \"#utility.yul\":1458:1461   */\n      dup5\n        /* \"#utility.yul\":1454:1465   */\n      add\n        /* \"#utility.yul\":1447:1486   */\n      mstore\n        /* \"#utility.yul\":1419:1421   */\n      0x20\n        /* \"#utility.yul\":1416:1417   */\n      dup2\n        /* \"#utility.yul\":1412:1422   */\n      add\n        /* \"#utility.yul\":1407:1422   */\n      swap1\n      pop\n        /* \"#utility.yul\":1383:1496   */\n      jump(tag_235)\n    tag_237:\n        /* \"#utility.yul\":1514:1520   */\n      dup4\n        /* \"#utility.yul\":1511:1512   */\n      dup2\n        /* \"#utility.yul\":1508:1521   */\n      gt\n        /* \"#utility.yul\":1505:1606   */\n      iszero\n      tag_238\n      jumpi\n        /* \"#utility.yul\":1594:1595   */\n      0x00\n        /* \"#utility.yul\":1585:1591   */\n      dup5\n        /* \"#utility.yul\":1580:1583   */\n      dup5\n        /* \"#utility.yul\":1576:1592   */\n      add\n        /* \"#utility.yul\":1569:1596   */\n      mstore\n        /* \"#utility.yul\":1505:1606   */\n    tag_238:\n        /* \"#utility.yul\":1354:1612   */\n      pop\n        /* \"#utility.yul\":1305:1612   */\n      pop\n      pop\n      pop\n      jump\t// out\n        /* \"#utility.yul\":1618:1720   */\n    tag_187:\n        /* \"#utility.yul\":1659:1665   */\n      0x00\n        /* \"#utility.yul\":1710:1712   */\n      0x1f\n        /* \"#utility.yul\":1706:1713   */\n      not\n        /* \"#utility.yul\":1701:1703   */\n      0x1f\n        /* \"#utility.yul\":1694:1699   */\n      dup4\n        /* \"#utility.yul\":1690:1704   */\n      add\n        /* \"#utility.yul\":1686:1714   */\n      and\n        /* \"#utility.yul\":1676:1714   */\n      swap1\n      pop\n        /* \"#utility.yul\":1618:1720   */\n      swap2\n      swap1\n      pop\n      jump\t// out\n        /* \"#utility.yul\":1726:2090   */\n    tag_188:\n        /* \"#utility.yul\":1814:1817   */\n      0x00\n        /* \"#utility.yul\":1842:1881   */\n      tag_241\n        /* \"#utility.yul\":1875:1880   */\n      dup3\n        /* \"#utility.yul\":1842:1881   */\n      tag_184\n      jump\t// in\n    tag_241:\n        /* \"#utility.yul\":1897:1968   */\n      tag_242\n        /* \"#utility.yul\":1961:1967   */\n      dup2\n        /* \"#utility.yul\":1956:1959   */\n      dup6\n        /* \"#utility.yul\":1897:1968   */\n      tag_185\n      jump\t// in\n    tag_242:\n        /* \"#utility.yul\":1890:1968   */\n      swap4\n      pop\n        /* \"#utility.yul\":1977:2029   */\n      tag_243\n        /* \"#utility.yul\":2022:2028   */\n      dup2\n        /* \"#utility.yul\":2017:2020   */\n      dup6\n        /* \"#utility.yul\":2010:2014   */\n      0x20\n        /* \"#utility.yul\":2003:2008   */\n      dup7\n        /* \"#utility.yul\":1999:2015   */\n      add\n        /* \"#utility.yul\":1977:2029   */\n      tag_186\n      jump\t// in\n    tag_243:\n        /* \"#utility.yul\":2054:2083   */\n      tag_244\n        /* \"#utility.yul\":2076:2082   */\n      dup2\n        /* \"#utility.yul\":2054:2083   */\n      tag_187\n      jump\t// in\n    tag_244:\n        /* \"#utility.yul\":2049:2052   */\n      dup5\n        /* \"#utility.yul\":2045:2084   */\n      add\n        /* \"#utility.yul\":2038:2084   */\n      swap2\n      pop\n        /* \"#utility.yul\":1818:2090   */\n      pop\n        /* \"#utility.yul\":1726:2090   */\n      swap3\n      swap2\n      pop\n      pop\n      jump\t// out\n        /* \"#utility.yul\":2096:2222   */\n    tag_189:\n        /* \"#utility.yul\":2133:2140   */\n      0x00\n        /* \"#utility.yul\":2173:2215   */\n      0xffffffffffffffffffffffffffffffffffffffff\n        /* \"#utility.yul\":2166:2171   */\n      dup3\n        /* \"#utility.yul\":2162:2216   */\n      and\n        /* \"#utility.yul\":2151:2216   */\n      swap1\n      pop\n        /* \"#utility.yul\":2096:2222   */\n      swap2\n      swap1\n      pop\n      jump\t// out\n        /* \"#utility.yul\":2228:2324   */\n    tag_190:\n        /* \"#utility.yul\":2265:2272   */\n      0x00\n        /* \"#utility.yul\":2294:2318   */\n      tag_247\n        /* \"#utility.yul\":2312:2317   */\n      dup3\n        /* \"#utility.yul\":2294:2318   */\n      tag_189\n      jump\t// in\n    tag_247:\n        /* \"#utility.yul\":2283:2318   */\n      swap1\n      pop\n        /* \"#utility.yul\":2228:2324   */\n      swap2\n      swap1\n      pop\n      jump\t// out\n        /* \"#utility.yul\":2330:2448   */\n    tag_191:\n        /* \"#utility.yul\":2417:2441   */\n      tag_249\n        /* \"#utility.yul\":2435:2440   */\n      dup2\n        /* \"#utility.yul\":2417:2441   */\n      tag_190\n      jump\t// in\n    tag_249:\n        /* \"#utility.yul\":2412:2415   */\n      dup3\n        /* \"#utility.yul\":2405:2442   */\n      mstore\n        /* \"#utility.yul\":2330:2448   */\n      pop\n      pop\n      jump\t// out\n        /* \"#utility.yul\":2454:3482   */\n    tag_18:\n        /* \"#utility.yul\":2739:2743   */\n      0x00\n        /* \"#utility.yul\":2777:2780   */\n      0xa0\n        /* \"#utility.yul\":2766:2775   */\n      dup3\n        /* \"#utility.yul\":2762:2781   */\n      add\n        /* \"#utility.yul\":2754:2781   */\n      swap1\n      pop\n        /* \"#utility.yul\":2827:2836   */\n      dup2\n        /* \"#utility.yul\":2821:2825   */\n      dup2\n        /* \"#utility.yul\":2817:2837   */\n      sub\n        /* \"#utility.yul\":2813:2814   */\n      0x00\n        /* \"#utility.yul\":2802:2811   */\n      dup4\n        /* \"#utility.yul\":2798:2815   */\n      add\n        /* \"#utility.yul\":2791:2838   */\n      mstore\n        /* \"#utility.yul\":2855:2933   */\n      tag_251\n        /* \"#utility.yul\":2928:2932   */\n      dup2\n        /* \"#utility.yul\":2919:2925   */\n      dup9\n        /* \"#utility.yul\":2855:2933   */\n      tag_188\n      jump\t// in\n    tag_251:\n        /* \"#utility.yul\":2847:2933   */\n      swap1\n      pop\n        /* \"#utility.yul\":2980:2989   */\n      dup2\n        /* \"#utility.yul\":2974:2978   */\n      dup2\n        /* \"#utility.yul\":2970:2990   */\n      sub\n        /* \"#utility.yul\":2965:2967   */\n      0x20\n        /* \"#utility.yul\":2954:2963   */\n      dup4\n        /* \"#utility.yul\":2950:2968   */\n      add\n        /* \"#utility.yul\":2943:2991   */\n      mstore\n        /* \"#utility.yul\":3008:3086   */\n      tag_252\n        /* \"#utility.yul\":3081:3085   */\n      dup2\n        /* \"#utility.yul\":3072:3078   */\n      dup8\n        /* \"#utility.yul\":3008:3086   */\n      tag_188\n      jump\t// in\n    tag_252:\n        /* \"#utility.yul\":3000:3086   */\n      swap1\n      pop\n        /* \"#utility.yul\":3133:3142   */\n      dup2\n        /* \"#utility.yul\":3127:3131   */\n      dup2\n        /* \"#utility.yul\":3123:3143   */\n      sub\n        /* \"#utility.yul\":3118:3120   */\n      0x40\n        /* \"#utility.yul\":3107:3116   */\n      dup4\n        /* \"#utility.yul\":3103:3121   */\n      add\n        /* \"#utility.yul\":3096:3144   */\n      mstore\n        /* \"#utility.yul\":3161:3239   */\n      tag_253\n        /* \"#utility.yul\":3234:3238   */\n      dup2\n        /* \"#utility.yul\":3225:3231   */\n      dup7\n        /* \"#utility.yul\":3161:3239   */\n      tag_188\n      jump\t// in\n    tag_253:\n        /* \"#utility.yul\":3153:3239   */\n      swap1\n      pop\n        /* \"#utility.yul\":3286:3295   */\n      dup2\n        /* \"#utility.yul\":3280:3284   */\n      dup2\n        /* \"#utility.yul\":3276:3296   */\n      sub\n        /* \"#utility.yul\":3271:3273   */\n      0x60\n        /* \"#utility.yul\":3260:3269   */\n      dup4\n        /* \"#utility.yul\":3256:3274   */\n      add\n        /* \"#utility.yul\":3249:3297   */\n      mstore\n        /* \"#utility.yul\":3314:3392   */\n      tag_254\n        /* \"#utility.yul\":3387:3391   */\n      dup2\n        /* \"#utility.yul\":3378:3384   */\n      dup6\n        /* \"#utility.yul\":3314:3392   */\n      tag_188\n      jump\t// in\n    tag_254:\n        /* \"#utility.yul\":3306:3392   */\n      swap1\n      pop\n        /* \"#utility.yul\":3402:3475   */\n      tag_255\n        /* \"#utility.yul\":3470:3473   */\n      0x80\n        /* \"#utility.yul\":3459:3468   */\n      dup4\n        /* \"#utility.yul\":3455:3474   */\n      add\n        /* \"#utility.yul\":3446:3452   */\n      dup5\n        /* \"#utility.yul\":3402:3475   */\n      tag_191\n      jump\t// in\n    tag_255:\n        /* \"#utility.yul\":2454:3482   */\n      swap7\n      swap6\n      pop\n      pop\n      pop\n      pop\n      pop\n      pop\n      jump\t// out\n        /* \"#utility.yul\":3488:3606   */\n    tag_192:\n        /* \"#utility.yul\":3575:3599   */\n      tag_257\n        /* \"#utility.yul\":3593:3598   */\n      dup2\n        /* \"#utility.yul\":3575:3599   */\n      tag_181\n      jump\t// in\n    tag_257:\n        /* \"#utility.yul\":3570:3573   */\n      dup3\n        /* \"#utility.yul\":3563:3600   */\n      mstore\n        /* \"#utility.yul\":3488:3606   */\n      pop\n      pop\n      jump\t// out\n        /* \"#utility.yul\":3612:3834   */\n    tag_22:\n        /* \"#utility.yul\":3705:3709   */\n      0x00\n        /* \"#utility.yul\":3743:3745   */\n      0x20\n        /* \"#utility.yul\":3732:3741   */\n      dup3\n        /* \"#utility.yul\":3728:3746   */\n      add\n        /* \"#utility.yul\":3720:3746   */\n      swap1\n      pop\n        /* \"#utility.yul\":3756:3827   */\n      tag_259\n        /* \"#utility.yul\":3824:3825   */\n      0x00\n        /* \"#utility.yul\":3813:3822   */\n      dup4\n        /* \"#utility.yul\":3809:3826   */\n      add\n        /* \"#utility.yul\":3800:3806   */\n      dup5\n        /* \"#utility.yul\":3756:3827   */\n      tag_192\n      jump\t// in\n    tag_259:\n        /* \"#utility.yul\":3612:3834   */\n      swap3\n      swap2\n      pop\n      pop\n      jump\t// out\n        /* \"#utility.yul\":3840:3957   */\n    tag_193:\n        /* \"#utility.yul\":3949:3950   */\n      0x00\n        /* \"#utility.yul\":3946:3947   */\n      dup1\n        /* \"#utility.yul\":3939:3951   */\n      revert\n        /* \"#utility.yul\":3963:4080   */\n    tag_194:\n        /* \"#utility.yul\":4072:4073   */\n      0x00\n        /* \"#utility.yul\":4069:4070   */\n      dup1\n        /* \"#utility.yul\":4062:4074   */\n      revert\n        /* \"#utility.yul\":4086:4266   */\n    tag_195:\n        /* \"#utility.yul\":4134:4211   */\n      0x4e487b7100000000000000000000000000000000000000000000000000000000\n        /* \"#utility.yul\":4131:4132   */\n      0x00\n        /* \"#utility.yul\":4124:4212   */\n      mstore\n        /* \"#utility.yul\":4231:4235   */\n      0x41\n        /* \"#utility.yul\":4228:4229   */\n      0x04\n        /* \"#utility.yul\":4221:4236   */\n      mstore\n        /* \"#utility.yul\":4255:4259   */\n      0x24\n        /* \"#utility.yul\":4252:4253   */\n      0x00\n        /* \"#utility.yul\":4245:4260   */\n      revert\n        /* \"#utility.yul\":4272:4553   */\n    tag_196:\n        /* \"#utility.yul\":4355:4382   */\n      tag_264\n        /* \"#utility.yul\":4377:4381   */\n      dup3\n        /* \"#utility.yul\":4355:4382   */\n      tag_187\n      jump\t// in\n    tag_264:\n        /* \"#utility.yul\":4347:4353   */\n      dup2\n        /* \"#utility.yul\":4343:4383   */\n      add\n        /* \"#utility.yul\":4485:4491   */\n      dup2\n        /* \"#utility.yul\":4473:4483   */\n      dup2\n        /* \"#utility.yul\":4470:4492   */\n      lt\n        /* \"#utility.yul\":4449:4467   */\n      0xffffffffffffffff\n        /* \"#utility.yul\":4437:4447   */\n      dup3\n        /* \"#utility.yul\":4434:4468   */\n      gt\n        /* \"#utility.yul\":4431:4493   */\n      or\n        /* \"#utility.yul\":4428:4516   */\n      iszero\n      tag_265\n      jumpi\n        /* \"#utility.yul\":4496:4514   */\n      tag_266\n      tag_195\n      jump\t// in\n    tag_266:\n        /* \"#utility.yul\":4428:4516   */\n    tag_265:\n        /* \"#utility.yul\":4536:4546   */\n      dup1\n        /* \"#utility.yul\":4532:4534   */\n      0x40\n        /* \"#utility.yul\":4525:4547   */\n      mstore\n        /* \"#utility.yul\":4315:4553   */\n      pop\n        /* \"#utility.yul\":4272:4553   */\n      pop\n      pop\n      jump\t// out\n        /* \"#utility.yul\":4559:4688   */\n    tag_197:\n        /* \"#utility.yul\":4593:4599   */\n      0x00\n        /* \"#utility.yul\":4620:4640   */\n      tag_268\n      tag_178\n      jump\t// in\n    tag_268:\n        /* \"#utility.yul\":4610:4640   */\n      swap1\n      pop\n        /* \"#utility.yul\":4649:4682   */\n      tag_269\n        /* \"#utility.yul\":4677:4681   */\n      dup3\n        /* \"#utility.yul\":4669:4675   */\n      dup3\n        /* \"#utility.yul\":4649:4682   */\n      tag_196\n      jump\t// in\n    tag_269:\n        /* \"#utility.yul\":4559:4688   */\n      swap2\n      swap1\n      pop\n      jump\t// out\n        /* \"#utility.yul\":4694:5002   */\n    tag_198:\n        /* \"#utility.yul\":4756:4760   */\n      0x00\n        /* \"#utility.yul\":4846:4864   */\n      0xffffffffffffffff\n        /* \"#utility.yul\":4838:4844   */\n      dup3\n        /* \"#utility.yul\":4835:4865   */\n      gt\n        /* \"#utility.yul\":4832:4888   */\n      iszero\n      tag_271\n      jumpi\n        /* \"#utility.yul\":4868:4886   */\n      tag_272\n      tag_195\n      jump\t// in\n    tag_272:\n        /* \"#utility.yul\":4832:4888   */\n    tag_271:\n        /* \"#utility.yul\":4906:4935   */\n      tag_273\n        /* \"#utility.yul\":4928:4934   */\n      dup3\n        /* \"#utility.yul\":4906:4935   */\n      tag_187\n      jump\t// in\n    tag_273:\n        /* \"#utility.yul\":4898:4935   */\n      swap1\n      pop\n        /* \"#utility.yul\":4990:4994   */\n      0x20\n        /* \"#utility.yul\":4984:4988   */\n      dup2\n        /* \"#utility.yul\":4980:4995   */\n      add\n        /* \"#utility.yul\":4972:4995   */\n      swap1\n      pop\n        /* \"#utility.yul\":4694:5002   */\n      swap2\n      swap1\n      pop\n      jump\t// out\n        /* \"#utility.yul\":5008:5162   */\n    tag_199:\n        /* \"#utility.yul\":5092:5098   */\n      dup3\n        /* \"#utility.yul\":5087:5090   */\n      dup2\n        /* \"#utility.yul\":5082:5085   */\n      dup4\n        /* \"#utility.yul\":5069:5099   */\n      calldatacopy\n        /* \"#utility.yul\":5154:5155   */\n      0x00\n        /* \"#utility.yul\":5145:5151   */\n      dup4\n        /* \"#utility.yul\":5140:5143   */\n      dup4\n        /* \"#utility.yul\":5136:5152   */\n      add\n        /* \"#utility.yul\":5129:5156   */\n      mstore\n        /* \"#utility.yul\":5008:5162   */\n      pop\n      pop\n      pop\n      jump\t// out\n        /* \"#utility.yul\":5168:5580   */\n    tag_200:\n        /* \"#utility.yul\":5246:5251   */\n      0x00\n        /* \"#utility.yul\":5271:5337   */\n      tag_276\n        /* \"#utility.yul\":5287:5336   */\n      tag_277\n        /* \"#utility.yul\":5329:5335   */\n      dup5\n        /* \"#utility.yul\":5287:5336   */\n      tag_198\n      jump\t// in\n    tag_277:\n        /* \"#utility.yul\":5271:5337   */\n      tag_197\n      jump\t// in\n    tag_276:\n        /* \"#utility.yul\":5262:5337   */\n      swap1\n      pop\n        /* \"#utility.yul\":5360:5366   */\n      dup3\n        /* \"#utility.yul\":5353:5358   */\n      dup2\n        /* \"#utility.yul\":5346:5367   */\n      mstore\n        /* \"#utility.yul\":5398:5402   */\n      0x20\n        /* \"#utility.yul\":5391:5396   */\n      dup2\n        /* \"#utility.yul\":5387:5403   */\n      add\n        /* \"#utility.yul\":5436:5439   */\n      dup5\n        /* \"#utility.yul\":5427:5433   */\n      dup5\n        /* \"#utility.yul\":5422:5425   */\n      dup5\n        /* \"#utility.yul\":5418:5434   */\n      add\n        /* \"#utility.yul\":5415:5440   */\n      gt\n        /* \"#utility.yul\":5412:5524   */\n      iszero\n      tag_278\n      jumpi\n        /* \"#utility.yul\":5443:5522   */\n      tag_279\n      tag_194\n      jump\t// in\n    tag_279:\n        /* \"#utility.yul\":5412:5524   */\n    tag_278:\n        /* \"#utility.yul\":5533:5574   */\n      tag_280\n        /* \"#utility.yul\":5567:5573   */\n      dup5\n        /* \"#utility.yul\":5562:5565   */\n      dup3\n        /* \"#utility.yul\":5557:5560   */\n      dup6\n        /* \"#utility.yul\":5533:5574   */\n      tag_199\n      jump\t// in\n    tag_280:\n        /* \"#utility.yul\":5252:5580   */\n      pop\n        /* \"#utility.yul\":5168:5580   */\n      swap4\n      swap3\n      pop\n      pop\n      pop\n      jump\t// out\n        /* \"#utility.yul\":5600:5940   */\n    tag_201:\n        /* \"#utility.yul\":5656:5661   */\n      0x00\n        /* \"#utility.yul\":5705:5708   */\n      dup3\n        /* \"#utility.yul\":5698:5702   */\n      0x1f\n        /* \"#utility.yul\":5690:5696   */\n      dup4\n        /* \"#utility.yul\":5686:5703   */\n      add\n        /* \"#utility.yul\":5682:5709   */\n      slt\n        /* \"#utility.yul\":5672:5794   */\n      tag_282\n      jumpi\n        /* \"#utility.yul\":5713:5792   */\n      tag_283\n      tag_193\n      jump\t// in\n    tag_283:\n        /* \"#utility.yul\":5672:5794   */\n    tag_282:\n        /* \"#utility.yul\":5830:5836   */\n      dup2\n        /* \"#utility.yul\":5817:5837   */\n      calldataload\n        /* \"#utility.yul\":5855:5934   */\n      tag_284\n        /* \"#utility.yul\":5930:5933   */\n      dup5\n        /* \"#utility.yul\":5922:5928   */\n      dup3\n        /* \"#utility.yul\":5915:5919   */\n      0x20\n        /* \"#utility.yul\":5907:5913   */\n      dup7\n        /* \"#utility.yul\":5903:5920   */\n      add\n        /* \"#utility.yul\":5855:5934   */\n      tag_200\n      jump\t// in\n    tag_284:\n        /* \"#utility.yul\":5846:5934   */\n      swap2\n      pop\n        /* \"#utility.yul\":5662:5940   */\n      pop\n        /* \"#utility.yul\":5600:5940   */\n      swap3\n      swap2\n      pop\n      pop\n      jump\t// out\n        /* \"#utility.yul\":5946:6455   */\n    tag_25:\n        /* \"#utility.yul\":6015:6021   */\n      0x00\n        /* \"#utility.yul\":6064:6066   */\n      0x20\n        /* \"#utility.yul\":6052:6061   */\n      dup3\n        /* \"#utility.yul\":6043:6050   */\n      dup5\n        /* \"#utility.yul\":6039:6062   */\n      sub\n        /* \"#utility.yul\":6035:6067   */\n      slt\n        /* \"#utility.yul\":6032:6151   */\n      iszero\n      tag_286\n      jumpi\n        /* \"#utility.yul\":6070:6149   */\n      tag_287\n      tag_179\n      jump\t// in\n    tag_287:\n        /* \"#utility.yul\":6032:6151   */\n    tag_286:\n        /* \"#utility.yul\":6218:6219   */\n      0x00\n        /* \"#utility.yul\":6207:6216   */\n      dup3\n        /* \"#utility.yul\":6203:6220   */\n      add\n        /* \"#utility.yul\":6190:6221   */\n      calldataload\n        /* \"#utility.yul\":6248:6266   */\n      0xffffffffffffffff\n        /* \"#utility.yul\":6240:6246   */\n      dup2\n        /* \"#utility.yul\":6237:6267   */\n      gt\n        /* \"#utility.yul\":6234:6351   */\n      iszero\n      tag_288\n      jumpi\n        /* \"#utility.yul\":6270:6349   */\n      tag_289\n      tag_180\n      jump\t// in\n    tag_289:\n        /* \"#utility.yul\":6234:6351   */\n    tag_288:\n        /* \"#utility.yul\":6375:6438   */\n      tag_290\n        /* \"#utility.yul\":6430:6437   */\n      dup5\n        /* \"#utility.yul\":6421:6427   */\n      dup3\n        /* \"#utility.yul\":6410:6419   */\n      dup6\n        /* \"#utility.yul\":6406:6428   */\n      add\n        /* \"#utility.yul\":6375:6438   */\n      tag_201\n      jump\t// in\n    tag_290:\n        /* \"#utility.yul\":6365:6438   */\n      swap2\n      pop\n        /* \"#utility.yul\":6161:6448   */\n      pop\n        /* \"#utility.yul\":5946:6455   */\n      swap3\n      swap2\n      pop\n      pop\n      jump\t// out\n        /* \"#utility.yul\":6461:6598   */\n    tag_202:\n        /* \"#utility.yul\":6551:6557   */\n      0x00\n        /* \"#utility.yul\":6585:6590   */\n      dup2\n        /* \"#utility.yul\":6579:6591   */\n      mload\n        /* \"#utility.yul\":6569:6591   */\n      swap1\n      pop\n        /* \"#utility.yul\":6461:6598   */\n      swap2\n      swap1\n      pop\n      jump\t// out\n        /* \"#utility.yul\":6604:6811   */\n    tag_203:\n        /* \"#utility.yul\":6726:6737   */\n      0x00\n        /* \"#utility.yul\":6760:6766   */\n      dup3\n        /* \"#utility.yul\":6755:6758   */\n      dup3\n        /* \"#utility.yul\":6748:6767   */\n      mstore\n        /* \"#utility.yul\":6800:6804   */\n      0x20\n        /* \"#utility.yul\":6795:6798   */\n      dup3\n        /* \"#utility.yul\":6791:6805   */\n      add\n        /* \"#utility.yul\":6776:6805   */\n      swap1\n      pop\n        /* \"#utility.yul\":6604:6811   */\n      swap3\n      swap2\n      pop\n      pop\n      jump\t// out\n        /* \"#utility.yul\":6817:6972   */\n    tag_204:\n        /* \"#utility.yul\":6907:6911   */\n      0x00\n        /* \"#utility.yul\":6930:6933   */\n      dup2\n        /* \"#utility.yul\":6922:6933   */\n      swap1\n      pop\n        /* \"#utility.yul\":6960:6964   */\n      0x20\n        /* \"#utility.yul\":6955:6958   */\n      dup3\n        /* \"#utility.yul\":6951:6965   */\n      add\n        /* \"#utility.yul\":6943:6965   */\n      swap1\n      pop\n        /* \"#utility.yul\":6817:6972   */\n      swap2\n      swap1\n      pop\n      jump\t// out\n        /* \"#utility.yul\":6978:7137   */\n    tag_205:\n        /* \"#utility.yul\":7052:7063   */\n      0x00\n        /* \"#utility.yul\":7086:7092   */\n      dup3\n        /* \"#utility.yul\":7081:7084   */\n      dup3\n        /* \"#utility.yul\":7074:7093   */\n      mstore\n        /* \"#utility.yul\":7126:7130   */\n      0x20\n        /* \"#utility.yul\":7121:7124   */\n      dup3\n        /* \"#utility.yul\":7117:7131   */\n      add\n        /* \"#utility.yul\":7102:7131   */\n      swap1\n      pop\n        /* \"#utility.yul\":6978:7137   */\n      swap3\n      swap2\n      pop\n      pop\n      jump\t// out\n        /* \"#utility.yul\":7143:7487   */\n    tag_206:\n        /* \"#utility.yul\":7221:7224   */\n      0x00\n        /* \"#utility.yul\":7249:7288   */\n      tag_296\n        /* \"#utility.yul\":7282:7287   */\n      dup3\n        /* \"#utility.yul\":7249:7288   */\n      tag_184\n      jump\t// in\n    tag_296:\n        /* \"#utility.yul\":7304:7365   */\n      tag_297\n        /* \"#utility.yul\":7358:7364   */\n      dup2\n        /* \"#utility.yul\":7353:7356   */\n      dup6\n        /* \"#utility.yul\":7304:7365   */\n      tag_205\n      jump\t// in\n    tag_297:\n        /* \"#utility.yul\":7297:7365   */\n      swap4\n      pop\n        /* \"#utility.yul\":7374:7426   */\n      tag_298\n        /* \"#utility.yul\":7419:7425   */\n      dup2\n        /* \"#utility.yul\":7414:7417   */\n      dup6\n        /* \"#utility.yul\":7407:7411   */\n      0x20\n        /* \"#utility.yul\":7400:7405   */\n      dup7\n        /* \"#utility.yul\":7396:7412   */\n      add\n        /* \"#utility.yul\":7374:7426   */\n      tag_186\n      jump\t// in\n    tag_298:\n        /* \"#utility.yul\":7451:7480   */\n      tag_299\n        /* \"#utility.yul\":7473:7479   */\n      dup2\n        /* \"#utility.yul\":7451:7480   */\n      tag_187\n      jump\t// in\n    tag_299:\n        /* \"#utility.yul\":7446:7449   */\n      dup5\n        /* \"#utility.yul\":7442:7481   */\n      add\n        /* \"#utility.yul\":7435:7481   */\n      swap2\n      pop\n        /* \"#utility.yul\":7225:7487   */\n      pop\n        /* \"#utility.yul\":7143:7487   */\n      swap3\n      swap2\n      pop\n      pop\n      jump\t// out\n        /* \"#utility.yul\":7493:7601   */\n    tag_207:\n        /* \"#utility.yul\":7570:7594   */\n      tag_301\n        /* \"#utility.yul\":7588:7593   */\n      dup2\n        /* \"#utility.yul\":7570:7594   */\n      tag_190\n      jump\t// in\n    tag_301:\n        /* \"#utility.yul\":7565:7568   */\n      dup3\n        /* \"#utility.yul\":7558:7595   */\n      mstore\n        /* \"#utility.yul\":7493:7601   */\n      pop\n      pop\n      jump\t// out\n        /* \"#utility.yul\":7677:9031   */\n    tag_208:\n        /* \"#utility.yul\":7782:7785   */\n      0x00\n        /* \"#utility.yul\":7818:7822   */\n      0xa0\n        /* \"#utility.yul\":7813:7816   */\n      dup4\n        /* \"#utility.yul\":7809:7823   */\n      add\n        /* \"#utility.yul\":7912:7916   */\n      0x00\n        /* \"#utility.yul\":7905:7910   */\n      dup4\n        /* \"#utility.yul\":7901:7917   */\n      add\n        /* \"#utility.yul\":7895:7918   */\n      mload\n        /* \"#utility.yul\":7965:7968   */\n      dup5\n        /* \"#utility.yul\":7959:7963   */\n      dup3\n        /* \"#utility.yul\":7955:7969   */\n      sub\n        /* \"#utility.yul\":7948:7952   */\n      0x00\n        /* \"#utility.yul\":7943:7946   */\n      dup7\n        /* \"#utility.yul\":7939:7953   */\n      add\n        /* \"#utility.yul\":7932:7970   */\n      mstore\n        /* \"#utility.yul\":7991:8064   */\n      tag_303\n        /* \"#utility.yul\":8059:8063   */\n      dup3\n        /* \"#utility.yul\":8045:8057   */\n      dup3\n        /* \"#utility.yul\":7991:8064   */\n      tag_206\n      jump\t// in\n    tag_303:\n        /* \"#utility.yul\":7983:8064   */\n      swap2\n      pop\n        /* \"#utility.yul\":7833:8075   */\n      pop\n        /* \"#utility.yul\":8164:8168   */\n      0x20\n        /* \"#utility.yul\":8157:8162   */\n      dup4\n        /* \"#utility.yul\":8153:8169   */\n      add\n        /* \"#utility.yul\":8147:8170   */\n      mload\n        /* \"#utility.yul\":8217:8220   */\n      dup5\n        /* \"#utility.yul\":8211:8215   */\n      dup3\n        /* \"#utility.yul\":8207:8221   */\n      sub\n        /* \"#utility.yul\":8200:8204   */\n      0x20\n        /* \"#utility.yul\":8195:8198   */\n      dup7\n        /* \"#utility.yul\":8191:8205   */\n      add\n        /* \"#utility.yul\":8184:8222   */\n      mstore\n        /* \"#utility.yul\":8243:8316   */\n      tag_304\n        /* \"#utility.yul\":8311:8315   */\n      dup3\n        /* \"#utility.yul\":8297:8309   */\n      dup3\n        /* \"#utility.yul\":8243:8316   */\n      tag_206\n      jump\t// in\n    tag_304:\n        /* \"#utility.yul\":8235:8316   */\n      swap2\n      pop\n        /* \"#utility.yul\":8085:8327   */\n      pop\n        /* \"#utility.yul\":8413:8417   */\n      0x40\n        /* \"#utility.yul\":8406:8411   */\n      dup4\n        /* \"#utility.yul\":8402:8418   */\n      add\n        /* \"#utility.yul\":8396:8419   */\n      mload\n        /* \"#utility.yul\":8466:8469   */\n      dup5\n        /* \"#utility.yul\":8460:8464   */\n      dup3\n        /* \"#utility.yul\":8456:8470   */\n      sub\n        /* \"#utility.yul\":8449:8453   */\n      0x40\n        /* \"#utility.yul\":8444:8447   */\n      dup7\n        /* \"#utility.yul\":8440:8454   */\n      add\n        /* \"#utility.yul\":8433:8471   */\n      mstore\n        /* \"#utility.yul\":8492:8565   */\n      tag_305\n        /* \"#utility.yul\":8560:8564   */\n      dup3\n        /* \"#utility.yul\":8546:8558   */\n      dup3\n        /* \"#utility.yul\":8492:8565   */\n      tag_206\n      jump\t// in\n    tag_305:\n        /* \"#utility.yul\":8484:8565   */\n      swap2\n      pop\n        /* \"#utility.yul\":8337:8576   */\n      pop\n        /* \"#utility.yul\":8660:8664   */\n      0x60\n        /* \"#utility.yul\":8653:8658   */\n      dup4\n        /* \"#utility.yul\":8649:8665   */\n      add\n        /* \"#utility.yul\":8643:8666   */\n      mload\n        /* \"#utility.yul\":8713:8716   */\n      dup5\n        /* \"#utility.yul\":8707:8711   */\n      dup3\n        /* \"#utility.yul\":8703:8717   */\n      sub\n        /* \"#utility.yul\":8696:8700   */\n      0x60\n        /* \"#utility.yul\":8691:8694   */\n      dup7\n        /* \"#utility.yul\":8687:8701   */\n      add\n        /* \"#utility.yul\":8680:8718   */\n      mstore\n        /* \"#utility.yul\":8739:8812   */\n      tag_306\n        /* \"#utility.yul\":8807:8811   */\n      dup3\n        /* \"#utility.yul\":8793:8805   */\n      dup3\n        /* \"#utility.yul\":8739:8812   */\n      tag_206\n      jump\t// in\n    tag_306:\n        /* \"#utility.yul\":8731:8812   */\n      swap2\n      pop\n        /* \"#utility.yul\":8586:8823   */\n      pop\n        /* \"#utility.yul\":8912:8916   */\n      0x80\n        /* \"#utility.yul\":8905:8910   */\n      dup4\n        /* \"#utility.yul\":8901:8917   */\n      add\n        /* \"#utility.yul\":8895:8918   */\n      mload\n        /* \"#utility.yul\":8931:8994   */\n      tag_307\n        /* \"#utility.yul\":8988:8992   */\n      0x80\n        /* \"#utility.yul\":8983:8986   */\n      dup7\n        /* \"#utility.yul\":8979:8993   */\n      add\n        /* \"#utility.yul\":8965:8977   */\n      dup3\n        /* \"#utility.yul\":8931:8994   */\n      tag_207\n      jump\t// in\n    tag_307:\n        /* \"#utility.yul\":8833:9004   */\n      pop\n        /* \"#utility.yul\":9021:9025   */\n      dup1\n        /* \"#utility.yul\":9014:9025   */\n      swap2\n      pop\n        /* \"#utility.yul\":7787:9031   */\n      pop\n        /* \"#utility.yul\":7677:9031   */\n      swap3\n      swap2\n      pop\n      pop\n      jump\t// out\n        /* \"#utility.yul\":9037:9285   */\n    tag_209:\n        /* \"#utility.yul\":9152:9162   */\n      0x00\n        /* \"#utility.yul\":9187:9279   */\n      tag_309\n        /* \"#utility.yul\":9275:9278   */\n      dup4\n        /* \"#utility.yul\":9267:9273   */\n      dup4\n        /* \"#utility.yul\":9187:9279   */\n      tag_208\n      jump\t// in\n    tag_309:\n        /* \"#utility.yul\":9173:9279   */\n      swap1\n      pop\n        /* \"#utility.yul\":9037:9285   */\n      swap3\n      swap2\n      pop\n      pop\n      jump\t// out\n        /* \"#utility.yul\":9291:9427   */\n    tag_210:\n        /* \"#utility.yul\":9384:9388   */\n      0x00\n        /* \"#utility.yul\":9416:9420   */\n      0x20\n        /* \"#utility.yul\":9411:9414   */\n      dup3\n        /* \"#utility.yul\":9407:9421   */\n      add\n        /* \"#utility.yul\":9399:9421   */\n      swap1\n      pop\n        /* \"#utility.yul\":9291:9427   */\n      swap2\n      swap1\n      pop\n      jump\t// out\n        /* \"#utility.yul\":9507:10602   */\n    tag_211:\n        /* \"#utility.yul\":9672:9675   */\n      0x00\n        /* \"#utility.yul\":9701:9778   */\n      tag_312\n        /* \"#utility.yul\":9772:9777   */\n      dup3\n        /* \"#utility.yul\":9701:9778   */\n      tag_202\n      jump\t// in\n    tag_312:\n        /* \"#utility.yul\":9794:9903   */\n      tag_313\n        /* \"#utility.yul\":9896:9902   */\n      dup2\n        /* \"#utility.yul\":9891:9894   */\n      dup6\n        /* \"#utility.yul\":9794:9903   */\n      tag_203\n      jump\t// in\n    tag_313:\n        /* \"#utility.yul\":9787:9903   */\n      swap4\n      pop\n        /* \"#utility.yul\":9929:9932   */\n      dup4\n        /* \"#utility.yul\":9974:9978   */\n      0x20\n        /* \"#utility.yul\":9966:9972   */\n      dup3\n        /* \"#utility.yul\":9962:9979   */\n      mul\n        /* \"#utility.yul\":9957:9960   */\n      dup6\n        /* \"#utility.yul\":9953:9980   */\n      add\n        /* \"#utility.yul\":10004:10083   */\n      tag_314\n        /* \"#utility.yul\":10077:10082   */\n      dup6\n        /* \"#utility.yul\":10004:10083   */\n      tag_204\n      jump\t// in\n    tag_314:\n        /* \"#utility.yul\":10106:10113   */\n      dup1\n        /* \"#utility.yul\":10137:10138   */\n      0x00\n        /* \"#utility.yul\":10122:10557   */\n    tag_315:\n        /* \"#utility.yul\":10147:10153   */\n      dup6\n        /* \"#utility.yul\":10144:10145   */\n      dup2\n        /* \"#utility.yul\":10141:10154   */\n      lt\n        /* \"#utility.yul\":10122:10557   */\n      iszero\n      tag_317\n      jumpi\n        /* \"#utility.yul\":10218:10227   */\n      dup5\n        /* \"#utility.yul\":10212:10216   */\n      dup5\n        /* \"#utility.yul\":10208:10228   */\n      sub\n        /* \"#utility.yul\":10203:10206   */\n      dup10\n        /* \"#utility.yul\":10196:10229   */\n      mstore\n        /* \"#utility.yul\":10269:10275   */\n      dup2\n        /* \"#utility.yul\":10263:10276   */\n      mload\n        /* \"#utility.yul\":10297:10407   */\n      tag_318\n        /* \"#utility.yul\":10402:10406   */\n      dup6\n        /* \"#utility.yul\":10387:10400   */\n      dup3\n        /* \"#utility.yul\":10297:10407   */\n      tag_209\n      jump\t// in\n    tag_318:\n        /* \"#utility.yul\":10289:10407   */\n      swap5\n      pop\n        /* \"#utility.yul\":10430:10513   */\n      tag_319\n        /* \"#utility.yul\":10506:10512   */\n      dup4\n        /* \"#utility.yul\":10430:10513   */\n      tag_210\n      jump\t// in\n    tag_319:\n        /* \"#utility.yul\":10420:10513   */\n      swap3\n      pop\n        /* \"#utility.yul\":10542:10546   */\n      0x20\n        /* \"#utility.yul\":10537:10540   */\n      dup11\n        /* \"#utility.yul\":10533:10547   */\n      add\n        /* \"#utility.yul\":10526:10547   */\n      swap10\n      pop\n        /* \"#utility.yul\":10182:10557   */\n      pop\n        /* \"#utility.yul\":10169:10170   */\n      0x01\n        /* \"#utility.yul\":10166:10167   */\n      dup2\n        /* \"#utility.yul\":10162:10171   */\n      add\n        /* \"#utility.yul\":10157:10171   */\n      swap1\n      pop\n        /* \"#utility.yul\":10122:10557   */\n      jump(tag_315)\n    tag_317:\n        /* \"#utility.yul\":10126:10140   */\n      pop\n        /* \"#utility.yul\":10573:10577   */\n      dup3\n        /* \"#utility.yul\":10566:10577   */\n      swap8\n      pop\n        /* \"#utility.yul\":10593:10596   */\n      dup8\n        /* \"#utility.yul\":10586:10596   */\n      swap6\n      pop\n        /* \"#utility.yul\":9677:10602   */\n      pop\n      pop\n      pop\n      pop\n      pop\n        /* \"#utility.yul\":9507:10602   */\n      swap3\n      swap2\n      pop\n      pop\n      jump\t// out\n        /* \"#utility.yul\":10608:11073   */\n    tag_28:\n        /* \"#utility.yul\":10797:10801   */\n      0x00\n        /* \"#utility.yul\":10835:10837   */\n      0x20\n        /* \"#utility.yul\":10824:10833   */\n      dup3\n        /* \"#utility.yul\":10820:10838   */\n      add\n        /* \"#utility.yul\":10812:10838   */\n      swap1\n      pop\n        /* \"#utility.yul\":10884:10893   */\n      dup2\n        /* \"#utility.yul\":10878:10882   */\n      dup2\n        /* \"#utility.yul\":10874:10894   */\n      sub\n        /* \"#utility.yul\":10870:10871   */\n      0x00\n        /* \"#utility.yul\":10859:10868   */\n      dup4\n        /* \"#utility.yul\":10855:10872   */\n      add\n        /* \"#utility.yul\":10848:10895   */\n      mstore\n        /* \"#utility.yul\":10912:11066   */\n      tag_321\n        /* \"#utility.yul\":11061:11065   */\n      dup2\n        /* \"#utility.yul\":11052:11058   */\n      dup5\n        /* \"#utility.yul\":10912:11066   */\n      tag_211\n      jump\t// in\n    tag_321:\n        /* \"#utility.yul\":10904:11066   */\n      swap1\n      pop\n        /* \"#utility.yul\":10608:11073   */\n      swap3\n      swap2\n      pop\n      pop\n      jump\t// out\n        /* \"#utility.yul\":11079:11913   */\n    tag_31:\n        /* \"#utility.yul\":11167:11173   */\n      0x00\n        /* \"#utility.yul\":11175:11181   */\n      dup1\n        /* \"#utility.yul\":11224:11226   */\n      0x40\n        /* \"#utility.yul\":11212:11221   */\n      dup4\n        /* \"#utility.yul\":11203:11210   */\n      dup6\n        /* \"#utility.yul\":11199:11222   */\n      sub\n        /* \"#utility.yul\":11195:11227   */\n      slt\n        /* \"#utility.yul\":11192:11311   */\n      iszero\n      tag_323\n      jumpi\n        /* \"#utility.yul\":11230:11309   */\n      tag_324\n      tag_179\n      jump\t// in\n    tag_324:\n        /* \"#utility.yul\":11192:11311   */\n    tag_323:\n        /* \"#utility.yul\":11378:11379   */\n      0x00\n        /* \"#utility.yul\":11367:11376   */\n      dup4\n        /* \"#utility.yul\":11363:11380   */\n      add\n        /* \"#utility.yul\":11350:11381   */\n      calldataload\n        /* \"#utility.yul\":11408:11426   */\n      0xffffffffffffffff\n        /* \"#utility.yul\":11400:11406   */\n      dup2\n        /* \"#utility.yul\":11397:11427   */\n      gt\n        /* \"#utility.yul\":11394:11511   */\n      iszero\n      tag_325\n      jumpi\n        /* \"#utility.yul\":11430:11509   */\n      tag_326\n      tag_180\n      jump\t// in\n    tag_326:\n        /* \"#utility.yul\":11394:11511   */\n    tag_325:\n        /* \"#utility.yul\":11535:11598   */\n      tag_327\n        /* \"#utility.yul\":11590:11597   */\n      dup6\n        /* \"#utility.yul\":11581:11587   */\n      dup3\n        /* \"#utility.yul\":11570:11579   */\n      dup7\n        /* \"#utility.yul\":11566:11588   */\n      add\n        /* \"#utility.yul\":11535:11598   */\n      tag_201\n      jump\t// in\n    tag_327:\n        /* \"#utility.yul\":11525:11598   */\n      swap3\n      pop\n        /* \"#utility.yul\":11321:11608   */\n      pop\n        /* \"#utility.yul\":11675:11677   */\n      0x20\n        /* \"#utility.yul\":11664:11673   */\n      dup4\n        /* \"#utility.yul\":11660:11678   */\n      add\n        /* \"#utility.yul\":11647:11679   */\n      calldataload\n        /* \"#utility.yul\":11706:11724   */\n      0xffffffffffffffff\n        /* \"#utility.yul\":11698:11704   */\n      dup2\n        /* \"#utility.yul\":11695:11725   */\n      gt\n        /* \"#utility.yul\":11692:11809   */\n      iszero\n      tag_328\n      jumpi\n        /* \"#utility.yul\":11728:11807   */\n      tag_329\n      tag_180\n      jump\t// in\n    tag_329:\n        /* \"#utility.yul\":11692:11809   */\n    tag_328:\n        /* \"#utility.yul\":11833:11896   */\n      tag_330\n        /* \"#utility.yul\":11888:11895   */\n      dup6\n        /* \"#utility.yul\":11879:11885   */\n      dup3\n        /* \"#utility.yul\":11868:11877   */\n      dup7\n        /* \"#utility.yul\":11864:11886   */\n      add\n        /* \"#utility.yul\":11833:11896   */\n      tag_201\n      jump\t// in\n    tag_330:\n        /* \"#utility.yul\":11823:11896   */\n      swap2\n      pop\n        /* \"#utility.yul\":11618:11906   */\n      pop\n        /* \"#utility.yul\":11079:11913   */\n      swap3\n      pop\n      swap3\n      swap1\n      pop\n      jump\t// out\n        /* \"#utility.yul\":11919:12232   */\n    tag_34:\n        /* \"#utility.yul\":12032:12036   */\n      0x00\n        /* \"#utility.yul\":12070:12072   */\n      0x20\n        /* \"#utility.yul\":12059:12068   */\n      dup3\n        /* \"#utility.yul\":12055:12073   */\n      add\n        /* \"#utility.yul\":12047:12073   */\n      swap1\n      pop\n        /* \"#utility.yul\":12119:12128   */\n      dup2\n        /* \"#utility.yul\":12113:12117   */\n      dup2\n        /* \"#utility.yul\":12109:12129   */\n      sub\n        /* \"#utility.yul\":12105:12106   */\n      0x00\n        /* \"#utility.yul\":12094:12103   */\n      dup4\n        /* \"#utility.yul\":12090:12107   */\n      add\n        /* \"#utility.yul\":12083:12130   */\n      mstore\n        /* \"#utility.yul\":12147:12225   */\n      tag_332\n        /* \"#utility.yul\":12220:12224   */\n      dup2\n        /* \"#utility.yul\":12211:12217   */\n      dup5\n        /* \"#utility.yul\":12147:12225   */\n      tag_188\n      jump\t// in\n    tag_332:\n        /* \"#utility.yul\":12139:12225   */\n      swap1\n      pop\n        /* \"#utility.yul\":11919:12232   */\n      swap3\n      swap2\n      pop\n      pop\n      jump\t// out\n        /* \"#utility.yul\":12238:14049   */\n    tag_37:\n        /* \"#utility.yul\":12383:12389   */\n      0x00\n        /* \"#utility.yul\":12391:12397   */\n      dup1\n        /* \"#utility.yul\":12399:12405   */\n      0x00\n        /* \"#utility.yul\":12407:12413   */\n      dup1\n        /* \"#utility.yul\":12415:12421   */\n      0x00\n        /* \"#utility.yul\":12464:12467   */\n      0xa0\n        /* \"#utility.yul\":12452:12461   */\n      dup7\n        /* \"#utility.yul\":12443:12450   */\n      dup9\n        /* \"#utility.yul\":12439:12462   */\n      sub\n        /* \"#utility.yul\":12435:12468   */\n      slt\n        /* \"#utility.yul\":12432:12552   */\n      iszero\n      tag_334\n      jumpi\n        /* \"#utility.yul\":12471:12550   */\n      tag_335\n      tag_179\n      jump\t// in\n    tag_335:\n        /* \"#utility.yul\":12432:12552   */\n    tag_334:\n        /* \"#utility.yul\":12619:12620   */\n      0x00\n        /* \"#utility.yul\":12608:12617   */\n      dup7\n        /* \"#utility.yul\":12604:12621   */\n      add\n        /* \"#utility.yul\":12591:12622   */\n      calldataload\n        /* \"#utility.yul\":12649:12667   */\n      0xffffffffffffffff\n        /* \"#utility.yul\":12641:12647   */\n      dup2\n        /* \"#utility.yul\":12638:12668   */\n      gt\n        /* \"#utility.yul\":12635:12752   */\n      iszero\n      tag_336\n      jumpi\n        /* \"#utility.yul\":12671:12750   */\n      tag_337\n      tag_180\n      jump\t// in\n    tag_337:\n        /* \"#utility.yul\":12635:12752   */\n    tag_336:\n        /* \"#utility.yul\":12776:12839   */\n      tag_338\n        /* \"#utility.yul\":12831:12838   */\n      dup9\n        /* \"#utility.yul\":12822:12828   */\n      dup3\n        /* \"#utility.yul\":12811:12820   */\n      dup10\n        /* \"#utility.yul\":12807:12829   */\n      add\n        /* \"#utility.yul\":12776:12839   */\n      tag_201\n      jump\t// in\n    tag_338:\n        /* \"#utility.yul\":12766:12839   */\n      swap6\n      pop\n        /* \"#utility.yul\":12562:12849   */\n      pop\n        /* \"#utility.yul\":12916:12918   */\n      0x20\n        /* \"#utility.yul\":12905:12914   */\n      dup7\n        /* \"#utility.yul\":12901:12919   */\n      add\n        /* \"#utility.yul\":12888:12920   */\n      calldataload\n        /* \"#utility.yul\":12947:12965   */\n      0xffffffffffffffff\n        /* \"#utility.yul\":12939:12945   */\n      dup2\n        /* \"#utility.yul\":12936:12966   */\n      gt\n        /* \"#utility.yul\":12933:13050   */\n      iszero\n      tag_339\n      jumpi\n        /* \"#utility.yul\":12969:13048   */\n      tag_340\n      tag_180\n      jump\t// in\n    tag_340:\n        /* \"#utility.yul\":12933:13050   */\n    tag_339:\n        /* \"#utility.yul\":13074:13137   */\n      tag_341\n        /* \"#utility.yul\":13129:13136   */\n      dup9\n        /* \"#utility.yul\":13120:13126   */\n      dup3\n        /* \"#utility.yul\":13109:13118   */\n      dup10\n        /* \"#utility.yul\":13105:13127   */\n      add\n        /* \"#utility.yul\":13074:13137   */\n      tag_201\n      jump\t// in\n    tag_341:\n        /* \"#utility.yul\":13064:13137   */\n      swap5\n      pop\n        /* \"#utility.yul\":12859:13147   */\n      pop\n        /* \"#utility.yul\":13214:13216   */\n      0x40\n        /* \"#utility.yul\":13203:13212   */\n      dup7\n        /* \"#utility.yul\":13199:13217   */\n      add\n        /* \"#utility.yul\":13186:13218   */\n      calldataload\n        /* \"#utility.yul\":13245:13263   */\n      0xffffffffffffffff\n        /* \"#utility.yul\":13237:13243   */\n      dup2\n        /* \"#utility.yul\":13234:13264   */\n      gt\n        /* \"#utility.yul\":13231:13348   */\n      iszero\n      tag_342\n      jumpi\n        /* \"#utility.yul\":13267:13346   */\n      tag_343\n      tag_180\n      jump\t// in\n    tag_343:\n        /* \"#utility.yul\":13231:13348   */\n    tag_342:\n        /* \"#utility.yul\":13372:13435   */\n      tag_344\n        /* \"#utility.yul\":13427:13434   */\n      dup9\n        /* \"#utility.yul\":13418:13424   */\n      dup3\n        /* \"#utility.yul\":13407:13416   */\n      dup10\n        /* \"#utility.yul\":13403:13425   */\n      add\n        /* \"#utility.yul\":13372:13435   */\n      tag_201\n      jump\t// in\n    tag_344:\n        /* \"#utility.yul\":13362:13435   */\n      swap4\n      pop\n        /* \"#utility.yul\":13157:13445   */\n      pop\n        /* \"#utility.yul\":13512:13514   */\n      0x60\n        /* \"#utility.yul\":13501:13510   */\n      dup7\n        /* \"#utility.yul\":13497:13515   */\n      add\n        /* \"#utility.yul\":13484:13516   */\n      calldataload\n        /* \"#utility.yul\":13543:13561   */\n      0xffffffffffffffff\n        /* \"#utility.yul\":13535:13541   */\n      dup2\n        /* \"#utility.yul\":13532:13562   */\n      gt\n        /* \"#utility.yul\":13529:13646   */\n      iszero\n      tag_345\n      jumpi\n        /* \"#utility.yul\":13565:13644   */\n      tag_346\n      tag_180\n      jump\t// in\n    tag_346:\n        /* \"#utility.yul\":13529:13646   */\n    tag_345:\n        /* \"#utility.yul\":13670:13733   */\n      tag_347\n        /* \"#utility.yul\":13725:13732   */\n      dup9\n        /* \"#utility.yul\":13716:13722   */\n      dup3\n        /* \"#utility.yul\":13705:13714   */\n      dup10\n        /* \"#utility.yul\":13701:13723   */\n      add\n        /* \"#utility.yul\":13670:13733   */\n      tag_201\n      jump\t// in\n    tag_347:\n        /* \"#utility.yul\":13660:13733   */\n      swap3\n      pop\n        /* \"#utility.yul\":13455:13743   */\n      pop\n        /* \"#utility.yul\":13810:13813   */\n      0x80\n        /* \"#utility.yul\":13799:13808   */\n      dup7\n        /* \"#utility.yul\":13795:13814   */\n      add\n        /* \"#utility.yul\":13782:13815   */\n      calldataload\n        /* \"#utility.yul\":13842:13860   */\n      0xffffffffffffffff\n        /* \"#utility.yul\":13834:13840   */\n      dup2\n        /* \"#utility.yul\":13831:13861   */\n      gt\n        /* \"#utility.yul\":13828:13945   */\n      iszero\n      tag_348\n      jumpi\n        /* \"#utility.yul\":13864:13943   */\n      tag_349\n      tag_180\n      jump\t// in\n    tag_349:\n        /* \"#utility.yul\":13828:13945   */\n    tag_348:\n        /* \"#utility.yul\":13969:14032   */\n      tag_350\n        /* \"#utility.yul\":14024:14031   */\n      dup9\n        /* \"#utility.yul\":14015:14021   */\n      dup3\n        /* \"#utility.yul\":14004:14013   */\n      dup10\n        /* \"#utility.yul\":14000:14022   */\n      add\n        /* \"#utility.yul\":13969:14032   */\n      tag_201\n      jump\t// in\n    tag_350:\n        /* \"#utility.yul\":13959:14032   */\n      swap2\n      pop\n        /* \"#utility.yul\":13753:14042   */\n      pop\n        /* \"#utility.yul\":12238:14049   */\n      swap3\n      swap6\n      pop\n      swap3\n      swap6\n      swap1\n      swap4\n      pop\n      jump\t// out\n        /* \"#utility.yul\":14055:15540   */\n    tag_45:\n        /* \"#utility.yul\":14181:14187   */\n      0x00\n        /* \"#utility.yul\":14189:14195   */\n      dup1\n        /* \"#utility.yul\":14197:14203   */\n      0x00\n        /* \"#utility.yul\":14205:14211   */\n      dup1\n        /* \"#utility.yul\":14254:14257   */\n      0x80\n        /* \"#utility.yul\":14242:14251   */\n      dup6\n        /* \"#utility.yul\":14233:14240   */\n      dup8\n        /* \"#utility.yul\":14229:14252   */\n      sub\n        /* \"#utility.yul\":14225:14258   */\n      slt\n        /* \"#utility.yul\":14222:14342   */\n      iszero\n      tag_352\n      jumpi\n        /* \"#utility.yul\":14261:14340   */\n      tag_353\n      tag_179\n      jump\t// in\n    tag_353:\n        /* \"#utility.yul\":14222:14342   */\n    tag_352:\n        /* \"#utility.yul\":14409:14410   */\n      0x00\n        /* \"#utility.yul\":14398:14407   */\n      dup6\n        /* \"#utility.yul\":14394:14411   */\n      add\n        /* \"#utility.yul\":14381:14412   */\n      calldataload\n        /* \"#utility.yul\":14439:14457   */\n      0xffffffffffffffff\n        /* \"#utility.yul\":14431:14437   */\n      dup2\n        /* \"#utility.yul\":14428:14458   */\n      gt\n        /* \"#utility.yul\":14425:14542   */\n      iszero\n      tag_354\n      jumpi\n        /* \"#utility.yul\":14461:14540   */\n      tag_355\n      tag_180\n      jump\t// in\n    tag_355:\n        /* \"#utility.yul\":14425:14542   */\n    tag_354:\n        /* \"#utility.yul\":14566:14629   */\n      tag_356\n        /* \"#utility.yul\":14621:14628   */\n      dup8\n        /* \"#utility.yul\":14612:14618   */\n      dup3\n        /* \"#utility.yul\":14601:14610   */\n      dup9\n        /* \"#utility.yul\":14597:14619   */\n      add\n        /* \"#utility.yul\":14566:14629   */\n      tag_201\n      jump\t// in\n    tag_356:\n        /* \"#utility.yul\":14556:14629   */\n      swap5\n      pop\n        /* \"#utility.yul\":14352:14639   */\n      pop\n        /* \"#utility.yul\":14706:14708   */\n      0x20\n        /* \"#utility.yul\":14695:14704   */\n      dup6\n        /* \"#utility.yul\":14691:14709   */\n      add\n        /* \"#utility.yul\":14678:14710   */\n      calldataload\n        /* \"#utility.yul\":14737:14755   */\n      0xffffffffffffffff\n        /* \"#utility.yul\":14729:14735   */\n      dup2\n        /* \"#utility.yul\":14726:14756   */\n      gt\n        /* \"#utility.yul\":14723:14840   */\n      iszero\n      tag_357\n      jumpi\n        /* \"#utility.yul\":14759:14838   */\n      tag_358\n      tag_180\n      jump\t// in\n    tag_358:\n        /* \"#utility.yul\":14723:14840   */\n    tag_357:\n        /* \"#utility.yul\":14864:14927   */\n      tag_359\n        /* \"#utility.yul\":14919:14926   */\n      dup8\n        /* \"#utility.yul\":14910:14916   */\n      dup3\n        /* \"#utility.yul\":14899:14908   */\n      dup9\n        /* \"#utility.yul\":14895:14917   */\n      add\n        /* \"#utility.yul\":14864:14927   */\n      tag_201\n      jump\t// in\n    tag_359:\n        /* \"#utility.yul\":14854:14927   */\n      swap4\n      pop\n        /* \"#utility.yul\":14649:14937   */\n      pop\n        /* \"#utility.yul\":15004:15006   */\n      0x40\n        /* \"#utility.yul\":14993:15002   */\n      dup6\n        /* \"#utility.yul\":14989:15007   */\n      add\n        /* \"#utility.yul\":14976:15008   */\n      calldataload\n        /* \"#utility.yul\":15035:15053   */\n      0xffffffffffffffff\n        /* \"#utility.yul\":15027:15033   */\n      dup2\n        /* \"#utility.yul\":15024:15054   */\n      gt\n        /* \"#utility.yul\":15021:15138   */\n      iszero\n      tag_360\n      jumpi\n        /* \"#utility.yul\":15057:15136   */\n      tag_361\n      tag_180\n      jump\t// in\n    tag_361:\n        /* \"#utility.yul\":15021:15138   */\n    tag_360:\n        /* \"#utility.yul\":15162:15225   */\n      tag_362\n        /* \"#utility.yul\":15217:15224   */\n      dup8\n        /* \"#utility.yul\":15208:15214   */\n      dup3\n        /* \"#utility.yul\":15197:15206   */\n      dup9\n        /* \"#utility.yul\":15193:15215   */\n      add\n        /* \"#utility.yul\":15162:15225   */\n      tag_201\n      jump\t// in\n    tag_362:\n        /* \"#utility.yul\":15152:15225   */\n      swap3\n      pop\n        /* \"#utility.yul\":14947:15235   */\n      pop\n        /* \"#utility.yul\":15302:15304   */\n      0x60\n        /* \"#utility.yul\":15291:15300   */\n      dup6\n        /* \"#utility.yul\":15287:15305   */\n      add\n        /* \"#utility.yul\":15274:15306   */\n      calldataload\n        /* \"#utility.yul\":15333:15351   */\n      0xffffffffffffffff\n        /* \"#utility.yul\":15325:15331   */\n      dup2\n        /* \"#utility.yul\":15322:15352   */\n      gt\n        /* \"#utility.yul\":15319:15436   */\n      iszero\n      tag_363\n      jumpi\n        /* \"#utility.yul\":15355:15434   */\n      tag_364\n      tag_180\n      jump\t// in\n    tag_364:\n        /* \"#utility.yul\":15319:15436   */\n    tag_363:\n        /* \"#utility.yul\":15460:15523   */\n      tag_365\n        /* \"#utility.yul\":15515:15522   */\n      dup8\n        /* \"#utility.yul\":15506:15512   */\n      dup3\n        /* \"#utility.yul\":15495:15504   */\n      dup9\n        /* \"#utility.yul\":15491:15513   */\n      add\n        /* \"#utility.yul\":15460:15523   */\n      tag_201\n      jump\t// in\n    tag_365:\n        /* \"#utility.yul\":15450:15523   */\n      swap2\n      pop\n        /* \"#utility.yul\":15245:15533   */\n      pop\n        /* \"#utility.yul\":14055:15540   */\n      swap3\n      swap6\n      swap2\n      swap5\n      pop\n      swap3\n      pop\n      jump\t// out\n        /* \"#utility.yul\":15546:15768   */\n    tag_54:\n        /* \"#utility.yul\":15639:15643   */\n      0x00\n        /* \"#utility.yul\":15677:15679   */\n      0x20\n        /* \"#utility.yul\":15666:15675   */\n      dup3\n        /* \"#utility.yul\":15662:15680   */\n      add\n        /* \"#utility.yul\":15654:15680   */\n      swap1\n      pop\n        /* \"#utility.yul\":15690:15761   */\n      tag_367\n        /* \"#utility.yul\":15758:15759   */\n      0x00\n        /* \"#utility.yul\":15747:15756   */\n      dup4\n        /* \"#utility.yul\":15743:15760   */\n      add\n        /* \"#utility.yul\":15734:15740   */\n      dup5\n        /* \"#utility.yul\":15690:15761   */\n      tag_191\n      jump\t// in\n    tag_367:\n        /* \"#utility.yul\":15546:15768   */\n      swap3\n      swap2\n      pop\n      pop\n      jump\t// out\n        /* \"#utility.yul\":15774:15954   */\n    tag_212:\n        /* \"#utility.yul\":15822:15899   */\n      0x4e487b7100000000000000000000000000000000000000000000000000000000\n        /* \"#utility.yul\":15819:15820   */\n      0x00\n        /* \"#utility.yul\":15812:15900   */\n      mstore\n        /* \"#utility.yul\":15919:15923   */\n      0x22\n        /* \"#utility.yul\":15916:15917   */\n      0x04\n        /* \"#utility.yul\":15909:15924   */\n      mstore\n        /* \"#utility.yul\":15943:15947   */\n      0x24\n        /* \"#utility.yul\":15940:15941   */\n      0x00\n        /* \"#utility.yul\":15933:15948   */\n      revert\n        /* \"#utility.yul\":15960:16280   */\n    tag_58:\n        /* \"#utility.yul\":16004:16010   */\n      0x00\n        /* \"#utility.yul\":16041:16042   */\n      0x02\n        /* \"#utility.yul\":16035:16039   */\n      dup3\n        /* \"#utility.yul\":16031:16043   */\n      div\n        /* \"#utility.yul\":16021:16043   */\n      swap1\n      pop\n        /* \"#utility.yul\":16088:16089   */\n      0x01\n        /* \"#utility.yul\":16082:16086   */\n      dup3\n        /* \"#utility.yul\":16078:16090   */\n      and\n        /* \"#utility.yul\":16109:16127   */\n      dup1\n        /* \"#utility.yul\":16099:16180   */\n      tag_370\n      jumpi\n        /* \"#utility.yul\":16165:16169   */\n      0x7f\n        /* \"#utility.yul\":16157:16163   */\n      dup3\n        /* \"#utility.yul\":16153:16170   */\n      and\n        /* \"#utility.yul\":16143:16170   */\n      swap2\n      pop\n        /* \"#utility.yul\":16099:16180   */\n    tag_370:\n        /* \"#utility.yul\":16227:16229   */\n      0x20\n        /* \"#utility.yul\":16219:16225   */\n      dup3\n        /* \"#utility.yul\":16216:16230   */\n      lt\n        /* \"#utility.yul\":16196:16214   */\n      dup2\n        /* \"#utility.yul\":16193:16231   */\n      sub\n        /* \"#utility.yul\":16190:16274   */\n      tag_371\n      jumpi\n        /* \"#utility.yul\":16246:16264   */\n      tag_372\n      tag_212\n      jump\t// in\n    tag_372:\n        /* \"#utility.yul\":16190:16274   */\n    tag_371:\n        /* \"#utility.yul\":16011:16280   */\n      pop\n        /* \"#utility.yul\":15960:16280   */\n      swap2\n      swap1\n      pop\n      jump\t// out\n        /* \"#utility.yul\":16286:16523   */\n    tag_213:\n        /* \"#utility.yul\":16426:16460   */\n      0x4163636f756e7420616c7265616479207573656420706c656173652074727920\n        /* \"#utility.yul\":16422:16423   */\n      0x00\n        /* \"#utility.yul\":16414:16420   */\n      dup3\n        /* \"#utility.yul\":16410:16424   */\n      add\n        /* \"#utility.yul\":16403:16461   */\n      mstore\n        /* \"#utility.yul\":16495:16515   */\n      0x77697468206e6577206163636f756e7421210000000000000000000000000000\n        /* \"#utility.yul\":16490:16492   */\n      0x20\n        /* \"#utility.yul\":16482:16488   */\n      dup3\n        /* \"#utility.yul\":16478:16493   */\n      add\n        /* \"#utility.yul\":16471:16516   */\n      mstore\n        /* \"#utility.yul\":16286:16523   */\n      pop\n      jump\t// out\n        /* \"#utility.yul\":16529:16895   */\n    tag_214:\n        /* \"#utility.yul\":16671:16674   */\n      0x00\n        /* \"#utility.yul\":16692:16759   */\n      tag_375\n        /* \"#utility.yul\":16756:16758   */\n      0x32\n        /* \"#utility.yul\":16751:16754   */\n      dup4\n        /* \"#utility.yul\":16692:16759   */\n      tag_185\n      jump\t// in\n    tag_375:\n        /* \"#utility.yul\":16685:16759   */\n      swap2\n      pop\n        /* \"#utility.yul\":16768:16861   */\n      tag_376\n        /* \"#utility.yul\":16857:16860   */\n      dup3\n        /* \"#utility.yul\":16768:16861   */\n      tag_213\n      jump\t// in\n    tag_376:\n        /* \"#utility.yul\":16886:16888   */\n      0x40\n        /* \"#utility.yul\":16881:16884   */\n      dup3\n        /* \"#utility.yul\":16877:16889   */\n      add\n        /* \"#utility.yul\":16870:16889   */\n      swap1\n      pop\n        /* \"#utility.yul\":16529:16895   */\n      swap2\n      swap1\n      pop\n      jump\t// out\n        /* \"#utility.yul\":16901:17320   */\n    tag_118:\n        /* \"#utility.yul\":17067:17071   */\n      0x00\n        /* \"#utility.yul\":17105:17107   */\n      0x20\n        /* \"#utility.yul\":17094:17103   */\n      dup3\n        /* \"#utility.yul\":17090:17108   */\n      add\n        /* \"#utility.yul\":17082:17108   */\n      swap1\n      pop\n        /* \"#utility.yul\":17154:17163   */\n      dup2\n        /* \"#utility.yul\":17148:17152   */\n      dup2\n        /* \"#utility.yul\":17144:17164   */\n      sub\n        /* \"#utility.yul\":17140:17141   */\n      0x00\n        /* \"#utility.yul\":17129:17138   */\n      dup4\n        /* \"#utility.yul\":17125:17142   */\n      add\n        /* \"#utility.yul\":17118:17165   */\n      mstore\n        /* \"#utility.yul\":17182:17313   */\n      tag_378\n        /* \"#utility.yul\":17308:17312   */\n      dup2\n        /* \"#utility.yul\":17182:17313   */\n      tag_214\n      jump\t// in\n    tag_378:\n        /* \"#utility.yul\":17174:17313   */\n      swap1\n      pop\n        /* \"#utility.yul\":16901:17320   */\n      swap2\n      swap1\n      pop\n      jump\t// out\n        /* \"#utility.yul\":17326:17506   */\n    tag_215:\n        /* \"#utility.yul\":17374:17451   */\n      0x4e487b7100000000000000000000000000000000000000000000000000000000\n        /* \"#utility.yul\":17371:17372   */\n      0x00\n        /* \"#utility.yul\":17364:17452   */\n      mstore\n        /* \"#utility.yul\":17471:17475   */\n      0x11\n        /* \"#utility.yul\":17468:17469   */\n      0x04\n        /* \"#utility.yul\":17461:17476   */\n      mstore\n        /* \"#utility.yul\":17495:17499   */\n      0x24\n        /* \"#utility.yul\":17492:17493   */\n      0x00\n        /* \"#utility.yul\":17485:17500   */\n      revert\n        /* \"#utility.yul\":17512:17745   */\n    tag_126:\n        /* \"#utility.yul\":17551:17554   */\n      0x00\n        /* \"#utility.yul\":17574:17598   */\n      tag_381\n        /* \"#utility.yul\":17592:17597   */\n      dup3\n        /* \"#utility.yul\":17574:17598   */\n      tag_181\n      jump\t// in\n    tag_381:\n        /* \"#utility.yul\":17565:17598   */\n      swap2\n      pop\n        /* \"#utility.yul\":17620:17686   */\n      0xffffffffffffffffffffffffffffffffffffffffffffffffffffffffffffffff\n        /* \"#utility.yul\":17613:17618   */\n      dup3\n        /* \"#utility.yul\":17610:17687   */\n      sub\n        /* \"#utility.yul\":17607:17710   */\n      tag_382\n      jumpi\n        /* \"#utility.yul\":17690:17708   */\n      tag_383\n      tag_215\n      jump\t// in\n    tag_383:\n        /* \"#utility.yul\":17607:17710   */\n    tag_382:\n        /* \"#utility.yul\":17737:17738   */\n      0x01\n        /* \"#utility.yul\":17730:17735   */\n      dup3\n        /* \"#utility.yul\":17726:17739   */\n      add\n        /* \"#utility.yul\":17719:17739   */\n      swap1\n      pop\n        /* \"#utility.yul\":17512:17745   */\n      swap2\n      swap1\n      pop\n      jump\t// out\n        /* \"#utility.yul\":17751:17912   */\n    tag_216:\n        /* \"#utility.yul\":17891:17904   */\n      0x4e6f7420616c6c6f776564000000000000000000000000000000000000000000\n        /* \"#utility.yul\":17887:17888   */\n      0x00\n        /* \"#utility.yul\":17879:17885   */\n      dup3\n        /* \"#utility.yul\":17875:17889   */\n      add\n        /* \"#utility.yul\":17868:17905   */\n      mstore\n        /* \"#utility.yul\":17751:17912   */\n      pop\n      jump\t// out\n        /* \"#utility.yul\":17918:18284   */\n    tag_217:\n        /* \"#utility.yul\":18060:18063   */\n      0x00\n        /* \"#utility.yul\":18081:18148   */\n      tag_386\n        /* \"#utility.yul\":18145:18147   */\n      0x0b\n        /* \"#utility.yul\":18140:18143   */\n      dup4\n        /* \"#utility.yul\":18081:18148   */\n      tag_185\n      jump\t// in\n    tag_386:\n        /* \"#utility.yul\":18074:18148   */\n      swap2\n      pop\n        /* \"#utility.yul\":18157:18250   */\n      tag_387\n        /* \"#utility.yul\":18246:18249   */\n      dup3\n        /* \"#utility.yul\":18157:18250   */\n      tag_216\n      jump\t// in\n    tag_387:\n        /* \"#utility.yul\":18275:18277   */\n      0x20\n        /* \"#utility.yul\":18270:18273   */\n      dup3\n        /* \"#utility.yul\":18266:18278   */\n      add\n        /* \"#utility.yul\":18259:18278   */\n      swap1\n      pop\n        /* \"#utility.yul\":17918:18284   */\n      swap2\n      swap1\n      pop\n      jump\t// out\n        /* \"#utility.yul\":18290:18709   */\n    tag_154:\n        /* \"#utility.yul\":18456:18460   */\n      0x00\n        /* \"#utility.yul\":18494:18496   */\n      0x20\n        /* \"#utility.yul\":18483:18492   */\n      dup3\n        /* \"#utility.yul\":18479:18497   */\n      add\n        /* \"#utility.yul\":18471:18497   */\n      swap1\n      pop\n        /* \"#utility.yul\":18543:18552   */\n      dup2\n        /* \"#utility.yul\":18537:18541   */\n      dup2\n        /* \"#utility.yul\":18533:18553   */\n      sub\n        /* \"#utility.yul\":18529:18530   */\n      0x00\n        /* \"#utility.yul\":18518:18527   */\n      dup4\n        /* \"#utility.yul\":18514:18531   */\n      add\n        /* \"#utility.yul\":18507:18554   */\n      mstore\n        /* \"#utility.yul\":18571:18702   */\n      tag_389\n        /* \"#utility.yul\":18697:18701   */\n      dup2\n        /* \"#utility.yul\":18571:18702   */\n      tag_217\n      jump\t// in\n    tag_389:\n        /* \"#utility.yul\":18563:18702   */\n      swap1\n      pop\n        /* \"#utility.yul\":18290:18709   */\n      swap2\n      swap1\n      pop\n      jump\t// out\n    stop\n    data_f8cee5838de095b73bc0eb68505c82192a6e7ef8eb72dc52884288f7c470afa7 5573657220646f65736e6f7420657869737420212120526567697374657220616e642074727920616761696e202121\n\n    auxdata: 0xa264697066735822122097b469f6eb9f4377233de844be31cb17209604b3e49dce466b3aa3c2f6dd5eaa64736f6c634300080d0033\n}\n",
				"bytecode": {
					"linkReferences": {},
					"object": "608060405234801561001057600080fd5b5060008081905550611e22806100276000396000f3fe608060405234801561001057600080fd5b50600436106100935760003560e01c80635a09007b116100665780635a09007b1461014a578063681f3e6d1461017a578063b4bfc3a514610198578063c127ae41146101c8578063ebc3eee8146101e657610093565b8063107046bd1461009857806312679323146100cc5780633162a709146100ea57806358467dbc1461011a575b600080fd5b6100b260048036038101906100ad919061146f565b610204565b6040516100c3959493929190611576565b60405180910390f35b6100d461048a565b6040516100e191906115f4565b60405180910390f35b61010460048036038101906100ff9190611744565b610490565b6040516101119190611933565b60405180910390f35b610134600480360381019061012f9190611955565b6107b8565b60405161014191906119cd565b60405180910390f35b610164600480360381019061015f91906119ef565b6108f2565b60405161017191906119cd565b60405180910390f35b610182610c57565b60405161018f91906119cd565b60405180910390f35b6101b260048036038101906101ad9190611af6565b610d29565b6040516101bf91906119cd565b60405180910390f35b6101d06110e9565b6040516101dd91906119cd565b60405180910390f35b6101ee61128b565b6040516101fb9190611bcd565b60405180910390f35b6003818154811061021457600080fd5b906000526020600020906005020160009150905080600001805461023790611c17565b80601f016020809104026020016040519081016040528092919081815260200182805461026390611c17565b80156102b05780601f10610285576101008083540402835291602001916102b0565b820191906000526020600020905b81548152906001019060200180831161029357829003601f168201915b5050505050908060010180546102c590611c17565b80601f01602080910402602001604051908101604052809291908181526020018280546102f190611c17565b801561033e5780601f106103135761010080835404028352916020019161033e565b820191906000526020600020905b81548152906001019060200180831161032157829003601f168201915b50505050509080600201805461035390611c17565b80601f016020809104026020016040519081016040528092919081815260200182805461037f90611c17565b80156103cc5780601f106103a1576101008083540402835291602001916103cc565b820191906000526020600020905b8154815290600101906020018083116103af57829003601f168201915b5050505050908060030180546103e190611c17565b80601f016020809104026020016040519081016040528092919081815260200182805461040d90611c17565b801561045a5780601f1061042f5761010080835404028352916020019161045a565b820191906000526020600020905b81548152906001019060200180831161043d57829003601f168201915b5050505050908060040160009054906101000a900473ffffffffffffffffffffffffffffffffffffffff16905085565b60005481565b6060600061049c610c57565b905082805190602001208180519060200120036107b1576003805480602002602001604051908101604052809291908181526020016000905b828210156107a557838290600052602060002090600502016040518060a001604052908160008201805461050890611c17565b80601f016020809104026020016040519081016040528092919081815260200182805461053490611c17565b80156105815780601f1061055657610100808354040283529160200191610581565b820191906000526020600020905b81548152906001019060200180831161056457829003601f168201915b5050505050815260200160018201805461059a90611c17565b80601f01602080910402602001604051908101604052809291908181526020018280546105c690611c17565b80156106135780601f106105e857610100808354040283529160200191610613565b820191906000526020600020905b8154815290600101906020018083116105f657829003601f168201915b5050505050815260200160028201805461062c90611c17565b80601f016020809104026020016040519081016040528092919081815260200182805461065890611c17565b80156106a55780601f1061067a576101008083540402835291602001916106a5565b820191906000526020600020905b81548152906001019060200180831161068857829003601f168201915b505050505081526020016003820180546106be90611c17565b80601f01602080910402602001604051908101604052809291908181526020018280546106ea90611c17565b80156107375780601f1061070c57610100808354040283529160200191610737565b820191906000526020600020905b81548152906001019060200180831161071a57829003601f168201915b505050505081526020016004820160009054906101000a900473ffffffffffffffffffffffffffffffffffffffff1673ffffffffffffffffffffffffffffffffffffffff1673ffffffffffffffffffffffffffffffffffffffff1681525050815260200190600101906104d5565b505050509150506107b3565b505b919050565b606060006107c4610c57565b90506000600160003373ffffffffffffffffffffffffffffffffffffffff1673ffffffffffffffffffffffffffffffffffffffff168152602001908152602001600020600301805461081590611c17565b80601f016020809104026020016040519081016040528092919081815260200182805461084190611c17565b801561088e5780601f106108635761010080835404028352916020019161088e565b820191906000526020600020905b81548152906001019060200180831161087157829003601f168201915b50505050509050848051906020012082805190602001201480156108bf575083805190602001208180519060200120145b156108ce5784925050506108ec565b6040518060600160405280602f8152602001611dbe602f9139925050505b92915050565b60606108fc61128b565b73ffffffffffffffffffffffffffffffffffffffff16600160003373ffffffffffffffffffffffffffffffffffffffff1673ffffffffffffffffffffffffffffffffffffffff16815260200190815260200160002060050160009054906101000a900473ffffffffffffffffffffffffffffffffffffffff1673ffffffffffffffffffffffffffffffffffffffff16146109cb576040517f08c379a00000000000000000000000000000000000000000000000000000000081526004016109c290611cba565b60405180910390fd5b85600160003373ffffffffffffffffffffffffffffffffffffffff1673ffffffffffffffffffffffffffffffffffffffff1681526020019081526020016000206000019080519060200190610a219291906112f5565b5084600160003373ffffffffffffffffffffffffffffffffffffffff1673ffffffffffffffffffffffffffffffffffffffff1681526020019081526020016000206001019080519060200190610a789291906112f5565b5033600160003373ffffffffffffffffffffffffffffffffffffffff1673ffffffffffffffffffffffffffffffffffffffff16815260200190815260200160002060050160006101000a81548173ffffffffffffffffffffffffffffffffffffffff021916908373ffffffffffffffffffffffffffffffffffffffff16021790555083600160003373ffffffffffffffffffffffffffffffffffffffff1673ffffffffffffffffffffffffffffffffffffffff1681526020019081526020016000206002019080519060200190610b509291906112f5565b5082600160003373ffffffffffffffffffffffffffffffffffffffff1673ffffffffffffffffffffffffffffffffffffffff1681526020019081526020016000206003019080519060200190610ba79291906112f5565b5081600160003373ffffffffffffffffffffffffffffffffffffffff1673ffffffffffffffffffffffffffffffffffffffff1681526020019081526020016000206004019080519060200190610bfe9291906112f5565b50600080815480929190610c1190611d09565b91905055506040518060400160405280601781526020017f5375636365737366756c6c792052656769737465726564000000000000000000815250905095945050505050565b6060600160003373ffffffffffffffffffffffffffffffffffffffff1673ffffffffffffffffffffffffffffffffffffffff1681526020019081526020016000206002018054610ca690611c17565b80601f0160208091040260200160405190810160405280929190818152602001828054610cd290611c17565b8015610d1f5780601f10610cf457610100808354040283529160200191610d1f565b820191906000526020600020905b815481529060010190602001808311610d0257829003601f168201915b5050505050905090565b60606000610d35610c57565b51146110a85784600260003373ffffffffffffffffffffffffffffffffffffffff1673ffffffffffffffffffffffffffffffffffffffff1681526020019081526020016000206000019080519060200190610d919291906112f5565b5083600260003373ffffffffffffffffffffffffffffffffffffffff1673ffffffffffffffffffffffffffffffffffffffff1681526020019081526020016000206001019080519060200190610de89291906112f5565b5082600260003373ffffffffffffffffffffffffffffffffffffffff1673ffffffffffffffffffffffffffffffffffffffff1681526020019081526020016000206002019080519060200190610e3f9291906112f5565b5081600260003373ffffffffffffffffffffffffffffffffffffffff1673ffffffffffffffffffffffffffffffffffffffff1681526020019081526020016000206003019080519060200190610e969291906112f5565b5033600260003373ffffffffffffffffffffffffffffffffffffffff1673ffffffffffffffffffffffffffffffffffffffff16815260200190815260200160002060040160006101000a81548173ffffffffffffffffffffffffffffffffffffffff021916908373ffffffffffffffffffffffffffffffffffffffff1602179055506003600260003373ffffffffffffffffffffffffffffffffffffffff1673ffffffffffffffffffffffffffffffffffffffff16815260200190815260200160002090806001815401808255809150506001900390600052602060002090600502016000909190919091506000820181600001908054610f9690611c17565b610fa192919061137b565b506001820181600101908054610fb690611c17565b610fc192919061137b565b506002820181600201908054610fd690611c17565b610fe192919061137b565b506003820181600301908054610ff690611c17565b61100192919061137b565b506004820160009054906101000a900473ffffffffffffffffffffffffffffffffffffffff168160040160006101000a81548173ffffffffffffffffffffffffffffffffffffffff021916908373ffffffffffffffffffffffffffffffffffffffff16021790555050506040518060400160405280601a81526020017f50726f6a656374205361766564205375636365737366756c6c7900000000000081525090506110e1565b6040518060400160405280601481526020017f4572726f7220536176696e672050726f6a65637400000000000000000000000081525090505b949350505050565b6060600160003373ffffffffffffffffffffffffffffffffffffffff1673ffffffffffffffffffffffffffffffffffffffff16815260200190815260200160002060050160009054906101000a900473ffffffffffffffffffffffffffffffffffffffff1673ffffffffffffffffffffffffffffffffffffffff163373ffffffffffffffffffffffffffffffffffffffff16146111bb576040517f08c379a00000000000000000000000000000000000000000000000000000000081526004016111b290611d9d565b60405180910390fd5b600160003373ffffffffffffffffffffffffffffffffffffffff1673ffffffffffffffffffffffffffffffffffffffff168152602001908152602001600020600001805461120890611c17565b80601f016020809104026020016040519081016040528092919081815260200182805461123490611c17565b80156112815780601f1061125657610100808354040283529160200191611281565b820191906000526020600020905b81548152906001019060200180831161126457829003601f168201915b5050505050905090565b6000600160003373ffffffffffffffffffffffffffffffffffffffff1673ffffffffffffffffffffffffffffffffffffffff16815260200190815260200160002060050160009054906101000a900473ffffffffffffffffffffffffffffffffffffffff16905090565b82805461130190611c17565b90600052602060002090601f016020900481019282611323576000855561136a565b82601f1061133c57805160ff191683800117855561136a565b8280016001018555821561136a579182015b8281111561136957825182559160200191906001019061134e565b5b5090506113779190611408565b5090565b82805461138790611c17565b90600052602060002090601f0160209004810192826113a957600085556113f7565b82601f106113ba57805485556113f7565b828001600101855582156113f757600052602060002091601f016020900482015b828111156113f65782548255916001019190600101906113db565b5b5090506114049190611408565b5090565b5b80821115611421576000816000905550600101611409565b5090565b6000604051905090565b600080fd5b600080fd5b6000819050919050565b61144c81611439565b811461145757600080fd5b50565b60008135905061146981611443565b92915050565b6000602082840312156114855761148461142f565b5b60006114938482850161145a565b91505092915050565b600081519050919050565b600082825260208201905092915050565b60005b838110156114d65780820151818401526020810190506114bb565b838111156114e5576000848401525b50505050565b6000601f19601f8301169050919050565b60006115078261149c565b61151181856114a7565b93506115218185602086016114b8565b61152a816114eb565b840191505092915050565b600073ffffffffffffffffffffffffffffffffffffffff82169050919050565b600061156082611535565b9050919050565b61157081611555565b82525050565b600060a082019050818103600083015261159081886114fc565b905081810360208301526115a481876114fc565b905081810360408301526115b881866114fc565b905081810360608301526115cc81856114fc565b90506115db6080830184611567565b9695505050505050565b6115ee81611439565b82525050565b600060208201905061160960008301846115e5565b92915050565b600080fd5b600080fd5b7f4e487b7100000000000000000000000000000000000000000000000000000000600052604160045260246000fd5b611651826114eb565b810181811067ffffffffffffffff821117156116705761166f611619565b5b80604052505050565b6000611683611425565b905061168f8282611648565b919050565b600067ffffffffffffffff8211156116af576116ae611619565b5b6116b8826114eb565b9050602081019050919050565b82818337600083830152505050565b60006116e76116e284611694565b611679565b90508281526020810184848401111561170357611702611614565b5b61170e8482856116c5565b509392505050565b600082601f83011261172b5761172a61160f565b5b813561173b8482602086016116d4565b91505092915050565b60006020828403121561175a5761175961142f565b5b600082013567ffffffffffffffff81111561177857611777611434565b5b61178484828501611716565b91505092915050565b600081519050919050565b600082825260208201905092915050565b6000819050602082019050919050565b600082825260208201905092915050565b60006117d58261149c565b6117df81856117b9565b93506117ef8185602086016114b8565b6117f8816114eb565b840191505092915050565b61180c81611555565b82525050565b600060a083016000830151848203600086015261182f82826117ca565b9150506020830151848203602086015261184982826117ca565b9150506040830151848203604086015261186382826117ca565b9150506060830151848203606086015261187d82826117ca565b91505060808301516118926080860182611803565b508091505092915050565b60006118a98383611812565b905092915050565b6000602082019050919050565b60006118c98261178d565b6118d38185611798565b9350836020820285016118e5856117a9565b8060005b858110156119215784840389528151611902858261189d565b945061190d836118b1565b925060208a019950506001810190506118e9565b50829750879550505050505092915050565b6000602082019050818103600083015261194d81846118be565b905092915050565b6000806040838503121561196c5761196b61142f565b5b600083013567ffffffffffffffff81111561198a57611989611434565b5b61199685828601611716565b925050602083013567ffffffffffffffff8111156119b7576119b6611434565b5b6119c385828601611716565b9150509250929050565b600060208201905081810360008301526119e781846114fc565b905092915050565b600080600080600060a08688031215611a0b57611a0a61142f565b5b600086013567ffffffffffffffff811115611a2957611a28611434565b5b611a3588828901611716565b955050602086013567ffffffffffffffff811115611a5657611a55611434565b5b611a6288828901611716565b945050604086013567ffffffffffffffff811115611a8357611a82611434565b5b611a8f88828901611716565b935050606086013567ffffffffffffffff811115611ab057611aaf611434565b5b611abc88828901611716565b925050608086013567ffffffffffffffff811115611add57611adc611434565b5b611ae988828901611716565b9150509295509295909350565b60008060008060808587031215611b1057611b0f61142f565b5b600085013567ffffffffffffffff811115611b2e57611b2d611434565b5b611b3a87828801611716565b945050602085013567ffffffffffffffff811115611b5b57611b5a611434565b5b611b6787828801611716565b935050604085013567ffffffffffffffff811115611b8857611b87611434565b5b611b9487828801611716565b925050606085013567ffffffffffffffff811115611bb557611bb4611434565b5b611bc187828801611716565b91505092959194509250565b6000602082019050611be26000830184611567565b92915050565b7f4e487b7100000000000000000000000000000000000000000000000000000000600052602260045260246000fd5b60006002820490506001821680611c2f57607f821691505b602082108103611c4257611c41611be8565b5b50919050565b7f4163636f756e7420616c7265616479207573656420706c65617365207472792060008201527f77697468206e6577206163636f756e7421210000000000000000000000000000602082015250565b6000611ca46032836114a7565b9150611caf82611c48565b604082019050919050565b60006020820190508181036000830152611cd381611c97565b9050919050565b7f4e487b7100000000000000000000000000000000000000000000000000000000600052601160045260246000fd5b6000611d1482611439565b91507fffffffffffffffffffffffffffffffffffffffffffffffffffffffffffffffff8203611d4657611d45611cda565b5b600182019050919050565b7f4e6f7420616c6c6f776564000000000000000000000000000000000000000000600082015250565b6000611d87600b836114a7565b9150611d9282611d51565b602082019050919050565b60006020820190508181036000830152611db681611d7a565b905091905056fe5573657220646f65736e6f7420657869737420212120526567697374657220616e642074727920616761696e202121a264697066735822122097b469f6eb9f4377233de844be31cb17209604b3e49dce466b3aa3c2f6dd5eaa64736f6c634300080d0033",
					"opcodes": "PUSH1 0x80 PUSH1 0x40 MSTORE CALLVALUE DUP1 ISZERO PUSH2 0x10 JUMPI PUSH1 0x0 DUP1 REVERT JUMPDEST POP PUSH1 0x0 DUP1 DUP2 SWAP1 SSTORE POP PUSH2 0x1E22 DUP1 PUSH2 0x27 PUSH1 0x0 CODECOPY PUSH1 0x0 RETURN INVALID PUSH1 0x80 PUSH1 0x40 MSTORE CALLVALUE DUP1 ISZERO PUSH2 0x10 JUMPI PUSH1 0x0 DUP1 REVERT JUMPDEST POP PUSH1 0x4 CALLDATASIZE LT PUSH2 0x93 JUMPI PUSH1 0x0 CALLDATALOAD PUSH1 0xE0 SHR DUP1 PUSH4 0x5A09007B GT PUSH2 0x66 JUMPI DUP1 PUSH4 0x5A09007B EQ PUSH2 0x14A JUMPI DUP1 PUSH4 0x681F3E6D EQ PUSH2 0x17A JUMPI DUP1 PUSH4 0xB4BFC3A5 EQ PUSH2 0x198 JUMPI DUP1 PUSH4 0xC127AE41 EQ PUSH2 0x1C8 JUMPI DUP1 PUSH4 0xEBC3EEE8 EQ PUSH2 0x1E6 JUMPI PUSH2 0x93 JUMP JUMPDEST DUP1 PUSH4 0x107046BD EQ PUSH2 0x98 JUMPI DUP1 PUSH4 0x12679323 EQ PUSH2 0xCC JUMPI DUP1 PUSH4 0x3162A709 EQ PUSH2 0xEA JUMPI DUP1 PUSH4 0x58467DBC EQ PUSH2 0x11A JUMPI JUMPDEST PUSH1 0x0 DUP1 REVERT JUMPDEST PUSH2 0xB2 PUSH1 0x4 DUP1 CALLDATASIZE SUB DUP2 ADD SWAP1 PUSH2 0xAD SWAP2 SWAP1 PUSH2 0x146F JUMP JUMPDEST PUSH2 0x204 JUMP JUMPDEST PUSH1 0x40 MLOAD PUSH2 0xC3 SWAP6 SWAP5 SWAP4 SWAP3 SWAP2 SWAP1 PUSH2 0x1576 JUMP JUMPDEST PUSH1 0x40 MLOAD DUP1 SWAP2 SUB SWAP1 RETURN JUMPDEST PUSH2 0xD4 PUSH2 0x48A JUMP JUMPDEST PUSH1 0x40 MLOAD PUSH2 0xE1 SWAP2 SWAP1 PUSH2 0x15F4 JUMP JUMPDEST PUSH1 0x40 MLOAD DUP1 SWAP2 SUB SWAP1 RETURN JUMPDEST PUSH2 0x104 PUSH1 0x4 DUP1 CALLDATASIZE SUB DUP2 ADD SWAP1 PUSH2 0xFF SWAP2 SWAP1 PUSH2 0x1744 JUMP JUMPDEST PUSH2 0x490 JUMP JUMPDEST PUSH1 0x40 MLOAD PUSH2 0x111 SWAP2 SWAP1 PUSH2 0x1933 JUMP JUMPDEST PUSH1 0x40 MLOAD DUP1 SWAP2 SUB SWAP1 RETURN JUMPDEST PUSH2 0x134 PUSH1 0x4 DUP1 CALLDATASIZE SUB DUP2 ADD SWAP1 PUSH2 0x12F SWAP2 SWAP1 PUSH2 0x1955 JUMP JUMPDEST PUSH2 0x7B8 JUMP JUMPDEST PUSH1 0x40 MLOAD PUSH2 0x141 SWAP2 SWAP1 PUSH2 0x19CD JUMP JUMPDEST PUSH1 0x40 MLOAD DUP1 SWAP2 SUB SWAP1 RETURN JUMPDEST PUSH2 0x164 PUSH1 0x4 DUP1 CALLDATASIZE SUB DUP2 ADD SWAP1 PUSH2 0x15F SWAP2 SWAP1 PUSH2 0x19EF JUMP JUMPDEST PUSH2 0x8F2 JUMP JUMPDEST PUSH1 0x40 MLOAD PUSH2 0x171 SWAP2 SWAP1 PUSH2 0x19CD JUMP JUMPDEST PUSH1 0x40 MLOAD DUP1 SWAP2 SUB SWAP1 RETURN JUMPDEST PUSH2 0x182 PUSH2 0xC57 JUMP JUMPDEST PUSH1 0x40 MLOAD PUSH2 0x18F SWAP2 SWAP1 PUSH2 0x19CD JUMP JUMPDEST PUSH1 0x40 MLOAD DUP1 SWAP2 SUB SWAP1 RETURN JUMPDEST PUSH2 0x1B2 PUSH1 0x4 DUP1 CALLDATASIZE SUB DUP2 ADD SWAP1 PUSH2 0x1AD SWAP2 SWAP1 PUSH2 0x1AF6 JUMP JUMPDEST PUSH2 0xD29 JUMP JUMPDEST PUSH1 0x40 MLOAD PUSH2 0x1BF SWAP2 SWAP1 PUSH2 0x19CD JUMP JUMPDEST PUSH1 0x40 MLOAD DUP1 SWAP2 SUB SWAP1 RETURN JUMPDEST PUSH2 0x1D0 PUSH2 0x10E9 JUMP JUMPDEST PUSH1 0x40 MLOAD PUSH2 0x1DD SWAP2 SWAP1 PUSH2 0x19CD JUMP JUMPDEST PUSH1 0x40 MLOAD DUP1 SWAP2 SUB SWAP1 RETURN JUMPDEST PUSH2 0x1EE PUSH2 0x128B JUMP JUMPDEST PUSH1 0x40 MLOAD PUSH2 0x1FB SWAP2 SWAP1 PUSH2 0x1BCD JUMP JUMPDEST PUSH1 0x40 MLOAD DUP1 SWAP2 SUB SWAP1 RETURN JUMPDEST PUSH1 0x3 DUP2 DUP2 SLOAD DUP2 LT PUSH2 0x214 JUMPI PUSH1 0x0 DUP1 REVERT JUMPDEST SWAP1 PUSH1 0x0 MSTORE PUSH1 0x20 PUSH1 0x0 KECCAK256 SWAP1 PUSH1 0x5 MUL ADD PUSH1 0x0 SWAP2 POP SWAP1 POP DUP1 PUSH1 0x0 ADD DUP1 SLOAD PUSH2 0x237 SWAP1 PUSH2 0x1C17 JUMP JUMPDEST DUP1 PUSH1 0x1F ADD PUSH1 0x20 DUP1 SWAP2 DIV MUL PUSH1 0x20 ADD PUSH1 0x40 MLOAD SWAP1 DUP2 ADD PUSH1 0x40 MSTORE DUP1 SWAP3 SWAP2 SWAP1 DUP2 DUP2 MSTORE PUSH1 0x20 ADD DUP3 DUP1 SLOAD PUSH2 0x263 SWAP1 PUSH2 0x1C17 JUMP JUMPDEST DUP1 ISZERO PUSH2 0x2B0 JUMPI DUP1 PUSH1 0x1F LT PUSH2 0x285 JUMPI PUSH2 0x100 DUP1 DUP4 SLOAD DIV MUL DUP4 MSTORE SWAP2 PUSH1 0x20 ADD SWAP2 PUSH2 0x2B0 JUMP JUMPDEST DUP3 ADD SWAP2 SWAP1 PUSH1 0x0 MSTORE PUSH1 0x20 PUSH1 0x0 KECCAK256 SWAP1 JUMPDEST DUP2 SLOAD DUP2 MSTORE SWAP1 PUSH1 0x1 ADD SWAP1 PUSH1 0x20 ADD DUP1 DUP4 GT PUSH2 0x293 JUMPI DUP3 SWAP1 SUB PUSH1 0x1F AND DUP3 ADD SWAP2 JUMPDEST POP POP POP POP POP SWAP1 DUP1 PUSH1 0x1 ADD DUP1 SLOAD PUSH2 0x2C5 SWAP1 PUSH2 0x1C17 JUMP JUMPDEST DUP1 PUSH1 0x1F ADD PUSH1 0x20 DUP1 SWAP2 DIV MUL PUSH1 0x20 ADD PUSH1 0x40 MLOAD SWAP1 DUP2 ADD PUSH1 0x40 MSTORE DUP1 SWAP3 SWAP2 SWAP1 DUP2 DUP2 MSTORE PUSH1 0x20 ADD DUP3 DUP1 SLOAD PUSH2 0x2F1 SWAP1 PUSH2 0x1C17 JUMP JUMPDEST DUP1 ISZERO PUSH2 0x33E JUMPI DUP1 PUSH1 0x1F LT PUSH2 0x313 JUMPI PUSH2 0x100 DUP1 DUP4 SLOAD DIV MUL DUP4 MSTORE SWAP2 PUSH1 0x20 ADD SWAP2 PUSH2 0x33E JUMP JUMPDEST DUP3 ADD SWAP2 SWAP1 PUSH1 0x0 MSTORE PUSH1 0x20 PUSH1 0x0 KECCAK256 SWAP1 JUMPDEST DUP2 SLOAD DUP2 MSTORE SWAP1 PUSH1 0x1 ADD SWAP1 PUSH1 0x20 ADD DUP1 DUP4 GT PUSH2 0x321 JUMPI DUP3 SWAP1 SUB PUSH1 0x1F AND DUP3 ADD SWAP2 JUMPDEST POP POP POP POP POP SWAP1 DUP1 PUSH1 0x2 ADD DUP1 SLOAD PUSH2 0x353 SWAP1 PUSH2 0x1C17 JUMP JUMPDEST DUP1 PUSH1 0x1F ADD PUSH1 0x20 DUP1 SWAP2 DIV MUL PUSH1 0x20 ADD PUSH1 0x40 MLOAD SWAP1 DUP2 ADD PUSH1 0x40 MSTORE DUP1 SWAP3 SWAP2 SWAP1 DUP2 DUP2 MSTORE PUSH1 0x20 ADD DUP3 DUP1 SLOAD PUSH2 0x37F SWAP1 PUSH2 0x1C17 JUMP JUMPDEST DUP1 ISZERO PUSH2 0x3CC JUMPI DUP1 PUSH1 0x1F LT PUSH2 0x3A1 JUMPI PUSH2 0x100 DUP1 DUP4 SLOAD DIV MUL DUP4 MSTORE SWAP2 PUSH1 0x20 ADD SWAP2 PUSH2 0x3CC JUMP JUMPDEST DUP3 ADD SWAP2 SWAP1 PUSH1 0x0 MSTORE PUSH1 0x20 PUSH1 0x0 KECCAK256 SWAP1 JUMPDEST DUP2 SLOAD DUP2 MSTORE SWAP1 PUSH1 0x1 ADD SWAP1 PUSH1 0x20 ADD DUP1 DUP4 GT PUSH2 0x3AF JUMPI DUP3 SWAP1 SUB PUSH1 0x1F AND DUP3 ADD SWAP2 JUMPDEST POP POP POP POP POP SWAP1 DUP1 PUSH1 0x3 ADD DUP1 SLOAD PUSH2 0x3E1 SWAP1 PUSH2 0x1C17 JUMP JUMPDEST DUP1 PUSH1 0x1F ADD PUSH1 0x20 DUP1 SWAP2 DIV MUL PUSH1 0x20 ADD PUSH1 0x40 MLOAD SWAP1 DUP2 ADD PUSH1 0x40 MSTORE DUP1 SWAP3 SWAP2 SWAP1 DUP2 DUP2 MSTORE PUSH1 0x20 ADD DUP3 DUP1 SLOAD PUSH2 0x40D SWAP1 PUSH2 0x1C17 JUMP JUMPDEST DUP1 ISZERO PUSH2 0x45A JUMPI DUP1 PUSH1 0x1F LT PUSH2 0x42F JUMPI PUSH2 0x100 DUP1 DUP4 SLOAD DIV MUL DUP4 MSTORE SWAP2 PUSH1 0x20 ADD SWAP2 PUSH2 0x45A JUMP JUMPDEST DUP3 ADD SWAP2 SWAP1 PUSH1 0x0 MSTORE PUSH1 0x20 PUSH1 0x0 KECCAK256 SWAP1 JUMPDEST DUP2 SLOAD DUP2 MSTORE SWAP1 PUSH1 0x1 ADD SWAP1 PUSH1 0x20 ADD DUP1 DUP4 GT PUSH2 0x43D JUMPI DUP3 SWAP1 SUB PUSH1 0x1F AND DUP3 ADD SWAP2 JUMPDEST POP POP POP POP POP SWAP1 DUP1 PUSH1 0x4 ADD PUSH1 0x0 SWAP1 SLOAD SWAP1 PUSH2 0x100 EXP SWAP1 DIV PUSH20 0xFFFFFFFFFFFFFFFFFFFFFFFFFFFFFFFFFFFFFFFF AND SWAP1 POP DUP6 JUMP JUMPDEST PUSH1 0x0 SLOAD DUP2 JUMP JUMPDEST PUSH1 0x60 PUSH1 0x0 PUSH2 0x49C PUSH2 0xC57 JUMP JUMPDEST SWAP1 POP DUP3 DUP1 MLOAD SWAP1 PUSH1 0x20 ADD KECCAK256 DUP2 DUP1 MLOAD SWAP1 PUSH1 0x20 ADD KECCAK256 SUB PUSH2 0x7B1 JUMPI PUSH1 0x3 DUP1 SLOAD DUP1 PUSH1 0x20 MUL PUSH1 0x20 ADD PUSH1 0x40 MLOAD SWAP1 DUP2 ADD PUSH1 0x40 MSTORE DUP1 SWAP3 SWAP2 SWAP1 DUP2 DUP2 MSTORE PUSH1 0x20 ADD PUSH1 0x0 SWAP1 JUMPDEST DUP3 DUP3 LT ISZERO PUSH2 0x7A5 JUMPI DUP4 DUP3 SWAP1 PUSH1 0x0 MSTORE PUSH1 0x20 PUSH1 0x0 KECCAK256 SWAP1 PUSH1 0x5 MUL ADD PUSH1 0x40 MLOAD DUP1 PUSH1 0xA0 ADD PUSH1 0x40 MSTORE SWAP1 DUP2 PUSH1 0x0 DUP3 ADD DUP1 SLOAD PUSH2 0x508 SWAP1 PUSH2 0x1C17 JUMP JUMPDEST DUP1 PUSH1 0x1F ADD PUSH1 0x20 DUP1 SWAP2 DIV MUL PUSH1 0x20 ADD PUSH1 0x40 MLOAD SWAP1 DUP2 ADD PUSH1 0x40 MSTORE DUP1 SWAP3 SWAP2 SWAP1 DUP2 DUP2 MSTORE PUSH1 0x20 ADD DUP3 DUP1 SLOAD PUSH2 0x534 SWAP1 PUSH2 0x1C17 JUMP JUMPDEST DUP1 ISZERO PUSH2 0x581 JUMPI DUP1 PUSH1 0x1F LT PUSH2 0x556 JUMPI PUSH2 0x100 DUP1 DUP4 SLOAD DIV MUL DUP4 MSTORE SWAP2 PUSH1 0x20 ADD SWAP2 PUSH2 0x581 JUMP JUMPDEST DUP3 ADD SWAP2 SWAP1 PUSH1 0x0 MSTORE PUSH1 0x20 PUSH1 0x0 KECCAK256 SWAP1 JUMPDEST DUP2 SLOAD DUP2 MSTORE SWAP1 PUSH1 0x1 ADD SWAP1 PUSH1 0x20 ADD DUP1 DUP4 GT PUSH2 0x564 JUMPI DUP3 SWAP1 SUB PUSH1 0x1F AND DUP3 ADD SWAP2 JUMPDEST POP POP POP POP POP DUP2 MSTORE PUSH1 0x20 ADD PUSH1 0x1 DUP3 ADD DUP1 SLOAD PUSH2 0x59A SWAP1 PUSH2 0x1C17 JUMP JUMPDEST DUP1 PUSH1 0x1F ADD PUSH1 0x20 DUP1 SWAP2 DIV MUL PUSH1 0x20 ADD PUSH1 0x40 MLOAD SWAP1 DUP2 ADD PUSH1 0x40 MSTORE DUP1 SWAP3 SWAP2 SWAP1 DUP2 DUP2 MSTORE PUSH1 0x20 ADD DUP3 DUP1 SLOAD PUSH2 0x5C6 SWAP1 PUSH2 0x1C17 JUMP JUMPDEST DUP1 ISZERO PUSH2 0x613 JUMPI DUP1 PUSH1 0x1F LT PUSH2 0x5E8 JUMPI PUSH2 0x100 DUP1 DUP4 SLOAD DIV MUL DUP4 MSTORE SWAP2 PUSH1 0x20 ADD SWAP2 PUSH2 0x613 JUMP JUMPDEST DUP3 ADD SWAP2 SWAP1 PUSH1 0x0 MSTORE PUSH1 0x20 PUSH1 0x0 KECCAK256 SWAP1 JUMPDEST DUP2 SLOAD DUP2 MSTORE SWAP1 PUSH1 0x1 ADD SWAP1 PUSH1 0x20 ADD DUP1 DUP4 GT PUSH2 0x5F6 JUMPI DUP3 SWAP1 SUB PUSH1 0x1F AND DUP3 ADD SWAP2 JUMPDEST POP POP POP POP POP DUP2 MSTORE PUSH1 0x20 ADD PUSH1 0x2 DUP3 ADD DUP1 SLOAD PUSH2 0x62C SWAP1 PUSH2 0x1C17 JUMP JUMPDEST DUP1 PUSH1 0x1F ADD PUSH1 0x20 DUP1 SWAP2 DIV MUL PUSH1 0x20 ADD PUSH1 0x40 MLOAD SWAP1 DUP2 ADD PUSH1 0x40 MSTORE DUP1 SWAP3 SWAP2 SWAP1 DUP2 DUP2 MSTORE PUSH1 0x20 ADD DUP3 DUP1 SLOAD PUSH2 0x658 SWAP1 PUSH2 0x1C17 JUMP JUMPDEST DUP1 ISZERO PUSH2 0x6A5 JUMPI DUP1 PUSH1 0x1F LT PUSH2 0x67A JUMPI PUSH2 0x100 DUP1 DUP4 SLOAD DIV MUL DUP4 MSTORE SWAP2 PUSH1 0x20 ADD SWAP2 PUSH2 0x6A5 JUMP JUMPDEST DUP3 ADD SWAP2 SWAP1 PUSH1 0x0 MSTORE PUSH1 0x20 PUSH1 0x0 KECCAK256 SWAP1 JUMPDEST DUP2 SLOAD DUP2 MSTORE SWAP1 PUSH1 0x1 ADD SWAP1 PUSH1 0x20 ADD DUP1 DUP4 GT PUSH2 0x688 JUMPI DUP3 SWAP1 SUB PUSH1 0x1F AND DUP3 ADD SWAP2 JUMPDEST POP POP POP POP POP DUP2 MSTORE PUSH1 0x20 ADD PUSH1 0x3 DUP3 ADD DUP1 SLOAD PUSH2 0x6BE SWAP1 PUSH2 0x1C17 JUMP JUMPDEST DUP1 PUSH1 0x1F ADD PUSH1 0x20 DUP1 SWAP2 DIV MUL PUSH1 0x20 ADD PUSH1 0x40 MLOAD SWAP1 DUP2 ADD PUSH1 0x40 MSTORE DUP1 SWAP3 SWAP2 SWAP1 DUP2 DUP2 MSTORE PUSH1 0x20 ADD DUP3 DUP1 SLOAD PUSH2 0x6EA SWAP1 PUSH2 0x1C17 JUMP JUMPDEST DUP1 ISZERO PUSH2 0x737 JUMPI DUP1 PUSH1 0x1F LT PUSH2 0x70C JUMPI PUSH2 0x100 DUP1 DUP4 SLOAD DIV MUL DUP4 MSTORE SWAP2 PUSH1 0x20 ADD SWAP2 PUSH2 0x737 JUMP JUMPDEST DUP3 ADD SWAP2 SWAP1 PUSH1 0x0 MSTORE PUSH1 0x20 PUSH1 0x0 KECCAK256 SWAP1 JUMPDEST DUP2 SLOAD DUP2 MSTORE SWAP1 PUSH1 0x1 ADD SWAP1 PUSH1 0x20 ADD DUP1 DUP4 GT PUSH2 0x71A JUMPI DUP3 SWAP1 SUB PUSH1 0x1F AND DUP3 ADD SWAP2 JUMPDEST POP POP POP POP POP DUP2 MSTORE PUSH1 0x20 ADD PUSH1 0x4 DUP3 ADD PUSH1 0x0 SWAP1 SLOAD SWAP1 PUSH2 0x100 EXP SWAP1 DIV PUSH20 0xFFFFFFFFFFFFFFFFFFFFFFFFFFFFFFFFFFFFFFFF AND PUSH20 0xFFFFFFFFFFFFFFFFFFFFFFFFFFFFFFFFFFFFFFFF AND PUSH20 0xFFFFFFFFFFFFFFFFFFFFFFFFFFFFFFFFFFFFFFFF AND DUP2 MSTORE POP POP DUP2 MSTORE PUSH1 0x20 ADD SWAP1 PUSH1 0x1 ADD SWAP1 PUSH2 0x4D5 JUMP JUMPDEST POP POP POP POP SWAP2 POP POP PUSH2 0x7B3 JUMP JUMPDEST POP JUMPDEST SWAP2 SWAP1 POP JUMP JUMPDEST PUSH1 0x60 PUSH1 0x0 PUSH2 0x7C4 PUSH2 0xC57 JUMP JUMPDEST SWAP1 POP PUSH1 0x0 PUSH1 0x1 PUSH1 0x0 CALLER PUSH20 0xFFFFFFFFFFFFFFFFFFFFFFFFFFFFFFFFFFFFFFFF AND PUSH20 0xFFFFFFFFFFFFFFFFFFFFFFFFFFFFFFFFFFFFFFFF AND DUP2 MSTORE PUSH1 0x20 ADD SWAP1 DUP2 MSTORE PUSH1 0x20 ADD PUSH1 0x0 KECCAK256 PUSH1 0x3 ADD DUP1 SLOAD PUSH2 0x815 SWAP1 PUSH2 0x1C17 JUMP JUMPDEST DUP1 PUSH1 0x1F ADD PUSH1 0x20 DUP1 SWAP2 DIV MUL PUSH1 0x20 ADD PUSH1 0x40 MLOAD SWAP1 DUP2 ADD PUSH1 0x40 MSTORE DUP1 SWAP3 SWAP2 SWAP1 DUP2 DUP2 MSTORE PUSH1 0x20 ADD DUP3 DUP1 SLOAD PUSH2 0x841 SWAP1 PUSH2 0x1C17 JUMP JUMPDEST DUP1 ISZERO PUSH2 0x88E JUMPI DUP1 PUSH1 0x1F LT PUSH2 0x863 JUMPI PUSH2 0x100 DUP1 DUP4 SLOAD DIV MUL DUP4 MSTORE SWAP2 PUSH1 0x20 ADD SWAP2 PUSH2 0x88E JUMP JUMPDEST DUP3 ADD SWAP2 SWAP1 PUSH1 0x0 MSTORE PUSH1 0x20 PUSH1 0x0 KECCAK256 SWAP1 JUMPDEST DUP2 SLOAD DUP2 MSTORE SWAP1 PUSH1 0x1 ADD SWAP1 PUSH1 0x20 ADD DUP1 DUP4 GT PUSH2 0x871 JUMPI DUP3 SWAP1 SUB PUSH1 0x1F AND DUP3 ADD SWAP2 JUMPDEST POP POP POP POP POP SWAP1 POP DUP5 DUP1 MLOAD SWAP1 PUSH1 0x20 ADD KECCAK256 DUP3 DUP1 MLOAD SWAP1 PUSH1 0x20 ADD KECCAK256 EQ DUP1 ISZERO PUSH2 0x8BF JUMPI POP DUP4 DUP1 MLOAD SWAP1 PUSH1 0x20 ADD KECCAK256 DUP2 DUP1 MLOAD SWAP1 PUSH1 0x20 ADD KECCAK256 EQ JUMPDEST ISZERO PUSH2 0x8CE JUMPI DUP5 SWAP3 POP POP POP PUSH2 0x8EC JUMP JUMPDEST PUSH1 0x40 MLOAD DUP1 PUSH1 0x60 ADD PUSH1 0x40 MSTORE DUP1 PUSH1 0x2F DUP2 MSTORE PUSH1 0x20 ADD PUSH2 0x1DBE PUSH1 0x2F SWAP2 CODECOPY SWAP3 POP POP POP JUMPDEST SWAP3 SWAP2 POP POP JUMP JUMPDEST PUSH1 0x60 PUSH2 0x8FC PUSH2 0x128B JUMP JUMPDEST PUSH20 0xFFFFFFFFFFFFFFFFFFFFFFFFFFFFFFFFFFFFFFFF AND PUSH1 0x1 PUSH1 0x0 CALLER PUSH20 0xFFFFFFFFFFFFFFFFFFFFFFFFFFFFFFFFFFFFFFFF AND PUSH20 0xFFFFFFFFFFFFFFFFFFFFFFFFFFFFFFFFFFFFFFFF AND DUP2 MSTORE PUSH1 0x20 ADD SWAP1 DUP2 MSTORE PUSH1 0x20 ADD PUSH1 0x0 KECCAK256 PUSH1 0x5 ADD PUSH1 0x0 SWAP1 SLOAD SWAP1 PUSH2 0x100 EXP SWAP1 DIV PUSH20 0xFFFFFFFFFFFFFFFFFFFFFFFFFFFFFFFFFFFFFFFF AND PUSH20 0xFFFFFFFFFFFFFFFFFFFFFFFFFFFFFFFFFFFFFFFF AND EQ PUSH2 0x9CB JUMPI PUSH1 0x40 MLOAD PUSH32 0x8C379A000000000000000000000000000000000000000000000000000000000 DUP2 MSTORE PUSH1 0x4 ADD PUSH2 0x9C2 SWAP1 PUSH2 0x1CBA JUMP JUMPDEST PUSH1 0x40 MLOAD DUP1 SWAP2 SUB SWAP1 REVERT JUMPDEST DUP6 PUSH1 0x1 PUSH1 0x0 CALLER PUSH20 0xFFFFFFFFFFFFFFFFFFFFFFFFFFFFFFFFFFFFFFFF AND PUSH20 0xFFFFFFFFFFFFFFFFFFFFFFFFFFFFFFFFFFFFFFFF AND DUP2 MSTORE PUSH1 0x20 ADD SWAP1 DUP2 MSTORE PUSH1 0x20 ADD PUSH1 0x0 KECCAK256 PUSH1 0x0 ADD SWAP1 DUP1 MLOAD SWAP1 PUSH1 0x20 ADD SWAP1 PUSH2 0xA21 SWAP3 SWAP2 SWAP1 PUSH2 0x12F5 JUMP JUMPDEST POP DUP5 PUSH1 0x1 PUSH1 0x0 CALLER PUSH20 0xFFFFFFFFFFFFFFFFFFFFFFFFFFFFFFFFFFFFFFFF AND PUSH20 0xFFFFFFFFFFFFFFFFFFFFFFFFFFFFFFFFFFFFFFFF AND DUP2 MSTORE PUSH1 0x20 ADD SWAP1 DUP2 MSTORE PUSH1 0x20 ADD PUSH1 0x0 KECCAK256 PUSH1 0x1 ADD SWAP1 DUP1 MLOAD SWAP1 PUSH1 0x20 ADD SWAP1 PUSH2 0xA78 SWAP3 SWAP2 SWAP1 PUSH2 0x12F5 JUMP JUMPDEST POP CALLER PUSH1 0x1 PUSH1 0x0 CALLER PUSH20 0xFFFFFFFFFFFFFFFFFFFFFFFFFFFFFFFFFFFFFFFF AND PUSH20 0xFFFFFFFFFFFFFFFFFFFFFFFFFFFFFFFFFFFFFFFF AND DUP2 MSTORE PUSH1 0x20 ADD SWAP1 DUP2 MSTORE PUSH1 0x20 ADD PUSH1 0x0 KECCAK256 PUSH1 0x5 ADD PUSH1 0x0 PUSH2 0x100 EXP DUP2 SLOAD DUP2 PUSH20 0xFFFFFFFFFFFFFFFFFFFFFFFFFFFFFFFFFFFFFFFF MUL NOT AND SWAP1 DUP4 PUSH20 0xFFFFFFFFFFFFFFFFFFFFFFFFFFFFFFFFFFFFFFFF AND MUL OR SWAP1 SSTORE POP DUP4 PUSH1 0x1 PUSH1 0x0 CALLER PUSH20 0xFFFFFFFFFFFFFFFFFFFFFFFFFFFFFFFFFFFFFFFF AND PUSH20 0xFFFFFFFFFFFFFFFFFFFFFFFFFFFFFFFFFFFFFFFF AND DUP2 MSTORE PUSH1 0x20 ADD SWAP1 DUP2 MSTORE PUSH1 0x20 ADD PUSH1 0x0 KECCAK256 PUSH1 0x2 ADD SWAP1 DUP1 MLOAD SWAP1 PUSH1 0x20 ADD SWAP1 PUSH2 0xB50 SWAP3 SWAP2 SWAP1 PUSH2 0x12F5 JUMP JUMPDEST POP DUP3 PUSH1 0x1 PUSH1 0x0 CALLER PUSH20 0xFFFFFFFFFFFFFFFFFFFFFFFFFFFFFFFFFFFFFFFF AND PUSH20 0xFFFFFFFFFFFFFFFFFFFFFFFFFFFFFFFFFFFFFFFF AND DUP2 MSTORE PUSH1 0x20 ADD SWAP1 DUP2 MSTORE PUSH1 0x20 ADD PUSH1 0x0 KECCAK256 PUSH1 0x3 ADD SWAP1 DUP1 MLOAD SWAP1 PUSH1 0x20 ADD SWAP1 PUSH2 0xBA7 SWAP3 SWAP2 SWAP1 PUSH2 0x12F5 JUMP JUMPDEST POP DUP2 PUSH1 0x1 PUSH1 0x0 CALLER PUSH20 0xFFFFFFFFFFFFFFFFFFFFFFFFFFFFFFFFFFFFFFFF AND PUSH20 0xFFFFFFFFFFFFFFFFFFFFFFFFFFFFFFFFFFFFFFFF AND DUP2 MSTORE PUSH1 0x20 ADD SWAP1 DUP2 MSTORE PUSH1 0x20 ADD PUSH1 0x0 KECCAK256 PUSH1 0x4 ADD SWAP1 DUP1 MLOAD SWAP1 PUSH1 0x20 ADD SWAP1 PUSH2 0xBFE SWAP3 SWAP2 SWAP1 PUSH2 0x12F5 JUMP JUMPDEST POP PUSH1 0x0 DUP1 DUP2 SLOAD DUP1 SWAP3 SWAP2 SWAP1 PUSH2 0xC11 SWAP1 PUSH2 0x1D09 JUMP JUMPDEST SWAP2 SWAP1 POP SSTORE POP PUSH1 0x40 MLOAD DUP1 PUSH1 0x40 ADD PUSH1 0x40 MSTORE DUP1 PUSH1 0x17 DUP2 MSTORE PUSH1 0x20 ADD PUSH32 0x5375636365737366756C6C792052656769737465726564000000000000000000 DUP2 MSTORE POP SWAP1 POP SWAP6 SWAP5 POP POP POP POP POP JUMP JUMPDEST PUSH1 0x60 PUSH1 0x1 PUSH1 0x0 CALLER PUSH20 0xFFFFFFFFFFFFFFFFFFFFFFFFFFFFFFFFFFFFFFFF AND PUSH20 0xFFFFFFFFFFFFFFFFFFFFFFFFFFFFFFFFFFFFFFFF AND DUP2 MSTORE PUSH1 0x20 ADD SWAP1 DUP2 MSTORE PUSH1 0x20 ADD PUSH1 0x0 KECCAK256 PUSH1 0x2 ADD DUP1 SLOAD PUSH2 0xCA6 SWAP1 PUSH2 0x1C17 JUMP JUMPDEST DUP1 PUSH1 0x1F ADD PUSH1 0x20 DUP1 SWAP2 DIV MUL PUSH1 0x20 ADD PUSH1 0x40 MLOAD SWAP1 DUP2 ADD PUSH1 0x40 MSTORE DUP1 SWAP3 SWAP2 SWAP1 DUP2 DUP2 MSTORE PUSH1 0x20 ADD DUP3 DUP1 SLOAD PUSH2 0xCD2 SWAP1 PUSH2 0x1C17 JUMP JUMPDEST DUP1 ISZERO PUSH2 0xD1F JUMPI DUP1 PUSH1 0x1F LT PUSH2 0xCF4 JUMPI PUSH2 0x100 DUP1 DUP4 SLOAD DIV MUL DUP4 MSTORE SWAP2 PUSH1 0x20 ADD SWAP2 PUSH2 0xD1F JUMP JUMPDEST DUP3 ADD SWAP2 SWAP1 PUSH1 0x0 MSTORE PUSH1 0x20 PUSH1 0x0 KECCAK256 SWAP1 JUMPDEST DUP2 SLOAD DUP2 MSTORE SWAP1 PUSH1 0x1 ADD SWAP1 PUSH1 0x20 ADD DUP1 DUP4 GT PUSH2 0xD02 JUMPI DUP3 SWAP1 SUB PUSH1 0x1F AND DUP3 ADD SWAP2 JUMPDEST POP POP POP POP POP SWAP1 POP SWAP1 JUMP JUMPDEST PUSH1 0x60 PUSH1 0x0 PUSH2 0xD35 PUSH2 0xC57 JUMP JUMPDEST MLOAD EQ PUSH2 0x10A8 JUMPI DUP5 PUSH1 0x2 PUSH1 0x0 CALLER PUSH20 0xFFFFFFFFFFFFFFFFFFFFFFFFFFFFFFFFFFFFFFFF AND PUSH20 0xFFFFFFFFFFFFFFFFFFFFFFFFFFFFFFFFFFFFFFFF AND DUP2 MSTORE PUSH1 0x20 ADD SWAP1 DUP2 MSTORE PUSH1 0x20 ADD PUSH1 0x0 KECCAK256 PUSH1 0x0 ADD SWAP1 DUP1 MLOAD SWAP1 PUSH1 0x20 ADD SWAP1 PUSH2 0xD91 SWAP3 SWAP2 SWAP1 PUSH2 0x12F5 JUMP JUMPDEST POP DUP4 PUSH1 0x2 PUSH1 0x0 CALLER PUSH20 0xFFFFFFFFFFFFFFFFFFFFFFFFFFFFFFFFFFFFFFFF AND PUSH20 0xFFFFFFFFFFFFFFFFFFFFFFFFFFFFFFFFFFFFFFFF AND DUP2 MSTORE PUSH1 0x20 ADD SWAP1 DUP2 MSTORE PUSH1 0x20 ADD PUSH1 0x0 KECCAK256 PUSH1 0x1 ADD SWAP1 DUP1 MLOAD SWAP1 PUSH1 0x20 ADD SWAP1 PUSH2 0xDE8 SWAP3 SWAP2 SWAP1 PUSH2 0x12F5 JUMP JUMPDEST POP DUP3 PUSH1 0x2 PUSH1 0x0 CALLER PUSH20 0xFFFFFFFFFFFFFFFFFFFFFFFFFFFFFFFFFFFFFFFF AND PUSH20 0xFFFFFFFFFFFFFFFFFFFFFFFFFFFFFFFFFFFFFFFF AND DUP2 MSTORE PUSH1 0x20 ADD SWAP1 DUP2 MSTORE PUSH1 0x20 ADD PUSH1 0x0 KECCAK256 PUSH1 0x2 ADD SWAP1 DUP1 MLOAD SWAP1 PUSH1 0x20 ADD SWAP1 PUSH2 0xE3F SWAP3 SWAP2 SWAP1 PUSH2 0x12F5 JUMP JUMPDEST POP DUP2 PUSH1 0x2 PUSH1 0x0 CALLER PUSH20 0xFFFFFFFFFFFFFFFFFFFFFFFFFFFFFFFFFFFFFFFF AND PUSH20 0xFFFFFFFFFFFFFFFFFFFFFFFFFFFFFFFFFFFFFFFF AND DUP2 MSTORE PUSH1 0x20 ADD SWAP1 DUP2 MSTORE PUSH1 0x20 ADD PUSH1 0x0 KECCAK256 PUSH1 0x3 ADD SWAP1 DUP1 MLOAD SWAP1 PUSH1 0x20 ADD SWAP1 PUSH2 0xE96 SWAP3 SWAP2 SWAP1 PUSH2 0x12F5 JUMP JUMPDEST POP CALLER PUSH1 0x2 PUSH1 0x0 CALLER PUSH20 0xFFFFFFFFFFFFFFFFFFFFFFFFFFFFFFFFFFFFFFFF AND PUSH20 0xFFFFFFFFFFFFFFFFFFFFFFFFFFFFFFFFFFFFFFFF AND DUP2 MSTORE PUSH1 0x20 ADD SWAP1 DUP2 MSTORE PUSH1 0x20 ADD PUSH1 0x0 KECCAK256 PUSH1 0x4 ADD PUSH1 0x0 PUSH2 0x100 EXP DUP2 SLOAD DUP2 PUSH20 0xFFFFFFFFFFFFFFFFFFFFFFFFFFFFFFFFFFFFFFFF MUL NOT AND SWAP1 DUP4 PUSH20 0xFFFFFFFFFFFFFFFFFFFFFFFFFFFFFFFFFFFFFFFF AND MUL OR SWAP1 SSTORE POP PUSH1 0x3 PUSH1 0x2 PUSH1 0x0 CALLER PUSH20 0xFFFFFFFFFFFFFFFFFFFFFFFFFFFFFFFFFFFFFFFF AND PUSH20 0xFFFFFFFFFFFFFFFFFFFFFFFFFFFFFFFFFFFFFFFF AND DUP2 MSTORE PUSH1 0x20 ADD SWAP1 DUP2 MSTORE PUSH1 0x20 ADD PUSH1 0x0 KECCAK256 SWAP1 DUP1 PUSH1 0x1 DUP2 SLOAD ADD DUP1 DUP3 SSTORE DUP1 SWAP2 POP POP PUSH1 0x1 SWAP1 SUB SWAP1 PUSH1 0x0 MSTORE PUSH1 0x20 PUSH1 0x0 KECCAK256 SWAP1 PUSH1 0x5 MUL ADD PUSH1 0x0 SWAP1 SWAP2 SWAP1 SWAP2 SWAP1 SWAP2 POP PUSH1 0x0 DUP3 ADD DUP2 PUSH1 0x0 ADD SWAP1 DUP1 SLOAD PUSH2 0xF96 SWAP1 PUSH2 0x1C17 JUMP JUMPDEST PUSH2 0xFA1 SWAP3 SWAP2 SWAP1 PUSH2 0x137B JUMP JUMPDEST POP PUSH1 0x1 DUP3 ADD DUP2 PUSH1 0x1 ADD SWAP1 DUP1 SLOAD PUSH2 0xFB6 SWAP1 PUSH2 0x1C17 JUMP JUMPDEST PUSH2 0xFC1 SWAP3 SWAP2 SWAP1 PUSH2 0x137B JUMP JUMPDEST POP PUSH1 0x2 DUP3 ADD DUP2 PUSH1 0x2 ADD SWAP1 DUP1 SLOAD PUSH2 0xFD6 SWAP1 PUSH2 0x1C17 JUMP JUMPDEST PUSH2 0xFE1 SWAP3 SWAP2 SWAP1 PUSH2 0x137B JUMP JUMPDEST POP PUSH1 0x3 DUP3 ADD DUP2 PUSH1 0x3 ADD SWAP1 DUP1 SLOAD PUSH2 0xFF6 SWAP1 PUSH2 0x1C17 JUMP JUMPDEST PUSH2 0x1001 SWAP3 SWAP2 SWAP1 PUSH2 0x137B JUMP JUMPDEST POP PUSH1 0x4 DUP3 ADD PUSH1 0x0 SWAP1 SLOAD SWAP1 PUSH2 0x100 EXP SWAP1 DIV PUSH20 0xFFFFFFFFFFFFFFFFFFFFFFFFFFFFFFFFFFFFFFFF AND DUP2 PUSH1 0x4 ADD PUSH1 0x0 PUSH2 0x100 EXP DUP2 SLOAD DUP2 PUSH20 0xFFFFFFFFFFFFFFFFFFFFFFFFFFFFFFFFFFFFFFFF MUL NOT AND SWAP1 DUP4 PUSH20 0xFFFFFFFFFFFFFFFFFFFFFFFFFFFFFFFFFFFFFFFF AND MUL OR SWAP1 SSTORE POP POP POP PUSH1 0x40 MLOAD DUP1 PUSH1 0x40 ADD PUSH1 0x40 MSTORE DUP1 PUSH1 0x1A DUP2 MSTORE PUSH1 0x20 ADD PUSH32 0x50726F6A656374205361766564205375636365737366756C6C79000000000000 DUP2 MSTORE POP SWAP1 POP PUSH2 0x10E1 JUMP JUMPDEST PUSH1 0x40 MLOAD DUP1 PUSH1 0x40 ADD PUSH1 0x40 MSTORE DUP1 PUSH1 0x14 DUP2 MSTORE PUSH1 0x20 ADD PUSH32 0x4572726F7220536176696E672050726F6A656374000000000000000000000000 DUP2 MSTORE POP SWAP1 POP JUMPDEST SWAP5 SWAP4 POP POP POP POP JUMP JUMPDEST PUSH1 0x60 PUSH1 0x1 PUSH1 0x0 CALLER PUSH20 0xFFFFFFFFFFFFFFFFFFFFFFFFFFFFFFFFFFFFFFFF AND PUSH20 0xFFFFFFFFFFFFFFFFFFFFFFFFFFFFFFFFFFFFFFFF AND DUP2 MSTORE PUSH1 0x20 ADD SWAP1 DUP2 MSTORE PUSH1 0x20 ADD PUSH1 0x0 KECCAK256 PUSH1 0x5 ADD PUSH1 0x0 SWAP1 SLOAD SWAP1 PUSH2 0x100 EXP SWAP1 DIV PUSH20 0xFFFFFFFFFFFFFFFFFFFFFFFFFFFFFFFFFFFFFFFF AND PUSH20 0xFFFFFFFFFFFFFFFFFFFFFFFFFFFFFFFFFFFFFFFF AND CALLER PUSH20 0xFFFFFFFFFFFFFFFFFFFFFFFFFFFFFFFFFFFFFFFF AND EQ PUSH2 0x11BB JUMPI PUSH1 0x40 MLOAD PUSH32 0x8C379A000000000000000000000000000000000000000000000000000000000 DUP2 MSTORE PUSH1 0x4 ADD PUSH2 0x11B2 SWAP1 PUSH2 0x1D9D JUMP JUMPDEST PUSH1 0x40 MLOAD DUP1 SWAP2 SUB SWAP1 REVERT JUMPDEST PUSH1 0x1 PUSH1 0x0 CALLER PUSH20 0xFFFFFFFFFFFFFFFFFFFFFFFFFFFFFFFFFFFFFFFF AND PUSH20 0xFFFFFFFFFFFFFFFFFFFFFFFFFFFFFFFFFFFFFFFF AND DUP2 MSTORE PUSH1 0x20 ADD SWAP1 DUP2 MSTORE PUSH1 0x20 ADD PUSH1 0x0 KECCAK256 PUSH1 0x0 ADD DUP1 SLOAD PUSH2 0x1208 SWAP1 PUSH2 0x1C17 JUMP JUMPDEST DUP1 PUSH1 0x1F ADD PUSH1 0x20 DUP1 SWAP2 DIV MUL PUSH1 0x20 ADD PUSH1 0x40 MLOAD SWAP1 DUP2 ADD PUSH1 0x40 MSTORE DUP1 SWAP3 SWAP2 SWAP1 DUP2 DUP2 MSTORE PUSH1 0x20 ADD DUP3 DUP1 SLOAD PUSH2 0x1234 SWAP1 PUSH2 0x1C17 JUMP JUMPDEST DUP1 ISZERO PUSH2 0x1281 JUMPI DUP1 PUSH1 0x1F LT PUSH2 0x1256 JUMPI PUSH2 0x100 DUP1 DUP4 SLOAD DIV MUL DUP4 MSTORE SWAP2 PUSH1 0x20 ADD SWAP2 PUSH2 0x1281 JUMP JUMPDEST DUP3 ADD SWAP2 SWAP1 PUSH1 0x0 MSTORE PUSH1 0x20 PUSH1 0x0 KECCAK256 SWAP1 JUMPDEST DUP2 SLOAD DUP2 MSTORE SWAP1 PUSH1 0x1 ADD SWAP1 PUSH1 0x20 ADD DUP1 DUP4 GT PUSH2 0x1264 JUMPI DUP3 SWAP1 SUB PUSH1 0x1F AND DUP3 ADD SWAP2 JUMPDEST POP POP POP POP POP SWAP1 POP SWAP1 JUMP JUMPDEST PUSH1 0x0 PUSH1 0x1 PUSH1 0x0 CALLER PUSH20 0xFFFFFFFFFFFFFFFFFFFFFFFFFFFFFFFFFFFFFFFF AND PUSH20 0xFFFFFFFFFFFFFFFFFFFFFFFFFFFFFFFFFFFFFFFF AND DUP2 MSTORE PUSH1 0x20 ADD SWAP1 DUP2 MSTORE PUSH1 0x20 ADD PUSH1 0x0 KECCAK256 PUSH1 0x5 ADD PUSH1 0x0 SWAP1 SLOAD SWAP1 PUSH2 0x100 EXP SWAP1 DIV PUSH20 0xFFFFFFFFFFFFFFFFFFFFFFFFFFFFFFFFFFFFFFFF AND SWAP1 POP SWAP1 JUMP JUMPDEST DUP3 DUP1 SLOAD PUSH2 0x1301 SWAP1 PUSH2 0x1C17 JUMP JUMPDEST SWAP1 PUSH1 0x0 MSTORE PUSH1 0x20 PUSH1 0x0 KECCAK256 SWAP1 PUSH1 0x1F ADD PUSH1 0x20 SWAP1 DIV DUP2 ADD SWAP3 DUP3 PUSH2 0x1323 JUMPI PUSH1 0x0 DUP6 SSTORE PUSH2 0x136A JUMP JUMPDEST DUP3 PUSH1 0x1F LT PUSH2 0x133C JUMPI DUP1 MLOAD PUSH1 0xFF NOT AND DUP4 DUP1 ADD OR DUP6 SSTORE PUSH2 0x136A JUMP JUMPDEST DUP3 DUP1 ADD PUSH1 0x1 ADD DUP6 SSTORE DUP3 ISZERO PUSH2 0x136A JUMPI SWAP2 DUP3 ADD JUMPDEST DUP3 DUP2 GT ISZERO PUSH2 0x1369 JUMPI DUP3 MLOAD DUP3 SSTORE SWAP2 PUSH1 0x20 ADD SWAP2 SWAP1 PUSH1 0x1 ADD SWAP1 PUSH2 0x134E JUMP JUMPDEST JUMPDEST POP SWAP1 POP PUSH2 0x1377 SWAP2 SWAP1 PUSH2 0x1408 JUMP JUMPDEST POP SWAP1 JUMP JUMPDEST DUP3 DUP1 SLOAD PUSH2 0x1387 SWAP1 PUSH2 0x1C17 JUMP JUMPDEST SWAP1 PUSH1 0x0 MSTORE PUSH1 0x20 PUSH1 0x0 KECCAK256 SWAP1 PUSH1 0x1F ADD PUSH1 0x20 SWAP1 DIV DUP2 ADD SWAP3 DUP3 PUSH2 0x13A9 JUMPI PUSH1 0x0 DUP6 SSTORE PUSH2 0x13F7 JUMP JUMPDEST DUP3 PUSH1 0x1F LT PUSH2 0x13BA JUMPI DUP1 SLOAD DUP6 SSTORE PUSH2 0x13F7 JUMP JUMPDEST DUP3 DUP1 ADD PUSH1 0x1 ADD DUP6 SSTORE DUP3 ISZERO PUSH2 0x13F7 JUMPI PUSH1 0x0 MSTORE PUSH1 0x20 PUSH1 0x0 KECCAK256 SWAP2 PUSH1 0x1F ADD PUSH1 0x20 SWAP1 DIV DUP3 ADD JUMPDEST DUP3 DUP2 GT ISZERO PUSH2 0x13F6 JUMPI DUP3 SLOAD DUP3 SSTORE SWAP2 PUSH1 0x1 ADD SWAP2 SWAP1 PUSH1 0x1 ADD SWAP1 PUSH2 0x13DB JUMP JUMPDEST JUMPDEST POP SWAP1 POP PUSH2 0x1404 SWAP2 SWAP1 PUSH2 0x1408 JUMP JUMPDEST POP SWAP1 JUMP JUMPDEST JUMPDEST DUP1 DUP3 GT ISZERO PUSH2 0x1421 JUMPI PUSH1 0x0 DUP2 PUSH1 0x0 SWAP1 SSTORE POP PUSH1 0x1 ADD PUSH2 0x1409 JUMP JUMPDEST POP SWAP1 JUMP JUMPDEST PUSH1 0x0 PUSH1 0x40 MLOAD SWAP1 POP SWAP1 JUMP JUMPDEST PUSH1 0x0 DUP1 REVERT JUMPDEST PUSH1 0x0 DUP1 REVERT JUMPDEST PUSH1 0x0 DUP2 SWAP1 POP SWAP2 SWAP1 POP JUMP JUMPDEST PUSH2 0x144C DUP2 PUSH2 0x1439 JUMP JUMPDEST DUP2 EQ PUSH2 0x1457 JUMPI PUSH1 0x0 DUP1 REVERT JUMPDEST POP JUMP JUMPDEST PUSH1 0x0 DUP2 CALLDATALOAD SWAP1 POP PUSH2 0x1469 DUP2 PUSH2 0x1443 JUMP JUMPDEST SWAP3 SWAP2 POP POP JUMP JUMPDEST PUSH1 0x0 PUSH1 0x20 DUP3 DUP5 SUB SLT ISZERO PUSH2 0x1485 JUMPI PUSH2 0x1484 PUSH2 0x142F JUMP JUMPDEST JUMPDEST PUSH1 0x0 PUSH2 0x1493 DUP5 DUP3 DUP6 ADD PUSH2 0x145A JUMP JUMPDEST SWAP2 POP POP SWAP3 SWAP2 POP POP JUMP JUMPDEST PUSH1 0x0 DUP2 MLOAD SWAP1 POP SWAP2 SWAP1 POP JUMP JUMPDEST PUSH1 0x0 DUP3 DUP3 MSTORE PUSH1 0x20 DUP3 ADD SWAP1 POP SWAP3 SWAP2 POP POP JUMP JUMPDEST PUSH1 0x0 JUMPDEST DUP4 DUP2 LT ISZERO PUSH2 0x14D6 JUMPI DUP1 DUP3 ADD MLOAD DUP2 DUP5 ADD MSTORE PUSH1 0x20 DUP2 ADD SWAP1 POP PUSH2 0x14BB JUMP JUMPDEST DUP4 DUP2 GT ISZERO PUSH2 0x14E5 JUMPI PUSH1 0x0 DUP5 DUP5 ADD MSTORE JUMPDEST POP POP POP POP JUMP JUMPDEST PUSH1 0x0 PUSH1 0x1F NOT PUSH1 0x1F DUP4 ADD AND SWAP1 POP SWAP2 SWAP1 POP JUMP JUMPDEST PUSH1 0x0 PUSH2 0x1507 DUP3 PUSH2 0x149C JUMP JUMPDEST PUSH2 0x1511 DUP2 DUP6 PUSH2 0x14A7 JUMP JUMPDEST SWAP4 POP PUSH2 0x1521 DUP2 DUP6 PUSH1 0x20 DUP7 ADD PUSH2 0x14B8 JUMP JUMPDEST PUSH2 0x152A DUP2 PUSH2 0x14EB JUMP JUMPDEST DUP5 ADD SWAP2 POP POP SWAP3 SWAP2 POP POP JUMP JUMPDEST PUSH1 0x0 PUSH20 0xFFFFFFFFFFFFFFFFFFFFFFFFFFFFFFFFFFFFFFFF DUP3 AND SWAP1 POP SWAP2 SWAP1 POP JUMP JUMPDEST PUSH1 0x0 PUSH2 0x1560 DUP3 PUSH2 0x1535 JUMP JUMPDEST SWAP1 POP SWAP2 SWAP1 POP JUMP JUMPDEST PUSH2 0x1570 DUP2 PUSH2 0x1555 JUMP JUMPDEST DUP3 MSTORE POP POP JUMP JUMPDEST PUSH1 0x0 PUSH1 0xA0 DUP3 ADD SWAP1 POP DUP2 DUP2 SUB PUSH1 0x0 DUP4 ADD MSTORE PUSH2 0x1590 DUP2 DUP9 PUSH2 0x14FC JUMP JUMPDEST SWAP1 POP DUP2 DUP2 SUB PUSH1 0x20 DUP4 ADD MSTORE PUSH2 0x15A4 DUP2 DUP8 PUSH2 0x14FC JUMP JUMPDEST SWAP1 POP DUP2 DUP2 SUB PUSH1 0x40 DUP4 ADD MSTORE PUSH2 0x15B8 DUP2 DUP7 PUSH2 0x14FC JUMP JUMPDEST SWAP1 POP DUP2 DUP2 SUB PUSH1 0x60 DUP4 ADD MSTORE PUSH2 0x15CC DUP2 DUP6 PUSH2 0x14FC JUMP JUMPDEST SWAP1 POP PUSH2 0x15DB PUSH1 0x80 DUP4 ADD DUP5 PUSH2 0x1567 JUMP JUMPDEST SWAP7 SWAP6 POP POP POP POP POP POP JUMP JUMPDEST PUSH2 0x15EE DUP2 PUSH2 0x1439 JUMP JUMPDEST DUP3 MSTORE POP POP JUMP JUMPDEST PUSH1 0x0 PUSH1 0x20 DUP3 ADD SWAP1 POP PUSH2 0x1609 PUSH1 0x0 DUP4 ADD DUP5 PUSH2 0x15E5 JUMP JUMPDEST SWAP3 SWAP2 POP POP JUMP JUMPDEST PUSH1 0x0 DUP1 REVERT JUMPDEST PUSH1 0x0 DUP1 REVERT JUMPDEST PUSH32 0x4E487B7100000000000000000000000000000000000000000000000000000000 PUSH1 0x0 MSTORE PUSH1 0x41 PUSH1 0x4 MSTORE PUSH1 0x24 PUSH1 0x0 REVERT JUMPDEST PUSH2 0x1651 DUP3 PUSH2 0x14EB JUMP JUMPDEST DUP2 ADD DUP2 DUP2 LT PUSH8 0xFFFFFFFFFFFFFFFF DUP3 GT OR ISZERO PUSH2 0x1670 JUMPI PUSH2 0x166F PUSH2 0x1619 JUMP JUMPDEST JUMPDEST DUP1 PUSH1 0x40 MSTORE POP POP POP JUMP JUMPDEST PUSH1 0x0 PUSH2 0x1683 PUSH2 0x1425 JUMP JUMPDEST SWAP1 POP PUSH2 0x168F DUP3 DUP3 PUSH2 0x1648 JUMP JUMPDEST SWAP2 SWAP1 POP JUMP JUMPDEST PUSH1 0x0 PUSH8 0xFFFFFFFFFFFFFFFF DUP3 GT ISZERO PUSH2 0x16AF JUMPI PUSH2 0x16AE PUSH2 0x1619 JUMP JUMPDEST JUMPDEST PUSH2 0x16B8 DUP3 PUSH2 0x14EB JUMP JUMPDEST SWAP1 POP PUSH1 0x20 DUP2 ADD SWAP1 POP SWAP2 SWAP1 POP JUMP JUMPDEST DUP3 DUP2 DUP4 CALLDATACOPY PUSH1 0x0 DUP4 DUP4 ADD MSTORE POP POP POP JUMP JUMPDEST PUSH1 0x0 PUSH2 0x16E7 PUSH2 0x16E2 DUP5 PUSH2 0x1694 JUMP JUMPDEST PUSH2 0x1679 JUMP JUMPDEST SWAP1 POP DUP3 DUP2 MSTORE PUSH1 0x20 DUP2 ADD DUP5 DUP5 DUP5 ADD GT ISZERO PUSH2 0x1703 JUMPI PUSH2 0x1702 PUSH2 0x1614 JUMP JUMPDEST JUMPDEST PUSH2 0x170E DUP5 DUP3 DUP6 PUSH2 0x16C5 JUMP JUMPDEST POP SWAP4 SWAP3 POP POP POP JUMP JUMPDEST PUSH1 0x0 DUP3 PUSH1 0x1F DUP4 ADD SLT PUSH2 0x172B JUMPI PUSH2 0x172A PUSH2 0x160F JUMP JUMPDEST JUMPDEST DUP2 CALLDATALOAD PUSH2 0x173B DUP5 DUP3 PUSH1 0x20 DUP7 ADD PUSH2 0x16D4 JUMP JUMPDEST SWAP2 POP POP SWAP3 SWAP2 POP POP JUMP JUMPDEST PUSH1 0x0 PUSH1 0x20 DUP3 DUP5 SUB SLT ISZERO PUSH2 0x175A JUMPI PUSH2 0x1759 PUSH2 0x142F JUMP JUMPDEST JUMPDEST PUSH1 0x0 DUP3 ADD CALLDATALOAD PUSH8 0xFFFFFFFFFFFFFFFF DUP2 GT ISZERO PUSH2 0x1778 JUMPI PUSH2 0x1777 PUSH2 0x1434 JUMP JUMPDEST JUMPDEST PUSH2 0x1784 DUP5 DUP3 DUP6 ADD PUSH2 0x1716 JUMP JUMPDEST SWAP2 POP POP SWAP3 SWAP2 POP POP JUMP JUMPDEST PUSH1 0x0 DUP2 MLOAD SWAP1 POP SWAP2 SWAP1 POP JUMP JUMPDEST PUSH1 0x0 DUP3 DUP3 MSTORE PUSH1 0x20 DUP3 ADD SWAP1 POP SWAP3 SWAP2 POP POP JUMP JUMPDEST PUSH1 0x0 DUP2 SWAP1 POP PUSH1 0x20 DUP3 ADD SWAP1 POP SWAP2 SWAP1 POP JUMP JUMPDEST PUSH1 0x0 DUP3 DUP3 MSTORE PUSH1 0x20 DUP3 ADD SWAP1 POP SWAP3 SWAP2 POP POP JUMP JUMPDEST PUSH1 0x0 PUSH2 0x17D5 DUP3 PUSH2 0x149C JUMP JUMPDEST PUSH2 0x17DF DUP2 DUP6 PUSH2 0x17B9 JUMP JUMPDEST SWAP4 POP PUSH2 0x17EF DUP2 DUP6 PUSH1 0x20 DUP7 ADD PUSH2 0x14B8 JUMP JUMPDEST PUSH2 0x17F8 DUP2 PUSH2 0x14EB JUMP JUMPDEST DUP5 ADD SWAP2 POP POP SWAP3 SWAP2 POP POP JUMP JUMPDEST PUSH2 0x180C DUP2 PUSH2 0x1555 JUMP JUMPDEST DUP3 MSTORE POP POP JUMP JUMPDEST PUSH1 0x0 PUSH1 0xA0 DUP4 ADD PUSH1 0x0 DUP4 ADD MLOAD DUP5 DUP3 SUB PUSH1 0x0 DUP7 ADD MSTORE PUSH2 0x182F DUP3 DUP3 PUSH2 0x17CA JUMP JUMPDEST SWAP2 POP POP PUSH1 0x20 DUP4 ADD MLOAD DUP5 DUP3 SUB PUSH1 0x20 DUP7 ADD MSTORE PUSH2 0x1849 DUP3 DUP3 PUSH2 0x17CA JUMP JUMPDEST SWAP2 POP POP PUSH1 0x40 DUP4 ADD MLOAD DUP5 DUP3 SUB PUSH1 0x40 DUP7 ADD MSTORE PUSH2 0x1863 DUP3 DUP3 PUSH2 0x17CA JUMP JUMPDEST SWAP2 POP POP PUSH1 0x60 DUP4 ADD MLOAD DUP5 DUP3 SUB PUSH1 0x60 DUP7 ADD MSTORE PUSH2 0x187D DUP3 DUP3 PUSH2 0x17CA JUMP JUMPDEST SWAP2 POP POP PUSH1 0x80 DUP4 ADD MLOAD PUSH2 0x1892 PUSH1 0x80 DUP7 ADD DUP3 PUSH2 0x1803 JUMP JUMPDEST POP DUP1 SWAP2 POP POP SWAP3 SWAP2 POP POP JUMP JUMPDEST PUSH1 0x0 PUSH2 0x18A9 DUP4 DUP4 PUSH2 0x1812 JUMP JUMPDEST SWAP1 POP SWAP3 SWAP2 POP POP JUMP JUMPDEST PUSH1 0x0 PUSH1 0x20 DUP3 ADD SWAP1 POP SWAP2 SWAP1 POP JUMP JUMPDEST PUSH1 0x0 PUSH2 0x18C9 DUP3 PUSH2 0x178D JUMP JUMPDEST PUSH2 0x18D3 DUP2 DUP6 PUSH2 0x1798 JUMP JUMPDEST SWAP4 POP DUP4 PUSH1 0x20 DUP3 MUL DUP6 ADD PUSH2 0x18E5 DUP6 PUSH2 0x17A9 JUMP JUMPDEST DUP1 PUSH1 0x0 JUMPDEST DUP6 DUP2 LT ISZERO PUSH2 0x1921 JUMPI DUP5 DUP5 SUB DUP10 MSTORE DUP2 MLOAD PUSH2 0x1902 DUP6 DUP3 PUSH2 0x189D JUMP JUMPDEST SWAP5 POP PUSH2 0x190D DUP4 PUSH2 0x18B1 JUMP JUMPDEST SWAP3 POP PUSH1 0x20 DUP11 ADD SWAP10 POP POP PUSH1 0x1 DUP2 ADD SWAP1 POP PUSH2 0x18E9 JUMP JUMPDEST POP DUP3 SWAP8 POP DUP8 SWAP6 POP POP POP POP POP POP SWAP3 SWAP2 POP POP JUMP JUMPDEST PUSH1 0x0 PUSH1 0x20 DUP3 ADD SWAP1 POP DUP2 DUP2 SUB PUSH1 0x0 DUP4 ADD MSTORE PUSH2 0x194D DUP2 DUP5 PUSH2 0x18BE JUMP JUMPDEST SWAP1 POP SWAP3 SWAP2 POP POP JUMP JUMPDEST PUSH1 0x0 DUP1 PUSH1 0x40 DUP4 DUP6 SUB SLT ISZERO PUSH2 0x196C JUMPI PUSH2 0x196B PUSH2 0x142F JUMP JUMPDEST JUMPDEST PUSH1 0x0 DUP4 ADD CALLDATALOAD PUSH8 0xFFFFFFFFFFFFFFFF DUP2 GT ISZERO PUSH2 0x198A JUMPI PUSH2 0x1989 PUSH2 0x1434 JUMP JUMPDEST JUMPDEST PUSH2 0x1996 DUP6 DUP3 DUP7 ADD PUSH2 0x1716 JUMP JUMPDEST SWAP3 POP POP PUSH1 0x20 DUP4 ADD CALLDATALOAD PUSH8 0xFFFFFFFFFFFFFFFF DUP2 GT ISZERO PUSH2 0x19B7 JUMPI PUSH2 0x19B6 PUSH2 0x1434 JUMP JUMPDEST JUMPDEST PUSH2 0x19C3 DUP6 DUP3 DUP7 ADD PUSH2 0x1716 JUMP JUMPDEST SWAP2 POP POP SWAP3 POP SWAP3 SWAP1 POP JUMP JUMPDEST PUSH1 0x0 PUSH1 0x20 DUP3 ADD SWAP1 POP DUP2 DUP2 SUB PUSH1 0x0 DUP4 ADD MSTORE PUSH2 0x19E7 DUP2 DUP5 PUSH2 0x14FC JUMP JUMPDEST SWAP1 POP SWAP3 SWAP2 POP POP JUMP JUMPDEST PUSH1 0x0 DUP1 PUSH1 0x0 DUP1 PUSH1 0x0 PUSH1 0xA0 DUP7 DUP9 SUB SLT ISZERO PUSH2 0x1A0B JUMPI PUSH2 0x1A0A PUSH2 0x142F JUMP JUMPDEST JUMPDEST PUSH1 0x0 DUP7 ADD CALLDATALOAD PUSH8 0xFFFFFFFFFFFFFFFF DUP2 GT ISZERO PUSH2 0x1A29 JUMPI PUSH2 0x1A28 PUSH2 0x1434 JUMP JUMPDEST JUMPDEST PUSH2 0x1A35 DUP9 DUP3 DUP10 ADD PUSH2 0x1716 JUMP JUMPDEST SWAP6 POP POP PUSH1 0x20 DUP7 ADD CALLDATALOAD PUSH8 0xFFFFFFFFFFFFFFFF DUP2 GT ISZERO PUSH2 0x1A56 JUMPI PUSH2 0x1A55 PUSH2 0x1434 JUMP JUMPDEST JUMPDEST PUSH2 0x1A62 DUP9 DUP3 DUP10 ADD PUSH2 0x1716 JUMP JUMPDEST SWAP5 POP POP PUSH1 0x40 DUP7 ADD CALLDATALOAD PUSH8 0xFFFFFFFFFFFFFFFF DUP2 GT ISZERO PUSH2 0x1A83 JUMPI PUSH2 0x1A82 PUSH2 0x1434 JUMP JUMPDEST JUMPDEST PUSH2 0x1A8F DUP9 DUP3 DUP10 ADD PUSH2 0x1716 JUMP JUMPDEST SWAP4 POP POP PUSH1 0x60 DUP7 ADD CALLDATALOAD PUSH8 0xFFFFFFFFFFFFFFFF DUP2 GT ISZERO PUSH2 0x1AB0 JUMPI PUSH2 0x1AAF PUSH2 0x1434 JUMP JUMPDEST JUMPDEST PUSH2 0x1ABC DUP9 DUP3 DUP10 ADD PUSH2 0x1716 JUMP JUMPDEST SWAP3 POP POP PUSH1 0x80 DUP7 ADD CALLDATALOAD PUSH8 0xFFFFFFFFFFFFFFFF DUP2 GT ISZERO PUSH2 0x1ADD JUMPI PUSH2 0x1ADC PUSH2 0x1434 JUMP JUMPDEST JUMPDEST PUSH2 0x1AE9 DUP9 DUP3 DUP10 ADD PUSH2 0x1716 JUMP JUMPDEST SWAP2 POP POP SWAP3 SWAP6 POP SWAP3 SWAP6 SWAP1 SWAP4 POP JUMP JUMPDEST PUSH1 0x0 DUP1 PUSH1 0x0 DUP1 PUSH1 0x80 DUP6 DUP8 SUB SLT ISZERO PUSH2 0x1B10 JUMPI PUSH2 0x1B0F PUSH2 0x142F JUMP JUMPDEST JUMPDEST PUSH1 0x0 DUP6 ADD CALLDATALOAD PUSH8 0xFFFFFFFFFFFFFFFF DUP2 GT ISZERO PUSH2 0x1B2E JUMPI PUSH2 0x1B2D PUSH2 0x1434 JUMP JUMPDEST JUMPDEST PUSH2 0x1B3A DUP8 DUP3 DUP9 ADD PUSH2 0x1716 JUMP JUMPDEST SWAP5 POP POP PUSH1 0x20 DUP6 ADD CALLDATALOAD PUSH8 0xFFFFFFFFFFFFFFFF DUP2 GT ISZERO PUSH2 0x1B5B JUMPI PUSH2 0x1B5A PUSH2 0x1434 JUMP JUMPDEST JUMPDEST PUSH2 0x1B67 DUP8 DUP3 DUP9 ADD PUSH2 0x1716 JUMP JUMPDEST SWAP4 POP POP PUSH1 0x40 DUP6 ADD CALLDATALOAD PUSH8 0xFFFFFFFFFFFFFFFF DUP2 GT ISZERO PUSH2 0x1B88 JUMPI PUSH2 0x1B87 PUSH2 0x1434 JUMP JUMPDEST JUMPDEST PUSH2 0x1B94 DUP8 DUP3 DUP9 ADD PUSH2 0x1716 JUMP JUMPDEST SWAP3 POP POP PUSH1 0x60 DUP6 ADD CALLDATALOAD PUSH8 0xFFFFFFFFFFFFFFFF DUP2 GT ISZERO PUSH2 0x1BB5 JUMPI PUSH2 0x1BB4 PUSH2 0x1434 JUMP JUMPDEST JUMPDEST PUSH2 0x1BC1 DUP8 DUP3 DUP9 ADD PUSH2 0x1716 JUMP JUMPDEST SWAP2 POP POP SWAP3 SWAP6 SWAP2 SWAP5 POP SWAP3 POP JUMP JUMPDEST PUSH1 0x0 PUSH1 0x20 DUP3 ADD SWAP1 POP PUSH2 0x1BE2 PUSH1 0x0 DUP4 ADD DUP5 PUSH2 0x1567 JUMP JUMPDEST SWAP3 SWAP2 POP POP JUMP JUMPDEST PUSH32 0x4E487B7100000000000000000000000000000000000000000000000000000000 PUSH1 0x0 MSTORE PUSH1 0x22 PUSH1 0x4 MSTORE PUSH1 0x24 PUSH1 0x0 REVERT JUMPDEST PUSH1 0x0 PUSH1 0x2 DUP3 DIV SWAP1 POP PUSH1 0x1 DUP3 AND DUP1 PUSH2 0x1C2F JUMPI PUSH1 0x7F DUP3 AND SWAP2 POP JUMPDEST PUSH1 0x20 DUP3 LT DUP2 SUB PUSH2 0x1C42 JUMPI PUSH2 0x1C41 PUSH2 0x1BE8 JUMP JUMPDEST JUMPDEST POP SWAP2 SWAP1 POP JUMP JUMPDEST PUSH32 0x4163636F756E7420616C7265616479207573656420706C656173652074727920 PUSH1 0x0 DUP3 ADD MSTORE PUSH32 0x77697468206E6577206163636F756E7421210000000000000000000000000000 PUSH1 0x20 DUP3 ADD MSTORE POP JUMP JUMPDEST PUSH1 0x0 PUSH2 0x1CA4 PUSH1 0x32 DUP4 PUSH2 0x14A7 JUMP JUMPDEST SWAP2 POP PUSH2 0x1CAF DUP3 PUSH2 0x1C48 JUMP JUMPDEST PUSH1 0x40 DUP3 ADD SWAP1 POP SWAP2 SWAP1 POP JUMP JUMPDEST PUSH1 0x0 PUSH1 0x20 DUP3 ADD SWAP1 POP DUP2 DUP2 SUB PUSH1 0x0 DUP4 ADD MSTORE PUSH2 0x1CD3 DUP2 PUSH2 0x1C97 JUMP JUMPDEST SWAP1 POP SWAP2 SWAP1 POP JUMP JUMPDEST PUSH32 0x4E487B7100000000000000000000000000000000000000000000000000000000 PUSH1 0x0 MSTORE PUSH1 0x11 PUSH1 0x4 MSTORE PUSH1 0x24 PUSH1 0x0 REVERT JUMPDEST PUSH1 0x0 PUSH2 0x1D14 DUP3 PUSH2 0x1439 JUMP JUMPDEST SWAP2 POP PUSH32 0xFFFFFFFFFFFFFFFFFFFFFFFFFFFFFFFFFFFFFFFFFFFFFFFFFFFFFFFFFFFFFFFF DUP3 SUB PUSH2 0x1D46 JUMPI PUSH2 0x1D45 PUSH2 0x1CDA JUMP JUMPDEST JUMPDEST PUSH1 0x1 DUP3 ADD SWAP1 POP SWAP2 SWAP1 POP JUMP JUMPDEST PUSH32 0x4E6F7420616C6C6F776564000000000000000000000000000000000000000000 PUSH1 0x0 DUP3 ADD MSTORE POP JUMP JUMPDEST PUSH1 0x0 PUSH2 0x1D87 PUSH1 0xB DUP4 PUSH2 0x14A7 JUMP JUMPDEST SWAP2 POP PUSH2 0x1D92 DUP3 PUSH2 0x1D51 JUMP JUMPDEST PUSH1 0x20 DUP3 ADD SWAP1 POP SWAP2 SWAP1 POP JUMP JUMPDEST PUSH1 0x0 PUSH1 0x20 DUP3 ADD SWAP1 POP DUP2 DUP2 SUB PUSH1 0x0 DUP4 ADD MSTORE PUSH2 0x1DB6 DUP2 PUSH2 0x1D7A JUMP JUMPDEST SWAP1 POP SWAP2 SWAP1 POP JUMP INVALID SSTORE PUSH20 0x657220646F65736E6F7420657869737420212120 MSTORE PUSH6 0x676973746572 KECCAK256 PUSH2 0x6E64 KECCAK256 PUSH21 0x727920616761696E202121A2646970667358221220 SWAP8 0xB4 PUSH10 0xF6EB9F4377233DE844BE BALANCE 0xCB OR KECCAK256 SWAP7 DIV 0xB3 0xE4 SWAP14 0xCE CHAINID PUSH12 0x3AA3C2F6DD5EAA64736F6C63 NUMBER STOP ADDMOD 0xD STOP CALLER "
				},
				"gasEstimates": {
					"creation": {
						"codeDepositCost": "1542800",
						"executionCost": "6631",
						"totalCost": "1549431"
					},
					"external": {
						"getProjectDetails(string)": "infinite",
						"getSignatureHash()": "infinite",
						"getUserAddress()": "2705",
						"getUsername()": "infinite",
						"login(string,string)": "infinite",
						"nbOfUsers()": "2452",
						"projects(uint256)": "infinite",
						"register(string,string,string,string,string)": "infinite",
						"saveProject(string,string,string,string)": "infinite"
					}
				},
				"methodIdentifiers": {
					"getProjectDetails(string)": "3162a709",
					"getSignatureHash()": "c127ae41",
					"getUserAddress()": "ebc3eee8",
					"getUsername()": "681f3e6d",
					"login(string,string)": "58467dbc",
					"nbOfUsers()": "12679323",
					"projects(uint256)": "107046bd",
					"register(string,string,string,string,string)": "5a09007b",
					"saveProject(string,string,string,string)": "b4bfc3a5"
				}
			},
			"storageLayout": {
				"storage": [
					{
						"astId": 3,
						"contract": "contracts/authentication.sol:Authentication",
						"label": "nbOfUsers",
						"offset": 0,
						"slot": "0",
						"type": "t_uint256"
					},
					{
						"astId": 21,
						"contract": "contracts/authentication.sol:Authentication",
						"label": "user",
						"offset": 0,
						"slot": "1",
						"type": "t_mapping(t_address,t_struct(User)16_storage)"
					},
					{
						"astId": 37,
						"contract": "contracts/authentication.sol:Authentication",
						"label": "project",
						"offset": 0,
						"slot": "2",
						"type": "t_mapping(t_address,t_struct(Project)32_storage)"
					},
					{
						"astId": 41,
						"contract": "contracts/authentication.sol:Authentication",
						"label": "projects",
						"offset": 0,
						"slot": "3",
						"type": "t_array(t_struct(Project)32_storage)dyn_storage"
					}
				],
				"types": {
					"t_address": {
						"encoding": "inplace",
						"label": "address",
						"numberOfBytes": "20"
					},
					"t_array(t_struct(Project)32_storage)dyn_storage": {
						"base": "t_struct(Project)32_storage",
						"encoding": "dynamic_array",
						"label": "struct Authentication.Project[]",
						"numberOfBytes": "32"
					},
					"t_mapping(t_address,t_struct(Project)32_storage)": {
						"encoding": "mapping",
						"key": "t_address",
						"label": "mapping(address => struct Authentication.Project)",
						"numberOfBytes": "32",
						"value": "t_struct(Project)32_storage"
					},
					"t_mapping(t_address,t_struct(User)16_storage)": {
						"encoding": "mapping",
						"key": "t_address",
						"label": "mapping(address => struct Authentication.User)",
						"numberOfBytes": "32",
						"value": "t_struct(User)16_storage"
					},
					"t_string_storage": {
						"encoding": "bytes",
						"label": "string",
						"numberOfBytes": "32"
					},
					"t_struct(Project)32_storage": {
						"encoding": "inplace",
						"label": "struct Authentication.Project",
						"members": [
							{
								"astId": 23,
								"contract": "contracts/authentication.sol:Authentication",
								"label": "projectName",
								"offset": 0,
								"slot": "0",
								"type": "t_string_storage"
							},
							{
								"astId": 25,
								"contract": "contracts/authentication.sol:Authentication",
								"label": "description",
								"offset": 0,
								"slot": "1",
								"type": "t_string_storage"
							},
							{
								"astId": 27,
								"contract": "contracts/authentication.sol:Authentication",
								"label": "deadline",
								"offset": 0,
								"slot": "2",
								"type": "t_string_storage"
							},
							{
								"astId": 29,
								"contract": "contracts/authentication.sol:Authentication",
								"label": "amount",
								"offset": 0,
								"slot": "3",
								"type": "t_string_storage"
							},
							{
								"astId": 31,
								"contract": "contracts/authentication.sol:Authentication",
								"label": "userAddress",
								"offset": 0,
								"slot": "4",
								"type": "t_address"
							}
						],
						"numberOfBytes": "160"
					},
					"t_struct(User)16_storage": {
						"encoding": "inplace",
						"label": "struct Authentication.User",
						"members": [
							{
								"astId": 5,
								"contract": "contracts/authentication.sol:Authentication",
								"label": "signatureHash",
								"offset": 0,
								"slot": "0",
								"type": "t_string_storage"
							},
							{
								"astId": 7,
								"contract": "contracts/authentication.sol:Authentication",
								"label": "email",
								"offset": 0,
								"slot": "1",
								"type": "t_string_storage"
							},
							{
								"astId": 9,
								"contract": "contracts/authentication.sol:Authentication",
								"label": "username",
								"offset": 0,
								"slot": "2",
								"type": "t_string_storage"
							},
							{
								"astId": 11,
								"contract": "contracts/authentication.sol:Authentication",
								"label": "password",
								"offset": 0,
								"slot": "3",
								"type": "t_string_storage"
							},
							{
								"astId": 13,
								"contract": "contracts/authentication.sol:Authentication",
								"label": "repeatPassword",
								"offset": 0,
								"slot": "4",
								"type": "t_string_storage"
							},
							{
								"astId": 15,
								"contract": "contracts/authentication.sol:Authentication",
								"label": "userAddress",
								"offset": 0,
								"slot": "5",
								"type": "t_address"
							}
						],
						"numberOfBytes": "192"
					},
					"t_uint256": {
						"encoding": "inplace",
						"label": "uint256",
						"numberOfBytes": "32"
					}
				}
			},
			"userdoc": {
				"kind": "user",
				"methods": {},
				"version": 1
			}
		}
	}
}