{
	"contracts/authentication.sol": {
		"Authentication": {
			"abi": [
				{
					"inputs": [],
					"stateMutability": "nonpayable",
					"type": "constructor"
				},
				{
					"inputs": [
						{
							"internalType": "string",
							"name": "username",
							"type": "string"
						},
						{
							"internalType": "string",
							"name": "password",
							"type": "string"
						}
					],
					"name": "checkLogin",
					"outputs": [
						{
							"internalType": "string",
							"name": "",
							"type": "string"
						}
					],
					"stateMutability": "view",
					"type": "function"
				},
				{
					"inputs": [],
					"name": "getSignatureHash",
					"outputs": [
						{
							"internalType": "string",
							"name": "",
							"type": "string"
						}
					],
					"stateMutability": "view",
					"type": "function"
				},
				{
					"inputs": [],
					"name": "getUserAddress",
					"outputs": [
						{
							"internalType": "address",
							"name": "",
							"type": "address"
						}
					],
					"stateMutability": "view",
					"type": "function"
				},
				{
					"inputs": [],
					"name": "getUsername",
					"outputs": [
						{
							"internalType": "string",
							"name": "",
							"type": "string"
						}
					],
					"stateMutability": "view",
					"type": "function"
				},
				{
					"inputs": [],
					"name": "nbOfUsers",
					"outputs": [
						{
							"internalType": "uint256",
							"name": "",
							"type": "uint256"
						}
					],
					"stateMutability": "view",
					"type": "function"
				},
				{
					"inputs": [
						{
							"internalType": "string",
							"name": "_signature",
							"type": "string"
						},
						{
							"internalType": "string",
							"name": "email",
							"type": "string"
						},
						{
							"internalType": "string",
							"name": "username",
							"type": "string"
						},
						{
							"internalType": "string",
							"name": "password",
							"type": "string"
						},
						{
							"internalType": "string",
							"name": "repeatPassword",
							"type": "string"
						}
					],
					"name": "register",
					"outputs": [
						{
							"internalType": "string",
							"name": "",
							"type": "string"
						}
					],
					"stateMutability": "nonpayable",
					"type": "function"
				}
			],
			"devdoc": {
				"kind": "dev",
				"methods": {},
				"version": 1
			},
			"evm": {
				"assembly": "    /* \"contracts/authentication.sol\":59:2157  contract Authentication {\r... */\n  mstore(0x40, 0x80)\n    /* \"contracts/authentication.sol\":365:411  constructor() {\r... */\n  callvalue\n  dup1\n  iszero\n  tag_1\n  jumpi\n  0x00\n  dup1\n  revert\ntag_1:\n  pop\n    /* \"contracts/authentication.sol\":402:403  0 */\n  0x00\n    /* \"contracts/authentication.sol\":390:399  nbOfUsers */\n  dup1\n    /* \"contracts/authentication.sol\":390:403  nbOfUsers = 0 */\n  dup2\n  swap1\n  sstore\n  pop\n    /* \"contracts/authentication.sol\":59:2157  contract Authentication {\r... */\n  dataSize(sub_0)\n  dup1\n  dataOffset(sub_0)\n  0x00\n  codecopy\n  0x00\n  return\nstop\n\nsub_0: assembly {\n        /* \"contracts/authentication.sol\":59:2157  contract Authentication {\r... */\n      mstore(0x40, 0x80)\n      callvalue\n      dup1\n      iszero\n      tag_1\n      jumpi\n      0x00\n      dup1\n      revert\n    tag_1:\n      pop\n      jumpi(tag_2, lt(calldatasize, 0x04))\n      shr(0xe0, calldataload(0x00))\n      dup1\n      0x12679323\n      eq\n      tag_3\n      jumpi\n      dup1\n      0x4a9f2771\n      eq\n      tag_4\n      jumpi\n      dup1\n      0x5a09007b\n      eq\n      tag_5\n      jumpi\n      dup1\n      0x681f3e6d\n      eq\n      tag_6\n      jumpi\n      dup1\n      0xc127ae41\n      eq\n      tag_7\n      jumpi\n      dup1\n      0xebc3eee8\n      eq\n      tag_8\n      jumpi\n    tag_2:\n      0x00\n      dup1\n      revert\n        /* \"contracts/authentication.sol\":90:114  uint256 public nbOfUsers */\n    tag_3:\n      tag_9\n      tag_10\n      jump\t// in\n    tag_9:\n      mload(0x40)\n      tag_11\n      swap2\n      swap1\n      tag_12\n      jump\t// in\n    tag_11:\n      mload(0x40)\n      dup1\n      swap2\n      sub\n      swap1\n      return\n        /* \"contracts/authentication.sol\":1652:2145  function checkLogin(string memory username, string memory password) public view returns(string memory){\r... */\n    tag_4:\n      tag_13\n      0x04\n      dup1\n      calldatasize\n      sub\n      dup2\n      add\n      swap1\n      tag_14\n      swap2\n      swap1\n      tag_15\n      jump\t// in\n    tag_14:\n      tag_16\n      jump\t// in\n    tag_13:\n      mload(0x40)\n      tag_17\n      swap2\n      swap1\n      tag_18\n      jump\t// in\n    tag_17:\n      mload(0x40)\n      dup1\n      swap2\n      sub\n      swap1\n      return\n        /* \"contracts/authentication.sol\":419:1201  function register(string memory _signature, string memory email, string memory username, string memory password, string memory repeatPassword) public returns(string memory) {\r... */\n    tag_5:\n      tag_19\n      0x04\n      dup1\n      calldatasize\n      sub\n      dup2\n      add\n      swap1\n      tag_20\n      swap2\n      swap1\n      tag_21\n      jump\t// in\n    tag_20:\n      tag_22\n      jump\t// in\n    tag_19:\n      mload(0x40)\n      tag_23\n      swap2\n      swap1\n      tag_18\n      jump\t// in\n    tag_23:\n      mload(0x40)\n      dup1\n      swap2\n      sub\n      swap1\n      return\n        /* \"contracts/authentication.sol\":1534:1644  function getUsername() public view returns (string memory) {\r... */\n    tag_6:\n      tag_24\n      tag_25\n      jump\t// in\n    tag_24:\n      mload(0x40)\n      tag_26\n      swap2\n      swap1\n      tag_18\n      jump\t// in\n    tag_26:\n      mload(0x40)\n      dup1\n      swap2\n      sub\n      swap1\n      return\n        /* \"contracts/authentication.sol\":1209:1408  function getSignatureHash() public view returns (string memory) {\r... */\n    tag_7:\n      tag_27\n      tag_28\n      jump\t// in\n    tag_27:\n      mload(0x40)\n      tag_29\n      swap2\n      swap1\n      tag_18\n      jump\t// in\n    tag_29:\n      mload(0x40)\n      dup1\n      swap2\n      sub\n      swap1\n      return\n        /* \"contracts/authentication.sol\":1416:1526  function getUserAddress() public view returns (address) {\r... */\n    tag_8:\n      tag_30\n      tag_31\n      jump\t// in\n    tag_30:\n      mload(0x40)\n      tag_32\n      swap2\n      swap1\n      tag_33\n      jump\t// in\n    tag_32:\n      mload(0x40)\n      dup1\n      swap2\n      sub\n      swap1\n      return\n        /* \"contracts/authentication.sol\":90:114  uint256 public nbOfUsers */\n    tag_10:\n      sload(0x00)\n      dup2\n      jump\t// out\n        /* \"contracts/authentication.sol\":1652:2145  function checkLogin(string memory username, string memory password) public view returns(string memory){\r... */\n    tag_16:\n        /* \"contracts/authentication.sol\":1740:1753  string memory */\n      0x60\n        /* \"contracts/authentication.sol\":1767:1790  string memory _username */\n      0x00\n        /* \"contracts/authentication.sol\":1792:1805  getUsername() */\n      tag_35\n        /* \"contracts/authentication.sol\":1792:1803  getUsername */\n      tag_25\n        /* \"contracts/authentication.sol\":1792:1805  getUsername() */\n      jump\t// in\n    tag_35:\n        /* \"contracts/authentication.sol\":1767:1805  string memory _username= getUsername() */\n      swap1\n      pop\n        /* \"contracts/authentication.sol\":1816:1839  string memory _password */\n      0x00\n        /* \"contracts/authentication.sol\":1841:1845  user */\n      0x01\n        /* \"contracts/authentication.sol\":1841:1857  user[msg.sender] */\n      0x00\n        /* \"contracts/authentication.sol\":1846:1856  msg.sender */\n      caller\n        /* \"contracts/authentication.sol\":1841:1857  user[msg.sender] */\n      0xffffffffffffffffffffffffffffffffffffffff\n      and\n      0xffffffffffffffffffffffffffffffffffffffff\n      and\n      dup2\n      mstore\n      0x20\n      add\n      swap1\n      dup2\n      mstore\n      0x20\n      add\n      0x00\n      keccak256\n        /* \"contracts/authentication.sol\":1841:1866  user[msg.sender].password */\n      0x03\n      add\n        /* \"contracts/authentication.sol\":1816:1866  string memory _password= user[msg.sender].password */\n      dup1\n      sload\n      tag_36\n      swap1\n      tag_37\n      jump\t// in\n    tag_36:\n      dup1\n      0x1f\n      add\n      0x20\n      dup1\n      swap2\n      div\n      mul\n      0x20\n      add\n      mload(0x40)\n      swap1\n      dup2\n      add\n      0x40\n      mstore\n      dup1\n      swap3\n      swap2\n      swap1\n      dup2\n      dup2\n      mstore\n      0x20\n      add\n      dup3\n      dup1\n      sload\n      tag_38\n      swap1\n      tag_37\n      jump\t// in\n    tag_38:\n      dup1\n      iszero\n      tag_39\n      jumpi\n      dup1\n      0x1f\n      lt\n      tag_40\n      jumpi\n      0x0100\n      dup1\n      dup4\n      sload\n      div\n      mul\n      dup4\n      mstore\n      swap2\n      0x20\n      add\n      swap2\n      jump(tag_39)\n    tag_40:\n      dup3\n      add\n      swap2\n      swap1\n      0x00\n      mstore\n      keccak256(0x00, 0x20)\n      swap1\n    tag_41:\n      dup2\n      sload\n      dup2\n      mstore\n      swap1\n      0x01\n      add\n      swap1\n      0x20\n      add\n      dup1\n      dup4\n      gt\n      tag_41\n      jumpi\n      dup3\n      swap1\n      sub\n      0x1f\n      and\n      dup3\n      add\n      swap2\n    tag_39:\n      pop\n      pop\n      pop\n      pop\n      pop\n      swap1\n      pop\n        /* \"contracts/authentication.sol\":1929:1937  username */\n      dup5\n        /* \"contracts/authentication.sol\":1913:1939  keccak256(bytes(username)) */\n      dup1\n      mload\n      swap1\n      0x20\n      add\n      keccak256\n        /* \"contracts/authentication.sol\":1898:1907  _username */\n      dup3\n        /* \"contracts/authentication.sol\":1882:1909  keccak256(bytes(_username)) */\n      dup1\n      mload\n      swap1\n      0x20\n      add\n      keccak256\n        /* \"contracts/authentication.sol\":1882:1939  keccak256(bytes(_username)) == keccak256(bytes(username)) */\n      eq\n        /* \"contracts/authentication.sol\":1882:2000  keccak256(bytes(_username)) == keccak256(bytes(username)) && keccak256(bytes(_password)) == keccak256(bytes(password)) */\n      dup1\n      iszero\n      tag_42\n      jumpi\n      pop\n        /* \"contracts/authentication.sol\":1990:1998  password */\n      dup4\n        /* \"contracts/authentication.sol\":1974:2000  keccak256(bytes(password)) */\n      dup1\n      mload\n      swap1\n      0x20\n      add\n      keccak256\n        /* \"contracts/authentication.sol\":1959:1968  _password */\n      dup2\n        /* \"contracts/authentication.sol\":1943:1970  keccak256(bytes(_password)) */\n      dup1\n      mload\n      swap1\n      0x20\n      add\n      keccak256\n        /* \"contracts/authentication.sol\":1943:2000  keccak256(bytes(_password)) == keccak256(bytes(password)) */\n      eq\n        /* \"contracts/authentication.sol\":1882:2000  keccak256(bytes(_username)) == keccak256(bytes(username)) && keccak256(bytes(_password)) == keccak256(bytes(password)) */\n    tag_42:\n        /* \"contracts/authentication.sol\":1879:2138  if(keccak256(bytes(_username)) == keccak256(bytes(username)) && keccak256(bytes(_password)) == keccak256(bytes(password)) ) {\r... */\n      iszero\n      tag_43\n      jumpi\n        /* \"contracts/authentication.sol\":2027:2035  username */\n      dup5\n        /* \"contracts/authentication.sol\":2020:2035  return username */\n      swap3\n      pop\n      pop\n      pop\n      jump(tag_34)\n        /* \"contracts/authentication.sol\":1879:2138  if(keccak256(bytes(_username)) == keccak256(bytes(username)) && keccak256(bytes(_password)) == keccak256(bytes(password)) ) {\r... */\n    tag_43:\n        /* \"contracts/authentication.sol\":2070:2126  return \"User doesnot exist !! Register and try again !!\" */\n      mload(0x40)\n      dup1\n      0x60\n      add\n      0x40\n      mstore\n      dup1\n      0x2f\n      dup2\n      mstore\n      0x20\n      add\n      data_f8cee5838de095b73bc0eb68505c82192a6e7ef8eb72dc52884288f7c470afa7\n      0x2f\n      swap2\n      codecopy\n      swap3\n      pop\n      pop\n      pop\n        /* \"contracts/authentication.sol\":1652:2145  function checkLogin(string memory username, string memory password) public view returns(string memory){\r... */\n    tag_34:\n      swap3\n      swap2\n      pop\n      pop\n      jump\t// out\n        /* \"contracts/authentication.sol\":419:1201  function register(string memory _signature, string memory email, string memory username, string memory password, string memory repeatPassword) public returns(string memory) {\r... */\n    tag_22:\n        /* \"contracts/authentication.sol\":577:590  string memory */\n      0x60\n        /* \"contracts/authentication.sol\":787:797  _signature */\n      dup6\n        /* \"contracts/authentication.sol\":754:758  user */\n      0x01\n        /* \"contracts/authentication.sol\":754:770  user[msg.sender] */\n      0x00\n        /* \"contracts/authentication.sol\":759:769  msg.sender */\n      caller\n        /* \"contracts/authentication.sol\":754:770  user[msg.sender] */\n      0xffffffffffffffffffffffffffffffffffffffff\n      and\n      0xffffffffffffffffffffffffffffffffffffffff\n      and\n      dup2\n      mstore\n      0x20\n      add\n      swap1\n      dup2\n      mstore\n      0x20\n      add\n      0x00\n      keccak256\n        /* \"contracts/authentication.sol\":754:784  user[msg.sender].signatureHash */\n      0x00\n      add\n        /* \"contracts/authentication.sol\":754:797  user[msg.sender].signatureHash = _signature */\n      swap1\n      dup1\n      mload\n      swap1\n      0x20\n      add\n      swap1\n      tag_46\n      swap3\n      swap2\n      swap1\n      tag_47\n      jump\t// in\n    tag_46:\n      pop\n        /* \"contracts/authentication.sol\":833:838  email */\n      dup5\n        /* \"contracts/authentication.sol\":808:812  user */\n      0x01\n        /* \"contracts/authentication.sol\":808:824  user[msg.sender] */\n      0x00\n        /* \"contracts/authentication.sol\":813:823  msg.sender */\n      caller\n        /* \"contracts/authentication.sol\":808:824  user[msg.sender] */\n      0xffffffffffffffffffffffffffffffffffffffff\n      and\n      0xffffffffffffffffffffffffffffffffffffffff\n      and\n      dup2\n      mstore\n      0x20\n      add\n      swap1\n      dup2\n      mstore\n      0x20\n      add\n      0x00\n      keccak256\n        /* \"contracts/authentication.sol\":808:830  user[msg.sender].email */\n      0x01\n      add\n        /* \"contracts/authentication.sol\":808:838  user[msg.sender].email = email */\n      swap1\n      dup1\n      mload\n      swap1\n      0x20\n      add\n      swap1\n      tag_48\n      swap3\n      swap2\n      swap1\n      tag_47\n      jump\t// in\n    tag_48:\n      pop\n        /* \"contracts/authentication.sol\":880:890  msg.sender */\n      caller\n        /* \"contracts/authentication.sol\":849:853  user */\n      0x01\n        /* \"contracts/authentication.sol\":849:865  user[msg.sender] */\n      0x00\n        /* \"contracts/authentication.sol\":854:864  msg.sender */\n      caller\n        /* \"contracts/authentication.sol\":849:865  user[msg.sender] */\n      0xffffffffffffffffffffffffffffffffffffffff\n      and\n      0xffffffffffffffffffffffffffffffffffffffff\n      and\n      dup2\n      mstore\n      0x20\n      add\n      swap1\n      dup2\n      mstore\n      0x20\n      add\n      0x00\n      keccak256\n        /* \"contracts/authentication.sol\":849:877  user[msg.sender].userAddress */\n      0x05\n      add\n      0x00\n        /* \"contracts/authentication.sol\":849:890  user[msg.sender].userAddress = msg.sender */\n      0x0100\n      exp\n      dup2\n      sload\n      dup2\n      0xffffffffffffffffffffffffffffffffffffffff\n      mul\n      not\n      and\n      swap1\n      dup4\n      0xffffffffffffffffffffffffffffffffffffffff\n      and\n      mul\n      or\n      swap1\n      sstore\n      pop\n        /* \"contracts/authentication.sol\":929:937  username */\n      dup4\n        /* \"contracts/authentication.sol\":901:905  user */\n      0x01\n        /* \"contracts/authentication.sol\":901:917  user[msg.sender] */\n      0x00\n        /* \"contracts/authentication.sol\":906:916  msg.sender */\n      caller\n        /* \"contracts/authentication.sol\":901:917  user[msg.sender] */\n      0xffffffffffffffffffffffffffffffffffffffff\n      and\n      0xffffffffffffffffffffffffffffffffffffffff\n      and\n      dup2\n      mstore\n      0x20\n      add\n      swap1\n      dup2\n      mstore\n      0x20\n      add\n      0x00\n      keccak256\n        /* \"contracts/authentication.sol\":901:926  user[msg.sender].username */\n      0x02\n      add\n        /* \"contracts/authentication.sol\":901:937  user[msg.sender].username = username */\n      swap1\n      dup1\n      mload\n      swap1\n      0x20\n      add\n      swap1\n      tag_49\n      swap3\n      swap2\n      swap1\n      tag_47\n      jump\t// in\n    tag_49:\n      pop\n        /* \"contracts/authentication.sol\":976:984  password */\n      dup3\n        /* \"contracts/authentication.sol\":948:952  user */\n      0x01\n        /* \"contracts/authentication.sol\":948:964  user[msg.sender] */\n      0x00\n        /* \"contracts/authentication.sol\":953:963  msg.sender */\n      caller\n        /* \"contracts/authentication.sol\":948:964  user[msg.sender] */\n      0xffffffffffffffffffffffffffffffffffffffff\n      and\n      0xffffffffffffffffffffffffffffffffffffffff\n      and\n      dup2\n      mstore\n      0x20\n      add\n      swap1\n      dup2\n      mstore\n      0x20\n      add\n      0x00\n      keccak256\n        /* \"contracts/authentication.sol\":948:973  user[msg.sender].password */\n      0x03\n      add\n        /* \"contracts/authentication.sol\":948:984  user[msg.sender].password = password */\n      swap1\n      dup1\n      mload\n      swap1\n      0x20\n      add\n      swap1\n      tag_50\n      swap3\n      swap2\n      swap1\n      tag_47\n      jump\t// in\n    tag_50:\n      pop\n        /* \"contracts/authentication.sol\":1029:1043  repeatPassword */\n      dup2\n        /* \"contracts/authentication.sol\":995:999  user */\n      0x01\n        /* \"contracts/authentication.sol\":995:1011  user[msg.sender] */\n      0x00\n        /* \"contracts/authentication.sol\":1000:1010  msg.sender */\n      caller\n        /* \"contracts/authentication.sol\":995:1011  user[msg.sender] */\n      0xffffffffffffffffffffffffffffffffffffffff\n      and\n      0xffffffffffffffffffffffffffffffffffffffff\n      and\n      dup2\n      mstore\n      0x20\n      add\n      swap1\n      dup2\n      mstore\n      0x20\n      add\n      0x00\n      keccak256\n        /* \"contracts/authentication.sol\":995:1026  user[msg.sender].repeatPassword */\n      0x04\n      add\n        /* \"contracts/authentication.sol\":995:1043  user[msg.sender].repeatPassword = repeatPassword */\n      swap1\n      dup1\n      mload\n      swap1\n      0x20\n      add\n      swap1\n      tag_51\n      swap3\n      swap2\n      swap1\n      tag_47\n      jump\t// in\n    tag_51:\n      pop\n        /* \"contracts/authentication.sol\":1054:1063  nbOfUsers */\n      0x00\n      dup1\n        /* \"contracts/authentication.sol\":1054:1065  nbOfUsers++ */\n      dup2\n      sload\n      dup1\n      swap3\n      swap2\n      swap1\n      tag_52\n      swap1\n      tag_53\n      jump\t// in\n    tag_52:\n      swap2\n      swap1\n      pop\n      sstore\n      pop\n        /* \"contracts/authentication.sol\":1098:1099  1 */\n      0x01\n        /* \"contracts/authentication.sol\":1085:1094  nbOfUsers */\n      sload(0x00)\n        /* \"contracts/authentication.sol\":1085:1099  nbOfUsers == 1 */\n      eq\n        /* \"contracts/authentication.sol\":1076:1150  require( nbOfUsers == 1,\r... */\n      tag_54\n      jumpi\n      mload(0x40)\n      0x08c379a000000000000000000000000000000000000000000000000000000000\n      dup2\n      mstore\n      0x04\n      add\n      tag_55\n      swap1\n      tag_56\n      jump\t// in\n    tag_55:\n      mload(0x40)\n      dup1\n      swap2\n      sub\n      swap1\n      revert\n    tag_54:\n        /* \"contracts/authentication.sol\":1161:1193  return \"Successfully Registered\" */\n      mload(0x40)\n      dup1\n      0x40\n      add\n      0x40\n      mstore\n      dup1\n      0x17\n      dup2\n      mstore\n      0x20\n      add\n      0x5375636365737366756c6c792052656769737465726564000000000000000000\n      dup2\n      mstore\n      pop\n      swap1\n      pop\n        /* \"contracts/authentication.sol\":419:1201  function register(string memory _signature, string memory email, string memory username, string memory password, string memory repeatPassword) public returns(string memory) {\r... */\n      swap6\n      swap5\n      pop\n      pop\n      pop\n      pop\n      pop\n      jump\t// out\n        /* \"contracts/authentication.sol\":1534:1644  function getUsername() public view returns (string memory) {\r... */\n    tag_25:\n        /* \"contracts/authentication.sol\":1578:1591  string memory */\n      0x60\n        /* \"contracts/authentication.sol\":1611:1615  user */\n      0x01\n        /* \"contracts/authentication.sol\":1611:1627  user[msg.sender] */\n      0x00\n        /* \"contracts/authentication.sol\":1616:1626  msg.sender */\n      caller\n        /* \"contracts/authentication.sol\":1611:1627  user[msg.sender] */\n      0xffffffffffffffffffffffffffffffffffffffff\n      and\n      0xffffffffffffffffffffffffffffffffffffffff\n      and\n      dup2\n      mstore\n      0x20\n      add\n      swap1\n      dup2\n      mstore\n      0x20\n      add\n      0x00\n      keccak256\n        /* \"contracts/authentication.sol\":1611:1636  user[msg.sender].username */\n      0x02\n      add\n        /* \"contracts/authentication.sol\":1604:1636  return user[msg.sender].username */\n      dup1\n      sload\n      tag_58\n      swap1\n      tag_37\n      jump\t// in\n    tag_58:\n      dup1\n      0x1f\n      add\n      0x20\n      dup1\n      swap2\n      div\n      mul\n      0x20\n      add\n      mload(0x40)\n      swap1\n      dup2\n      add\n      0x40\n      mstore\n      dup1\n      swap3\n      swap2\n      swap1\n      dup2\n      dup2\n      mstore\n      0x20\n      add\n      dup3\n      dup1\n      sload\n      tag_59\n      swap1\n      tag_37\n      jump\t// in\n    tag_59:\n      dup1\n      iszero\n      tag_60\n      jumpi\n      dup1\n      0x1f\n      lt\n      tag_61\n      jumpi\n      0x0100\n      dup1\n      dup4\n      sload\n      div\n      mul\n      dup4\n      mstore\n      swap2\n      0x20\n      add\n      swap2\n      jump(tag_60)\n    tag_61:\n      dup3\n      add\n      swap2\n      swap1\n      0x00\n      mstore\n      keccak256(0x00, 0x20)\n      swap1\n    tag_62:\n      dup2\n      sload\n      dup2\n      mstore\n      swap1\n      0x01\n      add\n      swap1\n      0x20\n      add\n      dup1\n      dup4\n      gt\n      tag_62\n      jumpi\n      dup3\n      swap1\n      sub\n      0x1f\n      and\n      dup3\n      add\n      swap2\n    tag_60:\n      pop\n      pop\n      pop\n      pop\n      pop\n      swap1\n      pop\n        /* \"contracts/authentication.sol\":1534:1644  function getUsername() public view returns (string memory) {\r... */\n      swap1\n      jump\t// out\n        /* \"contracts/authentication.sol\":1209:1408  function getSignatureHash() public view returns (string memory) {\r... */\n    tag_28:\n        /* \"contracts/authentication.sol\":1258:1271  string memory */\n      0x60\n        /* \"contracts/authentication.sol\":1306:1310  user */\n      0x01\n        /* \"contracts/authentication.sol\":1306:1322  user[msg.sender] */\n      0x00\n        /* \"contracts/authentication.sol\":1311:1321  msg.sender */\n      caller\n        /* \"contracts/authentication.sol\":1306:1322  user[msg.sender] */\n      0xffffffffffffffffffffffffffffffffffffffff\n      and\n      0xffffffffffffffffffffffffffffffffffffffff\n      and\n      dup2\n      mstore\n      0x20\n      add\n      swap1\n      dup2\n      mstore\n      0x20\n      add\n      0x00\n      keccak256\n        /* \"contracts/authentication.sol\":1306:1334  user[msg.sender].userAddress */\n      0x05\n      add\n      0x00\n      swap1\n      sload\n      swap1\n      0x0100\n      exp\n      swap1\n      div\n      0xffffffffffffffffffffffffffffffffffffffff\n      and\n        /* \"contracts/authentication.sol\":1292:1334  msg.sender == user[msg.sender].userAddress */\n      0xffffffffffffffffffffffffffffffffffffffff\n      and\n        /* \"contracts/authentication.sol\":1292:1302  msg.sender */\n      caller\n        /* \"contracts/authentication.sol\":1292:1334  msg.sender == user[msg.sender].userAddress */\n      0xffffffffffffffffffffffffffffffffffffffff\n      and\n      eq\n        /* \"contracts/authentication.sol\":1284:1350  require(msg.sender == user[msg.sender].userAddress, \"Not allowed\") */\n      tag_64\n      jumpi\n      mload(0x40)\n      0x08c379a000000000000000000000000000000000000000000000000000000000\n      dup2\n      mstore\n      0x04\n      add\n      tag_65\n      swap1\n      tag_66\n      jump\t// in\n    tag_65:\n      mload(0x40)\n      dup1\n      swap2\n      sub\n      swap1\n      revert\n    tag_64:\n        /* \"contracts/authentication.sol\":1370:1374  user */\n      0x01\n        /* \"contracts/authentication.sol\":1370:1386  user[msg.sender] */\n      0x00\n        /* \"contracts/authentication.sol\":1375:1385  msg.sender */\n      caller\n        /* \"contracts/authentication.sol\":1370:1386  user[msg.sender] */\n      0xffffffffffffffffffffffffffffffffffffffff\n      and\n      0xffffffffffffffffffffffffffffffffffffffff\n      and\n      dup2\n      mstore\n      0x20\n      add\n      swap1\n      dup2\n      mstore\n      0x20\n      add\n      0x00\n      keccak256\n        /* \"contracts/authentication.sol\":1370:1400  user[msg.sender].signatureHash */\n      0x00\n      add\n        /* \"contracts/authentication.sol\":1363:1400  return user[msg.sender].signatureHash */\n      dup1\n      sload\n      tag_67\n      swap1\n      tag_37\n      jump\t// in\n    tag_67:\n      dup1\n      0x1f\n      add\n      0x20\n      dup1\n      swap2\n      div\n      mul\n      0x20\n      add\n      mload(0x40)\n      swap1\n      dup2\n      add\n      0x40\n      mstore\n      dup1\n      swap3\n      swap2\n      swap1\n      dup2\n      dup2\n      mstore\n      0x20\n      add\n      dup3\n      dup1\n      sload\n      tag_68\n      swap1\n      tag_37\n      jump\t// in\n    tag_68:\n      dup1\n      iszero\n      tag_69\n      jumpi\n      dup1\n      0x1f\n      lt\n      tag_70\n      jumpi\n      0x0100\n      dup1\n      dup4\n      sload\n      div\n      mul\n      dup4\n      mstore\n      swap2\n      0x20\n      add\n      swap2\n      jump(tag_69)\n    tag_70:\n      dup3\n      add\n      swap2\n      swap1\n      0x00\n      mstore\n      keccak256(0x00, 0x20)\n      swap1\n    tag_71:\n      dup2\n      sload\n      dup2\n      mstore\n      swap1\n      0x01\n      add\n      swap1\n      0x20\n      add\n      dup1\n      dup4\n      gt\n      tag_71\n      jumpi\n      dup3\n      swap1\n      sub\n      0x1f\n      and\n      dup3\n      add\n      swap2\n    tag_69:\n      pop\n      pop\n      pop\n      pop\n      pop\n      swap1\n      pop\n        /* \"contracts/authentication.sol\":1209:1408  function getSignatureHash() public view returns (string memory) {\r... */\n      swap1\n      jump\t// out\n        /* \"contracts/authentication.sol\":1416:1526  function getUserAddress() public view returns (address) {\r... */\n    tag_31:\n        /* \"contracts/authentication.sol\":1463:1470  address */\n      0x00\n        /* \"contracts/authentication.sol\":1490:1494  user */\n      0x01\n        /* \"contracts/authentication.sol\":1490:1506  user[msg.sender] */\n      0x00\n        /* \"contracts/authentication.sol\":1495:1505  msg.sender */\n      caller\n        /* \"contracts/authentication.sol\":1490:1506  user[msg.sender] */\n      0xffffffffffffffffffffffffffffffffffffffff\n      and\n      0xffffffffffffffffffffffffffffffffffffffff\n      and\n      dup2\n      mstore\n      0x20\n      add\n      swap1\n      dup2\n      mstore\n      0x20\n      add\n      0x00\n      keccak256\n        /* \"contracts/authentication.sol\":1490:1518  user[msg.sender].userAddress */\n      0x05\n      add\n      0x00\n      swap1\n      sload\n      swap1\n      0x0100\n      exp\n      swap1\n      div\n      0xffffffffffffffffffffffffffffffffffffffff\n      and\n        /* \"contracts/authentication.sol\":1483:1518  return user[msg.sender].userAddress */\n      swap1\n      pop\n        /* \"contracts/authentication.sol\":1416:1526  function getUserAddress() public view returns (address) {\r... */\n      swap1\n      jump\t// out\n    tag_47:\n      dup3\n      dup1\n      sload\n      tag_73\n      swap1\n      tag_37\n      jump\t// in\n    tag_73:\n      swap1\n      0x00\n      mstore\n      keccak256(0x00, 0x20)\n      swap1\n      0x1f\n      add\n      0x20\n      swap1\n      div\n      dup2\n      add\n      swap3\n      dup3\n      tag_75\n      jumpi\n      0x00\n      dup6\n      sstore\n      jump(tag_74)\n    tag_75:\n      dup3\n      0x1f\n      lt\n      tag_76\n      jumpi\n      dup1\n      mload\n      not(0xff)\n      and\n      dup4\n      dup1\n      add\n      or\n      dup6\n      sstore\n      jump(tag_74)\n    tag_76:\n      dup3\n      dup1\n      add\n      0x01\n      add\n      dup6\n      sstore\n      dup3\n      iszero\n      tag_74\n      jumpi\n      swap2\n      dup3\n      add\n    tag_77:\n      dup3\n      dup2\n      gt\n      iszero\n      tag_78\n      jumpi\n      dup3\n      mload\n      dup3\n      sstore\n      swap2\n      0x20\n      add\n      swap2\n      swap1\n      0x01\n      add\n      swap1\n      jump(tag_77)\n    tag_78:\n    tag_74:\n      pop\n      swap1\n      pop\n      tag_79\n      swap2\n      swap1\n      tag_80\n      jump\t// in\n    tag_79:\n      pop\n      swap1\n      jump\t// out\n    tag_80:\n    tag_81:\n      dup1\n      dup3\n      gt\n      iszero\n      tag_82\n      jumpi\n      0x00\n      dup2\n      0x00\n      swap1\n      sstore\n      pop\n      0x01\n      add\n      jump(tag_81)\n    tag_82:\n      pop\n      swap1\n      jump\t// out\n        /* \"#utility.yul\":7:419   */\n    tag_84:\n        /* \"#utility.yul\":85:90   */\n      0x00\n        /* \"#utility.yul\":110:176   */\n      tag_86\n        /* \"#utility.yul\":126:175   */\n      tag_87\n        /* \"#utility.yul\":168:174   */\n      dup5\n        /* \"#utility.yul\":126:175   */\n      tag_88\n      jump\t// in\n    tag_87:\n        /* \"#utility.yul\":110:176   */\n      tag_89\n      jump\t// in\n    tag_86:\n        /* \"#utility.yul\":101:176   */\n      swap1\n      pop\n        /* \"#utility.yul\":199:205   */\n      dup3\n        /* \"#utility.yul\":192:197   */\n      dup2\n        /* \"#utility.yul\":185:206   */\n      mstore\n        /* \"#utility.yul\":237:241   */\n      0x20\n        /* \"#utility.yul\":230:235   */\n      dup2\n        /* \"#utility.yul\":226:242   */\n      add\n        /* \"#utility.yul\":275:278   */\n      dup5\n        /* \"#utility.yul\":266:272   */\n      dup5\n        /* \"#utility.yul\":261:264   */\n      dup5\n        /* \"#utility.yul\":257:273   */\n      add\n        /* \"#utility.yul\":254:279   */\n      gt\n        /* \"#utility.yul\":251:253   */\n      iszero\n      tag_90\n      jumpi\n        /* \"#utility.yul\":282:361   */\n      tag_91\n      tag_92\n      jump\t// in\n    tag_91:\n        /* \"#utility.yul\":251:253   */\n    tag_90:\n        /* \"#utility.yul\":372:413   */\n      tag_93\n        /* \"#utility.yul\":406:412   */\n      dup5\n        /* \"#utility.yul\":401:404   */\n      dup3\n        /* \"#utility.yul\":396:399   */\n      dup6\n        /* \"#utility.yul\":372:413   */\n      tag_94\n      jump\t// in\n    tag_93:\n        /* \"#utility.yul\":91:419   */\n      pop\n      swap4\n      swap3\n      pop\n      pop\n      pop\n      jump\t// out\n        /* \"#utility.yul\":439:779   */\n    tag_95:\n        /* \"#utility.yul\":495:500   */\n      0x00\n        /* \"#utility.yul\":544:547   */\n      dup3\n        /* \"#utility.yul\":537:541   */\n      0x1f\n        /* \"#utility.yul\":529:535   */\n      dup4\n        /* \"#utility.yul\":525:542   */\n      add\n        /* \"#utility.yul\":521:548   */\n      slt\n        /* \"#utility.yul\":511:513   */\n      tag_97\n      jumpi\n        /* \"#utility.yul\":552:631   */\n      tag_98\n      tag_99\n      jump\t// in\n    tag_98:\n        /* \"#utility.yul\":511:513   */\n    tag_97:\n        /* \"#utility.yul\":669:675   */\n      dup2\n        /* \"#utility.yul\":656:676   */\n      calldataload\n        /* \"#utility.yul\":694:773   */\n      tag_100\n        /* \"#utility.yul\":769:772   */\n      dup5\n        /* \"#utility.yul\":761:767   */\n      dup3\n        /* \"#utility.yul\":754:758   */\n      0x20\n        /* \"#utility.yul\":746:752   */\n      dup7\n        /* \"#utility.yul\":742:759   */\n      add\n        /* \"#utility.yul\":694:773   */\n      tag_84\n      jump\t// in\n    tag_100:\n        /* \"#utility.yul\":685:773   */\n      swap2\n      pop\n        /* \"#utility.yul\":501:779   */\n      pop\n      swap3\n      swap2\n      pop\n      pop\n      jump\t// out\n        /* \"#utility.yul\":785:1619   */\n    tag_15:\n        /* \"#utility.yul\":873:879   */\n      0x00\n        /* \"#utility.yul\":881:887   */\n      dup1\n        /* \"#utility.yul\":930:932   */\n      0x40\n        /* \"#utility.yul\":918:927   */\n      dup4\n        /* \"#utility.yul\":909:916   */\n      dup6\n        /* \"#utility.yul\":905:928   */\n      sub\n        /* \"#utility.yul\":901:933   */\n      slt\n        /* \"#utility.yul\":898:900   */\n      iszero\n      tag_102\n      jumpi\n        /* \"#utility.yul\":936:1015   */\n      tag_103\n      tag_104\n      jump\t// in\n    tag_103:\n        /* \"#utility.yul\":898:900   */\n    tag_102:\n        /* \"#utility.yul\":1084:1085   */\n      0x00\n        /* \"#utility.yul\":1073:1082   */\n      dup4\n        /* \"#utility.yul\":1069:1086   */\n      add\n        /* \"#utility.yul\":1056:1087   */\n      calldataload\n        /* \"#utility.yul\":1114:1132   */\n      0xffffffffffffffff\n        /* \"#utility.yul\":1106:1112   */\n      dup2\n        /* \"#utility.yul\":1103:1133   */\n      gt\n        /* \"#utility.yul\":1100:1102   */\n      iszero\n      tag_105\n      jumpi\n        /* \"#utility.yul\":1136:1215   */\n      tag_106\n      tag_107\n      jump\t// in\n    tag_106:\n        /* \"#utility.yul\":1100:1102   */\n    tag_105:\n        /* \"#utility.yul\":1241:1304   */\n      tag_108\n        /* \"#utility.yul\":1296:1303   */\n      dup6\n        /* \"#utility.yul\":1287:1293   */\n      dup3\n        /* \"#utility.yul\":1276:1285   */\n      dup7\n        /* \"#utility.yul\":1272:1294   */\n      add\n        /* \"#utility.yul\":1241:1304   */\n      tag_95\n      jump\t// in\n    tag_108:\n        /* \"#utility.yul\":1231:1304   */\n      swap3\n      pop\n        /* \"#utility.yul\":1027:1314   */\n      pop\n        /* \"#utility.yul\":1381:1383   */\n      0x20\n        /* \"#utility.yul\":1370:1379   */\n      dup4\n        /* \"#utility.yul\":1366:1384   */\n      add\n        /* \"#utility.yul\":1353:1385   */\n      calldataload\n        /* \"#utility.yul\":1412:1430   */\n      0xffffffffffffffff\n        /* \"#utility.yul\":1404:1410   */\n      dup2\n        /* \"#utility.yul\":1401:1431   */\n      gt\n        /* \"#utility.yul\":1398:1400   */\n      iszero\n      tag_109\n      jumpi\n        /* \"#utility.yul\":1434:1513   */\n      tag_110\n      tag_107\n      jump\t// in\n    tag_110:\n        /* \"#utility.yul\":1398:1400   */\n    tag_109:\n        /* \"#utility.yul\":1539:1602   */\n      tag_111\n        /* \"#utility.yul\":1594:1601   */\n      dup6\n        /* \"#utility.yul\":1585:1591   */\n      dup3\n        /* \"#utility.yul\":1574:1583   */\n      dup7\n        /* \"#utility.yul\":1570:1592   */\n      add\n        /* \"#utility.yul\":1539:1602   */\n      tag_95\n      jump\t// in\n    tag_111:\n        /* \"#utility.yul\":1529:1602   */\n      swap2\n      pop\n        /* \"#utility.yul\":1324:1612   */\n      pop\n        /* \"#utility.yul\":888:1619   */\n      swap3\n      pop\n      swap3\n      swap1\n      pop\n      jump\t// out\n        /* \"#utility.yul\":1625:3436   */\n    tag_21:\n        /* \"#utility.yul\":1770:1776   */\n      0x00\n        /* \"#utility.yul\":1778:1784   */\n      dup1\n        /* \"#utility.yul\":1786:1792   */\n      0x00\n        /* \"#utility.yul\":1794:1800   */\n      dup1\n        /* \"#utility.yul\":1802:1808   */\n      0x00\n        /* \"#utility.yul\":1851:1854   */\n      0xa0\n        /* \"#utility.yul\":1839:1848   */\n      dup7\n        /* \"#utility.yul\":1830:1837   */\n      dup9\n        /* \"#utility.yul\":1826:1849   */\n      sub\n        /* \"#utility.yul\":1822:1855   */\n      slt\n        /* \"#utility.yul\":1819:1821   */\n      iszero\n      tag_113\n      jumpi\n        /* \"#utility.yul\":1858:1937   */\n      tag_114\n      tag_104\n      jump\t// in\n    tag_114:\n        /* \"#utility.yul\":1819:1821   */\n    tag_113:\n        /* \"#utility.yul\":2006:2007   */\n      0x00\n        /* \"#utility.yul\":1995:2004   */\n      dup7\n        /* \"#utility.yul\":1991:2008   */\n      add\n        /* \"#utility.yul\":1978:2009   */\n      calldataload\n        /* \"#utility.yul\":2036:2054   */\n      0xffffffffffffffff\n        /* \"#utility.yul\":2028:2034   */\n      dup2\n        /* \"#utility.yul\":2025:2055   */\n      gt\n        /* \"#utility.yul\":2022:2024   */\n      iszero\n      tag_115\n      jumpi\n        /* \"#utility.yul\":2058:2137   */\n      tag_116\n      tag_107\n      jump\t// in\n    tag_116:\n        /* \"#utility.yul\":2022:2024   */\n    tag_115:\n        /* \"#utility.yul\":2163:2226   */\n      tag_117\n        /* \"#utility.yul\":2218:2225   */\n      dup9\n        /* \"#utility.yul\":2209:2215   */\n      dup3\n        /* \"#utility.yul\":2198:2207   */\n      dup10\n        /* \"#utility.yul\":2194:2216   */\n      add\n        /* \"#utility.yul\":2163:2226   */\n      tag_95\n      jump\t// in\n    tag_117:\n        /* \"#utility.yul\":2153:2226   */\n      swap6\n      pop\n        /* \"#utility.yul\":1949:2236   */\n      pop\n        /* \"#utility.yul\":2303:2305   */\n      0x20\n        /* \"#utility.yul\":2292:2301   */\n      dup7\n        /* \"#utility.yul\":2288:2306   */\n      add\n        /* \"#utility.yul\":2275:2307   */\n      calldataload\n        /* \"#utility.yul\":2334:2352   */\n      0xffffffffffffffff\n        /* \"#utility.yul\":2326:2332   */\n      dup2\n        /* \"#utility.yul\":2323:2353   */\n      gt\n        /* \"#utility.yul\":2320:2322   */\n      iszero\n      tag_118\n      jumpi\n        /* \"#utility.yul\":2356:2435   */\n      tag_119\n      tag_107\n      jump\t// in\n    tag_119:\n        /* \"#utility.yul\":2320:2322   */\n    tag_118:\n        /* \"#utility.yul\":2461:2524   */\n      tag_120\n        /* \"#utility.yul\":2516:2523   */\n      dup9\n        /* \"#utility.yul\":2507:2513   */\n      dup3\n        /* \"#utility.yul\":2496:2505   */\n      dup10\n        /* \"#utility.yul\":2492:2514   */\n      add\n        /* \"#utility.yul\":2461:2524   */\n      tag_95\n      jump\t// in\n    tag_120:\n        /* \"#utility.yul\":2451:2524   */\n      swap5\n      pop\n        /* \"#utility.yul\":2246:2534   */\n      pop\n        /* \"#utility.yul\":2601:2603   */\n      0x40\n        /* \"#utility.yul\":2590:2599   */\n      dup7\n        /* \"#utility.yul\":2586:2604   */\n      add\n        /* \"#utility.yul\":2573:2605   */\n      calldataload\n        /* \"#utility.yul\":2632:2650   */\n      0xffffffffffffffff\n        /* \"#utility.yul\":2624:2630   */\n      dup2\n        /* \"#utility.yul\":2621:2651   */\n      gt\n        /* \"#utility.yul\":2618:2620   */\n      iszero\n      tag_121\n      jumpi\n        /* \"#utility.yul\":2654:2733   */\n      tag_122\n      tag_107\n      jump\t// in\n    tag_122:\n        /* \"#utility.yul\":2618:2620   */\n    tag_121:\n        /* \"#utility.yul\":2759:2822   */\n      tag_123\n        /* \"#utility.yul\":2814:2821   */\n      dup9\n        /* \"#utility.yul\":2805:2811   */\n      dup3\n        /* \"#utility.yul\":2794:2803   */\n      dup10\n        /* \"#utility.yul\":2790:2812   */\n      add\n        /* \"#utility.yul\":2759:2822   */\n      tag_95\n      jump\t// in\n    tag_123:\n        /* \"#utility.yul\":2749:2822   */\n      swap4\n      pop\n        /* \"#utility.yul\":2544:2832   */\n      pop\n        /* \"#utility.yul\":2899:2901   */\n      0x60\n        /* \"#utility.yul\":2888:2897   */\n      dup7\n        /* \"#utility.yul\":2884:2902   */\n      add\n        /* \"#utility.yul\":2871:2903   */\n      calldataload\n        /* \"#utility.yul\":2930:2948   */\n      0xffffffffffffffff\n        /* \"#utility.yul\":2922:2928   */\n      dup2\n        /* \"#utility.yul\":2919:2949   */\n      gt\n        /* \"#utility.yul\":2916:2918   */\n      iszero\n      tag_124\n      jumpi\n        /* \"#utility.yul\":2952:3031   */\n      tag_125\n      tag_107\n      jump\t// in\n    tag_125:\n        /* \"#utility.yul\":2916:2918   */\n    tag_124:\n        /* \"#utility.yul\":3057:3120   */\n      tag_126\n        /* \"#utility.yul\":3112:3119   */\n      dup9\n        /* \"#utility.yul\":3103:3109   */\n      dup3\n        /* \"#utility.yul\":3092:3101   */\n      dup10\n        /* \"#utility.yul\":3088:3110   */\n      add\n        /* \"#utility.yul\":3057:3120   */\n      tag_95\n      jump\t// in\n    tag_126:\n        /* \"#utility.yul\":3047:3120   */\n      swap3\n      pop\n        /* \"#utility.yul\":2842:3130   */\n      pop\n        /* \"#utility.yul\":3197:3200   */\n      0x80\n        /* \"#utility.yul\":3186:3195   */\n      dup7\n        /* \"#utility.yul\":3182:3201   */\n      add\n        /* \"#utility.yul\":3169:3202   */\n      calldataload\n        /* \"#utility.yul\":3229:3247   */\n      0xffffffffffffffff\n        /* \"#utility.yul\":3221:3227   */\n      dup2\n        /* \"#utility.yul\":3218:3248   */\n      gt\n        /* \"#utility.yul\":3215:3217   */\n      iszero\n      tag_127\n      jumpi\n        /* \"#utility.yul\":3251:3330   */\n      tag_128\n      tag_107\n      jump\t// in\n    tag_128:\n        /* \"#utility.yul\":3215:3217   */\n    tag_127:\n        /* \"#utility.yul\":3356:3419   */\n      tag_129\n        /* \"#utility.yul\":3411:3418   */\n      dup9\n        /* \"#utility.yul\":3402:3408   */\n      dup3\n        /* \"#utility.yul\":3391:3400   */\n      dup10\n        /* \"#utility.yul\":3387:3409   */\n      add\n        /* \"#utility.yul\":3356:3419   */\n      tag_95\n      jump\t// in\n    tag_129:\n        /* \"#utility.yul\":3346:3419   */\n      swap2\n      pop\n        /* \"#utility.yul\":3140:3429   */\n      pop\n        /* \"#utility.yul\":1809:3436   */\n      swap3\n      swap6\n      pop\n      swap3\n      swap6\n      swap1\n      swap4\n      pop\n      jump\t// out\n        /* \"#utility.yul\":3442:3560   */\n    tag_130:\n        /* \"#utility.yul\":3529:3553   */\n      tag_132\n        /* \"#utility.yul\":3547:3552   */\n      dup2\n        /* \"#utility.yul\":3529:3553   */\n      tag_133\n      jump\t// in\n    tag_132:\n        /* \"#utility.yul\":3524:3527   */\n      dup3\n        /* \"#utility.yul\":3517:3554   */\n      mstore\n        /* \"#utility.yul\":3507:3560   */\n      pop\n      pop\n      jump\t// out\n        /* \"#utility.yul\":3566:3930   */\n    tag_134:\n        /* \"#utility.yul\":3654:3657   */\n      0x00\n        /* \"#utility.yul\":3682:3721   */\n      tag_136\n        /* \"#utility.yul\":3715:3720   */\n      dup3\n        /* \"#utility.yul\":3682:3721   */\n      tag_137\n      jump\t// in\n    tag_136:\n        /* \"#utility.yul\":3737:3808   */\n      tag_138\n        /* \"#utility.yul\":3801:3807   */\n      dup2\n        /* \"#utility.yul\":3796:3799   */\n      dup6\n        /* \"#utility.yul\":3737:3808   */\n      tag_139\n      jump\t// in\n    tag_138:\n        /* \"#utility.yul\":3730:3808   */\n      swap4\n      pop\n        /* \"#utility.yul\":3817:3869   */\n      tag_140\n        /* \"#utility.yul\":3862:3868   */\n      dup2\n        /* \"#utility.yul\":3857:3860   */\n      dup6\n        /* \"#utility.yul\":3850:3854   */\n      0x20\n        /* \"#utility.yul\":3843:3848   */\n      dup7\n        /* \"#utility.yul\":3839:3855   */\n      add\n        /* \"#utility.yul\":3817:3869   */\n      tag_141\n      jump\t// in\n    tag_140:\n        /* \"#utility.yul\":3894:3923   */\n      tag_142\n        /* \"#utility.yul\":3916:3922   */\n      dup2\n        /* \"#utility.yul\":3894:3923   */\n      tag_143\n      jump\t// in\n    tag_142:\n        /* \"#utility.yul\":3889:3892   */\n      dup5\n        /* \"#utility.yul\":3885:3924   */\n      add\n        /* \"#utility.yul\":3878:3924   */\n      swap2\n      pop\n        /* \"#utility.yul\":3658:3930   */\n      pop\n      swap3\n      swap2\n      pop\n      pop\n      jump\t// out\n        /* \"#utility.yul\":3936:4302   */\n    tag_144:\n        /* \"#utility.yul\":4078:4081   */\n      0x00\n        /* \"#utility.yul\":4099:4166   */\n      tag_146\n        /* \"#utility.yul\":4163:4165   */\n      0x0b\n        /* \"#utility.yul\":4158:4161   */\n      dup4\n        /* \"#utility.yul\":4099:4166   */\n      tag_139\n      jump\t// in\n    tag_146:\n        /* \"#utility.yul\":4092:4166   */\n      swap2\n      pop\n        /* \"#utility.yul\":4175:4268   */\n      tag_147\n        /* \"#utility.yul\":4264:4267   */\n      dup3\n        /* \"#utility.yul\":4175:4268   */\n      tag_148\n      jump\t// in\n    tag_147:\n        /* \"#utility.yul\":4293:4295   */\n      0x20\n        /* \"#utility.yul\":4288:4291   */\n      dup3\n        /* \"#utility.yul\":4284:4296   */\n      add\n        /* \"#utility.yul\":4277:4296   */\n      swap1\n      pop\n        /* \"#utility.yul\":4082:4302   */\n      swap2\n      swap1\n      pop\n      jump\t// out\n        /* \"#utility.yul\":4308:4674   */\n    tag_149:\n        /* \"#utility.yul\":4450:4453   */\n      0x00\n        /* \"#utility.yul\":4471:4538   */\n      tag_151\n        /* \"#utility.yul\":4535:4537   */\n      0x17\n        /* \"#utility.yul\":4530:4533   */\n      dup4\n        /* \"#utility.yul\":4471:4538   */\n      tag_139\n      jump\t// in\n    tag_151:\n        /* \"#utility.yul\":4464:4538   */\n      swap2\n      pop\n        /* \"#utility.yul\":4547:4640   */\n      tag_152\n        /* \"#utility.yul\":4636:4639   */\n      dup3\n        /* \"#utility.yul\":4547:4640   */\n      tag_153\n      jump\t// in\n    tag_152:\n        /* \"#utility.yul\":4665:4667   */\n      0x20\n        /* \"#utility.yul\":4660:4663   */\n      dup3\n        /* \"#utility.yul\":4656:4668   */\n      add\n        /* \"#utility.yul\":4649:4668   */\n      swap1\n      pop\n        /* \"#utility.yul\":4454:4674   */\n      swap2\n      swap1\n      pop\n      jump\t// out\n        /* \"#utility.yul\":4680:4798   */\n    tag_154:\n        /* \"#utility.yul\":4767:4791   */\n      tag_156\n        /* \"#utility.yul\":4785:4790   */\n      dup2\n        /* \"#utility.yul\":4767:4791   */\n      tag_157\n      jump\t// in\n    tag_156:\n        /* \"#utility.yul\":4762:4765   */\n      dup3\n        /* \"#utility.yul\":4755:4792   */\n      mstore\n        /* \"#utility.yul\":4745:4798   */\n      pop\n      pop\n      jump\t// out\n        /* \"#utility.yul\":4804:5026   */\n    tag_33:\n        /* \"#utility.yul\":4897:4901   */\n      0x00\n        /* \"#utility.yul\":4935:4937   */\n      0x20\n        /* \"#utility.yul\":4924:4933   */\n      dup3\n        /* \"#utility.yul\":4920:4938   */\n      add\n        /* \"#utility.yul\":4912:4938   */\n      swap1\n      pop\n        /* \"#utility.yul\":4948:5019   */\n      tag_159\n        /* \"#utility.yul\":5016:5017   */\n      0x00\n        /* \"#utility.yul\":5005:5014   */\n      dup4\n        /* \"#utility.yul\":5001:5018   */\n      add\n        /* \"#utility.yul\":4992:4998   */\n      dup5\n        /* \"#utility.yul\":4948:5019   */\n      tag_130\n      jump\t// in\n    tag_159:\n        /* \"#utility.yul\":4902:5026   */\n      swap3\n      swap2\n      pop\n      pop\n      jump\t// out\n        /* \"#utility.yul\":5032:5345   */\n    tag_18:\n        /* \"#utility.yul\":5145:5149   */\n      0x00\n        /* \"#utility.yul\":5183:5185   */\n      0x20\n        /* \"#utility.yul\":5172:5181   */\n      dup3\n        /* \"#utility.yul\":5168:5186   */\n      add\n        /* \"#utility.yul\":5160:5186   */\n      swap1\n      pop\n        /* \"#utility.yul\":5232:5241   */\n      dup2\n        /* \"#utility.yul\":5226:5230   */\n      dup2\n        /* \"#utility.yul\":5222:5242   */\n      sub\n        /* \"#utility.yul\":5218:5219   */\n      0x00\n        /* \"#utility.yul\":5207:5216   */\n      dup4\n        /* \"#utility.yul\":5203:5220   */\n      add\n        /* \"#utility.yul\":5196:5243   */\n      mstore\n        /* \"#utility.yul\":5260:5338   */\n      tag_161\n        /* \"#utility.yul\":5333:5337   */\n      dup2\n        /* \"#utility.yul\":5324:5330   */\n      dup5\n        /* \"#utility.yul\":5260:5338   */\n      tag_134\n      jump\t// in\n    tag_161:\n        /* \"#utility.yul\":5252:5338   */\n      swap1\n      pop\n        /* \"#utility.yul\":5150:5345   */\n      swap3\n      swap2\n      pop\n      pop\n      jump\t// out\n        /* \"#utility.yul\":5351:5770   */\n    tag_66:\n        /* \"#utility.yul\":5517:5521   */\n      0x00\n        /* \"#utility.yul\":5555:5557   */\n      0x20\n        /* \"#utility.yul\":5544:5553   */\n      dup3\n        /* \"#utility.yul\":5540:5558   */\n      add\n        /* \"#utility.yul\":5532:5558   */\n      swap1\n      pop\n        /* \"#utility.yul\":5604:5613   */\n      dup2\n        /* \"#utility.yul\":5598:5602   */\n      dup2\n        /* \"#utility.yul\":5594:5614   */\n      sub\n        /* \"#utility.yul\":5590:5591   */\n      0x00\n        /* \"#utility.yul\":5579:5588   */\n      dup4\n        /* \"#utility.yul\":5575:5592   */\n      add\n        /* \"#utility.yul\":5568:5615   */\n      mstore\n        /* \"#utility.yul\":5632:5763   */\n      tag_163\n        /* \"#utility.yul\":5758:5762   */\n      dup2\n        /* \"#utility.yul\":5632:5763   */\n      tag_144\n      jump\t// in\n    tag_163:\n        /* \"#utility.yul\":5624:5763   */\n      swap1\n      pop\n        /* \"#utility.yul\":5522:5770   */\n      swap2\n      swap1\n      pop\n      jump\t// out\n        /* \"#utility.yul\":5776:6195   */\n    tag_56:\n        /* \"#utility.yul\":5942:5946   */\n      0x00\n        /* \"#utility.yul\":5980:5982   */\n      0x20\n        /* \"#utility.yul\":5969:5978   */\n      dup3\n        /* \"#utility.yul\":5965:5983   */\n      add\n        /* \"#utility.yul\":5957:5983   */\n      swap1\n      pop\n        /* \"#utility.yul\":6029:6038   */\n      dup2\n        /* \"#utility.yul\":6023:6027   */\n      dup2\n        /* \"#utility.yul\":6019:6039   */\n      sub\n        /* \"#utility.yul\":6015:6016   */\n      0x00\n        /* \"#utility.yul\":6004:6013   */\n      dup4\n        /* \"#utility.yul\":6000:6017   */\n      add\n        /* \"#utility.yul\":5993:6040   */\n      mstore\n        /* \"#utility.yul\":6057:6188   */\n      tag_165\n        /* \"#utility.yul\":6183:6187   */\n      dup2\n        /* \"#utility.yul\":6057:6188   */\n      tag_149\n      jump\t// in\n    tag_165:\n        /* \"#utility.yul\":6049:6188   */\n      swap1\n      pop\n        /* \"#utility.yul\":5947:6195   */\n      swap2\n      swap1\n      pop\n      jump\t// out\n        /* \"#utility.yul\":6201:6423   */\n    tag_12:\n        /* \"#utility.yul\":6294:6298   */\n      0x00\n        /* \"#utility.yul\":6332:6334   */\n      0x20\n        /* \"#utility.yul\":6321:6330   */\n      dup3\n        /* \"#utility.yul\":6317:6335   */\n      add\n        /* \"#utility.yul\":6309:6335   */\n      swap1\n      pop\n        /* \"#utility.yul\":6345:6416   */\n      tag_167\n        /* \"#utility.yul\":6413:6414   */\n      0x00\n        /* \"#utility.yul\":6402:6411   */\n      dup4\n        /* \"#utility.yul\":6398:6415   */\n      add\n        /* \"#utility.yul\":6389:6395   */\n      dup5\n        /* \"#utility.yul\":6345:6416   */\n      tag_154\n      jump\t// in\n    tag_167:\n        /* \"#utility.yul\":6299:6423   */\n      swap3\n      swap2\n      pop\n      pop\n      jump\t// out\n        /* \"#utility.yul\":6429:6558   */\n    tag_89:\n        /* \"#utility.yul\":6463:6469   */\n      0x00\n        /* \"#utility.yul\":6490:6510   */\n      tag_169\n      tag_170\n      jump\t// in\n    tag_169:\n        /* \"#utility.yul\":6480:6510   */\n      swap1\n      pop\n        /* \"#utility.yul\":6519:6552   */\n      tag_171\n        /* \"#utility.yul\":6547:6551   */\n      dup3\n        /* \"#utility.yul\":6539:6545   */\n      dup3\n        /* \"#utility.yul\":6519:6552   */\n      tag_172\n      jump\t// in\n    tag_171:\n        /* \"#utility.yul\":6470:6558   */\n      swap2\n      swap1\n      pop\n      jump\t// out\n        /* \"#utility.yul\":6564:6639   */\n    tag_170:\n        /* \"#utility.yul\":6597:6603   */\n      0x00\n        /* \"#utility.yul\":6630:6632   */\n      0x40\n        /* \"#utility.yul\":6624:6633   */\n      mload\n        /* \"#utility.yul\":6614:6633   */\n      swap1\n      pop\n        /* \"#utility.yul\":6604:6639   */\n      swap1\n      jump\t// out\n        /* \"#utility.yul\":6645:6953   */\n    tag_88:\n        /* \"#utility.yul\":6707:6711   */\n      0x00\n        /* \"#utility.yul\":6797:6815   */\n      0xffffffffffffffff\n        /* \"#utility.yul\":6789:6795   */\n      dup3\n        /* \"#utility.yul\":6786:6816   */\n      gt\n        /* \"#utility.yul\":6783:6785   */\n      iszero\n      tag_175\n      jumpi\n        /* \"#utility.yul\":6819:6837   */\n      tag_176\n      tag_177\n      jump\t// in\n    tag_176:\n        /* \"#utility.yul\":6783:6785   */\n    tag_175:\n        /* \"#utility.yul\":6857:6886   */\n      tag_178\n        /* \"#utility.yul\":6879:6885   */\n      dup3\n        /* \"#utility.yul\":6857:6886   */\n      tag_143\n      jump\t// in\n    tag_178:\n        /* \"#utility.yul\":6849:6886   */\n      swap1\n      pop\n        /* \"#utility.yul\":6941:6945   */\n      0x20\n        /* \"#utility.yul\":6935:6939   */\n      dup2\n        /* \"#utility.yul\":6931:6946   */\n      add\n        /* \"#utility.yul\":6923:6946   */\n      swap1\n      pop\n        /* \"#utility.yul\":6712:6953   */\n      swap2\n      swap1\n      pop\n      jump\t// out\n        /* \"#utility.yul\":6959:7058   */\n    tag_137:\n        /* \"#utility.yul\":7011:7017   */\n      0x00\n        /* \"#utility.yul\":7045:7050   */\n      dup2\n        /* \"#utility.yul\":7039:7051   */\n      mload\n        /* \"#utility.yul\":7029:7051   */\n      swap1\n      pop\n        /* \"#utility.yul\":7018:7058   */\n      swap2\n      swap1\n      pop\n      jump\t// out\n        /* \"#utility.yul\":7064:7233   */\n    tag_139:\n        /* \"#utility.yul\":7148:7159   */\n      0x00\n        /* \"#utility.yul\":7182:7188   */\n      dup3\n        /* \"#utility.yul\":7177:7180   */\n      dup3\n        /* \"#utility.yul\":7170:7189   */\n      mstore\n        /* \"#utility.yul\":7222:7226   */\n      0x20\n        /* \"#utility.yul\":7217:7220   */\n      dup3\n        /* \"#utility.yul\":7213:7227   */\n      add\n        /* \"#utility.yul\":7198:7227   */\n      swap1\n      pop\n        /* \"#utility.yul\":7160:7233   */\n      swap3\n      swap2\n      pop\n      pop\n      jump\t// out\n        /* \"#utility.yul\":7239:7335   */\n    tag_133:\n        /* \"#utility.yul\":7276:7283   */\n      0x00\n        /* \"#utility.yul\":7305:7329   */\n      tag_182\n        /* \"#utility.yul\":7323:7328   */\n      dup3\n        /* \"#utility.yul\":7305:7329   */\n      tag_183\n      jump\t// in\n    tag_182:\n        /* \"#utility.yul\":7294:7329   */\n      swap1\n      pop\n        /* \"#utility.yul\":7284:7335   */\n      swap2\n      swap1\n      pop\n      jump\t// out\n        /* \"#utility.yul\":7341:7467   */\n    tag_183:\n        /* \"#utility.yul\":7378:7385   */\n      0x00\n        /* \"#utility.yul\":7418:7460   */\n      0xffffffffffffffffffffffffffffffffffffffff\n        /* \"#utility.yul\":7411:7416   */\n      dup3\n        /* \"#utility.yul\":7407:7461   */\n      and\n        /* \"#utility.yul\":7396:7461   */\n      swap1\n      pop\n        /* \"#utility.yul\":7386:7467   */\n      swap2\n      swap1\n      pop\n      jump\t// out\n        /* \"#utility.yul\":7473:7550   */\n    tag_157:\n        /* \"#utility.yul\":7510:7517   */\n      0x00\n        /* \"#utility.yul\":7539:7544   */\n      dup2\n        /* \"#utility.yul\":7528:7544   */\n      swap1\n      pop\n        /* \"#utility.yul\":7518:7550   */\n      swap2\n      swap1\n      pop\n      jump\t// out\n        /* \"#utility.yul\":7556:7710   */\n    tag_94:\n        /* \"#utility.yul\":7640:7646   */\n      dup3\n        /* \"#utility.yul\":7635:7638   */\n      dup2\n        /* \"#utility.yul\":7630:7633   */\n      dup4\n        /* \"#utility.yul\":7617:7647   */\n      calldatacopy\n        /* \"#utility.yul\":7702:7703   */\n      0x00\n        /* \"#utility.yul\":7693:7699   */\n      dup4\n        /* \"#utility.yul\":7688:7691   */\n      dup4\n        /* \"#utility.yul\":7684:7700   */\n      add\n        /* \"#utility.yul\":7677:7704   */\n      mstore\n        /* \"#utility.yul\":7607:7710   */\n      pop\n      pop\n      pop\n      jump\t// out\n        /* \"#utility.yul\":7716:8023   */\n    tag_141:\n        /* \"#utility.yul\":7784:7785   */\n      0x00\n        /* \"#utility.yul\":7794:7907   */\n    tag_188:\n        /* \"#utility.yul\":7808:7814   */\n      dup4\n        /* \"#utility.yul\":7805:7806   */\n      dup2\n        /* \"#utility.yul\":7802:7815   */\n      lt\n        /* \"#utility.yul\":7794:7907   */\n      iszero\n      tag_190\n      jumpi\n        /* \"#utility.yul\":7893:7894   */\n      dup1\n        /* \"#utility.yul\":7888:7891   */\n      dup3\n        /* \"#utility.yul\":7884:7895   */\n      add\n        /* \"#utility.yul\":7878:7896   */\n      mload\n        /* \"#utility.yul\":7874:7875   */\n      dup2\n        /* \"#utility.yul\":7869:7872   */\n      dup5\n        /* \"#utility.yul\":7865:7876   */\n      add\n        /* \"#utility.yul\":7858:7897   */\n      mstore\n        /* \"#utility.yul\":7830:7832   */\n      0x20\n        /* \"#utility.yul\":7827:7828   */\n      dup2\n        /* \"#utility.yul\":7823:7833   */\n      add\n        /* \"#utility.yul\":7818:7833   */\n      swap1\n      pop\n        /* \"#utility.yul\":7794:7907   */\n      jump(tag_188)\n    tag_190:\n        /* \"#utility.yul\":7925:7931   */\n      dup4\n        /* \"#utility.yul\":7922:7923   */\n      dup2\n        /* \"#utility.yul\":7919:7932   */\n      gt\n        /* \"#utility.yul\":7916:7918   */\n      iszero\n      tag_191\n      jumpi\n        /* \"#utility.yul\":8005:8006   */\n      0x00\n        /* \"#utility.yul\":7996:8002   */\n      dup5\n        /* \"#utility.yul\":7991:7994   */\n      dup5\n        /* \"#utility.yul\":7987:8003   */\n      add\n        /* \"#utility.yul\":7980:8007   */\n      mstore\n        /* \"#utility.yul\":7916:7918   */\n    tag_191:\n        /* \"#utility.yul\":7765:8023   */\n      pop\n      pop\n      pop\n      pop\n      jump\t// out\n        /* \"#utility.yul\":8029:8349   */\n    tag_37:\n        /* \"#utility.yul\":8073:8079   */\n      0x00\n        /* \"#utility.yul\":8110:8111   */\n      0x02\n        /* \"#utility.yul\":8104:8108   */\n      dup3\n        /* \"#utility.yul\":8100:8112   */\n      div\n        /* \"#utility.yul\":8090:8112   */\n      swap1\n      pop\n        /* \"#utility.yul\":8157:8158   */\n      0x01\n        /* \"#utility.yul\":8151:8155   */\n      dup3\n        /* \"#utility.yul\":8147:8159   */\n      and\n        /* \"#utility.yul\":8178:8196   */\n      dup1\n        /* \"#utility.yul\":8168:8170   */\n      tag_193\n      jumpi\n        /* \"#utility.yul\":8234:8238   */\n      0x7f\n        /* \"#utility.yul\":8226:8232   */\n      dup3\n        /* \"#utility.yul\":8222:8239   */\n      and\n        /* \"#utility.yul\":8212:8239   */\n      swap2\n      pop\n        /* \"#utility.yul\":8168:8170   */\n    tag_193:\n        /* \"#utility.yul\":8296:8298   */\n      0x20\n        /* \"#utility.yul\":8288:8294   */\n      dup3\n        /* \"#utility.yul\":8285:8299   */\n      lt\n        /* \"#utility.yul\":8265:8283   */\n      dup2\n        /* \"#utility.yul\":8262:8300   */\n      eq\n        /* \"#utility.yul\":8259:8261   */\n      iszero\n      tag_194\n      jumpi\n        /* \"#utility.yul\":8315:8333   */\n      tag_195\n      tag_196\n      jump\t// in\n    tag_195:\n        /* \"#utility.yul\":8259:8261   */\n    tag_194:\n        /* \"#utility.yul\":8080:8349   */\n      pop\n      swap2\n      swap1\n      pop\n      jump\t// out\n        /* \"#utility.yul\":8355:8636   */\n    tag_172:\n        /* \"#utility.yul\":8438:8465   */\n      tag_198\n        /* \"#utility.yul\":8460:8464   */\n      dup3\n        /* \"#utility.yul\":8438:8465   */\n      tag_143\n      jump\t// in\n    tag_198:\n        /* \"#utility.yul\":8430:8436   */\n      dup2\n        /* \"#utility.yul\":8426:8466   */\n      add\n        /* \"#utility.yul\":8568:8574   */\n      dup2\n        /* \"#utility.yul\":8556:8566   */\n      dup2\n        /* \"#utility.yul\":8553:8575   */\n      lt\n        /* \"#utility.yul\":8532:8550   */\n      0xffffffffffffffff\n        /* \"#utility.yul\":8520:8530   */\n      dup3\n        /* \"#utility.yul\":8517:8551   */\n      gt\n        /* \"#utility.yul\":8514:8576   */\n      or\n        /* \"#utility.yul\":8511:8513   */\n      iszero\n      tag_199\n      jumpi\n        /* \"#utility.yul\":8579:8597   */\n      tag_200\n      tag_177\n      jump\t// in\n    tag_200:\n        /* \"#utility.yul\":8511:8513   */\n    tag_199:\n        /* \"#utility.yul\":8619:8629   */\n      dup1\n        /* \"#utility.yul\":8615:8617   */\n      0x40\n        /* \"#utility.yul\":8608:8630   */\n      mstore\n        /* \"#utility.yul\":8398:8636   */\n      pop\n      pop\n      pop\n      jump\t// out\n        /* \"#utility.yul\":8642:8875   */\n    tag_53:\n        /* \"#utility.yul\":8681:8684   */\n      0x00\n        /* \"#utility.yul\":8704:8728   */\n      tag_202\n        /* \"#utility.yul\":8722:8727   */\n      dup3\n        /* \"#utility.yul\":8704:8728   */\n      tag_157\n      jump\t// in\n    tag_202:\n        /* \"#utility.yul\":8695:8728   */\n      swap2\n      pop\n        /* \"#utility.yul\":8750:8816   */\n      0xffffffffffffffffffffffffffffffffffffffffffffffffffffffffffffffff\n        /* \"#utility.yul\":8743:8748   */\n      dup3\n        /* \"#utility.yul\":8740:8817   */\n      eq\n        /* \"#utility.yul\":8737:8739   */\n      iszero\n      tag_203\n      jumpi\n        /* \"#utility.yul\":8820:8838   */\n      tag_204\n      tag_205\n      jump\t// in\n    tag_204:\n        /* \"#utility.yul\":8737:8739   */\n    tag_203:\n        /* \"#utility.yul\":8867:8868   */\n      0x01\n        /* \"#utility.yul\":8860:8865   */\n      dup3\n        /* \"#utility.yul\":8856:8869   */\n      add\n        /* \"#utility.yul\":8849:8869   */\n      swap1\n      pop\n        /* \"#utility.yul\":8685:8875   */\n      swap2\n      swap1\n      pop\n      jump\t// out\n        /* \"#utility.yul\":8881:9061   */\n    tag_205:\n        /* \"#utility.yul\":8929:9006   */\n      0x4e487b7100000000000000000000000000000000000000000000000000000000\n        /* \"#utility.yul\":8926:8927   */\n      0x00\n        /* \"#utility.yul\":8919:9007   */\n      mstore\n        /* \"#utility.yul\":9026:9030   */\n      0x11\n        /* \"#utility.yul\":9023:9024   */\n      0x04\n        /* \"#utility.yul\":9016:9031   */\n      mstore\n        /* \"#utility.yul\":9050:9054   */\n      0x24\n        /* \"#utility.yul\":9047:9048   */\n      0x00\n        /* \"#utility.yul\":9040:9055   */\n      revert\n        /* \"#utility.yul\":9067:9247   */\n    tag_196:\n        /* \"#utility.yul\":9115:9192   */\n      0x4e487b7100000000000000000000000000000000000000000000000000000000\n        /* \"#utility.yul\":9112:9113   */\n      0x00\n        /* \"#utility.yul\":9105:9193   */\n      mstore\n        /* \"#utility.yul\":9212:9216   */\n      0x22\n        /* \"#utility.yul\":9209:9210   */\n      0x04\n        /* \"#utility.yul\":9202:9217   */\n      mstore\n        /* \"#utility.yul\":9236:9240   */\n      0x24\n        /* \"#utility.yul\":9233:9234   */\n      0x00\n        /* \"#utility.yul\":9226:9241   */\n      revert\n        /* \"#utility.yul\":9253:9433   */\n    tag_177:\n        /* \"#utility.yul\":9301:9378   */\n      0x4e487b7100000000000000000000000000000000000000000000000000000000\n        /* \"#utility.yul\":9298:9299   */\n      0x00\n        /* \"#utility.yul\":9291:9379   */\n      mstore\n        /* \"#utility.yul\":9398:9402   */\n      0x41\n        /* \"#utility.yul\":9395:9396   */\n      0x04\n        /* \"#utility.yul\":9388:9403   */\n      mstore\n        /* \"#utility.yul\":9422:9426   */\n      0x24\n        /* \"#utility.yul\":9419:9420   */\n      0x00\n        /* \"#utility.yul\":9412:9427   */\n      revert\n        /* \"#utility.yul\":9439:9556   */\n    tag_99:\n        /* \"#utility.yul\":9548:9549   */\n      0x00\n        /* \"#utility.yul\":9545:9546   */\n      dup1\n        /* \"#utility.yul\":9538:9550   */\n      revert\n        /* \"#utility.yul\":9562:9679   */\n    tag_92:\n        /* \"#utility.yul\":9671:9672   */\n      0x00\n        /* \"#utility.yul\":9668:9669   */\n      dup1\n        /* \"#utility.yul\":9661:9673   */\n      revert\n        /* \"#utility.yul\":9685:9802   */\n    tag_107:\n        /* \"#utility.yul\":9794:9795   */\n      0x00\n        /* \"#utility.yul\":9791:9792   */\n      dup1\n        /* \"#utility.yul\":9784:9796   */\n      revert\n        /* \"#utility.yul\":9808:9925   */\n    tag_104:\n        /* \"#utility.yul\":9917:9918   */\n      0x00\n        /* \"#utility.yul\":9914:9915   */\n      dup1\n        /* \"#utility.yul\":9907:9919   */\n      revert\n        /* \"#utility.yul\":9931:10033   */\n    tag_143:\n        /* \"#utility.yul\":9972:9978   */\n      0x00\n        /* \"#utility.yul\":10023:10025   */\n      0x1f\n        /* \"#utility.yul\":10019:10026   */\n      not\n        /* \"#utility.yul\":10014:10016   */\n      0x1f\n        /* \"#utility.yul\":10007:10012   */\n      dup4\n        /* \"#utility.yul\":10003:10017   */\n      add\n        /* \"#utility.yul\":9999:10027   */\n      and\n        /* \"#utility.yul\":9989:10027   */\n      swap1\n      pop\n        /* \"#utility.yul\":9979:10033   */\n      swap2\n      swap1\n      pop\n      jump\t// out\n        /* \"#utility.yul\":10039:10200   */\n    tag_148:\n        /* \"#utility.yul\":10179:10192   */\n      0x4e6f7420616c6c6f776564000000000000000000000000000000000000000000\n        /* \"#utility.yul\":10175:10176   */\n      0x00\n        /* \"#utility.yul\":10167:10173   */\n      dup3\n        /* \"#utility.yul\":10163:10177   */\n      add\n        /* \"#utility.yul\":10156:10193   */\n      mstore\n        /* \"#utility.yul\":10145:10200   */\n      pop\n      jump\t// out\n        /* \"#utility.yul\":10206:10379   */\n    tag_153:\n        /* \"#utility.yul\":10346:10371   */\n      0x5375636365737366756c6c792052656769737465726564000000000000000000\n        /* \"#utility.yul\":10342:10343   */\n      0x00\n        /* \"#utility.yul\":10334:10340   */\n      dup3\n        /* \"#utility.yul\":10330:10344   */\n      add\n        /* \"#utility.yul\":10323:10372   */\n      mstore\n        /* \"#utility.yul\":10312:10379   */\n      pop\n      jump\t// out\n    stop\n    data_f8cee5838de095b73bc0eb68505c82192a6e7ef8eb72dc52884288f7c470afa7 5573657220646f65736e6f7420657869737420212120526567697374657220616e642074727920616761696e202121\n\n    auxdata: 0xa264697066735822122058e033ff3dab636a184019640af46d30171692f6de65b0044948089423ad39aa64736f6c63430008060033\n}\n",
				"bytecode": {
					"linkReferences": {},
					"object": "608060405234801561001057600080fd5b5060008081905550610efc806100276000396000f3fe608060405234801561001057600080fd5b50600436106100625760003560e01c806312679323146100675780634a9f2771146100855780635a09007b146100b5578063681f3e6d146100e5578063c127ae4114610103578063ebc3eee814610121575b600080fd5b61006f61013f565b60405161007c9190610bdc565b60405180910390f35b61009f600480360381019061009a9190610943565b610145565b6040516100ac9190610b7a565b60405180910390f35b6100cf60048036038101906100ca91906109bb565b61027f565b6040516100dc9190610b7a565b60405180910390f35b6100ed610552565b6040516100fa9190610b7a565b60405180910390f35b61010b610624565b6040516101189190610b7a565b60405180910390f35b6101296107c6565b6040516101369190610b5f565b60405180910390f35b60005481565b60606000610151610552565b90506000600160003373ffffffffffffffffffffffffffffffffffffffff1673ffffffffffffffffffffffffffffffffffffffff16815260200190815260200160002060030180546101a290610ce7565b80601f01602080910402602001604051908101604052809291908181526020018280546101ce90610ce7565b801561021b5780601f106101f05761010080835404028352916020019161021b565b820191906000526020600020905b8154815290600101906020018083116101fe57829003601f168201915b505050505090508480519060200120828051906020012014801561024c575083805190602001208180519060200120145b1561025b578492505050610279565b6040518060600160405280602f8152602001610e98602f9139925050505b92915050565b606085600160003373ffffffffffffffffffffffffffffffffffffffff1673ffffffffffffffffffffffffffffffffffffffff16815260200190815260200160002060000190805190602001906102d7929190610830565b5084600160003373ffffffffffffffffffffffffffffffffffffffff1673ffffffffffffffffffffffffffffffffffffffff168152602001908152602001600020600101908051906020019061032e929190610830565b5033600160003373ffffffffffffffffffffffffffffffffffffffff1673ffffffffffffffffffffffffffffffffffffffff16815260200190815260200160002060050160006101000a81548173ffffffffffffffffffffffffffffffffffffffff021916908373ffffffffffffffffffffffffffffffffffffffff16021790555083600160003373ffffffffffffffffffffffffffffffffffffffff1673ffffffffffffffffffffffffffffffffffffffff1681526020019081526020016000206002019080519060200190610406929190610830565b5082600160003373ffffffffffffffffffffffffffffffffffffffff1673ffffffffffffffffffffffffffffffffffffffff168152602001908152602001600020600301908051906020019061045d929190610830565b5081600160003373ffffffffffffffffffffffffffffffffffffffff1673ffffffffffffffffffffffffffffffffffffffff16815260200190815260200160002060040190805190602001906104b4929190610830565b506000808154809291906104c790610d4a565b9190505550600160005414610511576040517f08c379a000000000000000000000000000000000000000000000000000000000815260040161050890610bbc565b60405180910390fd5b6040518060400160405280601781526020017f5375636365737366756c6c792052656769737465726564000000000000000000815250905095945050505050565b6060600160003373ffffffffffffffffffffffffffffffffffffffff1673ffffffffffffffffffffffffffffffffffffffff16815260200190815260200160002060020180546105a190610ce7565b80601f01602080910402602001604051908101604052809291908181526020018280546105cd90610ce7565b801561061a5780601f106105ef5761010080835404028352916020019161061a565b820191906000526020600020905b8154815290600101906020018083116105fd57829003601f168201915b5050505050905090565b6060600160003373ffffffffffffffffffffffffffffffffffffffff1673ffffffffffffffffffffffffffffffffffffffff16815260200190815260200160002060050160009054906101000a900473ffffffffffffffffffffffffffffffffffffffff1673ffffffffffffffffffffffffffffffffffffffff163373ffffffffffffffffffffffffffffffffffffffff16146106f6576040517f08c379a00000000000000000000000000000000000000000000000000000000081526004016106ed90610b9c565b60405180910390fd5b600160003373ffffffffffffffffffffffffffffffffffffffff1673ffffffffffffffffffffffffffffffffffffffff168152602001908152602001600020600001805461074390610ce7565b80601f016020809104026020016040519081016040528092919081815260200182805461076f90610ce7565b80156107bc5780601f10610791576101008083540402835291602001916107bc565b820191906000526020600020905b81548152906001019060200180831161079f57829003601f168201915b5050505050905090565b6000600160003373ffffffffffffffffffffffffffffffffffffffff1673ffffffffffffffffffffffffffffffffffffffff16815260200190815260200160002060050160009054906101000a900473ffffffffffffffffffffffffffffffffffffffff16905090565b82805461083c90610ce7565b90600052602060002090601f01602090048101928261085e57600085556108a5565b82601f1061087757805160ff19168380011785556108a5565b828001600101855582156108a5579182015b828111156108a4578251825591602001919060010190610889565b5b5090506108b291906108b6565b5090565b5b808211156108cf5760008160009055506001016108b7565b5090565b60006108e66108e184610c1c565b610bf7565b90508281526020810184848401111561090257610901610e25565b5b61090d848285610ca5565b509392505050565b600082601f83011261092a57610929610e20565b5b813561093a8482602086016108d3565b91505092915050565b6000806040838503121561095a57610959610e2f565b5b600083013567ffffffffffffffff81111561097857610977610e2a565b5b61098485828601610915565b925050602083013567ffffffffffffffff8111156109a5576109a4610e2a565b5b6109b185828601610915565b9150509250929050565b600080600080600060a086880312156109d7576109d6610e2f565b5b600086013567ffffffffffffffff8111156109f5576109f4610e2a565b5b610a0188828901610915565b955050602086013567ffffffffffffffff811115610a2257610a21610e2a565b5b610a2e88828901610915565b945050604086013567ffffffffffffffff811115610a4f57610a4e610e2a565b5b610a5b88828901610915565b935050606086013567ffffffffffffffff811115610a7c57610a7b610e2a565b5b610a8888828901610915565b925050608086013567ffffffffffffffff811115610aa957610aa8610e2a565b5b610ab588828901610915565b9150509295509295909350565b610acb81610c69565b82525050565b6000610adc82610c4d565b610ae68185610c58565b9350610af6818560208601610cb4565b610aff81610e34565b840191505092915050565b6000610b17600b83610c58565b9150610b2282610e45565b602082019050919050565b6000610b3a601783610c58565b9150610b4582610e6e565b602082019050919050565b610b5981610c9b565b82525050565b6000602082019050610b746000830184610ac2565b92915050565b60006020820190508181036000830152610b948184610ad1565b905092915050565b60006020820190508181036000830152610bb581610b0a565b9050919050565b60006020820190508181036000830152610bd581610b2d565b9050919050565b6000602082019050610bf16000830184610b50565b92915050565b6000610c01610c12565b9050610c0d8282610d19565b919050565b6000604051905090565b600067ffffffffffffffff821115610c3757610c36610df1565b5b610c4082610e34565b9050602081019050919050565b600081519050919050565b600082825260208201905092915050565b6000610c7482610c7b565b9050919050565b600073ffffffffffffffffffffffffffffffffffffffff82169050919050565b6000819050919050565b82818337600083830152505050565b60005b83811015610cd2578082015181840152602081019050610cb7565b83811115610ce1576000848401525b50505050565b60006002820490506001821680610cff57607f821691505b60208210811415610d1357610d12610dc2565b5b50919050565b610d2282610e34565b810181811067ffffffffffffffff82111715610d4157610d40610df1565b5b80604052505050565b6000610d5582610c9b565b91507fffffffffffffffffffffffffffffffffffffffffffffffffffffffffffffffff821415610d8857610d87610d93565b5b600182019050919050565b7f4e487b7100000000000000000000000000000000000000000000000000000000600052601160045260246000fd5b7f4e487b7100000000000000000000000000000000000000000000000000000000600052602260045260246000fd5b7f4e487b7100000000000000000000000000000000000000000000000000000000600052604160045260246000fd5b600080fd5b600080fd5b600080fd5b600080fd5b6000601f19601f8301169050919050565b7f4e6f7420616c6c6f776564000000000000000000000000000000000000000000600082015250565b7f5375636365737366756c6c79205265676973746572656400000000000000000060008201525056fe5573657220646f65736e6f7420657869737420212120526567697374657220616e642074727920616761696e202121a264697066735822122058e033ff3dab636a184019640af46d30171692f6de65b0044948089423ad39aa64736f6c63430008060033",
					"opcodes": "PUSH1 0x80 PUSH1 0x40 MSTORE CALLVALUE DUP1 ISZERO PUSH2 0x10 JUMPI PUSH1 0x0 DUP1 REVERT JUMPDEST POP PUSH1 0x0 DUP1 DUP2 SWAP1 SSTORE POP PUSH2 0xEFC DUP1 PUSH2 0x27 PUSH1 0x0 CODECOPY PUSH1 0x0 RETURN INVALID PUSH1 0x80 PUSH1 0x40 MSTORE CALLVALUE DUP1 ISZERO PUSH2 0x10 JUMPI PUSH1 0x0 DUP1 REVERT JUMPDEST POP PUSH1 0x4 CALLDATASIZE LT PUSH2 0x62 JUMPI PUSH1 0x0 CALLDATALOAD PUSH1 0xE0 SHR DUP1 PUSH4 0x12679323 EQ PUSH2 0x67 JUMPI DUP1 PUSH4 0x4A9F2771 EQ PUSH2 0x85 JUMPI DUP1 PUSH4 0x5A09007B EQ PUSH2 0xB5 JUMPI DUP1 PUSH4 0x681F3E6D EQ PUSH2 0xE5 JUMPI DUP1 PUSH4 0xC127AE41 EQ PUSH2 0x103 JUMPI DUP1 PUSH4 0xEBC3EEE8 EQ PUSH2 0x121 JUMPI JUMPDEST PUSH1 0x0 DUP1 REVERT JUMPDEST PUSH2 0x6F PUSH2 0x13F JUMP JUMPDEST PUSH1 0x40 MLOAD PUSH2 0x7C SWAP2 SWAP1 PUSH2 0xBDC JUMP JUMPDEST PUSH1 0x40 MLOAD DUP1 SWAP2 SUB SWAP1 RETURN JUMPDEST PUSH2 0x9F PUSH1 0x4 DUP1 CALLDATASIZE SUB DUP2 ADD SWAP1 PUSH2 0x9A SWAP2 SWAP1 PUSH2 0x943 JUMP JUMPDEST PUSH2 0x145 JUMP JUMPDEST PUSH1 0x40 MLOAD PUSH2 0xAC SWAP2 SWAP1 PUSH2 0xB7A JUMP JUMPDEST PUSH1 0x40 MLOAD DUP1 SWAP2 SUB SWAP1 RETURN JUMPDEST PUSH2 0xCF PUSH1 0x4 DUP1 CALLDATASIZE SUB DUP2 ADD SWAP1 PUSH2 0xCA SWAP2 SWAP1 PUSH2 0x9BB JUMP JUMPDEST PUSH2 0x27F JUMP JUMPDEST PUSH1 0x40 MLOAD PUSH2 0xDC SWAP2 SWAP1 PUSH2 0xB7A JUMP JUMPDEST PUSH1 0x40 MLOAD DUP1 SWAP2 SUB SWAP1 RETURN JUMPDEST PUSH2 0xED PUSH2 0x552 JUMP JUMPDEST PUSH1 0x40 MLOAD PUSH2 0xFA SWAP2 SWAP1 PUSH2 0xB7A JUMP JUMPDEST PUSH1 0x40 MLOAD DUP1 SWAP2 SUB SWAP1 RETURN JUMPDEST PUSH2 0x10B PUSH2 0x624 JUMP JUMPDEST PUSH1 0x40 MLOAD PUSH2 0x118 SWAP2 SWAP1 PUSH2 0xB7A JUMP JUMPDEST PUSH1 0x40 MLOAD DUP1 SWAP2 SUB SWAP1 RETURN JUMPDEST PUSH2 0x129 PUSH2 0x7C6 JUMP JUMPDEST PUSH1 0x40 MLOAD PUSH2 0x136 SWAP2 SWAP1 PUSH2 0xB5F JUMP JUMPDEST PUSH1 0x40 MLOAD DUP1 SWAP2 SUB SWAP1 RETURN JUMPDEST PUSH1 0x0 SLOAD DUP2 JUMP JUMPDEST PUSH1 0x60 PUSH1 0x0 PUSH2 0x151 PUSH2 0x552 JUMP JUMPDEST SWAP1 POP PUSH1 0x0 PUSH1 0x1 PUSH1 0x0 CALLER PUSH20 0xFFFFFFFFFFFFFFFFFFFFFFFFFFFFFFFFFFFFFFFF AND PUSH20 0xFFFFFFFFFFFFFFFFFFFFFFFFFFFFFFFFFFFFFFFF AND DUP2 MSTORE PUSH1 0x20 ADD SWAP1 DUP2 MSTORE PUSH1 0x20 ADD PUSH1 0x0 KECCAK256 PUSH1 0x3 ADD DUP1 SLOAD PUSH2 0x1A2 SWAP1 PUSH2 0xCE7 JUMP JUMPDEST DUP1 PUSH1 0x1F ADD PUSH1 0x20 DUP1 SWAP2 DIV MUL PUSH1 0x20 ADD PUSH1 0x40 MLOAD SWAP1 DUP2 ADD PUSH1 0x40 MSTORE DUP1 SWAP3 SWAP2 SWAP1 DUP2 DUP2 MSTORE PUSH1 0x20 ADD DUP3 DUP1 SLOAD PUSH2 0x1CE SWAP1 PUSH2 0xCE7 JUMP JUMPDEST DUP1 ISZERO PUSH2 0x21B JUMPI DUP1 PUSH1 0x1F LT PUSH2 0x1F0 JUMPI PUSH2 0x100 DUP1 DUP4 SLOAD DIV MUL DUP4 MSTORE SWAP2 PUSH1 0x20 ADD SWAP2 PUSH2 0x21B JUMP JUMPDEST DUP3 ADD SWAP2 SWAP1 PUSH1 0x0 MSTORE PUSH1 0x20 PUSH1 0x0 KECCAK256 SWAP1 JUMPDEST DUP2 SLOAD DUP2 MSTORE SWAP1 PUSH1 0x1 ADD SWAP1 PUSH1 0x20 ADD DUP1 DUP4 GT PUSH2 0x1FE JUMPI DUP3 SWAP1 SUB PUSH1 0x1F AND DUP3 ADD SWAP2 JUMPDEST POP POP POP POP POP SWAP1 POP DUP5 DUP1 MLOAD SWAP1 PUSH1 0x20 ADD KECCAK256 DUP3 DUP1 MLOAD SWAP1 PUSH1 0x20 ADD KECCAK256 EQ DUP1 ISZERO PUSH2 0x24C JUMPI POP DUP4 DUP1 MLOAD SWAP1 PUSH1 0x20 ADD KECCAK256 DUP2 DUP1 MLOAD SWAP1 PUSH1 0x20 ADD KECCAK256 EQ JUMPDEST ISZERO PUSH2 0x25B JUMPI DUP5 SWAP3 POP POP POP PUSH2 0x279 JUMP JUMPDEST PUSH1 0x40 MLOAD DUP1 PUSH1 0x60 ADD PUSH1 0x40 MSTORE DUP1 PUSH1 0x2F DUP2 MSTORE PUSH1 0x20 ADD PUSH2 0xE98 PUSH1 0x2F SWAP2 CODECOPY SWAP3 POP POP POP JUMPDEST SWAP3 SWAP2 POP POP JUMP JUMPDEST PUSH1 0x60 DUP6 PUSH1 0x1 PUSH1 0x0 CALLER PUSH20 0xFFFFFFFFFFFFFFFFFFFFFFFFFFFFFFFFFFFFFFFF AND PUSH20 0xFFFFFFFFFFFFFFFFFFFFFFFFFFFFFFFFFFFFFFFF AND DUP2 MSTORE PUSH1 0x20 ADD SWAP1 DUP2 MSTORE PUSH1 0x20 ADD PUSH1 0x0 KECCAK256 PUSH1 0x0 ADD SWAP1 DUP1 MLOAD SWAP1 PUSH1 0x20 ADD SWAP1 PUSH2 0x2D7 SWAP3 SWAP2 SWAP1 PUSH2 0x830 JUMP JUMPDEST POP DUP5 PUSH1 0x1 PUSH1 0x0 CALLER PUSH20 0xFFFFFFFFFFFFFFFFFFFFFFFFFFFFFFFFFFFFFFFF AND PUSH20 0xFFFFFFFFFFFFFFFFFFFFFFFFFFFFFFFFFFFFFFFF AND DUP2 MSTORE PUSH1 0x20 ADD SWAP1 DUP2 MSTORE PUSH1 0x20 ADD PUSH1 0x0 KECCAK256 PUSH1 0x1 ADD SWAP1 DUP1 MLOAD SWAP1 PUSH1 0x20 ADD SWAP1 PUSH2 0x32E SWAP3 SWAP2 SWAP1 PUSH2 0x830 JUMP JUMPDEST POP CALLER PUSH1 0x1 PUSH1 0x0 CALLER PUSH20 0xFFFFFFFFFFFFFFFFFFFFFFFFFFFFFFFFFFFFFFFF AND PUSH20 0xFFFFFFFFFFFFFFFFFFFFFFFFFFFFFFFFFFFFFFFF AND DUP2 MSTORE PUSH1 0x20 ADD SWAP1 DUP2 MSTORE PUSH1 0x20 ADD PUSH1 0x0 KECCAK256 PUSH1 0x5 ADD PUSH1 0x0 PUSH2 0x100 EXP DUP2 SLOAD DUP2 PUSH20 0xFFFFFFFFFFFFFFFFFFFFFFFFFFFFFFFFFFFFFFFF MUL NOT AND SWAP1 DUP4 PUSH20 0xFFFFFFFFFFFFFFFFFFFFFFFFFFFFFFFFFFFFFFFF AND MUL OR SWAP1 SSTORE POP DUP4 PUSH1 0x1 PUSH1 0x0 CALLER PUSH20 0xFFFFFFFFFFFFFFFFFFFFFFFFFFFFFFFFFFFFFFFF AND PUSH20 0xFFFFFFFFFFFFFFFFFFFFFFFFFFFFFFFFFFFFFFFF AND DUP2 MSTORE PUSH1 0x20 ADD SWAP1 DUP2 MSTORE PUSH1 0x20 ADD PUSH1 0x0 KECCAK256 PUSH1 0x2 ADD SWAP1 DUP1 MLOAD SWAP1 PUSH1 0x20 ADD SWAP1 PUSH2 0x406 SWAP3 SWAP2 SWAP1 PUSH2 0x830 JUMP JUMPDEST POP DUP3 PUSH1 0x1 PUSH1 0x0 CALLER PUSH20 0xFFFFFFFFFFFFFFFFFFFFFFFFFFFFFFFFFFFFFFFF AND PUSH20 0xFFFFFFFFFFFFFFFFFFFFFFFFFFFFFFFFFFFFFFFF AND DUP2 MSTORE PUSH1 0x20 ADD SWAP1 DUP2 MSTORE PUSH1 0x20 ADD PUSH1 0x0 KECCAK256 PUSH1 0x3 ADD SWAP1 DUP1 MLOAD SWAP1 PUSH1 0x20 ADD SWAP1 PUSH2 0x45D SWAP3 SWAP2 SWAP1 PUSH2 0x830 JUMP JUMPDEST POP DUP2 PUSH1 0x1 PUSH1 0x0 CALLER PUSH20 0xFFFFFFFFFFFFFFFFFFFFFFFFFFFFFFFFFFFFFFFF AND PUSH20 0xFFFFFFFFFFFFFFFFFFFFFFFFFFFFFFFFFFFFFFFF AND DUP2 MSTORE PUSH1 0x20 ADD SWAP1 DUP2 MSTORE PUSH1 0x20 ADD PUSH1 0x0 KECCAK256 PUSH1 0x4 ADD SWAP1 DUP1 MLOAD SWAP1 PUSH1 0x20 ADD SWAP1 PUSH2 0x4B4 SWAP3 SWAP2 SWAP1 PUSH2 0x830 JUMP JUMPDEST POP PUSH1 0x0 DUP1 DUP2 SLOAD DUP1 SWAP3 SWAP2 SWAP1 PUSH2 0x4C7 SWAP1 PUSH2 0xD4A JUMP JUMPDEST SWAP2 SWAP1 POP SSTORE POP PUSH1 0x1 PUSH1 0x0 SLOAD EQ PUSH2 0x511 JUMPI PUSH1 0x40 MLOAD PUSH32 0x8C379A000000000000000000000000000000000000000000000000000000000 DUP2 MSTORE PUSH1 0x4 ADD PUSH2 0x508 SWAP1 PUSH2 0xBBC JUMP JUMPDEST PUSH1 0x40 MLOAD DUP1 SWAP2 SUB SWAP1 REVERT JUMPDEST PUSH1 0x40 MLOAD DUP1 PUSH1 0x40 ADD PUSH1 0x40 MSTORE DUP1 PUSH1 0x17 DUP2 MSTORE PUSH1 0x20 ADD PUSH32 0x5375636365737366756C6C792052656769737465726564000000000000000000 DUP2 MSTORE POP SWAP1 POP SWAP6 SWAP5 POP POP POP POP POP JUMP JUMPDEST PUSH1 0x60 PUSH1 0x1 PUSH1 0x0 CALLER PUSH20 0xFFFFFFFFFFFFFFFFFFFFFFFFFFFFFFFFFFFFFFFF AND PUSH20 0xFFFFFFFFFFFFFFFFFFFFFFFFFFFFFFFFFFFFFFFF AND DUP2 MSTORE PUSH1 0x20 ADD SWAP1 DUP2 MSTORE PUSH1 0x20 ADD PUSH1 0x0 KECCAK256 PUSH1 0x2 ADD DUP1 SLOAD PUSH2 0x5A1 SWAP1 PUSH2 0xCE7 JUMP JUMPDEST DUP1 PUSH1 0x1F ADD PUSH1 0x20 DUP1 SWAP2 DIV MUL PUSH1 0x20 ADD PUSH1 0x40 MLOAD SWAP1 DUP2 ADD PUSH1 0x40 MSTORE DUP1 SWAP3 SWAP2 SWAP1 DUP2 DUP2 MSTORE PUSH1 0x20 ADD DUP3 DUP1 SLOAD PUSH2 0x5CD SWAP1 PUSH2 0xCE7 JUMP JUMPDEST DUP1 ISZERO PUSH2 0x61A JUMPI DUP1 PUSH1 0x1F LT PUSH2 0x5EF JUMPI PUSH2 0x100 DUP1 DUP4 SLOAD DIV MUL DUP4 MSTORE SWAP2 PUSH1 0x20 ADD SWAP2 PUSH2 0x61A JUMP JUMPDEST DUP3 ADD SWAP2 SWAP1 PUSH1 0x0 MSTORE PUSH1 0x20 PUSH1 0x0 KECCAK256 SWAP1 JUMPDEST DUP2 SLOAD DUP2 MSTORE SWAP1 PUSH1 0x1 ADD SWAP1 PUSH1 0x20 ADD DUP1 DUP4 GT PUSH2 0x5FD JUMPI DUP3 SWAP1 SUB PUSH1 0x1F AND DUP3 ADD SWAP2 JUMPDEST POP POP POP POP POP SWAP1 POP SWAP1 JUMP JUMPDEST PUSH1 0x60 PUSH1 0x1 PUSH1 0x0 CALLER PUSH20 0xFFFFFFFFFFFFFFFFFFFFFFFFFFFFFFFFFFFFFFFF AND PUSH20 0xFFFFFFFFFFFFFFFFFFFFFFFFFFFFFFFFFFFFFFFF AND DUP2 MSTORE PUSH1 0x20 ADD SWAP1 DUP2 MSTORE PUSH1 0x20 ADD PUSH1 0x0 KECCAK256 PUSH1 0x5 ADD PUSH1 0x0 SWAP1 SLOAD SWAP1 PUSH2 0x100 EXP SWAP1 DIV PUSH20 0xFFFFFFFFFFFFFFFFFFFFFFFFFFFFFFFFFFFFFFFF AND PUSH20 0xFFFFFFFFFFFFFFFFFFFFFFFFFFFFFFFFFFFFFFFF AND CALLER PUSH20 0xFFFFFFFFFFFFFFFFFFFFFFFFFFFFFFFFFFFFFFFF AND EQ PUSH2 0x6F6 JUMPI PUSH1 0x40 MLOAD PUSH32 0x8C379A000000000000000000000000000000000000000000000000000000000 DUP2 MSTORE PUSH1 0x4 ADD PUSH2 0x6ED SWAP1 PUSH2 0xB9C JUMP JUMPDEST PUSH1 0x40 MLOAD DUP1 SWAP2 SUB SWAP1 REVERT JUMPDEST PUSH1 0x1 PUSH1 0x0 CALLER PUSH20 0xFFFFFFFFFFFFFFFFFFFFFFFFFFFFFFFFFFFFFFFF AND PUSH20 0xFFFFFFFFFFFFFFFFFFFFFFFFFFFFFFFFFFFFFFFF AND DUP2 MSTORE PUSH1 0x20 ADD SWAP1 DUP2 MSTORE PUSH1 0x20 ADD PUSH1 0x0 KECCAK256 PUSH1 0x0 ADD DUP1 SLOAD PUSH2 0x743 SWAP1 PUSH2 0xCE7 JUMP JUMPDEST DUP1 PUSH1 0x1F ADD PUSH1 0x20 DUP1 SWAP2 DIV MUL PUSH1 0x20 ADD PUSH1 0x40 MLOAD SWAP1 DUP2 ADD PUSH1 0x40 MSTORE DUP1 SWAP3 SWAP2 SWAP1 DUP2 DUP2 MSTORE PUSH1 0x20 ADD DUP3 DUP1 SLOAD PUSH2 0x76F SWAP1 PUSH2 0xCE7 JUMP JUMPDEST DUP1 ISZERO PUSH2 0x7BC JUMPI DUP1 PUSH1 0x1F LT PUSH2 0x791 JUMPI PUSH2 0x100 DUP1 DUP4 SLOAD DIV MUL DUP4 MSTORE SWAP2 PUSH1 0x20 ADD SWAP2 PUSH2 0x7BC JUMP JUMPDEST DUP3 ADD SWAP2 SWAP1 PUSH1 0x0 MSTORE PUSH1 0x20 PUSH1 0x0 KECCAK256 SWAP1 JUMPDEST DUP2 SLOAD DUP2 MSTORE SWAP1 PUSH1 0x1 ADD SWAP1 PUSH1 0x20 ADD DUP1 DUP4 GT PUSH2 0x79F JUMPI DUP3 SWAP1 SUB PUSH1 0x1F AND DUP3 ADD SWAP2 JUMPDEST POP POP POP POP POP SWAP1 POP SWAP1 JUMP JUMPDEST PUSH1 0x0 PUSH1 0x1 PUSH1 0x0 CALLER PUSH20 0xFFFFFFFFFFFFFFFFFFFFFFFFFFFFFFFFFFFFFFFF AND PUSH20 0xFFFFFFFFFFFFFFFFFFFFFFFFFFFFFFFFFFFFFFFF AND DUP2 MSTORE PUSH1 0x20 ADD SWAP1 DUP2 MSTORE PUSH1 0x20 ADD PUSH1 0x0 KECCAK256 PUSH1 0x5 ADD PUSH1 0x0 SWAP1 SLOAD SWAP1 PUSH2 0x100 EXP SWAP1 DIV PUSH20 0xFFFFFFFFFFFFFFFFFFFFFFFFFFFFFFFFFFFFFFFF AND SWAP1 POP SWAP1 JUMP JUMPDEST DUP3 DUP1 SLOAD PUSH2 0x83C SWAP1 PUSH2 0xCE7 JUMP JUMPDEST SWAP1 PUSH1 0x0 MSTORE PUSH1 0x20 PUSH1 0x0 KECCAK256 SWAP1 PUSH1 0x1F ADD PUSH1 0x20 SWAP1 DIV DUP2 ADD SWAP3 DUP3 PUSH2 0x85E JUMPI PUSH1 0x0 DUP6 SSTORE PUSH2 0x8A5 JUMP JUMPDEST DUP3 PUSH1 0x1F LT PUSH2 0x877 JUMPI DUP1 MLOAD PUSH1 0xFF NOT AND DUP4 DUP1 ADD OR DUP6 SSTORE PUSH2 0x8A5 JUMP JUMPDEST DUP3 DUP1 ADD PUSH1 0x1 ADD DUP6 SSTORE DUP3 ISZERO PUSH2 0x8A5 JUMPI SWAP2 DUP3 ADD JUMPDEST DUP3 DUP2 GT ISZERO PUSH2 0x8A4 JUMPI DUP3 MLOAD DUP3 SSTORE SWAP2 PUSH1 0x20 ADD SWAP2 SWAP1 PUSH1 0x1 ADD SWAP1 PUSH2 0x889 JUMP JUMPDEST JUMPDEST POP SWAP1 POP PUSH2 0x8B2 SWAP2 SWAP1 PUSH2 0x8B6 JUMP JUMPDEST POP SWAP1 JUMP JUMPDEST JUMPDEST DUP1 DUP3 GT ISZERO PUSH2 0x8CF JUMPI PUSH1 0x0 DUP2 PUSH1 0x0 SWAP1 SSTORE POP PUSH1 0x1 ADD PUSH2 0x8B7 JUMP JUMPDEST POP SWAP1 JUMP JUMPDEST PUSH1 0x0 PUSH2 0x8E6 PUSH2 0x8E1 DUP5 PUSH2 0xC1C JUMP JUMPDEST PUSH2 0xBF7 JUMP JUMPDEST SWAP1 POP DUP3 DUP2 MSTORE PUSH1 0x20 DUP2 ADD DUP5 DUP5 DUP5 ADD GT ISZERO PUSH2 0x902 JUMPI PUSH2 0x901 PUSH2 0xE25 JUMP JUMPDEST JUMPDEST PUSH2 0x90D DUP5 DUP3 DUP6 PUSH2 0xCA5 JUMP JUMPDEST POP SWAP4 SWAP3 POP POP POP JUMP JUMPDEST PUSH1 0x0 DUP3 PUSH1 0x1F DUP4 ADD SLT PUSH2 0x92A JUMPI PUSH2 0x929 PUSH2 0xE20 JUMP JUMPDEST JUMPDEST DUP2 CALLDATALOAD PUSH2 0x93A DUP5 DUP3 PUSH1 0x20 DUP7 ADD PUSH2 0x8D3 JUMP JUMPDEST SWAP2 POP POP SWAP3 SWAP2 POP POP JUMP JUMPDEST PUSH1 0x0 DUP1 PUSH1 0x40 DUP4 DUP6 SUB SLT ISZERO PUSH2 0x95A JUMPI PUSH2 0x959 PUSH2 0xE2F JUMP JUMPDEST JUMPDEST PUSH1 0x0 DUP4 ADD CALLDATALOAD PUSH8 0xFFFFFFFFFFFFFFFF DUP2 GT ISZERO PUSH2 0x978 JUMPI PUSH2 0x977 PUSH2 0xE2A JUMP JUMPDEST JUMPDEST PUSH2 0x984 DUP6 DUP3 DUP7 ADD PUSH2 0x915 JUMP JUMPDEST SWAP3 POP POP PUSH1 0x20 DUP4 ADD CALLDATALOAD PUSH8 0xFFFFFFFFFFFFFFFF DUP2 GT ISZERO PUSH2 0x9A5 JUMPI PUSH2 0x9A4 PUSH2 0xE2A JUMP JUMPDEST JUMPDEST PUSH2 0x9B1 DUP6 DUP3 DUP7 ADD PUSH2 0x915 JUMP JUMPDEST SWAP2 POP POP SWAP3 POP SWAP3 SWAP1 POP JUMP JUMPDEST PUSH1 0x0 DUP1 PUSH1 0x0 DUP1 PUSH1 0x0 PUSH1 0xA0 DUP7 DUP9 SUB SLT ISZERO PUSH2 0x9D7 JUMPI PUSH2 0x9D6 PUSH2 0xE2F JUMP JUMPDEST JUMPDEST PUSH1 0x0 DUP7 ADD CALLDATALOAD PUSH8 0xFFFFFFFFFFFFFFFF DUP2 GT ISZERO PUSH2 0x9F5 JUMPI PUSH2 0x9F4 PUSH2 0xE2A JUMP JUMPDEST JUMPDEST PUSH2 0xA01 DUP9 DUP3 DUP10 ADD PUSH2 0x915 JUMP JUMPDEST SWAP6 POP POP PUSH1 0x20 DUP7 ADD CALLDATALOAD PUSH8 0xFFFFFFFFFFFFFFFF DUP2 GT ISZERO PUSH2 0xA22 JUMPI PUSH2 0xA21 PUSH2 0xE2A JUMP JUMPDEST JUMPDEST PUSH2 0xA2E DUP9 DUP3 DUP10 ADD PUSH2 0x915 JUMP JUMPDEST SWAP5 POP POP PUSH1 0x40 DUP7 ADD CALLDATALOAD PUSH8 0xFFFFFFFFFFFFFFFF DUP2 GT ISZERO PUSH2 0xA4F JUMPI PUSH2 0xA4E PUSH2 0xE2A JUMP JUMPDEST JUMPDEST PUSH2 0xA5B DUP9 DUP3 DUP10 ADD PUSH2 0x915 JUMP JUMPDEST SWAP4 POP POP PUSH1 0x60 DUP7 ADD CALLDATALOAD PUSH8 0xFFFFFFFFFFFFFFFF DUP2 GT ISZERO PUSH2 0xA7C JUMPI PUSH2 0xA7B PUSH2 0xE2A JUMP JUMPDEST JUMPDEST PUSH2 0xA88 DUP9 DUP3 DUP10 ADD PUSH2 0x915 JUMP JUMPDEST SWAP3 POP POP PUSH1 0x80 DUP7 ADD CALLDATALOAD PUSH8 0xFFFFFFFFFFFFFFFF DUP2 GT ISZERO PUSH2 0xAA9 JUMPI PUSH2 0xAA8 PUSH2 0xE2A JUMP JUMPDEST JUMPDEST PUSH2 0xAB5 DUP9 DUP3 DUP10 ADD PUSH2 0x915 JUMP JUMPDEST SWAP2 POP POP SWAP3 SWAP6 POP SWAP3 SWAP6 SWAP1 SWAP4 POP JUMP JUMPDEST PUSH2 0xACB DUP2 PUSH2 0xC69 JUMP JUMPDEST DUP3 MSTORE POP POP JUMP JUMPDEST PUSH1 0x0 PUSH2 0xADC DUP3 PUSH2 0xC4D JUMP JUMPDEST PUSH2 0xAE6 DUP2 DUP6 PUSH2 0xC58 JUMP JUMPDEST SWAP4 POP PUSH2 0xAF6 DUP2 DUP6 PUSH1 0x20 DUP7 ADD PUSH2 0xCB4 JUMP JUMPDEST PUSH2 0xAFF DUP2 PUSH2 0xE34 JUMP JUMPDEST DUP5 ADD SWAP2 POP POP SWAP3 SWAP2 POP POP JUMP JUMPDEST PUSH1 0x0 PUSH2 0xB17 PUSH1 0xB DUP4 PUSH2 0xC58 JUMP JUMPDEST SWAP2 POP PUSH2 0xB22 DUP3 PUSH2 0xE45 JUMP JUMPDEST PUSH1 0x20 DUP3 ADD SWAP1 POP SWAP2 SWAP1 POP JUMP JUMPDEST PUSH1 0x0 PUSH2 0xB3A PUSH1 0x17 DUP4 PUSH2 0xC58 JUMP JUMPDEST SWAP2 POP PUSH2 0xB45 DUP3 PUSH2 0xE6E JUMP JUMPDEST PUSH1 0x20 DUP3 ADD SWAP1 POP SWAP2 SWAP1 POP JUMP JUMPDEST PUSH2 0xB59 DUP2 PUSH2 0xC9B JUMP JUMPDEST DUP3 MSTORE POP POP JUMP JUMPDEST PUSH1 0x0 PUSH1 0x20 DUP3 ADD SWAP1 POP PUSH2 0xB74 PUSH1 0x0 DUP4 ADD DUP5 PUSH2 0xAC2 JUMP JUMPDEST SWAP3 SWAP2 POP POP JUMP JUMPDEST PUSH1 0x0 PUSH1 0x20 DUP3 ADD SWAP1 POP DUP2 DUP2 SUB PUSH1 0x0 DUP4 ADD MSTORE PUSH2 0xB94 DUP2 DUP5 PUSH2 0xAD1 JUMP JUMPDEST SWAP1 POP SWAP3 SWAP2 POP POP JUMP JUMPDEST PUSH1 0x0 PUSH1 0x20 DUP3 ADD SWAP1 POP DUP2 DUP2 SUB PUSH1 0x0 DUP4 ADD MSTORE PUSH2 0xBB5 DUP2 PUSH2 0xB0A JUMP JUMPDEST SWAP1 POP SWAP2 SWAP1 POP JUMP JUMPDEST PUSH1 0x0 PUSH1 0x20 DUP3 ADD SWAP1 POP DUP2 DUP2 SUB PUSH1 0x0 DUP4 ADD MSTORE PUSH2 0xBD5 DUP2 PUSH2 0xB2D JUMP JUMPDEST SWAP1 POP SWAP2 SWAP1 POP JUMP JUMPDEST PUSH1 0x0 PUSH1 0x20 DUP3 ADD SWAP1 POP PUSH2 0xBF1 PUSH1 0x0 DUP4 ADD DUP5 PUSH2 0xB50 JUMP JUMPDEST SWAP3 SWAP2 POP POP JUMP JUMPDEST PUSH1 0x0 PUSH2 0xC01 PUSH2 0xC12 JUMP JUMPDEST SWAP1 POP PUSH2 0xC0D DUP3 DUP3 PUSH2 0xD19 JUMP JUMPDEST SWAP2 SWAP1 POP JUMP JUMPDEST PUSH1 0x0 PUSH1 0x40 MLOAD SWAP1 POP SWAP1 JUMP JUMPDEST PUSH1 0x0 PUSH8 0xFFFFFFFFFFFFFFFF DUP3 GT ISZERO PUSH2 0xC37 JUMPI PUSH2 0xC36 PUSH2 0xDF1 JUMP JUMPDEST JUMPDEST PUSH2 0xC40 DUP3 PUSH2 0xE34 JUMP JUMPDEST SWAP1 POP PUSH1 0x20 DUP2 ADD SWAP1 POP SWAP2 SWAP1 POP JUMP JUMPDEST PUSH1 0x0 DUP2 MLOAD SWAP1 POP SWAP2 SWAP1 POP JUMP JUMPDEST PUSH1 0x0 DUP3 DUP3 MSTORE PUSH1 0x20 DUP3 ADD SWAP1 POP SWAP3 SWAP2 POP POP JUMP JUMPDEST PUSH1 0x0 PUSH2 0xC74 DUP3 PUSH2 0xC7B JUMP JUMPDEST SWAP1 POP SWAP2 SWAP1 POP JUMP JUMPDEST PUSH1 0x0 PUSH20 0xFFFFFFFFFFFFFFFFFFFFFFFFFFFFFFFFFFFFFFFF DUP3 AND SWAP1 POP SWAP2 SWAP1 POP JUMP JUMPDEST PUSH1 0x0 DUP2 SWAP1 POP SWAP2 SWAP1 POP JUMP JUMPDEST DUP3 DUP2 DUP4 CALLDATACOPY PUSH1 0x0 DUP4 DUP4 ADD MSTORE POP POP POP JUMP JUMPDEST PUSH1 0x0 JUMPDEST DUP4 DUP2 LT ISZERO PUSH2 0xCD2 JUMPI DUP1 DUP3 ADD MLOAD DUP2 DUP5 ADD MSTORE PUSH1 0x20 DUP2 ADD SWAP1 POP PUSH2 0xCB7 JUMP JUMPDEST DUP4 DUP2 GT ISZERO PUSH2 0xCE1 JUMPI PUSH1 0x0 DUP5 DUP5 ADD MSTORE JUMPDEST POP POP POP POP JUMP JUMPDEST PUSH1 0x0 PUSH1 0x2 DUP3 DIV SWAP1 POP PUSH1 0x1 DUP3 AND DUP1 PUSH2 0xCFF JUMPI PUSH1 0x7F DUP3 AND SWAP2 POP JUMPDEST PUSH1 0x20 DUP3 LT DUP2 EQ ISZERO PUSH2 0xD13 JUMPI PUSH2 0xD12 PUSH2 0xDC2 JUMP JUMPDEST JUMPDEST POP SWAP2 SWAP1 POP JUMP JUMPDEST PUSH2 0xD22 DUP3 PUSH2 0xE34 JUMP JUMPDEST DUP2 ADD DUP2 DUP2 LT PUSH8 0xFFFFFFFFFFFFFFFF DUP3 GT OR ISZERO PUSH2 0xD41 JUMPI PUSH2 0xD40 PUSH2 0xDF1 JUMP JUMPDEST JUMPDEST DUP1 PUSH1 0x40 MSTORE POP POP POP JUMP JUMPDEST PUSH1 0x0 PUSH2 0xD55 DUP3 PUSH2 0xC9B JUMP JUMPDEST SWAP2 POP PUSH32 0xFFFFFFFFFFFFFFFFFFFFFFFFFFFFFFFFFFFFFFFFFFFFFFFFFFFFFFFFFFFFFFFF DUP3 EQ ISZERO PUSH2 0xD88 JUMPI PUSH2 0xD87 PUSH2 0xD93 JUMP JUMPDEST JUMPDEST PUSH1 0x1 DUP3 ADD SWAP1 POP SWAP2 SWAP1 POP JUMP JUMPDEST PUSH32 0x4E487B7100000000000000000000000000000000000000000000000000000000 PUSH1 0x0 MSTORE PUSH1 0x11 PUSH1 0x4 MSTORE PUSH1 0x24 PUSH1 0x0 REVERT JUMPDEST PUSH32 0x4E487B7100000000000000000000000000000000000000000000000000000000 PUSH1 0x0 MSTORE PUSH1 0x22 PUSH1 0x4 MSTORE PUSH1 0x24 PUSH1 0x0 REVERT JUMPDEST PUSH32 0x4E487B7100000000000000000000000000000000000000000000000000000000 PUSH1 0x0 MSTORE PUSH1 0x41 PUSH1 0x4 MSTORE PUSH1 0x24 PUSH1 0x0 REVERT JUMPDEST PUSH1 0x0 DUP1 REVERT JUMPDEST PUSH1 0x0 DUP1 REVERT JUMPDEST PUSH1 0x0 DUP1 REVERT JUMPDEST PUSH1 0x0 DUP1 REVERT JUMPDEST PUSH1 0x0 PUSH1 0x1F NOT PUSH1 0x1F DUP4 ADD AND SWAP1 POP SWAP2 SWAP1 POP JUMP JUMPDEST PUSH32 0x4E6F7420616C6C6F776564000000000000000000000000000000000000000000 PUSH1 0x0 DUP3 ADD MSTORE POP JUMP JUMPDEST PUSH32 0x5375636365737366756C6C792052656769737465726564000000000000000000 PUSH1 0x0 DUP3 ADD MSTORE POP JUMP INVALID SSTORE PUSH20 0x657220646F65736E6F7420657869737420212120 MSTORE PUSH6 0x676973746572 KECCAK256 PUSH2 0x6E64 KECCAK256 PUSH21 0x727920616761696E202121A2646970667358221220 PC 0xE0 CALLER SELFDESTRUCT RETURNDATASIZE 0xAB PUSH4 0x6A184019 PUSH5 0xAF46D3017 AND SWAP3 0xF6 0xDE PUSH6 0xB00449480894 0x23 0xAD CODECOPY 0xAA PUSH5 0x736F6C6343 STOP ADDMOD MOD STOP CALLER "
				},
				"gasEstimates": {
					"creation": {
						"codeDepositCost": "767200",
						"executionCost": "5813",
						"totalCost": "773013"
					},
					"external": {
						"checkLogin(string,string)": "infinite",
						"getSignatureHash()": "infinite",
						"getUserAddress()": "2705",
						"getUsername()": "infinite",
						"nbOfUsers()": "2407",
						"register(string,string,string,string,string)": "infinite"
					}
				},
				"methodIdentifiers": {
					"checkLogin(string,string)": "4a9f2771",
					"getSignatureHash()": "c127ae41",
					"getUserAddress()": "ebc3eee8",
					"getUsername()": "681f3e6d",
					"nbOfUsers()": "12679323",
					"register(string,string,string,string,string)": "5a09007b"
				}
			},
			"userdoc": {
				"kind": "user",
				"methods": {},
				"version": 1
			}
		}
	}
}