{
	"contracts/authentication.sol": {
		"Authentication": {
			"abi": [
				{
					"inputs": [],
					"stateMutability": "nonpayable",
					"type": "constructor"
				},
				{
					"inputs": [],
					"name": "getProjectDetails",
					"outputs": [
						{
							"components": [
								{
									"internalType": "string",
									"name": "projectName",
									"type": "string"
								},
								{
									"internalType": "string",
									"name": "description",
									"type": "string"
								},
								{
									"internalType": "string",
									"name": "deadline",
									"type": "string"
								},
								{
									"internalType": "string",
									"name": "amount",
									"type": "string"
								},
								{
									"internalType": "address",
									"name": "userAddress",
									"type": "address"
								}
							],
							"internalType": "struct Authentication.AllProject",
							"name": "",
							"type": "tuple"
						}
					],
					"stateMutability": "view",
					"type": "function"
				},
				{
					"inputs": [],
					"name": "getSignatureHash",
					"outputs": [
						{
							"internalType": "string",
							"name": "",
							"type": "string"
						}
					],
					"stateMutability": "view",
					"type": "function"
				},
				{
					"inputs": [],
					"name": "getUserAddress",
					"outputs": [
						{
							"internalType": "address",
							"name": "",
							"type": "address"
						}
					],
					"stateMutability": "view",
					"type": "function"
				},
				{
					"inputs": [],
					"name": "getUsername",
					"outputs": [
						{
							"internalType": "string",
							"name": "",
							"type": "string"
						}
					],
					"stateMutability": "view",
					"type": "function"
				},
				{
					"inputs": [
						{
							"internalType": "string",
							"name": "username",
							"type": "string"
						},
						{
							"internalType": "string",
							"name": "password",
							"type": "string"
						}
					],
					"name": "login",
					"outputs": [
						{
							"internalType": "string",
							"name": "",
							"type": "string"
						}
					],
					"stateMutability": "nonpayable",
					"type": "function"
				},
				{
					"inputs": [],
					"name": "nbOfUsers",
					"outputs": [
						{
							"internalType": "uint256",
							"name": "",
							"type": "uint256"
						}
					],
					"stateMutability": "view",
					"type": "function"
				},
				{
					"inputs": [
						{
							"internalType": "string",
							"name": "_signature",
							"type": "string"
						},
						{
							"internalType": "string",
							"name": "email",
							"type": "string"
						},
						{
							"internalType": "string",
							"name": "username",
							"type": "string"
						},
						{
							"internalType": "string",
							"name": "password",
							"type": "string"
						},
						{
							"internalType": "string",
							"name": "repeatPassword",
							"type": "string"
						}
					],
					"name": "register",
					"outputs": [
						{
							"internalType": "string",
							"name": "",
							"type": "string"
						}
					],
					"stateMutability": "nonpayable",
					"type": "function"
				},
				{
					"inputs": [
						{
							"internalType": "string",
							"name": "projectName",
							"type": "string"
						},
						{
							"internalType": "string",
							"name": "description",
							"type": "string"
						},
						{
							"internalType": "string",
							"name": "deadline",
							"type": "string"
						},
						{
							"internalType": "string",
							"name": "amount",
							"type": "string"
						}
					],
					"name": "saveProject",
					"outputs": [
						{
							"internalType": "string",
							"name": "",
							"type": "string"
						}
					],
					"stateMutability": "nonpayable",
					"type": "function"
				}
			],
			"devdoc": {
				"kind": "dev",
				"methods": {},
				"version": 1
			},
			"evm": {
				"assembly": "    /* \"contracts/authentication.sol\":59:3570  contract Authentication {\r... */\n  mstore(0x40, 0x80)\n    /* \"contracts/authentication.sol\":824:870  constructor() {\r... */\n  callvalue\n  dup1\n  iszero\n  tag_1\n  jumpi\n  0x00\n  dup1\n  revert\ntag_1:\n  pop\n    /* \"contracts/authentication.sol\":861:862  0 */\n  0x00\n    /* \"contracts/authentication.sol\":849:858  nbOfUsers */\n  dup1\n    /* \"contracts/authentication.sol\":849:862  nbOfUsers = 0 */\n  dup2\n  swap1\n  sstore\n  pop\n    /* \"contracts/authentication.sol\":59:3570  contract Authentication {\r... */\n  dataSize(sub_0)\n  dup1\n  dataOffset(sub_0)\n  0x00\n  codecopy\n  0x00\n  return\nstop\n\nsub_0: assembly {\n        /* \"contracts/authentication.sol\":59:3570  contract Authentication {\r... */\n      mstore(0x40, 0x80)\n      callvalue\n      dup1\n      iszero\n      tag_1\n      jumpi\n      0x00\n      dup1\n      revert\n    tag_1:\n      pop\n      jumpi(tag_2, lt(calldatasize, 0x04))\n      shr(0xe0, calldataload(0x00))\n      dup1\n      0xb4bfc3a5\n      gt\n      tag_11\n      jumpi\n      dup1\n      0xb4bfc3a5\n      eq\n      tag_7\n      jumpi\n      dup1\n      0xc127ae41\n      eq\n      tag_8\n      jumpi\n      dup1\n      0xebc3eee8\n      eq\n      tag_9\n      jumpi\n      dup1\n      0xff3a9c7e\n      eq\n      tag_10\n      jumpi\n      jump(tag_2)\n    tag_11:\n      dup1\n      0x12679323\n      eq\n      tag_3\n      jumpi\n      dup1\n      0x58467dbc\n      eq\n      tag_4\n      jumpi\n      dup1\n      0x5a09007b\n      eq\n      tag_5\n      jumpi\n      dup1\n      0x681f3e6d\n      eq\n      tag_6\n      jumpi\n    tag_2:\n      0x00\n      dup1\n      revert\n        /* \"contracts/authentication.sol\":90:114  uint256 public nbOfUsers */\n    tag_3:\n      tag_12\n      tag_13\n      jump\t// in\n    tag_12:\n      mload(0x40)\n      tag_14\n      swap2\n      swap1\n      tag_15\n      jump\t// in\n    tag_14:\n      mload(0x40)\n      dup1\n      swap2\n      sub\n      swap1\n      return\n        /* \"contracts/authentication.sol\":2316:2824  function login(string memory username, string memory password) public returns(string memory) {\r... */\n    tag_4:\n      tag_16\n      0x04\n      dup1\n      calldatasize\n      sub\n      dup2\n      add\n      swap1\n      tag_17\n      swap2\n      swap1\n      tag_18\n      jump\t// in\n    tag_17:\n      tag_19\n      jump\t// in\n    tag_16:\n      mload(0x40)\n      tag_20\n      swap2\n      swap1\n      tag_21\n      jump\t// in\n    tag_20:\n      mload(0x40)\n      dup1\n      swap2\n      sub\n      swap1\n      return\n        /* \"contracts/authentication.sol\":878:1722  function register(string memory _signature, string memory email, string memory username, string memory password, string memory repeatPassword) public returns(string memory) {\r... */\n    tag_5:\n      tag_22\n      0x04\n      dup1\n      calldatasize\n      sub\n      dup2\n      add\n      swap1\n      tag_23\n      swap2\n      swap1\n      tag_24\n      jump\t// in\n    tag_23:\n      tag_25\n      jump\t// in\n    tag_22:\n      mload(0x40)\n      tag_26\n      swap2\n      swap1\n      tag_21\n      jump\t// in\n    tag_26:\n      mload(0x40)\n      dup1\n      swap2\n      sub\n      swap1\n      return\n        /* \"contracts/authentication.sol\":2196:2310  function getUsername() public view returns (string memory) {\r... */\n    tag_6:\n      tag_27\n      tag_28\n      jump\t// in\n    tag_27:\n      mload(0x40)\n      tag_29\n      swap2\n      swap1\n      tag_21\n      jump\t// in\n    tag_29:\n      mload(0x40)\n      dup1\n      swap2\n      sub\n      swap1\n      return\n        /* \"contracts/authentication.sol\":2855:3440  function saveProject(string memory projectName, string memory description, string memory deadline, string memory amount) public returns(string memory) {\r... */\n    tag_7:\n      tag_30\n      0x04\n      dup1\n      calldatasize\n      sub\n      dup2\n      add\n      swap1\n      tag_31\n      swap2\n      swap1\n      tag_32\n      jump\t// in\n    tag_31:\n      tag_33\n      jump\t// in\n    tag_30:\n      mload(0x40)\n      tag_34\n      swap2\n      swap1\n      tag_21\n      jump\t// in\n    tag_34:\n      mload(0x40)\n      dup1\n      swap2\n      sub\n      swap1\n      return\n        /* \"contracts/authentication.sol\":1730:1929  function getSignatureHash() public view returns (string memory) {\r... */\n    tag_8:\n      tag_35\n      tag_36\n      jump\t// in\n    tag_35:\n      mload(0x40)\n      tag_37\n      swap2\n      swap1\n      tag_21\n      jump\t// in\n    tag_37:\n      mload(0x40)\n      dup1\n      swap2\n      sub\n      swap1\n      return\n        /* \"contracts/authentication.sol\":1937:2049  function getUserAddress() public view returns (address) {\r... */\n    tag_9:\n      tag_38\n      tag_39\n      jump\t// in\n    tag_38:\n      mload(0x40)\n      tag_40\n      swap2\n      swap1\n      tag_41\n      jump\t// in\n    tag_40:\n      mload(0x40)\n      dup1\n      swap2\n      sub\n      swap1\n      return\n        /* \"contracts/authentication.sol\":3452:3558  function getProjectDetails() public view returns(AllProject memory) {\r... */\n    tag_10:\n      tag_42\n      tag_43\n      jump\t// in\n    tag_42:\n      mload(0x40)\n      tag_44\n      swap2\n      swap1\n      tag_45\n      jump\t// in\n    tag_44:\n      mload(0x40)\n      dup1\n      swap2\n      sub\n      swap1\n      return\n        /* \"contracts/authentication.sol\":90:114  uint256 public nbOfUsers */\n    tag_13:\n      sload(0x00)\n      dup2\n      jump\t// out\n        /* \"contracts/authentication.sol\":2316:2824  function login(string memory username, string memory password) public returns(string memory) {\r... */\n    tag_19:\n        /* \"contracts/authentication.sol\":2394:2407  string memory */\n      0x60\n        /* \"contracts/authentication.sol\":2422:2445  string memory _username */\n      0x00\n        /* \"contracts/authentication.sol\":2447:2460  getUsername() */\n      tag_47\n        /* \"contracts/authentication.sol\":2447:2458  getUsername */\n      tag_28\n        /* \"contracts/authentication.sol\":2447:2460  getUsername() */\n      jump\t// in\n    tag_47:\n        /* \"contracts/authentication.sol\":2422:2460  string memory _username= getUsername() */\n      swap1\n      pop\n        /* \"contracts/authentication.sol\":2473:2496  string memory _password */\n      0x00\n        /* \"contracts/authentication.sol\":2498:2502  user */\n      0x01\n        /* \"contracts/authentication.sol\":2498:2514  user[msg.sender] */\n      0x00\n        /* \"contracts/authentication.sol\":2503:2513  msg.sender */\n      caller\n        /* \"contracts/authentication.sol\":2498:2514  user[msg.sender] */\n      0xffffffffffffffffffffffffffffffffffffffff\n      and\n      0xffffffffffffffffffffffffffffffffffffffff\n      and\n      dup2\n      mstore\n      0x20\n      add\n      swap1\n      dup2\n      mstore\n      0x20\n      add\n      0x00\n      keccak256\n        /* \"contracts/authentication.sol\":2498:2523  user[msg.sender].password */\n      0x03\n      add\n        /* \"contracts/authentication.sol\":2473:2523  string memory _password= user[msg.sender].password */\n      dup1\n      sload\n      tag_48\n      swap1\n      tag_49\n      jump\t// in\n    tag_48:\n      dup1\n      0x1f\n      add\n      0x20\n      dup1\n      swap2\n      div\n      mul\n      0x20\n      add\n      mload(0x40)\n      swap1\n      dup2\n      add\n      0x40\n      mstore\n      dup1\n      swap3\n      swap2\n      swap1\n      dup2\n      dup2\n      mstore\n      0x20\n      add\n      dup3\n      dup1\n      sload\n      tag_50\n      swap1\n      tag_49\n      jump\t// in\n    tag_50:\n      dup1\n      iszero\n      tag_51\n      jumpi\n      dup1\n      0x1f\n      lt\n      tag_52\n      jumpi\n      0x0100\n      dup1\n      dup4\n      sload\n      div\n      mul\n      dup4\n      mstore\n      swap2\n      0x20\n      add\n      swap2\n      jump(tag_51)\n    tag_52:\n      dup3\n      add\n      swap2\n      swap1\n      0x00\n      mstore\n      keccak256(0x00, 0x20)\n      swap1\n    tag_53:\n      dup2\n      sload\n      dup2\n      mstore\n      swap1\n      0x01\n      add\n      swap1\n      0x20\n      add\n      dup1\n      dup4\n      gt\n      tag_53\n      jumpi\n      dup3\n      swap1\n      sub\n      0x1f\n      and\n      dup3\n      add\n      swap2\n    tag_51:\n      pop\n      pop\n      pop\n      pop\n      pop\n      swap1\n      pop\n        /* \"contracts/authentication.sol\":2586:2594  username */\n      dup5\n        /* \"contracts/authentication.sol\":2570:2596  keccak256(bytes(username)) */\n      dup1\n      mload\n      swap1\n      0x20\n      add\n      keccak256\n        /* \"contracts/authentication.sol\":2555:2564  _username */\n      dup3\n        /* \"contracts/authentication.sol\":2539:2566  keccak256(bytes(_username)) */\n      dup1\n      mload\n      swap1\n      0x20\n      add\n      keccak256\n        /* \"contracts/authentication.sol\":2539:2596  keccak256(bytes(_username)) == keccak256(bytes(username)) */\n      eq\n        /* \"contracts/authentication.sol\":2539:2657  keccak256(bytes(_username)) == keccak256(bytes(username)) && keccak256(bytes(_password)) == keccak256(bytes(password)) */\n      dup1\n      iszero\n      tag_54\n      jumpi\n      pop\n        /* \"contracts/authentication.sol\":2647:2655  password */\n      dup4\n        /* \"contracts/authentication.sol\":2631:2657  keccak256(bytes(password)) */\n      dup1\n      mload\n      swap1\n      0x20\n      add\n      keccak256\n        /* \"contracts/authentication.sol\":2616:2625  _password */\n      dup2\n        /* \"contracts/authentication.sol\":2600:2627  keccak256(bytes(_password)) */\n      dup1\n      mload\n      swap1\n      0x20\n      add\n      keccak256\n        /* \"contracts/authentication.sol\":2600:2657  keccak256(bytes(_password)) == keccak256(bytes(password)) */\n      eq\n        /* \"contracts/authentication.sol\":2539:2657  keccak256(bytes(_username)) == keccak256(bytes(username)) && keccak256(bytes(_password)) == keccak256(bytes(password)) */\n    tag_54:\n        /* \"contracts/authentication.sol\":2536:2817  if(keccak256(bytes(_username)) == keccak256(bytes(username)) && keccak256(bytes(_password)) == keccak256(bytes(password)) ) {\r... */\n      iszero\n      tag_55\n      jumpi\n        /* \"contracts/authentication.sol\":2696:2704  username */\n      dup5\n        /* \"contracts/authentication.sol\":2689:2704  return username */\n      swap3\n      pop\n      pop\n      pop\n      jump(tag_46)\n        /* \"contracts/authentication.sol\":2536:2817  if(keccak256(bytes(_username)) == keccak256(bytes(username)) && keccak256(bytes(_password)) == keccak256(bytes(password)) ) {\r... */\n    tag_55:\n        /* \"contracts/authentication.sol\":2749:2805  return \"User doesnot exist !! Register and try again !!\" */\n      mload(0x40)\n      dup1\n      0x60\n      add\n      0x40\n      mstore\n      dup1\n      0x2f\n      dup2\n      mstore\n      0x20\n      add\n      data_f8cee5838de095b73bc0eb68505c82192a6e7ef8eb72dc52884288f7c470afa7\n      0x2f\n      swap2\n      codecopy\n      swap3\n      pop\n      pop\n      pop\n        /* \"contracts/authentication.sol\":2316:2824  function login(string memory username, string memory password) public returns(string memory) {\r... */\n    tag_46:\n      swap3\n      swap2\n      pop\n      pop\n      jump\t// out\n        /* \"contracts/authentication.sol\":878:1722  function register(string memory _signature, string memory email, string memory username, string memory password, string memory repeatPassword) public returns(string memory) {\r... */\n    tag_25:\n        /* \"contracts/authentication.sol\":1036:1049  string memory */\n      0x60\n        /* \"contracts/authentication.sol\":1246:1256  _signature */\n      dup6\n        /* \"contracts/authentication.sol\":1213:1217  user */\n      0x01\n        /* \"contracts/authentication.sol\":1213:1229  user[msg.sender] */\n      0x00\n        /* \"contracts/authentication.sol\":1218:1228  msg.sender */\n      caller\n        /* \"contracts/authentication.sol\":1213:1229  user[msg.sender] */\n      0xffffffffffffffffffffffffffffffffffffffff\n      and\n      0xffffffffffffffffffffffffffffffffffffffff\n      and\n      dup2\n      mstore\n      0x20\n      add\n      swap1\n      dup2\n      mstore\n      0x20\n      add\n      0x00\n      keccak256\n        /* \"contracts/authentication.sol\":1213:1243  user[msg.sender].signatureHash */\n      0x00\n      add\n        /* \"contracts/authentication.sol\":1213:1256  user[msg.sender].signatureHash = _signature */\n      swap1\n      dup1\n      mload\n      swap1\n      0x20\n      add\n      swap1\n      tag_58\n      swap3\n      swap2\n      swap1\n      tag_59\n      jump\t// in\n    tag_58:\n      pop\n        /* \"contracts/authentication.sol\":1292:1297  email */\n      dup5\n        /* \"contracts/authentication.sol\":1267:1271  user */\n      0x01\n        /* \"contracts/authentication.sol\":1267:1283  user[msg.sender] */\n      0x00\n        /* \"contracts/authentication.sol\":1272:1282  msg.sender */\n      caller\n        /* \"contracts/authentication.sol\":1267:1283  user[msg.sender] */\n      0xffffffffffffffffffffffffffffffffffffffff\n      and\n      0xffffffffffffffffffffffffffffffffffffffff\n      and\n      dup2\n      mstore\n      0x20\n      add\n      swap1\n      dup2\n      mstore\n      0x20\n      add\n      0x00\n      keccak256\n        /* \"contracts/authentication.sol\":1267:1289  user[msg.sender].email */\n      0x01\n      add\n        /* \"contracts/authentication.sol\":1267:1297  user[msg.sender].email = email */\n      swap1\n      dup1\n      mload\n      swap1\n      0x20\n      add\n      swap1\n      tag_60\n      swap3\n      swap2\n      swap1\n      tag_59\n      jump\t// in\n    tag_60:\n      pop\n        /* \"contracts/authentication.sol\":1339:1349  msg.sender */\n      caller\n        /* \"contracts/authentication.sol\":1308:1312  user */\n      0x01\n        /* \"contracts/authentication.sol\":1308:1324  user[msg.sender] */\n      0x00\n        /* \"contracts/authentication.sol\":1313:1323  msg.sender */\n      caller\n        /* \"contracts/authentication.sol\":1308:1324  user[msg.sender] */\n      0xffffffffffffffffffffffffffffffffffffffff\n      and\n      0xffffffffffffffffffffffffffffffffffffffff\n      and\n      dup2\n      mstore\n      0x20\n      add\n      swap1\n      dup2\n      mstore\n      0x20\n      add\n      0x00\n      keccak256\n        /* \"contracts/authentication.sol\":1308:1336  user[msg.sender].userAddress */\n      0x05\n      add\n      0x00\n        /* \"contracts/authentication.sol\":1308:1349  user[msg.sender].userAddress = msg.sender */\n      0x0100\n      exp\n      dup2\n      sload\n      dup2\n      0xffffffffffffffffffffffffffffffffffffffff\n      mul\n      not\n      and\n      swap1\n      dup4\n      0xffffffffffffffffffffffffffffffffffffffff\n      and\n      mul\n      or\n      swap1\n      sstore\n      pop\n        /* \"contracts/authentication.sol\":1388:1396  username */\n      dup4\n        /* \"contracts/authentication.sol\":1360:1364  user */\n      0x01\n        /* \"contracts/authentication.sol\":1360:1376  user[msg.sender] */\n      0x00\n        /* \"contracts/authentication.sol\":1365:1375  msg.sender */\n      caller\n        /* \"contracts/authentication.sol\":1360:1376  user[msg.sender] */\n      0xffffffffffffffffffffffffffffffffffffffff\n      and\n      0xffffffffffffffffffffffffffffffffffffffff\n      and\n      dup2\n      mstore\n      0x20\n      add\n      swap1\n      dup2\n      mstore\n      0x20\n      add\n      0x00\n      keccak256\n        /* \"contracts/authentication.sol\":1360:1385  user[msg.sender].username */\n      0x02\n      add\n        /* \"contracts/authentication.sol\":1360:1396  user[msg.sender].username = username */\n      swap1\n      dup1\n      mload\n      swap1\n      0x20\n      add\n      swap1\n      tag_61\n      swap3\n      swap2\n      swap1\n      tag_59\n      jump\t// in\n    tag_61:\n      pop\n        /* \"contracts/authentication.sol\":1435:1443  password */\n      dup3\n        /* \"contracts/authentication.sol\":1407:1411  user */\n      0x01\n        /* \"contracts/authentication.sol\":1407:1423  user[msg.sender] */\n      0x00\n        /* \"contracts/authentication.sol\":1412:1422  msg.sender */\n      caller\n        /* \"contracts/authentication.sol\":1407:1423  user[msg.sender] */\n      0xffffffffffffffffffffffffffffffffffffffff\n      and\n      0xffffffffffffffffffffffffffffffffffffffff\n      and\n      dup2\n      mstore\n      0x20\n      add\n      swap1\n      dup2\n      mstore\n      0x20\n      add\n      0x00\n      keccak256\n        /* \"contracts/authentication.sol\":1407:1432  user[msg.sender].password */\n      0x03\n      add\n        /* \"contracts/authentication.sol\":1407:1443  user[msg.sender].password = password */\n      swap1\n      dup1\n      mload\n      swap1\n      0x20\n      add\n      swap1\n      tag_62\n      swap3\n      swap2\n      swap1\n      tag_59\n      jump\t// in\n    tag_62:\n      pop\n        /* \"contracts/authentication.sol\":1488:1502  repeatPassword */\n      dup2\n        /* \"contracts/authentication.sol\":1454:1458  user */\n      0x01\n        /* \"contracts/authentication.sol\":1454:1470  user[msg.sender] */\n      0x00\n        /* \"contracts/authentication.sol\":1459:1469  msg.sender */\n      caller\n        /* \"contracts/authentication.sol\":1454:1470  user[msg.sender] */\n      0xffffffffffffffffffffffffffffffffffffffff\n      and\n      0xffffffffffffffffffffffffffffffffffffffff\n      and\n      dup2\n      mstore\n      0x20\n      add\n      swap1\n      dup2\n      mstore\n      0x20\n      add\n      0x00\n      keccak256\n        /* \"contracts/authentication.sol\":1454:1485  user[msg.sender].repeatPassword */\n      0x04\n      add\n        /* \"contracts/authentication.sol\":1454:1502  user[msg.sender].repeatPassword = repeatPassword */\n      swap1\n      dup1\n      mload\n      swap1\n      0x20\n      add\n      swap1\n      tag_63\n      swap3\n      swap2\n      swap1\n      tag_59\n      jump\t// in\n    tag_63:\n      pop\n        /* \"contracts/authentication.sol\":1513:1522  nbOfUsers */\n      0x00\n      dup1\n        /* \"contracts/authentication.sol\":1513:1524  nbOfUsers++ */\n      dup2\n      sload\n      dup1\n      swap3\n      swap2\n      swap1\n      tag_64\n      swap1\n      tag_65\n      jump\t// in\n    tag_64:\n      swap2\n      swap1\n      pop\n      sstore\n      pop\n        /* \"contracts/authentication.sol\":1682:1714  return \"Successfully Registered\" */\n      mload(0x40)\n      dup1\n      0x40\n      add\n      0x40\n      mstore\n      dup1\n      0x17\n      dup2\n      mstore\n      0x20\n      add\n      0x5375636365737366756c6c792052656769737465726564000000000000000000\n      dup2\n      mstore\n      pop\n      swap1\n      pop\n        /* \"contracts/authentication.sol\":878:1722  function register(string memory _signature, string memory email, string memory username, string memory password, string memory repeatPassword) public returns(string memory) {\r... */\n      swap6\n      swap5\n      pop\n      pop\n      pop\n      pop\n      pop\n      jump\t// out\n        /* \"contracts/authentication.sol\":2196:2310  function getUsername() public view returns (string memory) {\r... */\n    tag_28:\n        /* \"contracts/authentication.sol\":2240:2253  string memory */\n      0x60\n        /* \"contracts/authentication.sol\":2275:2279  user */\n      0x01\n        /* \"contracts/authentication.sol\":2275:2291  user[msg.sender] */\n      0x00\n        /* \"contracts/authentication.sol\":2280:2290  msg.sender */\n      caller\n        /* \"contracts/authentication.sol\":2275:2291  user[msg.sender] */\n      0xffffffffffffffffffffffffffffffffffffffff\n      and\n      0xffffffffffffffffffffffffffffffffffffffff\n      and\n      dup2\n      mstore\n      0x20\n      add\n      swap1\n      dup2\n      mstore\n      0x20\n      add\n      0x00\n      keccak256\n        /* \"contracts/authentication.sol\":2275:2300  user[msg.sender].username */\n      0x02\n      add\n        /* \"contracts/authentication.sol\":2268:2300  return user[msg.sender].username */\n      dup1\n      sload\n      tag_67\n      swap1\n      tag_49\n      jump\t// in\n    tag_67:\n      dup1\n      0x1f\n      add\n      0x20\n      dup1\n      swap2\n      div\n      mul\n      0x20\n      add\n      mload(0x40)\n      swap1\n      dup2\n      add\n      0x40\n      mstore\n      dup1\n      swap3\n      swap2\n      swap1\n      dup2\n      dup2\n      mstore\n      0x20\n      add\n      dup3\n      dup1\n      sload\n      tag_68\n      swap1\n      tag_49\n      jump\t// in\n    tag_68:\n      dup1\n      iszero\n      tag_69\n      jumpi\n      dup1\n      0x1f\n      lt\n      tag_70\n      jumpi\n      0x0100\n      dup1\n      dup4\n      sload\n      div\n      mul\n      dup4\n      mstore\n      swap2\n      0x20\n      add\n      swap2\n      jump(tag_69)\n    tag_70:\n      dup3\n      add\n      swap2\n      swap1\n      0x00\n      mstore\n      keccak256(0x00, 0x20)\n      swap1\n    tag_71:\n      dup2\n      sload\n      dup2\n      mstore\n      swap1\n      0x01\n      add\n      swap1\n      0x20\n      add\n      dup1\n      dup4\n      gt\n      tag_71\n      jumpi\n      dup3\n      swap1\n      sub\n      0x1f\n      and\n      dup3\n      add\n      swap2\n    tag_69:\n      pop\n      pop\n      pop\n      pop\n      pop\n      swap1\n      pop\n        /* \"contracts/authentication.sol\":2196:2310  function getUsername() public view returns (string memory) {\r... */\n      swap1\n      jump\t// out\n        /* \"contracts/authentication.sol\":2855:3440  function saveProject(string memory projectName, string memory description, string memory deadline, string memory amount) public returns(string memory) {\r... */\n    tag_33:\n        /* \"contracts/authentication.sol\":2991:3004  string memory */\n      0x60\n        /* \"contracts/authentication.sol\":3053:3054  0 */\n      0x00\n        /* \"contracts/authentication.sol\":3030:3043  getUsername() */\n      tag_73\n        /* \"contracts/authentication.sol\":3030:3041  getUsername */\n      tag_28\n        /* \"contracts/authentication.sol\":3030:3043  getUsername() */\n      jump\t// in\n    tag_73:\n        /* \"contracts/authentication.sol\":3024:3051  bytes(getUsername()).length */\n      mload\n        /* \"contracts/authentication.sol\":3024:3054  bytes(getUsername()).length!=0 */\n      eq\n        /* \"contracts/authentication.sol\":3021:3431  if(bytes(getUsername()).length!=0) {\r... */\n      tag_74\n      jumpi\n        /* \"contracts/authentication.sol\":3101:3112  projectName */\n      dup5\n        /* \"contracts/authentication.sol\":3067:3074  project */\n      0x02\n        /* \"contracts/authentication.sol\":3067:3086  project[msg.sender] */\n      0x00\n        /* \"contracts/authentication.sol\":3075:3085  msg.sender */\n      caller\n        /* \"contracts/authentication.sol\":3067:3086  project[msg.sender] */\n      0xffffffffffffffffffffffffffffffffffffffff\n      and\n      0xffffffffffffffffffffffffffffffffffffffff\n      and\n      dup2\n      mstore\n      0x20\n      add\n      swap1\n      dup2\n      mstore\n      0x20\n      add\n      0x00\n      keccak256\n        /* \"contracts/authentication.sol\":3067:3098  project[msg.sender].projectName */\n      0x00\n      add\n        /* \"contracts/authentication.sol\":3067:3112  project[msg.sender].projectName = projectName */\n      swap1\n      dup1\n      mload\n      swap1\n      0x20\n      add\n      swap1\n      tag_75\n      swap3\n      swap2\n      swap1\n      tag_59\n      jump\t// in\n    tag_75:\n      pop\n        /* \"contracts/authentication.sol\":3157:3168  description */\n      dup4\n        /* \"contracts/authentication.sol\":3123:3130  project */\n      0x02\n        /* \"contracts/authentication.sol\":3123:3142  project[msg.sender] */\n      0x00\n        /* \"contracts/authentication.sol\":3131:3141  msg.sender */\n      caller\n        /* \"contracts/authentication.sol\":3123:3142  project[msg.sender] */\n      0xffffffffffffffffffffffffffffffffffffffff\n      and\n      0xffffffffffffffffffffffffffffffffffffffff\n      and\n      dup2\n      mstore\n      0x20\n      add\n      swap1\n      dup2\n      mstore\n      0x20\n      add\n      0x00\n      keccak256\n        /* \"contracts/authentication.sol\":3123:3154  project[msg.sender].description */\n      0x01\n      add\n        /* \"contracts/authentication.sol\":3123:3168  project[msg.sender].description = description */\n      swap1\n      dup1\n      mload\n      swap1\n      0x20\n      add\n      swap1\n      tag_76\n      swap3\n      swap2\n      swap1\n      tag_59\n      jump\t// in\n    tag_76:\n      pop\n        /* \"contracts/authentication.sol\":3210:3218  deadline */\n      dup3\n        /* \"contracts/authentication.sol\":3179:3186  project */\n      0x02\n        /* \"contracts/authentication.sol\":3179:3198  project[msg.sender] */\n      0x00\n        /* \"contracts/authentication.sol\":3187:3197  msg.sender */\n      caller\n        /* \"contracts/authentication.sol\":3179:3198  project[msg.sender] */\n      0xffffffffffffffffffffffffffffffffffffffff\n      and\n      0xffffffffffffffffffffffffffffffffffffffff\n      and\n      dup2\n      mstore\n      0x20\n      add\n      swap1\n      dup2\n      mstore\n      0x20\n      add\n      0x00\n      keccak256\n        /* \"contracts/authentication.sol\":3179:3207  project[msg.sender].deadline */\n      0x02\n      add\n        /* \"contracts/authentication.sol\":3179:3218  project[msg.sender].deadline = deadline */\n      swap1\n      dup1\n      mload\n      swap1\n      0x20\n      add\n      swap1\n      tag_77\n      swap3\n      swap2\n      swap1\n      tag_59\n      jump\t// in\n    tag_77:\n      pop\n        /* \"contracts/authentication.sol\":3258:3264  amount */\n      dup2\n        /* \"contracts/authentication.sol\":3229:3236  project */\n      0x02\n        /* \"contracts/authentication.sol\":3229:3248  project[msg.sender] */\n      0x00\n        /* \"contracts/authentication.sol\":3237:3247  msg.sender */\n      caller\n        /* \"contracts/authentication.sol\":3229:3248  project[msg.sender] */\n      0xffffffffffffffffffffffffffffffffffffffff\n      and\n      0xffffffffffffffffffffffffffffffffffffffff\n      and\n      dup2\n      mstore\n      0x20\n      add\n      swap1\n      dup2\n      mstore\n      0x20\n      add\n      0x00\n      keccak256\n        /* \"contracts/authentication.sol\":3229:3255  project[msg.sender].amount */\n      0x03\n      add\n        /* \"contracts/authentication.sol\":3229:3264  project[msg.sender].amount = amount */\n      swap1\n      dup1\n      mload\n      swap1\n      0x20\n      add\n      swap1\n      tag_78\n      swap3\n      swap2\n      swap1\n      tag_59\n      jump\t// in\n    tag_78:\n      pop\n        /* \"contracts/authentication.sol\":3275:3282  myArray */\n      0x08\n        /* \"contracts/authentication.sol\":3288:3295  project */\n      0x02\n        /* \"contracts/authentication.sol\":3288:3307  project[msg.sender] */\n      0x00\n        /* \"contracts/authentication.sol\":3296:3306  msg.sender */\n      caller\n        /* \"contracts/authentication.sol\":3288:3307  project[msg.sender] */\n      0xffffffffffffffffffffffffffffffffffffffff\n      and\n      0xffffffffffffffffffffffffffffffffffffffff\n      and\n      dup2\n      mstore\n      0x20\n      add\n      swap1\n      dup2\n      mstore\n      0x20\n      add\n      0x00\n      keccak256\n        /* \"contracts/authentication.sol\":3288:3319  project[msg.sender].projectName */\n      0x00\n      add\n        /* \"contracts/authentication.sol\":3275:3320  myArray.push(project[msg.sender].projectName) */\n      swap1\n      dup1\n      0x01\n      dup2\n      sload\n      add\n      dup1\n      dup3\n      sstore\n      dup1\n      swap2\n      pop\n      pop\n      0x01\n      swap1\n      sub\n      swap1\n      0x00\n      mstore\n      keccak256(0x00, 0x20)\n      add\n      0x00\n      swap1\n      swap2\n      swap1\n      swap2\n      swap1\n      swap2\n      pop\n      swap1\n      dup1\n      sload\n      tag_80\n      swap1\n      tag_49\n      jump\t// in\n    tag_80:\n      tag_81\n      swap3\n      swap2\n      swap1\n      tag_82\n      jump\t// in\n    tag_81:\n      pop\n        /* \"contracts/authentication.sol\":3331:3366  return \"Project Saved Successfully\" */\n      mload(0x40)\n      dup1\n      0x40\n      add\n      0x40\n      mstore\n      dup1\n      0x1a\n      dup2\n      mstore\n      0x20\n      add\n      0x50726f6a656374205361766564205375636365737366756c6c79000000000000\n      dup2\n      mstore\n      pop\n      swap1\n      pop\n      jump(tag_72)\n        /* \"contracts/authentication.sol\":3021:3431  if(bytes(getUsername()).length!=0) {\r... */\n    tag_74:\n        /* \"contracts/authentication.sol\":3393:3422  return \"Error Saving Project\" */\n      mload(0x40)\n      dup1\n      0x40\n      add\n      0x40\n      mstore\n      dup1\n      0x14\n      dup2\n      mstore\n      0x20\n      add\n      0x4572726f7220536176696e672050726f6a656374000000000000000000000000\n      dup2\n      mstore\n      pop\n      swap1\n      pop\n        /* \"contracts/authentication.sol\":2855:3440  function saveProject(string memory projectName, string memory description, string memory deadline, string memory amount) public returns(string memory) {\r... */\n    tag_72:\n      swap5\n      swap4\n      pop\n      pop\n      pop\n      pop\n      jump\t// out\n        /* \"contracts/authentication.sol\":1730:1929  function getSignatureHash() public view returns (string memory) {\r... */\n    tag_36:\n        /* \"contracts/authentication.sol\":1779:1792  string memory */\n      0x60\n        /* \"contracts/authentication.sol\":1827:1831  user */\n      0x01\n        /* \"contracts/authentication.sol\":1827:1843  user[msg.sender] */\n      0x00\n        /* \"contracts/authentication.sol\":1832:1842  msg.sender */\n      caller\n        /* \"contracts/authentication.sol\":1827:1843  user[msg.sender] */\n      0xffffffffffffffffffffffffffffffffffffffff\n      and\n      0xffffffffffffffffffffffffffffffffffffffff\n      and\n      dup2\n      mstore\n      0x20\n      add\n      swap1\n      dup2\n      mstore\n      0x20\n      add\n      0x00\n      keccak256\n        /* \"contracts/authentication.sol\":1827:1855  user[msg.sender].userAddress */\n      0x05\n      add\n      0x00\n      swap1\n      sload\n      swap1\n      0x0100\n      exp\n      swap1\n      div\n      0xffffffffffffffffffffffffffffffffffffffff\n      and\n        /* \"contracts/authentication.sol\":1813:1855  msg.sender == user[msg.sender].userAddress */\n      0xffffffffffffffffffffffffffffffffffffffff\n      and\n        /* \"contracts/authentication.sol\":1813:1823  msg.sender */\n      caller\n        /* \"contracts/authentication.sol\":1813:1855  msg.sender == user[msg.sender].userAddress */\n      0xffffffffffffffffffffffffffffffffffffffff\n      and\n      eq\n        /* \"contracts/authentication.sol\":1805:1871  require(msg.sender == user[msg.sender].userAddress, \"Not allowed\") */\n      tag_85\n      jumpi\n      mload(0x40)\n      0x08c379a000000000000000000000000000000000000000000000000000000000\n      dup2\n      mstore\n      0x04\n      add\n      tag_86\n      swap1\n      tag_87\n      jump\t// in\n    tag_86:\n      mload(0x40)\n      dup1\n      swap2\n      sub\n      swap1\n      revert\n    tag_85:\n        /* \"contracts/authentication.sol\":1891:1895  user */\n      0x01\n        /* \"contracts/authentication.sol\":1891:1907  user[msg.sender] */\n      0x00\n        /* \"contracts/authentication.sol\":1896:1906  msg.sender */\n      caller\n        /* \"contracts/authentication.sol\":1891:1907  user[msg.sender] */\n      0xffffffffffffffffffffffffffffffffffffffff\n      and\n      0xffffffffffffffffffffffffffffffffffffffff\n      and\n      dup2\n      mstore\n      0x20\n      add\n      swap1\n      dup2\n      mstore\n      0x20\n      add\n      0x00\n      keccak256\n        /* \"contracts/authentication.sol\":1891:1921  user[msg.sender].signatureHash */\n      0x00\n      add\n        /* \"contracts/authentication.sol\":1884:1921  return user[msg.sender].signatureHash */\n      dup1\n      sload\n      tag_88\n      swap1\n      tag_49\n      jump\t// in\n    tag_88:\n      dup1\n      0x1f\n      add\n      0x20\n      dup1\n      swap2\n      div\n      mul\n      0x20\n      add\n      mload(0x40)\n      swap1\n      dup2\n      add\n      0x40\n      mstore\n      dup1\n      swap3\n      swap2\n      swap1\n      dup2\n      dup2\n      mstore\n      0x20\n      add\n      dup3\n      dup1\n      sload\n      tag_89\n      swap1\n      tag_49\n      jump\t// in\n    tag_89:\n      dup1\n      iszero\n      tag_90\n      jumpi\n      dup1\n      0x1f\n      lt\n      tag_91\n      jumpi\n      0x0100\n      dup1\n      dup4\n      sload\n      div\n      mul\n      dup4\n      mstore\n      swap2\n      0x20\n      add\n      swap2\n      jump(tag_90)\n    tag_91:\n      dup3\n      add\n      swap2\n      swap1\n      0x00\n      mstore\n      keccak256(0x00, 0x20)\n      swap1\n    tag_92:\n      dup2\n      sload\n      dup2\n      mstore\n      swap1\n      0x01\n      add\n      swap1\n      0x20\n      add\n      dup1\n      dup4\n      gt\n      tag_92\n      jumpi\n      dup3\n      swap1\n      sub\n      0x1f\n      and\n      dup3\n      add\n      swap2\n    tag_90:\n      pop\n      pop\n      pop\n      pop\n      pop\n      swap1\n      pop\n        /* \"contracts/authentication.sol\":1730:1929  function getSignatureHash() public view returns (string memory) {\r... */\n      swap1\n      jump\t// out\n        /* \"contracts/authentication.sol\":1937:2049  function getUserAddress() public view returns (address) {\r... */\n    tag_39:\n        /* \"contracts/authentication.sol\":1984:1991  address */\n      0x00\n        /* \"contracts/authentication.sol\":2013:2017  user */\n      0x01\n        /* \"contracts/authentication.sol\":2013:2029  user[msg.sender] */\n      0x00\n        /* \"contracts/authentication.sol\":2018:2028  msg.sender */\n      caller\n        /* \"contracts/authentication.sol\":2013:2029  user[msg.sender] */\n      0xffffffffffffffffffffffffffffffffffffffff\n      and\n      0xffffffffffffffffffffffffffffffffffffffff\n      and\n      dup2\n      mstore\n      0x20\n      add\n      swap1\n      dup2\n      mstore\n      0x20\n      add\n      0x00\n      keccak256\n        /* \"contracts/authentication.sol\":2013:2041  user[msg.sender].userAddress */\n      0x05\n      add\n      0x00\n      swap1\n      sload\n      swap1\n      0x0100\n      exp\n      swap1\n      div\n      0xffffffffffffffffffffffffffffffffffffffff\n      and\n        /* \"contracts/authentication.sol\":2006:2041  return user[msg.sender].userAddress */\n      swap1\n      pop\n        /* \"contracts/authentication.sol\":1937:2049  function getUserAddress() public view returns (address) {\r... */\n      swap1\n      jump\t// out\n        /* \"contracts/authentication.sol\":3452:3558  function getProjectDetails() public view returns(AllProject memory) {\r... */\n    tag_43:\n        /* \"contracts/authentication.sol\":3501:3518  AllProject memory */\n      tag_94\n      tag_95\n      jump\t// in\n    tag_94:\n        /* \"contracts/authentication.sol\":3540:3550  allProject */\n      0x03\n        /* \"contracts/authentication.sol\":3533:3550  return allProject */\n      mload(0x40)\n      dup1\n      0xa0\n      add\n      0x40\n      mstore\n      swap1\n      dup2\n      0x00\n      dup3\n      add\n      dup1\n      sload\n      tag_97\n      swap1\n      tag_49\n      jump\t// in\n    tag_97:\n      dup1\n      0x1f\n      add\n      0x20\n      dup1\n      swap2\n      div\n      mul\n      0x20\n      add\n      mload(0x40)\n      swap1\n      dup2\n      add\n      0x40\n      mstore\n      dup1\n      swap3\n      swap2\n      swap1\n      dup2\n      dup2\n      mstore\n      0x20\n      add\n      dup3\n      dup1\n      sload\n      tag_98\n      swap1\n      tag_49\n      jump\t// in\n    tag_98:\n      dup1\n      iszero\n      tag_99\n      jumpi\n      dup1\n      0x1f\n      lt\n      tag_100\n      jumpi\n      0x0100\n      dup1\n      dup4\n      sload\n      div\n      mul\n      dup4\n      mstore\n      swap2\n      0x20\n      add\n      swap2\n      jump(tag_99)\n    tag_100:\n      dup3\n      add\n      swap2\n      swap1\n      0x00\n      mstore\n      keccak256(0x00, 0x20)\n      swap1\n    tag_101:\n      dup2\n      sload\n      dup2\n      mstore\n      swap1\n      0x01\n      add\n      swap1\n      0x20\n      add\n      dup1\n      dup4\n      gt\n      tag_101\n      jumpi\n      dup3\n      swap1\n      sub\n      0x1f\n      and\n      dup3\n      add\n      swap2\n    tag_99:\n      pop\n      pop\n      pop\n      pop\n      pop\n      dup2\n      mstore\n      0x20\n      add\n      0x01\n      dup3\n      add\n      dup1\n      sload\n      tag_102\n      swap1\n      tag_49\n      jump\t// in\n    tag_102:\n      dup1\n      0x1f\n      add\n      0x20\n      dup1\n      swap2\n      div\n      mul\n      0x20\n      add\n      mload(0x40)\n      swap1\n      dup2\n      add\n      0x40\n      mstore\n      dup1\n      swap3\n      swap2\n      swap1\n      dup2\n      dup2\n      mstore\n      0x20\n      add\n      dup3\n      dup1\n      sload\n      tag_103\n      swap1\n      tag_49\n      jump\t// in\n    tag_103:\n      dup1\n      iszero\n      tag_104\n      jumpi\n      dup1\n      0x1f\n      lt\n      tag_105\n      jumpi\n      0x0100\n      dup1\n      dup4\n      sload\n      div\n      mul\n      dup4\n      mstore\n      swap2\n      0x20\n      add\n      swap2\n      jump(tag_104)\n    tag_105:\n      dup3\n      add\n      swap2\n      swap1\n      0x00\n      mstore\n      keccak256(0x00, 0x20)\n      swap1\n    tag_106:\n      dup2\n      sload\n      dup2\n      mstore\n      swap1\n      0x01\n      add\n      swap1\n      0x20\n      add\n      dup1\n      dup4\n      gt\n      tag_106\n      jumpi\n      dup3\n      swap1\n      sub\n      0x1f\n      and\n      dup3\n      add\n      swap2\n    tag_104:\n      pop\n      pop\n      pop\n      pop\n      pop\n      dup2\n      mstore\n      0x20\n      add\n      0x02\n      dup3\n      add\n      dup1\n      sload\n      tag_107\n      swap1\n      tag_49\n      jump\t// in\n    tag_107:\n      dup1\n      0x1f\n      add\n      0x20\n      dup1\n      swap2\n      div\n      mul\n      0x20\n      add\n      mload(0x40)\n      swap1\n      dup2\n      add\n      0x40\n      mstore\n      dup1\n      swap3\n      swap2\n      swap1\n      dup2\n      dup2\n      mstore\n      0x20\n      add\n      dup3\n      dup1\n      sload\n      tag_108\n      swap1\n      tag_49\n      jump\t// in\n    tag_108:\n      dup1\n      iszero\n      tag_109\n      jumpi\n      dup1\n      0x1f\n      lt\n      tag_110\n      jumpi\n      0x0100\n      dup1\n      dup4\n      sload\n      div\n      mul\n      dup4\n      mstore\n      swap2\n      0x20\n      add\n      swap2\n      jump(tag_109)\n    tag_110:\n      dup3\n      add\n      swap2\n      swap1\n      0x00\n      mstore\n      keccak256(0x00, 0x20)\n      swap1\n    tag_111:\n      dup2\n      sload\n      dup2\n      mstore\n      swap1\n      0x01\n      add\n      swap1\n      0x20\n      add\n      dup1\n      dup4\n      gt\n      tag_111\n      jumpi\n      dup3\n      swap1\n      sub\n      0x1f\n      and\n      dup3\n      add\n      swap2\n    tag_109:\n      pop\n      pop\n      pop\n      pop\n      pop\n      dup2\n      mstore\n      0x20\n      add\n      0x03\n      dup3\n      add\n      dup1\n      sload\n      tag_112\n      swap1\n      tag_49\n      jump\t// in\n    tag_112:\n      dup1\n      0x1f\n      add\n      0x20\n      dup1\n      swap2\n      div\n      mul\n      0x20\n      add\n      mload(0x40)\n      swap1\n      dup2\n      add\n      0x40\n      mstore\n      dup1\n      swap3\n      swap2\n      swap1\n      dup2\n      dup2\n      mstore\n      0x20\n      add\n      dup3\n      dup1\n      sload\n      tag_113\n      swap1\n      tag_49\n      jump\t// in\n    tag_113:\n      dup1\n      iszero\n      tag_114\n      jumpi\n      dup1\n      0x1f\n      lt\n      tag_115\n      jumpi\n      0x0100\n      dup1\n      dup4\n      sload\n      div\n      mul\n      dup4\n      mstore\n      swap2\n      0x20\n      add\n      swap2\n      jump(tag_114)\n    tag_115:\n      dup3\n      add\n      swap2\n      swap1\n      0x00\n      mstore\n      keccak256(0x00, 0x20)\n      swap1\n    tag_116:\n      dup2\n      sload\n      dup2\n      mstore\n      swap1\n      0x01\n      add\n      swap1\n      0x20\n      add\n      dup1\n      dup4\n      gt\n      tag_116\n      jumpi\n      dup3\n      swap1\n      sub\n      0x1f\n      and\n      dup3\n      add\n      swap2\n    tag_114:\n      pop\n      pop\n      pop\n      pop\n      pop\n      dup2\n      mstore\n      0x20\n      add\n      0x04\n      dup3\n      add\n      0x00\n      swap1\n      sload\n      swap1\n      0x0100\n      exp\n      swap1\n      div\n      0xffffffffffffffffffffffffffffffffffffffff\n      and\n      0xffffffffffffffffffffffffffffffffffffffff\n      and\n      0xffffffffffffffffffffffffffffffffffffffff\n      and\n      dup2\n      mstore\n      pop\n      pop\n      swap1\n      pop\n        /* \"contracts/authentication.sol\":3452:3558  function getProjectDetails() public view returns(AllProject memory) {\r... */\n      swap1\n      jump\t// out\n    tag_59:\n      dup3\n      dup1\n      sload\n      tag_117\n      swap1\n      tag_49\n      jump\t// in\n    tag_117:\n      swap1\n      0x00\n      mstore\n      keccak256(0x00, 0x20)\n      swap1\n      0x1f\n      add\n      0x20\n      swap1\n      div\n      dup2\n      add\n      swap3\n      dup3\n      tag_119\n      jumpi\n      0x00\n      dup6\n      sstore\n      jump(tag_118)\n    tag_119:\n      dup3\n      0x1f\n      lt\n      tag_120\n      jumpi\n      dup1\n      mload\n      not(0xff)\n      and\n      dup4\n      dup1\n      add\n      or\n      dup6\n      sstore\n      jump(tag_118)\n    tag_120:\n      dup3\n      dup1\n      add\n      0x01\n      add\n      dup6\n      sstore\n      dup3\n      iszero\n      tag_118\n      jumpi\n      swap2\n      dup3\n      add\n    tag_121:\n      dup3\n      dup2\n      gt\n      iszero\n      tag_122\n      jumpi\n      dup3\n      mload\n      dup3\n      sstore\n      swap2\n      0x20\n      add\n      swap2\n      swap1\n      0x01\n      add\n      swap1\n      jump(tag_121)\n    tag_122:\n    tag_118:\n      pop\n      swap1\n      pop\n      tag_123\n      swap2\n      swap1\n      tag_124\n      jump\t// in\n    tag_123:\n      pop\n      swap1\n      jump\t// out\n    tag_82:\n      dup3\n      dup1\n      sload\n      tag_125\n      swap1\n      tag_49\n      jump\t// in\n    tag_125:\n      swap1\n      0x00\n      mstore\n      keccak256(0x00, 0x20)\n      swap1\n      0x1f\n      add\n      0x20\n      swap1\n      div\n      dup2\n      add\n      swap3\n      dup3\n      tag_127\n      jumpi\n      0x00\n      dup6\n      sstore\n      jump(tag_126)\n    tag_127:\n      dup3\n      0x1f\n      lt\n      tag_128\n      jumpi\n      dup1\n      sload\n      dup6\n      sstore\n      jump(tag_126)\n    tag_128:\n      dup3\n      dup1\n      add\n      0x01\n      add\n      dup6\n      sstore\n      dup3\n      iszero\n      tag_126\n      jumpi\n      0x00\n      mstore\n      keccak256(0x00, 0x20)\n      swap2\n      0x1f\n      add\n      0x20\n      swap1\n      div\n      dup3\n      add\n    tag_129:\n      dup3\n      dup2\n      gt\n      iszero\n      tag_130\n      jumpi\n      dup3\n      sload\n      dup3\n      sstore\n      swap2\n      0x01\n      add\n      swap2\n      swap1\n      0x01\n      add\n      swap1\n      jump(tag_129)\n    tag_130:\n    tag_126:\n      pop\n      swap1\n      pop\n      tag_131\n      swap2\n      swap1\n      tag_124\n      jump\t// in\n    tag_131:\n      pop\n      swap1\n      jump\t// out\n    tag_95:\n      mload(0x40)\n      dup1\n      0xa0\n      add\n      0x40\n      mstore\n      dup1\n      0x60\n      dup2\n      mstore\n      0x20\n      add\n      0x60\n      dup2\n      mstore\n      0x20\n      add\n      0x60\n      dup2\n      mstore\n      0x20\n      add\n      0x60\n      dup2\n      mstore\n      0x20\n      add\n      and(0xffffffffffffffffffffffffffffffffffffffff, 0x00)\n      dup2\n      mstore\n      pop\n      swap1\n      jump\t// out\n    tag_124:\n    tag_132:\n      dup1\n      dup3\n      gt\n      iszero\n      tag_133\n      jumpi\n      0x00\n      dup2\n      0x00\n      swap1\n      sstore\n      pop\n      0x01\n      add\n      jump(tag_132)\n    tag_133:\n      pop\n      swap1\n      jump\t// out\n        /* \"#utility.yul\":7:419   */\n    tag_135:\n        /* \"#utility.yul\":85:90   */\n      0x00\n        /* \"#utility.yul\":110:176   */\n      tag_137\n        /* \"#utility.yul\":126:175   */\n      tag_138\n        /* \"#utility.yul\":168:174   */\n      dup5\n        /* \"#utility.yul\":126:175   */\n      tag_139\n      jump\t// in\n    tag_138:\n        /* \"#utility.yul\":110:176   */\n      tag_140\n      jump\t// in\n    tag_137:\n        /* \"#utility.yul\":101:176   */\n      swap1\n      pop\n        /* \"#utility.yul\":199:205   */\n      dup3\n        /* \"#utility.yul\":192:197   */\n      dup2\n        /* \"#utility.yul\":185:206   */\n      mstore\n        /* \"#utility.yul\":237:241   */\n      0x20\n        /* \"#utility.yul\":230:235   */\n      dup2\n        /* \"#utility.yul\":226:242   */\n      add\n        /* \"#utility.yul\":275:278   */\n      dup5\n        /* \"#utility.yul\":266:272   */\n      dup5\n        /* \"#utility.yul\":261:264   */\n      dup5\n        /* \"#utility.yul\":257:273   */\n      add\n        /* \"#utility.yul\":254:279   */\n      gt\n        /* \"#utility.yul\":251:253   */\n      iszero\n      tag_141\n      jumpi\n        /* \"#utility.yul\":282:361   */\n      tag_142\n      tag_143\n      jump\t// in\n    tag_142:\n        /* \"#utility.yul\":251:253   */\n    tag_141:\n        /* \"#utility.yul\":372:413   */\n      tag_144\n        /* \"#utility.yul\":406:412   */\n      dup5\n        /* \"#utility.yul\":401:404   */\n      dup3\n        /* \"#utility.yul\":396:399   */\n      dup6\n        /* \"#utility.yul\":372:413   */\n      tag_145\n      jump\t// in\n    tag_144:\n        /* \"#utility.yul\":91:419   */\n      pop\n      swap4\n      swap3\n      pop\n      pop\n      pop\n      jump\t// out\n        /* \"#utility.yul\":439:779   */\n    tag_146:\n        /* \"#utility.yul\":495:500   */\n      0x00\n        /* \"#utility.yul\":544:547   */\n      dup3\n        /* \"#utility.yul\":537:541   */\n      0x1f\n        /* \"#utility.yul\":529:535   */\n      dup4\n        /* \"#utility.yul\":525:542   */\n      add\n        /* \"#utility.yul\":521:548   */\n      slt\n        /* \"#utility.yul\":511:513   */\n      tag_148\n      jumpi\n        /* \"#utility.yul\":552:631   */\n      tag_149\n      tag_150\n      jump\t// in\n    tag_149:\n        /* \"#utility.yul\":511:513   */\n    tag_148:\n        /* \"#utility.yul\":669:675   */\n      dup2\n        /* \"#utility.yul\":656:676   */\n      calldataload\n        /* \"#utility.yul\":694:773   */\n      tag_151\n        /* \"#utility.yul\":769:772   */\n      dup5\n        /* \"#utility.yul\":761:767   */\n      dup3\n        /* \"#utility.yul\":754:758   */\n      0x20\n        /* \"#utility.yul\":746:752   */\n      dup7\n        /* \"#utility.yul\":742:759   */\n      add\n        /* \"#utility.yul\":694:773   */\n      tag_135\n      jump\t// in\n    tag_151:\n        /* \"#utility.yul\":685:773   */\n      swap2\n      pop\n        /* \"#utility.yul\":501:779   */\n      pop\n      swap3\n      swap2\n      pop\n      pop\n      jump\t// out\n        /* \"#utility.yul\":785:1619   */\n    tag_18:\n        /* \"#utility.yul\":873:879   */\n      0x00\n        /* \"#utility.yul\":881:887   */\n      dup1\n        /* \"#utility.yul\":930:932   */\n      0x40\n        /* \"#utility.yul\":918:927   */\n      dup4\n        /* \"#utility.yul\":909:916   */\n      dup6\n        /* \"#utility.yul\":905:928   */\n      sub\n        /* \"#utility.yul\":901:933   */\n      slt\n        /* \"#utility.yul\":898:900   */\n      iszero\n      tag_153\n      jumpi\n        /* \"#utility.yul\":936:1015   */\n      tag_154\n      tag_155\n      jump\t// in\n    tag_154:\n        /* \"#utility.yul\":898:900   */\n    tag_153:\n        /* \"#utility.yul\":1084:1085   */\n      0x00\n        /* \"#utility.yul\":1073:1082   */\n      dup4\n        /* \"#utility.yul\":1069:1086   */\n      add\n        /* \"#utility.yul\":1056:1087   */\n      calldataload\n        /* \"#utility.yul\":1114:1132   */\n      0xffffffffffffffff\n        /* \"#utility.yul\":1106:1112   */\n      dup2\n        /* \"#utility.yul\":1103:1133   */\n      gt\n        /* \"#utility.yul\":1100:1102   */\n      iszero\n      tag_156\n      jumpi\n        /* \"#utility.yul\":1136:1215   */\n      tag_157\n      tag_158\n      jump\t// in\n    tag_157:\n        /* \"#utility.yul\":1100:1102   */\n    tag_156:\n        /* \"#utility.yul\":1241:1304   */\n      tag_159\n        /* \"#utility.yul\":1296:1303   */\n      dup6\n        /* \"#utility.yul\":1287:1293   */\n      dup3\n        /* \"#utility.yul\":1276:1285   */\n      dup7\n        /* \"#utility.yul\":1272:1294   */\n      add\n        /* \"#utility.yul\":1241:1304   */\n      tag_146\n      jump\t// in\n    tag_159:\n        /* \"#utility.yul\":1231:1304   */\n      swap3\n      pop\n        /* \"#utility.yul\":1027:1314   */\n      pop\n        /* \"#utility.yul\":1381:1383   */\n      0x20\n        /* \"#utility.yul\":1370:1379   */\n      dup4\n        /* \"#utility.yul\":1366:1384   */\n      add\n        /* \"#utility.yul\":1353:1385   */\n      calldataload\n        /* \"#utility.yul\":1412:1430   */\n      0xffffffffffffffff\n        /* \"#utility.yul\":1404:1410   */\n      dup2\n        /* \"#utility.yul\":1401:1431   */\n      gt\n        /* \"#utility.yul\":1398:1400   */\n      iszero\n      tag_160\n      jumpi\n        /* \"#utility.yul\":1434:1513   */\n      tag_161\n      tag_158\n      jump\t// in\n    tag_161:\n        /* \"#utility.yul\":1398:1400   */\n    tag_160:\n        /* \"#utility.yul\":1539:1602   */\n      tag_162\n        /* \"#utility.yul\":1594:1601   */\n      dup6\n        /* \"#utility.yul\":1585:1591   */\n      dup3\n        /* \"#utility.yul\":1574:1583   */\n      dup7\n        /* \"#utility.yul\":1570:1592   */\n      add\n        /* \"#utility.yul\":1539:1602   */\n      tag_146\n      jump\t// in\n    tag_162:\n        /* \"#utility.yul\":1529:1602   */\n      swap2\n      pop\n        /* \"#utility.yul\":1324:1612   */\n      pop\n        /* \"#utility.yul\":888:1619   */\n      swap3\n      pop\n      swap3\n      swap1\n      pop\n      jump\t// out\n        /* \"#utility.yul\":1625:3110   */\n    tag_32:\n        /* \"#utility.yul\":1751:1757   */\n      0x00\n        /* \"#utility.yul\":1759:1765   */\n      dup1\n        /* \"#utility.yul\":1767:1773   */\n      0x00\n        /* \"#utility.yul\":1775:1781   */\n      dup1\n        /* \"#utility.yul\":1824:1827   */\n      0x80\n        /* \"#utility.yul\":1812:1821   */\n      dup6\n        /* \"#utility.yul\":1803:1810   */\n      dup8\n        /* \"#utility.yul\":1799:1822   */\n      sub\n        /* \"#utility.yul\":1795:1828   */\n      slt\n        /* \"#utility.yul\":1792:1794   */\n      iszero\n      tag_164\n      jumpi\n        /* \"#utility.yul\":1831:1910   */\n      tag_165\n      tag_155\n      jump\t// in\n    tag_165:\n        /* \"#utility.yul\":1792:1794   */\n    tag_164:\n        /* \"#utility.yul\":1979:1980   */\n      0x00\n        /* \"#utility.yul\":1968:1977   */\n      dup6\n        /* \"#utility.yul\":1964:1981   */\n      add\n        /* \"#utility.yul\":1951:1982   */\n      calldataload\n        /* \"#utility.yul\":2009:2027   */\n      0xffffffffffffffff\n        /* \"#utility.yul\":2001:2007   */\n      dup2\n        /* \"#utility.yul\":1998:2028   */\n      gt\n        /* \"#utility.yul\":1995:1997   */\n      iszero\n      tag_166\n      jumpi\n        /* \"#utility.yul\":2031:2110   */\n      tag_167\n      tag_158\n      jump\t// in\n    tag_167:\n        /* \"#utility.yul\":1995:1997   */\n    tag_166:\n        /* \"#utility.yul\":2136:2199   */\n      tag_168\n        /* \"#utility.yul\":2191:2198   */\n      dup8\n        /* \"#utility.yul\":2182:2188   */\n      dup3\n        /* \"#utility.yul\":2171:2180   */\n      dup9\n        /* \"#utility.yul\":2167:2189   */\n      add\n        /* \"#utility.yul\":2136:2199   */\n      tag_146\n      jump\t// in\n    tag_168:\n        /* \"#utility.yul\":2126:2199   */\n      swap5\n      pop\n        /* \"#utility.yul\":1922:2209   */\n      pop\n        /* \"#utility.yul\":2276:2278   */\n      0x20\n        /* \"#utility.yul\":2265:2274   */\n      dup6\n        /* \"#utility.yul\":2261:2279   */\n      add\n        /* \"#utility.yul\":2248:2280   */\n      calldataload\n        /* \"#utility.yul\":2307:2325   */\n      0xffffffffffffffff\n        /* \"#utility.yul\":2299:2305   */\n      dup2\n        /* \"#utility.yul\":2296:2326   */\n      gt\n        /* \"#utility.yul\":2293:2295   */\n      iszero\n      tag_169\n      jumpi\n        /* \"#utility.yul\":2329:2408   */\n      tag_170\n      tag_158\n      jump\t// in\n    tag_170:\n        /* \"#utility.yul\":2293:2295   */\n    tag_169:\n        /* \"#utility.yul\":2434:2497   */\n      tag_171\n        /* \"#utility.yul\":2489:2496   */\n      dup8\n        /* \"#utility.yul\":2480:2486   */\n      dup3\n        /* \"#utility.yul\":2469:2478   */\n      dup9\n        /* \"#utility.yul\":2465:2487   */\n      add\n        /* \"#utility.yul\":2434:2497   */\n      tag_146\n      jump\t// in\n    tag_171:\n        /* \"#utility.yul\":2424:2497   */\n      swap4\n      pop\n        /* \"#utility.yul\":2219:2507   */\n      pop\n        /* \"#utility.yul\":2574:2576   */\n      0x40\n        /* \"#utility.yul\":2563:2572   */\n      dup6\n        /* \"#utility.yul\":2559:2577   */\n      add\n        /* \"#utility.yul\":2546:2578   */\n      calldataload\n        /* \"#utility.yul\":2605:2623   */\n      0xffffffffffffffff\n        /* \"#utility.yul\":2597:2603   */\n      dup2\n        /* \"#utility.yul\":2594:2624   */\n      gt\n        /* \"#utility.yul\":2591:2593   */\n      iszero\n      tag_172\n      jumpi\n        /* \"#utility.yul\":2627:2706   */\n      tag_173\n      tag_158\n      jump\t// in\n    tag_173:\n        /* \"#utility.yul\":2591:2593   */\n    tag_172:\n        /* \"#utility.yul\":2732:2795   */\n      tag_174\n        /* \"#utility.yul\":2787:2794   */\n      dup8\n        /* \"#utility.yul\":2778:2784   */\n      dup3\n        /* \"#utility.yul\":2767:2776   */\n      dup9\n        /* \"#utility.yul\":2763:2785   */\n      add\n        /* \"#utility.yul\":2732:2795   */\n      tag_146\n      jump\t// in\n    tag_174:\n        /* \"#utility.yul\":2722:2795   */\n      swap3\n      pop\n        /* \"#utility.yul\":2517:2805   */\n      pop\n        /* \"#utility.yul\":2872:2874   */\n      0x60\n        /* \"#utility.yul\":2861:2870   */\n      dup6\n        /* \"#utility.yul\":2857:2875   */\n      add\n        /* \"#utility.yul\":2844:2876   */\n      calldataload\n        /* \"#utility.yul\":2903:2921   */\n      0xffffffffffffffff\n        /* \"#utility.yul\":2895:2901   */\n      dup2\n        /* \"#utility.yul\":2892:2922   */\n      gt\n        /* \"#utility.yul\":2889:2891   */\n      iszero\n      tag_175\n      jumpi\n        /* \"#utility.yul\":2925:3004   */\n      tag_176\n      tag_158\n      jump\t// in\n    tag_176:\n        /* \"#utility.yul\":2889:2891   */\n    tag_175:\n        /* \"#utility.yul\":3030:3093   */\n      tag_177\n        /* \"#utility.yul\":3085:3092   */\n      dup8\n        /* \"#utility.yul\":3076:3082   */\n      dup3\n        /* \"#utility.yul\":3065:3074   */\n      dup9\n        /* \"#utility.yul\":3061:3083   */\n      add\n        /* \"#utility.yul\":3030:3093   */\n      tag_146\n      jump\t// in\n    tag_177:\n        /* \"#utility.yul\":3020:3093   */\n      swap2\n      pop\n        /* \"#utility.yul\":2815:3103   */\n      pop\n        /* \"#utility.yul\":1782:3110   */\n      swap3\n      swap6\n      swap2\n      swap5\n      pop\n      swap3\n      pop\n      jump\t// out\n        /* \"#utility.yul\":3116:4927   */\n    tag_24:\n        /* \"#utility.yul\":3261:3267   */\n      0x00\n        /* \"#utility.yul\":3269:3275   */\n      dup1\n        /* \"#utility.yul\":3277:3283   */\n      0x00\n        /* \"#utility.yul\":3285:3291   */\n      dup1\n        /* \"#utility.yul\":3293:3299   */\n      0x00\n        /* \"#utility.yul\":3342:3345   */\n      0xa0\n        /* \"#utility.yul\":3330:3339   */\n      dup7\n        /* \"#utility.yul\":3321:3328   */\n      dup9\n        /* \"#utility.yul\":3317:3340   */\n      sub\n        /* \"#utility.yul\":3313:3346   */\n      slt\n        /* \"#utility.yul\":3310:3312   */\n      iszero\n      tag_179\n      jumpi\n        /* \"#utility.yul\":3349:3428   */\n      tag_180\n      tag_155\n      jump\t// in\n    tag_180:\n        /* \"#utility.yul\":3310:3312   */\n    tag_179:\n        /* \"#utility.yul\":3497:3498   */\n      0x00\n        /* \"#utility.yul\":3486:3495   */\n      dup7\n        /* \"#utility.yul\":3482:3499   */\n      add\n        /* \"#utility.yul\":3469:3500   */\n      calldataload\n        /* \"#utility.yul\":3527:3545   */\n      0xffffffffffffffff\n        /* \"#utility.yul\":3519:3525   */\n      dup2\n        /* \"#utility.yul\":3516:3546   */\n      gt\n        /* \"#utility.yul\":3513:3515   */\n      iszero\n      tag_181\n      jumpi\n        /* \"#utility.yul\":3549:3628   */\n      tag_182\n      tag_158\n      jump\t// in\n    tag_182:\n        /* \"#utility.yul\":3513:3515   */\n    tag_181:\n        /* \"#utility.yul\":3654:3717   */\n      tag_183\n        /* \"#utility.yul\":3709:3716   */\n      dup9\n        /* \"#utility.yul\":3700:3706   */\n      dup3\n        /* \"#utility.yul\":3689:3698   */\n      dup10\n        /* \"#utility.yul\":3685:3707   */\n      add\n        /* \"#utility.yul\":3654:3717   */\n      tag_146\n      jump\t// in\n    tag_183:\n        /* \"#utility.yul\":3644:3717   */\n      swap6\n      pop\n        /* \"#utility.yul\":3440:3727   */\n      pop\n        /* \"#utility.yul\":3794:3796   */\n      0x20\n        /* \"#utility.yul\":3783:3792   */\n      dup7\n        /* \"#utility.yul\":3779:3797   */\n      add\n        /* \"#utility.yul\":3766:3798   */\n      calldataload\n        /* \"#utility.yul\":3825:3843   */\n      0xffffffffffffffff\n        /* \"#utility.yul\":3817:3823   */\n      dup2\n        /* \"#utility.yul\":3814:3844   */\n      gt\n        /* \"#utility.yul\":3811:3813   */\n      iszero\n      tag_184\n      jumpi\n        /* \"#utility.yul\":3847:3926   */\n      tag_185\n      tag_158\n      jump\t// in\n    tag_185:\n        /* \"#utility.yul\":3811:3813   */\n    tag_184:\n        /* \"#utility.yul\":3952:4015   */\n      tag_186\n        /* \"#utility.yul\":4007:4014   */\n      dup9\n        /* \"#utility.yul\":3998:4004   */\n      dup3\n        /* \"#utility.yul\":3987:3996   */\n      dup10\n        /* \"#utility.yul\":3983:4005   */\n      add\n        /* \"#utility.yul\":3952:4015   */\n      tag_146\n      jump\t// in\n    tag_186:\n        /* \"#utility.yul\":3942:4015   */\n      swap5\n      pop\n        /* \"#utility.yul\":3737:4025   */\n      pop\n        /* \"#utility.yul\":4092:4094   */\n      0x40\n        /* \"#utility.yul\":4081:4090   */\n      dup7\n        /* \"#utility.yul\":4077:4095   */\n      add\n        /* \"#utility.yul\":4064:4096   */\n      calldataload\n        /* \"#utility.yul\":4123:4141   */\n      0xffffffffffffffff\n        /* \"#utility.yul\":4115:4121   */\n      dup2\n        /* \"#utility.yul\":4112:4142   */\n      gt\n        /* \"#utility.yul\":4109:4111   */\n      iszero\n      tag_187\n      jumpi\n        /* \"#utility.yul\":4145:4224   */\n      tag_188\n      tag_158\n      jump\t// in\n    tag_188:\n        /* \"#utility.yul\":4109:4111   */\n    tag_187:\n        /* \"#utility.yul\":4250:4313   */\n      tag_189\n        /* \"#utility.yul\":4305:4312   */\n      dup9\n        /* \"#utility.yul\":4296:4302   */\n      dup3\n        /* \"#utility.yul\":4285:4294   */\n      dup10\n        /* \"#utility.yul\":4281:4303   */\n      add\n        /* \"#utility.yul\":4250:4313   */\n      tag_146\n      jump\t// in\n    tag_189:\n        /* \"#utility.yul\":4240:4313   */\n      swap4\n      pop\n        /* \"#utility.yul\":4035:4323   */\n      pop\n        /* \"#utility.yul\":4390:4392   */\n      0x60\n        /* \"#utility.yul\":4379:4388   */\n      dup7\n        /* \"#utility.yul\":4375:4393   */\n      add\n        /* \"#utility.yul\":4362:4394   */\n      calldataload\n        /* \"#utility.yul\":4421:4439   */\n      0xffffffffffffffff\n        /* \"#utility.yul\":4413:4419   */\n      dup2\n        /* \"#utility.yul\":4410:4440   */\n      gt\n        /* \"#utility.yul\":4407:4409   */\n      iszero\n      tag_190\n      jumpi\n        /* \"#utility.yul\":4443:4522   */\n      tag_191\n      tag_158\n      jump\t// in\n    tag_191:\n        /* \"#utility.yul\":4407:4409   */\n    tag_190:\n        /* \"#utility.yul\":4548:4611   */\n      tag_192\n        /* \"#utility.yul\":4603:4610   */\n      dup9\n        /* \"#utility.yul\":4594:4600   */\n      dup3\n        /* \"#utility.yul\":4583:4592   */\n      dup10\n        /* \"#utility.yul\":4579:4601   */\n      add\n        /* \"#utility.yul\":4548:4611   */\n      tag_146\n      jump\t// in\n    tag_192:\n        /* \"#utility.yul\":4538:4611   */\n      swap3\n      pop\n        /* \"#utility.yul\":4333:4621   */\n      pop\n        /* \"#utility.yul\":4688:4691   */\n      0x80\n        /* \"#utility.yul\":4677:4686   */\n      dup7\n        /* \"#utility.yul\":4673:4692   */\n      add\n        /* \"#utility.yul\":4660:4693   */\n      calldataload\n        /* \"#utility.yul\":4720:4738   */\n      0xffffffffffffffff\n        /* \"#utility.yul\":4712:4718   */\n      dup2\n        /* \"#utility.yul\":4709:4739   */\n      gt\n        /* \"#utility.yul\":4706:4708   */\n      iszero\n      tag_193\n      jumpi\n        /* \"#utility.yul\":4742:4821   */\n      tag_194\n      tag_158\n      jump\t// in\n    tag_194:\n        /* \"#utility.yul\":4706:4708   */\n    tag_193:\n        /* \"#utility.yul\":4847:4910   */\n      tag_195\n        /* \"#utility.yul\":4902:4909   */\n      dup9\n        /* \"#utility.yul\":4893:4899   */\n      dup3\n        /* \"#utility.yul\":4882:4891   */\n      dup10\n        /* \"#utility.yul\":4878:4900   */\n      add\n        /* \"#utility.yul\":4847:4910   */\n      tag_146\n      jump\t// in\n    tag_195:\n        /* \"#utility.yul\":4837:4910   */\n      swap2\n      pop\n        /* \"#utility.yul\":4631:4920   */\n      pop\n        /* \"#utility.yul\":3300:4927   */\n      swap3\n      swap6\n      pop\n      swap3\n      swap6\n      swap1\n      swap4\n      pop\n      jump\t// out\n        /* \"#utility.yul\":4933:5041   */\n    tag_196:\n        /* \"#utility.yul\":5010:5034   */\n      tag_198\n        /* \"#utility.yul\":5028:5033   */\n      dup2\n        /* \"#utility.yul\":5010:5034   */\n      tag_199\n      jump\t// in\n    tag_198:\n        /* \"#utility.yul\":5005:5008   */\n      dup3\n        /* \"#utility.yul\":4998:5035   */\n      mstore\n        /* \"#utility.yul\":4988:5041   */\n      pop\n      pop\n      jump\t// out\n        /* \"#utility.yul\":5047:5165   */\n    tag_200:\n        /* \"#utility.yul\":5134:5158   */\n      tag_202\n        /* \"#utility.yul\":5152:5157   */\n      dup2\n        /* \"#utility.yul\":5134:5158   */\n      tag_199\n      jump\t// in\n    tag_202:\n        /* \"#utility.yul\":5129:5132   */\n      dup3\n        /* \"#utility.yul\":5122:5159   */\n      mstore\n        /* \"#utility.yul\":5112:5165   */\n      pop\n      pop\n      jump\t// out\n        /* \"#utility.yul\":5171:5515   */\n    tag_203:\n        /* \"#utility.yul\":5249:5252   */\n      0x00\n        /* \"#utility.yul\":5277:5316   */\n      tag_205\n        /* \"#utility.yul\":5310:5315   */\n      dup3\n        /* \"#utility.yul\":5277:5316   */\n      tag_206\n      jump\t// in\n    tag_205:\n        /* \"#utility.yul\":5332:5393   */\n      tag_207\n        /* \"#utility.yul\":5386:5392   */\n      dup2\n        /* \"#utility.yul\":5381:5384   */\n      dup6\n        /* \"#utility.yul\":5332:5393   */\n      tag_208\n      jump\t// in\n    tag_207:\n        /* \"#utility.yul\":5325:5393   */\n      swap4\n      pop\n        /* \"#utility.yul\":5402:5454   */\n      tag_209\n        /* \"#utility.yul\":5447:5453   */\n      dup2\n        /* \"#utility.yul\":5442:5445   */\n      dup6\n        /* \"#utility.yul\":5435:5439   */\n      0x20\n        /* \"#utility.yul\":5428:5433   */\n      dup7\n        /* \"#utility.yul\":5424:5440   */\n      add\n        /* \"#utility.yul\":5402:5454   */\n      tag_210\n      jump\t// in\n    tag_209:\n        /* \"#utility.yul\":5479:5508   */\n      tag_211\n        /* \"#utility.yul\":5501:5507   */\n      dup2\n        /* \"#utility.yul\":5479:5508   */\n      tag_212\n      jump\t// in\n    tag_211:\n        /* \"#utility.yul\":5474:5477   */\n      dup5\n        /* \"#utility.yul\":5470:5509   */\n      add\n        /* \"#utility.yul\":5463:5509   */\n      swap2\n      pop\n        /* \"#utility.yul\":5253:5515   */\n      pop\n      swap3\n      swap2\n      pop\n      pop\n      jump\t// out\n        /* \"#utility.yul\":5521:5885   */\n    tag_213:\n        /* \"#utility.yul\":5609:5612   */\n      0x00\n        /* \"#utility.yul\":5637:5676   */\n      tag_215\n        /* \"#utility.yul\":5670:5675   */\n      dup3\n        /* \"#utility.yul\":5637:5676   */\n      tag_206\n      jump\t// in\n    tag_215:\n        /* \"#utility.yul\":5692:5763   */\n      tag_216\n        /* \"#utility.yul\":5756:5762   */\n      dup2\n        /* \"#utility.yul\":5751:5754   */\n      dup6\n        /* \"#utility.yul\":5692:5763   */\n      tag_217\n      jump\t// in\n    tag_216:\n        /* \"#utility.yul\":5685:5763   */\n      swap4\n      pop\n        /* \"#utility.yul\":5772:5824   */\n      tag_218\n        /* \"#utility.yul\":5817:5823   */\n      dup2\n        /* \"#utility.yul\":5812:5815   */\n      dup6\n        /* \"#utility.yul\":5805:5809   */\n      0x20\n        /* \"#utility.yul\":5798:5803   */\n      dup7\n        /* \"#utility.yul\":5794:5810   */\n      add\n        /* \"#utility.yul\":5772:5824   */\n      tag_210\n      jump\t// in\n    tag_218:\n        /* \"#utility.yul\":5849:5878   */\n      tag_219\n        /* \"#utility.yul\":5871:5877   */\n      dup2\n        /* \"#utility.yul\":5849:5878   */\n      tag_212\n      jump\t// in\n    tag_219:\n        /* \"#utility.yul\":5844:5847   */\n      dup5\n        /* \"#utility.yul\":5840:5879   */\n      add\n        /* \"#utility.yul\":5833:5879   */\n      swap2\n      pop\n        /* \"#utility.yul\":5613:5885   */\n      pop\n      swap3\n      swap2\n      pop\n      pop\n      jump\t// out\n        /* \"#utility.yul\":5891:6257   */\n    tag_220:\n        /* \"#utility.yul\":6033:6036   */\n      0x00\n        /* \"#utility.yul\":6054:6121   */\n      tag_222\n        /* \"#utility.yul\":6118:6120   */\n      0x0b\n        /* \"#utility.yul\":6113:6116   */\n      dup4\n        /* \"#utility.yul\":6054:6121   */\n      tag_217\n      jump\t// in\n    tag_222:\n        /* \"#utility.yul\":6047:6121   */\n      swap2\n      pop\n        /* \"#utility.yul\":6130:6223   */\n      tag_223\n        /* \"#utility.yul\":6219:6222   */\n      dup3\n        /* \"#utility.yul\":6130:6223   */\n      tag_224\n      jump\t// in\n    tag_223:\n        /* \"#utility.yul\":6248:6250   */\n      0x20\n        /* \"#utility.yul\":6243:6246   */\n      dup3\n        /* \"#utility.yul\":6239:6251   */\n      add\n        /* \"#utility.yul\":6232:6251   */\n      swap1\n      pop\n        /* \"#utility.yul\":6037:6257   */\n      swap2\n      swap1\n      pop\n      jump\t// out\n        /* \"#utility.yul\":6339:7709   */\n    tag_225:\n        /* \"#utility.yul\":6460:6463   */\n      0x00\n        /* \"#utility.yul\":6496:6500   */\n      0xa0\n        /* \"#utility.yul\":6491:6494   */\n      dup4\n        /* \"#utility.yul\":6487:6501   */\n      add\n        /* \"#utility.yul\":6590:6594   */\n      0x00\n        /* \"#utility.yul\":6583:6588   */\n      dup4\n        /* \"#utility.yul\":6579:6595   */\n      add\n        /* \"#utility.yul\":6573:6596   */\n      mload\n        /* \"#utility.yul\":6643:6646   */\n      dup5\n        /* \"#utility.yul\":6637:6641   */\n      dup3\n        /* \"#utility.yul\":6633:6647   */\n      sub\n        /* \"#utility.yul\":6626:6630   */\n      0x00\n        /* \"#utility.yul\":6621:6624   */\n      dup7\n        /* \"#utility.yul\":6617:6631   */\n      add\n        /* \"#utility.yul\":6610:6648   */\n      mstore\n        /* \"#utility.yul\":6669:6742   */\n      tag_227\n        /* \"#utility.yul\":6737:6741   */\n      dup3\n        /* \"#utility.yul\":6723:6735   */\n      dup3\n        /* \"#utility.yul\":6669:6742   */\n      tag_203\n      jump\t// in\n    tag_227:\n        /* \"#utility.yul\":6661:6742   */\n      swap2\n      pop\n        /* \"#utility.yul\":6511:6753   */\n      pop\n        /* \"#utility.yul\":6842:6846   */\n      0x20\n        /* \"#utility.yul\":6835:6840   */\n      dup4\n        /* \"#utility.yul\":6831:6847   */\n      add\n        /* \"#utility.yul\":6825:6848   */\n      mload\n        /* \"#utility.yul\":6895:6898   */\n      dup5\n        /* \"#utility.yul\":6889:6893   */\n      dup3\n        /* \"#utility.yul\":6885:6899   */\n      sub\n        /* \"#utility.yul\":6878:6882   */\n      0x20\n        /* \"#utility.yul\":6873:6876   */\n      dup7\n        /* \"#utility.yul\":6869:6883   */\n      add\n        /* \"#utility.yul\":6862:6900   */\n      mstore\n        /* \"#utility.yul\":6921:6994   */\n      tag_228\n        /* \"#utility.yul\":6989:6993   */\n      dup3\n        /* \"#utility.yul\":6975:6987   */\n      dup3\n        /* \"#utility.yul\":6921:6994   */\n      tag_203\n      jump\t// in\n    tag_228:\n        /* \"#utility.yul\":6913:6994   */\n      swap2\n      pop\n        /* \"#utility.yul\":6763:7005   */\n      pop\n        /* \"#utility.yul\":7091:7095   */\n      0x40\n        /* \"#utility.yul\":7084:7089   */\n      dup4\n        /* \"#utility.yul\":7080:7096   */\n      add\n        /* \"#utility.yul\":7074:7097   */\n      mload\n        /* \"#utility.yul\":7144:7147   */\n      dup5\n        /* \"#utility.yul\":7138:7142   */\n      dup3\n        /* \"#utility.yul\":7134:7148   */\n      sub\n        /* \"#utility.yul\":7127:7131   */\n      0x40\n        /* \"#utility.yul\":7122:7125   */\n      dup7\n        /* \"#utility.yul\":7118:7132   */\n      add\n        /* \"#utility.yul\":7111:7149   */\n      mstore\n        /* \"#utility.yul\":7170:7243   */\n      tag_229\n        /* \"#utility.yul\":7238:7242   */\n      dup3\n        /* \"#utility.yul\":7224:7236   */\n      dup3\n        /* \"#utility.yul\":7170:7243   */\n      tag_203\n      jump\t// in\n    tag_229:\n        /* \"#utility.yul\":7162:7243   */\n      swap2\n      pop\n        /* \"#utility.yul\":7015:7254   */\n      pop\n        /* \"#utility.yul\":7338:7342   */\n      0x60\n        /* \"#utility.yul\":7331:7336   */\n      dup4\n        /* \"#utility.yul\":7327:7343   */\n      add\n        /* \"#utility.yul\":7321:7344   */\n      mload\n        /* \"#utility.yul\":7391:7394   */\n      dup5\n        /* \"#utility.yul\":7385:7389   */\n      dup3\n        /* \"#utility.yul\":7381:7395   */\n      sub\n        /* \"#utility.yul\":7374:7378   */\n      0x60\n        /* \"#utility.yul\":7369:7372   */\n      dup7\n        /* \"#utility.yul\":7365:7379   */\n      add\n        /* \"#utility.yul\":7358:7396   */\n      mstore\n        /* \"#utility.yul\":7417:7490   */\n      tag_230\n        /* \"#utility.yul\":7485:7489   */\n      dup3\n        /* \"#utility.yul\":7471:7483   */\n      dup3\n        /* \"#utility.yul\":7417:7490   */\n      tag_203\n      jump\t// in\n    tag_230:\n        /* \"#utility.yul\":7409:7490   */\n      swap2\n      pop\n        /* \"#utility.yul\":7264:7501   */\n      pop\n        /* \"#utility.yul\":7590:7594   */\n      0x80\n        /* \"#utility.yul\":7583:7588   */\n      dup4\n        /* \"#utility.yul\":7579:7595   */\n      add\n        /* \"#utility.yul\":7573:7596   */\n      mload\n        /* \"#utility.yul\":7609:7672   */\n      tag_231\n        /* \"#utility.yul\":7666:7670   */\n      0x80\n        /* \"#utility.yul\":7661:7664   */\n      dup7\n        /* \"#utility.yul\":7657:7671   */\n      add\n        /* \"#utility.yul\":7643:7655   */\n      dup3\n        /* \"#utility.yul\":7609:7672   */\n      tag_196\n      jump\t// in\n    tag_231:\n        /* \"#utility.yul\":7511:7682   */\n      pop\n        /* \"#utility.yul\":7699:7703   */\n      dup1\n        /* \"#utility.yul\":7692:7703   */\n      swap2\n      pop\n        /* \"#utility.yul\":6465:7709   */\n      pop\n      swap3\n      swap2\n      pop\n      pop\n      jump\t// out\n        /* \"#utility.yul\":7715:7833   */\n    tag_232:\n        /* \"#utility.yul\":7802:7826   */\n      tag_234\n        /* \"#utility.yul\":7820:7825   */\n      dup2\n        /* \"#utility.yul\":7802:7826   */\n      tag_235\n      jump\t// in\n    tag_234:\n        /* \"#utility.yul\":7797:7800   */\n      dup3\n        /* \"#utility.yul\":7790:7827   */\n      mstore\n        /* \"#utility.yul\":7780:7833   */\n      pop\n      pop\n      jump\t// out\n        /* \"#utility.yul\":7839:8061   */\n    tag_41:\n        /* \"#utility.yul\":7932:7936   */\n      0x00\n        /* \"#utility.yul\":7970:7972   */\n      0x20\n        /* \"#utility.yul\":7959:7968   */\n      dup3\n        /* \"#utility.yul\":7955:7973   */\n      add\n        /* \"#utility.yul\":7947:7973   */\n      swap1\n      pop\n        /* \"#utility.yul\":7983:8054   */\n      tag_237\n        /* \"#utility.yul\":8051:8052   */\n      0x00\n        /* \"#utility.yul\":8040:8049   */\n      dup4\n        /* \"#utility.yul\":8036:8053   */\n      add\n        /* \"#utility.yul\":8027:8033   */\n      dup5\n        /* \"#utility.yul\":7983:8054   */\n      tag_200\n      jump\t// in\n    tag_237:\n        /* \"#utility.yul\":7937:8061   */\n      swap3\n      swap2\n      pop\n      pop\n      jump\t// out\n        /* \"#utility.yul\":8067:8380   */\n    tag_21:\n        /* \"#utility.yul\":8180:8184   */\n      0x00\n        /* \"#utility.yul\":8218:8220   */\n      0x20\n        /* \"#utility.yul\":8207:8216   */\n      dup3\n        /* \"#utility.yul\":8203:8221   */\n      add\n        /* \"#utility.yul\":8195:8221   */\n      swap1\n      pop\n        /* \"#utility.yul\":8267:8276   */\n      dup2\n        /* \"#utility.yul\":8261:8265   */\n      dup2\n        /* \"#utility.yul\":8257:8277   */\n      sub\n        /* \"#utility.yul\":8253:8254   */\n      0x00\n        /* \"#utility.yul\":8242:8251   */\n      dup4\n        /* \"#utility.yul\":8238:8255   */\n      add\n        /* \"#utility.yul\":8231:8278   */\n      mstore\n        /* \"#utility.yul\":8295:8373   */\n      tag_239\n        /* \"#utility.yul\":8368:8372   */\n      dup2\n        /* \"#utility.yul\":8359:8365   */\n      dup5\n        /* \"#utility.yul\":8295:8373   */\n      tag_213\n      jump\t// in\n    tag_239:\n        /* \"#utility.yul\":8287:8373   */\n      swap1\n      pop\n        /* \"#utility.yul\":8185:8380   */\n      swap3\n      swap2\n      pop\n      pop\n      jump\t// out\n        /* \"#utility.yul\":8386:8805   */\n    tag_87:\n        /* \"#utility.yul\":8552:8556   */\n      0x00\n        /* \"#utility.yul\":8590:8592   */\n      0x20\n        /* \"#utility.yul\":8579:8588   */\n      dup3\n        /* \"#utility.yul\":8575:8593   */\n      add\n        /* \"#utility.yul\":8567:8593   */\n      swap1\n      pop\n        /* \"#utility.yul\":8639:8648   */\n      dup2\n        /* \"#utility.yul\":8633:8637   */\n      dup2\n        /* \"#utility.yul\":8629:8649   */\n      sub\n        /* \"#utility.yul\":8625:8626   */\n      0x00\n        /* \"#utility.yul\":8614:8623   */\n      dup4\n        /* \"#utility.yul\":8610:8627   */\n      add\n        /* \"#utility.yul\":8603:8650   */\n      mstore\n        /* \"#utility.yul\":8667:8798   */\n      tag_241\n        /* \"#utility.yul\":8793:8797   */\n      dup2\n        /* \"#utility.yul\":8667:8798   */\n      tag_220\n      jump\t// in\n    tag_241:\n        /* \"#utility.yul\":8659:8798   */\n      swap1\n      pop\n        /* \"#utility.yul\":8557:8805   */\n      swap2\n      swap1\n      pop\n      jump\t// out\n        /* \"#utility.yul\":8811:9188   */\n    tag_45:\n        /* \"#utility.yul\":8956:8960   */\n      0x00\n        /* \"#utility.yul\":8994:8996   */\n      0x20\n        /* \"#utility.yul\":8983:8992   */\n      dup3\n        /* \"#utility.yul\":8979:8997   */\n      add\n        /* \"#utility.yul\":8971:8997   */\n      swap1\n      pop\n        /* \"#utility.yul\":9043:9052   */\n      dup2\n        /* \"#utility.yul\":9037:9041   */\n      dup2\n        /* \"#utility.yul\":9033:9053   */\n      sub\n        /* \"#utility.yul\":9029:9030   */\n      0x00\n        /* \"#utility.yul\":9018:9027   */\n      dup4\n        /* \"#utility.yul\":9014:9031   */\n      add\n        /* \"#utility.yul\":9007:9054   */\n      mstore\n        /* \"#utility.yul\":9071:9181   */\n      tag_243\n        /* \"#utility.yul\":9176:9180   */\n      dup2\n        /* \"#utility.yul\":9167:9173   */\n      dup5\n        /* \"#utility.yul\":9071:9181   */\n      tag_225\n      jump\t// in\n    tag_243:\n        /* \"#utility.yul\":9063:9181   */\n      swap1\n      pop\n        /* \"#utility.yul\":8961:9188   */\n      swap3\n      swap2\n      pop\n      pop\n      jump\t// out\n        /* \"#utility.yul\":9194:9416   */\n    tag_15:\n        /* \"#utility.yul\":9287:9291   */\n      0x00\n        /* \"#utility.yul\":9325:9327   */\n      0x20\n        /* \"#utility.yul\":9314:9323   */\n      dup3\n        /* \"#utility.yul\":9310:9328   */\n      add\n        /* \"#utility.yul\":9302:9328   */\n      swap1\n      pop\n        /* \"#utility.yul\":9338:9409   */\n      tag_245\n        /* \"#utility.yul\":9406:9407   */\n      0x00\n        /* \"#utility.yul\":9395:9404   */\n      dup4\n        /* \"#utility.yul\":9391:9408   */\n      add\n        /* \"#utility.yul\":9382:9388   */\n      dup5\n        /* \"#utility.yul\":9338:9409   */\n      tag_232\n      jump\t// in\n    tag_245:\n        /* \"#utility.yul\":9292:9416   */\n      swap3\n      swap2\n      pop\n      pop\n      jump\t// out\n        /* \"#utility.yul\":9422:9551   */\n    tag_140:\n        /* \"#utility.yul\":9456:9462   */\n      0x00\n        /* \"#utility.yul\":9483:9503   */\n      tag_247\n      tag_248\n      jump\t// in\n    tag_247:\n        /* \"#utility.yul\":9473:9503   */\n      swap1\n      pop\n        /* \"#utility.yul\":9512:9545   */\n      tag_249\n        /* \"#utility.yul\":9540:9544   */\n      dup3\n        /* \"#utility.yul\":9532:9538   */\n      dup3\n        /* \"#utility.yul\":9512:9545   */\n      tag_250\n      jump\t// in\n    tag_249:\n        /* \"#utility.yul\":9463:9551   */\n      swap2\n      swap1\n      pop\n      jump\t// out\n        /* \"#utility.yul\":9557:9632   */\n    tag_248:\n        /* \"#utility.yul\":9590:9596   */\n      0x00\n        /* \"#utility.yul\":9623:9625   */\n      0x40\n        /* \"#utility.yul\":9617:9626   */\n      mload\n        /* \"#utility.yul\":9607:9626   */\n      swap1\n      pop\n        /* \"#utility.yul\":9597:9632   */\n      swap1\n      jump\t// out\n        /* \"#utility.yul\":9638:9946   */\n    tag_139:\n        /* \"#utility.yul\":9700:9704   */\n      0x00\n        /* \"#utility.yul\":9790:9808   */\n      0xffffffffffffffff\n        /* \"#utility.yul\":9782:9788   */\n      dup3\n        /* \"#utility.yul\":9779:9809   */\n      gt\n        /* \"#utility.yul\":9776:9778   */\n      iszero\n      tag_253\n      jumpi\n        /* \"#utility.yul\":9812:9830   */\n      tag_254\n      tag_255\n      jump\t// in\n    tag_254:\n        /* \"#utility.yul\":9776:9778   */\n    tag_253:\n        /* \"#utility.yul\":9850:9879   */\n      tag_256\n        /* \"#utility.yul\":9872:9878   */\n      dup3\n        /* \"#utility.yul\":9850:9879   */\n      tag_212\n      jump\t// in\n    tag_256:\n        /* \"#utility.yul\":9842:9879   */\n      swap1\n      pop\n        /* \"#utility.yul\":9934:9938   */\n      0x20\n        /* \"#utility.yul\":9928:9932   */\n      dup2\n        /* \"#utility.yul\":9924:9939   */\n      add\n        /* \"#utility.yul\":9916:9939   */\n      swap1\n      pop\n        /* \"#utility.yul\":9705:9946   */\n      swap2\n      swap1\n      pop\n      jump\t// out\n        /* \"#utility.yul\":9952:10051   */\n    tag_206:\n        /* \"#utility.yul\":10004:10010   */\n      0x00\n        /* \"#utility.yul\":10038:10043   */\n      dup2\n        /* \"#utility.yul\":10032:10044   */\n      mload\n        /* \"#utility.yul\":10022:10044   */\n      swap1\n      pop\n        /* \"#utility.yul\":10011:10051   */\n      swap2\n      swap1\n      pop\n      jump\t// out\n        /* \"#utility.yul\":10057:10216   */\n    tag_208:\n        /* \"#utility.yul\":10131:10142   */\n      0x00\n        /* \"#utility.yul\":10165:10171   */\n      dup3\n        /* \"#utility.yul\":10160:10163   */\n      dup3\n        /* \"#utility.yul\":10153:10172   */\n      mstore\n        /* \"#utility.yul\":10205:10209   */\n      0x20\n        /* \"#utility.yul\":10200:10203   */\n      dup3\n        /* \"#utility.yul\":10196:10210   */\n      add\n        /* \"#utility.yul\":10181:10210   */\n      swap1\n      pop\n        /* \"#utility.yul\":10143:10216   */\n      swap3\n      swap2\n      pop\n      pop\n      jump\t// out\n        /* \"#utility.yul\":10222:10391   */\n    tag_217:\n        /* \"#utility.yul\":10306:10317   */\n      0x00\n        /* \"#utility.yul\":10340:10346   */\n      dup3\n        /* \"#utility.yul\":10335:10338   */\n      dup3\n        /* \"#utility.yul\":10328:10347   */\n      mstore\n        /* \"#utility.yul\":10380:10384   */\n      0x20\n        /* \"#utility.yul\":10375:10378   */\n      dup3\n        /* \"#utility.yul\":10371:10385   */\n      add\n        /* \"#utility.yul\":10356:10385   */\n      swap1\n      pop\n        /* \"#utility.yul\":10318:10391   */\n      swap3\n      swap2\n      pop\n      pop\n      jump\t// out\n        /* \"#utility.yul\":10397:10493   */\n    tag_199:\n        /* \"#utility.yul\":10434:10441   */\n      0x00\n        /* \"#utility.yul\":10463:10487   */\n      tag_261\n        /* \"#utility.yul\":10481:10486   */\n      dup3\n        /* \"#utility.yul\":10463:10487   */\n      tag_262\n      jump\t// in\n    tag_261:\n        /* \"#utility.yul\":10452:10487   */\n      swap1\n      pop\n        /* \"#utility.yul\":10442:10493   */\n      swap2\n      swap1\n      pop\n      jump\t// out\n        /* \"#utility.yul\":10499:10625   */\n    tag_262:\n        /* \"#utility.yul\":10536:10543   */\n      0x00\n        /* \"#utility.yul\":10576:10618   */\n      0xffffffffffffffffffffffffffffffffffffffff\n        /* \"#utility.yul\":10569:10574   */\n      dup3\n        /* \"#utility.yul\":10565:10619   */\n      and\n        /* \"#utility.yul\":10554:10619   */\n      swap1\n      pop\n        /* \"#utility.yul\":10544:10625   */\n      swap2\n      swap1\n      pop\n      jump\t// out\n        /* \"#utility.yul\":10631:10708   */\n    tag_235:\n        /* \"#utility.yul\":10668:10675   */\n      0x00\n        /* \"#utility.yul\":10697:10702   */\n      dup2\n        /* \"#utility.yul\":10686:10702   */\n      swap1\n      pop\n        /* \"#utility.yul\":10676:10708   */\n      swap2\n      swap1\n      pop\n      jump\t// out\n        /* \"#utility.yul\":10714:10868   */\n    tag_145:\n        /* \"#utility.yul\":10798:10804   */\n      dup3\n        /* \"#utility.yul\":10793:10796   */\n      dup2\n        /* \"#utility.yul\":10788:10791   */\n      dup4\n        /* \"#utility.yul\":10775:10805   */\n      calldatacopy\n        /* \"#utility.yul\":10860:10861   */\n      0x00\n        /* \"#utility.yul\":10851:10857   */\n      dup4\n        /* \"#utility.yul\":10846:10849   */\n      dup4\n        /* \"#utility.yul\":10842:10858   */\n      add\n        /* \"#utility.yul\":10835:10862   */\n      mstore\n        /* \"#utility.yul\":10765:10868   */\n      pop\n      pop\n      pop\n      jump\t// out\n        /* \"#utility.yul\":10874:11181   */\n    tag_210:\n        /* \"#utility.yul\":10942:10943   */\n      0x00\n        /* \"#utility.yul\":10952:11065   */\n    tag_267:\n        /* \"#utility.yul\":10966:10972   */\n      dup4\n        /* \"#utility.yul\":10963:10964   */\n      dup2\n        /* \"#utility.yul\":10960:10973   */\n      lt\n        /* \"#utility.yul\":10952:11065   */\n      iszero\n      tag_269\n      jumpi\n        /* \"#utility.yul\":11051:11052   */\n      dup1\n        /* \"#utility.yul\":11046:11049   */\n      dup3\n        /* \"#utility.yul\":11042:11053   */\n      add\n        /* \"#utility.yul\":11036:11054   */\n      mload\n        /* \"#utility.yul\":11032:11033   */\n      dup2\n        /* \"#utility.yul\":11027:11030   */\n      dup5\n        /* \"#utility.yul\":11023:11034   */\n      add\n        /* \"#utility.yul\":11016:11055   */\n      mstore\n        /* \"#utility.yul\":10988:10990   */\n      0x20\n        /* \"#utility.yul\":10985:10986   */\n      dup2\n        /* \"#utility.yul\":10981:10991   */\n      add\n        /* \"#utility.yul\":10976:10991   */\n      swap1\n      pop\n        /* \"#utility.yul\":10952:11065   */\n      jump(tag_267)\n    tag_269:\n        /* \"#utility.yul\":11083:11089   */\n      dup4\n        /* \"#utility.yul\":11080:11081   */\n      dup2\n        /* \"#utility.yul\":11077:11090   */\n      gt\n        /* \"#utility.yul\":11074:11076   */\n      iszero\n      tag_270\n      jumpi\n        /* \"#utility.yul\":11163:11164   */\n      0x00\n        /* \"#utility.yul\":11154:11160   */\n      dup5\n        /* \"#utility.yul\":11149:11152   */\n      dup5\n        /* \"#utility.yul\":11145:11161   */\n      add\n        /* \"#utility.yul\":11138:11165   */\n      mstore\n        /* \"#utility.yul\":11074:11076   */\n    tag_270:\n        /* \"#utility.yul\":10923:11181   */\n      pop\n      pop\n      pop\n      pop\n      jump\t// out\n        /* \"#utility.yul\":11187:11507   */\n    tag_49:\n        /* \"#utility.yul\":11231:11237   */\n      0x00\n        /* \"#utility.yul\":11268:11269   */\n      0x02\n        /* \"#utility.yul\":11262:11266   */\n      dup3\n        /* \"#utility.yul\":11258:11270   */\n      div\n        /* \"#utility.yul\":11248:11270   */\n      swap1\n      pop\n        /* \"#utility.yul\":11315:11316   */\n      0x01\n        /* \"#utility.yul\":11309:11313   */\n      dup3\n        /* \"#utility.yul\":11305:11317   */\n      and\n        /* \"#utility.yul\":11336:11354   */\n      dup1\n        /* \"#utility.yul\":11326:11328   */\n      tag_272\n      jumpi\n        /* \"#utility.yul\":11392:11396   */\n      0x7f\n        /* \"#utility.yul\":11384:11390   */\n      dup3\n        /* \"#utility.yul\":11380:11397   */\n      and\n        /* \"#utility.yul\":11370:11397   */\n      swap2\n      pop\n        /* \"#utility.yul\":11326:11328   */\n    tag_272:\n        /* \"#utility.yul\":11454:11456   */\n      0x20\n        /* \"#utility.yul\":11446:11452   */\n      dup3\n        /* \"#utility.yul\":11443:11457   */\n      lt\n        /* \"#utility.yul\":11423:11441   */\n      dup2\n        /* \"#utility.yul\":11420:11458   */\n      eq\n        /* \"#utility.yul\":11417:11419   */\n      iszero\n      tag_273\n      jumpi\n        /* \"#utility.yul\":11473:11491   */\n      tag_274\n      tag_275\n      jump\t// in\n    tag_274:\n        /* \"#utility.yul\":11417:11419   */\n    tag_273:\n        /* \"#utility.yul\":11238:11507   */\n      pop\n      swap2\n      swap1\n      pop\n      jump\t// out\n        /* \"#utility.yul\":11513:11794   */\n    tag_250:\n        /* \"#utility.yul\":11596:11623   */\n      tag_277\n        /* \"#utility.yul\":11618:11622   */\n      dup3\n        /* \"#utility.yul\":11596:11623   */\n      tag_212\n      jump\t// in\n    tag_277:\n        /* \"#utility.yul\":11588:11594   */\n      dup2\n        /* \"#utility.yul\":11584:11624   */\n      add\n        /* \"#utility.yul\":11726:11732   */\n      dup2\n        /* \"#utility.yul\":11714:11724   */\n      dup2\n        /* \"#utility.yul\":11711:11733   */\n      lt\n        /* \"#utility.yul\":11690:11708   */\n      0xffffffffffffffff\n        /* \"#utility.yul\":11678:11688   */\n      dup3\n        /* \"#utility.yul\":11675:11709   */\n      gt\n        /* \"#utility.yul\":11672:11734   */\n      or\n        /* \"#utility.yul\":11669:11671   */\n      iszero\n      tag_278\n      jumpi\n        /* \"#utility.yul\":11737:11755   */\n      tag_279\n      tag_255\n      jump\t// in\n    tag_279:\n        /* \"#utility.yul\":11669:11671   */\n    tag_278:\n        /* \"#utility.yul\":11777:11787   */\n      dup1\n        /* \"#utility.yul\":11773:11775   */\n      0x40\n        /* \"#utility.yul\":11766:11788   */\n      mstore\n        /* \"#utility.yul\":11556:11794   */\n      pop\n      pop\n      pop\n      jump\t// out\n        /* \"#utility.yul\":11800:12033   */\n    tag_65:\n        /* \"#utility.yul\":11839:11842   */\n      0x00\n        /* \"#utility.yul\":11862:11886   */\n      tag_281\n        /* \"#utility.yul\":11880:11885   */\n      dup3\n        /* \"#utility.yul\":11862:11886   */\n      tag_235\n      jump\t// in\n    tag_281:\n        /* \"#utility.yul\":11853:11886   */\n      swap2\n      pop\n        /* \"#utility.yul\":11908:11974   */\n      0xffffffffffffffffffffffffffffffffffffffffffffffffffffffffffffffff\n        /* \"#utility.yul\":11901:11906   */\n      dup3\n        /* \"#utility.yul\":11898:11975   */\n      eq\n        /* \"#utility.yul\":11895:11897   */\n      iszero\n      tag_282\n      jumpi\n        /* \"#utility.yul\":11978:11996   */\n      tag_283\n      tag_284\n      jump\t// in\n    tag_283:\n        /* \"#utility.yul\":11895:11897   */\n    tag_282:\n        /* \"#utility.yul\":12025:12026   */\n      0x01\n        /* \"#utility.yul\":12018:12023   */\n      dup3\n        /* \"#utility.yul\":12014:12027   */\n      add\n        /* \"#utility.yul\":12007:12027   */\n      swap1\n      pop\n        /* \"#utility.yul\":11843:12033   */\n      swap2\n      swap1\n      pop\n      jump\t// out\n        /* \"#utility.yul\":12039:12219   */\n    tag_284:\n        /* \"#utility.yul\":12087:12164   */\n      0x4e487b7100000000000000000000000000000000000000000000000000000000\n        /* \"#utility.yul\":12084:12085   */\n      0x00\n        /* \"#utility.yul\":12077:12165   */\n      mstore\n        /* \"#utility.yul\":12184:12188   */\n      0x11\n        /* \"#utility.yul\":12181:12182   */\n      0x04\n        /* \"#utility.yul\":12174:12189   */\n      mstore\n        /* \"#utility.yul\":12208:12212   */\n      0x24\n        /* \"#utility.yul\":12205:12206   */\n      0x00\n        /* \"#utility.yul\":12198:12213   */\n      revert\n        /* \"#utility.yul\":12225:12405   */\n    tag_275:\n        /* \"#utility.yul\":12273:12350   */\n      0x4e487b7100000000000000000000000000000000000000000000000000000000\n        /* \"#utility.yul\":12270:12271   */\n      0x00\n        /* \"#utility.yul\":12263:12351   */\n      mstore\n        /* \"#utility.yul\":12370:12374   */\n      0x22\n        /* \"#utility.yul\":12367:12368   */\n      0x04\n        /* \"#utility.yul\":12360:12375   */\n      mstore\n        /* \"#utility.yul\":12394:12398   */\n      0x24\n        /* \"#utility.yul\":12391:12392   */\n      0x00\n        /* \"#utility.yul\":12384:12399   */\n      revert\n        /* \"#utility.yul\":12411:12591   */\n    tag_255:\n        /* \"#utility.yul\":12459:12536   */\n      0x4e487b7100000000000000000000000000000000000000000000000000000000\n        /* \"#utility.yul\":12456:12457   */\n      0x00\n        /* \"#utility.yul\":12449:12537   */\n      mstore\n        /* \"#utility.yul\":12556:12560   */\n      0x41\n        /* \"#utility.yul\":12553:12554   */\n      0x04\n        /* \"#utility.yul\":12546:12561   */\n      mstore\n        /* \"#utility.yul\":12580:12584   */\n      0x24\n        /* \"#utility.yul\":12577:12578   */\n      0x00\n        /* \"#utility.yul\":12570:12585   */\n      revert\n        /* \"#utility.yul\":12597:12714   */\n    tag_150:\n        /* \"#utility.yul\":12706:12707   */\n      0x00\n        /* \"#utility.yul\":12703:12704   */\n      dup1\n        /* \"#utility.yul\":12696:12708   */\n      revert\n        /* \"#utility.yul\":12720:12837   */\n    tag_143:\n        /* \"#utility.yul\":12829:12830   */\n      0x00\n        /* \"#utility.yul\":12826:12827   */\n      dup1\n        /* \"#utility.yul\":12819:12831   */\n      revert\n        /* \"#utility.yul\":12843:12960   */\n    tag_158:\n        /* \"#utility.yul\":12952:12953   */\n      0x00\n        /* \"#utility.yul\":12949:12950   */\n      dup1\n        /* \"#utility.yul\":12942:12954   */\n      revert\n        /* \"#utility.yul\":12966:13083   */\n    tag_155:\n        /* \"#utility.yul\":13075:13076   */\n      0x00\n        /* \"#utility.yul\":13072:13073   */\n      dup1\n        /* \"#utility.yul\":13065:13077   */\n      revert\n        /* \"#utility.yul\":13089:13191   */\n    tag_212:\n        /* \"#utility.yul\":13130:13136   */\n      0x00\n        /* \"#utility.yul\":13181:13183   */\n      0x1f\n        /* \"#utility.yul\":13177:13184   */\n      not\n        /* \"#utility.yul\":13172:13174   */\n      0x1f\n        /* \"#utility.yul\":13165:13170   */\n      dup4\n        /* \"#utility.yul\":13161:13175   */\n      add\n        /* \"#utility.yul\":13157:13185   */\n      and\n        /* \"#utility.yul\":13147:13185   */\n      swap1\n      pop\n        /* \"#utility.yul\":13137:13191   */\n      swap2\n      swap1\n      pop\n      jump\t// out\n        /* \"#utility.yul\":13197:13358   */\n    tag_224:\n        /* \"#utility.yul\":13337:13350   */\n      0x4e6f7420616c6c6f776564000000000000000000000000000000000000000000\n        /* \"#utility.yul\":13333:13334   */\n      0x00\n        /* \"#utility.yul\":13325:13331   */\n      dup3\n        /* \"#utility.yul\":13321:13335   */\n      add\n        /* \"#utility.yul\":13314:13351   */\n      mstore\n        /* \"#utility.yul\":13303:13358   */\n      pop\n      jump\t// out\n    stop\n    data_f8cee5838de095b73bc0eb68505c82192a6e7ef8eb72dc52884288f7c470afa7 5573657220646f65736e6f7420657869737420212120526567697374657220616e642074727920616761696e202121\n\n    auxdata: 0xa264697066735822122094af125c9acb260632c1a5c0a2c94b4794c471f4e18f9cade1fcef18dfbc4a6264736f6c63430008060033\n}\n",
				"bytecode": {
					"linkReferences": {},
					"object": "608060405234801561001057600080fd5b5060008081905550611693806100276000396000f3fe608060405234801561001057600080fd5b50600436106100885760003560e01c8063b4bfc3a51161005b578063b4bfc3a514610129578063c127ae4114610159578063ebc3eee814610177578063ff3a9c7e1461019557610088565b8063126793231461008d57806358467dbc146100ab5780635a09007b146100db578063681f3e6d1461010b575b600080fd5b6100956101b3565b6040516100a2919061138b565b60405180910390f35b6100c560048036038101906100c09190610f69565b6101b9565b6040516100d29190611327565b60405180910390f35b6100f560048036038101906100f091906110b8565b6102f3565b6040516101029190611327565b60405180910390f35b610113610581565b6040516101209190611327565b60405180910390f35b610143600480360381019061013e9190610fe1565b610653565b6040516101509190611327565b60405180910390f35b6101616108c0565b60405161016e9190611327565b60405180910390f35b61017f610a62565b60405161018c919061130c565b60405180910390f35b61019d610acc565b6040516101aa9190611369565b60405180910390f35b60005481565b606060006101c5610581565b90506000600160003373ffffffffffffffffffffffffffffffffffffffff1673ffffffffffffffffffffffffffffffffffffffff1681526020019081526020016000206003018054610216906114a7565b80601f0160208091040260200160405190810160405280929190818152602001828054610242906114a7565b801561028f5780601f106102645761010080835404028352916020019161028f565b820191906000526020600020905b81548152906001019060200180831161027257829003601f168201915b50505050509050848051906020012082805190602001201480156102c0575083805190602001208180519060200120145b156102cf5784925050506102ed565b6040518060600160405280602f815260200161162f602f9139925050505b92915050565b606085600160003373ffffffffffffffffffffffffffffffffffffffff1673ffffffffffffffffffffffffffffffffffffffff168152602001908152602001600020600001908051906020019061034b929190610d84565b5084600160003373ffffffffffffffffffffffffffffffffffffffff1673ffffffffffffffffffffffffffffffffffffffff16815260200190815260200160002060010190805190602001906103a2929190610d84565b5033600160003373ffffffffffffffffffffffffffffffffffffffff1673ffffffffffffffffffffffffffffffffffffffff16815260200190815260200160002060050160006101000a81548173ffffffffffffffffffffffffffffffffffffffff021916908373ffffffffffffffffffffffffffffffffffffffff16021790555083600160003373ffffffffffffffffffffffffffffffffffffffff1673ffffffffffffffffffffffffffffffffffffffff168152602001908152602001600020600201908051906020019061047a929190610d84565b5082600160003373ffffffffffffffffffffffffffffffffffffffff1673ffffffffffffffffffffffffffffffffffffffff16815260200190815260200160002060030190805190602001906104d1929190610d84565b5081600160003373ffffffffffffffffffffffffffffffffffffffff1673ffffffffffffffffffffffffffffffffffffffff1681526020019081526020016000206004019080519060200190610528929190610d84565b5060008081548092919061053b9061150a565b91905055506040518060400160405280601781526020017f5375636365737366756c6c792052656769737465726564000000000000000000815250905095945050505050565b6060600160003373ffffffffffffffffffffffffffffffffffffffff1673ffffffffffffffffffffffffffffffffffffffff16815260200190815260200160002060020180546105d0906114a7565b80601f01602080910402602001604051908101604052809291908181526020018280546105fc906114a7565b80156106495780601f1061061e57610100808354040283529160200191610649565b820191906000526020600020905b81548152906001019060200180831161062c57829003601f168201915b5050505050905090565b6060600061065f610581565b511461087f5784600260003373ffffffffffffffffffffffffffffffffffffffff1673ffffffffffffffffffffffffffffffffffffffff16815260200190815260200160002060000190805190602001906106bb929190610d84565b5083600260003373ffffffffffffffffffffffffffffffffffffffff1673ffffffffffffffffffffffffffffffffffffffff1681526020019081526020016000206001019080519060200190610712929190610d84565b5082600260003373ffffffffffffffffffffffffffffffffffffffff1673ffffffffffffffffffffffffffffffffffffffff1681526020019081526020016000206002019080519060200190610769929190610d84565b5081600260003373ffffffffffffffffffffffffffffffffffffffff1673ffffffffffffffffffffffffffffffffffffffff16815260200190815260200160002060030190805190602001906107c0929190610d84565b506008600260003373ffffffffffffffffffffffffffffffffffffffff1673ffffffffffffffffffffffffffffffffffffffff16815260200190815260200160002060000190806001815401808255809150506001900390600052602060002001600090919091909150908054610836906114a7565b610841929190610e0a565b506040518060400160405280601a81526020017f50726f6a656374205361766564205375636365737366756c6c7900000000000081525090506108b8565b6040518060400160405280601481526020017f4572726f7220536176696e672050726f6a65637400000000000000000000000081525090505b949350505050565b6060600160003373ffffffffffffffffffffffffffffffffffffffff1673ffffffffffffffffffffffffffffffffffffffff16815260200190815260200160002060050160009054906101000a900473ffffffffffffffffffffffffffffffffffffffff1673ffffffffffffffffffffffffffffffffffffffff163373ffffffffffffffffffffffffffffffffffffffff1614610992576040517f08c379a000000000000000000000000000000000000000000000000000000000815260040161098990611349565b60405180910390fd5b600160003373ffffffffffffffffffffffffffffffffffffffff1673ffffffffffffffffffffffffffffffffffffffff16815260200190815260200160002060000180546109df906114a7565b80601f0160208091040260200160405190810160405280929190818152602001828054610a0b906114a7565b8015610a585780601f10610a2d57610100808354040283529160200191610a58565b820191906000526020600020905b815481529060010190602001808311610a3b57829003601f168201915b5050505050905090565b6000600160003373ffffffffffffffffffffffffffffffffffffffff1673ffffffffffffffffffffffffffffffffffffffff16815260200190815260200160002060050160009054906101000a900473ffffffffffffffffffffffffffffffffffffffff16905090565b610ad4610e97565b60036040518060a0016040529081600082018054610af1906114a7565b80601f0160208091040260200160405190810160405280929190818152602001828054610b1d906114a7565b8015610b6a5780601f10610b3f57610100808354040283529160200191610b6a565b820191906000526020600020905b815481529060010190602001808311610b4d57829003601f168201915b50505050508152602001600182018054610b83906114a7565b80601f0160208091040260200160405190810160405280929190818152602001828054610baf906114a7565b8015610bfc5780601f10610bd157610100808354040283529160200191610bfc565b820191906000526020600020905b815481529060010190602001808311610bdf57829003601f168201915b50505050508152602001600282018054610c15906114a7565b80601f0160208091040260200160405190810160405280929190818152602001828054610c41906114a7565b8015610c8e5780601f10610c6357610100808354040283529160200191610c8e565b820191906000526020600020905b815481529060010190602001808311610c7157829003601f168201915b50505050508152602001600382018054610ca7906114a7565b80601f0160208091040260200160405190810160405280929190818152602001828054610cd3906114a7565b8015610d205780601f10610cf557610100808354040283529160200191610d20565b820191906000526020600020905b815481529060010190602001808311610d0357829003601f168201915b505050505081526020016004820160009054906101000a900473ffffffffffffffffffffffffffffffffffffffff1673ffffffffffffffffffffffffffffffffffffffff1673ffffffffffffffffffffffffffffffffffffffff1681525050905090565b828054610d90906114a7565b90600052602060002090601f016020900481019282610db25760008555610df9565b82601f10610dcb57805160ff1916838001178555610df9565b82800160010185558215610df9579182015b82811115610df8578251825591602001919060010190610ddd565b5b509050610e069190610edc565b5090565b828054610e16906114a7565b90600052602060002090601f016020900481019282610e385760008555610e86565b82601f10610e495780548555610e86565b82800160010185558215610e8657600052602060002091601f016020900482015b82811115610e85578254825591600101919060010190610e6a565b5b509050610e939190610edc565b5090565b6040518060a0016040528060608152602001606081526020016060815260200160608152602001600073ffffffffffffffffffffffffffffffffffffffff1681525090565b5b80821115610ef5576000816000905550600101610edd565b5090565b6000610f0c610f07846113cb565b6113a6565b905082815260208101848484011115610f2857610f276115e5565b5b610f33848285611465565b509392505050565b600082601f830112610f5057610f4f6115e0565b5b8135610f60848260208601610ef9565b91505092915050565b60008060408385031215610f8057610f7f6115ef565b5b600083013567ffffffffffffffff811115610f9e57610f9d6115ea565b5b610faa85828601610f3b565b925050602083013567ffffffffffffffff811115610fcb57610fca6115ea565b5b610fd785828601610f3b565b9150509250929050565b60008060008060808587031215610ffb57610ffa6115ef565b5b600085013567ffffffffffffffff811115611019576110186115ea565b5b61102587828801610f3b565b945050602085013567ffffffffffffffff811115611046576110456115ea565b5b61105287828801610f3b565b935050604085013567ffffffffffffffff811115611073576110726115ea565b5b61107f87828801610f3b565b925050606085013567ffffffffffffffff8111156110a05761109f6115ea565b5b6110ac87828801610f3b565b91505092959194509250565b600080600080600060a086880312156110d4576110d36115ef565b5b600086013567ffffffffffffffff8111156110f2576110f16115ea565b5b6110fe88828901610f3b565b955050602086013567ffffffffffffffff81111561111f5761111e6115ea565b5b61112b88828901610f3b565b945050604086013567ffffffffffffffff81111561114c5761114b6115ea565b5b61115888828901610f3b565b935050606086013567ffffffffffffffff811115611179576111786115ea565b5b61118588828901610f3b565b925050608086013567ffffffffffffffff8111156111a6576111a56115ea565b5b6111b288828901610f3b565b9150509295509295909350565b6111c881611429565b82525050565b6111d781611429565b82525050565b60006111e8826113fc565b6111f28185611407565b9350611202818560208601611474565b61120b816115f4565b840191505092915050565b6000611221826113fc565b61122b8185611418565b935061123b818560208601611474565b611244816115f4565b840191505092915050565b600061125c600b83611418565b915061126782611605565b602082019050919050565b600060a083016000830151848203600086015261128f82826111dd565b915050602083015184820360208601526112a982826111dd565b915050604083015184820360408601526112c382826111dd565b915050606083015184820360608601526112dd82826111dd565b91505060808301516112f260808601826111bf565b508091505092915050565b6113068161145b565b82525050565b600060208201905061132160008301846111ce565b92915050565b600060208201905081810360008301526113418184611216565b905092915050565b600060208201905081810360008301526113628161124f565b9050919050565b600060208201905081810360008301526113838184611272565b905092915050565b60006020820190506113a060008301846112fd565b92915050565b60006113b06113c1565b90506113bc82826114d9565b919050565b6000604051905090565b600067ffffffffffffffff8211156113e6576113e56115b1565b5b6113ef826115f4565b9050602081019050919050565b600081519050919050565b600082825260208201905092915050565b600082825260208201905092915050565b60006114348261143b565b9050919050565b600073ffffffffffffffffffffffffffffffffffffffff82169050919050565b6000819050919050565b82818337600083830152505050565b60005b83811015611492578082015181840152602081019050611477565b838111156114a1576000848401525b50505050565b600060028204905060018216806114bf57607f821691505b602082108114156114d3576114d2611582565b5b50919050565b6114e2826115f4565b810181811067ffffffffffffffff82111715611501576115006115b1565b5b80604052505050565b60006115158261145b565b91507fffffffffffffffffffffffffffffffffffffffffffffffffffffffffffffffff82141561154857611547611553565b5b600182019050919050565b7f4e487b7100000000000000000000000000000000000000000000000000000000600052601160045260246000fd5b7f4e487b7100000000000000000000000000000000000000000000000000000000600052602260045260246000fd5b7f4e487b7100000000000000000000000000000000000000000000000000000000600052604160045260246000fd5b600080fd5b600080fd5b600080fd5b600080fd5b6000601f19601f8301169050919050565b7f4e6f7420616c6c6f77656400000000000000000000000000000000000000000060008201525056fe5573657220646f65736e6f7420657869737420212120526567697374657220616e642074727920616761696e202121a264697066735822122094af125c9acb260632c1a5c0a2c94b4794c471f4e18f9cade1fcef18dfbc4a6264736f6c63430008060033",
					"opcodes": "PUSH1 0x80 PUSH1 0x40 MSTORE CALLVALUE DUP1 ISZERO PUSH2 0x10 JUMPI PUSH1 0x0 DUP1 REVERT JUMPDEST POP PUSH1 0x0 DUP1 DUP2 SWAP1 SSTORE POP PUSH2 0x1693 DUP1 PUSH2 0x27 PUSH1 0x0 CODECOPY PUSH1 0x0 RETURN INVALID PUSH1 0x80 PUSH1 0x40 MSTORE CALLVALUE DUP1 ISZERO PUSH2 0x10 JUMPI PUSH1 0x0 DUP1 REVERT JUMPDEST POP PUSH1 0x4 CALLDATASIZE LT PUSH2 0x88 JUMPI PUSH1 0x0 CALLDATALOAD PUSH1 0xE0 SHR DUP1 PUSH4 0xB4BFC3A5 GT PUSH2 0x5B JUMPI DUP1 PUSH4 0xB4BFC3A5 EQ PUSH2 0x129 JUMPI DUP1 PUSH4 0xC127AE41 EQ PUSH2 0x159 JUMPI DUP1 PUSH4 0xEBC3EEE8 EQ PUSH2 0x177 JUMPI DUP1 PUSH4 0xFF3A9C7E EQ PUSH2 0x195 JUMPI PUSH2 0x88 JUMP JUMPDEST DUP1 PUSH4 0x12679323 EQ PUSH2 0x8D JUMPI DUP1 PUSH4 0x58467DBC EQ PUSH2 0xAB JUMPI DUP1 PUSH4 0x5A09007B EQ PUSH2 0xDB JUMPI DUP1 PUSH4 0x681F3E6D EQ PUSH2 0x10B JUMPI JUMPDEST PUSH1 0x0 DUP1 REVERT JUMPDEST PUSH2 0x95 PUSH2 0x1B3 JUMP JUMPDEST PUSH1 0x40 MLOAD PUSH2 0xA2 SWAP2 SWAP1 PUSH2 0x138B JUMP JUMPDEST PUSH1 0x40 MLOAD DUP1 SWAP2 SUB SWAP1 RETURN JUMPDEST PUSH2 0xC5 PUSH1 0x4 DUP1 CALLDATASIZE SUB DUP2 ADD SWAP1 PUSH2 0xC0 SWAP2 SWAP1 PUSH2 0xF69 JUMP JUMPDEST PUSH2 0x1B9 JUMP JUMPDEST PUSH1 0x40 MLOAD PUSH2 0xD2 SWAP2 SWAP1 PUSH2 0x1327 JUMP JUMPDEST PUSH1 0x40 MLOAD DUP1 SWAP2 SUB SWAP1 RETURN JUMPDEST PUSH2 0xF5 PUSH1 0x4 DUP1 CALLDATASIZE SUB DUP2 ADD SWAP1 PUSH2 0xF0 SWAP2 SWAP1 PUSH2 0x10B8 JUMP JUMPDEST PUSH2 0x2F3 JUMP JUMPDEST PUSH1 0x40 MLOAD PUSH2 0x102 SWAP2 SWAP1 PUSH2 0x1327 JUMP JUMPDEST PUSH1 0x40 MLOAD DUP1 SWAP2 SUB SWAP1 RETURN JUMPDEST PUSH2 0x113 PUSH2 0x581 JUMP JUMPDEST PUSH1 0x40 MLOAD PUSH2 0x120 SWAP2 SWAP1 PUSH2 0x1327 JUMP JUMPDEST PUSH1 0x40 MLOAD DUP1 SWAP2 SUB SWAP1 RETURN JUMPDEST PUSH2 0x143 PUSH1 0x4 DUP1 CALLDATASIZE SUB DUP2 ADD SWAP1 PUSH2 0x13E SWAP2 SWAP1 PUSH2 0xFE1 JUMP JUMPDEST PUSH2 0x653 JUMP JUMPDEST PUSH1 0x40 MLOAD PUSH2 0x150 SWAP2 SWAP1 PUSH2 0x1327 JUMP JUMPDEST PUSH1 0x40 MLOAD DUP1 SWAP2 SUB SWAP1 RETURN JUMPDEST PUSH2 0x161 PUSH2 0x8C0 JUMP JUMPDEST PUSH1 0x40 MLOAD PUSH2 0x16E SWAP2 SWAP1 PUSH2 0x1327 JUMP JUMPDEST PUSH1 0x40 MLOAD DUP1 SWAP2 SUB SWAP1 RETURN JUMPDEST PUSH2 0x17F PUSH2 0xA62 JUMP JUMPDEST PUSH1 0x40 MLOAD PUSH2 0x18C SWAP2 SWAP1 PUSH2 0x130C JUMP JUMPDEST PUSH1 0x40 MLOAD DUP1 SWAP2 SUB SWAP1 RETURN JUMPDEST PUSH2 0x19D PUSH2 0xACC JUMP JUMPDEST PUSH1 0x40 MLOAD PUSH2 0x1AA SWAP2 SWAP1 PUSH2 0x1369 JUMP JUMPDEST PUSH1 0x40 MLOAD DUP1 SWAP2 SUB SWAP1 RETURN JUMPDEST PUSH1 0x0 SLOAD DUP2 JUMP JUMPDEST PUSH1 0x60 PUSH1 0x0 PUSH2 0x1C5 PUSH2 0x581 JUMP JUMPDEST SWAP1 POP PUSH1 0x0 PUSH1 0x1 PUSH1 0x0 CALLER PUSH20 0xFFFFFFFFFFFFFFFFFFFFFFFFFFFFFFFFFFFFFFFF AND PUSH20 0xFFFFFFFFFFFFFFFFFFFFFFFFFFFFFFFFFFFFFFFF AND DUP2 MSTORE PUSH1 0x20 ADD SWAP1 DUP2 MSTORE PUSH1 0x20 ADD PUSH1 0x0 KECCAK256 PUSH1 0x3 ADD DUP1 SLOAD PUSH2 0x216 SWAP1 PUSH2 0x14A7 JUMP JUMPDEST DUP1 PUSH1 0x1F ADD PUSH1 0x20 DUP1 SWAP2 DIV MUL PUSH1 0x20 ADD PUSH1 0x40 MLOAD SWAP1 DUP2 ADD PUSH1 0x40 MSTORE DUP1 SWAP3 SWAP2 SWAP1 DUP2 DUP2 MSTORE PUSH1 0x20 ADD DUP3 DUP1 SLOAD PUSH2 0x242 SWAP1 PUSH2 0x14A7 JUMP JUMPDEST DUP1 ISZERO PUSH2 0x28F JUMPI DUP1 PUSH1 0x1F LT PUSH2 0x264 JUMPI PUSH2 0x100 DUP1 DUP4 SLOAD DIV MUL DUP4 MSTORE SWAP2 PUSH1 0x20 ADD SWAP2 PUSH2 0x28F JUMP JUMPDEST DUP3 ADD SWAP2 SWAP1 PUSH1 0x0 MSTORE PUSH1 0x20 PUSH1 0x0 KECCAK256 SWAP1 JUMPDEST DUP2 SLOAD DUP2 MSTORE SWAP1 PUSH1 0x1 ADD SWAP1 PUSH1 0x20 ADD DUP1 DUP4 GT PUSH2 0x272 JUMPI DUP3 SWAP1 SUB PUSH1 0x1F AND DUP3 ADD SWAP2 JUMPDEST POP POP POP POP POP SWAP1 POP DUP5 DUP1 MLOAD SWAP1 PUSH1 0x20 ADD KECCAK256 DUP3 DUP1 MLOAD SWAP1 PUSH1 0x20 ADD KECCAK256 EQ DUP1 ISZERO PUSH2 0x2C0 JUMPI POP DUP4 DUP1 MLOAD SWAP1 PUSH1 0x20 ADD KECCAK256 DUP2 DUP1 MLOAD SWAP1 PUSH1 0x20 ADD KECCAK256 EQ JUMPDEST ISZERO PUSH2 0x2CF JUMPI DUP5 SWAP3 POP POP POP PUSH2 0x2ED JUMP JUMPDEST PUSH1 0x40 MLOAD DUP1 PUSH1 0x60 ADD PUSH1 0x40 MSTORE DUP1 PUSH1 0x2F DUP2 MSTORE PUSH1 0x20 ADD PUSH2 0x162F PUSH1 0x2F SWAP2 CODECOPY SWAP3 POP POP POP JUMPDEST SWAP3 SWAP2 POP POP JUMP JUMPDEST PUSH1 0x60 DUP6 PUSH1 0x1 PUSH1 0x0 CALLER PUSH20 0xFFFFFFFFFFFFFFFFFFFFFFFFFFFFFFFFFFFFFFFF AND PUSH20 0xFFFFFFFFFFFFFFFFFFFFFFFFFFFFFFFFFFFFFFFF AND DUP2 MSTORE PUSH1 0x20 ADD SWAP1 DUP2 MSTORE PUSH1 0x20 ADD PUSH1 0x0 KECCAK256 PUSH1 0x0 ADD SWAP1 DUP1 MLOAD SWAP1 PUSH1 0x20 ADD SWAP1 PUSH2 0x34B SWAP3 SWAP2 SWAP1 PUSH2 0xD84 JUMP JUMPDEST POP DUP5 PUSH1 0x1 PUSH1 0x0 CALLER PUSH20 0xFFFFFFFFFFFFFFFFFFFFFFFFFFFFFFFFFFFFFFFF AND PUSH20 0xFFFFFFFFFFFFFFFFFFFFFFFFFFFFFFFFFFFFFFFF AND DUP2 MSTORE PUSH1 0x20 ADD SWAP1 DUP2 MSTORE PUSH1 0x20 ADD PUSH1 0x0 KECCAK256 PUSH1 0x1 ADD SWAP1 DUP1 MLOAD SWAP1 PUSH1 0x20 ADD SWAP1 PUSH2 0x3A2 SWAP3 SWAP2 SWAP1 PUSH2 0xD84 JUMP JUMPDEST POP CALLER PUSH1 0x1 PUSH1 0x0 CALLER PUSH20 0xFFFFFFFFFFFFFFFFFFFFFFFFFFFFFFFFFFFFFFFF AND PUSH20 0xFFFFFFFFFFFFFFFFFFFFFFFFFFFFFFFFFFFFFFFF AND DUP2 MSTORE PUSH1 0x20 ADD SWAP1 DUP2 MSTORE PUSH1 0x20 ADD PUSH1 0x0 KECCAK256 PUSH1 0x5 ADD PUSH1 0x0 PUSH2 0x100 EXP DUP2 SLOAD DUP2 PUSH20 0xFFFFFFFFFFFFFFFFFFFFFFFFFFFFFFFFFFFFFFFF MUL NOT AND SWAP1 DUP4 PUSH20 0xFFFFFFFFFFFFFFFFFFFFFFFFFFFFFFFFFFFFFFFF AND MUL OR SWAP1 SSTORE POP DUP4 PUSH1 0x1 PUSH1 0x0 CALLER PUSH20 0xFFFFFFFFFFFFFFFFFFFFFFFFFFFFFFFFFFFFFFFF AND PUSH20 0xFFFFFFFFFFFFFFFFFFFFFFFFFFFFFFFFFFFFFFFF AND DUP2 MSTORE PUSH1 0x20 ADD SWAP1 DUP2 MSTORE PUSH1 0x20 ADD PUSH1 0x0 KECCAK256 PUSH1 0x2 ADD SWAP1 DUP1 MLOAD SWAP1 PUSH1 0x20 ADD SWAP1 PUSH2 0x47A SWAP3 SWAP2 SWAP1 PUSH2 0xD84 JUMP JUMPDEST POP DUP3 PUSH1 0x1 PUSH1 0x0 CALLER PUSH20 0xFFFFFFFFFFFFFFFFFFFFFFFFFFFFFFFFFFFFFFFF AND PUSH20 0xFFFFFFFFFFFFFFFFFFFFFFFFFFFFFFFFFFFFFFFF AND DUP2 MSTORE PUSH1 0x20 ADD SWAP1 DUP2 MSTORE PUSH1 0x20 ADD PUSH1 0x0 KECCAK256 PUSH1 0x3 ADD SWAP1 DUP1 MLOAD SWAP1 PUSH1 0x20 ADD SWAP1 PUSH2 0x4D1 SWAP3 SWAP2 SWAP1 PUSH2 0xD84 JUMP JUMPDEST POP DUP2 PUSH1 0x1 PUSH1 0x0 CALLER PUSH20 0xFFFFFFFFFFFFFFFFFFFFFFFFFFFFFFFFFFFFFFFF AND PUSH20 0xFFFFFFFFFFFFFFFFFFFFFFFFFFFFFFFFFFFFFFFF AND DUP2 MSTORE PUSH1 0x20 ADD SWAP1 DUP2 MSTORE PUSH1 0x20 ADD PUSH1 0x0 KECCAK256 PUSH1 0x4 ADD SWAP1 DUP1 MLOAD SWAP1 PUSH1 0x20 ADD SWAP1 PUSH2 0x528 SWAP3 SWAP2 SWAP1 PUSH2 0xD84 JUMP JUMPDEST POP PUSH1 0x0 DUP1 DUP2 SLOAD DUP1 SWAP3 SWAP2 SWAP1 PUSH2 0x53B SWAP1 PUSH2 0x150A JUMP JUMPDEST SWAP2 SWAP1 POP SSTORE POP PUSH1 0x40 MLOAD DUP1 PUSH1 0x40 ADD PUSH1 0x40 MSTORE DUP1 PUSH1 0x17 DUP2 MSTORE PUSH1 0x20 ADD PUSH32 0x5375636365737366756C6C792052656769737465726564000000000000000000 DUP2 MSTORE POP SWAP1 POP SWAP6 SWAP5 POP POP POP POP POP JUMP JUMPDEST PUSH1 0x60 PUSH1 0x1 PUSH1 0x0 CALLER PUSH20 0xFFFFFFFFFFFFFFFFFFFFFFFFFFFFFFFFFFFFFFFF AND PUSH20 0xFFFFFFFFFFFFFFFFFFFFFFFFFFFFFFFFFFFFFFFF AND DUP2 MSTORE PUSH1 0x20 ADD SWAP1 DUP2 MSTORE PUSH1 0x20 ADD PUSH1 0x0 KECCAK256 PUSH1 0x2 ADD DUP1 SLOAD PUSH2 0x5D0 SWAP1 PUSH2 0x14A7 JUMP JUMPDEST DUP1 PUSH1 0x1F ADD PUSH1 0x20 DUP1 SWAP2 DIV MUL PUSH1 0x20 ADD PUSH1 0x40 MLOAD SWAP1 DUP2 ADD PUSH1 0x40 MSTORE DUP1 SWAP3 SWAP2 SWAP1 DUP2 DUP2 MSTORE PUSH1 0x20 ADD DUP3 DUP1 SLOAD PUSH2 0x5FC SWAP1 PUSH2 0x14A7 JUMP JUMPDEST DUP1 ISZERO PUSH2 0x649 JUMPI DUP1 PUSH1 0x1F LT PUSH2 0x61E JUMPI PUSH2 0x100 DUP1 DUP4 SLOAD DIV MUL DUP4 MSTORE SWAP2 PUSH1 0x20 ADD SWAP2 PUSH2 0x649 JUMP JUMPDEST DUP3 ADD SWAP2 SWAP1 PUSH1 0x0 MSTORE PUSH1 0x20 PUSH1 0x0 KECCAK256 SWAP1 JUMPDEST DUP2 SLOAD DUP2 MSTORE SWAP1 PUSH1 0x1 ADD SWAP1 PUSH1 0x20 ADD DUP1 DUP4 GT PUSH2 0x62C JUMPI DUP3 SWAP1 SUB PUSH1 0x1F AND DUP3 ADD SWAP2 JUMPDEST POP POP POP POP POP SWAP1 POP SWAP1 JUMP JUMPDEST PUSH1 0x60 PUSH1 0x0 PUSH2 0x65F PUSH2 0x581 JUMP JUMPDEST MLOAD EQ PUSH2 0x87F JUMPI DUP5 PUSH1 0x2 PUSH1 0x0 CALLER PUSH20 0xFFFFFFFFFFFFFFFFFFFFFFFFFFFFFFFFFFFFFFFF AND PUSH20 0xFFFFFFFFFFFFFFFFFFFFFFFFFFFFFFFFFFFFFFFF AND DUP2 MSTORE PUSH1 0x20 ADD SWAP1 DUP2 MSTORE PUSH1 0x20 ADD PUSH1 0x0 KECCAK256 PUSH1 0x0 ADD SWAP1 DUP1 MLOAD SWAP1 PUSH1 0x20 ADD SWAP1 PUSH2 0x6BB SWAP3 SWAP2 SWAP1 PUSH2 0xD84 JUMP JUMPDEST POP DUP4 PUSH1 0x2 PUSH1 0x0 CALLER PUSH20 0xFFFFFFFFFFFFFFFFFFFFFFFFFFFFFFFFFFFFFFFF AND PUSH20 0xFFFFFFFFFFFFFFFFFFFFFFFFFFFFFFFFFFFFFFFF AND DUP2 MSTORE PUSH1 0x20 ADD SWAP1 DUP2 MSTORE PUSH1 0x20 ADD PUSH1 0x0 KECCAK256 PUSH1 0x1 ADD SWAP1 DUP1 MLOAD SWAP1 PUSH1 0x20 ADD SWAP1 PUSH2 0x712 SWAP3 SWAP2 SWAP1 PUSH2 0xD84 JUMP JUMPDEST POP DUP3 PUSH1 0x2 PUSH1 0x0 CALLER PUSH20 0xFFFFFFFFFFFFFFFFFFFFFFFFFFFFFFFFFFFFFFFF AND PUSH20 0xFFFFFFFFFFFFFFFFFFFFFFFFFFFFFFFFFFFFFFFF AND DUP2 MSTORE PUSH1 0x20 ADD SWAP1 DUP2 MSTORE PUSH1 0x20 ADD PUSH1 0x0 KECCAK256 PUSH1 0x2 ADD SWAP1 DUP1 MLOAD SWAP1 PUSH1 0x20 ADD SWAP1 PUSH2 0x769 SWAP3 SWAP2 SWAP1 PUSH2 0xD84 JUMP JUMPDEST POP DUP2 PUSH1 0x2 PUSH1 0x0 CALLER PUSH20 0xFFFFFFFFFFFFFFFFFFFFFFFFFFFFFFFFFFFFFFFF AND PUSH20 0xFFFFFFFFFFFFFFFFFFFFFFFFFFFFFFFFFFFFFFFF AND DUP2 MSTORE PUSH1 0x20 ADD SWAP1 DUP2 MSTORE PUSH1 0x20 ADD PUSH1 0x0 KECCAK256 PUSH1 0x3 ADD SWAP1 DUP1 MLOAD SWAP1 PUSH1 0x20 ADD SWAP1 PUSH2 0x7C0 SWAP3 SWAP2 SWAP1 PUSH2 0xD84 JUMP JUMPDEST POP PUSH1 0x8 PUSH1 0x2 PUSH1 0x0 CALLER PUSH20 0xFFFFFFFFFFFFFFFFFFFFFFFFFFFFFFFFFFFFFFFF AND PUSH20 0xFFFFFFFFFFFFFFFFFFFFFFFFFFFFFFFFFFFFFFFF AND DUP2 MSTORE PUSH1 0x20 ADD SWAP1 DUP2 MSTORE PUSH1 0x20 ADD PUSH1 0x0 KECCAK256 PUSH1 0x0 ADD SWAP1 DUP1 PUSH1 0x1 DUP2 SLOAD ADD DUP1 DUP3 SSTORE DUP1 SWAP2 POP POP PUSH1 0x1 SWAP1 SUB SWAP1 PUSH1 0x0 MSTORE PUSH1 0x20 PUSH1 0x0 KECCAK256 ADD PUSH1 0x0 SWAP1 SWAP2 SWAP1 SWAP2 SWAP1 SWAP2 POP SWAP1 DUP1 SLOAD PUSH2 0x836 SWAP1 PUSH2 0x14A7 JUMP JUMPDEST PUSH2 0x841 SWAP3 SWAP2 SWAP1 PUSH2 0xE0A JUMP JUMPDEST POP PUSH1 0x40 MLOAD DUP1 PUSH1 0x40 ADD PUSH1 0x40 MSTORE DUP1 PUSH1 0x1A DUP2 MSTORE PUSH1 0x20 ADD PUSH32 0x50726F6A656374205361766564205375636365737366756C6C79000000000000 DUP2 MSTORE POP SWAP1 POP PUSH2 0x8B8 JUMP JUMPDEST PUSH1 0x40 MLOAD DUP1 PUSH1 0x40 ADD PUSH1 0x40 MSTORE DUP1 PUSH1 0x14 DUP2 MSTORE PUSH1 0x20 ADD PUSH32 0x4572726F7220536176696E672050726F6A656374000000000000000000000000 DUP2 MSTORE POP SWAP1 POP JUMPDEST SWAP5 SWAP4 POP POP POP POP JUMP JUMPDEST PUSH1 0x60 PUSH1 0x1 PUSH1 0x0 CALLER PUSH20 0xFFFFFFFFFFFFFFFFFFFFFFFFFFFFFFFFFFFFFFFF AND PUSH20 0xFFFFFFFFFFFFFFFFFFFFFFFFFFFFFFFFFFFFFFFF AND DUP2 MSTORE PUSH1 0x20 ADD SWAP1 DUP2 MSTORE PUSH1 0x20 ADD PUSH1 0x0 KECCAK256 PUSH1 0x5 ADD PUSH1 0x0 SWAP1 SLOAD SWAP1 PUSH2 0x100 EXP SWAP1 DIV PUSH20 0xFFFFFFFFFFFFFFFFFFFFFFFFFFFFFFFFFFFFFFFF AND PUSH20 0xFFFFFFFFFFFFFFFFFFFFFFFFFFFFFFFFFFFFFFFF AND CALLER PUSH20 0xFFFFFFFFFFFFFFFFFFFFFFFFFFFFFFFFFFFFFFFF AND EQ PUSH2 0x992 JUMPI PUSH1 0x40 MLOAD PUSH32 0x8C379A000000000000000000000000000000000000000000000000000000000 DUP2 MSTORE PUSH1 0x4 ADD PUSH2 0x989 SWAP1 PUSH2 0x1349 JUMP JUMPDEST PUSH1 0x40 MLOAD DUP1 SWAP2 SUB SWAP1 REVERT JUMPDEST PUSH1 0x1 PUSH1 0x0 CALLER PUSH20 0xFFFFFFFFFFFFFFFFFFFFFFFFFFFFFFFFFFFFFFFF AND PUSH20 0xFFFFFFFFFFFFFFFFFFFFFFFFFFFFFFFFFFFFFFFF AND DUP2 MSTORE PUSH1 0x20 ADD SWAP1 DUP2 MSTORE PUSH1 0x20 ADD PUSH1 0x0 KECCAK256 PUSH1 0x0 ADD DUP1 SLOAD PUSH2 0x9DF SWAP1 PUSH2 0x14A7 JUMP JUMPDEST DUP1 PUSH1 0x1F ADD PUSH1 0x20 DUP1 SWAP2 DIV MUL PUSH1 0x20 ADD PUSH1 0x40 MLOAD SWAP1 DUP2 ADD PUSH1 0x40 MSTORE DUP1 SWAP3 SWAP2 SWAP1 DUP2 DUP2 MSTORE PUSH1 0x20 ADD DUP3 DUP1 SLOAD PUSH2 0xA0B SWAP1 PUSH2 0x14A7 JUMP JUMPDEST DUP1 ISZERO PUSH2 0xA58 JUMPI DUP1 PUSH1 0x1F LT PUSH2 0xA2D JUMPI PUSH2 0x100 DUP1 DUP4 SLOAD DIV MUL DUP4 MSTORE SWAP2 PUSH1 0x20 ADD SWAP2 PUSH2 0xA58 JUMP JUMPDEST DUP3 ADD SWAP2 SWAP1 PUSH1 0x0 MSTORE PUSH1 0x20 PUSH1 0x0 KECCAK256 SWAP1 JUMPDEST DUP2 SLOAD DUP2 MSTORE SWAP1 PUSH1 0x1 ADD SWAP1 PUSH1 0x20 ADD DUP1 DUP4 GT PUSH2 0xA3B JUMPI DUP3 SWAP1 SUB PUSH1 0x1F AND DUP3 ADD SWAP2 JUMPDEST POP POP POP POP POP SWAP1 POP SWAP1 JUMP JUMPDEST PUSH1 0x0 PUSH1 0x1 PUSH1 0x0 CALLER PUSH20 0xFFFFFFFFFFFFFFFFFFFFFFFFFFFFFFFFFFFFFFFF AND PUSH20 0xFFFFFFFFFFFFFFFFFFFFFFFFFFFFFFFFFFFFFFFF AND DUP2 MSTORE PUSH1 0x20 ADD SWAP1 DUP2 MSTORE PUSH1 0x20 ADD PUSH1 0x0 KECCAK256 PUSH1 0x5 ADD PUSH1 0x0 SWAP1 SLOAD SWAP1 PUSH2 0x100 EXP SWAP1 DIV PUSH20 0xFFFFFFFFFFFFFFFFFFFFFFFFFFFFFFFFFFFFFFFF AND SWAP1 POP SWAP1 JUMP JUMPDEST PUSH2 0xAD4 PUSH2 0xE97 JUMP JUMPDEST PUSH1 0x3 PUSH1 0x40 MLOAD DUP1 PUSH1 0xA0 ADD PUSH1 0x40 MSTORE SWAP1 DUP2 PUSH1 0x0 DUP3 ADD DUP1 SLOAD PUSH2 0xAF1 SWAP1 PUSH2 0x14A7 JUMP JUMPDEST DUP1 PUSH1 0x1F ADD PUSH1 0x20 DUP1 SWAP2 DIV MUL PUSH1 0x20 ADD PUSH1 0x40 MLOAD SWAP1 DUP2 ADD PUSH1 0x40 MSTORE DUP1 SWAP3 SWAP2 SWAP1 DUP2 DUP2 MSTORE PUSH1 0x20 ADD DUP3 DUP1 SLOAD PUSH2 0xB1D SWAP1 PUSH2 0x14A7 JUMP JUMPDEST DUP1 ISZERO PUSH2 0xB6A JUMPI DUP1 PUSH1 0x1F LT PUSH2 0xB3F JUMPI PUSH2 0x100 DUP1 DUP4 SLOAD DIV MUL DUP4 MSTORE SWAP2 PUSH1 0x20 ADD SWAP2 PUSH2 0xB6A JUMP JUMPDEST DUP3 ADD SWAP2 SWAP1 PUSH1 0x0 MSTORE PUSH1 0x20 PUSH1 0x0 KECCAK256 SWAP1 JUMPDEST DUP2 SLOAD DUP2 MSTORE SWAP1 PUSH1 0x1 ADD SWAP1 PUSH1 0x20 ADD DUP1 DUP4 GT PUSH2 0xB4D JUMPI DUP3 SWAP1 SUB PUSH1 0x1F AND DUP3 ADD SWAP2 JUMPDEST POP POP POP POP POP DUP2 MSTORE PUSH1 0x20 ADD PUSH1 0x1 DUP3 ADD DUP1 SLOAD PUSH2 0xB83 SWAP1 PUSH2 0x14A7 JUMP JUMPDEST DUP1 PUSH1 0x1F ADD PUSH1 0x20 DUP1 SWAP2 DIV MUL PUSH1 0x20 ADD PUSH1 0x40 MLOAD SWAP1 DUP2 ADD PUSH1 0x40 MSTORE DUP1 SWAP3 SWAP2 SWAP1 DUP2 DUP2 MSTORE PUSH1 0x20 ADD DUP3 DUP1 SLOAD PUSH2 0xBAF SWAP1 PUSH2 0x14A7 JUMP JUMPDEST DUP1 ISZERO PUSH2 0xBFC JUMPI DUP1 PUSH1 0x1F LT PUSH2 0xBD1 JUMPI PUSH2 0x100 DUP1 DUP4 SLOAD DIV MUL DUP4 MSTORE SWAP2 PUSH1 0x20 ADD SWAP2 PUSH2 0xBFC JUMP JUMPDEST DUP3 ADD SWAP2 SWAP1 PUSH1 0x0 MSTORE PUSH1 0x20 PUSH1 0x0 KECCAK256 SWAP1 JUMPDEST DUP2 SLOAD DUP2 MSTORE SWAP1 PUSH1 0x1 ADD SWAP1 PUSH1 0x20 ADD DUP1 DUP4 GT PUSH2 0xBDF JUMPI DUP3 SWAP1 SUB PUSH1 0x1F AND DUP3 ADD SWAP2 JUMPDEST POP POP POP POP POP DUP2 MSTORE PUSH1 0x20 ADD PUSH1 0x2 DUP3 ADD DUP1 SLOAD PUSH2 0xC15 SWAP1 PUSH2 0x14A7 JUMP JUMPDEST DUP1 PUSH1 0x1F ADD PUSH1 0x20 DUP1 SWAP2 DIV MUL PUSH1 0x20 ADD PUSH1 0x40 MLOAD SWAP1 DUP2 ADD PUSH1 0x40 MSTORE DUP1 SWAP3 SWAP2 SWAP1 DUP2 DUP2 MSTORE PUSH1 0x20 ADD DUP3 DUP1 SLOAD PUSH2 0xC41 SWAP1 PUSH2 0x14A7 JUMP JUMPDEST DUP1 ISZERO PUSH2 0xC8E JUMPI DUP1 PUSH1 0x1F LT PUSH2 0xC63 JUMPI PUSH2 0x100 DUP1 DUP4 SLOAD DIV MUL DUP4 MSTORE SWAP2 PUSH1 0x20 ADD SWAP2 PUSH2 0xC8E JUMP JUMPDEST DUP3 ADD SWAP2 SWAP1 PUSH1 0x0 MSTORE PUSH1 0x20 PUSH1 0x0 KECCAK256 SWAP1 JUMPDEST DUP2 SLOAD DUP2 MSTORE SWAP1 PUSH1 0x1 ADD SWAP1 PUSH1 0x20 ADD DUP1 DUP4 GT PUSH2 0xC71 JUMPI DUP3 SWAP1 SUB PUSH1 0x1F AND DUP3 ADD SWAP2 JUMPDEST POP POP POP POP POP DUP2 MSTORE PUSH1 0x20 ADD PUSH1 0x3 DUP3 ADD DUP1 SLOAD PUSH2 0xCA7 SWAP1 PUSH2 0x14A7 JUMP JUMPDEST DUP1 PUSH1 0x1F ADD PUSH1 0x20 DUP1 SWAP2 DIV MUL PUSH1 0x20 ADD PUSH1 0x40 MLOAD SWAP1 DUP2 ADD PUSH1 0x40 MSTORE DUP1 SWAP3 SWAP2 SWAP1 DUP2 DUP2 MSTORE PUSH1 0x20 ADD DUP3 DUP1 SLOAD PUSH2 0xCD3 SWAP1 PUSH2 0x14A7 JUMP JUMPDEST DUP1 ISZERO PUSH2 0xD20 JUMPI DUP1 PUSH1 0x1F LT PUSH2 0xCF5 JUMPI PUSH2 0x100 DUP1 DUP4 SLOAD DIV MUL DUP4 MSTORE SWAP2 PUSH1 0x20 ADD SWAP2 PUSH2 0xD20 JUMP JUMPDEST DUP3 ADD SWAP2 SWAP1 PUSH1 0x0 MSTORE PUSH1 0x20 PUSH1 0x0 KECCAK256 SWAP1 JUMPDEST DUP2 SLOAD DUP2 MSTORE SWAP1 PUSH1 0x1 ADD SWAP1 PUSH1 0x20 ADD DUP1 DUP4 GT PUSH2 0xD03 JUMPI DUP3 SWAP1 SUB PUSH1 0x1F AND DUP3 ADD SWAP2 JUMPDEST POP POP POP POP POP DUP2 MSTORE PUSH1 0x20 ADD PUSH1 0x4 DUP3 ADD PUSH1 0x0 SWAP1 SLOAD SWAP1 PUSH2 0x100 EXP SWAP1 DIV PUSH20 0xFFFFFFFFFFFFFFFFFFFFFFFFFFFFFFFFFFFFFFFF AND PUSH20 0xFFFFFFFFFFFFFFFFFFFFFFFFFFFFFFFFFFFFFFFF AND PUSH20 0xFFFFFFFFFFFFFFFFFFFFFFFFFFFFFFFFFFFFFFFF AND DUP2 MSTORE POP POP SWAP1 POP SWAP1 JUMP JUMPDEST DUP3 DUP1 SLOAD PUSH2 0xD90 SWAP1 PUSH2 0x14A7 JUMP JUMPDEST SWAP1 PUSH1 0x0 MSTORE PUSH1 0x20 PUSH1 0x0 KECCAK256 SWAP1 PUSH1 0x1F ADD PUSH1 0x20 SWAP1 DIV DUP2 ADD SWAP3 DUP3 PUSH2 0xDB2 JUMPI PUSH1 0x0 DUP6 SSTORE PUSH2 0xDF9 JUMP JUMPDEST DUP3 PUSH1 0x1F LT PUSH2 0xDCB JUMPI DUP1 MLOAD PUSH1 0xFF NOT AND DUP4 DUP1 ADD OR DUP6 SSTORE PUSH2 0xDF9 JUMP JUMPDEST DUP3 DUP1 ADD PUSH1 0x1 ADD DUP6 SSTORE DUP3 ISZERO PUSH2 0xDF9 JUMPI SWAP2 DUP3 ADD JUMPDEST DUP3 DUP2 GT ISZERO PUSH2 0xDF8 JUMPI DUP3 MLOAD DUP3 SSTORE SWAP2 PUSH1 0x20 ADD SWAP2 SWAP1 PUSH1 0x1 ADD SWAP1 PUSH2 0xDDD JUMP JUMPDEST JUMPDEST POP SWAP1 POP PUSH2 0xE06 SWAP2 SWAP1 PUSH2 0xEDC JUMP JUMPDEST POP SWAP1 JUMP JUMPDEST DUP3 DUP1 SLOAD PUSH2 0xE16 SWAP1 PUSH2 0x14A7 JUMP JUMPDEST SWAP1 PUSH1 0x0 MSTORE PUSH1 0x20 PUSH1 0x0 KECCAK256 SWAP1 PUSH1 0x1F ADD PUSH1 0x20 SWAP1 DIV DUP2 ADD SWAP3 DUP3 PUSH2 0xE38 JUMPI PUSH1 0x0 DUP6 SSTORE PUSH2 0xE86 JUMP JUMPDEST DUP3 PUSH1 0x1F LT PUSH2 0xE49 JUMPI DUP1 SLOAD DUP6 SSTORE PUSH2 0xE86 JUMP JUMPDEST DUP3 DUP1 ADD PUSH1 0x1 ADD DUP6 SSTORE DUP3 ISZERO PUSH2 0xE86 JUMPI PUSH1 0x0 MSTORE PUSH1 0x20 PUSH1 0x0 KECCAK256 SWAP2 PUSH1 0x1F ADD PUSH1 0x20 SWAP1 DIV DUP3 ADD JUMPDEST DUP3 DUP2 GT ISZERO PUSH2 0xE85 JUMPI DUP3 SLOAD DUP3 SSTORE SWAP2 PUSH1 0x1 ADD SWAP2 SWAP1 PUSH1 0x1 ADD SWAP1 PUSH2 0xE6A JUMP JUMPDEST JUMPDEST POP SWAP1 POP PUSH2 0xE93 SWAP2 SWAP1 PUSH2 0xEDC JUMP JUMPDEST POP SWAP1 JUMP JUMPDEST PUSH1 0x40 MLOAD DUP1 PUSH1 0xA0 ADD PUSH1 0x40 MSTORE DUP1 PUSH1 0x60 DUP2 MSTORE PUSH1 0x20 ADD PUSH1 0x60 DUP2 MSTORE PUSH1 0x20 ADD PUSH1 0x60 DUP2 MSTORE PUSH1 0x20 ADD PUSH1 0x60 DUP2 MSTORE PUSH1 0x20 ADD PUSH1 0x0 PUSH20 0xFFFFFFFFFFFFFFFFFFFFFFFFFFFFFFFFFFFFFFFF AND DUP2 MSTORE POP SWAP1 JUMP JUMPDEST JUMPDEST DUP1 DUP3 GT ISZERO PUSH2 0xEF5 JUMPI PUSH1 0x0 DUP2 PUSH1 0x0 SWAP1 SSTORE POP PUSH1 0x1 ADD PUSH2 0xEDD JUMP JUMPDEST POP SWAP1 JUMP JUMPDEST PUSH1 0x0 PUSH2 0xF0C PUSH2 0xF07 DUP5 PUSH2 0x13CB JUMP JUMPDEST PUSH2 0x13A6 JUMP JUMPDEST SWAP1 POP DUP3 DUP2 MSTORE PUSH1 0x20 DUP2 ADD DUP5 DUP5 DUP5 ADD GT ISZERO PUSH2 0xF28 JUMPI PUSH2 0xF27 PUSH2 0x15E5 JUMP JUMPDEST JUMPDEST PUSH2 0xF33 DUP5 DUP3 DUP6 PUSH2 0x1465 JUMP JUMPDEST POP SWAP4 SWAP3 POP POP POP JUMP JUMPDEST PUSH1 0x0 DUP3 PUSH1 0x1F DUP4 ADD SLT PUSH2 0xF50 JUMPI PUSH2 0xF4F PUSH2 0x15E0 JUMP JUMPDEST JUMPDEST DUP2 CALLDATALOAD PUSH2 0xF60 DUP5 DUP3 PUSH1 0x20 DUP7 ADD PUSH2 0xEF9 JUMP JUMPDEST SWAP2 POP POP SWAP3 SWAP2 POP POP JUMP JUMPDEST PUSH1 0x0 DUP1 PUSH1 0x40 DUP4 DUP6 SUB SLT ISZERO PUSH2 0xF80 JUMPI PUSH2 0xF7F PUSH2 0x15EF JUMP JUMPDEST JUMPDEST PUSH1 0x0 DUP4 ADD CALLDATALOAD PUSH8 0xFFFFFFFFFFFFFFFF DUP2 GT ISZERO PUSH2 0xF9E JUMPI PUSH2 0xF9D PUSH2 0x15EA JUMP JUMPDEST JUMPDEST PUSH2 0xFAA DUP6 DUP3 DUP7 ADD PUSH2 0xF3B JUMP JUMPDEST SWAP3 POP POP PUSH1 0x20 DUP4 ADD CALLDATALOAD PUSH8 0xFFFFFFFFFFFFFFFF DUP2 GT ISZERO PUSH2 0xFCB JUMPI PUSH2 0xFCA PUSH2 0x15EA JUMP JUMPDEST JUMPDEST PUSH2 0xFD7 DUP6 DUP3 DUP7 ADD PUSH2 0xF3B JUMP JUMPDEST SWAP2 POP POP SWAP3 POP SWAP3 SWAP1 POP JUMP JUMPDEST PUSH1 0x0 DUP1 PUSH1 0x0 DUP1 PUSH1 0x80 DUP6 DUP8 SUB SLT ISZERO PUSH2 0xFFB JUMPI PUSH2 0xFFA PUSH2 0x15EF JUMP JUMPDEST JUMPDEST PUSH1 0x0 DUP6 ADD CALLDATALOAD PUSH8 0xFFFFFFFFFFFFFFFF DUP2 GT ISZERO PUSH2 0x1019 JUMPI PUSH2 0x1018 PUSH2 0x15EA JUMP JUMPDEST JUMPDEST PUSH2 0x1025 DUP8 DUP3 DUP9 ADD PUSH2 0xF3B JUMP JUMPDEST SWAP5 POP POP PUSH1 0x20 DUP6 ADD CALLDATALOAD PUSH8 0xFFFFFFFFFFFFFFFF DUP2 GT ISZERO PUSH2 0x1046 JUMPI PUSH2 0x1045 PUSH2 0x15EA JUMP JUMPDEST JUMPDEST PUSH2 0x1052 DUP8 DUP3 DUP9 ADD PUSH2 0xF3B JUMP JUMPDEST SWAP4 POP POP PUSH1 0x40 DUP6 ADD CALLDATALOAD PUSH8 0xFFFFFFFFFFFFFFFF DUP2 GT ISZERO PUSH2 0x1073 JUMPI PUSH2 0x1072 PUSH2 0x15EA JUMP JUMPDEST JUMPDEST PUSH2 0x107F DUP8 DUP3 DUP9 ADD PUSH2 0xF3B JUMP JUMPDEST SWAP3 POP POP PUSH1 0x60 DUP6 ADD CALLDATALOAD PUSH8 0xFFFFFFFFFFFFFFFF DUP2 GT ISZERO PUSH2 0x10A0 JUMPI PUSH2 0x109F PUSH2 0x15EA JUMP JUMPDEST JUMPDEST PUSH2 0x10AC DUP8 DUP3 DUP9 ADD PUSH2 0xF3B JUMP JUMPDEST SWAP2 POP POP SWAP3 SWAP6 SWAP2 SWAP5 POP SWAP3 POP JUMP JUMPDEST PUSH1 0x0 DUP1 PUSH1 0x0 DUP1 PUSH1 0x0 PUSH1 0xA0 DUP7 DUP9 SUB SLT ISZERO PUSH2 0x10D4 JUMPI PUSH2 0x10D3 PUSH2 0x15EF JUMP JUMPDEST JUMPDEST PUSH1 0x0 DUP7 ADD CALLDATALOAD PUSH8 0xFFFFFFFFFFFFFFFF DUP2 GT ISZERO PUSH2 0x10F2 JUMPI PUSH2 0x10F1 PUSH2 0x15EA JUMP JUMPDEST JUMPDEST PUSH2 0x10FE DUP9 DUP3 DUP10 ADD PUSH2 0xF3B JUMP JUMPDEST SWAP6 POP POP PUSH1 0x20 DUP7 ADD CALLDATALOAD PUSH8 0xFFFFFFFFFFFFFFFF DUP2 GT ISZERO PUSH2 0x111F JUMPI PUSH2 0x111E PUSH2 0x15EA JUMP JUMPDEST JUMPDEST PUSH2 0x112B DUP9 DUP3 DUP10 ADD PUSH2 0xF3B JUMP JUMPDEST SWAP5 POP POP PUSH1 0x40 DUP7 ADD CALLDATALOAD PUSH8 0xFFFFFFFFFFFFFFFF DUP2 GT ISZERO PUSH2 0x114C JUMPI PUSH2 0x114B PUSH2 0x15EA JUMP JUMPDEST JUMPDEST PUSH2 0x1158 DUP9 DUP3 DUP10 ADD PUSH2 0xF3B JUMP JUMPDEST SWAP4 POP POP PUSH1 0x60 DUP7 ADD CALLDATALOAD PUSH8 0xFFFFFFFFFFFFFFFF DUP2 GT ISZERO PUSH2 0x1179 JUMPI PUSH2 0x1178 PUSH2 0x15EA JUMP JUMPDEST JUMPDEST PUSH2 0x1185 DUP9 DUP3 DUP10 ADD PUSH2 0xF3B JUMP JUMPDEST SWAP3 POP POP PUSH1 0x80 DUP7 ADD CALLDATALOAD PUSH8 0xFFFFFFFFFFFFFFFF DUP2 GT ISZERO PUSH2 0x11A6 JUMPI PUSH2 0x11A5 PUSH2 0x15EA JUMP JUMPDEST JUMPDEST PUSH2 0x11B2 DUP9 DUP3 DUP10 ADD PUSH2 0xF3B JUMP JUMPDEST SWAP2 POP POP SWAP3 SWAP6 POP SWAP3 SWAP6 SWAP1 SWAP4 POP JUMP JUMPDEST PUSH2 0x11C8 DUP2 PUSH2 0x1429 JUMP JUMPDEST DUP3 MSTORE POP POP JUMP JUMPDEST PUSH2 0x11D7 DUP2 PUSH2 0x1429 JUMP JUMPDEST DUP3 MSTORE POP POP JUMP JUMPDEST PUSH1 0x0 PUSH2 0x11E8 DUP3 PUSH2 0x13FC JUMP JUMPDEST PUSH2 0x11F2 DUP2 DUP6 PUSH2 0x1407 JUMP JUMPDEST SWAP4 POP PUSH2 0x1202 DUP2 DUP6 PUSH1 0x20 DUP7 ADD PUSH2 0x1474 JUMP JUMPDEST PUSH2 0x120B DUP2 PUSH2 0x15F4 JUMP JUMPDEST DUP5 ADD SWAP2 POP POP SWAP3 SWAP2 POP POP JUMP JUMPDEST PUSH1 0x0 PUSH2 0x1221 DUP3 PUSH2 0x13FC JUMP JUMPDEST PUSH2 0x122B DUP2 DUP6 PUSH2 0x1418 JUMP JUMPDEST SWAP4 POP PUSH2 0x123B DUP2 DUP6 PUSH1 0x20 DUP7 ADD PUSH2 0x1474 JUMP JUMPDEST PUSH2 0x1244 DUP2 PUSH2 0x15F4 JUMP JUMPDEST DUP5 ADD SWAP2 POP POP SWAP3 SWAP2 POP POP JUMP JUMPDEST PUSH1 0x0 PUSH2 0x125C PUSH1 0xB DUP4 PUSH2 0x1418 JUMP JUMPDEST SWAP2 POP PUSH2 0x1267 DUP3 PUSH2 0x1605 JUMP JUMPDEST PUSH1 0x20 DUP3 ADD SWAP1 POP SWAP2 SWAP1 POP JUMP JUMPDEST PUSH1 0x0 PUSH1 0xA0 DUP4 ADD PUSH1 0x0 DUP4 ADD MLOAD DUP5 DUP3 SUB PUSH1 0x0 DUP7 ADD MSTORE PUSH2 0x128F DUP3 DUP3 PUSH2 0x11DD JUMP JUMPDEST SWAP2 POP POP PUSH1 0x20 DUP4 ADD MLOAD DUP5 DUP3 SUB PUSH1 0x20 DUP7 ADD MSTORE PUSH2 0x12A9 DUP3 DUP3 PUSH2 0x11DD JUMP JUMPDEST SWAP2 POP POP PUSH1 0x40 DUP4 ADD MLOAD DUP5 DUP3 SUB PUSH1 0x40 DUP7 ADD MSTORE PUSH2 0x12C3 DUP3 DUP3 PUSH2 0x11DD JUMP JUMPDEST SWAP2 POP POP PUSH1 0x60 DUP4 ADD MLOAD DUP5 DUP3 SUB PUSH1 0x60 DUP7 ADD MSTORE PUSH2 0x12DD DUP3 DUP3 PUSH2 0x11DD JUMP JUMPDEST SWAP2 POP POP PUSH1 0x80 DUP4 ADD MLOAD PUSH2 0x12F2 PUSH1 0x80 DUP7 ADD DUP3 PUSH2 0x11BF JUMP JUMPDEST POP DUP1 SWAP2 POP POP SWAP3 SWAP2 POP POP JUMP JUMPDEST PUSH2 0x1306 DUP2 PUSH2 0x145B JUMP JUMPDEST DUP3 MSTORE POP POP JUMP JUMPDEST PUSH1 0x0 PUSH1 0x20 DUP3 ADD SWAP1 POP PUSH2 0x1321 PUSH1 0x0 DUP4 ADD DUP5 PUSH2 0x11CE JUMP JUMPDEST SWAP3 SWAP2 POP POP JUMP JUMPDEST PUSH1 0x0 PUSH1 0x20 DUP3 ADD SWAP1 POP DUP2 DUP2 SUB PUSH1 0x0 DUP4 ADD MSTORE PUSH2 0x1341 DUP2 DUP5 PUSH2 0x1216 JUMP JUMPDEST SWAP1 POP SWAP3 SWAP2 POP POP JUMP JUMPDEST PUSH1 0x0 PUSH1 0x20 DUP3 ADD SWAP1 POP DUP2 DUP2 SUB PUSH1 0x0 DUP4 ADD MSTORE PUSH2 0x1362 DUP2 PUSH2 0x124F JUMP JUMPDEST SWAP1 POP SWAP2 SWAP1 POP JUMP JUMPDEST PUSH1 0x0 PUSH1 0x20 DUP3 ADD SWAP1 POP DUP2 DUP2 SUB PUSH1 0x0 DUP4 ADD MSTORE PUSH2 0x1383 DUP2 DUP5 PUSH2 0x1272 JUMP JUMPDEST SWAP1 POP SWAP3 SWAP2 POP POP JUMP JUMPDEST PUSH1 0x0 PUSH1 0x20 DUP3 ADD SWAP1 POP PUSH2 0x13A0 PUSH1 0x0 DUP4 ADD DUP5 PUSH2 0x12FD JUMP JUMPDEST SWAP3 SWAP2 POP POP JUMP JUMPDEST PUSH1 0x0 PUSH2 0x13B0 PUSH2 0x13C1 JUMP JUMPDEST SWAP1 POP PUSH2 0x13BC DUP3 DUP3 PUSH2 0x14D9 JUMP JUMPDEST SWAP2 SWAP1 POP JUMP JUMPDEST PUSH1 0x0 PUSH1 0x40 MLOAD SWAP1 POP SWAP1 JUMP JUMPDEST PUSH1 0x0 PUSH8 0xFFFFFFFFFFFFFFFF DUP3 GT ISZERO PUSH2 0x13E6 JUMPI PUSH2 0x13E5 PUSH2 0x15B1 JUMP JUMPDEST JUMPDEST PUSH2 0x13EF DUP3 PUSH2 0x15F4 JUMP JUMPDEST SWAP1 POP PUSH1 0x20 DUP2 ADD SWAP1 POP SWAP2 SWAP1 POP JUMP JUMPDEST PUSH1 0x0 DUP2 MLOAD SWAP1 POP SWAP2 SWAP1 POP JUMP JUMPDEST PUSH1 0x0 DUP3 DUP3 MSTORE PUSH1 0x20 DUP3 ADD SWAP1 POP SWAP3 SWAP2 POP POP JUMP JUMPDEST PUSH1 0x0 DUP3 DUP3 MSTORE PUSH1 0x20 DUP3 ADD SWAP1 POP SWAP3 SWAP2 POP POP JUMP JUMPDEST PUSH1 0x0 PUSH2 0x1434 DUP3 PUSH2 0x143B JUMP JUMPDEST SWAP1 POP SWAP2 SWAP1 POP JUMP JUMPDEST PUSH1 0x0 PUSH20 0xFFFFFFFFFFFFFFFFFFFFFFFFFFFFFFFFFFFFFFFF DUP3 AND SWAP1 POP SWAP2 SWAP1 POP JUMP JUMPDEST PUSH1 0x0 DUP2 SWAP1 POP SWAP2 SWAP1 POP JUMP JUMPDEST DUP3 DUP2 DUP4 CALLDATACOPY PUSH1 0x0 DUP4 DUP4 ADD MSTORE POP POP POP JUMP JUMPDEST PUSH1 0x0 JUMPDEST DUP4 DUP2 LT ISZERO PUSH2 0x1492 JUMPI DUP1 DUP3 ADD MLOAD DUP2 DUP5 ADD MSTORE PUSH1 0x20 DUP2 ADD SWAP1 POP PUSH2 0x1477 JUMP JUMPDEST DUP4 DUP2 GT ISZERO PUSH2 0x14A1 JUMPI PUSH1 0x0 DUP5 DUP5 ADD MSTORE JUMPDEST POP POP POP POP JUMP JUMPDEST PUSH1 0x0 PUSH1 0x2 DUP3 DIV SWAP1 POP PUSH1 0x1 DUP3 AND DUP1 PUSH2 0x14BF JUMPI PUSH1 0x7F DUP3 AND SWAP2 POP JUMPDEST PUSH1 0x20 DUP3 LT DUP2 EQ ISZERO PUSH2 0x14D3 JUMPI PUSH2 0x14D2 PUSH2 0x1582 JUMP JUMPDEST JUMPDEST POP SWAP2 SWAP1 POP JUMP JUMPDEST PUSH2 0x14E2 DUP3 PUSH2 0x15F4 JUMP JUMPDEST DUP2 ADD DUP2 DUP2 LT PUSH8 0xFFFFFFFFFFFFFFFF DUP3 GT OR ISZERO PUSH2 0x1501 JUMPI PUSH2 0x1500 PUSH2 0x15B1 JUMP JUMPDEST JUMPDEST DUP1 PUSH1 0x40 MSTORE POP POP POP JUMP JUMPDEST PUSH1 0x0 PUSH2 0x1515 DUP3 PUSH2 0x145B JUMP JUMPDEST SWAP2 POP PUSH32 0xFFFFFFFFFFFFFFFFFFFFFFFFFFFFFFFFFFFFFFFFFFFFFFFFFFFFFFFFFFFFFFFF DUP3 EQ ISZERO PUSH2 0x1548 JUMPI PUSH2 0x1547 PUSH2 0x1553 JUMP JUMPDEST JUMPDEST PUSH1 0x1 DUP3 ADD SWAP1 POP SWAP2 SWAP1 POP JUMP JUMPDEST PUSH32 0x4E487B7100000000000000000000000000000000000000000000000000000000 PUSH1 0x0 MSTORE PUSH1 0x11 PUSH1 0x4 MSTORE PUSH1 0x24 PUSH1 0x0 REVERT JUMPDEST PUSH32 0x4E487B7100000000000000000000000000000000000000000000000000000000 PUSH1 0x0 MSTORE PUSH1 0x22 PUSH1 0x4 MSTORE PUSH1 0x24 PUSH1 0x0 REVERT JUMPDEST PUSH32 0x4E487B7100000000000000000000000000000000000000000000000000000000 PUSH1 0x0 MSTORE PUSH1 0x41 PUSH1 0x4 MSTORE PUSH1 0x24 PUSH1 0x0 REVERT JUMPDEST PUSH1 0x0 DUP1 REVERT JUMPDEST PUSH1 0x0 DUP1 REVERT JUMPDEST PUSH1 0x0 DUP1 REVERT JUMPDEST PUSH1 0x0 DUP1 REVERT JUMPDEST PUSH1 0x0 PUSH1 0x1F NOT PUSH1 0x1F DUP4 ADD AND SWAP1 POP SWAP2 SWAP1 POP JUMP JUMPDEST PUSH32 0x4E6F7420616C6C6F776564000000000000000000000000000000000000000000 PUSH1 0x0 DUP3 ADD MSTORE POP JUMP INVALID SSTORE PUSH20 0x657220646F65736E6F7420657869737420212120 MSTORE PUSH6 0x676973746572 KECCAK256 PUSH2 0x6E64 KECCAK256 PUSH21 0x727920616761696E202121A2646970667358221220 SWAP5 0xAF SLT 0x5C SWAP11 0xCB 0x26 MOD ORIGIN 0xC1 0xA5 0xC0 LOG2 0xC9 0x4B SELFBALANCE SWAP5 0xC4 PUSH18 0xF4E18F9CADE1FCEF18DFBC4A6264736F6C63 NUMBER STOP ADDMOD MOD STOP CALLER "
				},
				"gasEstimates": {
					"creation": {
						"codeDepositCost": "1155800",
						"executionCost": "6214",
						"totalCost": "1162014"
					},
					"external": {
						"getProjectDetails()": "infinite",
						"getSignatureHash()": "infinite",
						"getUserAddress()": "2661",
						"getUsername()": "infinite",
						"login(string,string)": "infinite",
						"nbOfUsers()": "2430",
						"register(string,string,string,string,string)": "infinite",
						"saveProject(string,string,string,string)": "infinite"
					}
				},
				"methodIdentifiers": {
					"getProjectDetails()": "ff3a9c7e",
					"getSignatureHash()": "c127ae41",
					"getUserAddress()": "ebc3eee8",
					"getUsername()": "681f3e6d",
					"login(string,string)": "58467dbc",
					"nbOfUsers()": "12679323",
					"register(string,string,string,string,string)": "5a09007b",
					"saveProject(string,string,string,string)": "b4bfc3a5"
				}
			},
			"userdoc": {
				"kind": "user",
				"methods": {},
				"version": 1
			}
		}
	}
}