{
	"contracts/authentication.sol": {
		"Authentication": {
			"abi": [
				{
					"inputs": [],
					"stateMutability": "nonpayable",
					"type": "constructor"
				},
				{
					"inputs": [],
					"name": "getSignatureHash",
					"outputs": [
						{
							"internalType": "string",
							"name": "",
							"type": "string"
						}
					],
					"stateMutability": "view",
					"type": "function"
				},
				{
					"inputs": [],
					"name": "getUserAddress",
					"outputs": [
						{
							"internalType": "address",
							"name": "",
							"type": "address"
						}
					],
					"stateMutability": "view",
					"type": "function"
				},
				{
					"inputs": [],
					"name": "getUsernameAndPassword",
					"outputs": [
						{
							"internalType": "string",
							"name": "",
							"type": "string"
						}
					],
					"stateMutability": "view",
					"type": "function"
				},
				{
					"inputs": [],
					"name": "nbOfUsers",
					"outputs": [
						{
							"internalType": "uint256",
							"name": "",
							"type": "uint256"
						}
					],
					"stateMutability": "view",
					"type": "function"
				},
				{
					"inputs": [
						{
							"internalType": "string",
							"name": "_signature",
							"type": "string"
						},
						{
							"internalType": "string",
							"name": "username",
							"type": "string"
						},
						{
							"internalType": "string",
							"name": "password",
							"type": "string"
						},
						{
							"internalType": "string",
							"name": "repeatPassword",
							"type": "string"
						}
					],
					"name": "register",
					"outputs": [],
					"stateMutability": "nonpayable",
					"type": "function"
				}
			],
			"devdoc": {
				"kind": "dev",
				"methods": {},
				"version": 1
			},
			"evm": {
				"assembly": "    /* \"contracts/authentication.sol\":59:1452  contract Authentication {\r... */\n  mstore(0x40, 0x80)\n    /* \"contracts/authentication.sol\":342:388  constructor() {\r... */\n  callvalue\n  dup1\n  iszero\n  tag_1\n  jumpi\n  0x00\n  dup1\n  revert\ntag_1:\n  pop\n    /* \"contracts/authentication.sol\":379:380  0 */\n  0x00\n    /* \"contracts/authentication.sol\":367:376  nbOfUsers */\n  dup1\n    /* \"contracts/authentication.sol\":367:380  nbOfUsers = 0 */\n  dup2\n  swap1\n  sstore\n  pop\n    /* \"contracts/authentication.sol\":59:1452  contract Authentication {\r... */\n  dataSize(sub_0)\n  dup1\n  dataOffset(sub_0)\n  0x00\n  codecopy\n  0x00\n  return\nstop\n\nsub_0: assembly {\n        /* \"contracts/authentication.sol\":59:1452  contract Authentication {\r... */\n      mstore(0x40, 0x80)\n      callvalue\n      dup1\n      iszero\n      tag_1\n      jumpi\n      0x00\n      dup1\n      revert\n    tag_1:\n      pop\n      jumpi(tag_2, lt(calldatasize, 0x04))\n      shr(0xe0, calldataload(0x00))\n      dup1\n      0x0e24c52c\n      eq\n      tag_3\n      jumpi\n      dup1\n      0x12679323\n      eq\n      tag_4\n      jumpi\n      dup1\n      0xc127ae41\n      eq\n      tag_5\n      jumpi\n      dup1\n      0xebc3eee8\n      eq\n      tag_6\n      jumpi\n      dup1\n      0xec77e9d8\n      eq\n      tag_7\n      jumpi\n    tag_2:\n      0x00\n      dup1\n      revert\n        /* \"contracts/authentication.sol\":396:995  function register(string memory _signature, string memory username, string memory password, string memory repeatPassword) public {\r... */\n    tag_3:\n      tag_8\n      0x04\n      dup1\n      calldatasize\n      sub\n      dup2\n      add\n      swap1\n      tag_9\n      swap2\n      swap1\n      tag_10\n      jump\t// in\n    tag_9:\n      tag_11\n      jump\t// in\n    tag_8:\n      stop\n        /* \"contracts/authentication.sol\":90:114  uint256 public nbOfUsers */\n    tag_4:\n      tag_12\n      tag_13\n      jump\t// in\n    tag_12:\n      mload(0x40)\n      tag_14\n      swap2\n      swap1\n      tag_15\n      jump\t// in\n    tag_14:\n      mload(0x40)\n      dup1\n      swap2\n      sub\n      swap1\n      return\n        /* \"contracts/authentication.sol\":1003:1202  function getSignatureHash() public view returns (string memory) {\r... */\n    tag_5:\n      tag_16\n      tag_17\n      jump\t// in\n    tag_16:\n      mload(0x40)\n      tag_18\n      swap2\n      swap1\n      tag_19\n      jump\t// in\n    tag_18:\n      mload(0x40)\n      dup1\n      swap2\n      sub\n      swap1\n      return\n        /* \"contracts/authentication.sol\":1210:1320  function getUserAddress() public view returns (address) {\r... */\n    tag_6:\n      tag_20\n      tag_21\n      jump\t// in\n    tag_20:\n      mload(0x40)\n      tag_22\n      swap2\n      swap1\n      tag_23\n      jump\t// in\n    tag_22:\n      mload(0x40)\n      dup1\n      swap2\n      sub\n      swap1\n      return\n        /* \"contracts/authentication.sol\":1328:1449  function getUsernameAndPassword() public view returns (string memory) {\r... */\n    tag_7:\n      tag_24\n      tag_25\n      jump\t// in\n    tag_24:\n      mload(0x40)\n      tag_26\n      swap2\n      swap1\n      tag_19\n      jump\t// in\n    tag_26:\n      mload(0x40)\n      dup1\n      swap2\n      sub\n      swap1\n      return\n        /* \"contracts/authentication.sol\":396:995  function register(string memory _signature, string memory username, string memory password, string memory repeatPassword) public {\r... */\n    tag_11:\n        /* \"contracts/authentication.sol\":615:657  0x0000000000000000000000000000000000000000 */\n      0x00\n        /* \"contracts/authentication.sol\":558:658  user[msg.sender].userAddress ==\r... */\n      0xffffffffffffffffffffffffffffffffffffffff\n      and\n        /* \"contracts/authentication.sol\":558:562  user */\n      0x01\n        /* \"contracts/authentication.sol\":558:574  user[msg.sender] */\n      0x00\n        /* \"contracts/authentication.sol\":563:573  msg.sender */\n      caller\n        /* \"contracts/authentication.sol\":558:574  user[msg.sender] */\n      0xffffffffffffffffffffffffffffffffffffffff\n      and\n      0xffffffffffffffffffffffffffffffffffffffff\n      and\n      dup2\n      mstore\n      0x20\n      add\n      swap1\n      dup2\n      mstore\n      0x20\n      add\n      0x00\n      keccak256\n        /* \"contracts/authentication.sol\":558:586  user[msg.sender].userAddress */\n      0x04\n      add\n      0x00\n      swap1\n      sload\n      swap1\n      0x0100\n      exp\n      swap1\n      div\n      0xffffffffffffffffffffffffffffffffffffffff\n      and\n        /* \"contracts/authentication.sol\":558:658  user[msg.sender].userAddress ==\r... */\n      0xffffffffffffffffffffffffffffffffffffffff\n      and\n      eq\n        /* \"contracts/authentication.sol\":536:704  require(\r... */\n      tag_28\n      jumpi\n      mload(0x40)\n      0x08c379a000000000000000000000000000000000000000000000000000000000\n      dup2\n      mstore\n      0x04\n      add\n      tag_29\n      swap1\n      tag_30\n      jump\t// in\n    tag_29:\n      mload(0x40)\n      dup1\n      swap2\n      sub\n      swap1\n      revert\n    tag_28:\n        /* \"contracts/authentication.sol\":750:760  _signature */\n      dup4\n        /* \"contracts/authentication.sol\":717:721  user */\n      0x01\n        /* \"contracts/authentication.sol\":717:733  user[msg.sender] */\n      0x00\n        /* \"contracts/authentication.sol\":722:732  msg.sender */\n      caller\n        /* \"contracts/authentication.sol\":717:733  user[msg.sender] */\n      0xffffffffffffffffffffffffffffffffffffffff\n      and\n      0xffffffffffffffffffffffffffffffffffffffff\n      and\n      dup2\n      mstore\n      0x20\n      add\n      swap1\n      dup2\n      mstore\n      0x20\n      add\n      0x00\n      keccak256\n        /* \"contracts/authentication.sol\":717:747  user[msg.sender].signatureHash */\n      0x00\n      add\n        /* \"contracts/authentication.sol\":717:760  user[msg.sender].signatureHash = _signature */\n      swap1\n      dup1\n      mload\n      swap1\n      0x20\n      add\n      swap1\n      tag_31\n      swap3\n      swap2\n      swap1\n      tag_32\n      jump\t// in\n    tag_31:\n      pop\n        /* \"contracts/authentication.sol\":802:812  msg.sender */\n      caller\n        /* \"contracts/authentication.sol\":771:775  user */\n      0x01\n        /* \"contracts/authentication.sol\":771:787  user[msg.sender] */\n      0x00\n        /* \"contracts/authentication.sol\":776:786  msg.sender */\n      caller\n        /* \"contracts/authentication.sol\":771:787  user[msg.sender] */\n      0xffffffffffffffffffffffffffffffffffffffff\n      and\n      0xffffffffffffffffffffffffffffffffffffffff\n      and\n      dup2\n      mstore\n      0x20\n      add\n      swap1\n      dup2\n      mstore\n      0x20\n      add\n      0x00\n      keccak256\n        /* \"contracts/authentication.sol\":771:799  user[msg.sender].userAddress */\n      0x04\n      add\n      0x00\n        /* \"contracts/authentication.sol\":771:812  user[msg.sender].userAddress = msg.sender */\n      0x0100\n      exp\n      dup2\n      sload\n      dup2\n      0xffffffffffffffffffffffffffffffffffffffff\n      mul\n      not\n      and\n      swap1\n      dup4\n      0xffffffffffffffffffffffffffffffffffffffff\n      and\n      mul\n      or\n      swap1\n      sstore\n      pop\n        /* \"contracts/authentication.sol\":851:859  username */\n      dup3\n        /* \"contracts/authentication.sol\":823:827  user */\n      0x01\n        /* \"contracts/authentication.sol\":823:839  user[msg.sender] */\n      0x00\n        /* \"contracts/authentication.sol\":828:838  msg.sender */\n      caller\n        /* \"contracts/authentication.sol\":823:839  user[msg.sender] */\n      0xffffffffffffffffffffffffffffffffffffffff\n      and\n      0xffffffffffffffffffffffffffffffffffffffff\n      and\n      dup2\n      mstore\n      0x20\n      add\n      swap1\n      dup2\n      mstore\n      0x20\n      add\n      0x00\n      keccak256\n        /* \"contracts/authentication.sol\":823:848  user[msg.sender].username */\n      0x01\n      add\n        /* \"contracts/authentication.sol\":823:859  user[msg.sender].username = username */\n      swap1\n      dup1\n      mload\n      swap1\n      0x20\n      add\n      swap1\n      tag_33\n      swap3\n      swap2\n      swap1\n      tag_32\n      jump\t// in\n    tag_33:\n      pop\n        /* \"contracts/authentication.sol\":898:906  password */\n      dup2\n        /* \"contracts/authentication.sol\":870:874  user */\n      0x01\n        /* \"contracts/authentication.sol\":870:886  user[msg.sender] */\n      0x00\n        /* \"contracts/authentication.sol\":875:885  msg.sender */\n      caller\n        /* \"contracts/authentication.sol\":870:886  user[msg.sender] */\n      0xffffffffffffffffffffffffffffffffffffffff\n      and\n      0xffffffffffffffffffffffffffffffffffffffff\n      and\n      dup2\n      mstore\n      0x20\n      add\n      swap1\n      dup2\n      mstore\n      0x20\n      add\n      0x00\n      keccak256\n        /* \"contracts/authentication.sol\":870:895  user[msg.sender].password */\n      0x02\n      add\n        /* \"contracts/authentication.sol\":870:906  user[msg.sender].password = password */\n      swap1\n      dup1\n      mload\n      swap1\n      0x20\n      add\n      swap1\n      tag_34\n      swap3\n      swap2\n      swap1\n      tag_32\n      jump\t// in\n    tag_34:\n      pop\n        /* \"contracts/authentication.sol\":951:965  repeatPassword */\n      dup1\n        /* \"contracts/authentication.sol\":917:921  user */\n      0x01\n        /* \"contracts/authentication.sol\":917:933  user[msg.sender] */\n      0x00\n        /* \"contracts/authentication.sol\":922:932  msg.sender */\n      caller\n        /* \"contracts/authentication.sol\":917:933  user[msg.sender] */\n      0xffffffffffffffffffffffffffffffffffffffff\n      and\n      0xffffffffffffffffffffffffffffffffffffffff\n      and\n      dup2\n      mstore\n      0x20\n      add\n      swap1\n      dup2\n      mstore\n      0x20\n      add\n      0x00\n      keccak256\n        /* \"contracts/authentication.sol\":917:948  user[msg.sender].repeatPassword */\n      0x03\n      add\n        /* \"contracts/authentication.sol\":917:965  user[msg.sender].repeatPassword = repeatPassword */\n      swap1\n      dup1\n      mload\n      swap1\n      0x20\n      add\n      swap1\n      tag_35\n      swap3\n      swap2\n      swap1\n      tag_32\n      jump\t// in\n    tag_35:\n      pop\n        /* \"contracts/authentication.sol\":976:985  nbOfUsers */\n      0x00\n      dup1\n        /* \"contracts/authentication.sol\":976:987  nbOfUsers++ */\n      dup2\n      sload\n      dup1\n      swap3\n      swap2\n      swap1\n      tag_36\n      swap1\n      tag_37\n      jump\t// in\n    tag_36:\n      swap2\n      swap1\n      pop\n      sstore\n      pop\n        /* \"contracts/authentication.sol\":396:995  function register(string memory _signature, string memory username, string memory password, string memory repeatPassword) public {\r... */\n      pop\n      pop\n      pop\n      pop\n      jump\t// out\n        /* \"contracts/authentication.sol\":90:114  uint256 public nbOfUsers */\n    tag_13:\n      sload(0x00)\n      dup2\n      jump\t// out\n        /* \"contracts/authentication.sol\":1003:1202  function getSignatureHash() public view returns (string memory) {\r... */\n    tag_17:\n        /* \"contracts/authentication.sol\":1052:1065  string memory */\n      0x60\n        /* \"contracts/authentication.sol\":1100:1104  user */\n      0x01\n        /* \"contracts/authentication.sol\":1100:1116  user[msg.sender] */\n      0x00\n        /* \"contracts/authentication.sol\":1105:1115  msg.sender */\n      caller\n        /* \"contracts/authentication.sol\":1100:1116  user[msg.sender] */\n      0xffffffffffffffffffffffffffffffffffffffff\n      and\n      0xffffffffffffffffffffffffffffffffffffffff\n      and\n      dup2\n      mstore\n      0x20\n      add\n      swap1\n      dup2\n      mstore\n      0x20\n      add\n      0x00\n      keccak256\n        /* \"contracts/authentication.sol\":1100:1128  user[msg.sender].userAddress */\n      0x04\n      add\n      0x00\n      swap1\n      sload\n      swap1\n      0x0100\n      exp\n      swap1\n      div\n      0xffffffffffffffffffffffffffffffffffffffff\n      and\n        /* \"contracts/authentication.sol\":1086:1128  msg.sender == user[msg.sender].userAddress */\n      0xffffffffffffffffffffffffffffffffffffffff\n      and\n        /* \"contracts/authentication.sol\":1086:1096  msg.sender */\n      caller\n        /* \"contracts/authentication.sol\":1086:1128  msg.sender == user[msg.sender].userAddress */\n      0xffffffffffffffffffffffffffffffffffffffff\n      and\n      eq\n        /* \"contracts/authentication.sol\":1078:1144  require(msg.sender == user[msg.sender].userAddress, \"Not allowed\") */\n      tag_39\n      jumpi\n      mload(0x40)\n      0x08c379a000000000000000000000000000000000000000000000000000000000\n      dup2\n      mstore\n      0x04\n      add\n      tag_40\n      swap1\n      tag_41\n      jump\t// in\n    tag_40:\n      mload(0x40)\n      dup1\n      swap2\n      sub\n      swap1\n      revert\n    tag_39:\n        /* \"contracts/authentication.sol\":1164:1168  user */\n      0x01\n        /* \"contracts/authentication.sol\":1164:1180  user[msg.sender] */\n      0x00\n        /* \"contracts/authentication.sol\":1169:1179  msg.sender */\n      caller\n        /* \"contracts/authentication.sol\":1164:1180  user[msg.sender] */\n      0xffffffffffffffffffffffffffffffffffffffff\n      and\n      0xffffffffffffffffffffffffffffffffffffffff\n      and\n      dup2\n      mstore\n      0x20\n      add\n      swap1\n      dup2\n      mstore\n      0x20\n      add\n      0x00\n      keccak256\n        /* \"contracts/authentication.sol\":1164:1194  user[msg.sender].signatureHash */\n      0x00\n      add\n        /* \"contracts/authentication.sol\":1157:1194  return user[msg.sender].signatureHash */\n      dup1\n      sload\n      tag_42\n      swap1\n      tag_43\n      jump\t// in\n    tag_42:\n      dup1\n      0x1f\n      add\n      0x20\n      dup1\n      swap2\n      div\n      mul\n      0x20\n      add\n      mload(0x40)\n      swap1\n      dup2\n      add\n      0x40\n      mstore\n      dup1\n      swap3\n      swap2\n      swap1\n      dup2\n      dup2\n      mstore\n      0x20\n      add\n      dup3\n      dup1\n      sload\n      tag_44\n      swap1\n      tag_43\n      jump\t// in\n    tag_44:\n      dup1\n      iszero\n      tag_45\n      jumpi\n      dup1\n      0x1f\n      lt\n      tag_46\n      jumpi\n      0x0100\n      dup1\n      dup4\n      sload\n      div\n      mul\n      dup4\n      mstore\n      swap2\n      0x20\n      add\n      swap2\n      jump(tag_45)\n    tag_46:\n      dup3\n      add\n      swap2\n      swap1\n      0x00\n      mstore\n      keccak256(0x00, 0x20)\n      swap1\n    tag_47:\n      dup2\n      sload\n      dup2\n      mstore\n      swap1\n      0x01\n      add\n      swap1\n      0x20\n      add\n      dup1\n      dup4\n      gt\n      tag_47\n      jumpi\n      dup3\n      swap1\n      sub\n      0x1f\n      and\n      dup3\n      add\n      swap2\n    tag_45:\n      pop\n      pop\n      pop\n      pop\n      pop\n      swap1\n      pop\n        /* \"contracts/authentication.sol\":1003:1202  function getSignatureHash() public view returns (string memory) {\r... */\n      swap1\n      jump\t// out\n        /* \"contracts/authentication.sol\":1210:1320  function getUserAddress() public view returns (address) {\r... */\n    tag_21:\n        /* \"contracts/authentication.sol\":1257:1264  address */\n      0x00\n        /* \"contracts/authentication.sol\":1284:1288  user */\n      0x01\n        /* \"contracts/authentication.sol\":1284:1300  user[msg.sender] */\n      0x00\n        /* \"contracts/authentication.sol\":1289:1299  msg.sender */\n      caller\n        /* \"contracts/authentication.sol\":1284:1300  user[msg.sender] */\n      0xffffffffffffffffffffffffffffffffffffffff\n      and\n      0xffffffffffffffffffffffffffffffffffffffff\n      and\n      dup2\n      mstore\n      0x20\n      add\n      swap1\n      dup2\n      mstore\n      0x20\n      add\n      0x00\n      keccak256\n        /* \"contracts/authentication.sol\":1284:1312  user[msg.sender].userAddress */\n      0x04\n      add\n      0x00\n      swap1\n      sload\n      swap1\n      0x0100\n      exp\n      swap1\n      div\n      0xffffffffffffffffffffffffffffffffffffffff\n      and\n        /* \"contracts/authentication.sol\":1277:1312  return user[msg.sender].userAddress */\n      swap1\n      pop\n        /* \"contracts/authentication.sol\":1210:1320  function getUserAddress() public view returns (address) {\r... */\n      swap1\n      jump\t// out\n        /* \"contracts/authentication.sol\":1328:1449  function getUsernameAndPassword() public view returns (string memory) {\r... */\n    tag_25:\n        /* \"contracts/authentication.sol\":1383:1396  string memory */\n      0x60\n        /* \"contracts/authentication.sol\":1416:1420  user */\n      0x01\n        /* \"contracts/authentication.sol\":1416:1432  user[msg.sender] */\n      0x00\n        /* \"contracts/authentication.sol\":1421:1431  msg.sender */\n      caller\n        /* \"contracts/authentication.sol\":1416:1432  user[msg.sender] */\n      0xffffffffffffffffffffffffffffffffffffffff\n      and\n      0xffffffffffffffffffffffffffffffffffffffff\n      and\n      dup2\n      mstore\n      0x20\n      add\n      swap1\n      dup2\n      mstore\n      0x20\n      add\n      0x00\n      keccak256\n        /* \"contracts/authentication.sol\":1416:1441  user[msg.sender].username */\n      0x01\n      add\n        /* \"contracts/authentication.sol\":1409:1441  return user[msg.sender].username */\n      dup1\n      sload\n      tag_50\n      swap1\n      tag_43\n      jump\t// in\n    tag_50:\n      dup1\n      0x1f\n      add\n      0x20\n      dup1\n      swap2\n      div\n      mul\n      0x20\n      add\n      mload(0x40)\n      swap1\n      dup2\n      add\n      0x40\n      mstore\n      dup1\n      swap3\n      swap2\n      swap1\n      dup2\n      dup2\n      mstore\n      0x20\n      add\n      dup3\n      dup1\n      sload\n      tag_51\n      swap1\n      tag_43\n      jump\t// in\n    tag_51:\n      dup1\n      iszero\n      tag_52\n      jumpi\n      dup1\n      0x1f\n      lt\n      tag_53\n      jumpi\n      0x0100\n      dup1\n      dup4\n      sload\n      div\n      mul\n      dup4\n      mstore\n      swap2\n      0x20\n      add\n      swap2\n      jump(tag_52)\n    tag_53:\n      dup3\n      add\n      swap2\n      swap1\n      0x00\n      mstore\n      keccak256(0x00, 0x20)\n      swap1\n    tag_54:\n      dup2\n      sload\n      dup2\n      mstore\n      swap1\n      0x01\n      add\n      swap1\n      0x20\n      add\n      dup1\n      dup4\n      gt\n      tag_54\n      jumpi\n      dup3\n      swap1\n      sub\n      0x1f\n      and\n      dup3\n      add\n      swap2\n    tag_52:\n      pop\n      pop\n      pop\n      pop\n      pop\n      swap1\n      pop\n        /* \"contracts/authentication.sol\":1328:1449  function getUsernameAndPassword() public view returns (string memory) {\r... */\n      swap1\n      jump\t// out\n    tag_32:\n      dup3\n      dup1\n      sload\n      tag_55\n      swap1\n      tag_43\n      jump\t// in\n    tag_55:\n      swap1\n      0x00\n      mstore\n      keccak256(0x00, 0x20)\n      swap1\n      0x1f\n      add\n      0x20\n      swap1\n      div\n      dup2\n      add\n      swap3\n      dup3\n      tag_57\n      jumpi\n      0x00\n      dup6\n      sstore\n      jump(tag_56)\n    tag_57:\n      dup3\n      0x1f\n      lt\n      tag_58\n      jumpi\n      dup1\n      mload\n      not(0xff)\n      and\n      dup4\n      dup1\n      add\n      or\n      dup6\n      sstore\n      jump(tag_56)\n    tag_58:\n      dup3\n      dup1\n      add\n      0x01\n      add\n      dup6\n      sstore\n      dup3\n      iszero\n      tag_56\n      jumpi\n      swap2\n      dup3\n      add\n    tag_59:\n      dup3\n      dup2\n      gt\n      iszero\n      tag_60\n      jumpi\n      dup3\n      mload\n      dup3\n      sstore\n      swap2\n      0x20\n      add\n      swap2\n      swap1\n      0x01\n      add\n      swap1\n      jump(tag_59)\n    tag_60:\n    tag_56:\n      pop\n      swap1\n      pop\n      tag_61\n      swap2\n      swap1\n      tag_62\n      jump\t// in\n    tag_61:\n      pop\n      swap1\n      jump\t// out\n    tag_62:\n    tag_63:\n      dup1\n      dup3\n      gt\n      iszero\n      tag_64\n      jumpi\n      0x00\n      dup2\n      0x00\n      swap1\n      sstore\n      pop\n      0x01\n      add\n      jump(tag_63)\n    tag_64:\n      pop\n      swap1\n      jump\t// out\n        /* \"#utility.yul\":7:419   */\n    tag_66:\n        /* \"#utility.yul\":85:90   */\n      0x00\n        /* \"#utility.yul\":110:176   */\n      tag_68\n        /* \"#utility.yul\":126:175   */\n      tag_69\n        /* \"#utility.yul\":168:174   */\n      dup5\n        /* \"#utility.yul\":126:175   */\n      tag_70\n      jump\t// in\n    tag_69:\n        /* \"#utility.yul\":110:176   */\n      tag_71\n      jump\t// in\n    tag_68:\n        /* \"#utility.yul\":101:176   */\n      swap1\n      pop\n        /* \"#utility.yul\":199:205   */\n      dup3\n        /* \"#utility.yul\":192:197   */\n      dup2\n        /* \"#utility.yul\":185:206   */\n      mstore\n        /* \"#utility.yul\":237:241   */\n      0x20\n        /* \"#utility.yul\":230:235   */\n      dup2\n        /* \"#utility.yul\":226:242   */\n      add\n        /* \"#utility.yul\":275:278   */\n      dup5\n        /* \"#utility.yul\":266:272   */\n      dup5\n        /* \"#utility.yul\":261:264   */\n      dup5\n        /* \"#utility.yul\":257:273   */\n      add\n        /* \"#utility.yul\":254:279   */\n      gt\n        /* \"#utility.yul\":251:253   */\n      iszero\n      tag_72\n      jumpi\n        /* \"#utility.yul\":282:361   */\n      tag_73\n      tag_74\n      jump\t// in\n    tag_73:\n        /* \"#utility.yul\":251:253   */\n    tag_72:\n        /* \"#utility.yul\":372:413   */\n      tag_75\n        /* \"#utility.yul\":406:412   */\n      dup5\n        /* \"#utility.yul\":401:404   */\n      dup3\n        /* \"#utility.yul\":396:399   */\n      dup6\n        /* \"#utility.yul\":372:413   */\n      tag_76\n      jump\t// in\n    tag_75:\n        /* \"#utility.yul\":91:419   */\n      pop\n      swap4\n      swap3\n      pop\n      pop\n      pop\n      jump\t// out\n        /* \"#utility.yul\":439:779   */\n    tag_77:\n        /* \"#utility.yul\":495:500   */\n      0x00\n        /* \"#utility.yul\":544:547   */\n      dup3\n        /* \"#utility.yul\":537:541   */\n      0x1f\n        /* \"#utility.yul\":529:535   */\n      dup4\n        /* \"#utility.yul\":525:542   */\n      add\n        /* \"#utility.yul\":521:548   */\n      slt\n        /* \"#utility.yul\":511:513   */\n      tag_79\n      jumpi\n        /* \"#utility.yul\":552:631   */\n      tag_80\n      tag_81\n      jump\t// in\n    tag_80:\n        /* \"#utility.yul\":511:513   */\n    tag_79:\n        /* \"#utility.yul\":669:675   */\n      dup2\n        /* \"#utility.yul\":656:676   */\n      calldataload\n        /* \"#utility.yul\":694:773   */\n      tag_82\n        /* \"#utility.yul\":769:772   */\n      dup5\n        /* \"#utility.yul\":761:767   */\n      dup3\n        /* \"#utility.yul\":754:758   */\n      0x20\n        /* \"#utility.yul\":746:752   */\n      dup7\n        /* \"#utility.yul\":742:759   */\n      add\n        /* \"#utility.yul\":694:773   */\n      tag_66\n      jump\t// in\n    tag_82:\n        /* \"#utility.yul\":685:773   */\n      swap2\n      pop\n        /* \"#utility.yul\":501:779   */\n      pop\n      swap3\n      swap2\n      pop\n      pop\n      jump\t// out\n        /* \"#utility.yul\":785:2270   */\n    tag_10:\n        /* \"#utility.yul\":911:917   */\n      0x00\n        /* \"#utility.yul\":919:925   */\n      dup1\n        /* \"#utility.yul\":927:933   */\n      0x00\n        /* \"#utility.yul\":935:941   */\n      dup1\n        /* \"#utility.yul\":984:987   */\n      0x80\n        /* \"#utility.yul\":972:981   */\n      dup6\n        /* \"#utility.yul\":963:970   */\n      dup8\n        /* \"#utility.yul\":959:982   */\n      sub\n        /* \"#utility.yul\":955:988   */\n      slt\n        /* \"#utility.yul\":952:954   */\n      iszero\n      tag_84\n      jumpi\n        /* \"#utility.yul\":991:1070   */\n      tag_85\n      tag_86\n      jump\t// in\n    tag_85:\n        /* \"#utility.yul\":952:954   */\n    tag_84:\n        /* \"#utility.yul\":1139:1140   */\n      0x00\n        /* \"#utility.yul\":1128:1137   */\n      dup6\n        /* \"#utility.yul\":1124:1141   */\n      add\n        /* \"#utility.yul\":1111:1142   */\n      calldataload\n        /* \"#utility.yul\":1169:1187   */\n      0xffffffffffffffff\n        /* \"#utility.yul\":1161:1167   */\n      dup2\n        /* \"#utility.yul\":1158:1188   */\n      gt\n        /* \"#utility.yul\":1155:1157   */\n      iszero\n      tag_87\n      jumpi\n        /* \"#utility.yul\":1191:1270   */\n      tag_88\n      tag_89\n      jump\t// in\n    tag_88:\n        /* \"#utility.yul\":1155:1157   */\n    tag_87:\n        /* \"#utility.yul\":1296:1359   */\n      tag_90\n        /* \"#utility.yul\":1351:1358   */\n      dup8\n        /* \"#utility.yul\":1342:1348   */\n      dup3\n        /* \"#utility.yul\":1331:1340   */\n      dup9\n        /* \"#utility.yul\":1327:1349   */\n      add\n        /* \"#utility.yul\":1296:1359   */\n      tag_77\n      jump\t// in\n    tag_90:\n        /* \"#utility.yul\":1286:1359   */\n      swap5\n      pop\n        /* \"#utility.yul\":1082:1369   */\n      pop\n        /* \"#utility.yul\":1436:1438   */\n      0x20\n        /* \"#utility.yul\":1425:1434   */\n      dup6\n        /* \"#utility.yul\":1421:1439   */\n      add\n        /* \"#utility.yul\":1408:1440   */\n      calldataload\n        /* \"#utility.yul\":1467:1485   */\n      0xffffffffffffffff\n        /* \"#utility.yul\":1459:1465   */\n      dup2\n        /* \"#utility.yul\":1456:1486   */\n      gt\n        /* \"#utility.yul\":1453:1455   */\n      iszero\n      tag_91\n      jumpi\n        /* \"#utility.yul\":1489:1568   */\n      tag_92\n      tag_89\n      jump\t// in\n    tag_92:\n        /* \"#utility.yul\":1453:1455   */\n    tag_91:\n        /* \"#utility.yul\":1594:1657   */\n      tag_93\n        /* \"#utility.yul\":1649:1656   */\n      dup8\n        /* \"#utility.yul\":1640:1646   */\n      dup3\n        /* \"#utility.yul\":1629:1638   */\n      dup9\n        /* \"#utility.yul\":1625:1647   */\n      add\n        /* \"#utility.yul\":1594:1657   */\n      tag_77\n      jump\t// in\n    tag_93:\n        /* \"#utility.yul\":1584:1657   */\n      swap4\n      pop\n        /* \"#utility.yul\":1379:1667   */\n      pop\n        /* \"#utility.yul\":1734:1736   */\n      0x40\n        /* \"#utility.yul\":1723:1732   */\n      dup6\n        /* \"#utility.yul\":1719:1737   */\n      add\n        /* \"#utility.yul\":1706:1738   */\n      calldataload\n        /* \"#utility.yul\":1765:1783   */\n      0xffffffffffffffff\n        /* \"#utility.yul\":1757:1763   */\n      dup2\n        /* \"#utility.yul\":1754:1784   */\n      gt\n        /* \"#utility.yul\":1751:1753   */\n      iszero\n      tag_94\n      jumpi\n        /* \"#utility.yul\":1787:1866   */\n      tag_95\n      tag_89\n      jump\t// in\n    tag_95:\n        /* \"#utility.yul\":1751:1753   */\n    tag_94:\n        /* \"#utility.yul\":1892:1955   */\n      tag_96\n        /* \"#utility.yul\":1947:1954   */\n      dup8\n        /* \"#utility.yul\":1938:1944   */\n      dup3\n        /* \"#utility.yul\":1927:1936   */\n      dup9\n        /* \"#utility.yul\":1923:1945   */\n      add\n        /* \"#utility.yul\":1892:1955   */\n      tag_77\n      jump\t// in\n    tag_96:\n        /* \"#utility.yul\":1882:1955   */\n      swap3\n      pop\n        /* \"#utility.yul\":1677:1965   */\n      pop\n        /* \"#utility.yul\":2032:2034   */\n      0x60\n        /* \"#utility.yul\":2021:2030   */\n      dup6\n        /* \"#utility.yul\":2017:2035   */\n      add\n        /* \"#utility.yul\":2004:2036   */\n      calldataload\n        /* \"#utility.yul\":2063:2081   */\n      0xffffffffffffffff\n        /* \"#utility.yul\":2055:2061   */\n      dup2\n        /* \"#utility.yul\":2052:2082   */\n      gt\n        /* \"#utility.yul\":2049:2051   */\n      iszero\n      tag_97\n      jumpi\n        /* \"#utility.yul\":2085:2164   */\n      tag_98\n      tag_89\n      jump\t// in\n    tag_98:\n        /* \"#utility.yul\":2049:2051   */\n    tag_97:\n        /* \"#utility.yul\":2190:2253   */\n      tag_99\n        /* \"#utility.yul\":2245:2252   */\n      dup8\n        /* \"#utility.yul\":2236:2242   */\n      dup3\n        /* \"#utility.yul\":2225:2234   */\n      dup9\n        /* \"#utility.yul\":2221:2243   */\n      add\n        /* \"#utility.yul\":2190:2253   */\n      tag_77\n      jump\t// in\n    tag_99:\n        /* \"#utility.yul\":2180:2253   */\n      swap2\n      pop\n        /* \"#utility.yul\":1975:2263   */\n      pop\n        /* \"#utility.yul\":942:2270   */\n      swap3\n      swap6\n      swap2\n      swap5\n      pop\n      swap3\n      pop\n      jump\t// out\n        /* \"#utility.yul\":2276:2394   */\n    tag_100:\n        /* \"#utility.yul\":2363:2387   */\n      tag_102\n        /* \"#utility.yul\":2381:2386   */\n      dup2\n        /* \"#utility.yul\":2363:2387   */\n      tag_103\n      jump\t// in\n    tag_102:\n        /* \"#utility.yul\":2358:2361   */\n      dup3\n        /* \"#utility.yul\":2351:2388   */\n      mstore\n        /* \"#utility.yul\":2341:2394   */\n      pop\n      pop\n      jump\t// out\n        /* \"#utility.yul\":2400:2764   */\n    tag_104:\n        /* \"#utility.yul\":2488:2491   */\n      0x00\n        /* \"#utility.yul\":2516:2555   */\n      tag_106\n        /* \"#utility.yul\":2549:2554   */\n      dup3\n        /* \"#utility.yul\":2516:2555   */\n      tag_107\n      jump\t// in\n    tag_106:\n        /* \"#utility.yul\":2571:2642   */\n      tag_108\n        /* \"#utility.yul\":2635:2641   */\n      dup2\n        /* \"#utility.yul\":2630:2633   */\n      dup6\n        /* \"#utility.yul\":2571:2642   */\n      tag_109\n      jump\t// in\n    tag_108:\n        /* \"#utility.yul\":2564:2642   */\n      swap4\n      pop\n        /* \"#utility.yul\":2651:2703   */\n      tag_110\n        /* \"#utility.yul\":2696:2702   */\n      dup2\n        /* \"#utility.yul\":2691:2694   */\n      dup6\n        /* \"#utility.yul\":2684:2688   */\n      0x20\n        /* \"#utility.yul\":2677:2682   */\n      dup7\n        /* \"#utility.yul\":2673:2689   */\n      add\n        /* \"#utility.yul\":2651:2703   */\n      tag_111\n      jump\t// in\n    tag_110:\n        /* \"#utility.yul\":2728:2757   */\n      tag_112\n        /* \"#utility.yul\":2750:2756   */\n      dup2\n        /* \"#utility.yul\":2728:2757   */\n      tag_113\n      jump\t// in\n    tag_112:\n        /* \"#utility.yul\":2723:2726   */\n      dup5\n        /* \"#utility.yul\":2719:2758   */\n      add\n        /* \"#utility.yul\":2712:2758   */\n      swap2\n      pop\n        /* \"#utility.yul\":2492:2764   */\n      pop\n      swap3\n      swap2\n      pop\n      pop\n      jump\t// out\n        /* \"#utility.yul\":2770:3136   */\n    tag_114:\n        /* \"#utility.yul\":2912:2915   */\n      0x00\n        /* \"#utility.yul\":2933:3000   */\n      tag_116\n        /* \"#utility.yul\":2997:2999   */\n      0x12\n        /* \"#utility.yul\":2992:2995   */\n      dup4\n        /* \"#utility.yul\":2933:3000   */\n      tag_109\n      jump\t// in\n    tag_116:\n        /* \"#utility.yul\":2926:3000   */\n      swap2\n      pop\n        /* \"#utility.yul\":3009:3102   */\n      tag_117\n        /* \"#utility.yul\":3098:3101   */\n      dup3\n        /* \"#utility.yul\":3009:3102   */\n      tag_118\n      jump\t// in\n    tag_117:\n        /* \"#utility.yul\":3127:3129   */\n      0x20\n        /* \"#utility.yul\":3122:3125   */\n      dup3\n        /* \"#utility.yul\":3118:3130   */\n      add\n        /* \"#utility.yul\":3111:3130   */\n      swap1\n      pop\n        /* \"#utility.yul\":2916:3136   */\n      swap2\n      swap1\n      pop\n      jump\t// out\n        /* \"#utility.yul\":3142:3508   */\n    tag_119:\n        /* \"#utility.yul\":3284:3287   */\n      0x00\n        /* \"#utility.yul\":3305:3372   */\n      tag_121\n        /* \"#utility.yul\":3369:3371   */\n      0x0b\n        /* \"#utility.yul\":3364:3367   */\n      dup4\n        /* \"#utility.yul\":3305:3372   */\n      tag_109\n      jump\t// in\n    tag_121:\n        /* \"#utility.yul\":3298:3372   */\n      swap2\n      pop\n        /* \"#utility.yul\":3381:3474   */\n      tag_122\n        /* \"#utility.yul\":3470:3473   */\n      dup3\n        /* \"#utility.yul\":3381:3474   */\n      tag_123\n      jump\t// in\n    tag_122:\n        /* \"#utility.yul\":3499:3501   */\n      0x20\n        /* \"#utility.yul\":3494:3497   */\n      dup3\n        /* \"#utility.yul\":3490:3502   */\n      add\n        /* \"#utility.yul\":3483:3502   */\n      swap1\n      pop\n        /* \"#utility.yul\":3288:3508   */\n      swap2\n      swap1\n      pop\n      jump\t// out\n        /* \"#utility.yul\":3514:3632   */\n    tag_124:\n        /* \"#utility.yul\":3601:3625   */\n      tag_126\n        /* \"#utility.yul\":3619:3624   */\n      dup2\n        /* \"#utility.yul\":3601:3625   */\n      tag_127\n      jump\t// in\n    tag_126:\n        /* \"#utility.yul\":3596:3599   */\n      dup3\n        /* \"#utility.yul\":3589:3626   */\n      mstore\n        /* \"#utility.yul\":3579:3632   */\n      pop\n      pop\n      jump\t// out\n        /* \"#utility.yul\":3638:3860   */\n    tag_23:\n        /* \"#utility.yul\":3731:3735   */\n      0x00\n        /* \"#utility.yul\":3769:3771   */\n      0x20\n        /* \"#utility.yul\":3758:3767   */\n      dup3\n        /* \"#utility.yul\":3754:3772   */\n      add\n        /* \"#utility.yul\":3746:3772   */\n      swap1\n      pop\n        /* \"#utility.yul\":3782:3853   */\n      tag_129\n        /* \"#utility.yul\":3850:3851   */\n      0x00\n        /* \"#utility.yul\":3839:3848   */\n      dup4\n        /* \"#utility.yul\":3835:3852   */\n      add\n        /* \"#utility.yul\":3826:3832   */\n      dup5\n        /* \"#utility.yul\":3782:3853   */\n      tag_100\n      jump\t// in\n    tag_129:\n        /* \"#utility.yul\":3736:3860   */\n      swap3\n      swap2\n      pop\n      pop\n      jump\t// out\n        /* \"#utility.yul\":3866:4179   */\n    tag_19:\n        /* \"#utility.yul\":3979:3983   */\n      0x00\n        /* \"#utility.yul\":4017:4019   */\n      0x20\n        /* \"#utility.yul\":4006:4015   */\n      dup3\n        /* \"#utility.yul\":4002:4020   */\n      add\n        /* \"#utility.yul\":3994:4020   */\n      swap1\n      pop\n        /* \"#utility.yul\":4066:4075   */\n      dup2\n        /* \"#utility.yul\":4060:4064   */\n      dup2\n        /* \"#utility.yul\":4056:4076   */\n      sub\n        /* \"#utility.yul\":4052:4053   */\n      0x00\n        /* \"#utility.yul\":4041:4050   */\n      dup4\n        /* \"#utility.yul\":4037:4054   */\n      add\n        /* \"#utility.yul\":4030:4077   */\n      mstore\n        /* \"#utility.yul\":4094:4172   */\n      tag_131\n        /* \"#utility.yul\":4167:4171   */\n      dup2\n        /* \"#utility.yul\":4158:4164   */\n      dup5\n        /* \"#utility.yul\":4094:4172   */\n      tag_104\n      jump\t// in\n    tag_131:\n        /* \"#utility.yul\":4086:4172   */\n      swap1\n      pop\n        /* \"#utility.yul\":3984:4179   */\n      swap3\n      swap2\n      pop\n      pop\n      jump\t// out\n        /* \"#utility.yul\":4185:4604   */\n    tag_30:\n        /* \"#utility.yul\":4351:4355   */\n      0x00\n        /* \"#utility.yul\":4389:4391   */\n      0x20\n        /* \"#utility.yul\":4378:4387   */\n      dup3\n        /* \"#utility.yul\":4374:4392   */\n      add\n        /* \"#utility.yul\":4366:4392   */\n      swap1\n      pop\n        /* \"#utility.yul\":4438:4447   */\n      dup2\n        /* \"#utility.yul\":4432:4436   */\n      dup2\n        /* \"#utility.yul\":4428:4448   */\n      sub\n        /* \"#utility.yul\":4424:4425   */\n      0x00\n        /* \"#utility.yul\":4413:4422   */\n      dup4\n        /* \"#utility.yul\":4409:4426   */\n      add\n        /* \"#utility.yul\":4402:4449   */\n      mstore\n        /* \"#utility.yul\":4466:4597   */\n      tag_133\n        /* \"#utility.yul\":4592:4596   */\n      dup2\n        /* \"#utility.yul\":4466:4597   */\n      tag_114\n      jump\t// in\n    tag_133:\n        /* \"#utility.yul\":4458:4597   */\n      swap1\n      pop\n        /* \"#utility.yul\":4356:4604   */\n      swap2\n      swap1\n      pop\n      jump\t// out\n        /* \"#utility.yul\":4610:5029   */\n    tag_41:\n        /* \"#utility.yul\":4776:4780   */\n      0x00\n        /* \"#utility.yul\":4814:4816   */\n      0x20\n        /* \"#utility.yul\":4803:4812   */\n      dup3\n        /* \"#utility.yul\":4799:4817   */\n      add\n        /* \"#utility.yul\":4791:4817   */\n      swap1\n      pop\n        /* \"#utility.yul\":4863:4872   */\n      dup2\n        /* \"#utility.yul\":4857:4861   */\n      dup2\n        /* \"#utility.yul\":4853:4873   */\n      sub\n        /* \"#utility.yul\":4849:4850   */\n      0x00\n        /* \"#utility.yul\":4838:4847   */\n      dup4\n        /* \"#utility.yul\":4834:4851   */\n      add\n        /* \"#utility.yul\":4827:4874   */\n      mstore\n        /* \"#utility.yul\":4891:5022   */\n      tag_135\n        /* \"#utility.yul\":5017:5021   */\n      dup2\n        /* \"#utility.yul\":4891:5022   */\n      tag_119\n      jump\t// in\n    tag_135:\n        /* \"#utility.yul\":4883:5022   */\n      swap1\n      pop\n        /* \"#utility.yul\":4781:5029   */\n      swap2\n      swap1\n      pop\n      jump\t// out\n        /* \"#utility.yul\":5035:5257   */\n    tag_15:\n        /* \"#utility.yul\":5128:5132   */\n      0x00\n        /* \"#utility.yul\":5166:5168   */\n      0x20\n        /* \"#utility.yul\":5155:5164   */\n      dup3\n        /* \"#utility.yul\":5151:5169   */\n      add\n        /* \"#utility.yul\":5143:5169   */\n      swap1\n      pop\n        /* \"#utility.yul\":5179:5250   */\n      tag_137\n        /* \"#utility.yul\":5247:5248   */\n      0x00\n        /* \"#utility.yul\":5236:5245   */\n      dup4\n        /* \"#utility.yul\":5232:5249   */\n      add\n        /* \"#utility.yul\":5223:5229   */\n      dup5\n        /* \"#utility.yul\":5179:5250   */\n      tag_124\n      jump\t// in\n    tag_137:\n        /* \"#utility.yul\":5133:5257   */\n      swap3\n      swap2\n      pop\n      pop\n      jump\t// out\n        /* \"#utility.yul\":5263:5392   */\n    tag_71:\n        /* \"#utility.yul\":5297:5303   */\n      0x00\n        /* \"#utility.yul\":5324:5344   */\n      tag_139\n      tag_140\n      jump\t// in\n    tag_139:\n        /* \"#utility.yul\":5314:5344   */\n      swap1\n      pop\n        /* \"#utility.yul\":5353:5386   */\n      tag_141\n        /* \"#utility.yul\":5381:5385   */\n      dup3\n        /* \"#utility.yul\":5373:5379   */\n      dup3\n        /* \"#utility.yul\":5353:5386   */\n      tag_142\n      jump\t// in\n    tag_141:\n        /* \"#utility.yul\":5304:5392   */\n      swap2\n      swap1\n      pop\n      jump\t// out\n        /* \"#utility.yul\":5398:5473   */\n    tag_140:\n        /* \"#utility.yul\":5431:5437   */\n      0x00\n        /* \"#utility.yul\":5464:5466   */\n      0x40\n        /* \"#utility.yul\":5458:5467   */\n      mload\n        /* \"#utility.yul\":5448:5467   */\n      swap1\n      pop\n        /* \"#utility.yul\":5438:5473   */\n      swap1\n      jump\t// out\n        /* \"#utility.yul\":5479:5787   */\n    tag_70:\n        /* \"#utility.yul\":5541:5545   */\n      0x00\n        /* \"#utility.yul\":5631:5649   */\n      0xffffffffffffffff\n        /* \"#utility.yul\":5623:5629   */\n      dup3\n        /* \"#utility.yul\":5620:5650   */\n      gt\n        /* \"#utility.yul\":5617:5619   */\n      iszero\n      tag_145\n      jumpi\n        /* \"#utility.yul\":5653:5671   */\n      tag_146\n      tag_147\n      jump\t// in\n    tag_146:\n        /* \"#utility.yul\":5617:5619   */\n    tag_145:\n        /* \"#utility.yul\":5691:5720   */\n      tag_148\n        /* \"#utility.yul\":5713:5719   */\n      dup3\n        /* \"#utility.yul\":5691:5720   */\n      tag_113\n      jump\t// in\n    tag_148:\n        /* \"#utility.yul\":5683:5720   */\n      swap1\n      pop\n        /* \"#utility.yul\":5775:5779   */\n      0x20\n        /* \"#utility.yul\":5769:5773   */\n      dup2\n        /* \"#utility.yul\":5765:5780   */\n      add\n        /* \"#utility.yul\":5757:5780   */\n      swap1\n      pop\n        /* \"#utility.yul\":5546:5787   */\n      swap2\n      swap1\n      pop\n      jump\t// out\n        /* \"#utility.yul\":5793:5892   */\n    tag_107:\n        /* \"#utility.yul\":5845:5851   */\n      0x00\n        /* \"#utility.yul\":5879:5884   */\n      dup2\n        /* \"#utility.yul\":5873:5885   */\n      mload\n        /* \"#utility.yul\":5863:5885   */\n      swap1\n      pop\n        /* \"#utility.yul\":5852:5892   */\n      swap2\n      swap1\n      pop\n      jump\t// out\n        /* \"#utility.yul\":5898:6067   */\n    tag_109:\n        /* \"#utility.yul\":5982:5993   */\n      0x00\n        /* \"#utility.yul\":6016:6022   */\n      dup3\n        /* \"#utility.yul\":6011:6014   */\n      dup3\n        /* \"#utility.yul\":6004:6023   */\n      mstore\n        /* \"#utility.yul\":6056:6060   */\n      0x20\n        /* \"#utility.yul\":6051:6054   */\n      dup3\n        /* \"#utility.yul\":6047:6061   */\n      add\n        /* \"#utility.yul\":6032:6061   */\n      swap1\n      pop\n        /* \"#utility.yul\":5994:6067   */\n      swap3\n      swap2\n      pop\n      pop\n      jump\t// out\n        /* \"#utility.yul\":6073:6169   */\n    tag_103:\n        /* \"#utility.yul\":6110:6117   */\n      0x00\n        /* \"#utility.yul\":6139:6163   */\n      tag_152\n        /* \"#utility.yul\":6157:6162   */\n      dup3\n        /* \"#utility.yul\":6139:6163   */\n      tag_153\n      jump\t// in\n    tag_152:\n        /* \"#utility.yul\":6128:6163   */\n      swap1\n      pop\n        /* \"#utility.yul\":6118:6169   */\n      swap2\n      swap1\n      pop\n      jump\t// out\n        /* \"#utility.yul\":6175:6301   */\n    tag_153:\n        /* \"#utility.yul\":6212:6219   */\n      0x00\n        /* \"#utility.yul\":6252:6294   */\n      0xffffffffffffffffffffffffffffffffffffffff\n        /* \"#utility.yul\":6245:6250   */\n      dup3\n        /* \"#utility.yul\":6241:6295   */\n      and\n        /* \"#utility.yul\":6230:6295   */\n      swap1\n      pop\n        /* \"#utility.yul\":6220:6301   */\n      swap2\n      swap1\n      pop\n      jump\t// out\n        /* \"#utility.yul\":6307:6384   */\n    tag_127:\n        /* \"#utility.yul\":6344:6351   */\n      0x00\n        /* \"#utility.yul\":6373:6378   */\n      dup2\n        /* \"#utility.yul\":6362:6378   */\n      swap1\n      pop\n        /* \"#utility.yul\":6352:6384   */\n      swap2\n      swap1\n      pop\n      jump\t// out\n        /* \"#utility.yul\":6390:6544   */\n    tag_76:\n        /* \"#utility.yul\":6474:6480   */\n      dup3\n        /* \"#utility.yul\":6469:6472   */\n      dup2\n        /* \"#utility.yul\":6464:6467   */\n      dup4\n        /* \"#utility.yul\":6451:6481   */\n      calldatacopy\n        /* \"#utility.yul\":6536:6537   */\n      0x00\n        /* \"#utility.yul\":6527:6533   */\n      dup4\n        /* \"#utility.yul\":6522:6525   */\n      dup4\n        /* \"#utility.yul\":6518:6534   */\n      add\n        /* \"#utility.yul\":6511:6538   */\n      mstore\n        /* \"#utility.yul\":6441:6544   */\n      pop\n      pop\n      pop\n      jump\t// out\n        /* \"#utility.yul\":6550:6857   */\n    tag_111:\n        /* \"#utility.yul\":6618:6619   */\n      0x00\n        /* \"#utility.yul\":6628:6741   */\n    tag_158:\n        /* \"#utility.yul\":6642:6648   */\n      dup4\n        /* \"#utility.yul\":6639:6640   */\n      dup2\n        /* \"#utility.yul\":6636:6649   */\n      lt\n        /* \"#utility.yul\":6628:6741   */\n      iszero\n      tag_160\n      jumpi\n        /* \"#utility.yul\":6727:6728   */\n      dup1\n        /* \"#utility.yul\":6722:6725   */\n      dup3\n        /* \"#utility.yul\":6718:6729   */\n      add\n        /* \"#utility.yul\":6712:6730   */\n      mload\n        /* \"#utility.yul\":6708:6709   */\n      dup2\n        /* \"#utility.yul\":6703:6706   */\n      dup5\n        /* \"#utility.yul\":6699:6710   */\n      add\n        /* \"#utility.yul\":6692:6731   */\n      mstore\n        /* \"#utility.yul\":6664:6666   */\n      0x20\n        /* \"#utility.yul\":6661:6662   */\n      dup2\n        /* \"#utility.yul\":6657:6667   */\n      add\n        /* \"#utility.yul\":6652:6667   */\n      swap1\n      pop\n        /* \"#utility.yul\":6628:6741   */\n      jump(tag_158)\n    tag_160:\n        /* \"#utility.yul\":6759:6765   */\n      dup4\n        /* \"#utility.yul\":6756:6757   */\n      dup2\n        /* \"#utility.yul\":6753:6766   */\n      gt\n        /* \"#utility.yul\":6750:6752   */\n      iszero\n      tag_161\n      jumpi\n        /* \"#utility.yul\":6839:6840   */\n      0x00\n        /* \"#utility.yul\":6830:6836   */\n      dup5\n        /* \"#utility.yul\":6825:6828   */\n      dup5\n        /* \"#utility.yul\":6821:6837   */\n      add\n        /* \"#utility.yul\":6814:6841   */\n      mstore\n        /* \"#utility.yul\":6750:6752   */\n    tag_161:\n        /* \"#utility.yul\":6599:6857   */\n      pop\n      pop\n      pop\n      pop\n      jump\t// out\n        /* \"#utility.yul\":6863:7183   */\n    tag_43:\n        /* \"#utility.yul\":6907:6913   */\n      0x00\n        /* \"#utility.yul\":6944:6945   */\n      0x02\n        /* \"#utility.yul\":6938:6942   */\n      dup3\n        /* \"#utility.yul\":6934:6946   */\n      div\n        /* \"#utility.yul\":6924:6946   */\n      swap1\n      pop\n        /* \"#utility.yul\":6991:6992   */\n      0x01\n        /* \"#utility.yul\":6985:6989   */\n      dup3\n        /* \"#utility.yul\":6981:6993   */\n      and\n        /* \"#utility.yul\":7012:7030   */\n      dup1\n        /* \"#utility.yul\":7002:7004   */\n      tag_163\n      jumpi\n        /* \"#utility.yul\":7068:7072   */\n      0x7f\n        /* \"#utility.yul\":7060:7066   */\n      dup3\n        /* \"#utility.yul\":7056:7073   */\n      and\n        /* \"#utility.yul\":7046:7073   */\n      swap2\n      pop\n        /* \"#utility.yul\":7002:7004   */\n    tag_163:\n        /* \"#utility.yul\":7130:7132   */\n      0x20\n        /* \"#utility.yul\":7122:7128   */\n      dup3\n        /* \"#utility.yul\":7119:7133   */\n      lt\n        /* \"#utility.yul\":7099:7117   */\n      dup2\n        /* \"#utility.yul\":7096:7134   */\n      eq\n        /* \"#utility.yul\":7093:7095   */\n      iszero\n      tag_164\n      jumpi\n        /* \"#utility.yul\":7149:7167   */\n      tag_165\n      tag_166\n      jump\t// in\n    tag_165:\n        /* \"#utility.yul\":7093:7095   */\n    tag_164:\n        /* \"#utility.yul\":6914:7183   */\n      pop\n      swap2\n      swap1\n      pop\n      jump\t// out\n        /* \"#utility.yul\":7189:7470   */\n    tag_142:\n        /* \"#utility.yul\":7272:7299   */\n      tag_168\n        /* \"#utility.yul\":7294:7298   */\n      dup3\n        /* \"#utility.yul\":7272:7299   */\n      tag_113\n      jump\t// in\n    tag_168:\n        /* \"#utility.yul\":7264:7270   */\n      dup2\n        /* \"#utility.yul\":7260:7300   */\n      add\n        /* \"#utility.yul\":7402:7408   */\n      dup2\n        /* \"#utility.yul\":7390:7400   */\n      dup2\n        /* \"#utility.yul\":7387:7409   */\n      lt\n        /* \"#utility.yul\":7366:7384   */\n      0xffffffffffffffff\n        /* \"#utility.yul\":7354:7364   */\n      dup3\n        /* \"#utility.yul\":7351:7385   */\n      gt\n        /* \"#utility.yul\":7348:7410   */\n      or\n        /* \"#utility.yul\":7345:7347   */\n      iszero\n      tag_169\n      jumpi\n        /* \"#utility.yul\":7413:7431   */\n      tag_170\n      tag_147\n      jump\t// in\n    tag_170:\n        /* \"#utility.yul\":7345:7347   */\n    tag_169:\n        /* \"#utility.yul\":7453:7463   */\n      dup1\n        /* \"#utility.yul\":7449:7451   */\n      0x40\n        /* \"#utility.yul\":7442:7464   */\n      mstore\n        /* \"#utility.yul\":7232:7470   */\n      pop\n      pop\n      pop\n      jump\t// out\n        /* \"#utility.yul\":7476:7709   */\n    tag_37:\n        /* \"#utility.yul\":7515:7518   */\n      0x00\n        /* \"#utility.yul\":7538:7562   */\n      tag_172\n        /* \"#utility.yul\":7556:7561   */\n      dup3\n        /* \"#utility.yul\":7538:7562   */\n      tag_127\n      jump\t// in\n    tag_172:\n        /* \"#utility.yul\":7529:7562   */\n      swap2\n      pop\n        /* \"#utility.yul\":7584:7650   */\n      0xffffffffffffffffffffffffffffffffffffffffffffffffffffffffffffffff\n        /* \"#utility.yul\":7577:7582   */\n      dup3\n        /* \"#utility.yul\":7574:7651   */\n      eq\n        /* \"#utility.yul\":7571:7573   */\n      iszero\n      tag_173\n      jumpi\n        /* \"#utility.yul\":7654:7672   */\n      tag_174\n      tag_175\n      jump\t// in\n    tag_174:\n        /* \"#utility.yul\":7571:7573   */\n    tag_173:\n        /* \"#utility.yul\":7701:7702   */\n      0x01\n        /* \"#utility.yul\":7694:7699   */\n      dup3\n        /* \"#utility.yul\":7690:7703   */\n      add\n        /* \"#utility.yul\":7683:7703   */\n      swap1\n      pop\n        /* \"#utility.yul\":7519:7709   */\n      swap2\n      swap1\n      pop\n      jump\t// out\n        /* \"#utility.yul\":7715:7895   */\n    tag_175:\n        /* \"#utility.yul\":7763:7840   */\n      0x4e487b7100000000000000000000000000000000000000000000000000000000\n        /* \"#utility.yul\":7760:7761   */\n      0x00\n        /* \"#utility.yul\":7753:7841   */\n      mstore\n        /* \"#utility.yul\":7860:7864   */\n      0x11\n        /* \"#utility.yul\":7857:7858   */\n      0x04\n        /* \"#utility.yul\":7850:7865   */\n      mstore\n        /* \"#utility.yul\":7884:7888   */\n      0x24\n        /* \"#utility.yul\":7881:7882   */\n      0x00\n        /* \"#utility.yul\":7874:7889   */\n      revert\n        /* \"#utility.yul\":7901:8081   */\n    tag_166:\n        /* \"#utility.yul\":7949:8026   */\n      0x4e487b7100000000000000000000000000000000000000000000000000000000\n        /* \"#utility.yul\":7946:7947   */\n      0x00\n        /* \"#utility.yul\":7939:8027   */\n      mstore\n        /* \"#utility.yul\":8046:8050   */\n      0x22\n        /* \"#utility.yul\":8043:8044   */\n      0x04\n        /* \"#utility.yul\":8036:8051   */\n      mstore\n        /* \"#utility.yul\":8070:8074   */\n      0x24\n        /* \"#utility.yul\":8067:8068   */\n      0x00\n        /* \"#utility.yul\":8060:8075   */\n      revert\n        /* \"#utility.yul\":8087:8267   */\n    tag_147:\n        /* \"#utility.yul\":8135:8212   */\n      0x4e487b7100000000000000000000000000000000000000000000000000000000\n        /* \"#utility.yul\":8132:8133   */\n      0x00\n        /* \"#utility.yul\":8125:8213   */\n      mstore\n        /* \"#utility.yul\":8232:8236   */\n      0x41\n        /* \"#utility.yul\":8229:8230   */\n      0x04\n        /* \"#utility.yul\":8222:8237   */\n      mstore\n        /* \"#utility.yul\":8256:8260   */\n      0x24\n        /* \"#utility.yul\":8253:8254   */\n      0x00\n        /* \"#utility.yul\":8246:8261   */\n      revert\n        /* \"#utility.yul\":8273:8390   */\n    tag_81:\n        /* \"#utility.yul\":8382:8383   */\n      0x00\n        /* \"#utility.yul\":8379:8380   */\n      dup1\n        /* \"#utility.yul\":8372:8384   */\n      revert\n        /* \"#utility.yul\":8396:8513   */\n    tag_74:\n        /* \"#utility.yul\":8505:8506   */\n      0x00\n        /* \"#utility.yul\":8502:8503   */\n      dup1\n        /* \"#utility.yul\":8495:8507   */\n      revert\n        /* \"#utility.yul\":8519:8636   */\n    tag_89:\n        /* \"#utility.yul\":8628:8629   */\n      0x00\n        /* \"#utility.yul\":8625:8626   */\n      dup1\n        /* \"#utility.yul\":8618:8630   */\n      revert\n        /* \"#utility.yul\":8642:8759   */\n    tag_86:\n        /* \"#utility.yul\":8751:8752   */\n      0x00\n        /* \"#utility.yul\":8748:8749   */\n      dup1\n        /* \"#utility.yul\":8741:8753   */\n      revert\n        /* \"#utility.yul\":8765:8867   */\n    tag_113:\n        /* \"#utility.yul\":8806:8812   */\n      0x00\n        /* \"#utility.yul\":8857:8859   */\n      0x1f\n        /* \"#utility.yul\":8853:8860   */\n      not\n        /* \"#utility.yul\":8848:8850   */\n      0x1f\n        /* \"#utility.yul\":8841:8846   */\n      dup4\n        /* \"#utility.yul\":8837:8851   */\n      add\n        /* \"#utility.yul\":8833:8861   */\n      and\n        /* \"#utility.yul\":8823:8861   */\n      swap1\n      pop\n        /* \"#utility.yul\":8813:8867   */\n      swap2\n      swap1\n      pop\n      jump\t// out\n        /* \"#utility.yul\":8873:9041   */\n    tag_118:\n        /* \"#utility.yul\":9013:9033   */\n      0x616c726561647920726567697374657265640000000000000000000000000000\n        /* \"#utility.yul\":9009:9010   */\n      0x00\n        /* \"#utility.yul\":9001:9007   */\n      dup3\n        /* \"#utility.yul\":8997:9011   */\n      add\n        /* \"#utility.yul\":8990:9034   */\n      mstore\n        /* \"#utility.yul\":8979:9041   */\n      pop\n      jump\t// out\n        /* \"#utility.yul\":9047:9208   */\n    tag_123:\n        /* \"#utility.yul\":9187:9200   */\n      0x4e6f7420616c6c6f776564000000000000000000000000000000000000000000\n        /* \"#utility.yul\":9183:9184   */\n      0x00\n        /* \"#utility.yul\":9175:9181   */\n      dup3\n        /* \"#utility.yul\":9171:9185   */\n      add\n        /* \"#utility.yul\":9164:9201   */\n      mstore\n        /* \"#utility.yul\":9153:9208   */\n      pop\n      jump\t// out\n\n    auxdata: 0xa2646970667358221220b70f47bb69135c16ea0eedcd495a7d6dd58b6335207d8a1eb5d8cbfebad44cec64736f6c63430008060033\n}\n",
				"bytecode": {
					"linkReferences": {},
					"object": "608060405234801561001057600080fd5b5060008081905550610c94806100276000396000f3fe608060405234801561001057600080fd5b50600436106100575760003560e01c80630e24c52c1461005c5780631267932314610078578063c127ae4114610096578063ebc3eee8146100b4578063ec77e9d8146100d2575b600080fd5b610076600480360381019061007191906107b2565b6100f0565b005b6100806103bb565b60405161008d91906109a3565b60405180910390f35b61009e6103c1565b6040516100ab9190610941565b60405180910390f35b6100bc610563565b6040516100c99190610926565b60405180910390f35b6100da6105cd565b6040516100e79190610941565b60405180910390f35b600073ffffffffffffffffffffffffffffffffffffffff16600160003373ffffffffffffffffffffffffffffffffffffffff1673ffffffffffffffffffffffffffffffffffffffff16815260200190815260200160002060040160009054906101000a900473ffffffffffffffffffffffffffffffffffffffff1673ffffffffffffffffffffffffffffffffffffffff16146101c1576040517f08c379a00000000000000000000000000000000000000000000000000000000081526004016101b890610963565b60405180910390fd5b83600160003373ffffffffffffffffffffffffffffffffffffffff1673ffffffffffffffffffffffffffffffffffffffff168152602001908152602001600020600001908051906020019061021792919061069f565b5033600160003373ffffffffffffffffffffffffffffffffffffffff1673ffffffffffffffffffffffffffffffffffffffff16815260200190815260200160002060040160006101000a81548173ffffffffffffffffffffffffffffffffffffffff021916908373ffffffffffffffffffffffffffffffffffffffff16021790555082600160003373ffffffffffffffffffffffffffffffffffffffff1673ffffffffffffffffffffffffffffffffffffffff16815260200190815260200160002060010190805190602001906102ef92919061069f565b5081600160003373ffffffffffffffffffffffffffffffffffffffff1673ffffffffffffffffffffffffffffffffffffffff168152602001908152602001600020600201908051906020019061034692919061069f565b5080600160003373ffffffffffffffffffffffffffffffffffffffff1673ffffffffffffffffffffffffffffffffffffffff168152602001908152602001600020600301908051906020019061039d92919061069f565b506000808154809291906103b090610b11565b919050555050505050565b60005481565b6060600160003373ffffffffffffffffffffffffffffffffffffffff1673ffffffffffffffffffffffffffffffffffffffff16815260200190815260200160002060040160009054906101000a900473ffffffffffffffffffffffffffffffffffffffff1673ffffffffffffffffffffffffffffffffffffffff163373ffffffffffffffffffffffffffffffffffffffff1614610493576040517f08c379a000000000000000000000000000000000000000000000000000000000815260040161048a90610983565b60405180910390fd5b600160003373ffffffffffffffffffffffffffffffffffffffff1673ffffffffffffffffffffffffffffffffffffffff16815260200190815260200160002060000180546104e090610aae565b80601f016020809104026020016040519081016040528092919081815260200182805461050c90610aae565b80156105595780601f1061052e57610100808354040283529160200191610559565b820191906000526020600020905b81548152906001019060200180831161053c57829003601f168201915b5050505050905090565b6000600160003373ffffffffffffffffffffffffffffffffffffffff1673ffffffffffffffffffffffffffffffffffffffff16815260200190815260200160002060040160009054906101000a900473ffffffffffffffffffffffffffffffffffffffff16905090565b6060600160003373ffffffffffffffffffffffffffffffffffffffff1673ffffffffffffffffffffffffffffffffffffffff168152602001908152602001600020600101805461061c90610aae565b80601f016020809104026020016040519081016040528092919081815260200182805461064890610aae565b80156106955780601f1061066a57610100808354040283529160200191610695565b820191906000526020600020905b81548152906001019060200180831161067857829003601f168201915b5050505050905090565b8280546106ab90610aae565b90600052602060002090601f0160209004810192826106cd5760008555610714565b82601f106106e657805160ff1916838001178555610714565b82800160010185558215610714579182015b828111156107135782518255916020019190600101906106f8565b5b5090506107219190610725565b5090565b5b8082111561073e576000816000905550600101610726565b5090565b6000610755610750846109e3565b6109be565b90508281526020810184848401111561077157610770610bec565b5b61077c848285610a6c565b509392505050565b600082601f83011261079957610798610be7565b5b81356107a9848260208601610742565b91505092915050565b600080600080608085870312156107cc576107cb610bf6565b5b600085013567ffffffffffffffff8111156107ea576107e9610bf1565b5b6107f687828801610784565b945050602085013567ffffffffffffffff81111561081757610816610bf1565b5b61082387828801610784565b935050604085013567ffffffffffffffff81111561084457610843610bf1565b5b61085087828801610784565b925050606085013567ffffffffffffffff81111561087157610870610bf1565b5b61087d87828801610784565b91505092959194509250565b61089281610a30565b82525050565b60006108a382610a14565b6108ad8185610a1f565b93506108bd818560208601610a7b565b6108c681610bfb565b840191505092915050565b60006108de601283610a1f565b91506108e982610c0c565b602082019050919050565b6000610901600b83610a1f565b915061090c82610c35565b602082019050919050565b61092081610a62565b82525050565b600060208201905061093b6000830184610889565b92915050565b6000602082019050818103600083015261095b8184610898565b905092915050565b6000602082019050818103600083015261097c816108d1565b9050919050565b6000602082019050818103600083015261099c816108f4565b9050919050565b60006020820190506109b86000830184610917565b92915050565b60006109c86109d9565b90506109d48282610ae0565b919050565b6000604051905090565b600067ffffffffffffffff8211156109fe576109fd610bb8565b5b610a0782610bfb565b9050602081019050919050565b600081519050919050565b600082825260208201905092915050565b6000610a3b82610a42565b9050919050565b600073ffffffffffffffffffffffffffffffffffffffff82169050919050565b6000819050919050565b82818337600083830152505050565b60005b83811015610a99578082015181840152602081019050610a7e565b83811115610aa8576000848401525b50505050565b60006002820490506001821680610ac657607f821691505b60208210811415610ada57610ad9610b89565b5b50919050565b610ae982610bfb565b810181811067ffffffffffffffff82111715610b0857610b07610bb8565b5b80604052505050565b6000610b1c82610a62565b91507fffffffffffffffffffffffffffffffffffffffffffffffffffffffffffffffff821415610b4f57610b4e610b5a565b5b600182019050919050565b7f4e487b7100000000000000000000000000000000000000000000000000000000600052601160045260246000fd5b7f4e487b7100000000000000000000000000000000000000000000000000000000600052602260045260246000fd5b7f4e487b7100000000000000000000000000000000000000000000000000000000600052604160045260246000fd5b600080fd5b600080fd5b600080fd5b600080fd5b6000601f19601f8301169050919050565b7f616c726561647920726567697374657265640000000000000000000000000000600082015250565b7f4e6f7420616c6c6f77656400000000000000000000000000000000000000000060008201525056fea2646970667358221220b70f47bb69135c16ea0eedcd495a7d6dd58b6335207d8a1eb5d8cbfebad44cec64736f6c63430008060033",
					"opcodes": "PUSH1 0x80 PUSH1 0x40 MSTORE CALLVALUE DUP1 ISZERO PUSH2 0x10 JUMPI PUSH1 0x0 DUP1 REVERT JUMPDEST POP PUSH1 0x0 DUP1 DUP2 SWAP1 SSTORE POP PUSH2 0xC94 DUP1 PUSH2 0x27 PUSH1 0x0 CODECOPY PUSH1 0x0 RETURN INVALID PUSH1 0x80 PUSH1 0x40 MSTORE CALLVALUE DUP1 ISZERO PUSH2 0x10 JUMPI PUSH1 0x0 DUP1 REVERT JUMPDEST POP PUSH1 0x4 CALLDATASIZE LT PUSH2 0x57 JUMPI PUSH1 0x0 CALLDATALOAD PUSH1 0xE0 SHR DUP1 PUSH4 0xE24C52C EQ PUSH2 0x5C JUMPI DUP1 PUSH4 0x12679323 EQ PUSH2 0x78 JUMPI DUP1 PUSH4 0xC127AE41 EQ PUSH2 0x96 JUMPI DUP1 PUSH4 0xEBC3EEE8 EQ PUSH2 0xB4 JUMPI DUP1 PUSH4 0xEC77E9D8 EQ PUSH2 0xD2 JUMPI JUMPDEST PUSH1 0x0 DUP1 REVERT JUMPDEST PUSH2 0x76 PUSH1 0x4 DUP1 CALLDATASIZE SUB DUP2 ADD SWAP1 PUSH2 0x71 SWAP2 SWAP1 PUSH2 0x7B2 JUMP JUMPDEST PUSH2 0xF0 JUMP JUMPDEST STOP JUMPDEST PUSH2 0x80 PUSH2 0x3BB JUMP JUMPDEST PUSH1 0x40 MLOAD PUSH2 0x8D SWAP2 SWAP1 PUSH2 0x9A3 JUMP JUMPDEST PUSH1 0x40 MLOAD DUP1 SWAP2 SUB SWAP1 RETURN JUMPDEST PUSH2 0x9E PUSH2 0x3C1 JUMP JUMPDEST PUSH1 0x40 MLOAD PUSH2 0xAB SWAP2 SWAP1 PUSH2 0x941 JUMP JUMPDEST PUSH1 0x40 MLOAD DUP1 SWAP2 SUB SWAP1 RETURN JUMPDEST PUSH2 0xBC PUSH2 0x563 JUMP JUMPDEST PUSH1 0x40 MLOAD PUSH2 0xC9 SWAP2 SWAP1 PUSH2 0x926 JUMP JUMPDEST PUSH1 0x40 MLOAD DUP1 SWAP2 SUB SWAP1 RETURN JUMPDEST PUSH2 0xDA PUSH2 0x5CD JUMP JUMPDEST PUSH1 0x40 MLOAD PUSH2 0xE7 SWAP2 SWAP1 PUSH2 0x941 JUMP JUMPDEST PUSH1 0x40 MLOAD DUP1 SWAP2 SUB SWAP1 RETURN JUMPDEST PUSH1 0x0 PUSH20 0xFFFFFFFFFFFFFFFFFFFFFFFFFFFFFFFFFFFFFFFF AND PUSH1 0x1 PUSH1 0x0 CALLER PUSH20 0xFFFFFFFFFFFFFFFFFFFFFFFFFFFFFFFFFFFFFFFF AND PUSH20 0xFFFFFFFFFFFFFFFFFFFFFFFFFFFFFFFFFFFFFFFF AND DUP2 MSTORE PUSH1 0x20 ADD SWAP1 DUP2 MSTORE PUSH1 0x20 ADD PUSH1 0x0 KECCAK256 PUSH1 0x4 ADD PUSH1 0x0 SWAP1 SLOAD SWAP1 PUSH2 0x100 EXP SWAP1 DIV PUSH20 0xFFFFFFFFFFFFFFFFFFFFFFFFFFFFFFFFFFFFFFFF AND PUSH20 0xFFFFFFFFFFFFFFFFFFFFFFFFFFFFFFFFFFFFFFFF AND EQ PUSH2 0x1C1 JUMPI PUSH1 0x40 MLOAD PUSH32 0x8C379A000000000000000000000000000000000000000000000000000000000 DUP2 MSTORE PUSH1 0x4 ADD PUSH2 0x1B8 SWAP1 PUSH2 0x963 JUMP JUMPDEST PUSH1 0x40 MLOAD DUP1 SWAP2 SUB SWAP1 REVERT JUMPDEST DUP4 PUSH1 0x1 PUSH1 0x0 CALLER PUSH20 0xFFFFFFFFFFFFFFFFFFFFFFFFFFFFFFFFFFFFFFFF AND PUSH20 0xFFFFFFFFFFFFFFFFFFFFFFFFFFFFFFFFFFFFFFFF AND DUP2 MSTORE PUSH1 0x20 ADD SWAP1 DUP2 MSTORE PUSH1 0x20 ADD PUSH1 0x0 KECCAK256 PUSH1 0x0 ADD SWAP1 DUP1 MLOAD SWAP1 PUSH1 0x20 ADD SWAP1 PUSH2 0x217 SWAP3 SWAP2 SWAP1 PUSH2 0x69F JUMP JUMPDEST POP CALLER PUSH1 0x1 PUSH1 0x0 CALLER PUSH20 0xFFFFFFFFFFFFFFFFFFFFFFFFFFFFFFFFFFFFFFFF AND PUSH20 0xFFFFFFFFFFFFFFFFFFFFFFFFFFFFFFFFFFFFFFFF AND DUP2 MSTORE PUSH1 0x20 ADD SWAP1 DUP2 MSTORE PUSH1 0x20 ADD PUSH1 0x0 KECCAK256 PUSH1 0x4 ADD PUSH1 0x0 PUSH2 0x100 EXP DUP2 SLOAD DUP2 PUSH20 0xFFFFFFFFFFFFFFFFFFFFFFFFFFFFFFFFFFFFFFFF MUL NOT AND SWAP1 DUP4 PUSH20 0xFFFFFFFFFFFFFFFFFFFFFFFFFFFFFFFFFFFFFFFF AND MUL OR SWAP1 SSTORE POP DUP3 PUSH1 0x1 PUSH1 0x0 CALLER PUSH20 0xFFFFFFFFFFFFFFFFFFFFFFFFFFFFFFFFFFFFFFFF AND PUSH20 0xFFFFFFFFFFFFFFFFFFFFFFFFFFFFFFFFFFFFFFFF AND DUP2 MSTORE PUSH1 0x20 ADD SWAP1 DUP2 MSTORE PUSH1 0x20 ADD PUSH1 0x0 KECCAK256 PUSH1 0x1 ADD SWAP1 DUP1 MLOAD SWAP1 PUSH1 0x20 ADD SWAP1 PUSH2 0x2EF SWAP3 SWAP2 SWAP1 PUSH2 0x69F JUMP JUMPDEST POP DUP2 PUSH1 0x1 PUSH1 0x0 CALLER PUSH20 0xFFFFFFFFFFFFFFFFFFFFFFFFFFFFFFFFFFFFFFFF AND PUSH20 0xFFFFFFFFFFFFFFFFFFFFFFFFFFFFFFFFFFFFFFFF AND DUP2 MSTORE PUSH1 0x20 ADD SWAP1 DUP2 MSTORE PUSH1 0x20 ADD PUSH1 0x0 KECCAK256 PUSH1 0x2 ADD SWAP1 DUP1 MLOAD SWAP1 PUSH1 0x20 ADD SWAP1 PUSH2 0x346 SWAP3 SWAP2 SWAP1 PUSH2 0x69F JUMP JUMPDEST POP DUP1 PUSH1 0x1 PUSH1 0x0 CALLER PUSH20 0xFFFFFFFFFFFFFFFFFFFFFFFFFFFFFFFFFFFFFFFF AND PUSH20 0xFFFFFFFFFFFFFFFFFFFFFFFFFFFFFFFFFFFFFFFF AND DUP2 MSTORE PUSH1 0x20 ADD SWAP1 DUP2 MSTORE PUSH1 0x20 ADD PUSH1 0x0 KECCAK256 PUSH1 0x3 ADD SWAP1 DUP1 MLOAD SWAP1 PUSH1 0x20 ADD SWAP1 PUSH2 0x39D SWAP3 SWAP2 SWAP1 PUSH2 0x69F JUMP JUMPDEST POP PUSH1 0x0 DUP1 DUP2 SLOAD DUP1 SWAP3 SWAP2 SWAP1 PUSH2 0x3B0 SWAP1 PUSH2 0xB11 JUMP JUMPDEST SWAP2 SWAP1 POP SSTORE POP POP POP POP POP JUMP JUMPDEST PUSH1 0x0 SLOAD DUP2 JUMP JUMPDEST PUSH1 0x60 PUSH1 0x1 PUSH1 0x0 CALLER PUSH20 0xFFFFFFFFFFFFFFFFFFFFFFFFFFFFFFFFFFFFFFFF AND PUSH20 0xFFFFFFFFFFFFFFFFFFFFFFFFFFFFFFFFFFFFFFFF AND DUP2 MSTORE PUSH1 0x20 ADD SWAP1 DUP2 MSTORE PUSH1 0x20 ADD PUSH1 0x0 KECCAK256 PUSH1 0x4 ADD PUSH1 0x0 SWAP1 SLOAD SWAP1 PUSH2 0x100 EXP SWAP1 DIV PUSH20 0xFFFFFFFFFFFFFFFFFFFFFFFFFFFFFFFFFFFFFFFF AND PUSH20 0xFFFFFFFFFFFFFFFFFFFFFFFFFFFFFFFFFFFFFFFF AND CALLER PUSH20 0xFFFFFFFFFFFFFFFFFFFFFFFFFFFFFFFFFFFFFFFF AND EQ PUSH2 0x493 JUMPI PUSH1 0x40 MLOAD PUSH32 0x8C379A000000000000000000000000000000000000000000000000000000000 DUP2 MSTORE PUSH1 0x4 ADD PUSH2 0x48A SWAP1 PUSH2 0x983 JUMP JUMPDEST PUSH1 0x40 MLOAD DUP1 SWAP2 SUB SWAP1 REVERT JUMPDEST PUSH1 0x1 PUSH1 0x0 CALLER PUSH20 0xFFFFFFFFFFFFFFFFFFFFFFFFFFFFFFFFFFFFFFFF AND PUSH20 0xFFFFFFFFFFFFFFFFFFFFFFFFFFFFFFFFFFFFFFFF AND DUP2 MSTORE PUSH1 0x20 ADD SWAP1 DUP2 MSTORE PUSH1 0x20 ADD PUSH1 0x0 KECCAK256 PUSH1 0x0 ADD DUP1 SLOAD PUSH2 0x4E0 SWAP1 PUSH2 0xAAE JUMP JUMPDEST DUP1 PUSH1 0x1F ADD PUSH1 0x20 DUP1 SWAP2 DIV MUL PUSH1 0x20 ADD PUSH1 0x40 MLOAD SWAP1 DUP2 ADD PUSH1 0x40 MSTORE DUP1 SWAP3 SWAP2 SWAP1 DUP2 DUP2 MSTORE PUSH1 0x20 ADD DUP3 DUP1 SLOAD PUSH2 0x50C SWAP1 PUSH2 0xAAE JUMP JUMPDEST DUP1 ISZERO PUSH2 0x559 JUMPI DUP1 PUSH1 0x1F LT PUSH2 0x52E JUMPI PUSH2 0x100 DUP1 DUP4 SLOAD DIV MUL DUP4 MSTORE SWAP2 PUSH1 0x20 ADD SWAP2 PUSH2 0x559 JUMP JUMPDEST DUP3 ADD SWAP2 SWAP1 PUSH1 0x0 MSTORE PUSH1 0x20 PUSH1 0x0 KECCAK256 SWAP1 JUMPDEST DUP2 SLOAD DUP2 MSTORE SWAP1 PUSH1 0x1 ADD SWAP1 PUSH1 0x20 ADD DUP1 DUP4 GT PUSH2 0x53C JUMPI DUP3 SWAP1 SUB PUSH1 0x1F AND DUP3 ADD SWAP2 JUMPDEST POP POP POP POP POP SWAP1 POP SWAP1 JUMP JUMPDEST PUSH1 0x0 PUSH1 0x1 PUSH1 0x0 CALLER PUSH20 0xFFFFFFFFFFFFFFFFFFFFFFFFFFFFFFFFFFFFFFFF AND PUSH20 0xFFFFFFFFFFFFFFFFFFFFFFFFFFFFFFFFFFFFFFFF AND DUP2 MSTORE PUSH1 0x20 ADD SWAP1 DUP2 MSTORE PUSH1 0x20 ADD PUSH1 0x0 KECCAK256 PUSH1 0x4 ADD PUSH1 0x0 SWAP1 SLOAD SWAP1 PUSH2 0x100 EXP SWAP1 DIV PUSH20 0xFFFFFFFFFFFFFFFFFFFFFFFFFFFFFFFFFFFFFFFF AND SWAP1 POP SWAP1 JUMP JUMPDEST PUSH1 0x60 PUSH1 0x1 PUSH1 0x0 CALLER PUSH20 0xFFFFFFFFFFFFFFFFFFFFFFFFFFFFFFFFFFFFFFFF AND PUSH20 0xFFFFFFFFFFFFFFFFFFFFFFFFFFFFFFFFFFFFFFFF AND DUP2 MSTORE PUSH1 0x20 ADD SWAP1 DUP2 MSTORE PUSH1 0x20 ADD PUSH1 0x0 KECCAK256 PUSH1 0x1 ADD DUP1 SLOAD PUSH2 0x61C SWAP1 PUSH2 0xAAE JUMP JUMPDEST DUP1 PUSH1 0x1F ADD PUSH1 0x20 DUP1 SWAP2 DIV MUL PUSH1 0x20 ADD PUSH1 0x40 MLOAD SWAP1 DUP2 ADD PUSH1 0x40 MSTORE DUP1 SWAP3 SWAP2 SWAP1 DUP2 DUP2 MSTORE PUSH1 0x20 ADD DUP3 DUP1 SLOAD PUSH2 0x648 SWAP1 PUSH2 0xAAE JUMP JUMPDEST DUP1 ISZERO PUSH2 0x695 JUMPI DUP1 PUSH1 0x1F LT PUSH2 0x66A JUMPI PUSH2 0x100 DUP1 DUP4 SLOAD DIV MUL DUP4 MSTORE SWAP2 PUSH1 0x20 ADD SWAP2 PUSH2 0x695 JUMP JUMPDEST DUP3 ADD SWAP2 SWAP1 PUSH1 0x0 MSTORE PUSH1 0x20 PUSH1 0x0 KECCAK256 SWAP1 JUMPDEST DUP2 SLOAD DUP2 MSTORE SWAP1 PUSH1 0x1 ADD SWAP1 PUSH1 0x20 ADD DUP1 DUP4 GT PUSH2 0x678 JUMPI DUP3 SWAP1 SUB PUSH1 0x1F AND DUP3 ADD SWAP2 JUMPDEST POP POP POP POP POP SWAP1 POP SWAP1 JUMP JUMPDEST DUP3 DUP1 SLOAD PUSH2 0x6AB SWAP1 PUSH2 0xAAE JUMP JUMPDEST SWAP1 PUSH1 0x0 MSTORE PUSH1 0x20 PUSH1 0x0 KECCAK256 SWAP1 PUSH1 0x1F ADD PUSH1 0x20 SWAP1 DIV DUP2 ADD SWAP3 DUP3 PUSH2 0x6CD JUMPI PUSH1 0x0 DUP6 SSTORE PUSH2 0x714 JUMP JUMPDEST DUP3 PUSH1 0x1F LT PUSH2 0x6E6 JUMPI DUP1 MLOAD PUSH1 0xFF NOT AND DUP4 DUP1 ADD OR DUP6 SSTORE PUSH2 0x714 JUMP JUMPDEST DUP3 DUP1 ADD PUSH1 0x1 ADD DUP6 SSTORE DUP3 ISZERO PUSH2 0x714 JUMPI SWAP2 DUP3 ADD JUMPDEST DUP3 DUP2 GT ISZERO PUSH2 0x713 JUMPI DUP3 MLOAD DUP3 SSTORE SWAP2 PUSH1 0x20 ADD SWAP2 SWAP1 PUSH1 0x1 ADD SWAP1 PUSH2 0x6F8 JUMP JUMPDEST JUMPDEST POP SWAP1 POP PUSH2 0x721 SWAP2 SWAP1 PUSH2 0x725 JUMP JUMPDEST POP SWAP1 JUMP JUMPDEST JUMPDEST DUP1 DUP3 GT ISZERO PUSH2 0x73E JUMPI PUSH1 0x0 DUP2 PUSH1 0x0 SWAP1 SSTORE POP PUSH1 0x1 ADD PUSH2 0x726 JUMP JUMPDEST POP SWAP1 JUMP JUMPDEST PUSH1 0x0 PUSH2 0x755 PUSH2 0x750 DUP5 PUSH2 0x9E3 JUMP JUMPDEST PUSH2 0x9BE JUMP JUMPDEST SWAP1 POP DUP3 DUP2 MSTORE PUSH1 0x20 DUP2 ADD DUP5 DUP5 DUP5 ADD GT ISZERO PUSH2 0x771 JUMPI PUSH2 0x770 PUSH2 0xBEC JUMP JUMPDEST JUMPDEST PUSH2 0x77C DUP5 DUP3 DUP6 PUSH2 0xA6C JUMP JUMPDEST POP SWAP4 SWAP3 POP POP POP JUMP JUMPDEST PUSH1 0x0 DUP3 PUSH1 0x1F DUP4 ADD SLT PUSH2 0x799 JUMPI PUSH2 0x798 PUSH2 0xBE7 JUMP JUMPDEST JUMPDEST DUP2 CALLDATALOAD PUSH2 0x7A9 DUP5 DUP3 PUSH1 0x20 DUP7 ADD PUSH2 0x742 JUMP JUMPDEST SWAP2 POP POP SWAP3 SWAP2 POP POP JUMP JUMPDEST PUSH1 0x0 DUP1 PUSH1 0x0 DUP1 PUSH1 0x80 DUP6 DUP8 SUB SLT ISZERO PUSH2 0x7CC JUMPI PUSH2 0x7CB PUSH2 0xBF6 JUMP JUMPDEST JUMPDEST PUSH1 0x0 DUP6 ADD CALLDATALOAD PUSH8 0xFFFFFFFFFFFFFFFF DUP2 GT ISZERO PUSH2 0x7EA JUMPI PUSH2 0x7E9 PUSH2 0xBF1 JUMP JUMPDEST JUMPDEST PUSH2 0x7F6 DUP8 DUP3 DUP9 ADD PUSH2 0x784 JUMP JUMPDEST SWAP5 POP POP PUSH1 0x20 DUP6 ADD CALLDATALOAD PUSH8 0xFFFFFFFFFFFFFFFF DUP2 GT ISZERO PUSH2 0x817 JUMPI PUSH2 0x816 PUSH2 0xBF1 JUMP JUMPDEST JUMPDEST PUSH2 0x823 DUP8 DUP3 DUP9 ADD PUSH2 0x784 JUMP JUMPDEST SWAP4 POP POP PUSH1 0x40 DUP6 ADD CALLDATALOAD PUSH8 0xFFFFFFFFFFFFFFFF DUP2 GT ISZERO PUSH2 0x844 JUMPI PUSH2 0x843 PUSH2 0xBF1 JUMP JUMPDEST JUMPDEST PUSH2 0x850 DUP8 DUP3 DUP9 ADD PUSH2 0x784 JUMP JUMPDEST SWAP3 POP POP PUSH1 0x60 DUP6 ADD CALLDATALOAD PUSH8 0xFFFFFFFFFFFFFFFF DUP2 GT ISZERO PUSH2 0x871 JUMPI PUSH2 0x870 PUSH2 0xBF1 JUMP JUMPDEST JUMPDEST PUSH2 0x87D DUP8 DUP3 DUP9 ADD PUSH2 0x784 JUMP JUMPDEST SWAP2 POP POP SWAP3 SWAP6 SWAP2 SWAP5 POP SWAP3 POP JUMP JUMPDEST PUSH2 0x892 DUP2 PUSH2 0xA30 JUMP JUMPDEST DUP3 MSTORE POP POP JUMP JUMPDEST PUSH1 0x0 PUSH2 0x8A3 DUP3 PUSH2 0xA14 JUMP JUMPDEST PUSH2 0x8AD DUP2 DUP6 PUSH2 0xA1F JUMP JUMPDEST SWAP4 POP PUSH2 0x8BD DUP2 DUP6 PUSH1 0x20 DUP7 ADD PUSH2 0xA7B JUMP JUMPDEST PUSH2 0x8C6 DUP2 PUSH2 0xBFB JUMP JUMPDEST DUP5 ADD SWAP2 POP POP SWAP3 SWAP2 POP POP JUMP JUMPDEST PUSH1 0x0 PUSH2 0x8DE PUSH1 0x12 DUP4 PUSH2 0xA1F JUMP JUMPDEST SWAP2 POP PUSH2 0x8E9 DUP3 PUSH2 0xC0C JUMP JUMPDEST PUSH1 0x20 DUP3 ADD SWAP1 POP SWAP2 SWAP1 POP JUMP JUMPDEST PUSH1 0x0 PUSH2 0x901 PUSH1 0xB DUP4 PUSH2 0xA1F JUMP JUMPDEST SWAP2 POP PUSH2 0x90C DUP3 PUSH2 0xC35 JUMP JUMPDEST PUSH1 0x20 DUP3 ADD SWAP1 POP SWAP2 SWAP1 POP JUMP JUMPDEST PUSH2 0x920 DUP2 PUSH2 0xA62 JUMP JUMPDEST DUP3 MSTORE POP POP JUMP JUMPDEST PUSH1 0x0 PUSH1 0x20 DUP3 ADD SWAP1 POP PUSH2 0x93B PUSH1 0x0 DUP4 ADD DUP5 PUSH2 0x889 JUMP JUMPDEST SWAP3 SWAP2 POP POP JUMP JUMPDEST PUSH1 0x0 PUSH1 0x20 DUP3 ADD SWAP1 POP DUP2 DUP2 SUB PUSH1 0x0 DUP4 ADD MSTORE PUSH2 0x95B DUP2 DUP5 PUSH2 0x898 JUMP JUMPDEST SWAP1 POP SWAP3 SWAP2 POP POP JUMP JUMPDEST PUSH1 0x0 PUSH1 0x20 DUP3 ADD SWAP1 POP DUP2 DUP2 SUB PUSH1 0x0 DUP4 ADD MSTORE PUSH2 0x97C DUP2 PUSH2 0x8D1 JUMP JUMPDEST SWAP1 POP SWAP2 SWAP1 POP JUMP JUMPDEST PUSH1 0x0 PUSH1 0x20 DUP3 ADD SWAP1 POP DUP2 DUP2 SUB PUSH1 0x0 DUP4 ADD MSTORE PUSH2 0x99C DUP2 PUSH2 0x8F4 JUMP JUMPDEST SWAP1 POP SWAP2 SWAP1 POP JUMP JUMPDEST PUSH1 0x0 PUSH1 0x20 DUP3 ADD SWAP1 POP PUSH2 0x9B8 PUSH1 0x0 DUP4 ADD DUP5 PUSH2 0x917 JUMP JUMPDEST SWAP3 SWAP2 POP POP JUMP JUMPDEST PUSH1 0x0 PUSH2 0x9C8 PUSH2 0x9D9 JUMP JUMPDEST SWAP1 POP PUSH2 0x9D4 DUP3 DUP3 PUSH2 0xAE0 JUMP JUMPDEST SWAP2 SWAP1 POP JUMP JUMPDEST PUSH1 0x0 PUSH1 0x40 MLOAD SWAP1 POP SWAP1 JUMP JUMPDEST PUSH1 0x0 PUSH8 0xFFFFFFFFFFFFFFFF DUP3 GT ISZERO PUSH2 0x9FE JUMPI PUSH2 0x9FD PUSH2 0xBB8 JUMP JUMPDEST JUMPDEST PUSH2 0xA07 DUP3 PUSH2 0xBFB JUMP JUMPDEST SWAP1 POP PUSH1 0x20 DUP2 ADD SWAP1 POP SWAP2 SWAP1 POP JUMP JUMPDEST PUSH1 0x0 DUP2 MLOAD SWAP1 POP SWAP2 SWAP1 POP JUMP JUMPDEST PUSH1 0x0 DUP3 DUP3 MSTORE PUSH1 0x20 DUP3 ADD SWAP1 POP SWAP3 SWAP2 POP POP JUMP JUMPDEST PUSH1 0x0 PUSH2 0xA3B DUP3 PUSH2 0xA42 JUMP JUMPDEST SWAP1 POP SWAP2 SWAP1 POP JUMP JUMPDEST PUSH1 0x0 PUSH20 0xFFFFFFFFFFFFFFFFFFFFFFFFFFFFFFFFFFFFFFFF DUP3 AND SWAP1 POP SWAP2 SWAP1 POP JUMP JUMPDEST PUSH1 0x0 DUP2 SWAP1 POP SWAP2 SWAP1 POP JUMP JUMPDEST DUP3 DUP2 DUP4 CALLDATACOPY PUSH1 0x0 DUP4 DUP4 ADD MSTORE POP POP POP JUMP JUMPDEST PUSH1 0x0 JUMPDEST DUP4 DUP2 LT ISZERO PUSH2 0xA99 JUMPI DUP1 DUP3 ADD MLOAD DUP2 DUP5 ADD MSTORE PUSH1 0x20 DUP2 ADD SWAP1 POP PUSH2 0xA7E JUMP JUMPDEST DUP4 DUP2 GT ISZERO PUSH2 0xAA8 JUMPI PUSH1 0x0 DUP5 DUP5 ADD MSTORE JUMPDEST POP POP POP POP JUMP JUMPDEST PUSH1 0x0 PUSH1 0x2 DUP3 DIV SWAP1 POP PUSH1 0x1 DUP3 AND DUP1 PUSH2 0xAC6 JUMPI PUSH1 0x7F DUP3 AND SWAP2 POP JUMPDEST PUSH1 0x20 DUP3 LT DUP2 EQ ISZERO PUSH2 0xADA JUMPI PUSH2 0xAD9 PUSH2 0xB89 JUMP JUMPDEST JUMPDEST POP SWAP2 SWAP1 POP JUMP JUMPDEST PUSH2 0xAE9 DUP3 PUSH2 0xBFB JUMP JUMPDEST DUP2 ADD DUP2 DUP2 LT PUSH8 0xFFFFFFFFFFFFFFFF DUP3 GT OR ISZERO PUSH2 0xB08 JUMPI PUSH2 0xB07 PUSH2 0xBB8 JUMP JUMPDEST JUMPDEST DUP1 PUSH1 0x40 MSTORE POP POP POP JUMP JUMPDEST PUSH1 0x0 PUSH2 0xB1C DUP3 PUSH2 0xA62 JUMP JUMPDEST SWAP2 POP PUSH32 0xFFFFFFFFFFFFFFFFFFFFFFFFFFFFFFFFFFFFFFFFFFFFFFFFFFFFFFFFFFFFFFFF DUP3 EQ ISZERO PUSH2 0xB4F JUMPI PUSH2 0xB4E PUSH2 0xB5A JUMP JUMPDEST JUMPDEST PUSH1 0x1 DUP3 ADD SWAP1 POP SWAP2 SWAP1 POP JUMP JUMPDEST PUSH32 0x4E487B7100000000000000000000000000000000000000000000000000000000 PUSH1 0x0 MSTORE PUSH1 0x11 PUSH1 0x4 MSTORE PUSH1 0x24 PUSH1 0x0 REVERT JUMPDEST PUSH32 0x4E487B7100000000000000000000000000000000000000000000000000000000 PUSH1 0x0 MSTORE PUSH1 0x22 PUSH1 0x4 MSTORE PUSH1 0x24 PUSH1 0x0 REVERT JUMPDEST PUSH32 0x4E487B7100000000000000000000000000000000000000000000000000000000 PUSH1 0x0 MSTORE PUSH1 0x41 PUSH1 0x4 MSTORE PUSH1 0x24 PUSH1 0x0 REVERT JUMPDEST PUSH1 0x0 DUP1 REVERT JUMPDEST PUSH1 0x0 DUP1 REVERT JUMPDEST PUSH1 0x0 DUP1 REVERT JUMPDEST PUSH1 0x0 DUP1 REVERT JUMPDEST PUSH1 0x0 PUSH1 0x1F NOT PUSH1 0x1F DUP4 ADD AND SWAP1 POP SWAP2 SWAP1 POP JUMP JUMPDEST PUSH32 0x616C726561647920726567697374657265640000000000000000000000000000 PUSH1 0x0 DUP3 ADD MSTORE POP JUMP JUMPDEST PUSH32 0x4E6F7420616C6C6F776564000000000000000000000000000000000000000000 PUSH1 0x0 DUP3 ADD MSTORE POP JUMP INVALID LOG2 PUSH5 0x6970667358 0x22 SLT KECCAK256 0xB7 0xF SELFBALANCE 0xBB PUSH10 0x135C16EA0EEDCD495A7D PUSH14 0xD58B6335207D8A1EB5D8CBFEBAD4 0x4C 0xEC PUSH5 0x736F6C6343 STOP ADDMOD MOD STOP CALLER "
				},
				"gasEstimates": {
					"creation": {
						"codeDepositCost": "644000",
						"executionCost": "5690",
						"totalCost": "649690"
					},
					"external": {
						"getSignatureHash()": "infinite",
						"getUserAddress()": "2661",
						"getUsernameAndPassword()": "infinite",
						"nbOfUsers()": "2429",
						"register(string,string,string,string)": "infinite"
					}
				},
				"methodIdentifiers": {
					"getSignatureHash()": "c127ae41",
					"getUserAddress()": "ebc3eee8",
					"getUsernameAndPassword()": "ec77e9d8",
					"nbOfUsers()": "12679323",
					"register(string,string,string,string)": "0e24c52c"
				}
			},
			"userdoc": {
				"kind": "user",
				"methods": {},
				"version": 1
			}
		}
	}
}