{
	"contracts/authentication.sol": {
		"Authentication": {
			"abi": [
				{
					"inputs": [],
					"stateMutability": "nonpayable",
					"type": "constructor"
				},
				{
					"anonymous": false,
					"inputs": [
						{
							"indexed": false,
							"internalType": "string",
							"name": "message",
							"type": "string"
						}
					],
					"name": "message",
					"type": "event"
				},
				{
					"inputs": [],
					"name": "getSignatureHash",
					"outputs": [
						{
							"internalType": "string",
							"name": "",
							"type": "string"
						}
					],
					"stateMutability": "view",
					"type": "function"
				},
				{
					"inputs": [],
					"name": "getUserAddress",
					"outputs": [
						{
							"internalType": "address",
							"name": "",
							"type": "address"
						}
					],
					"stateMutability": "view",
					"type": "function"
				},
				{
					"inputs": [],
					"name": "getUsername",
					"outputs": [
						{
							"internalType": "string",
							"name": "",
							"type": "string"
						}
					],
					"stateMutability": "view",
					"type": "function"
				},
				{
					"inputs": [
						{
							"internalType": "string",
							"name": "username",
							"type": "string"
						},
						{
							"internalType": "string",
							"name": "password",
							"type": "string"
						}
					],
					"name": "login",
					"outputs": [
						{
							"internalType": "string",
							"name": "",
							"type": "string"
						}
					],
					"stateMutability": "nonpayable",
					"type": "function"
				},
				{
					"inputs": [],
					"name": "nbOfUsers",
					"outputs": [
						{
							"internalType": "uint256",
							"name": "",
							"type": "uint256"
						}
					],
					"stateMutability": "view",
					"type": "function"
				},
				{
					"inputs": [
						{
							"internalType": "string",
							"name": "_signature",
							"type": "string"
						},
						{
							"internalType": "string",
							"name": "email",
							"type": "string"
						},
						{
							"internalType": "string",
							"name": "username",
							"type": "string"
						},
						{
							"internalType": "string",
							"name": "password",
							"type": "string"
						},
						{
							"internalType": "string",
							"name": "repeatPassword",
							"type": "string"
						}
					],
					"name": "register",
					"outputs": [
						{
							"internalType": "string",
							"name": "",
							"type": "string"
						}
					],
					"stateMutability": "nonpayable",
					"type": "function"
				}
			],
			"devdoc": {
				"kind": "dev",
				"methods": {},
				"version": 1
			},
			"evm": {
				"assembly": "    /* \"contracts/authentication.sol\":59:2325  contract Authentication {\r... */\n  mstore(0x40, 0x80)\n    /* \"contracts/authentication.sol\":405:451  constructor() {\r... */\n  callvalue\n  dup1\n  iszero\n  tag_1\n  jumpi\n  0x00\n  dup1\n  revert\ntag_1:\n  pop\n    /* \"contracts/authentication.sol\":442:443  0 */\n  0x00\n    /* \"contracts/authentication.sol\":430:439  nbOfUsers */\n  dup1\n    /* \"contracts/authentication.sol\":430:443  nbOfUsers = 0 */\n  dup2\n  swap1\n  sstore\n  pop\n    /* \"contracts/authentication.sol\":59:2325  contract Authentication {\r... */\n  dataSize(sub_0)\n  dup1\n  dataOffset(sub_0)\n  0x00\n  codecopy\n  0x00\n  return\nstop\n\nsub_0: assembly {\n        /* \"contracts/authentication.sol\":59:2325  contract Authentication {\r... */\n      mstore(0x40, 0x80)\n      callvalue\n      dup1\n      iszero\n      tag_1\n      jumpi\n      0x00\n      dup1\n      revert\n    tag_1:\n      pop\n      jumpi(tag_2, lt(calldatasize, 0x04))\n      shr(0xe0, calldataload(0x00))\n      dup1\n      0x12679323\n      eq\n      tag_3\n      jumpi\n      dup1\n      0x58467dbc\n      eq\n      tag_4\n      jumpi\n      dup1\n      0x5a09007b\n      eq\n      tag_5\n      jumpi\n      dup1\n      0x681f3e6d\n      eq\n      tag_6\n      jumpi\n      dup1\n      0xc127ae41\n      eq\n      tag_7\n      jumpi\n      dup1\n      0xebc3eee8\n      eq\n      tag_8\n      jumpi\n    tag_2:\n      0x00\n      dup1\n      revert\n        /* \"contracts/authentication.sol\":90:114  uint256 public nbOfUsers */\n    tag_3:\n      tag_9\n      tag_10\n      jump\t// in\n    tag_9:\n      mload(0x40)\n      tag_11\n      swap2\n      swap1\n      tag_12\n      jump\t// in\n    tag_11:\n      mload(0x40)\n      dup1\n      swap2\n      sub\n      swap1\n      return\n        /* \"contracts/authentication.sol\":1740:2313  function login(string memory username, string memory password) public returns(string memory) {\r... */\n    tag_4:\n      tag_13\n      0x04\n      dup1\n      calldatasize\n      sub\n      dup2\n      add\n      swap1\n      tag_14\n      swap2\n      swap1\n      tag_15\n      jump\t// in\n    tag_14:\n      tag_16\n      jump\t// in\n    tag_13:\n      mload(0x40)\n      tag_17\n      swap2\n      swap1\n      tag_18\n      jump\t// in\n    tag_17:\n      mload(0x40)\n      dup1\n      swap2\n      sub\n      swap1\n      return\n        /* \"contracts/authentication.sol\":459:1291  function register(string memory _signature, string memory email, string memory username, string memory password, string memory repeatPassword) public returns(string memory) {\r... */\n    tag_5:\n      tag_19\n      0x04\n      dup1\n      calldatasize\n      sub\n      dup2\n      add\n      swap1\n      tag_20\n      swap2\n      swap1\n      tag_21\n      jump\t// in\n    tag_20:\n      tag_22\n      jump\t// in\n    tag_19:\n      mload(0x40)\n      tag_23\n      swap2\n      swap1\n      tag_18\n      jump\t// in\n    tag_23:\n      mload(0x40)\n      dup1\n      swap2\n      sub\n      swap1\n      return\n        /* \"contracts/authentication.sol\":1624:1734  function getUsername() public view returns (string memory) {\r... */\n    tag_6:\n      tag_24\n      tag_25\n      jump\t// in\n    tag_24:\n      mload(0x40)\n      tag_26\n      swap2\n      swap1\n      tag_18\n      jump\t// in\n    tag_26:\n      mload(0x40)\n      dup1\n      swap2\n      sub\n      swap1\n      return\n        /* \"contracts/authentication.sol\":1299:1498  function getSignatureHash() public view returns (string memory) {\r... */\n    tag_7:\n      tag_27\n      tag_28\n      jump\t// in\n    tag_27:\n      mload(0x40)\n      tag_29\n      swap2\n      swap1\n      tag_18\n      jump\t// in\n    tag_29:\n      mload(0x40)\n      dup1\n      swap2\n      sub\n      swap1\n      return\n        /* \"contracts/authentication.sol\":1506:1616  function getUserAddress() public view returns (address) {\r... */\n    tag_8:\n      tag_30\n      tag_31\n      jump\t// in\n    tag_30:\n      mload(0x40)\n      tag_32\n      swap2\n      swap1\n      tag_33\n      jump\t// in\n    tag_32:\n      mload(0x40)\n      dup1\n      swap2\n      sub\n      swap1\n      return\n        /* \"contracts/authentication.sol\":90:114  uint256 public nbOfUsers */\n    tag_10:\n      sload(0x00)\n      dup2\n      jump\t// out\n        /* \"contracts/authentication.sol\":1740:2313  function login(string memory username, string memory password) public returns(string memory) {\r... */\n    tag_16:\n        /* \"contracts/authentication.sol\":1818:1831  string memory */\n      0x60\n        /* \"contracts/authentication.sol\":1846:1869  string memory _username */\n      0x00\n        /* \"contracts/authentication.sol\":1871:1884  getUsername() */\n      tag_35\n        /* \"contracts/authentication.sol\":1871:1882  getUsername */\n      tag_25\n        /* \"contracts/authentication.sol\":1871:1884  getUsername() */\n      jump\t// in\n    tag_35:\n        /* \"contracts/authentication.sol\":1846:1884  string memory _username= getUsername() */\n      swap1\n      pop\n        /* \"contracts/authentication.sol\":1895:1918  string memory _password */\n      0x00\n        /* \"contracts/authentication.sol\":1920:1924  user */\n      0x01\n        /* \"contracts/authentication.sol\":1920:1936  user[msg.sender] */\n      0x00\n        /* \"contracts/authentication.sol\":1925:1935  msg.sender */\n      caller\n        /* \"contracts/authentication.sol\":1920:1936  user[msg.sender] */\n      0xffffffffffffffffffffffffffffffffffffffff\n      and\n      0xffffffffffffffffffffffffffffffffffffffff\n      and\n      dup2\n      mstore\n      0x20\n      add\n      swap1\n      dup2\n      mstore\n      0x20\n      add\n      0x00\n      keccak256\n        /* \"contracts/authentication.sol\":1920:1945  user[msg.sender].password */\n      0x03\n      add\n        /* \"contracts/authentication.sol\":1895:1945  string memory _password= user[msg.sender].password */\n      dup1\n      sload\n      tag_36\n      swap1\n      tag_37\n      jump\t// in\n    tag_36:\n      dup1\n      0x1f\n      add\n      0x20\n      dup1\n      swap2\n      div\n      mul\n      0x20\n      add\n      mload(0x40)\n      swap1\n      dup2\n      add\n      0x40\n      mstore\n      dup1\n      swap3\n      swap2\n      swap1\n      dup2\n      dup2\n      mstore\n      0x20\n      add\n      dup3\n      dup1\n      sload\n      tag_38\n      swap1\n      tag_37\n      jump\t// in\n    tag_38:\n      dup1\n      iszero\n      tag_39\n      jumpi\n      dup1\n      0x1f\n      lt\n      tag_40\n      jumpi\n      0x0100\n      dup1\n      dup4\n      sload\n      div\n      mul\n      dup4\n      mstore\n      swap2\n      0x20\n      add\n      swap2\n      jump(tag_39)\n    tag_40:\n      dup3\n      add\n      swap2\n      swap1\n      0x00\n      mstore\n      keccak256(0x00, 0x20)\n      swap1\n    tag_41:\n      dup2\n      sload\n      dup2\n      mstore\n      swap1\n      0x01\n      add\n      swap1\n      0x20\n      add\n      dup1\n      dup4\n      gt\n      tag_41\n      jumpi\n      dup3\n      swap1\n      sub\n      0x1f\n      and\n      dup3\n      add\n      swap2\n    tag_39:\n      pop\n      pop\n      pop\n      pop\n      pop\n      swap1\n      pop\n        /* \"contracts/authentication.sol\":2008:2016  username */\n      dup5\n        /* \"contracts/authentication.sol\":1992:2018  keccak256(bytes(username)) */\n      dup1\n      mload\n      swap1\n      0x20\n      add\n      keccak256\n        /* \"contracts/authentication.sol\":1977:1986  _username */\n      dup3\n        /* \"contracts/authentication.sol\":1961:1988  keccak256(bytes(_username)) */\n      dup1\n      mload\n      swap1\n      0x20\n      add\n      keccak256\n        /* \"contracts/authentication.sol\":1961:2018  keccak256(bytes(_username)) == keccak256(bytes(username)) */\n      eq\n        /* \"contracts/authentication.sol\":1961:2079  keccak256(bytes(_username)) == keccak256(bytes(username)) && keccak256(bytes(_password)) == keccak256(bytes(password)) */\n      dup1\n      iszero\n      tag_42\n      jumpi\n      pop\n        /* \"contracts/authentication.sol\":2069:2077  password */\n      dup4\n        /* \"contracts/authentication.sol\":2053:2079  keccak256(bytes(password)) */\n      dup1\n      mload\n      swap1\n      0x20\n      add\n      keccak256\n        /* \"contracts/authentication.sol\":2038:2047  _password */\n      dup2\n        /* \"contracts/authentication.sol\":2022:2049  keccak256(bytes(_password)) */\n      dup1\n      mload\n      swap1\n      0x20\n      add\n      keccak256\n        /* \"contracts/authentication.sol\":2022:2079  keccak256(bytes(_password)) == keccak256(bytes(password)) */\n      eq\n        /* \"contracts/authentication.sol\":1961:2079  keccak256(bytes(_username)) == keccak256(bytes(username)) && keccak256(bytes(_password)) == keccak256(bytes(password)) */\n    tag_42:\n        /* \"contracts/authentication.sol\":1958:2306  if(keccak256(bytes(_username)) == keccak256(bytes(username)) && keccak256(bytes(_password)) == keccak256(bytes(password)) ) {\r... */\n      iszero\n      tag_43\n      jumpi\n        /* \"contracts/authentication.sol\":2104:2121  message(username) */\n      0x05c766d1c5ea6f40afc38cd8e27308c236c492fbcfa32b458d2755cf76ec1e21\n        /* \"contracts/authentication.sol\":2112:2120  username */\n      dup6\n        /* \"contracts/authentication.sol\":2104:2121  message(username) */\n      mload(0x40)\n      tag_44\n      swap2\n      swap1\n      tag_18\n      jump\t// in\n    tag_44:\n      mload(0x40)\n      dup1\n      swap2\n      sub\n      swap1\n      log1\n        /* \"contracts/authentication.sol\":2143:2151  username */\n      dup5\n        /* \"contracts/authentication.sol\":2136:2151  return username */\n      swap3\n      pop\n      pop\n      pop\n      jump(tag_34)\n        /* \"contracts/authentication.sol\":1958:2306  if(keccak256(bytes(_username)) == keccak256(bytes(username)) && keccak256(bytes(_password)) == keccak256(bytes(password)) ) {\r... */\n    tag_43:\n        /* \"contracts/authentication.sol\":2191:2249  message(\"User doesnot exist !! Register and try again !!\") */\n      0x05c766d1c5ea6f40afc38cd8e27308c236c492fbcfa32b458d2755cf76ec1e21\n      mload(0x40)\n      tag_46\n      swap1\n      tag_47\n      jump\t// in\n    tag_46:\n      mload(0x40)\n      dup1\n      swap2\n      sub\n      swap1\n      log1\n        /* \"contracts/authentication.sol\":2267:2294  return \"User doesnot exist\" */\n      mload(0x40)\n      dup1\n      0x40\n      add\n      0x40\n      mstore\n      dup1\n      0x12\n      dup2\n      mstore\n      0x20\n      add\n      0x5573657220646f65736e6f742065786973740000000000000000000000000000\n      dup2\n      mstore\n      pop\n      swap3\n      pop\n      pop\n      pop\n        /* \"contracts/authentication.sol\":1740:2313  function login(string memory username, string memory password) public returns(string memory) {\r... */\n    tag_34:\n      swap3\n      swap2\n      pop\n      pop\n      jump\t// out\n        /* \"contracts/authentication.sol\":459:1291  function register(string memory _signature, string memory email, string memory username, string memory password, string memory repeatPassword) public returns(string memory) {\r... */\n    tag_22:\n        /* \"contracts/authentication.sol\":617:630  string memory */\n      0x60\n        /* \"contracts/authentication.sol\":827:837  _signature */\n      dup6\n        /* \"contracts/authentication.sol\":794:798  user */\n      0x01\n        /* \"contracts/authentication.sol\":794:810  user[msg.sender] */\n      0x00\n        /* \"contracts/authentication.sol\":799:809  msg.sender */\n      caller\n        /* \"contracts/authentication.sol\":794:810  user[msg.sender] */\n      0xffffffffffffffffffffffffffffffffffffffff\n      and\n      0xffffffffffffffffffffffffffffffffffffffff\n      and\n      dup2\n      mstore\n      0x20\n      add\n      swap1\n      dup2\n      mstore\n      0x20\n      add\n      0x00\n      keccak256\n        /* \"contracts/authentication.sol\":794:824  user[msg.sender].signatureHash */\n      0x00\n      add\n        /* \"contracts/authentication.sol\":794:837  user[msg.sender].signatureHash = _signature */\n      swap1\n      dup1\n      mload\n      swap1\n      0x20\n      add\n      swap1\n      tag_49\n      swap3\n      swap2\n      swap1\n      tag_50\n      jump\t// in\n    tag_49:\n      pop\n        /* \"contracts/authentication.sol\":873:878  email */\n      dup5\n        /* \"contracts/authentication.sol\":848:852  user */\n      0x01\n        /* \"contracts/authentication.sol\":848:864  user[msg.sender] */\n      0x00\n        /* \"contracts/authentication.sol\":853:863  msg.sender */\n      caller\n        /* \"contracts/authentication.sol\":848:864  user[msg.sender] */\n      0xffffffffffffffffffffffffffffffffffffffff\n      and\n      0xffffffffffffffffffffffffffffffffffffffff\n      and\n      dup2\n      mstore\n      0x20\n      add\n      swap1\n      dup2\n      mstore\n      0x20\n      add\n      0x00\n      keccak256\n        /* \"contracts/authentication.sol\":848:870  user[msg.sender].email */\n      0x01\n      add\n        /* \"contracts/authentication.sol\":848:878  user[msg.sender].email = email */\n      swap1\n      dup1\n      mload\n      swap1\n      0x20\n      add\n      swap1\n      tag_51\n      swap3\n      swap2\n      swap1\n      tag_50\n      jump\t// in\n    tag_51:\n      pop\n        /* \"contracts/authentication.sol\":920:930  msg.sender */\n      caller\n        /* \"contracts/authentication.sol\":889:893  user */\n      0x01\n        /* \"contracts/authentication.sol\":889:905  user[msg.sender] */\n      0x00\n        /* \"contracts/authentication.sol\":894:904  msg.sender */\n      caller\n        /* \"contracts/authentication.sol\":889:905  user[msg.sender] */\n      0xffffffffffffffffffffffffffffffffffffffff\n      and\n      0xffffffffffffffffffffffffffffffffffffffff\n      and\n      dup2\n      mstore\n      0x20\n      add\n      swap1\n      dup2\n      mstore\n      0x20\n      add\n      0x00\n      keccak256\n        /* \"contracts/authentication.sol\":889:917  user[msg.sender].userAddress */\n      0x05\n      add\n      0x00\n        /* \"contracts/authentication.sol\":889:930  user[msg.sender].userAddress = msg.sender */\n      0x0100\n      exp\n      dup2\n      sload\n      dup2\n      0xffffffffffffffffffffffffffffffffffffffff\n      mul\n      not\n      and\n      swap1\n      dup4\n      0xffffffffffffffffffffffffffffffffffffffff\n      and\n      mul\n      or\n      swap1\n      sstore\n      pop\n        /* \"contracts/authentication.sol\":969:977  username */\n      dup4\n        /* \"contracts/authentication.sol\":941:945  user */\n      0x01\n        /* \"contracts/authentication.sol\":941:957  user[msg.sender] */\n      0x00\n        /* \"contracts/authentication.sol\":946:956  msg.sender */\n      caller\n        /* \"contracts/authentication.sol\":941:957  user[msg.sender] */\n      0xffffffffffffffffffffffffffffffffffffffff\n      and\n      0xffffffffffffffffffffffffffffffffffffffff\n      and\n      dup2\n      mstore\n      0x20\n      add\n      swap1\n      dup2\n      mstore\n      0x20\n      add\n      0x00\n      keccak256\n        /* \"contracts/authentication.sol\":941:966  user[msg.sender].username */\n      0x02\n      add\n        /* \"contracts/authentication.sol\":941:977  user[msg.sender].username = username */\n      swap1\n      dup1\n      mload\n      swap1\n      0x20\n      add\n      swap1\n      tag_52\n      swap3\n      swap2\n      swap1\n      tag_50\n      jump\t// in\n    tag_52:\n      pop\n        /* \"contracts/authentication.sol\":1016:1024  password */\n      dup3\n        /* \"contracts/authentication.sol\":988:992  user */\n      0x01\n        /* \"contracts/authentication.sol\":988:1004  user[msg.sender] */\n      0x00\n        /* \"contracts/authentication.sol\":993:1003  msg.sender */\n      caller\n        /* \"contracts/authentication.sol\":988:1004  user[msg.sender] */\n      0xffffffffffffffffffffffffffffffffffffffff\n      and\n      0xffffffffffffffffffffffffffffffffffffffff\n      and\n      dup2\n      mstore\n      0x20\n      add\n      swap1\n      dup2\n      mstore\n      0x20\n      add\n      0x00\n      keccak256\n        /* \"contracts/authentication.sol\":988:1013  user[msg.sender].password */\n      0x03\n      add\n        /* \"contracts/authentication.sol\":988:1024  user[msg.sender].password = password */\n      swap1\n      dup1\n      mload\n      swap1\n      0x20\n      add\n      swap1\n      tag_53\n      swap3\n      swap2\n      swap1\n      tag_50\n      jump\t// in\n    tag_53:\n      pop\n        /* \"contracts/authentication.sol\":1069:1083  repeatPassword */\n      dup2\n        /* \"contracts/authentication.sol\":1035:1039  user */\n      0x01\n        /* \"contracts/authentication.sol\":1035:1051  user[msg.sender] */\n      0x00\n        /* \"contracts/authentication.sol\":1040:1050  msg.sender */\n      caller\n        /* \"contracts/authentication.sol\":1035:1051  user[msg.sender] */\n      0xffffffffffffffffffffffffffffffffffffffff\n      and\n      0xffffffffffffffffffffffffffffffffffffffff\n      and\n      dup2\n      mstore\n      0x20\n      add\n      swap1\n      dup2\n      mstore\n      0x20\n      add\n      0x00\n      keccak256\n        /* \"contracts/authentication.sol\":1035:1066  user[msg.sender].repeatPassword */\n      0x04\n      add\n        /* \"contracts/authentication.sol\":1035:1083  user[msg.sender].repeatPassword = repeatPassword */\n      swap1\n      dup1\n      mload\n      swap1\n      0x20\n      add\n      swap1\n      tag_54\n      swap3\n      swap2\n      swap1\n      tag_50\n      jump\t// in\n    tag_54:\n      pop\n        /* \"contracts/authentication.sol\":1094:1103  nbOfUsers */\n      0x00\n      dup1\n        /* \"contracts/authentication.sol\":1094:1105  nbOfUsers++ */\n      dup2\n      sload\n      dup1\n      swap3\n      swap2\n      swap1\n      tag_55\n      swap1\n      tag_56\n      jump\t// in\n    tag_55:\n      swap2\n      swap1\n      pop\n      sstore\n      pop\n        /* \"contracts/authentication.sol\":1138:1139  1 */\n      0x01\n        /* \"contracts/authentication.sol\":1125:1134  nbOfUsers */\n      sload(0x00)\n        /* \"contracts/authentication.sol\":1125:1139  nbOfUsers == 1 */\n      eq\n        /* \"contracts/authentication.sol\":1116:1190  require( nbOfUsers == 1,\r... */\n      tag_57\n      jumpi\n      mload(0x40)\n      0x08c379a000000000000000000000000000000000000000000000000000000000\n      dup2\n      mstore\n      0x04\n      add\n      tag_58\n      swap1\n      tag_59\n      jump\t// in\n    tag_58:\n      mload(0x40)\n      dup1\n      swap2\n      sub\n      swap1\n      revert\n    tag_57:\n        /* \"contracts/authentication.sol\":1206:1240  message(\"Successfully Registered\") */\n      0x05c766d1c5ea6f40afc38cd8e27308c236c492fbcfa32b458d2755cf76ec1e21\n      mload(0x40)\n      tag_60\n      swap1\n      tag_59\n      jump\t// in\n    tag_60:\n      mload(0x40)\n      dup1\n      swap2\n      sub\n      swap1\n      log1\n        /* \"contracts/authentication.sol\":1251:1283  return \"Successfully Registered\" */\n      mload(0x40)\n      dup1\n      0x40\n      add\n      0x40\n      mstore\n      dup1\n      0x17\n      dup2\n      mstore\n      0x20\n      add\n      0x5375636365737366756c6c792052656769737465726564000000000000000000\n      dup2\n      mstore\n      pop\n      swap1\n      pop\n        /* \"contracts/authentication.sol\":459:1291  function register(string memory _signature, string memory email, string memory username, string memory password, string memory repeatPassword) public returns(string memory) {\r... */\n      swap6\n      swap5\n      pop\n      pop\n      pop\n      pop\n      pop\n      jump\t// out\n        /* \"contracts/authentication.sol\":1624:1734  function getUsername() public view returns (string memory) {\r... */\n    tag_25:\n        /* \"contracts/authentication.sol\":1668:1681  string memory */\n      0x60\n        /* \"contracts/authentication.sol\":1701:1705  user */\n      0x01\n        /* \"contracts/authentication.sol\":1701:1717  user[msg.sender] */\n      0x00\n        /* \"contracts/authentication.sol\":1706:1716  msg.sender */\n      caller\n        /* \"contracts/authentication.sol\":1701:1717  user[msg.sender] */\n      0xffffffffffffffffffffffffffffffffffffffff\n      and\n      0xffffffffffffffffffffffffffffffffffffffff\n      and\n      dup2\n      mstore\n      0x20\n      add\n      swap1\n      dup2\n      mstore\n      0x20\n      add\n      0x00\n      keccak256\n        /* \"contracts/authentication.sol\":1701:1726  user[msg.sender].username */\n      0x02\n      add\n        /* \"contracts/authentication.sol\":1694:1726  return user[msg.sender].username */\n      dup1\n      sload\n      tag_62\n      swap1\n      tag_37\n      jump\t// in\n    tag_62:\n      dup1\n      0x1f\n      add\n      0x20\n      dup1\n      swap2\n      div\n      mul\n      0x20\n      add\n      mload(0x40)\n      swap1\n      dup2\n      add\n      0x40\n      mstore\n      dup1\n      swap3\n      swap2\n      swap1\n      dup2\n      dup2\n      mstore\n      0x20\n      add\n      dup3\n      dup1\n      sload\n      tag_63\n      swap1\n      tag_37\n      jump\t// in\n    tag_63:\n      dup1\n      iszero\n      tag_64\n      jumpi\n      dup1\n      0x1f\n      lt\n      tag_65\n      jumpi\n      0x0100\n      dup1\n      dup4\n      sload\n      div\n      mul\n      dup4\n      mstore\n      swap2\n      0x20\n      add\n      swap2\n      jump(tag_64)\n    tag_65:\n      dup3\n      add\n      swap2\n      swap1\n      0x00\n      mstore\n      keccak256(0x00, 0x20)\n      swap1\n    tag_66:\n      dup2\n      sload\n      dup2\n      mstore\n      swap1\n      0x01\n      add\n      swap1\n      0x20\n      add\n      dup1\n      dup4\n      gt\n      tag_66\n      jumpi\n      dup3\n      swap1\n      sub\n      0x1f\n      and\n      dup3\n      add\n      swap2\n    tag_64:\n      pop\n      pop\n      pop\n      pop\n      pop\n      swap1\n      pop\n        /* \"contracts/authentication.sol\":1624:1734  function getUsername() public view returns (string memory) {\r... */\n      swap1\n      jump\t// out\n        /* \"contracts/authentication.sol\":1299:1498  function getSignatureHash() public view returns (string memory) {\r... */\n    tag_28:\n        /* \"contracts/authentication.sol\":1348:1361  string memory */\n      0x60\n        /* \"contracts/authentication.sol\":1396:1400  user */\n      0x01\n        /* \"contracts/authentication.sol\":1396:1412  user[msg.sender] */\n      0x00\n        /* \"contracts/authentication.sol\":1401:1411  msg.sender */\n      caller\n        /* \"contracts/authentication.sol\":1396:1412  user[msg.sender] */\n      0xffffffffffffffffffffffffffffffffffffffff\n      and\n      0xffffffffffffffffffffffffffffffffffffffff\n      and\n      dup2\n      mstore\n      0x20\n      add\n      swap1\n      dup2\n      mstore\n      0x20\n      add\n      0x00\n      keccak256\n        /* \"contracts/authentication.sol\":1396:1424  user[msg.sender].userAddress */\n      0x05\n      add\n      0x00\n      swap1\n      sload\n      swap1\n      0x0100\n      exp\n      swap1\n      div\n      0xffffffffffffffffffffffffffffffffffffffff\n      and\n        /* \"contracts/authentication.sol\":1382:1424  msg.sender == user[msg.sender].userAddress */\n      0xffffffffffffffffffffffffffffffffffffffff\n      and\n        /* \"contracts/authentication.sol\":1382:1392  msg.sender */\n      caller\n        /* \"contracts/authentication.sol\":1382:1424  msg.sender == user[msg.sender].userAddress */\n      0xffffffffffffffffffffffffffffffffffffffff\n      and\n      eq\n        /* \"contracts/authentication.sol\":1374:1440  require(msg.sender == user[msg.sender].userAddress, \"Not allowed\") */\n      tag_68\n      jumpi\n      mload(0x40)\n      0x08c379a000000000000000000000000000000000000000000000000000000000\n      dup2\n      mstore\n      0x04\n      add\n      tag_69\n      swap1\n      tag_70\n      jump\t// in\n    tag_69:\n      mload(0x40)\n      dup1\n      swap2\n      sub\n      swap1\n      revert\n    tag_68:\n        /* \"contracts/authentication.sol\":1460:1464  user */\n      0x01\n        /* \"contracts/authentication.sol\":1460:1476  user[msg.sender] */\n      0x00\n        /* \"contracts/authentication.sol\":1465:1475  msg.sender */\n      caller\n        /* \"contracts/authentication.sol\":1460:1476  user[msg.sender] */\n      0xffffffffffffffffffffffffffffffffffffffff\n      and\n      0xffffffffffffffffffffffffffffffffffffffff\n      and\n      dup2\n      mstore\n      0x20\n      add\n      swap1\n      dup2\n      mstore\n      0x20\n      add\n      0x00\n      keccak256\n        /* \"contracts/authentication.sol\":1460:1490  user[msg.sender].signatureHash */\n      0x00\n      add\n        /* \"contracts/authentication.sol\":1453:1490  return user[msg.sender].signatureHash */\n      dup1\n      sload\n      tag_71\n      swap1\n      tag_37\n      jump\t// in\n    tag_71:\n      dup1\n      0x1f\n      add\n      0x20\n      dup1\n      swap2\n      div\n      mul\n      0x20\n      add\n      mload(0x40)\n      swap1\n      dup2\n      add\n      0x40\n      mstore\n      dup1\n      swap3\n      swap2\n      swap1\n      dup2\n      dup2\n      mstore\n      0x20\n      add\n      dup3\n      dup1\n      sload\n      tag_72\n      swap1\n      tag_37\n      jump\t// in\n    tag_72:\n      dup1\n      iszero\n      tag_73\n      jumpi\n      dup1\n      0x1f\n      lt\n      tag_74\n      jumpi\n      0x0100\n      dup1\n      dup4\n      sload\n      div\n      mul\n      dup4\n      mstore\n      swap2\n      0x20\n      add\n      swap2\n      jump(tag_73)\n    tag_74:\n      dup3\n      add\n      swap2\n      swap1\n      0x00\n      mstore\n      keccak256(0x00, 0x20)\n      swap1\n    tag_75:\n      dup2\n      sload\n      dup2\n      mstore\n      swap1\n      0x01\n      add\n      swap1\n      0x20\n      add\n      dup1\n      dup4\n      gt\n      tag_75\n      jumpi\n      dup3\n      swap1\n      sub\n      0x1f\n      and\n      dup3\n      add\n      swap2\n    tag_73:\n      pop\n      pop\n      pop\n      pop\n      pop\n      swap1\n      pop\n        /* \"contracts/authentication.sol\":1299:1498  function getSignatureHash() public view returns (string memory) {\r... */\n      swap1\n      jump\t// out\n        /* \"contracts/authentication.sol\":1506:1616  function getUserAddress() public view returns (address) {\r... */\n    tag_31:\n        /* \"contracts/authentication.sol\":1553:1560  address */\n      0x00\n        /* \"contracts/authentication.sol\":1580:1584  user */\n      0x01\n        /* \"contracts/authentication.sol\":1580:1596  user[msg.sender] */\n      0x00\n        /* \"contracts/authentication.sol\":1585:1595  msg.sender */\n      caller\n        /* \"contracts/authentication.sol\":1580:1596  user[msg.sender] */\n      0xffffffffffffffffffffffffffffffffffffffff\n      and\n      0xffffffffffffffffffffffffffffffffffffffff\n      and\n      dup2\n      mstore\n      0x20\n      add\n      swap1\n      dup2\n      mstore\n      0x20\n      add\n      0x00\n      keccak256\n        /* \"contracts/authentication.sol\":1580:1608  user[msg.sender].userAddress */\n      0x05\n      add\n      0x00\n      swap1\n      sload\n      swap1\n      0x0100\n      exp\n      swap1\n      div\n      0xffffffffffffffffffffffffffffffffffffffff\n      and\n        /* \"contracts/authentication.sol\":1573:1608  return user[msg.sender].userAddress */\n      swap1\n      pop\n        /* \"contracts/authentication.sol\":1506:1616  function getUserAddress() public view returns (address) {\r... */\n      swap1\n      jump\t// out\n    tag_50:\n      dup3\n      dup1\n      sload\n      tag_77\n      swap1\n      tag_37\n      jump\t// in\n    tag_77:\n      swap1\n      0x00\n      mstore\n      keccak256(0x00, 0x20)\n      swap1\n      0x1f\n      add\n      0x20\n      swap1\n      div\n      dup2\n      add\n      swap3\n      dup3\n      tag_79\n      jumpi\n      0x00\n      dup6\n      sstore\n      jump(tag_78)\n    tag_79:\n      dup3\n      0x1f\n      lt\n      tag_80\n      jumpi\n      dup1\n      mload\n      not(0xff)\n      and\n      dup4\n      dup1\n      add\n      or\n      dup6\n      sstore\n      jump(tag_78)\n    tag_80:\n      dup3\n      dup1\n      add\n      0x01\n      add\n      dup6\n      sstore\n      dup3\n      iszero\n      tag_78\n      jumpi\n      swap2\n      dup3\n      add\n    tag_81:\n      dup3\n      dup2\n      gt\n      iszero\n      tag_82\n      jumpi\n      dup3\n      mload\n      dup3\n      sstore\n      swap2\n      0x20\n      add\n      swap2\n      swap1\n      0x01\n      add\n      swap1\n      jump(tag_81)\n    tag_82:\n    tag_78:\n      pop\n      swap1\n      pop\n      tag_83\n      swap2\n      swap1\n      tag_84\n      jump\t// in\n    tag_83:\n      pop\n      swap1\n      jump\t// out\n    tag_84:\n    tag_85:\n      dup1\n      dup3\n      gt\n      iszero\n      tag_86\n      jumpi\n      0x00\n      dup2\n      0x00\n      swap1\n      sstore\n      pop\n      0x01\n      add\n      jump(tag_85)\n    tag_86:\n      pop\n      swap1\n      jump\t// out\n        /* \"#utility.yul\":7:419   */\n    tag_88:\n        /* \"#utility.yul\":85:90   */\n      0x00\n        /* \"#utility.yul\":110:176   */\n      tag_90\n        /* \"#utility.yul\":126:175   */\n      tag_91\n        /* \"#utility.yul\":168:174   */\n      dup5\n        /* \"#utility.yul\":126:175   */\n      tag_92\n      jump\t// in\n    tag_91:\n        /* \"#utility.yul\":110:176   */\n      tag_93\n      jump\t// in\n    tag_90:\n        /* \"#utility.yul\":101:176   */\n      swap1\n      pop\n        /* \"#utility.yul\":199:205   */\n      dup3\n        /* \"#utility.yul\":192:197   */\n      dup2\n        /* \"#utility.yul\":185:206   */\n      mstore\n        /* \"#utility.yul\":237:241   */\n      0x20\n        /* \"#utility.yul\":230:235   */\n      dup2\n        /* \"#utility.yul\":226:242   */\n      add\n        /* \"#utility.yul\":275:278   */\n      dup5\n        /* \"#utility.yul\":266:272   */\n      dup5\n        /* \"#utility.yul\":261:264   */\n      dup5\n        /* \"#utility.yul\":257:273   */\n      add\n        /* \"#utility.yul\":254:279   */\n      gt\n        /* \"#utility.yul\":251:253   */\n      iszero\n      tag_94\n      jumpi\n        /* \"#utility.yul\":282:361   */\n      tag_95\n      tag_96\n      jump\t// in\n    tag_95:\n        /* \"#utility.yul\":251:253   */\n    tag_94:\n        /* \"#utility.yul\":372:413   */\n      tag_97\n        /* \"#utility.yul\":406:412   */\n      dup5\n        /* \"#utility.yul\":401:404   */\n      dup3\n        /* \"#utility.yul\":396:399   */\n      dup6\n        /* \"#utility.yul\":372:413   */\n      tag_98\n      jump\t// in\n    tag_97:\n        /* \"#utility.yul\":91:419   */\n      pop\n      swap4\n      swap3\n      pop\n      pop\n      pop\n      jump\t// out\n        /* \"#utility.yul\":439:779   */\n    tag_99:\n        /* \"#utility.yul\":495:500   */\n      0x00\n        /* \"#utility.yul\":544:547   */\n      dup3\n        /* \"#utility.yul\":537:541   */\n      0x1f\n        /* \"#utility.yul\":529:535   */\n      dup4\n        /* \"#utility.yul\":525:542   */\n      add\n        /* \"#utility.yul\":521:548   */\n      slt\n        /* \"#utility.yul\":511:513   */\n      tag_101\n      jumpi\n        /* \"#utility.yul\":552:631   */\n      tag_102\n      tag_103\n      jump\t// in\n    tag_102:\n        /* \"#utility.yul\":511:513   */\n    tag_101:\n        /* \"#utility.yul\":669:675   */\n      dup2\n        /* \"#utility.yul\":656:676   */\n      calldataload\n        /* \"#utility.yul\":694:773   */\n      tag_104\n        /* \"#utility.yul\":769:772   */\n      dup5\n        /* \"#utility.yul\":761:767   */\n      dup3\n        /* \"#utility.yul\":754:758   */\n      0x20\n        /* \"#utility.yul\":746:752   */\n      dup7\n        /* \"#utility.yul\":742:759   */\n      add\n        /* \"#utility.yul\":694:773   */\n      tag_88\n      jump\t// in\n    tag_104:\n        /* \"#utility.yul\":685:773   */\n      swap2\n      pop\n        /* \"#utility.yul\":501:779   */\n      pop\n      swap3\n      swap2\n      pop\n      pop\n      jump\t// out\n        /* \"#utility.yul\":785:1619   */\n    tag_15:\n        /* \"#utility.yul\":873:879   */\n      0x00\n        /* \"#utility.yul\":881:887   */\n      dup1\n        /* \"#utility.yul\":930:932   */\n      0x40\n        /* \"#utility.yul\":918:927   */\n      dup4\n        /* \"#utility.yul\":909:916   */\n      dup6\n        /* \"#utility.yul\":905:928   */\n      sub\n        /* \"#utility.yul\":901:933   */\n      slt\n        /* \"#utility.yul\":898:900   */\n      iszero\n      tag_106\n      jumpi\n        /* \"#utility.yul\":936:1015   */\n      tag_107\n      tag_108\n      jump\t// in\n    tag_107:\n        /* \"#utility.yul\":898:900   */\n    tag_106:\n        /* \"#utility.yul\":1084:1085   */\n      0x00\n        /* \"#utility.yul\":1073:1082   */\n      dup4\n        /* \"#utility.yul\":1069:1086   */\n      add\n        /* \"#utility.yul\":1056:1087   */\n      calldataload\n        /* \"#utility.yul\":1114:1132   */\n      0xffffffffffffffff\n        /* \"#utility.yul\":1106:1112   */\n      dup2\n        /* \"#utility.yul\":1103:1133   */\n      gt\n        /* \"#utility.yul\":1100:1102   */\n      iszero\n      tag_109\n      jumpi\n        /* \"#utility.yul\":1136:1215   */\n      tag_110\n      tag_111\n      jump\t// in\n    tag_110:\n        /* \"#utility.yul\":1100:1102   */\n    tag_109:\n        /* \"#utility.yul\":1241:1304   */\n      tag_112\n        /* \"#utility.yul\":1296:1303   */\n      dup6\n        /* \"#utility.yul\":1287:1293   */\n      dup3\n        /* \"#utility.yul\":1276:1285   */\n      dup7\n        /* \"#utility.yul\":1272:1294   */\n      add\n        /* \"#utility.yul\":1241:1304   */\n      tag_99\n      jump\t// in\n    tag_112:\n        /* \"#utility.yul\":1231:1304   */\n      swap3\n      pop\n        /* \"#utility.yul\":1027:1314   */\n      pop\n        /* \"#utility.yul\":1381:1383   */\n      0x20\n        /* \"#utility.yul\":1370:1379   */\n      dup4\n        /* \"#utility.yul\":1366:1384   */\n      add\n        /* \"#utility.yul\":1353:1385   */\n      calldataload\n        /* \"#utility.yul\":1412:1430   */\n      0xffffffffffffffff\n        /* \"#utility.yul\":1404:1410   */\n      dup2\n        /* \"#utility.yul\":1401:1431   */\n      gt\n        /* \"#utility.yul\":1398:1400   */\n      iszero\n      tag_113\n      jumpi\n        /* \"#utility.yul\":1434:1513   */\n      tag_114\n      tag_111\n      jump\t// in\n    tag_114:\n        /* \"#utility.yul\":1398:1400   */\n    tag_113:\n        /* \"#utility.yul\":1539:1602   */\n      tag_115\n        /* \"#utility.yul\":1594:1601   */\n      dup6\n        /* \"#utility.yul\":1585:1591   */\n      dup3\n        /* \"#utility.yul\":1574:1583   */\n      dup7\n        /* \"#utility.yul\":1570:1592   */\n      add\n        /* \"#utility.yul\":1539:1602   */\n      tag_99\n      jump\t// in\n    tag_115:\n        /* \"#utility.yul\":1529:1602   */\n      swap2\n      pop\n        /* \"#utility.yul\":1324:1612   */\n      pop\n        /* \"#utility.yul\":888:1619   */\n      swap3\n      pop\n      swap3\n      swap1\n      pop\n      jump\t// out\n        /* \"#utility.yul\":1625:3436   */\n    tag_21:\n        /* \"#utility.yul\":1770:1776   */\n      0x00\n        /* \"#utility.yul\":1778:1784   */\n      dup1\n        /* \"#utility.yul\":1786:1792   */\n      0x00\n        /* \"#utility.yul\":1794:1800   */\n      dup1\n        /* \"#utility.yul\":1802:1808   */\n      0x00\n        /* \"#utility.yul\":1851:1854   */\n      0xa0\n        /* \"#utility.yul\":1839:1848   */\n      dup7\n        /* \"#utility.yul\":1830:1837   */\n      dup9\n        /* \"#utility.yul\":1826:1849   */\n      sub\n        /* \"#utility.yul\":1822:1855   */\n      slt\n        /* \"#utility.yul\":1819:1821   */\n      iszero\n      tag_117\n      jumpi\n        /* \"#utility.yul\":1858:1937   */\n      tag_118\n      tag_108\n      jump\t// in\n    tag_118:\n        /* \"#utility.yul\":1819:1821   */\n    tag_117:\n        /* \"#utility.yul\":2006:2007   */\n      0x00\n        /* \"#utility.yul\":1995:2004   */\n      dup7\n        /* \"#utility.yul\":1991:2008   */\n      add\n        /* \"#utility.yul\":1978:2009   */\n      calldataload\n        /* \"#utility.yul\":2036:2054   */\n      0xffffffffffffffff\n        /* \"#utility.yul\":2028:2034   */\n      dup2\n        /* \"#utility.yul\":2025:2055   */\n      gt\n        /* \"#utility.yul\":2022:2024   */\n      iszero\n      tag_119\n      jumpi\n        /* \"#utility.yul\":2058:2137   */\n      tag_120\n      tag_111\n      jump\t// in\n    tag_120:\n        /* \"#utility.yul\":2022:2024   */\n    tag_119:\n        /* \"#utility.yul\":2163:2226   */\n      tag_121\n        /* \"#utility.yul\":2218:2225   */\n      dup9\n        /* \"#utility.yul\":2209:2215   */\n      dup3\n        /* \"#utility.yul\":2198:2207   */\n      dup10\n        /* \"#utility.yul\":2194:2216   */\n      add\n        /* \"#utility.yul\":2163:2226   */\n      tag_99\n      jump\t// in\n    tag_121:\n        /* \"#utility.yul\":2153:2226   */\n      swap6\n      pop\n        /* \"#utility.yul\":1949:2236   */\n      pop\n        /* \"#utility.yul\":2303:2305   */\n      0x20\n        /* \"#utility.yul\":2292:2301   */\n      dup7\n        /* \"#utility.yul\":2288:2306   */\n      add\n        /* \"#utility.yul\":2275:2307   */\n      calldataload\n        /* \"#utility.yul\":2334:2352   */\n      0xffffffffffffffff\n        /* \"#utility.yul\":2326:2332   */\n      dup2\n        /* \"#utility.yul\":2323:2353   */\n      gt\n        /* \"#utility.yul\":2320:2322   */\n      iszero\n      tag_122\n      jumpi\n        /* \"#utility.yul\":2356:2435   */\n      tag_123\n      tag_111\n      jump\t// in\n    tag_123:\n        /* \"#utility.yul\":2320:2322   */\n    tag_122:\n        /* \"#utility.yul\":2461:2524   */\n      tag_124\n        /* \"#utility.yul\":2516:2523   */\n      dup9\n        /* \"#utility.yul\":2507:2513   */\n      dup3\n        /* \"#utility.yul\":2496:2505   */\n      dup10\n        /* \"#utility.yul\":2492:2514   */\n      add\n        /* \"#utility.yul\":2461:2524   */\n      tag_99\n      jump\t// in\n    tag_124:\n        /* \"#utility.yul\":2451:2524   */\n      swap5\n      pop\n        /* \"#utility.yul\":2246:2534   */\n      pop\n        /* \"#utility.yul\":2601:2603   */\n      0x40\n        /* \"#utility.yul\":2590:2599   */\n      dup7\n        /* \"#utility.yul\":2586:2604   */\n      add\n        /* \"#utility.yul\":2573:2605   */\n      calldataload\n        /* \"#utility.yul\":2632:2650   */\n      0xffffffffffffffff\n        /* \"#utility.yul\":2624:2630   */\n      dup2\n        /* \"#utility.yul\":2621:2651   */\n      gt\n        /* \"#utility.yul\":2618:2620   */\n      iszero\n      tag_125\n      jumpi\n        /* \"#utility.yul\":2654:2733   */\n      tag_126\n      tag_111\n      jump\t// in\n    tag_126:\n        /* \"#utility.yul\":2618:2620   */\n    tag_125:\n        /* \"#utility.yul\":2759:2822   */\n      tag_127\n        /* \"#utility.yul\":2814:2821   */\n      dup9\n        /* \"#utility.yul\":2805:2811   */\n      dup3\n        /* \"#utility.yul\":2794:2803   */\n      dup10\n        /* \"#utility.yul\":2790:2812   */\n      add\n        /* \"#utility.yul\":2759:2822   */\n      tag_99\n      jump\t// in\n    tag_127:\n        /* \"#utility.yul\":2749:2822   */\n      swap4\n      pop\n        /* \"#utility.yul\":2544:2832   */\n      pop\n        /* \"#utility.yul\":2899:2901   */\n      0x60\n        /* \"#utility.yul\":2888:2897   */\n      dup7\n        /* \"#utility.yul\":2884:2902   */\n      add\n        /* \"#utility.yul\":2871:2903   */\n      calldataload\n        /* \"#utility.yul\":2930:2948   */\n      0xffffffffffffffff\n        /* \"#utility.yul\":2922:2928   */\n      dup2\n        /* \"#utility.yul\":2919:2949   */\n      gt\n        /* \"#utility.yul\":2916:2918   */\n      iszero\n      tag_128\n      jumpi\n        /* \"#utility.yul\":2952:3031   */\n      tag_129\n      tag_111\n      jump\t// in\n    tag_129:\n        /* \"#utility.yul\":2916:2918   */\n    tag_128:\n        /* \"#utility.yul\":3057:3120   */\n      tag_130\n        /* \"#utility.yul\":3112:3119   */\n      dup9\n        /* \"#utility.yul\":3103:3109   */\n      dup3\n        /* \"#utility.yul\":3092:3101   */\n      dup10\n        /* \"#utility.yul\":3088:3110   */\n      add\n        /* \"#utility.yul\":3057:3120   */\n      tag_99\n      jump\t// in\n    tag_130:\n        /* \"#utility.yul\":3047:3120   */\n      swap3\n      pop\n        /* \"#utility.yul\":2842:3130   */\n      pop\n        /* \"#utility.yul\":3197:3200   */\n      0x80\n        /* \"#utility.yul\":3186:3195   */\n      dup7\n        /* \"#utility.yul\":3182:3201   */\n      add\n        /* \"#utility.yul\":3169:3202   */\n      calldataload\n        /* \"#utility.yul\":3229:3247   */\n      0xffffffffffffffff\n        /* \"#utility.yul\":3221:3227   */\n      dup2\n        /* \"#utility.yul\":3218:3248   */\n      gt\n        /* \"#utility.yul\":3215:3217   */\n      iszero\n      tag_131\n      jumpi\n        /* \"#utility.yul\":3251:3330   */\n      tag_132\n      tag_111\n      jump\t// in\n    tag_132:\n        /* \"#utility.yul\":3215:3217   */\n    tag_131:\n        /* \"#utility.yul\":3356:3419   */\n      tag_133\n        /* \"#utility.yul\":3411:3418   */\n      dup9\n        /* \"#utility.yul\":3402:3408   */\n      dup3\n        /* \"#utility.yul\":3391:3400   */\n      dup10\n        /* \"#utility.yul\":3387:3409   */\n      add\n        /* \"#utility.yul\":3356:3419   */\n      tag_99\n      jump\t// in\n    tag_133:\n        /* \"#utility.yul\":3346:3419   */\n      swap2\n      pop\n        /* \"#utility.yul\":3140:3429   */\n      pop\n        /* \"#utility.yul\":1809:3436   */\n      swap3\n      swap6\n      pop\n      swap3\n      swap6\n      swap1\n      swap4\n      pop\n      jump\t// out\n        /* \"#utility.yul\":3442:3560   */\n    tag_134:\n        /* \"#utility.yul\":3529:3553   */\n      tag_136\n        /* \"#utility.yul\":3547:3552   */\n      dup2\n        /* \"#utility.yul\":3529:3553   */\n      tag_137\n      jump\t// in\n    tag_136:\n        /* \"#utility.yul\":3524:3527   */\n      dup3\n        /* \"#utility.yul\":3517:3554   */\n      mstore\n        /* \"#utility.yul\":3507:3560   */\n      pop\n      pop\n      jump\t// out\n        /* \"#utility.yul\":3566:3930   */\n    tag_138:\n        /* \"#utility.yul\":3654:3657   */\n      0x00\n        /* \"#utility.yul\":3682:3721   */\n      tag_140\n        /* \"#utility.yul\":3715:3720   */\n      dup3\n        /* \"#utility.yul\":3682:3721   */\n      tag_141\n      jump\t// in\n    tag_140:\n        /* \"#utility.yul\":3737:3808   */\n      tag_142\n        /* \"#utility.yul\":3801:3807   */\n      dup2\n        /* \"#utility.yul\":3796:3799   */\n      dup6\n        /* \"#utility.yul\":3737:3808   */\n      tag_143\n      jump\t// in\n    tag_142:\n        /* \"#utility.yul\":3730:3808   */\n      swap4\n      pop\n        /* \"#utility.yul\":3817:3869   */\n      tag_144\n        /* \"#utility.yul\":3862:3868   */\n      dup2\n        /* \"#utility.yul\":3857:3860   */\n      dup6\n        /* \"#utility.yul\":3850:3854   */\n      0x20\n        /* \"#utility.yul\":3843:3848   */\n      dup7\n        /* \"#utility.yul\":3839:3855   */\n      add\n        /* \"#utility.yul\":3817:3869   */\n      tag_145\n      jump\t// in\n    tag_144:\n        /* \"#utility.yul\":3894:3923   */\n      tag_146\n        /* \"#utility.yul\":3916:3922   */\n      dup2\n        /* \"#utility.yul\":3894:3923   */\n      tag_147\n      jump\t// in\n    tag_146:\n        /* \"#utility.yul\":3889:3892   */\n      dup5\n        /* \"#utility.yul\":3885:3924   */\n      add\n        /* \"#utility.yul\":3878:3924   */\n      swap2\n      pop\n        /* \"#utility.yul\":3658:3930   */\n      pop\n      swap3\n      swap2\n      pop\n      pop\n      jump\t// out\n        /* \"#utility.yul\":3936:4302   */\n    tag_148:\n        /* \"#utility.yul\":4078:4081   */\n      0x00\n        /* \"#utility.yul\":4099:4166   */\n      tag_150\n        /* \"#utility.yul\":4163:4165   */\n      0x0b\n        /* \"#utility.yul\":4158:4161   */\n      dup4\n        /* \"#utility.yul\":4099:4166   */\n      tag_143\n      jump\t// in\n    tag_150:\n        /* \"#utility.yul\":4092:4166   */\n      swap2\n      pop\n        /* \"#utility.yul\":4175:4268   */\n      tag_151\n        /* \"#utility.yul\":4264:4267   */\n      dup3\n        /* \"#utility.yul\":4175:4268   */\n      tag_152\n      jump\t// in\n    tag_151:\n        /* \"#utility.yul\":4293:4295   */\n      0x20\n        /* \"#utility.yul\":4288:4291   */\n      dup3\n        /* \"#utility.yul\":4284:4296   */\n      add\n        /* \"#utility.yul\":4277:4296   */\n      swap1\n      pop\n        /* \"#utility.yul\":4082:4302   */\n      swap2\n      swap1\n      pop\n      jump\t// out\n        /* \"#utility.yul\":4308:4674   */\n    tag_153:\n        /* \"#utility.yul\":4450:4453   */\n      0x00\n        /* \"#utility.yul\":4471:4538   */\n      tag_155\n        /* \"#utility.yul\":4535:4537   */\n      0x17\n        /* \"#utility.yul\":4530:4533   */\n      dup4\n        /* \"#utility.yul\":4471:4538   */\n      tag_143\n      jump\t// in\n    tag_155:\n        /* \"#utility.yul\":4464:4538   */\n      swap2\n      pop\n        /* \"#utility.yul\":4547:4640   */\n      tag_156\n        /* \"#utility.yul\":4636:4639   */\n      dup3\n        /* \"#utility.yul\":4547:4640   */\n      tag_157\n      jump\t// in\n    tag_156:\n        /* \"#utility.yul\":4665:4667   */\n      0x20\n        /* \"#utility.yul\":4660:4663   */\n      dup3\n        /* \"#utility.yul\":4656:4668   */\n      add\n        /* \"#utility.yul\":4649:4668   */\n      swap1\n      pop\n        /* \"#utility.yul\":4454:4674   */\n      swap2\n      swap1\n      pop\n      jump\t// out\n        /* \"#utility.yul\":4680:5046   */\n    tag_158:\n        /* \"#utility.yul\":4822:4825   */\n      0x00\n        /* \"#utility.yul\":4843:4910   */\n      tag_160\n        /* \"#utility.yul\":4907:4909   */\n      0x2f\n        /* \"#utility.yul\":4902:4905   */\n      dup4\n        /* \"#utility.yul\":4843:4910   */\n      tag_143\n      jump\t// in\n    tag_160:\n        /* \"#utility.yul\":4836:4910   */\n      swap2\n      pop\n        /* \"#utility.yul\":4919:5012   */\n      tag_161\n        /* \"#utility.yul\":5008:5011   */\n      dup3\n        /* \"#utility.yul\":4919:5012   */\n      tag_162\n      jump\t// in\n    tag_161:\n        /* \"#utility.yul\":5037:5039   */\n      0x40\n        /* \"#utility.yul\":5032:5035   */\n      dup3\n        /* \"#utility.yul\":5028:5040   */\n      add\n        /* \"#utility.yul\":5021:5040   */\n      swap1\n      pop\n        /* \"#utility.yul\":4826:5046   */\n      swap2\n      swap1\n      pop\n      jump\t// out\n        /* \"#utility.yul\":5052:5170   */\n    tag_163:\n        /* \"#utility.yul\":5139:5163   */\n      tag_165\n        /* \"#utility.yul\":5157:5162   */\n      dup2\n        /* \"#utility.yul\":5139:5163   */\n      tag_166\n      jump\t// in\n    tag_165:\n        /* \"#utility.yul\":5134:5137   */\n      dup3\n        /* \"#utility.yul\":5127:5164   */\n      mstore\n        /* \"#utility.yul\":5117:5170   */\n      pop\n      pop\n      jump\t// out\n        /* \"#utility.yul\":5176:5398   */\n    tag_33:\n        /* \"#utility.yul\":5269:5273   */\n      0x00\n        /* \"#utility.yul\":5307:5309   */\n      0x20\n        /* \"#utility.yul\":5296:5305   */\n      dup3\n        /* \"#utility.yul\":5292:5310   */\n      add\n        /* \"#utility.yul\":5284:5310   */\n      swap1\n      pop\n        /* \"#utility.yul\":5320:5391   */\n      tag_168\n        /* \"#utility.yul\":5388:5389   */\n      0x00\n        /* \"#utility.yul\":5377:5386   */\n      dup4\n        /* \"#utility.yul\":5373:5390   */\n      add\n        /* \"#utility.yul\":5364:5370   */\n      dup5\n        /* \"#utility.yul\":5320:5391   */\n      tag_134\n      jump\t// in\n    tag_168:\n        /* \"#utility.yul\":5274:5398   */\n      swap3\n      swap2\n      pop\n      pop\n      jump\t// out\n        /* \"#utility.yul\":5404:5717   */\n    tag_18:\n        /* \"#utility.yul\":5517:5521   */\n      0x00\n        /* \"#utility.yul\":5555:5557   */\n      0x20\n        /* \"#utility.yul\":5544:5553   */\n      dup3\n        /* \"#utility.yul\":5540:5558   */\n      add\n        /* \"#utility.yul\":5532:5558   */\n      swap1\n      pop\n        /* \"#utility.yul\":5604:5613   */\n      dup2\n        /* \"#utility.yul\":5598:5602   */\n      dup2\n        /* \"#utility.yul\":5594:5614   */\n      sub\n        /* \"#utility.yul\":5590:5591   */\n      0x00\n        /* \"#utility.yul\":5579:5588   */\n      dup4\n        /* \"#utility.yul\":5575:5592   */\n      add\n        /* \"#utility.yul\":5568:5615   */\n      mstore\n        /* \"#utility.yul\":5632:5710   */\n      tag_170\n        /* \"#utility.yul\":5705:5709   */\n      dup2\n        /* \"#utility.yul\":5696:5702   */\n      dup5\n        /* \"#utility.yul\":5632:5710   */\n      tag_138\n      jump\t// in\n    tag_170:\n        /* \"#utility.yul\":5624:5710   */\n      swap1\n      pop\n        /* \"#utility.yul\":5522:5717   */\n      swap3\n      swap2\n      pop\n      pop\n      jump\t// out\n        /* \"#utility.yul\":5723:6142   */\n    tag_70:\n        /* \"#utility.yul\":5889:5893   */\n      0x00\n        /* \"#utility.yul\":5927:5929   */\n      0x20\n        /* \"#utility.yul\":5916:5925   */\n      dup3\n        /* \"#utility.yul\":5912:5930   */\n      add\n        /* \"#utility.yul\":5904:5930   */\n      swap1\n      pop\n        /* \"#utility.yul\":5976:5985   */\n      dup2\n        /* \"#utility.yul\":5970:5974   */\n      dup2\n        /* \"#utility.yul\":5966:5986   */\n      sub\n        /* \"#utility.yul\":5962:5963   */\n      0x00\n        /* \"#utility.yul\":5951:5960   */\n      dup4\n        /* \"#utility.yul\":5947:5964   */\n      add\n        /* \"#utility.yul\":5940:5987   */\n      mstore\n        /* \"#utility.yul\":6004:6135   */\n      tag_172\n        /* \"#utility.yul\":6130:6134   */\n      dup2\n        /* \"#utility.yul\":6004:6135   */\n      tag_148\n      jump\t// in\n    tag_172:\n        /* \"#utility.yul\":5996:6135   */\n      swap1\n      pop\n        /* \"#utility.yul\":5894:6142   */\n      swap2\n      swap1\n      pop\n      jump\t// out\n        /* \"#utility.yul\":6148:6567   */\n    tag_59:\n        /* \"#utility.yul\":6314:6318   */\n      0x00\n        /* \"#utility.yul\":6352:6354   */\n      0x20\n        /* \"#utility.yul\":6341:6350   */\n      dup3\n        /* \"#utility.yul\":6337:6355   */\n      add\n        /* \"#utility.yul\":6329:6355   */\n      swap1\n      pop\n        /* \"#utility.yul\":6401:6410   */\n      dup2\n        /* \"#utility.yul\":6395:6399   */\n      dup2\n        /* \"#utility.yul\":6391:6411   */\n      sub\n        /* \"#utility.yul\":6387:6388   */\n      0x00\n        /* \"#utility.yul\":6376:6385   */\n      dup4\n        /* \"#utility.yul\":6372:6389   */\n      add\n        /* \"#utility.yul\":6365:6412   */\n      mstore\n        /* \"#utility.yul\":6429:6560   */\n      tag_174\n        /* \"#utility.yul\":6555:6559   */\n      dup2\n        /* \"#utility.yul\":6429:6560   */\n      tag_153\n      jump\t// in\n    tag_174:\n        /* \"#utility.yul\":6421:6560   */\n      swap1\n      pop\n        /* \"#utility.yul\":6319:6567   */\n      swap2\n      swap1\n      pop\n      jump\t// out\n        /* \"#utility.yul\":6573:6992   */\n    tag_47:\n        /* \"#utility.yul\":6739:6743   */\n      0x00\n        /* \"#utility.yul\":6777:6779   */\n      0x20\n        /* \"#utility.yul\":6766:6775   */\n      dup3\n        /* \"#utility.yul\":6762:6780   */\n      add\n        /* \"#utility.yul\":6754:6780   */\n      swap1\n      pop\n        /* \"#utility.yul\":6826:6835   */\n      dup2\n        /* \"#utility.yul\":6820:6824   */\n      dup2\n        /* \"#utility.yul\":6816:6836   */\n      sub\n        /* \"#utility.yul\":6812:6813   */\n      0x00\n        /* \"#utility.yul\":6801:6810   */\n      dup4\n        /* \"#utility.yul\":6797:6814   */\n      add\n        /* \"#utility.yul\":6790:6837   */\n      mstore\n        /* \"#utility.yul\":6854:6985   */\n      tag_176\n        /* \"#utility.yul\":6980:6984   */\n      dup2\n        /* \"#utility.yul\":6854:6985   */\n      tag_158\n      jump\t// in\n    tag_176:\n        /* \"#utility.yul\":6846:6985   */\n      swap1\n      pop\n        /* \"#utility.yul\":6744:6992   */\n      swap2\n      swap1\n      pop\n      jump\t// out\n        /* \"#utility.yul\":6998:7220   */\n    tag_12:\n        /* \"#utility.yul\":7091:7095   */\n      0x00\n        /* \"#utility.yul\":7129:7131   */\n      0x20\n        /* \"#utility.yul\":7118:7127   */\n      dup3\n        /* \"#utility.yul\":7114:7132   */\n      add\n        /* \"#utility.yul\":7106:7132   */\n      swap1\n      pop\n        /* \"#utility.yul\":7142:7213   */\n      tag_178\n        /* \"#utility.yul\":7210:7211   */\n      0x00\n        /* \"#utility.yul\":7199:7208   */\n      dup4\n        /* \"#utility.yul\":7195:7212   */\n      add\n        /* \"#utility.yul\":7186:7192   */\n      dup5\n        /* \"#utility.yul\":7142:7213   */\n      tag_163\n      jump\t// in\n    tag_178:\n        /* \"#utility.yul\":7096:7220   */\n      swap3\n      swap2\n      pop\n      pop\n      jump\t// out\n        /* \"#utility.yul\":7226:7355   */\n    tag_93:\n        /* \"#utility.yul\":7260:7266   */\n      0x00\n        /* \"#utility.yul\":7287:7307   */\n      tag_180\n      tag_181\n      jump\t// in\n    tag_180:\n        /* \"#utility.yul\":7277:7307   */\n      swap1\n      pop\n        /* \"#utility.yul\":7316:7349   */\n      tag_182\n        /* \"#utility.yul\":7344:7348   */\n      dup3\n        /* \"#utility.yul\":7336:7342   */\n      dup3\n        /* \"#utility.yul\":7316:7349   */\n      tag_183\n      jump\t// in\n    tag_182:\n        /* \"#utility.yul\":7267:7355   */\n      swap2\n      swap1\n      pop\n      jump\t// out\n        /* \"#utility.yul\":7361:7436   */\n    tag_181:\n        /* \"#utility.yul\":7394:7400   */\n      0x00\n        /* \"#utility.yul\":7427:7429   */\n      0x40\n        /* \"#utility.yul\":7421:7430   */\n      mload\n        /* \"#utility.yul\":7411:7430   */\n      swap1\n      pop\n        /* \"#utility.yul\":7401:7436   */\n      swap1\n      jump\t// out\n        /* \"#utility.yul\":7442:7750   */\n    tag_92:\n        /* \"#utility.yul\":7504:7508   */\n      0x00\n        /* \"#utility.yul\":7594:7612   */\n      0xffffffffffffffff\n        /* \"#utility.yul\":7586:7592   */\n      dup3\n        /* \"#utility.yul\":7583:7613   */\n      gt\n        /* \"#utility.yul\":7580:7582   */\n      iszero\n      tag_186\n      jumpi\n        /* \"#utility.yul\":7616:7634   */\n      tag_187\n      tag_188\n      jump\t// in\n    tag_187:\n        /* \"#utility.yul\":7580:7582   */\n    tag_186:\n        /* \"#utility.yul\":7654:7683   */\n      tag_189\n        /* \"#utility.yul\":7676:7682   */\n      dup3\n        /* \"#utility.yul\":7654:7683   */\n      tag_147\n      jump\t// in\n    tag_189:\n        /* \"#utility.yul\":7646:7683   */\n      swap1\n      pop\n        /* \"#utility.yul\":7738:7742   */\n      0x20\n        /* \"#utility.yul\":7732:7736   */\n      dup2\n        /* \"#utility.yul\":7728:7743   */\n      add\n        /* \"#utility.yul\":7720:7743   */\n      swap1\n      pop\n        /* \"#utility.yul\":7509:7750   */\n      swap2\n      swap1\n      pop\n      jump\t// out\n        /* \"#utility.yul\":7756:7855   */\n    tag_141:\n        /* \"#utility.yul\":7808:7814   */\n      0x00\n        /* \"#utility.yul\":7842:7847   */\n      dup2\n        /* \"#utility.yul\":7836:7848   */\n      mload\n        /* \"#utility.yul\":7826:7848   */\n      swap1\n      pop\n        /* \"#utility.yul\":7815:7855   */\n      swap2\n      swap1\n      pop\n      jump\t// out\n        /* \"#utility.yul\":7861:8030   */\n    tag_143:\n        /* \"#utility.yul\":7945:7956   */\n      0x00\n        /* \"#utility.yul\":7979:7985   */\n      dup3\n        /* \"#utility.yul\":7974:7977   */\n      dup3\n        /* \"#utility.yul\":7967:7986   */\n      mstore\n        /* \"#utility.yul\":8019:8023   */\n      0x20\n        /* \"#utility.yul\":8014:8017   */\n      dup3\n        /* \"#utility.yul\":8010:8024   */\n      add\n        /* \"#utility.yul\":7995:8024   */\n      swap1\n      pop\n        /* \"#utility.yul\":7957:8030   */\n      swap3\n      swap2\n      pop\n      pop\n      jump\t// out\n        /* \"#utility.yul\":8036:8132   */\n    tag_137:\n        /* \"#utility.yul\":8073:8080   */\n      0x00\n        /* \"#utility.yul\":8102:8126   */\n      tag_193\n        /* \"#utility.yul\":8120:8125   */\n      dup3\n        /* \"#utility.yul\":8102:8126   */\n      tag_194\n      jump\t// in\n    tag_193:\n        /* \"#utility.yul\":8091:8126   */\n      swap1\n      pop\n        /* \"#utility.yul\":8081:8132   */\n      swap2\n      swap1\n      pop\n      jump\t// out\n        /* \"#utility.yul\":8138:8264   */\n    tag_194:\n        /* \"#utility.yul\":8175:8182   */\n      0x00\n        /* \"#utility.yul\":8215:8257   */\n      0xffffffffffffffffffffffffffffffffffffffff\n        /* \"#utility.yul\":8208:8213   */\n      dup3\n        /* \"#utility.yul\":8204:8258   */\n      and\n        /* \"#utility.yul\":8193:8258   */\n      swap1\n      pop\n        /* \"#utility.yul\":8183:8264   */\n      swap2\n      swap1\n      pop\n      jump\t// out\n        /* \"#utility.yul\":8270:8347   */\n    tag_166:\n        /* \"#utility.yul\":8307:8314   */\n      0x00\n        /* \"#utility.yul\":8336:8341   */\n      dup2\n        /* \"#utility.yul\":8325:8341   */\n      swap1\n      pop\n        /* \"#utility.yul\":8315:8347   */\n      swap2\n      swap1\n      pop\n      jump\t// out\n        /* \"#utility.yul\":8353:8507   */\n    tag_98:\n        /* \"#utility.yul\":8437:8443   */\n      dup3\n        /* \"#utility.yul\":8432:8435   */\n      dup2\n        /* \"#utility.yul\":8427:8430   */\n      dup4\n        /* \"#utility.yul\":8414:8444   */\n      calldatacopy\n        /* \"#utility.yul\":8499:8500   */\n      0x00\n        /* \"#utility.yul\":8490:8496   */\n      dup4\n        /* \"#utility.yul\":8485:8488   */\n      dup4\n        /* \"#utility.yul\":8481:8497   */\n      add\n        /* \"#utility.yul\":8474:8501   */\n      mstore\n        /* \"#utility.yul\":8404:8507   */\n      pop\n      pop\n      pop\n      jump\t// out\n        /* \"#utility.yul\":8513:8820   */\n    tag_145:\n        /* \"#utility.yul\":8581:8582   */\n      0x00\n        /* \"#utility.yul\":8591:8704   */\n    tag_199:\n        /* \"#utility.yul\":8605:8611   */\n      dup4\n        /* \"#utility.yul\":8602:8603   */\n      dup2\n        /* \"#utility.yul\":8599:8612   */\n      lt\n        /* \"#utility.yul\":8591:8704   */\n      iszero\n      tag_201\n      jumpi\n        /* \"#utility.yul\":8690:8691   */\n      dup1\n        /* \"#utility.yul\":8685:8688   */\n      dup3\n        /* \"#utility.yul\":8681:8692   */\n      add\n        /* \"#utility.yul\":8675:8693   */\n      mload\n        /* \"#utility.yul\":8671:8672   */\n      dup2\n        /* \"#utility.yul\":8666:8669   */\n      dup5\n        /* \"#utility.yul\":8662:8673   */\n      add\n        /* \"#utility.yul\":8655:8694   */\n      mstore\n        /* \"#utility.yul\":8627:8629   */\n      0x20\n        /* \"#utility.yul\":8624:8625   */\n      dup2\n        /* \"#utility.yul\":8620:8630   */\n      add\n        /* \"#utility.yul\":8615:8630   */\n      swap1\n      pop\n        /* \"#utility.yul\":8591:8704   */\n      jump(tag_199)\n    tag_201:\n        /* \"#utility.yul\":8722:8728   */\n      dup4\n        /* \"#utility.yul\":8719:8720   */\n      dup2\n        /* \"#utility.yul\":8716:8729   */\n      gt\n        /* \"#utility.yul\":8713:8715   */\n      iszero\n      tag_202\n      jumpi\n        /* \"#utility.yul\":8802:8803   */\n      0x00\n        /* \"#utility.yul\":8793:8799   */\n      dup5\n        /* \"#utility.yul\":8788:8791   */\n      dup5\n        /* \"#utility.yul\":8784:8800   */\n      add\n        /* \"#utility.yul\":8777:8804   */\n      mstore\n        /* \"#utility.yul\":8713:8715   */\n    tag_202:\n        /* \"#utility.yul\":8562:8820   */\n      pop\n      pop\n      pop\n      pop\n      jump\t// out\n        /* \"#utility.yul\":8826:9146   */\n    tag_37:\n        /* \"#utility.yul\":8870:8876   */\n      0x00\n        /* \"#utility.yul\":8907:8908   */\n      0x02\n        /* \"#utility.yul\":8901:8905   */\n      dup3\n        /* \"#utility.yul\":8897:8909   */\n      div\n        /* \"#utility.yul\":8887:8909   */\n      swap1\n      pop\n        /* \"#utility.yul\":8954:8955   */\n      0x01\n        /* \"#utility.yul\":8948:8952   */\n      dup3\n        /* \"#utility.yul\":8944:8956   */\n      and\n        /* \"#utility.yul\":8975:8993   */\n      dup1\n        /* \"#utility.yul\":8965:8967   */\n      tag_204\n      jumpi\n        /* \"#utility.yul\":9031:9035   */\n      0x7f\n        /* \"#utility.yul\":9023:9029   */\n      dup3\n        /* \"#utility.yul\":9019:9036   */\n      and\n        /* \"#utility.yul\":9009:9036   */\n      swap2\n      pop\n        /* \"#utility.yul\":8965:8967   */\n    tag_204:\n        /* \"#utility.yul\":9093:9095   */\n      0x20\n        /* \"#utility.yul\":9085:9091   */\n      dup3\n        /* \"#utility.yul\":9082:9096   */\n      lt\n        /* \"#utility.yul\":9062:9080   */\n      dup2\n        /* \"#utility.yul\":9059:9097   */\n      eq\n        /* \"#utility.yul\":9056:9058   */\n      iszero\n      tag_205\n      jumpi\n        /* \"#utility.yul\":9112:9130   */\n      tag_206\n      tag_207\n      jump\t// in\n    tag_206:\n        /* \"#utility.yul\":9056:9058   */\n    tag_205:\n        /* \"#utility.yul\":8877:9146   */\n      pop\n      swap2\n      swap1\n      pop\n      jump\t// out\n        /* \"#utility.yul\":9152:9433   */\n    tag_183:\n        /* \"#utility.yul\":9235:9262   */\n      tag_209\n        /* \"#utility.yul\":9257:9261   */\n      dup3\n        /* \"#utility.yul\":9235:9262   */\n      tag_147\n      jump\t// in\n    tag_209:\n        /* \"#utility.yul\":9227:9233   */\n      dup2\n        /* \"#utility.yul\":9223:9263   */\n      add\n        /* \"#utility.yul\":9365:9371   */\n      dup2\n        /* \"#utility.yul\":9353:9363   */\n      dup2\n        /* \"#utility.yul\":9350:9372   */\n      lt\n        /* \"#utility.yul\":9329:9347   */\n      0xffffffffffffffff\n        /* \"#utility.yul\":9317:9327   */\n      dup3\n        /* \"#utility.yul\":9314:9348   */\n      gt\n        /* \"#utility.yul\":9311:9373   */\n      or\n        /* \"#utility.yul\":9308:9310   */\n      iszero\n      tag_210\n      jumpi\n        /* \"#utility.yul\":9376:9394   */\n      tag_211\n      tag_188\n      jump\t// in\n    tag_211:\n        /* \"#utility.yul\":9308:9310   */\n    tag_210:\n        /* \"#utility.yul\":9416:9426   */\n      dup1\n        /* \"#utility.yul\":9412:9414   */\n      0x40\n        /* \"#utility.yul\":9405:9427   */\n      mstore\n        /* \"#utility.yul\":9195:9433   */\n      pop\n      pop\n      pop\n      jump\t// out\n        /* \"#utility.yul\":9439:9672   */\n    tag_56:\n        /* \"#utility.yul\":9478:9481   */\n      0x00\n        /* \"#utility.yul\":9501:9525   */\n      tag_213\n        /* \"#utility.yul\":9519:9524   */\n      dup3\n        /* \"#utility.yul\":9501:9525   */\n      tag_166\n      jump\t// in\n    tag_213:\n        /* \"#utility.yul\":9492:9525   */\n      swap2\n      pop\n        /* \"#utility.yul\":9547:9613   */\n      0xffffffffffffffffffffffffffffffffffffffffffffffffffffffffffffffff\n        /* \"#utility.yul\":9540:9545   */\n      dup3\n        /* \"#utility.yul\":9537:9614   */\n      eq\n        /* \"#utility.yul\":9534:9536   */\n      iszero\n      tag_214\n      jumpi\n        /* \"#utility.yul\":9617:9635   */\n      tag_215\n      tag_216\n      jump\t// in\n    tag_215:\n        /* \"#utility.yul\":9534:9536   */\n    tag_214:\n        /* \"#utility.yul\":9664:9665   */\n      0x01\n        /* \"#utility.yul\":9657:9662   */\n      dup3\n        /* \"#utility.yul\":9653:9666   */\n      add\n        /* \"#utility.yul\":9646:9666   */\n      swap1\n      pop\n        /* \"#utility.yul\":9482:9672   */\n      swap2\n      swap1\n      pop\n      jump\t// out\n        /* \"#utility.yul\":9678:9858   */\n    tag_216:\n        /* \"#utility.yul\":9726:9803   */\n      0x4e487b7100000000000000000000000000000000000000000000000000000000\n        /* \"#utility.yul\":9723:9724   */\n      0x00\n        /* \"#utility.yul\":9716:9804   */\n      mstore\n        /* \"#utility.yul\":9823:9827   */\n      0x11\n        /* \"#utility.yul\":9820:9821   */\n      0x04\n        /* \"#utility.yul\":9813:9828   */\n      mstore\n        /* \"#utility.yul\":9847:9851   */\n      0x24\n        /* \"#utility.yul\":9844:9845   */\n      0x00\n        /* \"#utility.yul\":9837:9852   */\n      revert\n        /* \"#utility.yul\":9864:10044   */\n    tag_207:\n        /* \"#utility.yul\":9912:9989   */\n      0x4e487b7100000000000000000000000000000000000000000000000000000000\n        /* \"#utility.yul\":9909:9910   */\n      0x00\n        /* \"#utility.yul\":9902:9990   */\n      mstore\n        /* \"#utility.yul\":10009:10013   */\n      0x22\n        /* \"#utility.yul\":10006:10007   */\n      0x04\n        /* \"#utility.yul\":9999:10014   */\n      mstore\n        /* \"#utility.yul\":10033:10037   */\n      0x24\n        /* \"#utility.yul\":10030:10031   */\n      0x00\n        /* \"#utility.yul\":10023:10038   */\n      revert\n        /* \"#utility.yul\":10050:10230   */\n    tag_188:\n        /* \"#utility.yul\":10098:10175   */\n      0x4e487b7100000000000000000000000000000000000000000000000000000000\n        /* \"#utility.yul\":10095:10096   */\n      0x00\n        /* \"#utility.yul\":10088:10176   */\n      mstore\n        /* \"#utility.yul\":10195:10199   */\n      0x41\n        /* \"#utility.yul\":10192:10193   */\n      0x04\n        /* \"#utility.yul\":10185:10200   */\n      mstore\n        /* \"#utility.yul\":10219:10223   */\n      0x24\n        /* \"#utility.yul\":10216:10217   */\n      0x00\n        /* \"#utility.yul\":10209:10224   */\n      revert\n        /* \"#utility.yul\":10236:10353   */\n    tag_103:\n        /* \"#utility.yul\":10345:10346   */\n      0x00\n        /* \"#utility.yul\":10342:10343   */\n      dup1\n        /* \"#utility.yul\":10335:10347   */\n      revert\n        /* \"#utility.yul\":10359:10476   */\n    tag_96:\n        /* \"#utility.yul\":10468:10469   */\n      0x00\n        /* \"#utility.yul\":10465:10466   */\n      dup1\n        /* \"#utility.yul\":10458:10470   */\n      revert\n        /* \"#utility.yul\":10482:10599   */\n    tag_111:\n        /* \"#utility.yul\":10591:10592   */\n      0x00\n        /* \"#utility.yul\":10588:10589   */\n      dup1\n        /* \"#utility.yul\":10581:10593   */\n      revert\n        /* \"#utility.yul\":10605:10722   */\n    tag_108:\n        /* \"#utility.yul\":10714:10715   */\n      0x00\n        /* \"#utility.yul\":10711:10712   */\n      dup1\n        /* \"#utility.yul\":10704:10716   */\n      revert\n        /* \"#utility.yul\":10728:10830   */\n    tag_147:\n        /* \"#utility.yul\":10769:10775   */\n      0x00\n        /* \"#utility.yul\":10820:10822   */\n      0x1f\n        /* \"#utility.yul\":10816:10823   */\n      not\n        /* \"#utility.yul\":10811:10813   */\n      0x1f\n        /* \"#utility.yul\":10804:10809   */\n      dup4\n        /* \"#utility.yul\":10800:10814   */\n      add\n        /* \"#utility.yul\":10796:10824   */\n      and\n        /* \"#utility.yul\":10786:10824   */\n      swap1\n      pop\n        /* \"#utility.yul\":10776:10830   */\n      swap2\n      swap1\n      pop\n      jump\t// out\n        /* \"#utility.yul\":10836:10997   */\n    tag_152:\n        /* \"#utility.yul\":10976:10989   */\n      0x4e6f7420616c6c6f776564000000000000000000000000000000000000000000\n        /* \"#utility.yul\":10972:10973   */\n      0x00\n        /* \"#utility.yul\":10964:10970   */\n      dup3\n        /* \"#utility.yul\":10960:10974   */\n      add\n        /* \"#utility.yul\":10953:10990   */\n      mstore\n        /* \"#utility.yul\":10942:10997   */\n      pop\n      jump\t// out\n        /* \"#utility.yul\":11003:11176   */\n    tag_157:\n        /* \"#utility.yul\":11143:11168   */\n      0x5375636365737366756c6c792052656769737465726564000000000000000000\n        /* \"#utility.yul\":11139:11140   */\n      0x00\n        /* \"#utility.yul\":11131:11137   */\n      dup3\n        /* \"#utility.yul\":11127:11141   */\n      add\n        /* \"#utility.yul\":11120:11169   */\n      mstore\n        /* \"#utility.yul\":11109:11176   */\n      pop\n      jump\t// out\n        /* \"#utility.yul\":11182:11416   */\n    tag_162:\n        /* \"#utility.yul\":11322:11356   */\n      0x5573657220646f65736e6f742065786973742021212052656769737465722061\n        /* \"#utility.yul\":11318:11319   */\n      0x00\n        /* \"#utility.yul\":11310:11316   */\n      dup3\n        /* \"#utility.yul\":11306:11320   */\n      add\n        /* \"#utility.yul\":11299:11357   */\n      mstore\n        /* \"#utility.yul\":11391:11408   */\n      0x6e642074727920616761696e2021210000000000000000000000000000000000\n        /* \"#utility.yul\":11386:11388   */\n      0x20\n        /* \"#utility.yul\":11378:11384   */\n      dup3\n        /* \"#utility.yul\":11374:11389   */\n      add\n        /* \"#utility.yul\":11367:11409   */\n      mstore\n        /* \"#utility.yul\":11288:11416   */\n      pop\n      jump\t// out\n\n    auxdata: 0xa2646970667358221220be869abd3ecd944ad324bbd155101d55d6de7329bb7c3b8a947e5687894dba4a64736f6c63430008060033\n}\n",
				"bytecode": {
					"linkReferences": {},
					"object": "608060405234801561001057600080fd5b506000808190555061101d806100276000396000f3fe608060405234801561001057600080fd5b50600436106100625760003560e01c8063126793231461006757806358467dbc146100855780635a09007b146100b5578063681f3e6d146100e5578063c127ae4114610103578063ebc3eee814610121575b600080fd5b61006f61013f565b60405161007c9190610cdd565b60405180910390f35b61009f600480360381019061009a9190610a01565b610145565b6040516100ac9190610c5b565b60405180910390f35b6100cf60048036038101906100ca9190610a79565b610308565b6040516100dc9190610c5b565b60405180910390f35b6100ed610610565b6040516100fa9190610c5b565b60405180910390f35b61010b6106e2565b6040516101189190610c5b565b60405180910390f35b610129610884565b6040516101369190610c40565b60405180910390f35b60005481565b60606000610151610610565b90506000600160003373ffffffffffffffffffffffffffffffffffffffff1673ffffffffffffffffffffffffffffffffffffffff16815260200190815260200160002060030180546101a290610de8565b80601f01602080910402602001604051908101604052809291908181526020018280546101ce90610de8565b801561021b5780601f106101f05761010080835404028352916020019161021b565b820191906000526020600020905b8154815290600101906020018083116101fe57829003601f168201915b505050505090508480519060200120828051906020012014801561024c575083805190602001208180519060200120145b15610292577f05c766d1c5ea6f40afc38cd8e27308c236c492fbcfa32b458d2755cf76ec1e21856040516102809190610c5b565b60405180910390a18492505050610302565b7f05c766d1c5ea6f40afc38cd8e27308c236c492fbcfa32b458d2755cf76ec1e216040516102bf90610cbd565b60405180910390a16040518060400160405280601281526020017f5573657220646f65736e6f742065786973740000000000000000000000000000815250925050505b92915050565b606085600160003373ffffffffffffffffffffffffffffffffffffffff1673ffffffffffffffffffffffffffffffffffffffff16815260200190815260200160002060000190805190602001906103609291906108ee565b5084600160003373ffffffffffffffffffffffffffffffffffffffff1673ffffffffffffffffffffffffffffffffffffffff16815260200190815260200160002060010190805190602001906103b79291906108ee565b5033600160003373ffffffffffffffffffffffffffffffffffffffff1673ffffffffffffffffffffffffffffffffffffffff16815260200190815260200160002060050160006101000a81548173ffffffffffffffffffffffffffffffffffffffff021916908373ffffffffffffffffffffffffffffffffffffffff16021790555083600160003373ffffffffffffffffffffffffffffffffffffffff1673ffffffffffffffffffffffffffffffffffffffff168152602001908152602001600020600201908051906020019061048f9291906108ee565b5082600160003373ffffffffffffffffffffffffffffffffffffffff1673ffffffffffffffffffffffffffffffffffffffff16815260200190815260200160002060030190805190602001906104e69291906108ee565b5081600160003373ffffffffffffffffffffffffffffffffffffffff1673ffffffffffffffffffffffffffffffffffffffff168152602001908152602001600020600401908051906020019061053d9291906108ee565b5060008081548092919061055090610e4b565b919050555060016000541461059a576040517f08c379a000000000000000000000000000000000000000000000000000000000815260040161059190610c9d565b60405180910390fd5b7f05c766d1c5ea6f40afc38cd8e27308c236c492fbcfa32b458d2755cf76ec1e216040516105c790610c9d565b60405180910390a16040518060400160405280601781526020017f5375636365737366756c6c792052656769737465726564000000000000000000815250905095945050505050565b6060600160003373ffffffffffffffffffffffffffffffffffffffff1673ffffffffffffffffffffffffffffffffffffffff168152602001908152602001600020600201805461065f90610de8565b80601f016020809104026020016040519081016040528092919081815260200182805461068b90610de8565b80156106d85780601f106106ad576101008083540402835291602001916106d8565b820191906000526020600020905b8154815290600101906020018083116106bb57829003601f168201915b5050505050905090565b6060600160003373ffffffffffffffffffffffffffffffffffffffff1673ffffffffffffffffffffffffffffffffffffffff16815260200190815260200160002060050160009054906101000a900473ffffffffffffffffffffffffffffffffffffffff1673ffffffffffffffffffffffffffffffffffffffff163373ffffffffffffffffffffffffffffffffffffffff16146107b4576040517f08c379a00000000000000000000000000000000000000000000000000000000081526004016107ab90610c7d565b60405180910390fd5b600160003373ffffffffffffffffffffffffffffffffffffffff1673ffffffffffffffffffffffffffffffffffffffff168152602001908152602001600020600001805461080190610de8565b80601f016020809104026020016040519081016040528092919081815260200182805461082d90610de8565b801561087a5780601f1061084f5761010080835404028352916020019161087a565b820191906000526020600020905b81548152906001019060200180831161085d57829003601f168201915b5050505050905090565b6000600160003373ffffffffffffffffffffffffffffffffffffffff1673ffffffffffffffffffffffffffffffffffffffff16815260200190815260200160002060050160009054906101000a900473ffffffffffffffffffffffffffffffffffffffff16905090565b8280546108fa90610de8565b90600052602060002090601f01602090048101928261091c5760008555610963565b82601f1061093557805160ff1916838001178555610963565b82800160010185558215610963579182015b82811115610962578251825591602001919060010190610947565b5b5090506109709190610974565b5090565b5b8082111561098d576000816000905550600101610975565b5090565b60006109a461099f84610d1d565b610cf8565b9050828152602081018484840111156109c0576109bf610f26565b5b6109cb848285610da6565b509392505050565b600082601f8301126109e8576109e7610f21565b5b81356109f8848260208601610991565b91505092915050565b60008060408385031215610a1857610a17610f30565b5b600083013567ffffffffffffffff811115610a3657610a35610f2b565b5b610a42858286016109d3565b925050602083013567ffffffffffffffff811115610a6357610a62610f2b565b5b610a6f858286016109d3565b9150509250929050565b600080600080600060a08688031215610a9557610a94610f30565b5b600086013567ffffffffffffffff811115610ab357610ab2610f2b565b5b610abf888289016109d3565b955050602086013567ffffffffffffffff811115610ae057610adf610f2b565b5b610aec888289016109d3565b945050604086013567ffffffffffffffff811115610b0d57610b0c610f2b565b5b610b19888289016109d3565b935050606086013567ffffffffffffffff811115610b3a57610b39610f2b565b5b610b46888289016109d3565b925050608086013567ffffffffffffffff811115610b6757610b66610f2b565b5b610b73888289016109d3565b9150509295509295909350565b610b8981610d6a565b82525050565b6000610b9a82610d4e565b610ba48185610d59565b9350610bb4818560208601610db5565b610bbd81610f35565b840191505092915050565b6000610bd5600b83610d59565b9150610be082610f46565b602082019050919050565b6000610bf8601783610d59565b9150610c0382610f6f565b602082019050919050565b6000610c1b602f83610d59565b9150610c2682610f98565b604082019050919050565b610c3a81610d9c565b82525050565b6000602082019050610c556000830184610b80565b92915050565b60006020820190508181036000830152610c758184610b8f565b905092915050565b60006020820190508181036000830152610c9681610bc8565b9050919050565b60006020820190508181036000830152610cb681610beb565b9050919050565b60006020820190508181036000830152610cd681610c0e565b9050919050565b6000602082019050610cf26000830184610c31565b92915050565b6000610d02610d13565b9050610d0e8282610e1a565b919050565b6000604051905090565b600067ffffffffffffffff821115610d3857610d37610ef2565b5b610d4182610f35565b9050602081019050919050565b600081519050919050565b600082825260208201905092915050565b6000610d7582610d7c565b9050919050565b600073ffffffffffffffffffffffffffffffffffffffff82169050919050565b6000819050919050565b82818337600083830152505050565b60005b83811015610dd3578082015181840152602081019050610db8565b83811115610de2576000848401525b50505050565b60006002820490506001821680610e0057607f821691505b60208210811415610e1457610e13610ec3565b5b50919050565b610e2382610f35565b810181811067ffffffffffffffff82111715610e4257610e41610ef2565b5b80604052505050565b6000610e5682610d9c565b91507fffffffffffffffffffffffffffffffffffffffffffffffffffffffffffffffff821415610e8957610e88610e94565b5b600182019050919050565b7f4e487b7100000000000000000000000000000000000000000000000000000000600052601160045260246000fd5b7f4e487b7100000000000000000000000000000000000000000000000000000000600052602260045260246000fd5b7f4e487b7100000000000000000000000000000000000000000000000000000000600052604160045260246000fd5b600080fd5b600080fd5b600080fd5b600080fd5b6000601f19601f8301169050919050565b7f4e6f7420616c6c6f776564000000000000000000000000000000000000000000600082015250565b7f5375636365737366756c6c792052656769737465726564000000000000000000600082015250565b7f5573657220646f65736e6f74206578697374202121205265676973746572206160008201527f6e642074727920616761696e202121000000000000000000000000000000000060208201525056fea2646970667358221220be869abd3ecd944ad324bbd155101d55d6de7329bb7c3b8a947e5687894dba4a64736f6c63430008060033",
					"opcodes": "PUSH1 0x80 PUSH1 0x40 MSTORE CALLVALUE DUP1 ISZERO PUSH2 0x10 JUMPI PUSH1 0x0 DUP1 REVERT JUMPDEST POP PUSH1 0x0 DUP1 DUP2 SWAP1 SSTORE POP PUSH2 0x101D DUP1 PUSH2 0x27 PUSH1 0x0 CODECOPY PUSH1 0x0 RETURN INVALID PUSH1 0x80 PUSH1 0x40 MSTORE CALLVALUE DUP1 ISZERO PUSH2 0x10 JUMPI PUSH1 0x0 DUP1 REVERT JUMPDEST POP PUSH1 0x4 CALLDATASIZE LT PUSH2 0x62 JUMPI PUSH1 0x0 CALLDATALOAD PUSH1 0xE0 SHR DUP1 PUSH4 0x12679323 EQ PUSH2 0x67 JUMPI DUP1 PUSH4 0x58467DBC EQ PUSH2 0x85 JUMPI DUP1 PUSH4 0x5A09007B EQ PUSH2 0xB5 JUMPI DUP1 PUSH4 0x681F3E6D EQ PUSH2 0xE5 JUMPI DUP1 PUSH4 0xC127AE41 EQ PUSH2 0x103 JUMPI DUP1 PUSH4 0xEBC3EEE8 EQ PUSH2 0x121 JUMPI JUMPDEST PUSH1 0x0 DUP1 REVERT JUMPDEST PUSH2 0x6F PUSH2 0x13F JUMP JUMPDEST PUSH1 0x40 MLOAD PUSH2 0x7C SWAP2 SWAP1 PUSH2 0xCDD JUMP JUMPDEST PUSH1 0x40 MLOAD DUP1 SWAP2 SUB SWAP1 RETURN JUMPDEST PUSH2 0x9F PUSH1 0x4 DUP1 CALLDATASIZE SUB DUP2 ADD SWAP1 PUSH2 0x9A SWAP2 SWAP1 PUSH2 0xA01 JUMP JUMPDEST PUSH2 0x145 JUMP JUMPDEST PUSH1 0x40 MLOAD PUSH2 0xAC SWAP2 SWAP1 PUSH2 0xC5B JUMP JUMPDEST PUSH1 0x40 MLOAD DUP1 SWAP2 SUB SWAP1 RETURN JUMPDEST PUSH2 0xCF PUSH1 0x4 DUP1 CALLDATASIZE SUB DUP2 ADD SWAP1 PUSH2 0xCA SWAP2 SWAP1 PUSH2 0xA79 JUMP JUMPDEST PUSH2 0x308 JUMP JUMPDEST PUSH1 0x40 MLOAD PUSH2 0xDC SWAP2 SWAP1 PUSH2 0xC5B JUMP JUMPDEST PUSH1 0x40 MLOAD DUP1 SWAP2 SUB SWAP1 RETURN JUMPDEST PUSH2 0xED PUSH2 0x610 JUMP JUMPDEST PUSH1 0x40 MLOAD PUSH2 0xFA SWAP2 SWAP1 PUSH2 0xC5B JUMP JUMPDEST PUSH1 0x40 MLOAD DUP1 SWAP2 SUB SWAP1 RETURN JUMPDEST PUSH2 0x10B PUSH2 0x6E2 JUMP JUMPDEST PUSH1 0x40 MLOAD PUSH2 0x118 SWAP2 SWAP1 PUSH2 0xC5B JUMP JUMPDEST PUSH1 0x40 MLOAD DUP1 SWAP2 SUB SWAP1 RETURN JUMPDEST PUSH2 0x129 PUSH2 0x884 JUMP JUMPDEST PUSH1 0x40 MLOAD PUSH2 0x136 SWAP2 SWAP1 PUSH2 0xC40 JUMP JUMPDEST PUSH1 0x40 MLOAD DUP1 SWAP2 SUB SWAP1 RETURN JUMPDEST PUSH1 0x0 SLOAD DUP2 JUMP JUMPDEST PUSH1 0x60 PUSH1 0x0 PUSH2 0x151 PUSH2 0x610 JUMP JUMPDEST SWAP1 POP PUSH1 0x0 PUSH1 0x1 PUSH1 0x0 CALLER PUSH20 0xFFFFFFFFFFFFFFFFFFFFFFFFFFFFFFFFFFFFFFFF AND PUSH20 0xFFFFFFFFFFFFFFFFFFFFFFFFFFFFFFFFFFFFFFFF AND DUP2 MSTORE PUSH1 0x20 ADD SWAP1 DUP2 MSTORE PUSH1 0x20 ADD PUSH1 0x0 KECCAK256 PUSH1 0x3 ADD DUP1 SLOAD PUSH2 0x1A2 SWAP1 PUSH2 0xDE8 JUMP JUMPDEST DUP1 PUSH1 0x1F ADD PUSH1 0x20 DUP1 SWAP2 DIV MUL PUSH1 0x20 ADD PUSH1 0x40 MLOAD SWAP1 DUP2 ADD PUSH1 0x40 MSTORE DUP1 SWAP3 SWAP2 SWAP1 DUP2 DUP2 MSTORE PUSH1 0x20 ADD DUP3 DUP1 SLOAD PUSH2 0x1CE SWAP1 PUSH2 0xDE8 JUMP JUMPDEST DUP1 ISZERO PUSH2 0x21B JUMPI DUP1 PUSH1 0x1F LT PUSH2 0x1F0 JUMPI PUSH2 0x100 DUP1 DUP4 SLOAD DIV MUL DUP4 MSTORE SWAP2 PUSH1 0x20 ADD SWAP2 PUSH2 0x21B JUMP JUMPDEST DUP3 ADD SWAP2 SWAP1 PUSH1 0x0 MSTORE PUSH1 0x20 PUSH1 0x0 KECCAK256 SWAP1 JUMPDEST DUP2 SLOAD DUP2 MSTORE SWAP1 PUSH1 0x1 ADD SWAP1 PUSH1 0x20 ADD DUP1 DUP4 GT PUSH2 0x1FE JUMPI DUP3 SWAP1 SUB PUSH1 0x1F AND DUP3 ADD SWAP2 JUMPDEST POP POP POP POP POP SWAP1 POP DUP5 DUP1 MLOAD SWAP1 PUSH1 0x20 ADD KECCAK256 DUP3 DUP1 MLOAD SWAP1 PUSH1 0x20 ADD KECCAK256 EQ DUP1 ISZERO PUSH2 0x24C JUMPI POP DUP4 DUP1 MLOAD SWAP1 PUSH1 0x20 ADD KECCAK256 DUP2 DUP1 MLOAD SWAP1 PUSH1 0x20 ADD KECCAK256 EQ JUMPDEST ISZERO PUSH2 0x292 JUMPI PUSH32 0x5C766D1C5EA6F40AFC38CD8E27308C236C492FBCFA32B458D2755CF76EC1E21 DUP6 PUSH1 0x40 MLOAD PUSH2 0x280 SWAP2 SWAP1 PUSH2 0xC5B JUMP JUMPDEST PUSH1 0x40 MLOAD DUP1 SWAP2 SUB SWAP1 LOG1 DUP5 SWAP3 POP POP POP PUSH2 0x302 JUMP JUMPDEST PUSH32 0x5C766D1C5EA6F40AFC38CD8E27308C236C492FBCFA32B458D2755CF76EC1E21 PUSH1 0x40 MLOAD PUSH2 0x2BF SWAP1 PUSH2 0xCBD JUMP JUMPDEST PUSH1 0x40 MLOAD DUP1 SWAP2 SUB SWAP1 LOG1 PUSH1 0x40 MLOAD DUP1 PUSH1 0x40 ADD PUSH1 0x40 MSTORE DUP1 PUSH1 0x12 DUP2 MSTORE PUSH1 0x20 ADD PUSH32 0x5573657220646F65736E6F742065786973740000000000000000000000000000 DUP2 MSTORE POP SWAP3 POP POP POP JUMPDEST SWAP3 SWAP2 POP POP JUMP JUMPDEST PUSH1 0x60 DUP6 PUSH1 0x1 PUSH1 0x0 CALLER PUSH20 0xFFFFFFFFFFFFFFFFFFFFFFFFFFFFFFFFFFFFFFFF AND PUSH20 0xFFFFFFFFFFFFFFFFFFFFFFFFFFFFFFFFFFFFFFFF AND DUP2 MSTORE PUSH1 0x20 ADD SWAP1 DUP2 MSTORE PUSH1 0x20 ADD PUSH1 0x0 KECCAK256 PUSH1 0x0 ADD SWAP1 DUP1 MLOAD SWAP1 PUSH1 0x20 ADD SWAP1 PUSH2 0x360 SWAP3 SWAP2 SWAP1 PUSH2 0x8EE JUMP JUMPDEST POP DUP5 PUSH1 0x1 PUSH1 0x0 CALLER PUSH20 0xFFFFFFFFFFFFFFFFFFFFFFFFFFFFFFFFFFFFFFFF AND PUSH20 0xFFFFFFFFFFFFFFFFFFFFFFFFFFFFFFFFFFFFFFFF AND DUP2 MSTORE PUSH1 0x20 ADD SWAP1 DUP2 MSTORE PUSH1 0x20 ADD PUSH1 0x0 KECCAK256 PUSH1 0x1 ADD SWAP1 DUP1 MLOAD SWAP1 PUSH1 0x20 ADD SWAP1 PUSH2 0x3B7 SWAP3 SWAP2 SWAP1 PUSH2 0x8EE JUMP JUMPDEST POP CALLER PUSH1 0x1 PUSH1 0x0 CALLER PUSH20 0xFFFFFFFFFFFFFFFFFFFFFFFFFFFFFFFFFFFFFFFF AND PUSH20 0xFFFFFFFFFFFFFFFFFFFFFFFFFFFFFFFFFFFFFFFF AND DUP2 MSTORE PUSH1 0x20 ADD SWAP1 DUP2 MSTORE PUSH1 0x20 ADD PUSH1 0x0 KECCAK256 PUSH1 0x5 ADD PUSH1 0x0 PUSH2 0x100 EXP DUP2 SLOAD DUP2 PUSH20 0xFFFFFFFFFFFFFFFFFFFFFFFFFFFFFFFFFFFFFFFF MUL NOT AND SWAP1 DUP4 PUSH20 0xFFFFFFFFFFFFFFFFFFFFFFFFFFFFFFFFFFFFFFFF AND MUL OR SWAP1 SSTORE POP DUP4 PUSH1 0x1 PUSH1 0x0 CALLER PUSH20 0xFFFFFFFFFFFFFFFFFFFFFFFFFFFFFFFFFFFFFFFF AND PUSH20 0xFFFFFFFFFFFFFFFFFFFFFFFFFFFFFFFFFFFFFFFF AND DUP2 MSTORE PUSH1 0x20 ADD SWAP1 DUP2 MSTORE PUSH1 0x20 ADD PUSH1 0x0 KECCAK256 PUSH1 0x2 ADD SWAP1 DUP1 MLOAD SWAP1 PUSH1 0x20 ADD SWAP1 PUSH2 0x48F SWAP3 SWAP2 SWAP1 PUSH2 0x8EE JUMP JUMPDEST POP DUP3 PUSH1 0x1 PUSH1 0x0 CALLER PUSH20 0xFFFFFFFFFFFFFFFFFFFFFFFFFFFFFFFFFFFFFFFF AND PUSH20 0xFFFFFFFFFFFFFFFFFFFFFFFFFFFFFFFFFFFFFFFF AND DUP2 MSTORE PUSH1 0x20 ADD SWAP1 DUP2 MSTORE PUSH1 0x20 ADD PUSH1 0x0 KECCAK256 PUSH1 0x3 ADD SWAP1 DUP1 MLOAD SWAP1 PUSH1 0x20 ADD SWAP1 PUSH2 0x4E6 SWAP3 SWAP2 SWAP1 PUSH2 0x8EE JUMP JUMPDEST POP DUP2 PUSH1 0x1 PUSH1 0x0 CALLER PUSH20 0xFFFFFFFFFFFFFFFFFFFFFFFFFFFFFFFFFFFFFFFF AND PUSH20 0xFFFFFFFFFFFFFFFFFFFFFFFFFFFFFFFFFFFFFFFF AND DUP2 MSTORE PUSH1 0x20 ADD SWAP1 DUP2 MSTORE PUSH1 0x20 ADD PUSH1 0x0 KECCAK256 PUSH1 0x4 ADD SWAP1 DUP1 MLOAD SWAP1 PUSH1 0x20 ADD SWAP1 PUSH2 0x53D SWAP3 SWAP2 SWAP1 PUSH2 0x8EE JUMP JUMPDEST POP PUSH1 0x0 DUP1 DUP2 SLOAD DUP1 SWAP3 SWAP2 SWAP1 PUSH2 0x550 SWAP1 PUSH2 0xE4B JUMP JUMPDEST SWAP2 SWAP1 POP SSTORE POP PUSH1 0x1 PUSH1 0x0 SLOAD EQ PUSH2 0x59A JUMPI PUSH1 0x40 MLOAD PUSH32 0x8C379A000000000000000000000000000000000000000000000000000000000 DUP2 MSTORE PUSH1 0x4 ADD PUSH2 0x591 SWAP1 PUSH2 0xC9D JUMP JUMPDEST PUSH1 0x40 MLOAD DUP1 SWAP2 SUB SWAP1 REVERT JUMPDEST PUSH32 0x5C766D1C5EA6F40AFC38CD8E27308C236C492FBCFA32B458D2755CF76EC1E21 PUSH1 0x40 MLOAD PUSH2 0x5C7 SWAP1 PUSH2 0xC9D JUMP JUMPDEST PUSH1 0x40 MLOAD DUP1 SWAP2 SUB SWAP1 LOG1 PUSH1 0x40 MLOAD DUP1 PUSH1 0x40 ADD PUSH1 0x40 MSTORE DUP1 PUSH1 0x17 DUP2 MSTORE PUSH1 0x20 ADD PUSH32 0x5375636365737366756C6C792052656769737465726564000000000000000000 DUP2 MSTORE POP SWAP1 POP SWAP6 SWAP5 POP POP POP POP POP JUMP JUMPDEST PUSH1 0x60 PUSH1 0x1 PUSH1 0x0 CALLER PUSH20 0xFFFFFFFFFFFFFFFFFFFFFFFFFFFFFFFFFFFFFFFF AND PUSH20 0xFFFFFFFFFFFFFFFFFFFFFFFFFFFFFFFFFFFFFFFF AND DUP2 MSTORE PUSH1 0x20 ADD SWAP1 DUP2 MSTORE PUSH1 0x20 ADD PUSH1 0x0 KECCAK256 PUSH1 0x2 ADD DUP1 SLOAD PUSH2 0x65F SWAP1 PUSH2 0xDE8 JUMP JUMPDEST DUP1 PUSH1 0x1F ADD PUSH1 0x20 DUP1 SWAP2 DIV MUL PUSH1 0x20 ADD PUSH1 0x40 MLOAD SWAP1 DUP2 ADD PUSH1 0x40 MSTORE DUP1 SWAP3 SWAP2 SWAP1 DUP2 DUP2 MSTORE PUSH1 0x20 ADD DUP3 DUP1 SLOAD PUSH2 0x68B SWAP1 PUSH2 0xDE8 JUMP JUMPDEST DUP1 ISZERO PUSH2 0x6D8 JUMPI DUP1 PUSH1 0x1F LT PUSH2 0x6AD JUMPI PUSH2 0x100 DUP1 DUP4 SLOAD DIV MUL DUP4 MSTORE SWAP2 PUSH1 0x20 ADD SWAP2 PUSH2 0x6D8 JUMP JUMPDEST DUP3 ADD SWAP2 SWAP1 PUSH1 0x0 MSTORE PUSH1 0x20 PUSH1 0x0 KECCAK256 SWAP1 JUMPDEST DUP2 SLOAD DUP2 MSTORE SWAP1 PUSH1 0x1 ADD SWAP1 PUSH1 0x20 ADD DUP1 DUP4 GT PUSH2 0x6BB JUMPI DUP3 SWAP1 SUB PUSH1 0x1F AND DUP3 ADD SWAP2 JUMPDEST POP POP POP POP POP SWAP1 POP SWAP1 JUMP JUMPDEST PUSH1 0x60 PUSH1 0x1 PUSH1 0x0 CALLER PUSH20 0xFFFFFFFFFFFFFFFFFFFFFFFFFFFFFFFFFFFFFFFF AND PUSH20 0xFFFFFFFFFFFFFFFFFFFFFFFFFFFFFFFFFFFFFFFF AND DUP2 MSTORE PUSH1 0x20 ADD SWAP1 DUP2 MSTORE PUSH1 0x20 ADD PUSH1 0x0 KECCAK256 PUSH1 0x5 ADD PUSH1 0x0 SWAP1 SLOAD SWAP1 PUSH2 0x100 EXP SWAP1 DIV PUSH20 0xFFFFFFFFFFFFFFFFFFFFFFFFFFFFFFFFFFFFFFFF AND PUSH20 0xFFFFFFFFFFFFFFFFFFFFFFFFFFFFFFFFFFFFFFFF AND CALLER PUSH20 0xFFFFFFFFFFFFFFFFFFFFFFFFFFFFFFFFFFFFFFFF AND EQ PUSH2 0x7B4 JUMPI PUSH1 0x40 MLOAD PUSH32 0x8C379A000000000000000000000000000000000000000000000000000000000 DUP2 MSTORE PUSH1 0x4 ADD PUSH2 0x7AB SWAP1 PUSH2 0xC7D JUMP JUMPDEST PUSH1 0x40 MLOAD DUP1 SWAP2 SUB SWAP1 REVERT JUMPDEST PUSH1 0x1 PUSH1 0x0 CALLER PUSH20 0xFFFFFFFFFFFFFFFFFFFFFFFFFFFFFFFFFFFFFFFF AND PUSH20 0xFFFFFFFFFFFFFFFFFFFFFFFFFFFFFFFFFFFFFFFF AND DUP2 MSTORE PUSH1 0x20 ADD SWAP1 DUP2 MSTORE PUSH1 0x20 ADD PUSH1 0x0 KECCAK256 PUSH1 0x0 ADD DUP1 SLOAD PUSH2 0x801 SWAP1 PUSH2 0xDE8 JUMP JUMPDEST DUP1 PUSH1 0x1F ADD PUSH1 0x20 DUP1 SWAP2 DIV MUL PUSH1 0x20 ADD PUSH1 0x40 MLOAD SWAP1 DUP2 ADD PUSH1 0x40 MSTORE DUP1 SWAP3 SWAP2 SWAP1 DUP2 DUP2 MSTORE PUSH1 0x20 ADD DUP3 DUP1 SLOAD PUSH2 0x82D SWAP1 PUSH2 0xDE8 JUMP JUMPDEST DUP1 ISZERO PUSH2 0x87A JUMPI DUP1 PUSH1 0x1F LT PUSH2 0x84F JUMPI PUSH2 0x100 DUP1 DUP4 SLOAD DIV MUL DUP4 MSTORE SWAP2 PUSH1 0x20 ADD SWAP2 PUSH2 0x87A JUMP JUMPDEST DUP3 ADD SWAP2 SWAP1 PUSH1 0x0 MSTORE PUSH1 0x20 PUSH1 0x0 KECCAK256 SWAP1 JUMPDEST DUP2 SLOAD DUP2 MSTORE SWAP1 PUSH1 0x1 ADD SWAP1 PUSH1 0x20 ADD DUP1 DUP4 GT PUSH2 0x85D JUMPI DUP3 SWAP1 SUB PUSH1 0x1F AND DUP3 ADD SWAP2 JUMPDEST POP POP POP POP POP SWAP1 POP SWAP1 JUMP JUMPDEST PUSH1 0x0 PUSH1 0x1 PUSH1 0x0 CALLER PUSH20 0xFFFFFFFFFFFFFFFFFFFFFFFFFFFFFFFFFFFFFFFF AND PUSH20 0xFFFFFFFFFFFFFFFFFFFFFFFFFFFFFFFFFFFFFFFF AND DUP2 MSTORE PUSH1 0x20 ADD SWAP1 DUP2 MSTORE PUSH1 0x20 ADD PUSH1 0x0 KECCAK256 PUSH1 0x5 ADD PUSH1 0x0 SWAP1 SLOAD SWAP1 PUSH2 0x100 EXP SWAP1 DIV PUSH20 0xFFFFFFFFFFFFFFFFFFFFFFFFFFFFFFFFFFFFFFFF AND SWAP1 POP SWAP1 JUMP JUMPDEST DUP3 DUP1 SLOAD PUSH2 0x8FA SWAP1 PUSH2 0xDE8 JUMP JUMPDEST SWAP1 PUSH1 0x0 MSTORE PUSH1 0x20 PUSH1 0x0 KECCAK256 SWAP1 PUSH1 0x1F ADD PUSH1 0x20 SWAP1 DIV DUP2 ADD SWAP3 DUP3 PUSH2 0x91C JUMPI PUSH1 0x0 DUP6 SSTORE PUSH2 0x963 JUMP JUMPDEST DUP3 PUSH1 0x1F LT PUSH2 0x935 JUMPI DUP1 MLOAD PUSH1 0xFF NOT AND DUP4 DUP1 ADD OR DUP6 SSTORE PUSH2 0x963 JUMP JUMPDEST DUP3 DUP1 ADD PUSH1 0x1 ADD DUP6 SSTORE DUP3 ISZERO PUSH2 0x963 JUMPI SWAP2 DUP3 ADD JUMPDEST DUP3 DUP2 GT ISZERO PUSH2 0x962 JUMPI DUP3 MLOAD DUP3 SSTORE SWAP2 PUSH1 0x20 ADD SWAP2 SWAP1 PUSH1 0x1 ADD SWAP1 PUSH2 0x947 JUMP JUMPDEST JUMPDEST POP SWAP1 POP PUSH2 0x970 SWAP2 SWAP1 PUSH2 0x974 JUMP JUMPDEST POP SWAP1 JUMP JUMPDEST JUMPDEST DUP1 DUP3 GT ISZERO PUSH2 0x98D JUMPI PUSH1 0x0 DUP2 PUSH1 0x0 SWAP1 SSTORE POP PUSH1 0x1 ADD PUSH2 0x975 JUMP JUMPDEST POP SWAP1 JUMP JUMPDEST PUSH1 0x0 PUSH2 0x9A4 PUSH2 0x99F DUP5 PUSH2 0xD1D JUMP JUMPDEST PUSH2 0xCF8 JUMP JUMPDEST SWAP1 POP DUP3 DUP2 MSTORE PUSH1 0x20 DUP2 ADD DUP5 DUP5 DUP5 ADD GT ISZERO PUSH2 0x9C0 JUMPI PUSH2 0x9BF PUSH2 0xF26 JUMP JUMPDEST JUMPDEST PUSH2 0x9CB DUP5 DUP3 DUP6 PUSH2 0xDA6 JUMP JUMPDEST POP SWAP4 SWAP3 POP POP POP JUMP JUMPDEST PUSH1 0x0 DUP3 PUSH1 0x1F DUP4 ADD SLT PUSH2 0x9E8 JUMPI PUSH2 0x9E7 PUSH2 0xF21 JUMP JUMPDEST JUMPDEST DUP2 CALLDATALOAD PUSH2 0x9F8 DUP5 DUP3 PUSH1 0x20 DUP7 ADD PUSH2 0x991 JUMP JUMPDEST SWAP2 POP POP SWAP3 SWAP2 POP POP JUMP JUMPDEST PUSH1 0x0 DUP1 PUSH1 0x40 DUP4 DUP6 SUB SLT ISZERO PUSH2 0xA18 JUMPI PUSH2 0xA17 PUSH2 0xF30 JUMP JUMPDEST JUMPDEST PUSH1 0x0 DUP4 ADD CALLDATALOAD PUSH8 0xFFFFFFFFFFFFFFFF DUP2 GT ISZERO PUSH2 0xA36 JUMPI PUSH2 0xA35 PUSH2 0xF2B JUMP JUMPDEST JUMPDEST PUSH2 0xA42 DUP6 DUP3 DUP7 ADD PUSH2 0x9D3 JUMP JUMPDEST SWAP3 POP POP PUSH1 0x20 DUP4 ADD CALLDATALOAD PUSH8 0xFFFFFFFFFFFFFFFF DUP2 GT ISZERO PUSH2 0xA63 JUMPI PUSH2 0xA62 PUSH2 0xF2B JUMP JUMPDEST JUMPDEST PUSH2 0xA6F DUP6 DUP3 DUP7 ADD PUSH2 0x9D3 JUMP JUMPDEST SWAP2 POP POP SWAP3 POP SWAP3 SWAP1 POP JUMP JUMPDEST PUSH1 0x0 DUP1 PUSH1 0x0 DUP1 PUSH1 0x0 PUSH1 0xA0 DUP7 DUP9 SUB SLT ISZERO PUSH2 0xA95 JUMPI PUSH2 0xA94 PUSH2 0xF30 JUMP JUMPDEST JUMPDEST PUSH1 0x0 DUP7 ADD CALLDATALOAD PUSH8 0xFFFFFFFFFFFFFFFF DUP2 GT ISZERO PUSH2 0xAB3 JUMPI PUSH2 0xAB2 PUSH2 0xF2B JUMP JUMPDEST JUMPDEST PUSH2 0xABF DUP9 DUP3 DUP10 ADD PUSH2 0x9D3 JUMP JUMPDEST SWAP6 POP POP PUSH1 0x20 DUP7 ADD CALLDATALOAD PUSH8 0xFFFFFFFFFFFFFFFF DUP2 GT ISZERO PUSH2 0xAE0 JUMPI PUSH2 0xADF PUSH2 0xF2B JUMP JUMPDEST JUMPDEST PUSH2 0xAEC DUP9 DUP3 DUP10 ADD PUSH2 0x9D3 JUMP JUMPDEST SWAP5 POP POP PUSH1 0x40 DUP7 ADD CALLDATALOAD PUSH8 0xFFFFFFFFFFFFFFFF DUP2 GT ISZERO PUSH2 0xB0D JUMPI PUSH2 0xB0C PUSH2 0xF2B JUMP JUMPDEST JUMPDEST PUSH2 0xB19 DUP9 DUP3 DUP10 ADD PUSH2 0x9D3 JUMP JUMPDEST SWAP4 POP POP PUSH1 0x60 DUP7 ADD CALLDATALOAD PUSH8 0xFFFFFFFFFFFFFFFF DUP2 GT ISZERO PUSH2 0xB3A JUMPI PUSH2 0xB39 PUSH2 0xF2B JUMP JUMPDEST JUMPDEST PUSH2 0xB46 DUP9 DUP3 DUP10 ADD PUSH2 0x9D3 JUMP JUMPDEST SWAP3 POP POP PUSH1 0x80 DUP7 ADD CALLDATALOAD PUSH8 0xFFFFFFFFFFFFFFFF DUP2 GT ISZERO PUSH2 0xB67 JUMPI PUSH2 0xB66 PUSH2 0xF2B JUMP JUMPDEST JUMPDEST PUSH2 0xB73 DUP9 DUP3 DUP10 ADD PUSH2 0x9D3 JUMP JUMPDEST SWAP2 POP POP SWAP3 SWAP6 POP SWAP3 SWAP6 SWAP1 SWAP4 POP JUMP JUMPDEST PUSH2 0xB89 DUP2 PUSH2 0xD6A JUMP JUMPDEST DUP3 MSTORE POP POP JUMP JUMPDEST PUSH1 0x0 PUSH2 0xB9A DUP3 PUSH2 0xD4E JUMP JUMPDEST PUSH2 0xBA4 DUP2 DUP6 PUSH2 0xD59 JUMP JUMPDEST SWAP4 POP PUSH2 0xBB4 DUP2 DUP6 PUSH1 0x20 DUP7 ADD PUSH2 0xDB5 JUMP JUMPDEST PUSH2 0xBBD DUP2 PUSH2 0xF35 JUMP JUMPDEST DUP5 ADD SWAP2 POP POP SWAP3 SWAP2 POP POP JUMP JUMPDEST PUSH1 0x0 PUSH2 0xBD5 PUSH1 0xB DUP4 PUSH2 0xD59 JUMP JUMPDEST SWAP2 POP PUSH2 0xBE0 DUP3 PUSH2 0xF46 JUMP JUMPDEST PUSH1 0x20 DUP3 ADD SWAP1 POP SWAP2 SWAP1 POP JUMP JUMPDEST PUSH1 0x0 PUSH2 0xBF8 PUSH1 0x17 DUP4 PUSH2 0xD59 JUMP JUMPDEST SWAP2 POP PUSH2 0xC03 DUP3 PUSH2 0xF6F JUMP JUMPDEST PUSH1 0x20 DUP3 ADD SWAP1 POP SWAP2 SWAP1 POP JUMP JUMPDEST PUSH1 0x0 PUSH2 0xC1B PUSH1 0x2F DUP4 PUSH2 0xD59 JUMP JUMPDEST SWAP2 POP PUSH2 0xC26 DUP3 PUSH2 0xF98 JUMP JUMPDEST PUSH1 0x40 DUP3 ADD SWAP1 POP SWAP2 SWAP1 POP JUMP JUMPDEST PUSH2 0xC3A DUP2 PUSH2 0xD9C JUMP JUMPDEST DUP3 MSTORE POP POP JUMP JUMPDEST PUSH1 0x0 PUSH1 0x20 DUP3 ADD SWAP1 POP PUSH2 0xC55 PUSH1 0x0 DUP4 ADD DUP5 PUSH2 0xB80 JUMP JUMPDEST SWAP3 SWAP2 POP POP JUMP JUMPDEST PUSH1 0x0 PUSH1 0x20 DUP3 ADD SWAP1 POP DUP2 DUP2 SUB PUSH1 0x0 DUP4 ADD MSTORE PUSH2 0xC75 DUP2 DUP5 PUSH2 0xB8F JUMP JUMPDEST SWAP1 POP SWAP3 SWAP2 POP POP JUMP JUMPDEST PUSH1 0x0 PUSH1 0x20 DUP3 ADD SWAP1 POP DUP2 DUP2 SUB PUSH1 0x0 DUP4 ADD MSTORE PUSH2 0xC96 DUP2 PUSH2 0xBC8 JUMP JUMPDEST SWAP1 POP SWAP2 SWAP1 POP JUMP JUMPDEST PUSH1 0x0 PUSH1 0x20 DUP3 ADD SWAP1 POP DUP2 DUP2 SUB PUSH1 0x0 DUP4 ADD MSTORE PUSH2 0xCB6 DUP2 PUSH2 0xBEB JUMP JUMPDEST SWAP1 POP SWAP2 SWAP1 POP JUMP JUMPDEST PUSH1 0x0 PUSH1 0x20 DUP3 ADD SWAP1 POP DUP2 DUP2 SUB PUSH1 0x0 DUP4 ADD MSTORE PUSH2 0xCD6 DUP2 PUSH2 0xC0E JUMP JUMPDEST SWAP1 POP SWAP2 SWAP1 POP JUMP JUMPDEST PUSH1 0x0 PUSH1 0x20 DUP3 ADD SWAP1 POP PUSH2 0xCF2 PUSH1 0x0 DUP4 ADD DUP5 PUSH2 0xC31 JUMP JUMPDEST SWAP3 SWAP2 POP POP JUMP JUMPDEST PUSH1 0x0 PUSH2 0xD02 PUSH2 0xD13 JUMP JUMPDEST SWAP1 POP PUSH2 0xD0E DUP3 DUP3 PUSH2 0xE1A JUMP JUMPDEST SWAP2 SWAP1 POP JUMP JUMPDEST PUSH1 0x0 PUSH1 0x40 MLOAD SWAP1 POP SWAP1 JUMP JUMPDEST PUSH1 0x0 PUSH8 0xFFFFFFFFFFFFFFFF DUP3 GT ISZERO PUSH2 0xD38 JUMPI PUSH2 0xD37 PUSH2 0xEF2 JUMP JUMPDEST JUMPDEST PUSH2 0xD41 DUP3 PUSH2 0xF35 JUMP JUMPDEST SWAP1 POP PUSH1 0x20 DUP2 ADD SWAP1 POP SWAP2 SWAP1 POP JUMP JUMPDEST PUSH1 0x0 DUP2 MLOAD SWAP1 POP SWAP2 SWAP1 POP JUMP JUMPDEST PUSH1 0x0 DUP3 DUP3 MSTORE PUSH1 0x20 DUP3 ADD SWAP1 POP SWAP3 SWAP2 POP POP JUMP JUMPDEST PUSH1 0x0 PUSH2 0xD75 DUP3 PUSH2 0xD7C JUMP JUMPDEST SWAP1 POP SWAP2 SWAP1 POP JUMP JUMPDEST PUSH1 0x0 PUSH20 0xFFFFFFFFFFFFFFFFFFFFFFFFFFFFFFFFFFFFFFFF DUP3 AND SWAP1 POP SWAP2 SWAP1 POP JUMP JUMPDEST PUSH1 0x0 DUP2 SWAP1 POP SWAP2 SWAP1 POP JUMP JUMPDEST DUP3 DUP2 DUP4 CALLDATACOPY PUSH1 0x0 DUP4 DUP4 ADD MSTORE POP POP POP JUMP JUMPDEST PUSH1 0x0 JUMPDEST DUP4 DUP2 LT ISZERO PUSH2 0xDD3 JUMPI DUP1 DUP3 ADD MLOAD DUP2 DUP5 ADD MSTORE PUSH1 0x20 DUP2 ADD SWAP1 POP PUSH2 0xDB8 JUMP JUMPDEST DUP4 DUP2 GT ISZERO PUSH2 0xDE2 JUMPI PUSH1 0x0 DUP5 DUP5 ADD MSTORE JUMPDEST POP POP POP POP JUMP JUMPDEST PUSH1 0x0 PUSH1 0x2 DUP3 DIV SWAP1 POP PUSH1 0x1 DUP3 AND DUP1 PUSH2 0xE00 JUMPI PUSH1 0x7F DUP3 AND SWAP2 POP JUMPDEST PUSH1 0x20 DUP3 LT DUP2 EQ ISZERO PUSH2 0xE14 JUMPI PUSH2 0xE13 PUSH2 0xEC3 JUMP JUMPDEST JUMPDEST POP SWAP2 SWAP1 POP JUMP JUMPDEST PUSH2 0xE23 DUP3 PUSH2 0xF35 JUMP JUMPDEST DUP2 ADD DUP2 DUP2 LT PUSH8 0xFFFFFFFFFFFFFFFF DUP3 GT OR ISZERO PUSH2 0xE42 JUMPI PUSH2 0xE41 PUSH2 0xEF2 JUMP JUMPDEST JUMPDEST DUP1 PUSH1 0x40 MSTORE POP POP POP JUMP JUMPDEST PUSH1 0x0 PUSH2 0xE56 DUP3 PUSH2 0xD9C JUMP JUMPDEST SWAP2 POP PUSH32 0xFFFFFFFFFFFFFFFFFFFFFFFFFFFFFFFFFFFFFFFFFFFFFFFFFFFFFFFFFFFFFFFF DUP3 EQ ISZERO PUSH2 0xE89 JUMPI PUSH2 0xE88 PUSH2 0xE94 JUMP JUMPDEST JUMPDEST PUSH1 0x1 DUP3 ADD SWAP1 POP SWAP2 SWAP1 POP JUMP JUMPDEST PUSH32 0x4E487B7100000000000000000000000000000000000000000000000000000000 PUSH1 0x0 MSTORE PUSH1 0x11 PUSH1 0x4 MSTORE PUSH1 0x24 PUSH1 0x0 REVERT JUMPDEST PUSH32 0x4E487B7100000000000000000000000000000000000000000000000000000000 PUSH1 0x0 MSTORE PUSH1 0x22 PUSH1 0x4 MSTORE PUSH1 0x24 PUSH1 0x0 REVERT JUMPDEST PUSH32 0x4E487B7100000000000000000000000000000000000000000000000000000000 PUSH1 0x0 MSTORE PUSH1 0x41 PUSH1 0x4 MSTORE PUSH1 0x24 PUSH1 0x0 REVERT JUMPDEST PUSH1 0x0 DUP1 REVERT JUMPDEST PUSH1 0x0 DUP1 REVERT JUMPDEST PUSH1 0x0 DUP1 REVERT JUMPDEST PUSH1 0x0 DUP1 REVERT JUMPDEST PUSH1 0x0 PUSH1 0x1F NOT PUSH1 0x1F DUP4 ADD AND SWAP1 POP SWAP2 SWAP1 POP JUMP JUMPDEST PUSH32 0x4E6F7420616C6C6F776564000000000000000000000000000000000000000000 PUSH1 0x0 DUP3 ADD MSTORE POP JUMP JUMPDEST PUSH32 0x5375636365737366756C6C792052656769737465726564000000000000000000 PUSH1 0x0 DUP3 ADD MSTORE POP JUMP JUMPDEST PUSH32 0x5573657220646F65736E6F742065786973742021212052656769737465722061 PUSH1 0x0 DUP3 ADD MSTORE PUSH32 0x6E642074727920616761696E2021210000000000000000000000000000000000 PUSH1 0x20 DUP3 ADD MSTORE POP JUMP INVALID LOG2 PUSH5 0x6970667358 0x22 SLT KECCAK256 0xBE DUP7 SWAP11 0xBD RETURNDATACOPY 0xCD SWAP5 0x4A 0xD3 0x24 0xBB 0xD1 SSTORE LT SAR SSTORE 0xD6 0xDE PUSH20 0x29BB7C3B8A947E5687894DBA4A64736F6C634300 ADDMOD MOD STOP CALLER "
				},
				"gasEstimates": {
					"creation": {
						"codeDepositCost": "825000",
						"executionCost": "5871",
						"totalCost": "830871"
					},
					"external": {
						"getSignatureHash()": "infinite",
						"getUserAddress()": "2705",
						"getUsername()": "infinite",
						"login(string,string)": "infinite",
						"nbOfUsers()": "2407",
						"register(string,string,string,string,string)": "infinite"
					}
				},
				"methodIdentifiers": {
					"getSignatureHash()": "c127ae41",
					"getUserAddress()": "ebc3eee8",
					"getUsername()": "681f3e6d",
					"login(string,string)": "58467dbc",
					"nbOfUsers()": "12679323",
					"register(string,string,string,string,string)": "5a09007b"
				}
			},
			"userdoc": {
				"kind": "user",
				"methods": {},
				"version": 1
			}
		}
	}
}