{
	"contracts/UserRegister.sol": {
		"UserRegister": {
			"abi": [
				{
					"inputs": [],
					"name": "getUser",
					"outputs": [
						{
							"internalType": "string",
							"name": "",
							"type": "string"
						}
					],
					"stateMutability": "view",
					"type": "function"
				},
				{
					"inputs": [
						{
							"internalType": "string",
							"name": "_userName",
							"type": "string"
						},
						{
							"internalType": "string",
							"name": "_email",
							"type": "string"
						},
						{
							"internalType": "string",
							"name": "_password",
							"type": "string"
						},
						{
							"internalType": "string",
							"name": "_confirmPassword",
							"type": "string"
						}
					],
					"name": "setUser",
					"outputs": [],
					"stateMutability": "nonpayable",
					"type": "function"
				}
			],
			"devdoc": {
				"kind": "dev",
				"methods": {},
				"version": 1
			},
			"evm": {
				"assembly": "    /* \"contracts/UserRegister.sol\":74:570  contract UserRegister {\r... */\n  mstore(0x40, 0x80)\n  callvalue\n  dup1\n  iszero\n  tag_1\n  jumpi\n  0x00\n  dup1\n  revert\ntag_1:\n  pop\n  dataSize(sub_0)\n  dup1\n  dataOffset(sub_0)\n  0x00\n  codecopy\n  0x00\n  return\nstop\n\nsub_0: assembly {\n        /* \"contracts/UserRegister.sol\":74:570  contract UserRegister {\r... */\n      mstore(0x40, 0x80)\n      callvalue\n      dup1\n      iszero\n      tag_1\n      jumpi\n      0x00\n      dup1\n      revert\n    tag_1:\n      pop\n      jumpi(tag_2, lt(calldatasize, 0x04))\n      shr(0xe0, calldataload(0x00))\n      dup1\n      0x312ab722\n      eq\n      tag_3\n      jumpi\n      dup1\n      0x832880e7\n      eq\n      tag_4\n      jumpi\n    tag_2:\n      0x00\n      dup1\n      revert\n        /* \"contracts/UserRegister.sol\":199:472  function setUser(string memory _userName, string memory _email, string memory _password, string memory _confirmPassword) public {\r... */\n    tag_3:\n      tag_5\n      0x04\n      dup1\n      calldatasize\n      sub\n      dup2\n      add\n      swap1\n      tag_6\n      swap2\n      swap1\n      tag_7\n      jump\t// in\n    tag_6:\n      tag_8\n      jump\t// in\n    tag_5:\n      stop\n        /* \"contracts/UserRegister.sol\":480:567  function getUser() public view returns(string memory){\r... */\n    tag_4:\n      tag_9\n      tag_10\n      jump\t// in\n    tag_9:\n      mload(0x40)\n      tag_11\n      swap2\n      swap1\n      tag_12\n      jump\t// in\n    tag_11:\n      mload(0x40)\n      dup1\n      swap2\n      sub\n      swap1\n      return\n        /* \"contracts/UserRegister.sol\":199:472  function setUser(string memory _userName, string memory _email, string memory _password, string memory _confirmPassword) public {\r... */\n    tag_8:\n        /* \"contracts/UserRegister.sol\":355:364  _userName */\n      dup4\n        /* \"contracts/UserRegister.sol\":346:354  userName */\n      0x00\n        /* \"contracts/UserRegister.sol\":346:364  userName=_userName */\n      swap1\n      dup1\n      mload\n      swap1\n      0x20\n      add\n      swap1\n      tag_14\n      swap3\n      swap2\n      swap1\n      tag_15\n      jump\t// in\n    tag_14:\n      pop\n        /* \"contracts/UserRegister.sol\":382:388  _email */\n      dup3\n        /* \"contracts/UserRegister.sol\":376:381  email */\n      0x01\n        /* \"contracts/UserRegister.sol\":376:388  email=_email */\n      swap1\n      dup1\n      mload\n      swap1\n      0x20\n      add\n      swap1\n      tag_16\n      swap3\n      swap2\n      swap1\n      tag_15\n      jump\t// in\n    tag_16:\n      pop\n        /* \"contracts/UserRegister.sol\":409:418  _password */\n      dup2\n        /* \"contracts/UserRegister.sol\":400:408  password */\n      0x02\n        /* \"contracts/UserRegister.sol\":400:418  password=_password */\n      swap1\n      dup1\n      mload\n      swap1\n      0x20\n      add\n      swap1\n      tag_17\n      swap3\n      swap2\n      swap1\n      tag_15\n      jump\t// in\n    tag_17:\n      pop\n        /* \"contracts/UserRegister.sol\":446:462  _confirmPassword */\n      dup1\n        /* \"contracts/UserRegister.sol\":430:445  confirmPassword */\n      0x03\n        /* \"contracts/UserRegister.sol\":430:462  confirmPassword=_confirmPassword */\n      swap1\n      dup1\n      mload\n      swap1\n      0x20\n      add\n      swap1\n      tag_18\n      swap3\n      swap2\n      swap1\n      tag_15\n      jump\t// in\n    tag_18:\n      pop\n        /* \"contracts/UserRegister.sol\":199:472  function setUser(string memory _userName, string memory _email, string memory _password, string memory _confirmPassword) public {\r... */\n      pop\n      pop\n      pop\n      pop\n      jump\t// out\n        /* \"contracts/UserRegister.sol\":480:567  function getUser() public view returns(string memory){\r... */\n    tag_10:\n        /* \"contracts/UserRegister.sol\":519:532  string memory */\n      0x60\n        /* \"contracts/UserRegister.sol\":551:559  userName */\n      0x00\n        /* \"contracts/UserRegister.sol\":544:559  return userName */\n      dup1\n      sload\n      tag_20\n      swap1\n      tag_21\n      jump\t// in\n    tag_20:\n      dup1\n      0x1f\n      add\n      0x20\n      dup1\n      swap2\n      div\n      mul\n      0x20\n      add\n      mload(0x40)\n      swap1\n      dup2\n      add\n      0x40\n      mstore\n      dup1\n      swap3\n      swap2\n      swap1\n      dup2\n      dup2\n      mstore\n      0x20\n      add\n      dup3\n      dup1\n      sload\n      tag_22\n      swap1\n      tag_21\n      jump\t// in\n    tag_22:\n      dup1\n      iszero\n      tag_23\n      jumpi\n      dup1\n      0x1f\n      lt\n      tag_24\n      jumpi\n      0x0100\n      dup1\n      dup4\n      sload\n      div\n      mul\n      dup4\n      mstore\n      swap2\n      0x20\n      add\n      swap2\n      jump(tag_23)\n    tag_24:\n      dup3\n      add\n      swap2\n      swap1\n      0x00\n      mstore\n      keccak256(0x00, 0x20)\n      swap1\n    tag_25:\n      dup2\n      sload\n      dup2\n      mstore\n      swap1\n      0x01\n      add\n      swap1\n      0x20\n      add\n      dup1\n      dup4\n      gt\n      tag_25\n      jumpi\n      dup3\n      swap1\n      sub\n      0x1f\n      and\n      dup3\n      add\n      swap2\n    tag_23:\n      pop\n      pop\n      pop\n      pop\n      pop\n      swap1\n      pop\n        /* \"contracts/UserRegister.sol\":480:567  function getUser() public view returns(string memory){\r... */\n      swap1\n      jump\t// out\n    tag_15:\n      dup3\n      dup1\n      sload\n      tag_26\n      swap1\n      tag_21\n      jump\t// in\n    tag_26:\n      swap1\n      0x00\n      mstore\n      keccak256(0x00, 0x20)\n      swap1\n      0x1f\n      add\n      0x20\n      swap1\n      div\n      dup2\n      add\n      swap3\n      dup3\n      tag_28\n      jumpi\n      0x00\n      dup6\n      sstore\n      jump(tag_27)\n    tag_28:\n      dup3\n      0x1f\n      lt\n      tag_29\n      jumpi\n      dup1\n      mload\n      not(0xff)\n      and\n      dup4\n      dup1\n      add\n      or\n      dup6\n      sstore\n      jump(tag_27)\n    tag_29:\n      dup3\n      dup1\n      add\n      0x01\n      add\n      dup6\n      sstore\n      dup3\n      iszero\n      tag_27\n      jumpi\n      swap2\n      dup3\n      add\n    tag_30:\n      dup3\n      dup2\n      gt\n      iszero\n      tag_31\n      jumpi\n      dup3\n      mload\n      dup3\n      sstore\n      swap2\n      0x20\n      add\n      swap2\n      swap1\n      0x01\n      add\n      swap1\n      jump(tag_30)\n    tag_31:\n    tag_27:\n      pop\n      swap1\n      pop\n      tag_32\n      swap2\n      swap1\n      tag_33\n      jump\t// in\n    tag_32:\n      pop\n      swap1\n      jump\t// out\n    tag_33:\n    tag_34:\n      dup1\n      dup3\n      gt\n      iszero\n      tag_35\n      jumpi\n      0x00\n      dup2\n      0x00\n      swap1\n      sstore\n      pop\n      0x01\n      add\n      jump(tag_34)\n    tag_35:\n      pop\n      swap1\n      jump\t// out\n        /* \"#utility.yul\":7:419   */\n    tag_37:\n        /* \"#utility.yul\":85:90   */\n      0x00\n        /* \"#utility.yul\":110:176   */\n      tag_39\n        /* \"#utility.yul\":126:175   */\n      tag_40\n        /* \"#utility.yul\":168:174   */\n      dup5\n        /* \"#utility.yul\":126:175   */\n      tag_41\n      jump\t// in\n    tag_40:\n        /* \"#utility.yul\":110:176   */\n      tag_42\n      jump\t// in\n    tag_39:\n        /* \"#utility.yul\":101:176   */\n      swap1\n      pop\n        /* \"#utility.yul\":199:205   */\n      dup3\n        /* \"#utility.yul\":192:197   */\n      dup2\n        /* \"#utility.yul\":185:206   */\n      mstore\n        /* \"#utility.yul\":237:241   */\n      0x20\n        /* \"#utility.yul\":230:235   */\n      dup2\n        /* \"#utility.yul\":226:242   */\n      add\n        /* \"#utility.yul\":275:278   */\n      dup5\n        /* \"#utility.yul\":266:272   */\n      dup5\n        /* \"#utility.yul\":261:264   */\n      dup5\n        /* \"#utility.yul\":257:273   */\n      add\n        /* \"#utility.yul\":254:279   */\n      gt\n        /* \"#utility.yul\":251:363   */\n      iszero\n      tag_43\n      jumpi\n        /* \"#utility.yul\":282:361   */\n      tag_44\n      tag_45\n      jump\t// in\n    tag_44:\n        /* \"#utility.yul\":251:363   */\n    tag_43:\n        /* \"#utility.yul\":372:413   */\n      tag_46\n        /* \"#utility.yul\":406:412   */\n      dup5\n        /* \"#utility.yul\":401:404   */\n      dup3\n        /* \"#utility.yul\":396:399   */\n      dup6\n        /* \"#utility.yul\":372:413   */\n      tag_47\n      jump\t// in\n    tag_46:\n        /* \"#utility.yul\":91:419   */\n      pop\n        /* \"#utility.yul\":7:419   */\n      swap4\n      swap3\n      pop\n      pop\n      pop\n      jump\t// out\n        /* \"#utility.yul\":439:779   */\n    tag_48:\n        /* \"#utility.yul\":495:500   */\n      0x00\n        /* \"#utility.yul\":544:547   */\n      dup3\n        /* \"#utility.yul\":537:541   */\n      0x1f\n        /* \"#utility.yul\":529:535   */\n      dup4\n        /* \"#utility.yul\":525:542   */\n      add\n        /* \"#utility.yul\":521:548   */\n      slt\n        /* \"#utility.yul\":511:633   */\n      tag_50\n      jumpi\n        /* \"#utility.yul\":552:631   */\n      tag_51\n      tag_52\n      jump\t// in\n    tag_51:\n        /* \"#utility.yul\":511:633   */\n    tag_50:\n        /* \"#utility.yul\":669:675   */\n      dup2\n        /* \"#utility.yul\":656:676   */\n      calldataload\n        /* \"#utility.yul\":694:773   */\n      tag_53\n        /* \"#utility.yul\":769:772   */\n      dup5\n        /* \"#utility.yul\":761:767   */\n      dup3\n        /* \"#utility.yul\":754:758   */\n      0x20\n        /* \"#utility.yul\":746:752   */\n      dup7\n        /* \"#utility.yul\":742:759   */\n      add\n        /* \"#utility.yul\":694:773   */\n      tag_37\n      jump\t// in\n    tag_53:\n        /* \"#utility.yul\":685:773   */\n      swap2\n      pop\n        /* \"#utility.yul\":501:779   */\n      pop\n        /* \"#utility.yul\":439:779   */\n      swap3\n      swap2\n      pop\n      pop\n      jump\t// out\n        /* \"#utility.yul\":785:2270   */\n    tag_7:\n        /* \"#utility.yul\":911:917   */\n      0x00\n        /* \"#utility.yul\":919:925   */\n      dup1\n        /* \"#utility.yul\":927:933   */\n      0x00\n        /* \"#utility.yul\":935:941   */\n      dup1\n        /* \"#utility.yul\":984:987   */\n      0x80\n        /* \"#utility.yul\":972:981   */\n      dup6\n        /* \"#utility.yul\":963:970   */\n      dup8\n        /* \"#utility.yul\":959:982   */\n      sub\n        /* \"#utility.yul\":955:988   */\n      slt\n        /* \"#utility.yul\":952:1072   */\n      iszero\n      tag_55\n      jumpi\n        /* \"#utility.yul\":991:1070   */\n      tag_56\n      tag_57\n      jump\t// in\n    tag_56:\n        /* \"#utility.yul\":952:1072   */\n    tag_55:\n        /* \"#utility.yul\":1139:1140   */\n      0x00\n        /* \"#utility.yul\":1128:1137   */\n      dup6\n        /* \"#utility.yul\":1124:1141   */\n      add\n        /* \"#utility.yul\":1111:1142   */\n      calldataload\n        /* \"#utility.yul\":1169:1187   */\n      0xffffffffffffffff\n        /* \"#utility.yul\":1161:1167   */\n      dup2\n        /* \"#utility.yul\":1158:1188   */\n      gt\n        /* \"#utility.yul\":1155:1272   */\n      iszero\n      tag_58\n      jumpi\n        /* \"#utility.yul\":1191:1270   */\n      tag_59\n      tag_60\n      jump\t// in\n    tag_59:\n        /* \"#utility.yul\":1155:1272   */\n    tag_58:\n        /* \"#utility.yul\":1296:1359   */\n      tag_61\n        /* \"#utility.yul\":1351:1358   */\n      dup8\n        /* \"#utility.yul\":1342:1348   */\n      dup3\n        /* \"#utility.yul\":1331:1340   */\n      dup9\n        /* \"#utility.yul\":1327:1349   */\n      add\n        /* \"#utility.yul\":1296:1359   */\n      tag_48\n      jump\t// in\n    tag_61:\n        /* \"#utility.yul\":1286:1359   */\n      swap5\n      pop\n        /* \"#utility.yul\":1082:1369   */\n      pop\n        /* \"#utility.yul\":1436:1438   */\n      0x20\n        /* \"#utility.yul\":1425:1434   */\n      dup6\n        /* \"#utility.yul\":1421:1439   */\n      add\n        /* \"#utility.yul\":1408:1440   */\n      calldataload\n        /* \"#utility.yul\":1467:1485   */\n      0xffffffffffffffff\n        /* \"#utility.yul\":1459:1465   */\n      dup2\n        /* \"#utility.yul\":1456:1486   */\n      gt\n        /* \"#utility.yul\":1453:1570   */\n      iszero\n      tag_62\n      jumpi\n        /* \"#utility.yul\":1489:1568   */\n      tag_63\n      tag_60\n      jump\t// in\n    tag_63:\n        /* \"#utility.yul\":1453:1570   */\n    tag_62:\n        /* \"#utility.yul\":1594:1657   */\n      tag_64\n        /* \"#utility.yul\":1649:1656   */\n      dup8\n        /* \"#utility.yul\":1640:1646   */\n      dup3\n        /* \"#utility.yul\":1629:1638   */\n      dup9\n        /* \"#utility.yul\":1625:1647   */\n      add\n        /* \"#utility.yul\":1594:1657   */\n      tag_48\n      jump\t// in\n    tag_64:\n        /* \"#utility.yul\":1584:1657   */\n      swap4\n      pop\n        /* \"#utility.yul\":1379:1667   */\n      pop\n        /* \"#utility.yul\":1734:1736   */\n      0x40\n        /* \"#utility.yul\":1723:1732   */\n      dup6\n        /* \"#utility.yul\":1719:1737   */\n      add\n        /* \"#utility.yul\":1706:1738   */\n      calldataload\n        /* \"#utility.yul\":1765:1783   */\n      0xffffffffffffffff\n        /* \"#utility.yul\":1757:1763   */\n      dup2\n        /* \"#utility.yul\":1754:1784   */\n      gt\n        /* \"#utility.yul\":1751:1868   */\n      iszero\n      tag_65\n      jumpi\n        /* \"#utility.yul\":1787:1866   */\n      tag_66\n      tag_60\n      jump\t// in\n    tag_66:\n        /* \"#utility.yul\":1751:1868   */\n    tag_65:\n        /* \"#utility.yul\":1892:1955   */\n      tag_67\n        /* \"#utility.yul\":1947:1954   */\n      dup8\n        /* \"#utility.yul\":1938:1944   */\n      dup3\n        /* \"#utility.yul\":1927:1936   */\n      dup9\n        /* \"#utility.yul\":1923:1945   */\n      add\n        /* \"#utility.yul\":1892:1955   */\n      tag_48\n      jump\t// in\n    tag_67:\n        /* \"#utility.yul\":1882:1955   */\n      swap3\n      pop\n        /* \"#utility.yul\":1677:1965   */\n      pop\n        /* \"#utility.yul\":2032:2034   */\n      0x60\n        /* \"#utility.yul\":2021:2030   */\n      dup6\n        /* \"#utility.yul\":2017:2035   */\n      add\n        /* \"#utility.yul\":2004:2036   */\n      calldataload\n        /* \"#utility.yul\":2063:2081   */\n      0xffffffffffffffff\n        /* \"#utility.yul\":2055:2061   */\n      dup2\n        /* \"#utility.yul\":2052:2082   */\n      gt\n        /* \"#utility.yul\":2049:2166   */\n      iszero\n      tag_68\n      jumpi\n        /* \"#utility.yul\":2085:2164   */\n      tag_69\n      tag_60\n      jump\t// in\n    tag_69:\n        /* \"#utility.yul\":2049:2166   */\n    tag_68:\n        /* \"#utility.yul\":2190:2253   */\n      tag_70\n        /* \"#utility.yul\":2245:2252   */\n      dup8\n        /* \"#utility.yul\":2236:2242   */\n      dup3\n        /* \"#utility.yul\":2225:2234   */\n      dup9\n        /* \"#utility.yul\":2221:2243   */\n      add\n        /* \"#utility.yul\":2190:2253   */\n      tag_48\n      jump\t// in\n    tag_70:\n        /* \"#utility.yul\":2180:2253   */\n      swap2\n      pop\n        /* \"#utility.yul\":1975:2263   */\n      pop\n        /* \"#utility.yul\":785:2270   */\n      swap3\n      swap6\n      swap2\n      swap5\n      pop\n      swap3\n      pop\n      jump\t// out\n        /* \"#utility.yul\":2276:2640   */\n    tag_71:\n        /* \"#utility.yul\":2364:2367   */\n      0x00\n        /* \"#utility.yul\":2392:2431   */\n      tag_73\n        /* \"#utility.yul\":2425:2430   */\n      dup3\n        /* \"#utility.yul\":2392:2431   */\n      tag_74\n      jump\t// in\n    tag_73:\n        /* \"#utility.yul\":2447:2518   */\n      tag_75\n        /* \"#utility.yul\":2511:2517   */\n      dup2\n        /* \"#utility.yul\":2506:2509   */\n      dup6\n        /* \"#utility.yul\":2447:2518   */\n      tag_76\n      jump\t// in\n    tag_75:\n        /* \"#utility.yul\":2440:2518   */\n      swap4\n      pop\n        /* \"#utility.yul\":2527:2579   */\n      tag_77\n        /* \"#utility.yul\":2572:2578   */\n      dup2\n        /* \"#utility.yul\":2567:2570   */\n      dup6\n        /* \"#utility.yul\":2560:2564   */\n      0x20\n        /* \"#utility.yul\":2553:2558   */\n      dup7\n        /* \"#utility.yul\":2549:2565   */\n      add\n        /* \"#utility.yul\":2527:2579   */\n      tag_78\n      jump\t// in\n    tag_77:\n        /* \"#utility.yul\":2604:2633   */\n      tag_79\n        /* \"#utility.yul\":2626:2632   */\n      dup2\n        /* \"#utility.yul\":2604:2633   */\n      tag_80\n      jump\t// in\n    tag_79:\n        /* \"#utility.yul\":2599:2602   */\n      dup5\n        /* \"#utility.yul\":2595:2634   */\n      add\n        /* \"#utility.yul\":2588:2634   */\n      swap2\n      pop\n        /* \"#utility.yul\":2368:2640   */\n      pop\n        /* \"#utility.yul\":2276:2640   */\n      swap3\n      swap2\n      pop\n      pop\n      jump\t// out\n        /* \"#utility.yul\":2646:2959   */\n    tag_12:\n        /* \"#utility.yul\":2759:2763   */\n      0x00\n        /* \"#utility.yul\":2797:2799   */\n      0x20\n        /* \"#utility.yul\":2786:2795   */\n      dup3\n        /* \"#utility.yul\":2782:2800   */\n      add\n        /* \"#utility.yul\":2774:2800   */\n      swap1\n      pop\n        /* \"#utility.yul\":2846:2855   */\n      dup2\n        /* \"#utility.yul\":2840:2844   */\n      dup2\n        /* \"#utility.yul\":2836:2856   */\n      sub\n        /* \"#utility.yul\":2832:2833   */\n      0x00\n        /* \"#utility.yul\":2821:2830   */\n      dup4\n        /* \"#utility.yul\":2817:2834   */\n      add\n        /* \"#utility.yul\":2810:2857   */\n      mstore\n        /* \"#utility.yul\":2874:2952   */\n      tag_82\n        /* \"#utility.yul\":2947:2951   */\n      dup2\n        /* \"#utility.yul\":2938:2944   */\n      dup5\n        /* \"#utility.yul\":2874:2952   */\n      tag_71\n      jump\t// in\n    tag_82:\n        /* \"#utility.yul\":2866:2952   */\n      swap1\n      pop\n        /* \"#utility.yul\":2646:2959   */\n      swap3\n      swap2\n      pop\n      pop\n      jump\t// out\n        /* \"#utility.yul\":2965:3094   */\n    tag_42:\n        /* \"#utility.yul\":2999:3005   */\n      0x00\n        /* \"#utility.yul\":3026:3046   */\n      tag_84\n      tag_85\n      jump\t// in\n    tag_84:\n        /* \"#utility.yul\":3016:3046   */\n      swap1\n      pop\n        /* \"#utility.yul\":3055:3088   */\n      tag_86\n        /* \"#utility.yul\":3083:3087   */\n      dup3\n        /* \"#utility.yul\":3075:3081   */\n      dup3\n        /* \"#utility.yul\":3055:3088   */\n      tag_87\n      jump\t// in\n    tag_86:\n        /* \"#utility.yul\":2965:3094   */\n      swap2\n      swap1\n      pop\n      jump\t// out\n        /* \"#utility.yul\":3100:3175   */\n    tag_85:\n        /* \"#utility.yul\":3133:3139   */\n      0x00\n        /* \"#utility.yul\":3166:3168   */\n      0x40\n        /* \"#utility.yul\":3160:3169   */\n      mload\n        /* \"#utility.yul\":3150:3169   */\n      swap1\n      pop\n        /* \"#utility.yul\":3100:3175   */\n      swap1\n      jump\t// out\n        /* \"#utility.yul\":3181:3489   */\n    tag_41:\n        /* \"#utility.yul\":3243:3247   */\n      0x00\n        /* \"#utility.yul\":3333:3351   */\n      0xffffffffffffffff\n        /* \"#utility.yul\":3325:3331   */\n      dup3\n        /* \"#utility.yul\":3322:3352   */\n      gt\n        /* \"#utility.yul\":3319:3375   */\n      iszero\n      tag_90\n      jumpi\n        /* \"#utility.yul\":3355:3373   */\n      tag_91\n      tag_92\n      jump\t// in\n    tag_91:\n        /* \"#utility.yul\":3319:3375   */\n    tag_90:\n        /* \"#utility.yul\":3393:3422   */\n      tag_93\n        /* \"#utility.yul\":3415:3421   */\n      dup3\n        /* \"#utility.yul\":3393:3422   */\n      tag_80\n      jump\t// in\n    tag_93:\n        /* \"#utility.yul\":3385:3422   */\n      swap1\n      pop\n        /* \"#utility.yul\":3477:3481   */\n      0x20\n        /* \"#utility.yul\":3471:3475   */\n      dup2\n        /* \"#utility.yul\":3467:3482   */\n      add\n        /* \"#utility.yul\":3459:3482   */\n      swap1\n      pop\n        /* \"#utility.yul\":3181:3489   */\n      swap2\n      swap1\n      pop\n      jump\t// out\n        /* \"#utility.yul\":3495:3594   */\n    tag_74:\n        /* \"#utility.yul\":3547:3553   */\n      0x00\n        /* \"#utility.yul\":3581:3586   */\n      dup2\n        /* \"#utility.yul\":3575:3587   */\n      mload\n        /* \"#utility.yul\":3565:3587   */\n      swap1\n      pop\n        /* \"#utility.yul\":3495:3594   */\n      swap2\n      swap1\n      pop\n      jump\t// out\n        /* \"#utility.yul\":3600:3769   */\n    tag_76:\n        /* \"#utility.yul\":3684:3695   */\n      0x00\n        /* \"#utility.yul\":3718:3724   */\n      dup3\n        /* \"#utility.yul\":3713:3716   */\n      dup3\n        /* \"#utility.yul\":3706:3725   */\n      mstore\n        /* \"#utility.yul\":3758:3762   */\n      0x20\n        /* \"#utility.yul\":3753:3756   */\n      dup3\n        /* \"#utility.yul\":3749:3763   */\n      add\n        /* \"#utility.yul\":3734:3763   */\n      swap1\n      pop\n        /* \"#utility.yul\":3600:3769   */\n      swap3\n      swap2\n      pop\n      pop\n      jump\t// out\n        /* \"#utility.yul\":3775:3929   */\n    tag_47:\n        /* \"#utility.yul\":3859:3865   */\n      dup3\n        /* \"#utility.yul\":3854:3857   */\n      dup2\n        /* \"#utility.yul\":3849:3852   */\n      dup4\n        /* \"#utility.yul\":3836:3866   */\n      calldatacopy\n        /* \"#utility.yul\":3921:3922   */\n      0x00\n        /* \"#utility.yul\":3912:3918   */\n      dup4\n        /* \"#utility.yul\":3907:3910   */\n      dup4\n        /* \"#utility.yul\":3903:3919   */\n      add\n        /* \"#utility.yul\":3896:3923   */\n      mstore\n        /* \"#utility.yul\":3775:3929   */\n      pop\n      pop\n      pop\n      jump\t// out\n        /* \"#utility.yul\":3935:4242   */\n    tag_78:\n        /* \"#utility.yul\":4003:4004   */\n      0x00\n        /* \"#utility.yul\":4013:4126   */\n    tag_98:\n        /* \"#utility.yul\":4027:4033   */\n      dup4\n        /* \"#utility.yul\":4024:4025   */\n      dup2\n        /* \"#utility.yul\":4021:4034   */\n      lt\n        /* \"#utility.yul\":4013:4126   */\n      iszero\n      tag_100\n      jumpi\n        /* \"#utility.yul\":4112:4113   */\n      dup1\n        /* \"#utility.yul\":4107:4110   */\n      dup3\n        /* \"#utility.yul\":4103:4114   */\n      add\n        /* \"#utility.yul\":4097:4115   */\n      mload\n        /* \"#utility.yul\":4093:4094   */\n      dup2\n        /* \"#utility.yul\":4088:4091   */\n      dup5\n        /* \"#utility.yul\":4084:4095   */\n      add\n        /* \"#utility.yul\":4077:4116   */\n      mstore\n        /* \"#utility.yul\":4049:4051   */\n      0x20\n        /* \"#utility.yul\":4046:4047   */\n      dup2\n        /* \"#utility.yul\":4042:4052   */\n      add\n        /* \"#utility.yul\":4037:4052   */\n      swap1\n      pop\n        /* \"#utility.yul\":4013:4126   */\n      jump(tag_98)\n    tag_100:\n        /* \"#utility.yul\":4144:4150   */\n      dup4\n        /* \"#utility.yul\":4141:4142   */\n      dup2\n        /* \"#utility.yul\":4138:4151   */\n      gt\n        /* \"#utility.yul\":4135:4236   */\n      iszero\n      tag_101\n      jumpi\n        /* \"#utility.yul\":4224:4225   */\n      0x00\n        /* \"#utility.yul\":4215:4221   */\n      dup5\n        /* \"#utility.yul\":4210:4213   */\n      dup5\n        /* \"#utility.yul\":4206:4222   */\n      add\n        /* \"#utility.yul\":4199:4226   */\n      mstore\n        /* \"#utility.yul\":4135:4236   */\n    tag_101:\n        /* \"#utility.yul\":3984:4242   */\n      pop\n        /* \"#utility.yul\":3935:4242   */\n      pop\n      pop\n      pop\n      jump\t// out\n        /* \"#utility.yul\":4248:4568   */\n    tag_21:\n        /* \"#utility.yul\":4292:4298   */\n      0x00\n        /* \"#utility.yul\":4329:4330   */\n      0x02\n        /* \"#utility.yul\":4323:4327   */\n      dup3\n        /* \"#utility.yul\":4319:4331   */\n      div\n        /* \"#utility.yul\":4309:4331   */\n      swap1\n      pop\n        /* \"#utility.yul\":4376:4377   */\n      0x01\n        /* \"#utility.yul\":4370:4374   */\n      dup3\n        /* \"#utility.yul\":4366:4378   */\n      and\n        /* \"#utility.yul\":4397:4415   */\n      dup1\n        /* \"#utility.yul\":4387:4468   */\n      tag_103\n      jumpi\n        /* \"#utility.yul\":4453:4457   */\n      0x7f\n        /* \"#utility.yul\":4445:4451   */\n      dup3\n        /* \"#utility.yul\":4441:4458   */\n      and\n        /* \"#utility.yul\":4431:4458   */\n      swap2\n      pop\n        /* \"#utility.yul\":4387:4468   */\n    tag_103:\n        /* \"#utility.yul\":4515:4517   */\n      0x20\n        /* \"#utility.yul\":4507:4513   */\n      dup3\n        /* \"#utility.yul\":4504:4518   */\n      lt\n        /* \"#utility.yul\":4484:4502   */\n      dup2\n        /* \"#utility.yul\":4481:4519   */\n      eq\n        /* \"#utility.yul\":4478:4562   */\n      iszero\n      tag_104\n      jumpi\n        /* \"#utility.yul\":4534:4552   */\n      tag_105\n      tag_106\n      jump\t// in\n    tag_105:\n        /* \"#utility.yul\":4478:4562   */\n    tag_104:\n        /* \"#utility.yul\":4299:4568   */\n      pop\n        /* \"#utility.yul\":4248:4568   */\n      swap2\n      swap1\n      pop\n      jump\t// out\n        /* \"#utility.yul\":4574:4855   */\n    tag_87:\n        /* \"#utility.yul\":4657:4684   */\n      tag_108\n        /* \"#utility.yul\":4679:4683   */\n      dup3\n        /* \"#utility.yul\":4657:4684   */\n      tag_80\n      jump\t// in\n    tag_108:\n        /* \"#utility.yul\":4649:4655   */\n      dup2\n        /* \"#utility.yul\":4645:4685   */\n      add\n        /* \"#utility.yul\":4787:4793   */\n      dup2\n        /* \"#utility.yul\":4775:4785   */\n      dup2\n        /* \"#utility.yul\":4772:4794   */\n      lt\n        /* \"#utility.yul\":4751:4769   */\n      0xffffffffffffffff\n        /* \"#utility.yul\":4739:4749   */\n      dup3\n        /* \"#utility.yul\":4736:4770   */\n      gt\n        /* \"#utility.yul\":4733:4795   */\n      or\n        /* \"#utility.yul\":4730:4818   */\n      iszero\n      tag_109\n      jumpi\n        /* \"#utility.yul\":4798:4816   */\n      tag_110\n      tag_92\n      jump\t// in\n    tag_110:\n        /* \"#utility.yul\":4730:4818   */\n    tag_109:\n        /* \"#utility.yul\":4838:4848   */\n      dup1\n        /* \"#utility.yul\":4834:4836   */\n      0x40\n        /* \"#utility.yul\":4827:4849   */\n      mstore\n        /* \"#utility.yul\":4617:4855   */\n      pop\n        /* \"#utility.yul\":4574:4855   */\n      pop\n      pop\n      jump\t// out\n        /* \"#utility.yul\":4861:5041   */\n    tag_106:\n        /* \"#utility.yul\":4909:4986   */\n      0x4e487b7100000000000000000000000000000000000000000000000000000000\n        /* \"#utility.yul\":4906:4907   */\n      0x00\n        /* \"#utility.yul\":4899:4987   */\n      mstore\n        /* \"#utility.yul\":5006:5010   */\n      0x22\n        /* \"#utility.yul\":5003:5004   */\n      0x04\n        /* \"#utility.yul\":4996:5011   */\n      mstore\n        /* \"#utility.yul\":5030:5034   */\n      0x24\n        /* \"#utility.yul\":5027:5028   */\n      0x00\n        /* \"#utility.yul\":5020:5035   */\n      revert\n        /* \"#utility.yul\":5047:5227   */\n    tag_92:\n        /* \"#utility.yul\":5095:5172   */\n      0x4e487b7100000000000000000000000000000000000000000000000000000000\n        /* \"#utility.yul\":5092:5093   */\n      0x00\n        /* \"#utility.yul\":5085:5173   */\n      mstore\n        /* \"#utility.yul\":5192:5196   */\n      0x41\n        /* \"#utility.yul\":5189:5190   */\n      0x04\n        /* \"#utility.yul\":5182:5197   */\n      mstore\n        /* \"#utility.yul\":5216:5220   */\n      0x24\n        /* \"#utility.yul\":5213:5214   */\n      0x00\n        /* \"#utility.yul\":5206:5221   */\n      revert\n        /* \"#utility.yul\":5233:5350   */\n    tag_52:\n        /* \"#utility.yul\":5342:5343   */\n      0x00\n        /* \"#utility.yul\":5339:5340   */\n      dup1\n        /* \"#utility.yul\":5332:5344   */\n      revert\n        /* \"#utility.yul\":5356:5473   */\n    tag_45:\n        /* \"#utility.yul\":5465:5466   */\n      0x00\n        /* \"#utility.yul\":5462:5463   */\n      dup1\n        /* \"#utility.yul\":5455:5467   */\n      revert\n        /* \"#utility.yul\":5479:5596   */\n    tag_60:\n        /* \"#utility.yul\":5588:5589   */\n      0x00\n        /* \"#utility.yul\":5585:5586   */\n      dup1\n        /* \"#utility.yul\":5578:5590   */\n      revert\n        /* \"#utility.yul\":5602:5719   */\n    tag_57:\n        /* \"#utility.yul\":5711:5712   */\n      0x00\n        /* \"#utility.yul\":5708:5709   */\n      dup1\n        /* \"#utility.yul\":5701:5713   */\n      revert\n        /* \"#utility.yul\":5725:5827   */\n    tag_80:\n        /* \"#utility.yul\":5766:5772   */\n      0x00\n        /* \"#utility.yul\":5817:5819   */\n      0x1f\n        /* \"#utility.yul\":5813:5820   */\n      not\n        /* \"#utility.yul\":5808:5810   */\n      0x1f\n        /* \"#utility.yul\":5801:5806   */\n      dup4\n        /* \"#utility.yul\":5797:5811   */\n      add\n        /* \"#utility.yul\":5793:5821   */\n      and\n        /* \"#utility.yul\":5783:5821   */\n      swap1\n      pop\n        /* \"#utility.yul\":5725:5827   */\n      swap2\n      swap1\n      pop\n      jump\t// out\n\n    auxdata: 0xa2646970667358221220486bc0ccc187a8268981748e078d29a8c31bf6a3b3f2b3889d35658f5dc08b6864736f6c63430008070033\n}\n",
				"bytecode": {
					"linkReferences": {},
					"object": "608060405234801561001057600080fd5b5061057e806100206000396000f3fe608060405234801561001057600080fd5b50600436106100365760003560e01c8063312ab7221461003b578063832880e714610057575b600080fd5b6100556004803603810190610050919061027c565b610075565b005b61005f6100d7565b60405161006c919061038c565b60405180910390f35b836000908051906020019061008b929190610169565b5082600190805190602001906100a2929190610169565b5081600290805190602001906100b9929190610169565b5080600390805190602001906100d0929190610169565b5050505050565b6060600080546100e690610462565b80601f016020809104026020016040519081016040528092919081815260200182805461011290610462565b801561015f5780601f106101345761010080835404028352916020019161015f565b820191906000526020600020905b81548152906001019060200180831161014257829003601f168201915b5050505050905090565b82805461017590610462565b90600052602060002090601f01602090048101928261019757600085556101de565b82601f106101b057805160ff19168380011785556101de565b828001600101855582156101de579182015b828111156101dd5782518255916020019190600101906101c2565b5b5090506101eb91906101ef565b5090565b5b808211156102085760008160009055506001016101f0565b5090565b600061021f61021a846103d3565b6103ae565b90508281526020810184848401111561023b5761023a610528565b5b610246848285610420565b509392505050565b600082601f83011261026357610262610523565b5b813561027384826020860161020c565b91505092915050565b6000806000806080858703121561029657610295610532565b5b600085013567ffffffffffffffff8111156102b4576102b361052d565b5b6102c08782880161024e565b945050602085013567ffffffffffffffff8111156102e1576102e061052d565b5b6102ed8782880161024e565b935050604085013567ffffffffffffffff81111561030e5761030d61052d565b5b61031a8782880161024e565b925050606085013567ffffffffffffffff81111561033b5761033a61052d565b5b6103478782880161024e565b91505092959194509250565b600061035e82610404565b610368818561040f565b935061037881856020860161042f565b61038181610537565b840191505092915050565b600060208201905081810360008301526103a68184610353565b905092915050565b60006103b86103c9565b90506103c48282610494565b919050565b6000604051905090565b600067ffffffffffffffff8211156103ee576103ed6104f4565b5b6103f782610537565b9050602081019050919050565b600081519050919050565b600082825260208201905092915050565b82818337600083830152505050565b60005b8381101561044d578082015181840152602081019050610432565b8381111561045c576000848401525b50505050565b6000600282049050600182168061047a57607f821691505b6020821081141561048e5761048d6104c5565b5b50919050565b61049d82610537565b810181811067ffffffffffffffff821117156104bc576104bb6104f4565b5b80604052505050565b7f4e487b7100000000000000000000000000000000000000000000000000000000600052602260045260246000fd5b7f4e487b7100000000000000000000000000000000000000000000000000000000600052604160045260246000fd5b600080fd5b600080fd5b600080fd5b600080fd5b6000601f19601f830116905091905056fea2646970667358221220486bc0ccc187a8268981748e078d29a8c31bf6a3b3f2b3889d35658f5dc08b6864736f6c63430008070033",
					"opcodes": "PUSH1 0x80 PUSH1 0x40 MSTORE CALLVALUE DUP1 ISZERO PUSH2 0x10 JUMPI PUSH1 0x0 DUP1 REVERT JUMPDEST POP PUSH2 0x57E DUP1 PUSH2 0x20 PUSH1 0x0 CODECOPY PUSH1 0x0 RETURN INVALID PUSH1 0x80 PUSH1 0x40 MSTORE CALLVALUE DUP1 ISZERO PUSH2 0x10 JUMPI PUSH1 0x0 DUP1 REVERT JUMPDEST POP PUSH1 0x4 CALLDATASIZE LT PUSH2 0x36 JUMPI PUSH1 0x0 CALLDATALOAD PUSH1 0xE0 SHR DUP1 PUSH4 0x312AB722 EQ PUSH2 0x3B JUMPI DUP1 PUSH4 0x832880E7 EQ PUSH2 0x57 JUMPI JUMPDEST PUSH1 0x0 DUP1 REVERT JUMPDEST PUSH2 0x55 PUSH1 0x4 DUP1 CALLDATASIZE SUB DUP2 ADD SWAP1 PUSH2 0x50 SWAP2 SWAP1 PUSH2 0x27C JUMP JUMPDEST PUSH2 0x75 JUMP JUMPDEST STOP JUMPDEST PUSH2 0x5F PUSH2 0xD7 JUMP JUMPDEST PUSH1 0x40 MLOAD PUSH2 0x6C SWAP2 SWAP1 PUSH2 0x38C JUMP JUMPDEST PUSH1 0x40 MLOAD DUP1 SWAP2 SUB SWAP1 RETURN JUMPDEST DUP4 PUSH1 0x0 SWAP1 DUP1 MLOAD SWAP1 PUSH1 0x20 ADD SWAP1 PUSH2 0x8B SWAP3 SWAP2 SWAP1 PUSH2 0x169 JUMP JUMPDEST POP DUP3 PUSH1 0x1 SWAP1 DUP1 MLOAD SWAP1 PUSH1 0x20 ADD SWAP1 PUSH2 0xA2 SWAP3 SWAP2 SWAP1 PUSH2 0x169 JUMP JUMPDEST POP DUP2 PUSH1 0x2 SWAP1 DUP1 MLOAD SWAP1 PUSH1 0x20 ADD SWAP1 PUSH2 0xB9 SWAP3 SWAP2 SWAP1 PUSH2 0x169 JUMP JUMPDEST POP DUP1 PUSH1 0x3 SWAP1 DUP1 MLOAD SWAP1 PUSH1 0x20 ADD SWAP1 PUSH2 0xD0 SWAP3 SWAP2 SWAP1 PUSH2 0x169 JUMP JUMPDEST POP POP POP POP POP JUMP JUMPDEST PUSH1 0x60 PUSH1 0x0 DUP1 SLOAD PUSH2 0xE6 SWAP1 PUSH2 0x462 JUMP JUMPDEST DUP1 PUSH1 0x1F ADD PUSH1 0x20 DUP1 SWAP2 DIV MUL PUSH1 0x20 ADD PUSH1 0x40 MLOAD SWAP1 DUP2 ADD PUSH1 0x40 MSTORE DUP1 SWAP3 SWAP2 SWAP1 DUP2 DUP2 MSTORE PUSH1 0x20 ADD DUP3 DUP1 SLOAD PUSH2 0x112 SWAP1 PUSH2 0x462 JUMP JUMPDEST DUP1 ISZERO PUSH2 0x15F JUMPI DUP1 PUSH1 0x1F LT PUSH2 0x134 JUMPI PUSH2 0x100 DUP1 DUP4 SLOAD DIV MUL DUP4 MSTORE SWAP2 PUSH1 0x20 ADD SWAP2 PUSH2 0x15F JUMP JUMPDEST DUP3 ADD SWAP2 SWAP1 PUSH1 0x0 MSTORE PUSH1 0x20 PUSH1 0x0 KECCAK256 SWAP1 JUMPDEST DUP2 SLOAD DUP2 MSTORE SWAP1 PUSH1 0x1 ADD SWAP1 PUSH1 0x20 ADD DUP1 DUP4 GT PUSH2 0x142 JUMPI DUP3 SWAP1 SUB PUSH1 0x1F AND DUP3 ADD SWAP2 JUMPDEST POP POP POP POP POP SWAP1 POP SWAP1 JUMP JUMPDEST DUP3 DUP1 SLOAD PUSH2 0x175 SWAP1 PUSH2 0x462 JUMP JUMPDEST SWAP1 PUSH1 0x0 MSTORE PUSH1 0x20 PUSH1 0x0 KECCAK256 SWAP1 PUSH1 0x1F ADD PUSH1 0x20 SWAP1 DIV DUP2 ADD SWAP3 DUP3 PUSH2 0x197 JUMPI PUSH1 0x0 DUP6 SSTORE PUSH2 0x1DE JUMP JUMPDEST DUP3 PUSH1 0x1F LT PUSH2 0x1B0 JUMPI DUP1 MLOAD PUSH1 0xFF NOT AND DUP4 DUP1 ADD OR DUP6 SSTORE PUSH2 0x1DE JUMP JUMPDEST DUP3 DUP1 ADD PUSH1 0x1 ADD DUP6 SSTORE DUP3 ISZERO PUSH2 0x1DE JUMPI SWAP2 DUP3 ADD JUMPDEST DUP3 DUP2 GT ISZERO PUSH2 0x1DD JUMPI DUP3 MLOAD DUP3 SSTORE SWAP2 PUSH1 0x20 ADD SWAP2 SWAP1 PUSH1 0x1 ADD SWAP1 PUSH2 0x1C2 JUMP JUMPDEST JUMPDEST POP SWAP1 POP PUSH2 0x1EB SWAP2 SWAP1 PUSH2 0x1EF JUMP JUMPDEST POP SWAP1 JUMP JUMPDEST JUMPDEST DUP1 DUP3 GT ISZERO PUSH2 0x208 JUMPI PUSH1 0x0 DUP2 PUSH1 0x0 SWAP1 SSTORE POP PUSH1 0x1 ADD PUSH2 0x1F0 JUMP JUMPDEST POP SWAP1 JUMP JUMPDEST PUSH1 0x0 PUSH2 0x21F PUSH2 0x21A DUP5 PUSH2 0x3D3 JUMP JUMPDEST PUSH2 0x3AE JUMP JUMPDEST SWAP1 POP DUP3 DUP2 MSTORE PUSH1 0x20 DUP2 ADD DUP5 DUP5 DUP5 ADD GT ISZERO PUSH2 0x23B JUMPI PUSH2 0x23A PUSH2 0x528 JUMP JUMPDEST JUMPDEST PUSH2 0x246 DUP5 DUP3 DUP6 PUSH2 0x420 JUMP JUMPDEST POP SWAP4 SWAP3 POP POP POP JUMP JUMPDEST PUSH1 0x0 DUP3 PUSH1 0x1F DUP4 ADD SLT PUSH2 0x263 JUMPI PUSH2 0x262 PUSH2 0x523 JUMP JUMPDEST JUMPDEST DUP2 CALLDATALOAD PUSH2 0x273 DUP5 DUP3 PUSH1 0x20 DUP7 ADD PUSH2 0x20C JUMP JUMPDEST SWAP2 POP POP SWAP3 SWAP2 POP POP JUMP JUMPDEST PUSH1 0x0 DUP1 PUSH1 0x0 DUP1 PUSH1 0x80 DUP6 DUP8 SUB SLT ISZERO PUSH2 0x296 JUMPI PUSH2 0x295 PUSH2 0x532 JUMP JUMPDEST JUMPDEST PUSH1 0x0 DUP6 ADD CALLDATALOAD PUSH8 0xFFFFFFFFFFFFFFFF DUP2 GT ISZERO PUSH2 0x2B4 JUMPI PUSH2 0x2B3 PUSH2 0x52D JUMP JUMPDEST JUMPDEST PUSH2 0x2C0 DUP8 DUP3 DUP9 ADD PUSH2 0x24E JUMP JUMPDEST SWAP5 POP POP PUSH1 0x20 DUP6 ADD CALLDATALOAD PUSH8 0xFFFFFFFFFFFFFFFF DUP2 GT ISZERO PUSH2 0x2E1 JUMPI PUSH2 0x2E0 PUSH2 0x52D JUMP JUMPDEST JUMPDEST PUSH2 0x2ED DUP8 DUP3 DUP9 ADD PUSH2 0x24E JUMP JUMPDEST SWAP4 POP POP PUSH1 0x40 DUP6 ADD CALLDATALOAD PUSH8 0xFFFFFFFFFFFFFFFF DUP2 GT ISZERO PUSH2 0x30E JUMPI PUSH2 0x30D PUSH2 0x52D JUMP JUMPDEST JUMPDEST PUSH2 0x31A DUP8 DUP3 DUP9 ADD PUSH2 0x24E JUMP JUMPDEST SWAP3 POP POP PUSH1 0x60 DUP6 ADD CALLDATALOAD PUSH8 0xFFFFFFFFFFFFFFFF DUP2 GT ISZERO PUSH2 0x33B JUMPI PUSH2 0x33A PUSH2 0x52D JUMP JUMPDEST JUMPDEST PUSH2 0x347 DUP8 DUP3 DUP9 ADD PUSH2 0x24E JUMP JUMPDEST SWAP2 POP POP SWAP3 SWAP6 SWAP2 SWAP5 POP SWAP3 POP JUMP JUMPDEST PUSH1 0x0 PUSH2 0x35E DUP3 PUSH2 0x404 JUMP JUMPDEST PUSH2 0x368 DUP2 DUP6 PUSH2 0x40F JUMP JUMPDEST SWAP4 POP PUSH2 0x378 DUP2 DUP6 PUSH1 0x20 DUP7 ADD PUSH2 0x42F JUMP JUMPDEST PUSH2 0x381 DUP2 PUSH2 0x537 JUMP JUMPDEST DUP5 ADD SWAP2 POP POP SWAP3 SWAP2 POP POP JUMP JUMPDEST PUSH1 0x0 PUSH1 0x20 DUP3 ADD SWAP1 POP DUP2 DUP2 SUB PUSH1 0x0 DUP4 ADD MSTORE PUSH2 0x3A6 DUP2 DUP5 PUSH2 0x353 JUMP JUMPDEST SWAP1 POP SWAP3 SWAP2 POP POP JUMP JUMPDEST PUSH1 0x0 PUSH2 0x3B8 PUSH2 0x3C9 JUMP JUMPDEST SWAP1 POP PUSH2 0x3C4 DUP3 DUP3 PUSH2 0x494 JUMP JUMPDEST SWAP2 SWAP1 POP JUMP JUMPDEST PUSH1 0x0 PUSH1 0x40 MLOAD SWAP1 POP SWAP1 JUMP JUMPDEST PUSH1 0x0 PUSH8 0xFFFFFFFFFFFFFFFF DUP3 GT ISZERO PUSH2 0x3EE JUMPI PUSH2 0x3ED PUSH2 0x4F4 JUMP JUMPDEST JUMPDEST PUSH2 0x3F7 DUP3 PUSH2 0x537 JUMP JUMPDEST SWAP1 POP PUSH1 0x20 DUP2 ADD SWAP1 POP SWAP2 SWAP1 POP JUMP JUMPDEST PUSH1 0x0 DUP2 MLOAD SWAP1 POP SWAP2 SWAP1 POP JUMP JUMPDEST PUSH1 0x0 DUP3 DUP3 MSTORE PUSH1 0x20 DUP3 ADD SWAP1 POP SWAP3 SWAP2 POP POP JUMP JUMPDEST DUP3 DUP2 DUP4 CALLDATACOPY PUSH1 0x0 DUP4 DUP4 ADD MSTORE POP POP POP JUMP JUMPDEST PUSH1 0x0 JUMPDEST DUP4 DUP2 LT ISZERO PUSH2 0x44D JUMPI DUP1 DUP3 ADD MLOAD DUP2 DUP5 ADD MSTORE PUSH1 0x20 DUP2 ADD SWAP1 POP PUSH2 0x432 JUMP JUMPDEST DUP4 DUP2 GT ISZERO PUSH2 0x45C JUMPI PUSH1 0x0 DUP5 DUP5 ADD MSTORE JUMPDEST POP POP POP POP JUMP JUMPDEST PUSH1 0x0 PUSH1 0x2 DUP3 DIV SWAP1 POP PUSH1 0x1 DUP3 AND DUP1 PUSH2 0x47A JUMPI PUSH1 0x7F DUP3 AND SWAP2 POP JUMPDEST PUSH1 0x20 DUP3 LT DUP2 EQ ISZERO PUSH2 0x48E JUMPI PUSH2 0x48D PUSH2 0x4C5 JUMP JUMPDEST JUMPDEST POP SWAP2 SWAP1 POP JUMP JUMPDEST PUSH2 0x49D DUP3 PUSH2 0x537 JUMP JUMPDEST DUP2 ADD DUP2 DUP2 LT PUSH8 0xFFFFFFFFFFFFFFFF DUP3 GT OR ISZERO PUSH2 0x4BC JUMPI PUSH2 0x4BB PUSH2 0x4F4 JUMP JUMPDEST JUMPDEST DUP1 PUSH1 0x40 MSTORE POP POP POP JUMP JUMPDEST PUSH32 0x4E487B7100000000000000000000000000000000000000000000000000000000 PUSH1 0x0 MSTORE PUSH1 0x22 PUSH1 0x4 MSTORE PUSH1 0x24 PUSH1 0x0 REVERT JUMPDEST PUSH32 0x4E487B7100000000000000000000000000000000000000000000000000000000 PUSH1 0x0 MSTORE PUSH1 0x41 PUSH1 0x4 MSTORE PUSH1 0x24 PUSH1 0x0 REVERT JUMPDEST PUSH1 0x0 DUP1 REVERT JUMPDEST PUSH1 0x0 DUP1 REVERT JUMPDEST PUSH1 0x0 DUP1 REVERT JUMPDEST PUSH1 0x0 DUP1 REVERT JUMPDEST PUSH1 0x0 PUSH1 0x1F NOT PUSH1 0x1F DUP4 ADD AND SWAP1 POP SWAP2 SWAP1 POP JUMP INVALID LOG2 PUSH5 0x6970667358 0x22 SLT KECCAK256 BASEFEE PUSH12 0xC0CCC187A8268981748E078D 0x29 0xA8 0xC3 SHL 0xF6 LOG3 0xB3 CALLCODE 0xB3 DUP9 SWAP14 CALLDATALOAD PUSH6 0x8F5DC08B6864 PUSH20 0x6F6C634300080700330000000000000000000000 "
				},
				"gasEstimates": {
					"creation": {
						"codeDepositCost": "281200",
						"executionCost": "318",
						"totalCost": "281518"
					},
					"external": {
						"getUser()": "infinite",
						"setUser(string,string,string,string)": "infinite"
					}
				},
				"methodIdentifiers": {
					"getUser()": "832880e7",
					"setUser(string,string,string,string)": "312ab722"
				}
			},
			"userdoc": {
				"kind": "user",
				"methods": {},
				"version": 1
			}
		}
	}
}