{
	"contracts/UserRegister.sol": {
		"UserRegister": {
			"abi": [
				{
					"inputs": [],
					"name": "GetUser",
					"outputs": [
						{
							"internalType": "string",
							"name": "",
							"type": "string"
						},
						{
							"internalType": "string",
							"name": "",
							"type": "string"
						},
						{
							"internalType": "string",
							"name": "",
							"type": "string"
						},
						{
							"internalType": "string",
							"name": "",
							"type": "string"
						}
					],
					"stateMutability": "view",
					"type": "function"
				},
				{
					"inputs": [
						{
							"internalType": "string",
							"name": "_userName",
							"type": "string"
						},
						{
							"internalType": "string",
							"name": "_email",
							"type": "string"
						},
						{
							"internalType": "string",
							"name": "_password",
							"type": "string"
						},
						{
							"internalType": "string",
							"name": "_confirmPassword",
							"type": "string"
						}
					],
					"name": "SetUser",
					"outputs": [],
					"stateMutability": "nonpayable",
					"type": "function"
				}
			],
			"devdoc": {
				"kind": "dev",
				"methods": {},
				"version": 1
			},
			"evm": {
				"assembly": "    /* \"contracts/UserRegister.sol\":74:644  contract UserRegister {\r... */\n  mstore(0x40, 0x80)\n  callvalue\n  dup1\n  iszero\n  tag_1\n  jumpi\n  0x00\n  dup1\n  revert\ntag_1:\n  pop\n  dataSize(sub_0)\n  dup1\n  dataOffset(sub_0)\n  0x00\n  codecopy\n  0x00\n  return\nstop\n\nsub_0: assembly {\n        /* \"contracts/UserRegister.sol\":74:644  contract UserRegister {\r... */\n      mstore(0x40, 0x80)\n      callvalue\n      dup1\n      iszero\n      tag_1\n      jumpi\n      0x00\n      dup1\n      revert\n    tag_1:\n      pop\n      jumpi(tag_2, lt(calldatasize, 0x04))\n      shr(0xe0, calldataload(0x00))\n      dup1\n      0x5ee0f654\n      eq\n      tag_3\n      jumpi\n      dup1\n      0x6f8fcae2\n      eq\n      tag_4\n      jumpi\n    tag_2:\n      0x00\n      dup1\n      revert\n        /* \"contracts/UserRegister.sol\":480:641  function GetUser() public view returns(string memory,string memory,string memory,string memory){\r... */\n    tag_3:\n      tag_5\n      tag_6\n      jump\t// in\n    tag_5:\n      mload(0x40)\n      tag_7\n      swap5\n      swap4\n      swap3\n      swap2\n      swap1\n      tag_8\n      jump\t// in\n    tag_7:\n      mload(0x40)\n      dup1\n      swap2\n      sub\n      swap1\n      return\n        /* \"contracts/UserRegister.sol\":199:472  function SetUser(string memory _userName, string memory _email, string memory _password, string memory _confirmPassword) public {\r... */\n    tag_4:\n      tag_9\n      0x04\n      dup1\n      calldatasize\n      sub\n      dup2\n      add\n      swap1\n      tag_10\n      swap2\n      swap1\n      tag_11\n      jump\t// in\n    tag_10:\n      tag_12\n      jump\t// in\n    tag_9:\n      stop\n        /* \"contracts/UserRegister.sol\":480:641  function GetUser() public view returns(string memory,string memory,string memory,string memory){\r... */\n    tag_6:\n        /* \"contracts/UserRegister.sol\":519:532  string memory */\n      0x60\n        /* \"contracts/UserRegister.sol\":533:546  string memory */\n      dup1\n        /* \"contracts/UserRegister.sol\":547:560  string memory */\n      0x60\n        /* \"contracts/UserRegister.sol\":561:574  string memory */\n      dup1\n        /* \"contracts/UserRegister.sol\":593:601  userName */\n      0x00\n        /* \"contracts/UserRegister.sol\":602:607  email */\n      0x01\n        /* \"contracts/UserRegister.sol\":608:616  password */\n      0x02\n        /* \"contracts/UserRegister.sol\":617:632  confirmPassword */\n      0x03\n        /* \"contracts/UserRegister.sol\":586:633  return(userName,email,password,confirmPassword) */\n      dup4\n      dup1\n      sload\n      tag_14\n      swap1\n      tag_15\n      jump\t// in\n    tag_14:\n      dup1\n      0x1f\n      add\n      0x20\n      dup1\n      swap2\n      div\n      mul\n      0x20\n      add\n      mload(0x40)\n      swap1\n      dup2\n      add\n      0x40\n      mstore\n      dup1\n      swap3\n      swap2\n      swap1\n      dup2\n      dup2\n      mstore\n      0x20\n      add\n      dup3\n      dup1\n      sload\n      tag_16\n      swap1\n      tag_15\n      jump\t// in\n    tag_16:\n      dup1\n      iszero\n      tag_17\n      jumpi\n      dup1\n      0x1f\n      lt\n      tag_18\n      jumpi\n      0x0100\n      dup1\n      dup4\n      sload\n      div\n      mul\n      dup4\n      mstore\n      swap2\n      0x20\n      add\n      swap2\n      jump(tag_17)\n    tag_18:\n      dup3\n      add\n      swap2\n      swap1\n      0x00\n      mstore\n      keccak256(0x00, 0x20)\n      swap1\n    tag_19:\n      dup2\n      sload\n      dup2\n      mstore\n      swap1\n      0x01\n      add\n      swap1\n      0x20\n      add\n      dup1\n      dup4\n      gt\n      tag_19\n      jumpi\n      dup3\n      swap1\n      sub\n      0x1f\n      and\n      dup3\n      add\n      swap2\n    tag_17:\n      pop\n      pop\n      pop\n      pop\n      pop\n      swap4\n      pop\n      dup3\n      dup1\n      sload\n      tag_20\n      swap1\n      tag_15\n      jump\t// in\n    tag_20:\n      dup1\n      0x1f\n      add\n      0x20\n      dup1\n      swap2\n      div\n      mul\n      0x20\n      add\n      mload(0x40)\n      swap1\n      dup2\n      add\n      0x40\n      mstore\n      dup1\n      swap3\n      swap2\n      swap1\n      dup2\n      dup2\n      mstore\n      0x20\n      add\n      dup3\n      dup1\n      sload\n      tag_21\n      swap1\n      tag_15\n      jump\t// in\n    tag_21:\n      dup1\n      iszero\n      tag_22\n      jumpi\n      dup1\n      0x1f\n      lt\n      tag_23\n      jumpi\n      0x0100\n      dup1\n      dup4\n      sload\n      div\n      mul\n      dup4\n      mstore\n      swap2\n      0x20\n      add\n      swap2\n      jump(tag_22)\n    tag_23:\n      dup3\n      add\n      swap2\n      swap1\n      0x00\n      mstore\n      keccak256(0x00, 0x20)\n      swap1\n    tag_24:\n      dup2\n      sload\n      dup2\n      mstore\n      swap1\n      0x01\n      add\n      swap1\n      0x20\n      add\n      dup1\n      dup4\n      gt\n      tag_24\n      jumpi\n      dup3\n      swap1\n      sub\n      0x1f\n      and\n      dup3\n      add\n      swap2\n    tag_22:\n      pop\n      pop\n      pop\n      pop\n      pop\n      swap3\n      pop\n      dup2\n      dup1\n      sload\n      tag_25\n      swap1\n      tag_15\n      jump\t// in\n    tag_25:\n      dup1\n      0x1f\n      add\n      0x20\n      dup1\n      swap2\n      div\n      mul\n      0x20\n      add\n      mload(0x40)\n      swap1\n      dup2\n      add\n      0x40\n      mstore\n      dup1\n      swap3\n      swap2\n      swap1\n      dup2\n      dup2\n      mstore\n      0x20\n      add\n      dup3\n      dup1\n      sload\n      tag_26\n      swap1\n      tag_15\n      jump\t// in\n    tag_26:\n      dup1\n      iszero\n      tag_27\n      jumpi\n      dup1\n      0x1f\n      lt\n      tag_28\n      jumpi\n      0x0100\n      dup1\n      dup4\n      sload\n      div\n      mul\n      dup4\n      mstore\n      swap2\n      0x20\n      add\n      swap2\n      jump(tag_27)\n    tag_28:\n      dup3\n      add\n      swap2\n      swap1\n      0x00\n      mstore\n      keccak256(0x00, 0x20)\n      swap1\n    tag_29:\n      dup2\n      sload\n      dup2\n      mstore\n      swap1\n      0x01\n      add\n      swap1\n      0x20\n      add\n      dup1\n      dup4\n      gt\n      tag_29\n      jumpi\n      dup3\n      swap1\n      sub\n      0x1f\n      and\n      dup3\n      add\n      swap2\n    tag_27:\n      pop\n      pop\n      pop\n      pop\n      pop\n      swap2\n      pop\n      dup1\n      dup1\n      sload\n      tag_30\n      swap1\n      tag_15\n      jump\t// in\n    tag_30:\n      dup1\n      0x1f\n      add\n      0x20\n      dup1\n      swap2\n      div\n      mul\n      0x20\n      add\n      mload(0x40)\n      swap1\n      dup2\n      add\n      0x40\n      mstore\n      dup1\n      swap3\n      swap2\n      swap1\n      dup2\n      dup2\n      mstore\n      0x20\n      add\n      dup3\n      dup1\n      sload\n      tag_31\n      swap1\n      tag_15\n      jump\t// in\n    tag_31:\n      dup1\n      iszero\n      tag_32\n      jumpi\n      dup1\n      0x1f\n      lt\n      tag_33\n      jumpi\n      0x0100\n      dup1\n      dup4\n      sload\n      div\n      mul\n      dup4\n      mstore\n      swap2\n      0x20\n      add\n      swap2\n      jump(tag_32)\n    tag_33:\n      dup3\n      add\n      swap2\n      swap1\n      0x00\n      mstore\n      keccak256(0x00, 0x20)\n      swap1\n    tag_34:\n      dup2\n      sload\n      dup2\n      mstore\n      swap1\n      0x01\n      add\n      swap1\n      0x20\n      add\n      dup1\n      dup4\n      gt\n      tag_34\n      jumpi\n      dup3\n      swap1\n      sub\n      0x1f\n      and\n      dup3\n      add\n      swap2\n    tag_32:\n      pop\n      pop\n      pop\n      pop\n      pop\n      swap1\n      pop\n      swap4\n      pop\n      swap4\n      pop\n      swap4\n      pop\n      swap4\n      pop\n        /* \"contracts/UserRegister.sol\":480:641  function GetUser() public view returns(string memory,string memory,string memory,string memory){\r... */\n      swap1\n      swap2\n      swap3\n      swap4\n      jump\t// out\n        /* \"contracts/UserRegister.sol\":199:472  function SetUser(string memory _userName, string memory _email, string memory _password, string memory _confirmPassword) public {\r... */\n    tag_12:\n        /* \"contracts/UserRegister.sol\":355:364  _userName */\n      dup4\n        /* \"contracts/UserRegister.sol\":346:354  userName */\n      0x00\n        /* \"contracts/UserRegister.sol\":346:364  userName=_userName */\n      swap1\n      dup1\n      mload\n      swap1\n      0x20\n      add\n      swap1\n      tag_36\n      swap3\n      swap2\n      swap1\n      tag_37\n      jump\t// in\n    tag_36:\n      pop\n        /* \"contracts/UserRegister.sol\":382:388  _email */\n      dup3\n        /* \"contracts/UserRegister.sol\":376:381  email */\n      0x01\n        /* \"contracts/UserRegister.sol\":376:388  email=_email */\n      swap1\n      dup1\n      mload\n      swap1\n      0x20\n      add\n      swap1\n      tag_38\n      swap3\n      swap2\n      swap1\n      tag_37\n      jump\t// in\n    tag_38:\n      pop\n        /* \"contracts/UserRegister.sol\":409:418  _password */\n      dup2\n        /* \"contracts/UserRegister.sol\":400:408  password */\n      0x02\n        /* \"contracts/UserRegister.sol\":400:418  password=_password */\n      swap1\n      dup1\n      mload\n      swap1\n      0x20\n      add\n      swap1\n      tag_39\n      swap3\n      swap2\n      swap1\n      tag_37\n      jump\t// in\n    tag_39:\n      pop\n        /* \"contracts/UserRegister.sol\":446:462  _confirmPassword */\n      dup1\n        /* \"contracts/UserRegister.sol\":430:445  confirmPassword */\n      0x03\n        /* \"contracts/UserRegister.sol\":430:462  confirmPassword=_confirmPassword */\n      swap1\n      dup1\n      mload\n      swap1\n      0x20\n      add\n      swap1\n      tag_40\n      swap3\n      swap2\n      swap1\n      tag_37\n      jump\t// in\n    tag_40:\n      pop\n        /* \"contracts/UserRegister.sol\":199:472  function SetUser(string memory _userName, string memory _email, string memory _password, string memory _confirmPassword) public {\r... */\n      pop\n      pop\n      pop\n      pop\n      jump\t// out\n    tag_37:\n      dup3\n      dup1\n      sload\n      tag_41\n      swap1\n      tag_15\n      jump\t// in\n    tag_41:\n      swap1\n      0x00\n      mstore\n      keccak256(0x00, 0x20)\n      swap1\n      0x1f\n      add\n      0x20\n      swap1\n      div\n      dup2\n      add\n      swap3\n      dup3\n      tag_43\n      jumpi\n      0x00\n      dup6\n      sstore\n      jump(tag_42)\n    tag_43:\n      dup3\n      0x1f\n      lt\n      tag_44\n      jumpi\n      dup1\n      mload\n      not(0xff)\n      and\n      dup4\n      dup1\n      add\n      or\n      dup6\n      sstore\n      jump(tag_42)\n    tag_44:\n      dup3\n      dup1\n      add\n      0x01\n      add\n      dup6\n      sstore\n      dup3\n      iszero\n      tag_42\n      jumpi\n      swap2\n      dup3\n      add\n    tag_45:\n      dup3\n      dup2\n      gt\n      iszero\n      tag_46\n      jumpi\n      dup3\n      mload\n      dup3\n      sstore\n      swap2\n      0x20\n      add\n      swap2\n      swap1\n      0x01\n      add\n      swap1\n      jump(tag_45)\n    tag_46:\n    tag_42:\n      pop\n      swap1\n      pop\n      tag_47\n      swap2\n      swap1\n      tag_48\n      jump\t// in\n    tag_47:\n      pop\n      swap1\n      jump\t// out\n    tag_48:\n    tag_49:\n      dup1\n      dup3\n      gt\n      iszero\n      tag_50\n      jumpi\n      0x00\n      dup2\n      0x00\n      swap1\n      sstore\n      pop\n      0x01\n      add\n      jump(tag_49)\n    tag_50:\n      pop\n      swap1\n      jump\t// out\n        /* \"#utility.yul\":7:419   */\n    tag_52:\n        /* \"#utility.yul\":85:90   */\n      0x00\n        /* \"#utility.yul\":110:176   */\n      tag_54\n        /* \"#utility.yul\":126:175   */\n      tag_55\n        /* \"#utility.yul\":168:174   */\n      dup5\n        /* \"#utility.yul\":126:175   */\n      tag_56\n      jump\t// in\n    tag_55:\n        /* \"#utility.yul\":110:176   */\n      tag_57\n      jump\t// in\n    tag_54:\n        /* \"#utility.yul\":101:176   */\n      swap1\n      pop\n        /* \"#utility.yul\":199:205   */\n      dup3\n        /* \"#utility.yul\":192:197   */\n      dup2\n        /* \"#utility.yul\":185:206   */\n      mstore\n        /* \"#utility.yul\":237:241   */\n      0x20\n        /* \"#utility.yul\":230:235   */\n      dup2\n        /* \"#utility.yul\":226:242   */\n      add\n        /* \"#utility.yul\":275:278   */\n      dup5\n        /* \"#utility.yul\":266:272   */\n      dup5\n        /* \"#utility.yul\":261:264   */\n      dup5\n        /* \"#utility.yul\":257:273   */\n      add\n        /* \"#utility.yul\":254:279   */\n      gt\n        /* \"#utility.yul\":251:363   */\n      iszero\n      tag_58\n      jumpi\n        /* \"#utility.yul\":282:361   */\n      tag_59\n      tag_60\n      jump\t// in\n    tag_59:\n        /* \"#utility.yul\":251:363   */\n    tag_58:\n        /* \"#utility.yul\":372:413   */\n      tag_61\n        /* \"#utility.yul\":406:412   */\n      dup5\n        /* \"#utility.yul\":401:404   */\n      dup3\n        /* \"#utility.yul\":396:399   */\n      dup6\n        /* \"#utility.yul\":372:413   */\n      tag_62\n      jump\t// in\n    tag_61:\n        /* \"#utility.yul\":91:419   */\n      pop\n        /* \"#utility.yul\":7:419   */\n      swap4\n      swap3\n      pop\n      pop\n      pop\n      jump\t// out\n        /* \"#utility.yul\":439:779   */\n    tag_63:\n        /* \"#utility.yul\":495:500   */\n      0x00\n        /* \"#utility.yul\":544:547   */\n      dup3\n        /* \"#utility.yul\":537:541   */\n      0x1f\n        /* \"#utility.yul\":529:535   */\n      dup4\n        /* \"#utility.yul\":525:542   */\n      add\n        /* \"#utility.yul\":521:548   */\n      slt\n        /* \"#utility.yul\":511:633   */\n      tag_65\n      jumpi\n        /* \"#utility.yul\":552:631   */\n      tag_66\n      tag_67\n      jump\t// in\n    tag_66:\n        /* \"#utility.yul\":511:633   */\n    tag_65:\n        /* \"#utility.yul\":669:675   */\n      dup2\n        /* \"#utility.yul\":656:676   */\n      calldataload\n        /* \"#utility.yul\":694:773   */\n      tag_68\n        /* \"#utility.yul\":769:772   */\n      dup5\n        /* \"#utility.yul\":761:767   */\n      dup3\n        /* \"#utility.yul\":754:758   */\n      0x20\n        /* \"#utility.yul\":746:752   */\n      dup7\n        /* \"#utility.yul\":742:759   */\n      add\n        /* \"#utility.yul\":694:773   */\n      tag_52\n      jump\t// in\n    tag_68:\n        /* \"#utility.yul\":685:773   */\n      swap2\n      pop\n        /* \"#utility.yul\":501:779   */\n      pop\n        /* \"#utility.yul\":439:779   */\n      swap3\n      swap2\n      pop\n      pop\n      jump\t// out\n        /* \"#utility.yul\":785:2270   */\n    tag_11:\n        /* \"#utility.yul\":911:917   */\n      0x00\n        /* \"#utility.yul\":919:925   */\n      dup1\n        /* \"#utility.yul\":927:933   */\n      0x00\n        /* \"#utility.yul\":935:941   */\n      dup1\n        /* \"#utility.yul\":984:987   */\n      0x80\n        /* \"#utility.yul\":972:981   */\n      dup6\n        /* \"#utility.yul\":963:970   */\n      dup8\n        /* \"#utility.yul\":959:982   */\n      sub\n        /* \"#utility.yul\":955:988   */\n      slt\n        /* \"#utility.yul\":952:1072   */\n      iszero\n      tag_70\n      jumpi\n        /* \"#utility.yul\":991:1070   */\n      tag_71\n      tag_72\n      jump\t// in\n    tag_71:\n        /* \"#utility.yul\":952:1072   */\n    tag_70:\n        /* \"#utility.yul\":1139:1140   */\n      0x00\n        /* \"#utility.yul\":1128:1137   */\n      dup6\n        /* \"#utility.yul\":1124:1141   */\n      add\n        /* \"#utility.yul\":1111:1142   */\n      calldataload\n        /* \"#utility.yul\":1169:1187   */\n      0xffffffffffffffff\n        /* \"#utility.yul\":1161:1167   */\n      dup2\n        /* \"#utility.yul\":1158:1188   */\n      gt\n        /* \"#utility.yul\":1155:1272   */\n      iszero\n      tag_73\n      jumpi\n        /* \"#utility.yul\":1191:1270   */\n      tag_74\n      tag_75\n      jump\t// in\n    tag_74:\n        /* \"#utility.yul\":1155:1272   */\n    tag_73:\n        /* \"#utility.yul\":1296:1359   */\n      tag_76\n        /* \"#utility.yul\":1351:1358   */\n      dup8\n        /* \"#utility.yul\":1342:1348   */\n      dup3\n        /* \"#utility.yul\":1331:1340   */\n      dup9\n        /* \"#utility.yul\":1327:1349   */\n      add\n        /* \"#utility.yul\":1296:1359   */\n      tag_63\n      jump\t// in\n    tag_76:\n        /* \"#utility.yul\":1286:1359   */\n      swap5\n      pop\n        /* \"#utility.yul\":1082:1369   */\n      pop\n        /* \"#utility.yul\":1436:1438   */\n      0x20\n        /* \"#utility.yul\":1425:1434   */\n      dup6\n        /* \"#utility.yul\":1421:1439   */\n      add\n        /* \"#utility.yul\":1408:1440   */\n      calldataload\n        /* \"#utility.yul\":1467:1485   */\n      0xffffffffffffffff\n        /* \"#utility.yul\":1459:1465   */\n      dup2\n        /* \"#utility.yul\":1456:1486   */\n      gt\n        /* \"#utility.yul\":1453:1570   */\n      iszero\n      tag_77\n      jumpi\n        /* \"#utility.yul\":1489:1568   */\n      tag_78\n      tag_75\n      jump\t// in\n    tag_78:\n        /* \"#utility.yul\":1453:1570   */\n    tag_77:\n        /* \"#utility.yul\":1594:1657   */\n      tag_79\n        /* \"#utility.yul\":1649:1656   */\n      dup8\n        /* \"#utility.yul\":1640:1646   */\n      dup3\n        /* \"#utility.yul\":1629:1638   */\n      dup9\n        /* \"#utility.yul\":1625:1647   */\n      add\n        /* \"#utility.yul\":1594:1657   */\n      tag_63\n      jump\t// in\n    tag_79:\n        /* \"#utility.yul\":1584:1657   */\n      swap4\n      pop\n        /* \"#utility.yul\":1379:1667   */\n      pop\n        /* \"#utility.yul\":1734:1736   */\n      0x40\n        /* \"#utility.yul\":1723:1732   */\n      dup6\n        /* \"#utility.yul\":1719:1737   */\n      add\n        /* \"#utility.yul\":1706:1738   */\n      calldataload\n        /* \"#utility.yul\":1765:1783   */\n      0xffffffffffffffff\n        /* \"#utility.yul\":1757:1763   */\n      dup2\n        /* \"#utility.yul\":1754:1784   */\n      gt\n        /* \"#utility.yul\":1751:1868   */\n      iszero\n      tag_80\n      jumpi\n        /* \"#utility.yul\":1787:1866   */\n      tag_81\n      tag_75\n      jump\t// in\n    tag_81:\n        /* \"#utility.yul\":1751:1868   */\n    tag_80:\n        /* \"#utility.yul\":1892:1955   */\n      tag_82\n        /* \"#utility.yul\":1947:1954   */\n      dup8\n        /* \"#utility.yul\":1938:1944   */\n      dup3\n        /* \"#utility.yul\":1927:1936   */\n      dup9\n        /* \"#utility.yul\":1923:1945   */\n      add\n        /* \"#utility.yul\":1892:1955   */\n      tag_63\n      jump\t// in\n    tag_82:\n        /* \"#utility.yul\":1882:1955   */\n      swap3\n      pop\n        /* \"#utility.yul\":1677:1965   */\n      pop\n        /* \"#utility.yul\":2032:2034   */\n      0x60\n        /* \"#utility.yul\":2021:2030   */\n      dup6\n        /* \"#utility.yul\":2017:2035   */\n      add\n        /* \"#utility.yul\":2004:2036   */\n      calldataload\n        /* \"#utility.yul\":2063:2081   */\n      0xffffffffffffffff\n        /* \"#utility.yul\":2055:2061   */\n      dup2\n        /* \"#utility.yul\":2052:2082   */\n      gt\n        /* \"#utility.yul\":2049:2166   */\n      iszero\n      tag_83\n      jumpi\n        /* \"#utility.yul\":2085:2164   */\n      tag_84\n      tag_75\n      jump\t// in\n    tag_84:\n        /* \"#utility.yul\":2049:2166   */\n    tag_83:\n        /* \"#utility.yul\":2190:2253   */\n      tag_85\n        /* \"#utility.yul\":2245:2252   */\n      dup8\n        /* \"#utility.yul\":2236:2242   */\n      dup3\n        /* \"#utility.yul\":2225:2234   */\n      dup9\n        /* \"#utility.yul\":2221:2243   */\n      add\n        /* \"#utility.yul\":2190:2253   */\n      tag_63\n      jump\t// in\n    tag_85:\n        /* \"#utility.yul\":2180:2253   */\n      swap2\n      pop\n        /* \"#utility.yul\":1975:2263   */\n      pop\n        /* \"#utility.yul\":785:2270   */\n      swap3\n      swap6\n      swap2\n      swap5\n      pop\n      swap3\n      pop\n      jump\t// out\n        /* \"#utility.yul\":2276:2640   */\n    tag_86:\n        /* \"#utility.yul\":2364:2367   */\n      0x00\n        /* \"#utility.yul\":2392:2431   */\n      tag_88\n        /* \"#utility.yul\":2425:2430   */\n      dup3\n        /* \"#utility.yul\":2392:2431   */\n      tag_89\n      jump\t// in\n    tag_88:\n        /* \"#utility.yul\":2447:2518   */\n      tag_90\n        /* \"#utility.yul\":2511:2517   */\n      dup2\n        /* \"#utility.yul\":2506:2509   */\n      dup6\n        /* \"#utility.yul\":2447:2518   */\n      tag_91\n      jump\t// in\n    tag_90:\n        /* \"#utility.yul\":2440:2518   */\n      swap4\n      pop\n        /* \"#utility.yul\":2527:2579   */\n      tag_92\n        /* \"#utility.yul\":2572:2578   */\n      dup2\n        /* \"#utility.yul\":2567:2570   */\n      dup6\n        /* \"#utility.yul\":2560:2564   */\n      0x20\n        /* \"#utility.yul\":2553:2558   */\n      dup7\n        /* \"#utility.yul\":2549:2565   */\n      add\n        /* \"#utility.yul\":2527:2579   */\n      tag_93\n      jump\t// in\n    tag_92:\n        /* \"#utility.yul\":2604:2633   */\n      tag_94\n        /* \"#utility.yul\":2626:2632   */\n      dup2\n        /* \"#utility.yul\":2604:2633   */\n      tag_95\n      jump\t// in\n    tag_94:\n        /* \"#utility.yul\":2599:2602   */\n      dup5\n        /* \"#utility.yul\":2595:2634   */\n      add\n        /* \"#utility.yul\":2588:2634   */\n      swap2\n      pop\n        /* \"#utility.yul\":2368:2640   */\n      pop\n        /* \"#utility.yul\":2276:2640   */\n      swap3\n      swap2\n      pop\n      pop\n      jump\t// out\n        /* \"#utility.yul\":2646:3563   */\n    tag_8:\n        /* \"#utility.yul\":2903:2907   */\n      0x00\n        /* \"#utility.yul\":2941:2944   */\n      0x80\n        /* \"#utility.yul\":2930:2939   */\n      dup3\n        /* \"#utility.yul\":2926:2945   */\n      add\n        /* \"#utility.yul\":2918:2945   */\n      swap1\n      pop\n        /* \"#utility.yul\":2991:3000   */\n      dup2\n        /* \"#utility.yul\":2985:2989   */\n      dup2\n        /* \"#utility.yul\":2981:3001   */\n      sub\n        /* \"#utility.yul\":2977:2978   */\n      0x00\n        /* \"#utility.yul\":2966:2975   */\n      dup4\n        /* \"#utility.yul\":2962:2979   */\n      add\n        /* \"#utility.yul\":2955:3002   */\n      mstore\n        /* \"#utility.yul\":3019:3097   */\n      tag_97\n        /* \"#utility.yul\":3092:3096   */\n      dup2\n        /* \"#utility.yul\":3083:3089   */\n      dup8\n        /* \"#utility.yul\":3019:3097   */\n      tag_86\n      jump\t// in\n    tag_97:\n        /* \"#utility.yul\":3011:3097   */\n      swap1\n      pop\n        /* \"#utility.yul\":3144:3153   */\n      dup2\n        /* \"#utility.yul\":3138:3142   */\n      dup2\n        /* \"#utility.yul\":3134:3154   */\n      sub\n        /* \"#utility.yul\":3129:3131   */\n      0x20\n        /* \"#utility.yul\":3118:3127   */\n      dup4\n        /* \"#utility.yul\":3114:3132   */\n      add\n        /* \"#utility.yul\":3107:3155   */\n      mstore\n        /* \"#utility.yul\":3172:3250   */\n      tag_98\n        /* \"#utility.yul\":3245:3249   */\n      dup2\n        /* \"#utility.yul\":3236:3242   */\n      dup7\n        /* \"#utility.yul\":3172:3250   */\n      tag_86\n      jump\t// in\n    tag_98:\n        /* \"#utility.yul\":3164:3250   */\n      swap1\n      pop\n        /* \"#utility.yul\":3297:3306   */\n      dup2\n        /* \"#utility.yul\":3291:3295   */\n      dup2\n        /* \"#utility.yul\":3287:3307   */\n      sub\n        /* \"#utility.yul\":3282:3284   */\n      0x40\n        /* \"#utility.yul\":3271:3280   */\n      dup4\n        /* \"#utility.yul\":3267:3285   */\n      add\n        /* \"#utility.yul\":3260:3308   */\n      mstore\n        /* \"#utility.yul\":3325:3403   */\n      tag_99\n        /* \"#utility.yul\":3398:3402   */\n      dup2\n        /* \"#utility.yul\":3389:3395   */\n      dup6\n        /* \"#utility.yul\":3325:3403   */\n      tag_86\n      jump\t// in\n    tag_99:\n        /* \"#utility.yul\":3317:3403   */\n      swap1\n      pop\n        /* \"#utility.yul\":3450:3459   */\n      dup2\n        /* \"#utility.yul\":3444:3448   */\n      dup2\n        /* \"#utility.yul\":3440:3460   */\n      sub\n        /* \"#utility.yul\":3435:3437   */\n      0x60\n        /* \"#utility.yul\":3424:3433   */\n      dup4\n        /* \"#utility.yul\":3420:3438   */\n      add\n        /* \"#utility.yul\":3413:3461   */\n      mstore\n        /* \"#utility.yul\":3478:3556   */\n      tag_100\n        /* \"#utility.yul\":3551:3555   */\n      dup2\n        /* \"#utility.yul\":3542:3548   */\n      dup5\n        /* \"#utility.yul\":3478:3556   */\n      tag_86\n      jump\t// in\n    tag_100:\n        /* \"#utility.yul\":3470:3556   */\n      swap1\n      pop\n        /* \"#utility.yul\":2646:3563   */\n      swap6\n      swap5\n      pop\n      pop\n      pop\n      pop\n      pop\n      jump\t// out\n        /* \"#utility.yul\":3569:3698   */\n    tag_57:\n        /* \"#utility.yul\":3603:3609   */\n      0x00\n        /* \"#utility.yul\":3630:3650   */\n      tag_102\n      tag_103\n      jump\t// in\n    tag_102:\n        /* \"#utility.yul\":3620:3650   */\n      swap1\n      pop\n        /* \"#utility.yul\":3659:3692   */\n      tag_104\n        /* \"#utility.yul\":3687:3691   */\n      dup3\n        /* \"#utility.yul\":3679:3685   */\n      dup3\n        /* \"#utility.yul\":3659:3692   */\n      tag_105\n      jump\t// in\n    tag_104:\n        /* \"#utility.yul\":3569:3698   */\n      swap2\n      swap1\n      pop\n      jump\t// out\n        /* \"#utility.yul\":3704:3779   */\n    tag_103:\n        /* \"#utility.yul\":3737:3743   */\n      0x00\n        /* \"#utility.yul\":3770:3772   */\n      0x40\n        /* \"#utility.yul\":3764:3773   */\n      mload\n        /* \"#utility.yul\":3754:3773   */\n      swap1\n      pop\n        /* \"#utility.yul\":3704:3779   */\n      swap1\n      jump\t// out\n        /* \"#utility.yul\":3785:4093   */\n    tag_56:\n        /* \"#utility.yul\":3847:3851   */\n      0x00\n        /* \"#utility.yul\":3937:3955   */\n      0xffffffffffffffff\n        /* \"#utility.yul\":3929:3935   */\n      dup3\n        /* \"#utility.yul\":3926:3956   */\n      gt\n        /* \"#utility.yul\":3923:3979   */\n      iszero\n      tag_108\n      jumpi\n        /* \"#utility.yul\":3959:3977   */\n      tag_109\n      tag_110\n      jump\t// in\n    tag_109:\n        /* \"#utility.yul\":3923:3979   */\n    tag_108:\n        /* \"#utility.yul\":3997:4026   */\n      tag_111\n        /* \"#utility.yul\":4019:4025   */\n      dup3\n        /* \"#utility.yul\":3997:4026   */\n      tag_95\n      jump\t// in\n    tag_111:\n        /* \"#utility.yul\":3989:4026   */\n      swap1\n      pop\n        /* \"#utility.yul\":4081:4085   */\n      0x20\n        /* \"#utility.yul\":4075:4079   */\n      dup2\n        /* \"#utility.yul\":4071:4086   */\n      add\n        /* \"#utility.yul\":4063:4086   */\n      swap1\n      pop\n        /* \"#utility.yul\":3785:4093   */\n      swap2\n      swap1\n      pop\n      jump\t// out\n        /* \"#utility.yul\":4099:4198   */\n    tag_89:\n        /* \"#utility.yul\":4151:4157   */\n      0x00\n        /* \"#utility.yul\":4185:4190   */\n      dup2\n        /* \"#utility.yul\":4179:4191   */\n      mload\n        /* \"#utility.yul\":4169:4191   */\n      swap1\n      pop\n        /* \"#utility.yul\":4099:4198   */\n      swap2\n      swap1\n      pop\n      jump\t// out\n        /* \"#utility.yul\":4204:4373   */\n    tag_91:\n        /* \"#utility.yul\":4288:4299   */\n      0x00\n        /* \"#utility.yul\":4322:4328   */\n      dup3\n        /* \"#utility.yul\":4317:4320   */\n      dup3\n        /* \"#utility.yul\":4310:4329   */\n      mstore\n        /* \"#utility.yul\":4362:4366   */\n      0x20\n        /* \"#utility.yul\":4357:4360   */\n      dup3\n        /* \"#utility.yul\":4353:4367   */\n      add\n        /* \"#utility.yul\":4338:4367   */\n      swap1\n      pop\n        /* \"#utility.yul\":4204:4373   */\n      swap3\n      swap2\n      pop\n      pop\n      jump\t// out\n        /* \"#utility.yul\":4379:4533   */\n    tag_62:\n        /* \"#utility.yul\":4463:4469   */\n      dup3\n        /* \"#utility.yul\":4458:4461   */\n      dup2\n        /* \"#utility.yul\":4453:4456   */\n      dup4\n        /* \"#utility.yul\":4440:4470   */\n      calldatacopy\n        /* \"#utility.yul\":4525:4526   */\n      0x00\n        /* \"#utility.yul\":4516:4522   */\n      dup4\n        /* \"#utility.yul\":4511:4514   */\n      dup4\n        /* \"#utility.yul\":4507:4523   */\n      add\n        /* \"#utility.yul\":4500:4527   */\n      mstore\n        /* \"#utility.yul\":4379:4533   */\n      pop\n      pop\n      pop\n      jump\t// out\n        /* \"#utility.yul\":4539:4846   */\n    tag_93:\n        /* \"#utility.yul\":4607:4608   */\n      0x00\n        /* \"#utility.yul\":4617:4730   */\n    tag_116:\n        /* \"#utility.yul\":4631:4637   */\n      dup4\n        /* \"#utility.yul\":4628:4629   */\n      dup2\n        /* \"#utility.yul\":4625:4638   */\n      lt\n        /* \"#utility.yul\":4617:4730   */\n      iszero\n      tag_118\n      jumpi\n        /* \"#utility.yul\":4716:4717   */\n      dup1\n        /* \"#utility.yul\":4711:4714   */\n      dup3\n        /* \"#utility.yul\":4707:4718   */\n      add\n        /* \"#utility.yul\":4701:4719   */\n      mload\n        /* \"#utility.yul\":4697:4698   */\n      dup2\n        /* \"#utility.yul\":4692:4695   */\n      dup5\n        /* \"#utility.yul\":4688:4699   */\n      add\n        /* \"#utility.yul\":4681:4720   */\n      mstore\n        /* \"#utility.yul\":4653:4655   */\n      0x20\n        /* \"#utility.yul\":4650:4651   */\n      dup2\n        /* \"#utility.yul\":4646:4656   */\n      add\n        /* \"#utility.yul\":4641:4656   */\n      swap1\n      pop\n        /* \"#utility.yul\":4617:4730   */\n      jump(tag_116)\n    tag_118:\n        /* \"#utility.yul\":4748:4754   */\n      dup4\n        /* \"#utility.yul\":4745:4746   */\n      dup2\n        /* \"#utility.yul\":4742:4755   */\n      gt\n        /* \"#utility.yul\":4739:4840   */\n      iszero\n      tag_119\n      jumpi\n        /* \"#utility.yul\":4828:4829   */\n      0x00\n        /* \"#utility.yul\":4819:4825   */\n      dup5\n        /* \"#utility.yul\":4814:4817   */\n      dup5\n        /* \"#utility.yul\":4810:4826   */\n      add\n        /* \"#utility.yul\":4803:4830   */\n      mstore\n        /* \"#utility.yul\":4739:4840   */\n    tag_119:\n        /* \"#utility.yul\":4588:4846   */\n      pop\n        /* \"#utility.yul\":4539:4846   */\n      pop\n      pop\n      pop\n      jump\t// out\n        /* \"#utility.yul\":4852:5172   */\n    tag_15:\n        /* \"#utility.yul\":4896:4902   */\n      0x00\n        /* \"#utility.yul\":4933:4934   */\n      0x02\n        /* \"#utility.yul\":4927:4931   */\n      dup3\n        /* \"#utility.yul\":4923:4935   */\n      div\n        /* \"#utility.yul\":4913:4935   */\n      swap1\n      pop\n        /* \"#utility.yul\":4980:4981   */\n      0x01\n        /* \"#utility.yul\":4974:4978   */\n      dup3\n        /* \"#utility.yul\":4970:4982   */\n      and\n        /* \"#utility.yul\":5001:5019   */\n      dup1\n        /* \"#utility.yul\":4991:5072   */\n      tag_121\n      jumpi\n        /* \"#utility.yul\":5057:5061   */\n      0x7f\n        /* \"#utility.yul\":5049:5055   */\n      dup3\n        /* \"#utility.yul\":5045:5062   */\n      and\n        /* \"#utility.yul\":5035:5062   */\n      swap2\n      pop\n        /* \"#utility.yul\":4991:5072   */\n    tag_121:\n        /* \"#utility.yul\":5119:5121   */\n      0x20\n        /* \"#utility.yul\":5111:5117   */\n      dup3\n        /* \"#utility.yul\":5108:5122   */\n      lt\n        /* \"#utility.yul\":5088:5106   */\n      dup2\n        /* \"#utility.yul\":5085:5123   */\n      eq\n        /* \"#utility.yul\":5082:5166   */\n      iszero\n      tag_122\n      jumpi\n        /* \"#utility.yul\":5138:5156   */\n      tag_123\n      tag_124\n      jump\t// in\n    tag_123:\n        /* \"#utility.yul\":5082:5166   */\n    tag_122:\n        /* \"#utility.yul\":4903:5172   */\n      pop\n        /* \"#utility.yul\":4852:5172   */\n      swap2\n      swap1\n      pop\n      jump\t// out\n        /* \"#utility.yul\":5178:5459   */\n    tag_105:\n        /* \"#utility.yul\":5261:5288   */\n      tag_126\n        /* \"#utility.yul\":5283:5287   */\n      dup3\n        /* \"#utility.yul\":5261:5288   */\n      tag_95\n      jump\t// in\n    tag_126:\n        /* \"#utility.yul\":5253:5259   */\n      dup2\n        /* \"#utility.yul\":5249:5289   */\n      add\n        /* \"#utility.yul\":5391:5397   */\n      dup2\n        /* \"#utility.yul\":5379:5389   */\n      dup2\n        /* \"#utility.yul\":5376:5398   */\n      lt\n        /* \"#utility.yul\":5355:5373   */\n      0xffffffffffffffff\n        /* \"#utility.yul\":5343:5353   */\n      dup3\n        /* \"#utility.yul\":5340:5374   */\n      gt\n        /* \"#utility.yul\":5337:5399   */\n      or\n        /* \"#utility.yul\":5334:5422   */\n      iszero\n      tag_127\n      jumpi\n        /* \"#utility.yul\":5402:5420   */\n      tag_128\n      tag_110\n      jump\t// in\n    tag_128:\n        /* \"#utility.yul\":5334:5422   */\n    tag_127:\n        /* \"#utility.yul\":5442:5452   */\n      dup1\n        /* \"#utility.yul\":5438:5440   */\n      0x40\n        /* \"#utility.yul\":5431:5453   */\n      mstore\n        /* \"#utility.yul\":5221:5459   */\n      pop\n        /* \"#utility.yul\":5178:5459   */\n      pop\n      pop\n      jump\t// out\n        /* \"#utility.yul\":5465:5645   */\n    tag_124:\n        /* \"#utility.yul\":5513:5590   */\n      0x4e487b7100000000000000000000000000000000000000000000000000000000\n        /* \"#utility.yul\":5510:5511   */\n      0x00\n        /* \"#utility.yul\":5503:5591   */\n      mstore\n        /* \"#utility.yul\":5610:5614   */\n      0x22\n        /* \"#utility.yul\":5607:5608   */\n      0x04\n        /* \"#utility.yul\":5600:5615   */\n      mstore\n        /* \"#utility.yul\":5634:5638   */\n      0x24\n        /* \"#utility.yul\":5631:5632   */\n      0x00\n        /* \"#utility.yul\":5624:5639   */\n      revert\n        /* \"#utility.yul\":5651:5831   */\n    tag_110:\n        /* \"#utility.yul\":5699:5776   */\n      0x4e487b7100000000000000000000000000000000000000000000000000000000\n        /* \"#utility.yul\":5696:5697   */\n      0x00\n        /* \"#utility.yul\":5689:5777   */\n      mstore\n        /* \"#utility.yul\":5796:5800   */\n      0x41\n        /* \"#utility.yul\":5793:5794   */\n      0x04\n        /* \"#utility.yul\":5786:5801   */\n      mstore\n        /* \"#utility.yul\":5820:5824   */\n      0x24\n        /* \"#utility.yul\":5817:5818   */\n      0x00\n        /* \"#utility.yul\":5810:5825   */\n      revert\n        /* \"#utility.yul\":5837:5954   */\n    tag_67:\n        /* \"#utility.yul\":5946:5947   */\n      0x00\n        /* \"#utility.yul\":5943:5944   */\n      dup1\n        /* \"#utility.yul\":5936:5948   */\n      revert\n        /* \"#utility.yul\":5960:6077   */\n    tag_60:\n        /* \"#utility.yul\":6069:6070   */\n      0x00\n        /* \"#utility.yul\":6066:6067   */\n      dup1\n        /* \"#utility.yul\":6059:6071   */\n      revert\n        /* \"#utility.yul\":6083:6200   */\n    tag_75:\n        /* \"#utility.yul\":6192:6193   */\n      0x00\n        /* \"#utility.yul\":6189:6190   */\n      dup1\n        /* \"#utility.yul\":6182:6194   */\n      revert\n        /* \"#utility.yul\":6206:6323   */\n    tag_72:\n        /* \"#utility.yul\":6315:6316   */\n      0x00\n        /* \"#utility.yul\":6312:6313   */\n      dup1\n        /* \"#utility.yul\":6305:6317   */\n      revert\n        /* \"#utility.yul\":6329:6431   */\n    tag_95:\n        /* \"#utility.yul\":6370:6376   */\n      0x00\n        /* \"#utility.yul\":6421:6423   */\n      0x1f\n        /* \"#utility.yul\":6417:6424   */\n      not\n        /* \"#utility.yul\":6412:6414   */\n      0x1f\n        /* \"#utility.yul\":6405:6410   */\n      dup4\n        /* \"#utility.yul\":6401:6415   */\n      add\n        /* \"#utility.yul\":6397:6425   */\n      and\n        /* \"#utility.yul\":6387:6425   */\n      swap1\n      pop\n        /* \"#utility.yul\":6329:6431   */\n      swap2\n      swap1\n      pop\n      jump\t// out\n\n    auxdata: 0xa2646970667358221220fcd7408417bd782c0e0d3a32ac12e0b3154dc3b75b621c7576201be9e08563ff64736f6c63430008070033\n}\n",
				"bytecode": {
					"linkReferences": {},
					"object": "608060405234801561001057600080fd5b5061077a806100206000396000f3fe608060405234801561001057600080fd5b50600436106100365760003560e01c80635ee0f6541461003b5780636f8fcae21461005c575b600080fd5b610043610078565b6040516100539493929190610549565b60405180910390f35b61007660048036038101906100719190610439565b6102c4565b005b60608060608060006001600260038380546100929061065e565b80601f01602080910402602001604051908101604052809291908181526020018280546100be9061065e565b801561010b5780601f106100e05761010080835404028352916020019161010b565b820191906000526020600020905b8154815290600101906020018083116100ee57829003601f168201915b5050505050935082805461011e9061065e565b80601f016020809104026020016040519081016040528092919081815260200182805461014a9061065e565b80156101975780601f1061016c57610100808354040283529160200191610197565b820191906000526020600020905b81548152906001019060200180831161017a57829003601f168201915b505050505092508180546101aa9061065e565b80601f01602080910402602001604051908101604052809291908181526020018280546101d69061065e565b80156102235780601f106101f857610100808354040283529160200191610223565b820191906000526020600020905b81548152906001019060200180831161020657829003601f168201915b505050505091508080546102369061065e565b80601f01602080910402602001604051908101604052809291908181526020018280546102629061065e565b80156102af5780601f10610284576101008083540402835291602001916102af565b820191906000526020600020905b81548152906001019060200180831161029257829003601f168201915b50505050509050935093509350935090919293565b83600090805190602001906102da929190610326565b5082600190805190602001906102f1929190610326565b508160029080519060200190610308929190610326565b50806003908051906020019061031f929190610326565b5050505050565b8280546103329061065e565b90600052602060002090601f016020900481019282610354576000855561039b565b82601f1061036d57805160ff191683800117855561039b565b8280016001018555821561039b579182015b8281111561039a57825182559160200191906001019061037f565b5b5090506103a891906103ac565b5090565b5b808211156103c55760008160009055506001016103ad565b5090565b60006103dc6103d7846105cf565b6105aa565b9050828152602081018484840111156103f8576103f7610724565b5b61040384828561061c565b509392505050565b600082601f8301126104205761041f61071f565b5b81356104308482602086016103c9565b91505092915050565b600080600080608085870312156104535761045261072e565b5b600085013567ffffffffffffffff81111561047157610470610729565b5b61047d8782880161040b565b945050602085013567ffffffffffffffff81111561049e5761049d610729565b5b6104aa8782880161040b565b935050604085013567ffffffffffffffff8111156104cb576104ca610729565b5b6104d78782880161040b565b925050606085013567ffffffffffffffff8111156104f8576104f7610729565b5b6105048782880161040b565b91505092959194509250565b600061051b82610600565b610525818561060b565b935061053581856020860161062b565b61053e81610733565b840191505092915050565b600060808201905081810360008301526105638187610510565b905081810360208301526105778186610510565b9050818103604083015261058b8185610510565b9050818103606083015261059f8184610510565b905095945050505050565b60006105b46105c5565b90506105c08282610690565b919050565b6000604051905090565b600067ffffffffffffffff8211156105ea576105e96106f0565b5b6105f382610733565b9050602081019050919050565b600081519050919050565b600082825260208201905092915050565b82818337600083830152505050565b60005b8381101561064957808201518184015260208101905061062e565b83811115610658576000848401525b50505050565b6000600282049050600182168061067657607f821691505b6020821081141561068a576106896106c1565b5b50919050565b61069982610733565b810181811067ffffffffffffffff821117156106b8576106b76106f0565b5b80604052505050565b7f4e487b7100000000000000000000000000000000000000000000000000000000600052602260045260246000fd5b7f4e487b7100000000000000000000000000000000000000000000000000000000600052604160045260246000fd5b600080fd5b600080fd5b600080fd5b600080fd5b6000601f19601f830116905091905056fea2646970667358221220fcd7408417bd782c0e0d3a32ac12e0b3154dc3b75b621c7576201be9e08563ff64736f6c63430008070033",
					"opcodes": "PUSH1 0x80 PUSH1 0x40 MSTORE CALLVALUE DUP1 ISZERO PUSH2 0x10 JUMPI PUSH1 0x0 DUP1 REVERT JUMPDEST POP PUSH2 0x77A DUP1 PUSH2 0x20 PUSH1 0x0 CODECOPY PUSH1 0x0 RETURN INVALID PUSH1 0x80 PUSH1 0x40 MSTORE CALLVALUE DUP1 ISZERO PUSH2 0x10 JUMPI PUSH1 0x0 DUP1 REVERT JUMPDEST POP PUSH1 0x4 CALLDATASIZE LT PUSH2 0x36 JUMPI PUSH1 0x0 CALLDATALOAD PUSH1 0xE0 SHR DUP1 PUSH4 0x5EE0F654 EQ PUSH2 0x3B JUMPI DUP1 PUSH4 0x6F8FCAE2 EQ PUSH2 0x5C JUMPI JUMPDEST PUSH1 0x0 DUP1 REVERT JUMPDEST PUSH2 0x43 PUSH2 0x78 JUMP JUMPDEST PUSH1 0x40 MLOAD PUSH2 0x53 SWAP5 SWAP4 SWAP3 SWAP2 SWAP1 PUSH2 0x549 JUMP JUMPDEST PUSH1 0x40 MLOAD DUP1 SWAP2 SUB SWAP1 RETURN JUMPDEST PUSH2 0x76 PUSH1 0x4 DUP1 CALLDATASIZE SUB DUP2 ADD SWAP1 PUSH2 0x71 SWAP2 SWAP1 PUSH2 0x439 JUMP JUMPDEST PUSH2 0x2C4 JUMP JUMPDEST STOP JUMPDEST PUSH1 0x60 DUP1 PUSH1 0x60 DUP1 PUSH1 0x0 PUSH1 0x1 PUSH1 0x2 PUSH1 0x3 DUP4 DUP1 SLOAD PUSH2 0x92 SWAP1 PUSH2 0x65E JUMP JUMPDEST DUP1 PUSH1 0x1F ADD PUSH1 0x20 DUP1 SWAP2 DIV MUL PUSH1 0x20 ADD PUSH1 0x40 MLOAD SWAP1 DUP2 ADD PUSH1 0x40 MSTORE DUP1 SWAP3 SWAP2 SWAP1 DUP2 DUP2 MSTORE PUSH1 0x20 ADD DUP3 DUP1 SLOAD PUSH2 0xBE SWAP1 PUSH2 0x65E JUMP JUMPDEST DUP1 ISZERO PUSH2 0x10B JUMPI DUP1 PUSH1 0x1F LT PUSH2 0xE0 JUMPI PUSH2 0x100 DUP1 DUP4 SLOAD DIV MUL DUP4 MSTORE SWAP2 PUSH1 0x20 ADD SWAP2 PUSH2 0x10B JUMP JUMPDEST DUP3 ADD SWAP2 SWAP1 PUSH1 0x0 MSTORE PUSH1 0x20 PUSH1 0x0 KECCAK256 SWAP1 JUMPDEST DUP2 SLOAD DUP2 MSTORE SWAP1 PUSH1 0x1 ADD SWAP1 PUSH1 0x20 ADD DUP1 DUP4 GT PUSH2 0xEE JUMPI DUP3 SWAP1 SUB PUSH1 0x1F AND DUP3 ADD SWAP2 JUMPDEST POP POP POP POP POP SWAP4 POP DUP3 DUP1 SLOAD PUSH2 0x11E SWAP1 PUSH2 0x65E JUMP JUMPDEST DUP1 PUSH1 0x1F ADD PUSH1 0x20 DUP1 SWAP2 DIV MUL PUSH1 0x20 ADD PUSH1 0x40 MLOAD SWAP1 DUP2 ADD PUSH1 0x40 MSTORE DUP1 SWAP3 SWAP2 SWAP1 DUP2 DUP2 MSTORE PUSH1 0x20 ADD DUP3 DUP1 SLOAD PUSH2 0x14A SWAP1 PUSH2 0x65E JUMP JUMPDEST DUP1 ISZERO PUSH2 0x197 JUMPI DUP1 PUSH1 0x1F LT PUSH2 0x16C JUMPI PUSH2 0x100 DUP1 DUP4 SLOAD DIV MUL DUP4 MSTORE SWAP2 PUSH1 0x20 ADD SWAP2 PUSH2 0x197 JUMP JUMPDEST DUP3 ADD SWAP2 SWAP1 PUSH1 0x0 MSTORE PUSH1 0x20 PUSH1 0x0 KECCAK256 SWAP1 JUMPDEST DUP2 SLOAD DUP2 MSTORE SWAP1 PUSH1 0x1 ADD SWAP1 PUSH1 0x20 ADD DUP1 DUP4 GT PUSH2 0x17A JUMPI DUP3 SWAP1 SUB PUSH1 0x1F AND DUP3 ADD SWAP2 JUMPDEST POP POP POP POP POP SWAP3 POP DUP2 DUP1 SLOAD PUSH2 0x1AA SWAP1 PUSH2 0x65E JUMP JUMPDEST DUP1 PUSH1 0x1F ADD PUSH1 0x20 DUP1 SWAP2 DIV MUL PUSH1 0x20 ADD PUSH1 0x40 MLOAD SWAP1 DUP2 ADD PUSH1 0x40 MSTORE DUP1 SWAP3 SWAP2 SWAP1 DUP2 DUP2 MSTORE PUSH1 0x20 ADD DUP3 DUP1 SLOAD PUSH2 0x1D6 SWAP1 PUSH2 0x65E JUMP JUMPDEST DUP1 ISZERO PUSH2 0x223 JUMPI DUP1 PUSH1 0x1F LT PUSH2 0x1F8 JUMPI PUSH2 0x100 DUP1 DUP4 SLOAD DIV MUL DUP4 MSTORE SWAP2 PUSH1 0x20 ADD SWAP2 PUSH2 0x223 JUMP JUMPDEST DUP3 ADD SWAP2 SWAP1 PUSH1 0x0 MSTORE PUSH1 0x20 PUSH1 0x0 KECCAK256 SWAP1 JUMPDEST DUP2 SLOAD DUP2 MSTORE SWAP1 PUSH1 0x1 ADD SWAP1 PUSH1 0x20 ADD DUP1 DUP4 GT PUSH2 0x206 JUMPI DUP3 SWAP1 SUB PUSH1 0x1F AND DUP3 ADD SWAP2 JUMPDEST POP POP POP POP POP SWAP2 POP DUP1 DUP1 SLOAD PUSH2 0x236 SWAP1 PUSH2 0x65E JUMP JUMPDEST DUP1 PUSH1 0x1F ADD PUSH1 0x20 DUP1 SWAP2 DIV MUL PUSH1 0x20 ADD PUSH1 0x40 MLOAD SWAP1 DUP2 ADD PUSH1 0x40 MSTORE DUP1 SWAP3 SWAP2 SWAP1 DUP2 DUP2 MSTORE PUSH1 0x20 ADD DUP3 DUP1 SLOAD PUSH2 0x262 SWAP1 PUSH2 0x65E JUMP JUMPDEST DUP1 ISZERO PUSH2 0x2AF JUMPI DUP1 PUSH1 0x1F LT PUSH2 0x284 JUMPI PUSH2 0x100 DUP1 DUP4 SLOAD DIV MUL DUP4 MSTORE SWAP2 PUSH1 0x20 ADD SWAP2 PUSH2 0x2AF JUMP JUMPDEST DUP3 ADD SWAP2 SWAP1 PUSH1 0x0 MSTORE PUSH1 0x20 PUSH1 0x0 KECCAK256 SWAP1 JUMPDEST DUP2 SLOAD DUP2 MSTORE SWAP1 PUSH1 0x1 ADD SWAP1 PUSH1 0x20 ADD DUP1 DUP4 GT PUSH2 0x292 JUMPI DUP3 SWAP1 SUB PUSH1 0x1F AND DUP3 ADD SWAP2 JUMPDEST POP POP POP POP POP SWAP1 POP SWAP4 POP SWAP4 POP SWAP4 POP SWAP4 POP SWAP1 SWAP2 SWAP3 SWAP4 JUMP JUMPDEST DUP4 PUSH1 0x0 SWAP1 DUP1 MLOAD SWAP1 PUSH1 0x20 ADD SWAP1 PUSH2 0x2DA SWAP3 SWAP2 SWAP1 PUSH2 0x326 JUMP JUMPDEST POP DUP3 PUSH1 0x1 SWAP1 DUP1 MLOAD SWAP1 PUSH1 0x20 ADD SWAP1 PUSH2 0x2F1 SWAP3 SWAP2 SWAP1 PUSH2 0x326 JUMP JUMPDEST POP DUP2 PUSH1 0x2 SWAP1 DUP1 MLOAD SWAP1 PUSH1 0x20 ADD SWAP1 PUSH2 0x308 SWAP3 SWAP2 SWAP1 PUSH2 0x326 JUMP JUMPDEST POP DUP1 PUSH1 0x3 SWAP1 DUP1 MLOAD SWAP1 PUSH1 0x20 ADD SWAP1 PUSH2 0x31F SWAP3 SWAP2 SWAP1 PUSH2 0x326 JUMP JUMPDEST POP POP POP POP POP JUMP JUMPDEST DUP3 DUP1 SLOAD PUSH2 0x332 SWAP1 PUSH2 0x65E JUMP JUMPDEST SWAP1 PUSH1 0x0 MSTORE PUSH1 0x20 PUSH1 0x0 KECCAK256 SWAP1 PUSH1 0x1F ADD PUSH1 0x20 SWAP1 DIV DUP2 ADD SWAP3 DUP3 PUSH2 0x354 JUMPI PUSH1 0x0 DUP6 SSTORE PUSH2 0x39B JUMP JUMPDEST DUP3 PUSH1 0x1F LT PUSH2 0x36D JUMPI DUP1 MLOAD PUSH1 0xFF NOT AND DUP4 DUP1 ADD OR DUP6 SSTORE PUSH2 0x39B JUMP JUMPDEST DUP3 DUP1 ADD PUSH1 0x1 ADD DUP6 SSTORE DUP3 ISZERO PUSH2 0x39B JUMPI SWAP2 DUP3 ADD JUMPDEST DUP3 DUP2 GT ISZERO PUSH2 0x39A JUMPI DUP3 MLOAD DUP3 SSTORE SWAP2 PUSH1 0x20 ADD SWAP2 SWAP1 PUSH1 0x1 ADD SWAP1 PUSH2 0x37F JUMP JUMPDEST JUMPDEST POP SWAP1 POP PUSH2 0x3A8 SWAP2 SWAP1 PUSH2 0x3AC JUMP JUMPDEST POP SWAP1 JUMP JUMPDEST JUMPDEST DUP1 DUP3 GT ISZERO PUSH2 0x3C5 JUMPI PUSH1 0x0 DUP2 PUSH1 0x0 SWAP1 SSTORE POP PUSH1 0x1 ADD PUSH2 0x3AD JUMP JUMPDEST POP SWAP1 JUMP JUMPDEST PUSH1 0x0 PUSH2 0x3DC PUSH2 0x3D7 DUP5 PUSH2 0x5CF JUMP JUMPDEST PUSH2 0x5AA JUMP JUMPDEST SWAP1 POP DUP3 DUP2 MSTORE PUSH1 0x20 DUP2 ADD DUP5 DUP5 DUP5 ADD GT ISZERO PUSH2 0x3F8 JUMPI PUSH2 0x3F7 PUSH2 0x724 JUMP JUMPDEST JUMPDEST PUSH2 0x403 DUP5 DUP3 DUP6 PUSH2 0x61C JUMP JUMPDEST POP SWAP4 SWAP3 POP POP POP JUMP JUMPDEST PUSH1 0x0 DUP3 PUSH1 0x1F DUP4 ADD SLT PUSH2 0x420 JUMPI PUSH2 0x41F PUSH2 0x71F JUMP JUMPDEST JUMPDEST DUP2 CALLDATALOAD PUSH2 0x430 DUP5 DUP3 PUSH1 0x20 DUP7 ADD PUSH2 0x3C9 JUMP JUMPDEST SWAP2 POP POP SWAP3 SWAP2 POP POP JUMP JUMPDEST PUSH1 0x0 DUP1 PUSH1 0x0 DUP1 PUSH1 0x80 DUP6 DUP8 SUB SLT ISZERO PUSH2 0x453 JUMPI PUSH2 0x452 PUSH2 0x72E JUMP JUMPDEST JUMPDEST PUSH1 0x0 DUP6 ADD CALLDATALOAD PUSH8 0xFFFFFFFFFFFFFFFF DUP2 GT ISZERO PUSH2 0x471 JUMPI PUSH2 0x470 PUSH2 0x729 JUMP JUMPDEST JUMPDEST PUSH2 0x47D DUP8 DUP3 DUP9 ADD PUSH2 0x40B JUMP JUMPDEST SWAP5 POP POP PUSH1 0x20 DUP6 ADD CALLDATALOAD PUSH8 0xFFFFFFFFFFFFFFFF DUP2 GT ISZERO PUSH2 0x49E JUMPI PUSH2 0x49D PUSH2 0x729 JUMP JUMPDEST JUMPDEST PUSH2 0x4AA DUP8 DUP3 DUP9 ADD PUSH2 0x40B JUMP JUMPDEST SWAP4 POP POP PUSH1 0x40 DUP6 ADD CALLDATALOAD PUSH8 0xFFFFFFFFFFFFFFFF DUP2 GT ISZERO PUSH2 0x4CB JUMPI PUSH2 0x4CA PUSH2 0x729 JUMP JUMPDEST JUMPDEST PUSH2 0x4D7 DUP8 DUP3 DUP9 ADD PUSH2 0x40B JUMP JUMPDEST SWAP3 POP POP PUSH1 0x60 DUP6 ADD CALLDATALOAD PUSH8 0xFFFFFFFFFFFFFFFF DUP2 GT ISZERO PUSH2 0x4F8 JUMPI PUSH2 0x4F7 PUSH2 0x729 JUMP JUMPDEST JUMPDEST PUSH2 0x504 DUP8 DUP3 DUP9 ADD PUSH2 0x40B JUMP JUMPDEST SWAP2 POP POP SWAP3 SWAP6 SWAP2 SWAP5 POP SWAP3 POP JUMP JUMPDEST PUSH1 0x0 PUSH2 0x51B DUP3 PUSH2 0x600 JUMP JUMPDEST PUSH2 0x525 DUP2 DUP6 PUSH2 0x60B JUMP JUMPDEST SWAP4 POP PUSH2 0x535 DUP2 DUP6 PUSH1 0x20 DUP7 ADD PUSH2 0x62B JUMP JUMPDEST PUSH2 0x53E DUP2 PUSH2 0x733 JUMP JUMPDEST DUP5 ADD SWAP2 POP POP SWAP3 SWAP2 POP POP JUMP JUMPDEST PUSH1 0x0 PUSH1 0x80 DUP3 ADD SWAP1 POP DUP2 DUP2 SUB PUSH1 0x0 DUP4 ADD MSTORE PUSH2 0x563 DUP2 DUP8 PUSH2 0x510 JUMP JUMPDEST SWAP1 POP DUP2 DUP2 SUB PUSH1 0x20 DUP4 ADD MSTORE PUSH2 0x577 DUP2 DUP7 PUSH2 0x510 JUMP JUMPDEST SWAP1 POP DUP2 DUP2 SUB PUSH1 0x40 DUP4 ADD MSTORE PUSH2 0x58B DUP2 DUP6 PUSH2 0x510 JUMP JUMPDEST SWAP1 POP DUP2 DUP2 SUB PUSH1 0x60 DUP4 ADD MSTORE PUSH2 0x59F DUP2 DUP5 PUSH2 0x510 JUMP JUMPDEST SWAP1 POP SWAP6 SWAP5 POP POP POP POP POP JUMP JUMPDEST PUSH1 0x0 PUSH2 0x5B4 PUSH2 0x5C5 JUMP JUMPDEST SWAP1 POP PUSH2 0x5C0 DUP3 DUP3 PUSH2 0x690 JUMP JUMPDEST SWAP2 SWAP1 POP JUMP JUMPDEST PUSH1 0x0 PUSH1 0x40 MLOAD SWAP1 POP SWAP1 JUMP JUMPDEST PUSH1 0x0 PUSH8 0xFFFFFFFFFFFFFFFF DUP3 GT ISZERO PUSH2 0x5EA JUMPI PUSH2 0x5E9 PUSH2 0x6F0 JUMP JUMPDEST JUMPDEST PUSH2 0x5F3 DUP3 PUSH2 0x733 JUMP JUMPDEST SWAP1 POP PUSH1 0x20 DUP2 ADD SWAP1 POP SWAP2 SWAP1 POP JUMP JUMPDEST PUSH1 0x0 DUP2 MLOAD SWAP1 POP SWAP2 SWAP1 POP JUMP JUMPDEST PUSH1 0x0 DUP3 DUP3 MSTORE PUSH1 0x20 DUP3 ADD SWAP1 POP SWAP3 SWAP2 POP POP JUMP JUMPDEST DUP3 DUP2 DUP4 CALLDATACOPY PUSH1 0x0 DUP4 DUP4 ADD MSTORE POP POP POP JUMP JUMPDEST PUSH1 0x0 JUMPDEST DUP4 DUP2 LT ISZERO PUSH2 0x649 JUMPI DUP1 DUP3 ADD MLOAD DUP2 DUP5 ADD MSTORE PUSH1 0x20 DUP2 ADD SWAP1 POP PUSH2 0x62E JUMP JUMPDEST DUP4 DUP2 GT ISZERO PUSH2 0x658 JUMPI PUSH1 0x0 DUP5 DUP5 ADD MSTORE JUMPDEST POP POP POP POP JUMP JUMPDEST PUSH1 0x0 PUSH1 0x2 DUP3 DIV SWAP1 POP PUSH1 0x1 DUP3 AND DUP1 PUSH2 0x676 JUMPI PUSH1 0x7F DUP3 AND SWAP2 POP JUMPDEST PUSH1 0x20 DUP3 LT DUP2 EQ ISZERO PUSH2 0x68A JUMPI PUSH2 0x689 PUSH2 0x6C1 JUMP JUMPDEST JUMPDEST POP SWAP2 SWAP1 POP JUMP JUMPDEST PUSH2 0x699 DUP3 PUSH2 0x733 JUMP JUMPDEST DUP2 ADD DUP2 DUP2 LT PUSH8 0xFFFFFFFFFFFFFFFF DUP3 GT OR ISZERO PUSH2 0x6B8 JUMPI PUSH2 0x6B7 PUSH2 0x6F0 JUMP JUMPDEST JUMPDEST DUP1 PUSH1 0x40 MSTORE POP POP POP JUMP JUMPDEST PUSH32 0x4E487B7100000000000000000000000000000000000000000000000000000000 PUSH1 0x0 MSTORE PUSH1 0x22 PUSH1 0x4 MSTORE PUSH1 0x24 PUSH1 0x0 REVERT JUMPDEST PUSH32 0x4E487B7100000000000000000000000000000000000000000000000000000000 PUSH1 0x0 MSTORE PUSH1 0x41 PUSH1 0x4 MSTORE PUSH1 0x24 PUSH1 0x0 REVERT JUMPDEST PUSH1 0x0 DUP1 REVERT JUMPDEST PUSH1 0x0 DUP1 REVERT JUMPDEST PUSH1 0x0 DUP1 REVERT JUMPDEST PUSH1 0x0 DUP1 REVERT JUMPDEST PUSH1 0x0 PUSH1 0x1F NOT PUSH1 0x1F DUP4 ADD AND SWAP1 POP SWAP2 SWAP1 POP JUMP INVALID LOG2 PUSH5 0x6970667358 0x22 SLT KECCAK256 0xFC 0xD7 BLOCKHASH DUP5 OR 0xBD PUSH25 0x2C0E0D3A32AC12E0B3154DC3B75B621C7576201BE9E08563FF PUSH5 0x736F6C6343 STOP ADDMOD SMOD STOP CALLER "
				},
				"gasEstimates": {
					"creation": {
						"codeDepositCost": "382800",
						"executionCost": "418",
						"totalCost": "383218"
					},
					"external": {
						"GetUser()": "infinite",
						"SetUser(string,string,string,string)": "infinite"
					}
				},
				"methodIdentifiers": {
					"GetUser()": "5ee0f654",
					"SetUser(string,string,string,string)": "6f8fcae2"
				}
			},
			"userdoc": {
				"kind": "user",
				"methods": {},
				"version": 1
			}
		}
	}
}