{
	"contracts/authentication.sol": {
		"Authentication": {
			"abi": [
				{
					"inputs": [],
					"stateMutability": "nonpayable",
					"type": "constructor"
				},
				{
					"anonymous": false,
					"inputs": [
						{
							"indexed": false,
							"internalType": "string",
							"name": "message",
							"type": "string"
						}
					],
					"name": "message",
					"type": "event"
				},
				{
					"inputs": [],
					"name": "getSignatureHash",
					"outputs": [
						{
							"internalType": "string",
							"name": "",
							"type": "string"
						}
					],
					"stateMutability": "view",
					"type": "function"
				},
				{
					"inputs": [],
					"name": "getUserAddress",
					"outputs": [
						{
							"internalType": "address",
							"name": "",
							"type": "address"
						}
					],
					"stateMutability": "view",
					"type": "function"
				},
				{
					"inputs": [],
					"name": "getUsername",
					"outputs": [
						{
							"internalType": "string",
							"name": "",
							"type": "string"
						}
					],
					"stateMutability": "view",
					"type": "function"
				},
				{
					"inputs": [
						{
							"internalType": "string",
							"name": "username",
							"type": "string"
						},
						{
							"internalType": "string",
							"name": "password",
							"type": "string"
						}
					],
					"name": "login",
					"outputs": [],
					"stateMutability": "nonpayable",
					"type": "function"
				},
				{
					"inputs": [],
					"name": "nbOfUsers",
					"outputs": [
						{
							"internalType": "uint256",
							"name": "",
							"type": "uint256"
						}
					],
					"stateMutability": "view",
					"type": "function"
				},
				{
					"inputs": [
						{
							"internalType": "string",
							"name": "_signature",
							"type": "string"
						},
						{
							"internalType": "string",
							"name": "email",
							"type": "string"
						},
						{
							"internalType": "string",
							"name": "username",
							"type": "string"
						},
						{
							"internalType": "string",
							"name": "password",
							"type": "string"
						},
						{
							"internalType": "string",
							"name": "repeatPassword",
							"type": "string"
						}
					],
					"name": "register",
					"outputs": [],
					"stateMutability": "nonpayable",
					"type": "function"
				}
			],
			"devdoc": {
				"kind": "dev",
				"methods": {},
				"version": 1
			},
			"evm": {
				"assembly": "    /* \"contracts/authentication.sol\":59:2162  contract Authentication {\r... */\n  mstore(0x40, 0x80)\n    /* \"contracts/authentication.sol\":405:451  constructor() {\r... */\n  callvalue\n  dup1\n  iszero\n  tag_1\n  jumpi\n  0x00\n  dup1\n  revert\ntag_1:\n  pop\n    /* \"contracts/authentication.sol\":442:443  0 */\n  0x00\n    /* \"contracts/authentication.sol\":430:439  nbOfUsers */\n  dup1\n    /* \"contracts/authentication.sol\":430:443  nbOfUsers = 0 */\n  dup2\n  swap1\n  sstore\n  pop\n    /* \"contracts/authentication.sol\":59:2162  contract Authentication {\r... */\n  dataSize(sub_0)\n  dup1\n  dataOffset(sub_0)\n  0x00\n  codecopy\n  0x00\n  return\nstop\n\nsub_0: assembly {\n        /* \"contracts/authentication.sol\":59:2162  contract Authentication {\r... */\n      mstore(0x40, 0x80)\n      callvalue\n      dup1\n      iszero\n      tag_1\n      jumpi\n      0x00\n      dup1\n      revert\n    tag_1:\n      pop\n      jumpi(tag_2, lt(calldatasize, 0x04))\n      shr(0xe0, calldataload(0x00))\n      dup1\n      0x12679323\n      eq\n      tag_3\n      jumpi\n      dup1\n      0x58467dbc\n      eq\n      tag_4\n      jumpi\n      dup1\n      0x5a09007b\n      eq\n      tag_5\n      jumpi\n      dup1\n      0x681f3e6d\n      eq\n      tag_6\n      jumpi\n      dup1\n      0xc127ae41\n      eq\n      tag_7\n      jumpi\n      dup1\n      0xebc3eee8\n      eq\n      tag_8\n      jumpi\n    tag_2:\n      0x00\n      dup1\n      revert\n        /* \"contracts/authentication.sol\":90:114  uint256 public nbOfUsers */\n    tag_3:\n      tag_9\n      tag_10\n      jump\t// in\n    tag_9:\n      mload(0x40)\n      tag_11\n      swap2\n      swap1\n      tag_12\n      jump\t// in\n    tag_11:\n      mload(0x40)\n      dup1\n      swap2\n      sub\n      swap1\n      return\n        /* \"contracts/authentication.sol\":1674:2150  function login(string memory username, string memory password) public {\r... */\n    tag_4:\n      tag_13\n      0x04\n      dup1\n      calldatasize\n      sub\n      dup2\n      add\n      swap1\n      tag_14\n      swap2\n      swap1\n      tag_15\n      jump\t// in\n    tag_14:\n      tag_16\n      jump\t// in\n    tag_13:\n      stop\n        /* \"contracts/authentication.sol\":459:1225  function register(string memory _signature, string memory email, string memory username, string memory password, string memory repeatPassword) public {\r... */\n    tag_5:\n      tag_17\n      0x04\n      dup1\n      calldatasize\n      sub\n      dup2\n      add\n      swap1\n      tag_18\n      swap2\n      swap1\n      tag_19\n      jump\t// in\n    tag_18:\n      tag_20\n      jump\t// in\n    tag_17:\n      stop\n        /* \"contracts/authentication.sol\":1558:1668  function getUsername() public view returns (string memory) {\r... */\n    tag_6:\n      tag_21\n      tag_22\n      jump\t// in\n    tag_21:\n      mload(0x40)\n      tag_23\n      swap2\n      swap1\n      tag_24\n      jump\t// in\n    tag_23:\n      mload(0x40)\n      dup1\n      swap2\n      sub\n      swap1\n      return\n        /* \"contracts/authentication.sol\":1233:1432  function getSignatureHash() public view returns (string memory) {\r... */\n    tag_7:\n      tag_25\n      tag_26\n      jump\t// in\n    tag_25:\n      mload(0x40)\n      tag_27\n      swap2\n      swap1\n      tag_24\n      jump\t// in\n    tag_27:\n      mload(0x40)\n      dup1\n      swap2\n      sub\n      swap1\n      return\n        /* \"contracts/authentication.sol\":1440:1550  function getUserAddress() public view returns (address) {\r... */\n    tag_8:\n      tag_28\n      tag_29\n      jump\t// in\n    tag_28:\n      mload(0x40)\n      tag_30\n      swap2\n      swap1\n      tag_31\n      jump\t// in\n    tag_30:\n      mload(0x40)\n      dup1\n      swap2\n      sub\n      swap1\n      return\n        /* \"contracts/authentication.sol\":90:114  uint256 public nbOfUsers */\n    tag_10:\n      sload(0x00)\n      dup2\n      jump\t// out\n        /* \"contracts/authentication.sol\":1674:2150  function login(string memory username, string memory password) public {\r... */\n    tag_16:\n        /* \"contracts/authentication.sol\":1757:1780  string memory _username */\n      0x00\n        /* \"contracts/authentication.sol\":1782:1795  getUsername() */\n      tag_33\n        /* \"contracts/authentication.sol\":1782:1793  getUsername */\n      tag_22\n        /* \"contracts/authentication.sol\":1782:1795  getUsername() */\n      jump\t// in\n    tag_33:\n        /* \"contracts/authentication.sol\":1757:1795  string memory _username= getUsername() */\n      swap1\n      pop\n        /* \"contracts/authentication.sol\":1806:1829  string memory _password */\n      0x00\n        /* \"contracts/authentication.sol\":1831:1835  user */\n      0x01\n        /* \"contracts/authentication.sol\":1831:1847  user[msg.sender] */\n      0x00\n        /* \"contracts/authentication.sol\":1836:1846  msg.sender */\n      caller\n        /* \"contracts/authentication.sol\":1831:1847  user[msg.sender] */\n      0xffffffffffffffffffffffffffffffffffffffff\n      and\n      0xffffffffffffffffffffffffffffffffffffffff\n      and\n      dup2\n      mstore\n      0x20\n      add\n      swap1\n      dup2\n      mstore\n      0x20\n      add\n      0x00\n      keccak256\n        /* \"contracts/authentication.sol\":1831:1856  user[msg.sender].password */\n      0x03\n      add\n        /* \"contracts/authentication.sol\":1806:1856  string memory _password= user[msg.sender].password */\n      dup1\n      sload\n      tag_34\n      swap1\n      tag_35\n      jump\t// in\n    tag_34:\n      dup1\n      0x1f\n      add\n      0x20\n      dup1\n      swap2\n      div\n      mul\n      0x20\n      add\n      mload(0x40)\n      swap1\n      dup2\n      add\n      0x40\n      mstore\n      dup1\n      swap3\n      swap2\n      swap1\n      dup2\n      dup2\n      mstore\n      0x20\n      add\n      dup3\n      dup1\n      sload\n      tag_36\n      swap1\n      tag_35\n      jump\t// in\n    tag_36:\n      dup1\n      iszero\n      tag_37\n      jumpi\n      dup1\n      0x1f\n      lt\n      tag_38\n      jumpi\n      0x0100\n      dup1\n      dup4\n      sload\n      div\n      mul\n      dup4\n      mstore\n      swap2\n      0x20\n      add\n      swap2\n      jump(tag_37)\n    tag_38:\n      dup3\n      add\n      swap2\n      swap1\n      0x00\n      mstore\n      keccak256(0x00, 0x20)\n      swap1\n    tag_39:\n      dup2\n      sload\n      dup2\n      mstore\n      swap1\n      0x01\n      add\n      swap1\n      0x20\n      add\n      dup1\n      dup4\n      gt\n      tag_39\n      jumpi\n      dup3\n      swap1\n      sub\n      0x1f\n      and\n      dup3\n      add\n      swap2\n    tag_37:\n      pop\n      pop\n      pop\n      pop\n      pop\n      swap1\n      pop\n        /* \"contracts/authentication.sol\":1919:1927  username */\n      dup4\n        /* \"contracts/authentication.sol\":1903:1929  keccak256(bytes(username)) */\n      dup1\n      mload\n      swap1\n      0x20\n      add\n      keccak256\n        /* \"contracts/authentication.sol\":1888:1897  _username */\n      dup3\n        /* \"contracts/authentication.sol\":1872:1899  keccak256(bytes(_username)) */\n      dup1\n      mload\n      swap1\n      0x20\n      add\n      keccak256\n        /* \"contracts/authentication.sol\":1872:1929  keccak256(bytes(_username)) == keccak256(bytes(username)) */\n      eq\n        /* \"contracts/authentication.sol\":1872:1990  keccak256(bytes(_username)) == keccak256(bytes(username)) && keccak256(bytes(_password)) == keccak256(bytes(password)) */\n      dup1\n      iszero\n      tag_40\n      jumpi\n      pop\n        /* \"contracts/authentication.sol\":1980:1988  password */\n      dup3\n        /* \"contracts/authentication.sol\":1964:1990  keccak256(bytes(password)) */\n      dup1\n      mload\n      swap1\n      0x20\n      add\n      keccak256\n        /* \"contracts/authentication.sol\":1949:1958  _password */\n      dup2\n        /* \"contracts/authentication.sol\":1933:1960  keccak256(bytes(_password)) */\n      dup1\n      mload\n      swap1\n      0x20\n      add\n      keccak256\n        /* \"contracts/authentication.sol\":1933:1990  keccak256(bytes(_password)) == keccak256(bytes(password)) */\n      eq\n        /* \"contracts/authentication.sol\":1872:1990  keccak256(bytes(_username)) == keccak256(bytes(username)) && keccak256(bytes(_password)) == keccak256(bytes(password)) */\n    tag_40:\n        /* \"contracts/authentication.sol\":1869:2143  if(keccak256(bytes(_username)) == keccak256(bytes(username)) && keccak256(bytes(_password)) == keccak256(bytes(password)) ) {\r... */\n      iszero\n      tag_41\n      jumpi\n        /* \"contracts/authentication.sol\":2015:2032  message(username) */\n      0x05c766d1c5ea6f40afc38cd8e27308c236c492fbcfa32b458d2755cf76ec1e21\n        /* \"contracts/authentication.sol\":2023:2031  username */\n      dup5\n        /* \"contracts/authentication.sol\":2015:2032  message(username) */\n      mload(0x40)\n      tag_42\n      swap2\n      swap1\n      tag_24\n      jump\t// in\n    tag_42:\n      mload(0x40)\n      dup1\n      swap2\n      sub\n      swap1\n      log1\n        /* \"contracts/authentication.sol\":1869:2143  if(keccak256(bytes(_username)) == keccak256(bytes(username)) && keccak256(bytes(_password)) == keccak256(bytes(password)) ) {\r... */\n      jump(tag_43)\n    tag_41:\n        /* \"contracts/authentication.sol\":2072:2130  message(\"User doesnot exist !! Register and try again !!\") */\n      0x05c766d1c5ea6f40afc38cd8e27308c236c492fbcfa32b458d2755cf76ec1e21\n      mload(0x40)\n      tag_44\n      swap1\n      tag_45\n      jump\t// in\n    tag_44:\n      mload(0x40)\n      dup1\n      swap2\n      sub\n      swap1\n      log1\n        /* \"contracts/authentication.sol\":1869:2143  if(keccak256(bytes(_username)) == keccak256(bytes(username)) && keccak256(bytes(_password)) == keccak256(bytes(password)) ) {\r... */\n    tag_43:\n        /* \"contracts/authentication.sol\":1744:2150  {\r... */\n      pop\n      pop\n        /* \"contracts/authentication.sol\":1674:2150  function login(string memory username, string memory password) public {\r... */\n      pop\n      pop\n      jump\t// out\n        /* \"contracts/authentication.sol\":459:1225  function register(string memory _signature, string memory email, string memory username, string memory password, string memory repeatPassword) public {\r... */\n    tag_20:\n        /* \"contracts/authentication.sol\":804:814  _signature */\n      dup5\n        /* \"contracts/authentication.sol\":771:775  user */\n      0x01\n        /* \"contracts/authentication.sol\":771:787  user[msg.sender] */\n      0x00\n        /* \"contracts/authentication.sol\":776:786  msg.sender */\n      caller\n        /* \"contracts/authentication.sol\":771:787  user[msg.sender] */\n      0xffffffffffffffffffffffffffffffffffffffff\n      and\n      0xffffffffffffffffffffffffffffffffffffffff\n      and\n      dup2\n      mstore\n      0x20\n      add\n      swap1\n      dup2\n      mstore\n      0x20\n      add\n      0x00\n      keccak256\n        /* \"contracts/authentication.sol\":771:801  user[msg.sender].signatureHash */\n      0x00\n      add\n        /* \"contracts/authentication.sol\":771:814  user[msg.sender].signatureHash = _signature */\n      swap1\n      dup1\n      mload\n      swap1\n      0x20\n      add\n      swap1\n      tag_47\n      swap3\n      swap2\n      swap1\n      tag_48\n      jump\t// in\n    tag_47:\n      pop\n        /* \"contracts/authentication.sol\":850:855  email */\n      dup4\n        /* \"contracts/authentication.sol\":825:829  user */\n      0x01\n        /* \"contracts/authentication.sol\":825:841  user[msg.sender] */\n      0x00\n        /* \"contracts/authentication.sol\":830:840  msg.sender */\n      caller\n        /* \"contracts/authentication.sol\":825:841  user[msg.sender] */\n      0xffffffffffffffffffffffffffffffffffffffff\n      and\n      0xffffffffffffffffffffffffffffffffffffffff\n      and\n      dup2\n      mstore\n      0x20\n      add\n      swap1\n      dup2\n      mstore\n      0x20\n      add\n      0x00\n      keccak256\n        /* \"contracts/authentication.sol\":825:847  user[msg.sender].email */\n      0x01\n      add\n        /* \"contracts/authentication.sol\":825:855  user[msg.sender].email = email */\n      swap1\n      dup1\n      mload\n      swap1\n      0x20\n      add\n      swap1\n      tag_49\n      swap3\n      swap2\n      swap1\n      tag_48\n      jump\t// in\n    tag_49:\n      pop\n        /* \"contracts/authentication.sol\":897:907  msg.sender */\n      caller\n        /* \"contracts/authentication.sol\":866:870  user */\n      0x01\n        /* \"contracts/authentication.sol\":866:882  user[msg.sender] */\n      0x00\n        /* \"contracts/authentication.sol\":871:881  msg.sender */\n      caller\n        /* \"contracts/authentication.sol\":866:882  user[msg.sender] */\n      0xffffffffffffffffffffffffffffffffffffffff\n      and\n      0xffffffffffffffffffffffffffffffffffffffff\n      and\n      dup2\n      mstore\n      0x20\n      add\n      swap1\n      dup2\n      mstore\n      0x20\n      add\n      0x00\n      keccak256\n        /* \"contracts/authentication.sol\":866:894  user[msg.sender].userAddress */\n      0x05\n      add\n      0x00\n        /* \"contracts/authentication.sol\":866:907  user[msg.sender].userAddress = msg.sender */\n      0x0100\n      exp\n      dup2\n      sload\n      dup2\n      0xffffffffffffffffffffffffffffffffffffffff\n      mul\n      not\n      and\n      swap1\n      dup4\n      0xffffffffffffffffffffffffffffffffffffffff\n      and\n      mul\n      or\n      swap1\n      sstore\n      pop\n        /* \"contracts/authentication.sol\":946:954  username */\n      dup3\n        /* \"contracts/authentication.sol\":918:922  user */\n      0x01\n        /* \"contracts/authentication.sol\":918:934  user[msg.sender] */\n      0x00\n        /* \"contracts/authentication.sol\":923:933  msg.sender */\n      caller\n        /* \"contracts/authentication.sol\":918:934  user[msg.sender] */\n      0xffffffffffffffffffffffffffffffffffffffff\n      and\n      0xffffffffffffffffffffffffffffffffffffffff\n      and\n      dup2\n      mstore\n      0x20\n      add\n      swap1\n      dup2\n      mstore\n      0x20\n      add\n      0x00\n      keccak256\n        /* \"contracts/authentication.sol\":918:943  user[msg.sender].username */\n      0x02\n      add\n        /* \"contracts/authentication.sol\":918:954  user[msg.sender].username = username */\n      swap1\n      dup1\n      mload\n      swap1\n      0x20\n      add\n      swap1\n      tag_50\n      swap3\n      swap2\n      swap1\n      tag_48\n      jump\t// in\n    tag_50:\n      pop\n        /* \"contracts/authentication.sol\":993:1001  password */\n      dup2\n        /* \"contracts/authentication.sol\":965:969  user */\n      0x01\n        /* \"contracts/authentication.sol\":965:981  user[msg.sender] */\n      0x00\n        /* \"contracts/authentication.sol\":970:980  msg.sender */\n      caller\n        /* \"contracts/authentication.sol\":965:981  user[msg.sender] */\n      0xffffffffffffffffffffffffffffffffffffffff\n      and\n      0xffffffffffffffffffffffffffffffffffffffff\n      and\n      dup2\n      mstore\n      0x20\n      add\n      swap1\n      dup2\n      mstore\n      0x20\n      add\n      0x00\n      keccak256\n        /* \"contracts/authentication.sol\":965:990  user[msg.sender].password */\n      0x03\n      add\n        /* \"contracts/authentication.sol\":965:1001  user[msg.sender].password = password */\n      swap1\n      dup1\n      mload\n      swap1\n      0x20\n      add\n      swap1\n      tag_51\n      swap3\n      swap2\n      swap1\n      tag_48\n      jump\t// in\n    tag_51:\n      pop\n        /* \"contracts/authentication.sol\":1046:1060  repeatPassword */\n      dup1\n        /* \"contracts/authentication.sol\":1012:1016  user */\n      0x01\n        /* \"contracts/authentication.sol\":1012:1028  user[msg.sender] */\n      0x00\n        /* \"contracts/authentication.sol\":1017:1027  msg.sender */\n      caller\n        /* \"contracts/authentication.sol\":1012:1028  user[msg.sender] */\n      0xffffffffffffffffffffffffffffffffffffffff\n      and\n      0xffffffffffffffffffffffffffffffffffffffff\n      and\n      dup2\n      mstore\n      0x20\n      add\n      swap1\n      dup2\n      mstore\n      0x20\n      add\n      0x00\n      keccak256\n        /* \"contracts/authentication.sol\":1012:1043  user[msg.sender].repeatPassword */\n      0x04\n      add\n        /* \"contracts/authentication.sol\":1012:1060  user[msg.sender].repeatPassword = repeatPassword */\n      swap1\n      dup1\n      mload\n      swap1\n      0x20\n      add\n      swap1\n      tag_52\n      swap3\n      swap2\n      swap1\n      tag_48\n      jump\t// in\n    tag_52:\n      pop\n        /* \"contracts/authentication.sol\":1071:1080  nbOfUsers */\n      0x00\n      dup1\n        /* \"contracts/authentication.sol\":1071:1082  nbOfUsers++ */\n      dup2\n      sload\n      dup1\n      swap3\n      swap2\n      swap1\n      tag_53\n      swap1\n      tag_54\n      jump\t// in\n    tag_53:\n      swap2\n      swap1\n      pop\n      sstore\n      pop\n        /* \"contracts/authentication.sol\":1115:1116  1 */\n      0x01\n        /* \"contracts/authentication.sol\":1102:1111  nbOfUsers */\n      sload(0x00)\n        /* \"contracts/authentication.sol\":1102:1116  nbOfUsers == 1 */\n      eq\n        /* \"contracts/authentication.sol\":1093:1167  require( nbOfUsers == 1,\r... */\n      tag_55\n      jumpi\n      mload(0x40)\n      0x08c379a000000000000000000000000000000000000000000000000000000000\n      dup2\n      mstore\n      0x04\n      add\n      tag_56\n      swap1\n      tag_57\n      jump\t// in\n    tag_56:\n      mload(0x40)\n      dup1\n      swap2\n      sub\n      swap1\n      revert\n    tag_55:\n        /* \"contracts/authentication.sol\":1183:1217  message(\"Successfully Registered\") */\n      0x05c766d1c5ea6f40afc38cd8e27308c236c492fbcfa32b458d2755cf76ec1e21\n      mload(0x40)\n      tag_58\n      swap1\n      tag_57\n      jump\t// in\n    tag_58:\n      mload(0x40)\n      dup1\n      swap2\n      sub\n      swap1\n      log1\n        /* \"contracts/authentication.sol\":459:1225  function register(string memory _signature, string memory email, string memory username, string memory password, string memory repeatPassword) public {\r... */\n      pop\n      pop\n      pop\n      pop\n      pop\n      jump\t// out\n        /* \"contracts/authentication.sol\":1558:1668  function getUsername() public view returns (string memory) {\r... */\n    tag_22:\n        /* \"contracts/authentication.sol\":1602:1615  string memory */\n      0x60\n        /* \"contracts/authentication.sol\":1635:1639  user */\n      0x01\n        /* \"contracts/authentication.sol\":1635:1651  user[msg.sender] */\n      0x00\n        /* \"contracts/authentication.sol\":1640:1650  msg.sender */\n      caller\n        /* \"contracts/authentication.sol\":1635:1651  user[msg.sender] */\n      0xffffffffffffffffffffffffffffffffffffffff\n      and\n      0xffffffffffffffffffffffffffffffffffffffff\n      and\n      dup2\n      mstore\n      0x20\n      add\n      swap1\n      dup2\n      mstore\n      0x20\n      add\n      0x00\n      keccak256\n        /* \"contracts/authentication.sol\":1635:1660  user[msg.sender].username */\n      0x02\n      add\n        /* \"contracts/authentication.sol\":1628:1660  return user[msg.sender].username */\n      dup1\n      sload\n      tag_60\n      swap1\n      tag_35\n      jump\t// in\n    tag_60:\n      dup1\n      0x1f\n      add\n      0x20\n      dup1\n      swap2\n      div\n      mul\n      0x20\n      add\n      mload(0x40)\n      swap1\n      dup2\n      add\n      0x40\n      mstore\n      dup1\n      swap3\n      swap2\n      swap1\n      dup2\n      dup2\n      mstore\n      0x20\n      add\n      dup3\n      dup1\n      sload\n      tag_61\n      swap1\n      tag_35\n      jump\t// in\n    tag_61:\n      dup1\n      iszero\n      tag_62\n      jumpi\n      dup1\n      0x1f\n      lt\n      tag_63\n      jumpi\n      0x0100\n      dup1\n      dup4\n      sload\n      div\n      mul\n      dup4\n      mstore\n      swap2\n      0x20\n      add\n      swap2\n      jump(tag_62)\n    tag_63:\n      dup3\n      add\n      swap2\n      swap1\n      0x00\n      mstore\n      keccak256(0x00, 0x20)\n      swap1\n    tag_64:\n      dup2\n      sload\n      dup2\n      mstore\n      swap1\n      0x01\n      add\n      swap1\n      0x20\n      add\n      dup1\n      dup4\n      gt\n      tag_64\n      jumpi\n      dup3\n      swap1\n      sub\n      0x1f\n      and\n      dup3\n      add\n      swap2\n    tag_62:\n      pop\n      pop\n      pop\n      pop\n      pop\n      swap1\n      pop\n        /* \"contracts/authentication.sol\":1558:1668  function getUsername() public view returns (string memory) {\r... */\n      swap1\n      jump\t// out\n        /* \"contracts/authentication.sol\":1233:1432  function getSignatureHash() public view returns (string memory) {\r... */\n    tag_26:\n        /* \"contracts/authentication.sol\":1282:1295  string memory */\n      0x60\n        /* \"contracts/authentication.sol\":1330:1334  user */\n      0x01\n        /* \"contracts/authentication.sol\":1330:1346  user[msg.sender] */\n      0x00\n        /* \"contracts/authentication.sol\":1335:1345  msg.sender */\n      caller\n        /* \"contracts/authentication.sol\":1330:1346  user[msg.sender] */\n      0xffffffffffffffffffffffffffffffffffffffff\n      and\n      0xffffffffffffffffffffffffffffffffffffffff\n      and\n      dup2\n      mstore\n      0x20\n      add\n      swap1\n      dup2\n      mstore\n      0x20\n      add\n      0x00\n      keccak256\n        /* \"contracts/authentication.sol\":1330:1358  user[msg.sender].userAddress */\n      0x05\n      add\n      0x00\n      swap1\n      sload\n      swap1\n      0x0100\n      exp\n      swap1\n      div\n      0xffffffffffffffffffffffffffffffffffffffff\n      and\n        /* \"contracts/authentication.sol\":1316:1358  msg.sender == user[msg.sender].userAddress */\n      0xffffffffffffffffffffffffffffffffffffffff\n      and\n        /* \"contracts/authentication.sol\":1316:1326  msg.sender */\n      caller\n        /* \"contracts/authentication.sol\":1316:1358  msg.sender == user[msg.sender].userAddress */\n      0xffffffffffffffffffffffffffffffffffffffff\n      and\n      eq\n        /* \"contracts/authentication.sol\":1308:1374  require(msg.sender == user[msg.sender].userAddress, \"Not allowed\") */\n      tag_66\n      jumpi\n      mload(0x40)\n      0x08c379a000000000000000000000000000000000000000000000000000000000\n      dup2\n      mstore\n      0x04\n      add\n      tag_67\n      swap1\n      tag_68\n      jump\t// in\n    tag_67:\n      mload(0x40)\n      dup1\n      swap2\n      sub\n      swap1\n      revert\n    tag_66:\n        /* \"contracts/authentication.sol\":1394:1398  user */\n      0x01\n        /* \"contracts/authentication.sol\":1394:1410  user[msg.sender] */\n      0x00\n        /* \"contracts/authentication.sol\":1399:1409  msg.sender */\n      caller\n        /* \"contracts/authentication.sol\":1394:1410  user[msg.sender] */\n      0xffffffffffffffffffffffffffffffffffffffff\n      and\n      0xffffffffffffffffffffffffffffffffffffffff\n      and\n      dup2\n      mstore\n      0x20\n      add\n      swap1\n      dup2\n      mstore\n      0x20\n      add\n      0x00\n      keccak256\n        /* \"contracts/authentication.sol\":1394:1424  user[msg.sender].signatureHash */\n      0x00\n      add\n        /* \"contracts/authentication.sol\":1387:1424  return user[msg.sender].signatureHash */\n      dup1\n      sload\n      tag_69\n      swap1\n      tag_35\n      jump\t// in\n    tag_69:\n      dup1\n      0x1f\n      add\n      0x20\n      dup1\n      swap2\n      div\n      mul\n      0x20\n      add\n      mload(0x40)\n      swap1\n      dup2\n      add\n      0x40\n      mstore\n      dup1\n      swap3\n      swap2\n      swap1\n      dup2\n      dup2\n      mstore\n      0x20\n      add\n      dup3\n      dup1\n      sload\n      tag_70\n      swap1\n      tag_35\n      jump\t// in\n    tag_70:\n      dup1\n      iszero\n      tag_71\n      jumpi\n      dup1\n      0x1f\n      lt\n      tag_72\n      jumpi\n      0x0100\n      dup1\n      dup4\n      sload\n      div\n      mul\n      dup4\n      mstore\n      swap2\n      0x20\n      add\n      swap2\n      jump(tag_71)\n    tag_72:\n      dup3\n      add\n      swap2\n      swap1\n      0x00\n      mstore\n      keccak256(0x00, 0x20)\n      swap1\n    tag_73:\n      dup2\n      sload\n      dup2\n      mstore\n      swap1\n      0x01\n      add\n      swap1\n      0x20\n      add\n      dup1\n      dup4\n      gt\n      tag_73\n      jumpi\n      dup3\n      swap1\n      sub\n      0x1f\n      and\n      dup3\n      add\n      swap2\n    tag_71:\n      pop\n      pop\n      pop\n      pop\n      pop\n      swap1\n      pop\n        /* \"contracts/authentication.sol\":1233:1432  function getSignatureHash() public view returns (string memory) {\r... */\n      swap1\n      jump\t// out\n        /* \"contracts/authentication.sol\":1440:1550  function getUserAddress() public view returns (address) {\r... */\n    tag_29:\n        /* \"contracts/authentication.sol\":1487:1494  address */\n      0x00\n        /* \"contracts/authentication.sol\":1514:1518  user */\n      0x01\n        /* \"contracts/authentication.sol\":1514:1530  user[msg.sender] */\n      0x00\n        /* \"contracts/authentication.sol\":1519:1529  msg.sender */\n      caller\n        /* \"contracts/authentication.sol\":1514:1530  user[msg.sender] */\n      0xffffffffffffffffffffffffffffffffffffffff\n      and\n      0xffffffffffffffffffffffffffffffffffffffff\n      and\n      dup2\n      mstore\n      0x20\n      add\n      swap1\n      dup2\n      mstore\n      0x20\n      add\n      0x00\n      keccak256\n        /* \"contracts/authentication.sol\":1514:1542  user[msg.sender].userAddress */\n      0x05\n      add\n      0x00\n      swap1\n      sload\n      swap1\n      0x0100\n      exp\n      swap1\n      div\n      0xffffffffffffffffffffffffffffffffffffffff\n      and\n        /* \"contracts/authentication.sol\":1507:1542  return user[msg.sender].userAddress */\n      swap1\n      pop\n        /* \"contracts/authentication.sol\":1440:1550  function getUserAddress() public view returns (address) {\r... */\n      swap1\n      jump\t// out\n    tag_48:\n      dup3\n      dup1\n      sload\n      tag_75\n      swap1\n      tag_35\n      jump\t// in\n    tag_75:\n      swap1\n      0x00\n      mstore\n      keccak256(0x00, 0x20)\n      swap1\n      0x1f\n      add\n      0x20\n      swap1\n      div\n      dup2\n      add\n      swap3\n      dup3\n      tag_77\n      jumpi\n      0x00\n      dup6\n      sstore\n      jump(tag_76)\n    tag_77:\n      dup3\n      0x1f\n      lt\n      tag_78\n      jumpi\n      dup1\n      mload\n      not(0xff)\n      and\n      dup4\n      dup1\n      add\n      or\n      dup6\n      sstore\n      jump(tag_76)\n    tag_78:\n      dup3\n      dup1\n      add\n      0x01\n      add\n      dup6\n      sstore\n      dup3\n      iszero\n      tag_76\n      jumpi\n      swap2\n      dup3\n      add\n    tag_79:\n      dup3\n      dup2\n      gt\n      iszero\n      tag_80\n      jumpi\n      dup3\n      mload\n      dup3\n      sstore\n      swap2\n      0x20\n      add\n      swap2\n      swap1\n      0x01\n      add\n      swap1\n      jump(tag_79)\n    tag_80:\n    tag_76:\n      pop\n      swap1\n      pop\n      tag_81\n      swap2\n      swap1\n      tag_82\n      jump\t// in\n    tag_81:\n      pop\n      swap1\n      jump\t// out\n    tag_82:\n    tag_83:\n      dup1\n      dup3\n      gt\n      iszero\n      tag_84\n      jumpi\n      0x00\n      dup2\n      0x00\n      swap1\n      sstore\n      pop\n      0x01\n      add\n      jump(tag_83)\n    tag_84:\n      pop\n      swap1\n      jump\t// out\n        /* \"#utility.yul\":7:419   */\n    tag_86:\n        /* \"#utility.yul\":85:90   */\n      0x00\n        /* \"#utility.yul\":110:176   */\n      tag_88\n        /* \"#utility.yul\":126:175   */\n      tag_89\n        /* \"#utility.yul\":168:174   */\n      dup5\n        /* \"#utility.yul\":126:175   */\n      tag_90\n      jump\t// in\n    tag_89:\n        /* \"#utility.yul\":110:176   */\n      tag_91\n      jump\t// in\n    tag_88:\n        /* \"#utility.yul\":101:176   */\n      swap1\n      pop\n        /* \"#utility.yul\":199:205   */\n      dup3\n        /* \"#utility.yul\":192:197   */\n      dup2\n        /* \"#utility.yul\":185:206   */\n      mstore\n        /* \"#utility.yul\":237:241   */\n      0x20\n        /* \"#utility.yul\":230:235   */\n      dup2\n        /* \"#utility.yul\":226:242   */\n      add\n        /* \"#utility.yul\":275:278   */\n      dup5\n        /* \"#utility.yul\":266:272   */\n      dup5\n        /* \"#utility.yul\":261:264   */\n      dup5\n        /* \"#utility.yul\":257:273   */\n      add\n        /* \"#utility.yul\":254:279   */\n      gt\n        /* \"#utility.yul\":251:253   */\n      iszero\n      tag_92\n      jumpi\n        /* \"#utility.yul\":282:361   */\n      tag_93\n      tag_94\n      jump\t// in\n    tag_93:\n        /* \"#utility.yul\":251:253   */\n    tag_92:\n        /* \"#utility.yul\":372:413   */\n      tag_95\n        /* \"#utility.yul\":406:412   */\n      dup5\n        /* \"#utility.yul\":401:404   */\n      dup3\n        /* \"#utility.yul\":396:399   */\n      dup6\n        /* \"#utility.yul\":372:413   */\n      tag_96\n      jump\t// in\n    tag_95:\n        /* \"#utility.yul\":91:419   */\n      pop\n      swap4\n      swap3\n      pop\n      pop\n      pop\n      jump\t// out\n        /* \"#utility.yul\":439:779   */\n    tag_97:\n        /* \"#utility.yul\":495:500   */\n      0x00\n        /* \"#utility.yul\":544:547   */\n      dup3\n        /* \"#utility.yul\":537:541   */\n      0x1f\n        /* \"#utility.yul\":529:535   */\n      dup4\n        /* \"#utility.yul\":525:542   */\n      add\n        /* \"#utility.yul\":521:548   */\n      slt\n        /* \"#utility.yul\":511:513   */\n      tag_99\n      jumpi\n        /* \"#utility.yul\":552:631   */\n      tag_100\n      tag_101\n      jump\t// in\n    tag_100:\n        /* \"#utility.yul\":511:513   */\n    tag_99:\n        /* \"#utility.yul\":669:675   */\n      dup2\n        /* \"#utility.yul\":656:676   */\n      calldataload\n        /* \"#utility.yul\":694:773   */\n      tag_102\n        /* \"#utility.yul\":769:772   */\n      dup5\n        /* \"#utility.yul\":761:767   */\n      dup3\n        /* \"#utility.yul\":754:758   */\n      0x20\n        /* \"#utility.yul\":746:752   */\n      dup7\n        /* \"#utility.yul\":742:759   */\n      add\n        /* \"#utility.yul\":694:773   */\n      tag_86\n      jump\t// in\n    tag_102:\n        /* \"#utility.yul\":685:773   */\n      swap2\n      pop\n        /* \"#utility.yul\":501:779   */\n      pop\n      swap3\n      swap2\n      pop\n      pop\n      jump\t// out\n        /* \"#utility.yul\":785:1619   */\n    tag_15:\n        /* \"#utility.yul\":873:879   */\n      0x00\n        /* \"#utility.yul\":881:887   */\n      dup1\n        /* \"#utility.yul\":930:932   */\n      0x40\n        /* \"#utility.yul\":918:927   */\n      dup4\n        /* \"#utility.yul\":909:916   */\n      dup6\n        /* \"#utility.yul\":905:928   */\n      sub\n        /* \"#utility.yul\":901:933   */\n      slt\n        /* \"#utility.yul\":898:900   */\n      iszero\n      tag_104\n      jumpi\n        /* \"#utility.yul\":936:1015   */\n      tag_105\n      tag_106\n      jump\t// in\n    tag_105:\n        /* \"#utility.yul\":898:900   */\n    tag_104:\n        /* \"#utility.yul\":1084:1085   */\n      0x00\n        /* \"#utility.yul\":1073:1082   */\n      dup4\n        /* \"#utility.yul\":1069:1086   */\n      add\n        /* \"#utility.yul\":1056:1087   */\n      calldataload\n        /* \"#utility.yul\":1114:1132   */\n      0xffffffffffffffff\n        /* \"#utility.yul\":1106:1112   */\n      dup2\n        /* \"#utility.yul\":1103:1133   */\n      gt\n        /* \"#utility.yul\":1100:1102   */\n      iszero\n      tag_107\n      jumpi\n        /* \"#utility.yul\":1136:1215   */\n      tag_108\n      tag_109\n      jump\t// in\n    tag_108:\n        /* \"#utility.yul\":1100:1102   */\n    tag_107:\n        /* \"#utility.yul\":1241:1304   */\n      tag_110\n        /* \"#utility.yul\":1296:1303   */\n      dup6\n        /* \"#utility.yul\":1287:1293   */\n      dup3\n        /* \"#utility.yul\":1276:1285   */\n      dup7\n        /* \"#utility.yul\":1272:1294   */\n      add\n        /* \"#utility.yul\":1241:1304   */\n      tag_97\n      jump\t// in\n    tag_110:\n        /* \"#utility.yul\":1231:1304   */\n      swap3\n      pop\n        /* \"#utility.yul\":1027:1314   */\n      pop\n        /* \"#utility.yul\":1381:1383   */\n      0x20\n        /* \"#utility.yul\":1370:1379   */\n      dup4\n        /* \"#utility.yul\":1366:1384   */\n      add\n        /* \"#utility.yul\":1353:1385   */\n      calldataload\n        /* \"#utility.yul\":1412:1430   */\n      0xffffffffffffffff\n        /* \"#utility.yul\":1404:1410   */\n      dup2\n        /* \"#utility.yul\":1401:1431   */\n      gt\n        /* \"#utility.yul\":1398:1400   */\n      iszero\n      tag_111\n      jumpi\n        /* \"#utility.yul\":1434:1513   */\n      tag_112\n      tag_109\n      jump\t// in\n    tag_112:\n        /* \"#utility.yul\":1398:1400   */\n    tag_111:\n        /* \"#utility.yul\":1539:1602   */\n      tag_113\n        /* \"#utility.yul\":1594:1601   */\n      dup6\n        /* \"#utility.yul\":1585:1591   */\n      dup3\n        /* \"#utility.yul\":1574:1583   */\n      dup7\n        /* \"#utility.yul\":1570:1592   */\n      add\n        /* \"#utility.yul\":1539:1602   */\n      tag_97\n      jump\t// in\n    tag_113:\n        /* \"#utility.yul\":1529:1602   */\n      swap2\n      pop\n        /* \"#utility.yul\":1324:1612   */\n      pop\n        /* \"#utility.yul\":888:1619   */\n      swap3\n      pop\n      swap3\n      swap1\n      pop\n      jump\t// out\n        /* \"#utility.yul\":1625:3436   */\n    tag_19:\n        /* \"#utility.yul\":1770:1776   */\n      0x00\n        /* \"#utility.yul\":1778:1784   */\n      dup1\n        /* \"#utility.yul\":1786:1792   */\n      0x00\n        /* \"#utility.yul\":1794:1800   */\n      dup1\n        /* \"#utility.yul\":1802:1808   */\n      0x00\n        /* \"#utility.yul\":1851:1854   */\n      0xa0\n        /* \"#utility.yul\":1839:1848   */\n      dup7\n        /* \"#utility.yul\":1830:1837   */\n      dup9\n        /* \"#utility.yul\":1826:1849   */\n      sub\n        /* \"#utility.yul\":1822:1855   */\n      slt\n        /* \"#utility.yul\":1819:1821   */\n      iszero\n      tag_115\n      jumpi\n        /* \"#utility.yul\":1858:1937   */\n      tag_116\n      tag_106\n      jump\t// in\n    tag_116:\n        /* \"#utility.yul\":1819:1821   */\n    tag_115:\n        /* \"#utility.yul\":2006:2007   */\n      0x00\n        /* \"#utility.yul\":1995:2004   */\n      dup7\n        /* \"#utility.yul\":1991:2008   */\n      add\n        /* \"#utility.yul\":1978:2009   */\n      calldataload\n        /* \"#utility.yul\":2036:2054   */\n      0xffffffffffffffff\n        /* \"#utility.yul\":2028:2034   */\n      dup2\n        /* \"#utility.yul\":2025:2055   */\n      gt\n        /* \"#utility.yul\":2022:2024   */\n      iszero\n      tag_117\n      jumpi\n        /* \"#utility.yul\":2058:2137   */\n      tag_118\n      tag_109\n      jump\t// in\n    tag_118:\n        /* \"#utility.yul\":2022:2024   */\n    tag_117:\n        /* \"#utility.yul\":2163:2226   */\n      tag_119\n        /* \"#utility.yul\":2218:2225   */\n      dup9\n        /* \"#utility.yul\":2209:2215   */\n      dup3\n        /* \"#utility.yul\":2198:2207   */\n      dup10\n        /* \"#utility.yul\":2194:2216   */\n      add\n        /* \"#utility.yul\":2163:2226   */\n      tag_97\n      jump\t// in\n    tag_119:\n        /* \"#utility.yul\":2153:2226   */\n      swap6\n      pop\n        /* \"#utility.yul\":1949:2236   */\n      pop\n        /* \"#utility.yul\":2303:2305   */\n      0x20\n        /* \"#utility.yul\":2292:2301   */\n      dup7\n        /* \"#utility.yul\":2288:2306   */\n      add\n        /* \"#utility.yul\":2275:2307   */\n      calldataload\n        /* \"#utility.yul\":2334:2352   */\n      0xffffffffffffffff\n        /* \"#utility.yul\":2326:2332   */\n      dup2\n        /* \"#utility.yul\":2323:2353   */\n      gt\n        /* \"#utility.yul\":2320:2322   */\n      iszero\n      tag_120\n      jumpi\n        /* \"#utility.yul\":2356:2435   */\n      tag_121\n      tag_109\n      jump\t// in\n    tag_121:\n        /* \"#utility.yul\":2320:2322   */\n    tag_120:\n        /* \"#utility.yul\":2461:2524   */\n      tag_122\n        /* \"#utility.yul\":2516:2523   */\n      dup9\n        /* \"#utility.yul\":2507:2513   */\n      dup3\n        /* \"#utility.yul\":2496:2505   */\n      dup10\n        /* \"#utility.yul\":2492:2514   */\n      add\n        /* \"#utility.yul\":2461:2524   */\n      tag_97\n      jump\t// in\n    tag_122:\n        /* \"#utility.yul\":2451:2524   */\n      swap5\n      pop\n        /* \"#utility.yul\":2246:2534   */\n      pop\n        /* \"#utility.yul\":2601:2603   */\n      0x40\n        /* \"#utility.yul\":2590:2599   */\n      dup7\n        /* \"#utility.yul\":2586:2604   */\n      add\n        /* \"#utility.yul\":2573:2605   */\n      calldataload\n        /* \"#utility.yul\":2632:2650   */\n      0xffffffffffffffff\n        /* \"#utility.yul\":2624:2630   */\n      dup2\n        /* \"#utility.yul\":2621:2651   */\n      gt\n        /* \"#utility.yul\":2618:2620   */\n      iszero\n      tag_123\n      jumpi\n        /* \"#utility.yul\":2654:2733   */\n      tag_124\n      tag_109\n      jump\t// in\n    tag_124:\n        /* \"#utility.yul\":2618:2620   */\n    tag_123:\n        /* \"#utility.yul\":2759:2822   */\n      tag_125\n        /* \"#utility.yul\":2814:2821   */\n      dup9\n        /* \"#utility.yul\":2805:2811   */\n      dup3\n        /* \"#utility.yul\":2794:2803   */\n      dup10\n        /* \"#utility.yul\":2790:2812   */\n      add\n        /* \"#utility.yul\":2759:2822   */\n      tag_97\n      jump\t// in\n    tag_125:\n        /* \"#utility.yul\":2749:2822   */\n      swap4\n      pop\n        /* \"#utility.yul\":2544:2832   */\n      pop\n        /* \"#utility.yul\":2899:2901   */\n      0x60\n        /* \"#utility.yul\":2888:2897   */\n      dup7\n        /* \"#utility.yul\":2884:2902   */\n      add\n        /* \"#utility.yul\":2871:2903   */\n      calldataload\n        /* \"#utility.yul\":2930:2948   */\n      0xffffffffffffffff\n        /* \"#utility.yul\":2922:2928   */\n      dup2\n        /* \"#utility.yul\":2919:2949   */\n      gt\n        /* \"#utility.yul\":2916:2918   */\n      iszero\n      tag_126\n      jumpi\n        /* \"#utility.yul\":2952:3031   */\n      tag_127\n      tag_109\n      jump\t// in\n    tag_127:\n        /* \"#utility.yul\":2916:2918   */\n    tag_126:\n        /* \"#utility.yul\":3057:3120   */\n      tag_128\n        /* \"#utility.yul\":3112:3119   */\n      dup9\n        /* \"#utility.yul\":3103:3109   */\n      dup3\n        /* \"#utility.yul\":3092:3101   */\n      dup10\n        /* \"#utility.yul\":3088:3110   */\n      add\n        /* \"#utility.yul\":3057:3120   */\n      tag_97\n      jump\t// in\n    tag_128:\n        /* \"#utility.yul\":3047:3120   */\n      swap3\n      pop\n        /* \"#utility.yul\":2842:3130   */\n      pop\n        /* \"#utility.yul\":3197:3200   */\n      0x80\n        /* \"#utility.yul\":3186:3195   */\n      dup7\n        /* \"#utility.yul\":3182:3201   */\n      add\n        /* \"#utility.yul\":3169:3202   */\n      calldataload\n        /* \"#utility.yul\":3229:3247   */\n      0xffffffffffffffff\n        /* \"#utility.yul\":3221:3227   */\n      dup2\n        /* \"#utility.yul\":3218:3248   */\n      gt\n        /* \"#utility.yul\":3215:3217   */\n      iszero\n      tag_129\n      jumpi\n        /* \"#utility.yul\":3251:3330   */\n      tag_130\n      tag_109\n      jump\t// in\n    tag_130:\n        /* \"#utility.yul\":3215:3217   */\n    tag_129:\n        /* \"#utility.yul\":3356:3419   */\n      tag_131\n        /* \"#utility.yul\":3411:3418   */\n      dup9\n        /* \"#utility.yul\":3402:3408   */\n      dup3\n        /* \"#utility.yul\":3391:3400   */\n      dup10\n        /* \"#utility.yul\":3387:3409   */\n      add\n        /* \"#utility.yul\":3356:3419   */\n      tag_97\n      jump\t// in\n    tag_131:\n        /* \"#utility.yul\":3346:3419   */\n      swap2\n      pop\n        /* \"#utility.yul\":3140:3429   */\n      pop\n        /* \"#utility.yul\":1809:3436   */\n      swap3\n      swap6\n      pop\n      swap3\n      swap6\n      swap1\n      swap4\n      pop\n      jump\t// out\n        /* \"#utility.yul\":3442:3560   */\n    tag_132:\n        /* \"#utility.yul\":3529:3553   */\n      tag_134\n        /* \"#utility.yul\":3547:3552   */\n      dup2\n        /* \"#utility.yul\":3529:3553   */\n      tag_135\n      jump\t// in\n    tag_134:\n        /* \"#utility.yul\":3524:3527   */\n      dup3\n        /* \"#utility.yul\":3517:3554   */\n      mstore\n        /* \"#utility.yul\":3507:3560   */\n      pop\n      pop\n      jump\t// out\n        /* \"#utility.yul\":3566:3930   */\n    tag_136:\n        /* \"#utility.yul\":3654:3657   */\n      0x00\n        /* \"#utility.yul\":3682:3721   */\n      tag_138\n        /* \"#utility.yul\":3715:3720   */\n      dup3\n        /* \"#utility.yul\":3682:3721   */\n      tag_139\n      jump\t// in\n    tag_138:\n        /* \"#utility.yul\":3737:3808   */\n      tag_140\n        /* \"#utility.yul\":3801:3807   */\n      dup2\n        /* \"#utility.yul\":3796:3799   */\n      dup6\n        /* \"#utility.yul\":3737:3808   */\n      tag_141\n      jump\t// in\n    tag_140:\n        /* \"#utility.yul\":3730:3808   */\n      swap4\n      pop\n        /* \"#utility.yul\":3817:3869   */\n      tag_142\n        /* \"#utility.yul\":3862:3868   */\n      dup2\n        /* \"#utility.yul\":3857:3860   */\n      dup6\n        /* \"#utility.yul\":3850:3854   */\n      0x20\n        /* \"#utility.yul\":3843:3848   */\n      dup7\n        /* \"#utility.yul\":3839:3855   */\n      add\n        /* \"#utility.yul\":3817:3869   */\n      tag_143\n      jump\t// in\n    tag_142:\n        /* \"#utility.yul\":3894:3923   */\n      tag_144\n        /* \"#utility.yul\":3916:3922   */\n      dup2\n        /* \"#utility.yul\":3894:3923   */\n      tag_145\n      jump\t// in\n    tag_144:\n        /* \"#utility.yul\":3889:3892   */\n      dup5\n        /* \"#utility.yul\":3885:3924   */\n      add\n        /* \"#utility.yul\":3878:3924   */\n      swap2\n      pop\n        /* \"#utility.yul\":3658:3930   */\n      pop\n      swap3\n      swap2\n      pop\n      pop\n      jump\t// out\n        /* \"#utility.yul\":3936:4302   */\n    tag_146:\n        /* \"#utility.yul\":4078:4081   */\n      0x00\n        /* \"#utility.yul\":4099:4166   */\n      tag_148\n        /* \"#utility.yul\":4163:4165   */\n      0x0b\n        /* \"#utility.yul\":4158:4161   */\n      dup4\n        /* \"#utility.yul\":4099:4166   */\n      tag_141\n      jump\t// in\n    tag_148:\n        /* \"#utility.yul\":4092:4166   */\n      swap2\n      pop\n        /* \"#utility.yul\":4175:4268   */\n      tag_149\n        /* \"#utility.yul\":4264:4267   */\n      dup3\n        /* \"#utility.yul\":4175:4268   */\n      tag_150\n      jump\t// in\n    tag_149:\n        /* \"#utility.yul\":4293:4295   */\n      0x20\n        /* \"#utility.yul\":4288:4291   */\n      dup3\n        /* \"#utility.yul\":4284:4296   */\n      add\n        /* \"#utility.yul\":4277:4296   */\n      swap1\n      pop\n        /* \"#utility.yul\":4082:4302   */\n      swap2\n      swap1\n      pop\n      jump\t// out\n        /* \"#utility.yul\":4308:4674   */\n    tag_151:\n        /* \"#utility.yul\":4450:4453   */\n      0x00\n        /* \"#utility.yul\":4471:4538   */\n      tag_153\n        /* \"#utility.yul\":4535:4537   */\n      0x17\n        /* \"#utility.yul\":4530:4533   */\n      dup4\n        /* \"#utility.yul\":4471:4538   */\n      tag_141\n      jump\t// in\n    tag_153:\n        /* \"#utility.yul\":4464:4538   */\n      swap2\n      pop\n        /* \"#utility.yul\":4547:4640   */\n      tag_154\n        /* \"#utility.yul\":4636:4639   */\n      dup3\n        /* \"#utility.yul\":4547:4640   */\n      tag_155\n      jump\t// in\n    tag_154:\n        /* \"#utility.yul\":4665:4667   */\n      0x20\n        /* \"#utility.yul\":4660:4663   */\n      dup3\n        /* \"#utility.yul\":4656:4668   */\n      add\n        /* \"#utility.yul\":4649:4668   */\n      swap1\n      pop\n        /* \"#utility.yul\":4454:4674   */\n      swap2\n      swap1\n      pop\n      jump\t// out\n        /* \"#utility.yul\":4680:5046   */\n    tag_156:\n        /* \"#utility.yul\":4822:4825   */\n      0x00\n        /* \"#utility.yul\":4843:4910   */\n      tag_158\n        /* \"#utility.yul\":4907:4909   */\n      0x2f\n        /* \"#utility.yul\":4902:4905   */\n      dup4\n        /* \"#utility.yul\":4843:4910   */\n      tag_141\n      jump\t// in\n    tag_158:\n        /* \"#utility.yul\":4836:4910   */\n      swap2\n      pop\n        /* \"#utility.yul\":4919:5012   */\n      tag_159\n        /* \"#utility.yul\":5008:5011   */\n      dup3\n        /* \"#utility.yul\":4919:5012   */\n      tag_160\n      jump\t// in\n    tag_159:\n        /* \"#utility.yul\":5037:5039   */\n      0x40\n        /* \"#utility.yul\":5032:5035   */\n      dup3\n        /* \"#utility.yul\":5028:5040   */\n      add\n        /* \"#utility.yul\":5021:5040   */\n      swap1\n      pop\n        /* \"#utility.yul\":4826:5046   */\n      swap2\n      swap1\n      pop\n      jump\t// out\n        /* \"#utility.yul\":5052:5170   */\n    tag_161:\n        /* \"#utility.yul\":5139:5163   */\n      tag_163\n        /* \"#utility.yul\":5157:5162   */\n      dup2\n        /* \"#utility.yul\":5139:5163   */\n      tag_164\n      jump\t// in\n    tag_163:\n        /* \"#utility.yul\":5134:5137   */\n      dup3\n        /* \"#utility.yul\":5127:5164   */\n      mstore\n        /* \"#utility.yul\":5117:5170   */\n      pop\n      pop\n      jump\t// out\n        /* \"#utility.yul\":5176:5398   */\n    tag_31:\n        /* \"#utility.yul\":5269:5273   */\n      0x00\n        /* \"#utility.yul\":5307:5309   */\n      0x20\n        /* \"#utility.yul\":5296:5305   */\n      dup3\n        /* \"#utility.yul\":5292:5310   */\n      add\n        /* \"#utility.yul\":5284:5310   */\n      swap1\n      pop\n        /* \"#utility.yul\":5320:5391   */\n      tag_166\n        /* \"#utility.yul\":5388:5389   */\n      0x00\n        /* \"#utility.yul\":5377:5386   */\n      dup4\n        /* \"#utility.yul\":5373:5390   */\n      add\n        /* \"#utility.yul\":5364:5370   */\n      dup5\n        /* \"#utility.yul\":5320:5391   */\n      tag_132\n      jump\t// in\n    tag_166:\n        /* \"#utility.yul\":5274:5398   */\n      swap3\n      swap2\n      pop\n      pop\n      jump\t// out\n        /* \"#utility.yul\":5404:5717   */\n    tag_24:\n        /* \"#utility.yul\":5517:5521   */\n      0x00\n        /* \"#utility.yul\":5555:5557   */\n      0x20\n        /* \"#utility.yul\":5544:5553   */\n      dup3\n        /* \"#utility.yul\":5540:5558   */\n      add\n        /* \"#utility.yul\":5532:5558   */\n      swap1\n      pop\n        /* \"#utility.yul\":5604:5613   */\n      dup2\n        /* \"#utility.yul\":5598:5602   */\n      dup2\n        /* \"#utility.yul\":5594:5614   */\n      sub\n        /* \"#utility.yul\":5590:5591   */\n      0x00\n        /* \"#utility.yul\":5579:5588   */\n      dup4\n        /* \"#utility.yul\":5575:5592   */\n      add\n        /* \"#utility.yul\":5568:5615   */\n      mstore\n        /* \"#utility.yul\":5632:5710   */\n      tag_168\n        /* \"#utility.yul\":5705:5709   */\n      dup2\n        /* \"#utility.yul\":5696:5702   */\n      dup5\n        /* \"#utility.yul\":5632:5710   */\n      tag_136\n      jump\t// in\n    tag_168:\n        /* \"#utility.yul\":5624:5710   */\n      swap1\n      pop\n        /* \"#utility.yul\":5522:5717   */\n      swap3\n      swap2\n      pop\n      pop\n      jump\t// out\n        /* \"#utility.yul\":5723:6142   */\n    tag_68:\n        /* \"#utility.yul\":5889:5893   */\n      0x00\n        /* \"#utility.yul\":5927:5929   */\n      0x20\n        /* \"#utility.yul\":5916:5925   */\n      dup3\n        /* \"#utility.yul\":5912:5930   */\n      add\n        /* \"#utility.yul\":5904:5930   */\n      swap1\n      pop\n        /* \"#utility.yul\":5976:5985   */\n      dup2\n        /* \"#utility.yul\":5970:5974   */\n      dup2\n        /* \"#utility.yul\":5966:5986   */\n      sub\n        /* \"#utility.yul\":5962:5963   */\n      0x00\n        /* \"#utility.yul\":5951:5960   */\n      dup4\n        /* \"#utility.yul\":5947:5964   */\n      add\n        /* \"#utility.yul\":5940:5987   */\n      mstore\n        /* \"#utility.yul\":6004:6135   */\n      tag_170\n        /* \"#utility.yul\":6130:6134   */\n      dup2\n        /* \"#utility.yul\":6004:6135   */\n      tag_146\n      jump\t// in\n    tag_170:\n        /* \"#utility.yul\":5996:6135   */\n      swap1\n      pop\n        /* \"#utility.yul\":5894:6142   */\n      swap2\n      swap1\n      pop\n      jump\t// out\n        /* \"#utility.yul\":6148:6567   */\n    tag_57:\n        /* \"#utility.yul\":6314:6318   */\n      0x00\n        /* \"#utility.yul\":6352:6354   */\n      0x20\n        /* \"#utility.yul\":6341:6350   */\n      dup3\n        /* \"#utility.yul\":6337:6355   */\n      add\n        /* \"#utility.yul\":6329:6355   */\n      swap1\n      pop\n        /* \"#utility.yul\":6401:6410   */\n      dup2\n        /* \"#utility.yul\":6395:6399   */\n      dup2\n        /* \"#utility.yul\":6391:6411   */\n      sub\n        /* \"#utility.yul\":6387:6388   */\n      0x00\n        /* \"#utility.yul\":6376:6385   */\n      dup4\n        /* \"#utility.yul\":6372:6389   */\n      add\n        /* \"#utility.yul\":6365:6412   */\n      mstore\n        /* \"#utility.yul\":6429:6560   */\n      tag_172\n        /* \"#utility.yul\":6555:6559   */\n      dup2\n        /* \"#utility.yul\":6429:6560   */\n      tag_151\n      jump\t// in\n    tag_172:\n        /* \"#utility.yul\":6421:6560   */\n      swap1\n      pop\n        /* \"#utility.yul\":6319:6567   */\n      swap2\n      swap1\n      pop\n      jump\t// out\n        /* \"#utility.yul\":6573:6992   */\n    tag_45:\n        /* \"#utility.yul\":6739:6743   */\n      0x00\n        /* \"#utility.yul\":6777:6779   */\n      0x20\n        /* \"#utility.yul\":6766:6775   */\n      dup3\n        /* \"#utility.yul\":6762:6780   */\n      add\n        /* \"#utility.yul\":6754:6780   */\n      swap1\n      pop\n        /* \"#utility.yul\":6826:6835   */\n      dup2\n        /* \"#utility.yul\":6820:6824   */\n      dup2\n        /* \"#utility.yul\":6816:6836   */\n      sub\n        /* \"#utility.yul\":6812:6813   */\n      0x00\n        /* \"#utility.yul\":6801:6810   */\n      dup4\n        /* \"#utility.yul\":6797:6814   */\n      add\n        /* \"#utility.yul\":6790:6837   */\n      mstore\n        /* \"#utility.yul\":6854:6985   */\n      tag_174\n        /* \"#utility.yul\":6980:6984   */\n      dup2\n        /* \"#utility.yul\":6854:6985   */\n      tag_156\n      jump\t// in\n    tag_174:\n        /* \"#utility.yul\":6846:6985   */\n      swap1\n      pop\n        /* \"#utility.yul\":6744:6992   */\n      swap2\n      swap1\n      pop\n      jump\t// out\n        /* \"#utility.yul\":6998:7220   */\n    tag_12:\n        /* \"#utility.yul\":7091:7095   */\n      0x00\n        /* \"#utility.yul\":7129:7131   */\n      0x20\n        /* \"#utility.yul\":7118:7127   */\n      dup3\n        /* \"#utility.yul\":7114:7132   */\n      add\n        /* \"#utility.yul\":7106:7132   */\n      swap1\n      pop\n        /* \"#utility.yul\":7142:7213   */\n      tag_176\n        /* \"#utility.yul\":7210:7211   */\n      0x00\n        /* \"#utility.yul\":7199:7208   */\n      dup4\n        /* \"#utility.yul\":7195:7212   */\n      add\n        /* \"#utility.yul\":7186:7192   */\n      dup5\n        /* \"#utility.yul\":7142:7213   */\n      tag_161\n      jump\t// in\n    tag_176:\n        /* \"#utility.yul\":7096:7220   */\n      swap3\n      swap2\n      pop\n      pop\n      jump\t// out\n        /* \"#utility.yul\":7226:7355   */\n    tag_91:\n        /* \"#utility.yul\":7260:7266   */\n      0x00\n        /* \"#utility.yul\":7287:7307   */\n      tag_178\n      tag_179\n      jump\t// in\n    tag_178:\n        /* \"#utility.yul\":7277:7307   */\n      swap1\n      pop\n        /* \"#utility.yul\":7316:7349   */\n      tag_180\n        /* \"#utility.yul\":7344:7348   */\n      dup3\n        /* \"#utility.yul\":7336:7342   */\n      dup3\n        /* \"#utility.yul\":7316:7349   */\n      tag_181\n      jump\t// in\n    tag_180:\n        /* \"#utility.yul\":7267:7355   */\n      swap2\n      swap1\n      pop\n      jump\t// out\n        /* \"#utility.yul\":7361:7436   */\n    tag_179:\n        /* \"#utility.yul\":7394:7400   */\n      0x00\n        /* \"#utility.yul\":7427:7429   */\n      0x40\n        /* \"#utility.yul\":7421:7430   */\n      mload\n        /* \"#utility.yul\":7411:7430   */\n      swap1\n      pop\n        /* \"#utility.yul\":7401:7436   */\n      swap1\n      jump\t// out\n        /* \"#utility.yul\":7442:7750   */\n    tag_90:\n        /* \"#utility.yul\":7504:7508   */\n      0x00\n        /* \"#utility.yul\":7594:7612   */\n      0xffffffffffffffff\n        /* \"#utility.yul\":7586:7592   */\n      dup3\n        /* \"#utility.yul\":7583:7613   */\n      gt\n        /* \"#utility.yul\":7580:7582   */\n      iszero\n      tag_184\n      jumpi\n        /* \"#utility.yul\":7616:7634   */\n      tag_185\n      tag_186\n      jump\t// in\n    tag_185:\n        /* \"#utility.yul\":7580:7582   */\n    tag_184:\n        /* \"#utility.yul\":7654:7683   */\n      tag_187\n        /* \"#utility.yul\":7676:7682   */\n      dup3\n        /* \"#utility.yul\":7654:7683   */\n      tag_145\n      jump\t// in\n    tag_187:\n        /* \"#utility.yul\":7646:7683   */\n      swap1\n      pop\n        /* \"#utility.yul\":7738:7742   */\n      0x20\n        /* \"#utility.yul\":7732:7736   */\n      dup2\n        /* \"#utility.yul\":7728:7743   */\n      add\n        /* \"#utility.yul\":7720:7743   */\n      swap1\n      pop\n        /* \"#utility.yul\":7509:7750   */\n      swap2\n      swap1\n      pop\n      jump\t// out\n        /* \"#utility.yul\":7756:7855   */\n    tag_139:\n        /* \"#utility.yul\":7808:7814   */\n      0x00\n        /* \"#utility.yul\":7842:7847   */\n      dup2\n        /* \"#utility.yul\":7836:7848   */\n      mload\n        /* \"#utility.yul\":7826:7848   */\n      swap1\n      pop\n        /* \"#utility.yul\":7815:7855   */\n      swap2\n      swap1\n      pop\n      jump\t// out\n        /* \"#utility.yul\":7861:8030   */\n    tag_141:\n        /* \"#utility.yul\":7945:7956   */\n      0x00\n        /* \"#utility.yul\":7979:7985   */\n      dup3\n        /* \"#utility.yul\":7974:7977   */\n      dup3\n        /* \"#utility.yul\":7967:7986   */\n      mstore\n        /* \"#utility.yul\":8019:8023   */\n      0x20\n        /* \"#utility.yul\":8014:8017   */\n      dup3\n        /* \"#utility.yul\":8010:8024   */\n      add\n        /* \"#utility.yul\":7995:8024   */\n      swap1\n      pop\n        /* \"#utility.yul\":7957:8030   */\n      swap3\n      swap2\n      pop\n      pop\n      jump\t// out\n        /* \"#utility.yul\":8036:8132   */\n    tag_135:\n        /* \"#utility.yul\":8073:8080   */\n      0x00\n        /* \"#utility.yul\":8102:8126   */\n      tag_191\n        /* \"#utility.yul\":8120:8125   */\n      dup3\n        /* \"#utility.yul\":8102:8126   */\n      tag_192\n      jump\t// in\n    tag_191:\n        /* \"#utility.yul\":8091:8126   */\n      swap1\n      pop\n        /* \"#utility.yul\":8081:8132   */\n      swap2\n      swap1\n      pop\n      jump\t// out\n        /* \"#utility.yul\":8138:8264   */\n    tag_192:\n        /* \"#utility.yul\":8175:8182   */\n      0x00\n        /* \"#utility.yul\":8215:8257   */\n      0xffffffffffffffffffffffffffffffffffffffff\n        /* \"#utility.yul\":8208:8213   */\n      dup3\n        /* \"#utility.yul\":8204:8258   */\n      and\n        /* \"#utility.yul\":8193:8258   */\n      swap1\n      pop\n        /* \"#utility.yul\":8183:8264   */\n      swap2\n      swap1\n      pop\n      jump\t// out\n        /* \"#utility.yul\":8270:8347   */\n    tag_164:\n        /* \"#utility.yul\":8307:8314   */\n      0x00\n        /* \"#utility.yul\":8336:8341   */\n      dup2\n        /* \"#utility.yul\":8325:8341   */\n      swap1\n      pop\n        /* \"#utility.yul\":8315:8347   */\n      swap2\n      swap1\n      pop\n      jump\t// out\n        /* \"#utility.yul\":8353:8507   */\n    tag_96:\n        /* \"#utility.yul\":8437:8443   */\n      dup3\n        /* \"#utility.yul\":8432:8435   */\n      dup2\n        /* \"#utility.yul\":8427:8430   */\n      dup4\n        /* \"#utility.yul\":8414:8444   */\n      calldatacopy\n        /* \"#utility.yul\":8499:8500   */\n      0x00\n        /* \"#utility.yul\":8490:8496   */\n      dup4\n        /* \"#utility.yul\":8485:8488   */\n      dup4\n        /* \"#utility.yul\":8481:8497   */\n      add\n        /* \"#utility.yul\":8474:8501   */\n      mstore\n        /* \"#utility.yul\":8404:8507   */\n      pop\n      pop\n      pop\n      jump\t// out\n        /* \"#utility.yul\":8513:8820   */\n    tag_143:\n        /* \"#utility.yul\":8581:8582   */\n      0x00\n        /* \"#utility.yul\":8591:8704   */\n    tag_197:\n        /* \"#utility.yul\":8605:8611   */\n      dup4\n        /* \"#utility.yul\":8602:8603   */\n      dup2\n        /* \"#utility.yul\":8599:8612   */\n      lt\n        /* \"#utility.yul\":8591:8704   */\n      iszero\n      tag_199\n      jumpi\n        /* \"#utility.yul\":8690:8691   */\n      dup1\n        /* \"#utility.yul\":8685:8688   */\n      dup3\n        /* \"#utility.yul\":8681:8692   */\n      add\n        /* \"#utility.yul\":8675:8693   */\n      mload\n        /* \"#utility.yul\":8671:8672   */\n      dup2\n        /* \"#utility.yul\":8666:8669   */\n      dup5\n        /* \"#utility.yul\":8662:8673   */\n      add\n        /* \"#utility.yul\":8655:8694   */\n      mstore\n        /* \"#utility.yul\":8627:8629   */\n      0x20\n        /* \"#utility.yul\":8624:8625   */\n      dup2\n        /* \"#utility.yul\":8620:8630   */\n      add\n        /* \"#utility.yul\":8615:8630   */\n      swap1\n      pop\n        /* \"#utility.yul\":8591:8704   */\n      jump(tag_197)\n    tag_199:\n        /* \"#utility.yul\":8722:8728   */\n      dup4\n        /* \"#utility.yul\":8719:8720   */\n      dup2\n        /* \"#utility.yul\":8716:8729   */\n      gt\n        /* \"#utility.yul\":8713:8715   */\n      iszero\n      tag_200\n      jumpi\n        /* \"#utility.yul\":8802:8803   */\n      0x00\n        /* \"#utility.yul\":8793:8799   */\n      dup5\n        /* \"#utility.yul\":8788:8791   */\n      dup5\n        /* \"#utility.yul\":8784:8800   */\n      add\n        /* \"#utility.yul\":8777:8804   */\n      mstore\n        /* \"#utility.yul\":8713:8715   */\n    tag_200:\n        /* \"#utility.yul\":8562:8820   */\n      pop\n      pop\n      pop\n      pop\n      jump\t// out\n        /* \"#utility.yul\":8826:9146   */\n    tag_35:\n        /* \"#utility.yul\":8870:8876   */\n      0x00\n        /* \"#utility.yul\":8907:8908   */\n      0x02\n        /* \"#utility.yul\":8901:8905   */\n      dup3\n        /* \"#utility.yul\":8897:8909   */\n      div\n        /* \"#utility.yul\":8887:8909   */\n      swap1\n      pop\n        /* \"#utility.yul\":8954:8955   */\n      0x01\n        /* \"#utility.yul\":8948:8952   */\n      dup3\n        /* \"#utility.yul\":8944:8956   */\n      and\n        /* \"#utility.yul\":8975:8993   */\n      dup1\n        /* \"#utility.yul\":8965:8967   */\n      tag_202\n      jumpi\n        /* \"#utility.yul\":9031:9035   */\n      0x7f\n        /* \"#utility.yul\":9023:9029   */\n      dup3\n        /* \"#utility.yul\":9019:9036   */\n      and\n        /* \"#utility.yul\":9009:9036   */\n      swap2\n      pop\n        /* \"#utility.yul\":8965:8967   */\n    tag_202:\n        /* \"#utility.yul\":9093:9095   */\n      0x20\n        /* \"#utility.yul\":9085:9091   */\n      dup3\n        /* \"#utility.yul\":9082:9096   */\n      lt\n        /* \"#utility.yul\":9062:9080   */\n      dup2\n        /* \"#utility.yul\":9059:9097   */\n      eq\n        /* \"#utility.yul\":9056:9058   */\n      iszero\n      tag_203\n      jumpi\n        /* \"#utility.yul\":9112:9130   */\n      tag_204\n      tag_205\n      jump\t// in\n    tag_204:\n        /* \"#utility.yul\":9056:9058   */\n    tag_203:\n        /* \"#utility.yul\":8877:9146   */\n      pop\n      swap2\n      swap1\n      pop\n      jump\t// out\n        /* \"#utility.yul\":9152:9433   */\n    tag_181:\n        /* \"#utility.yul\":9235:9262   */\n      tag_207\n        /* \"#utility.yul\":9257:9261   */\n      dup3\n        /* \"#utility.yul\":9235:9262   */\n      tag_145\n      jump\t// in\n    tag_207:\n        /* \"#utility.yul\":9227:9233   */\n      dup2\n        /* \"#utility.yul\":9223:9263   */\n      add\n        /* \"#utility.yul\":9365:9371   */\n      dup2\n        /* \"#utility.yul\":9353:9363   */\n      dup2\n        /* \"#utility.yul\":9350:9372   */\n      lt\n        /* \"#utility.yul\":9329:9347   */\n      0xffffffffffffffff\n        /* \"#utility.yul\":9317:9327   */\n      dup3\n        /* \"#utility.yul\":9314:9348   */\n      gt\n        /* \"#utility.yul\":9311:9373   */\n      or\n        /* \"#utility.yul\":9308:9310   */\n      iszero\n      tag_208\n      jumpi\n        /* \"#utility.yul\":9376:9394   */\n      tag_209\n      tag_186\n      jump\t// in\n    tag_209:\n        /* \"#utility.yul\":9308:9310   */\n    tag_208:\n        /* \"#utility.yul\":9416:9426   */\n      dup1\n        /* \"#utility.yul\":9412:9414   */\n      0x40\n        /* \"#utility.yul\":9405:9427   */\n      mstore\n        /* \"#utility.yul\":9195:9433   */\n      pop\n      pop\n      pop\n      jump\t// out\n        /* \"#utility.yul\":9439:9672   */\n    tag_54:\n        /* \"#utility.yul\":9478:9481   */\n      0x00\n        /* \"#utility.yul\":9501:9525   */\n      tag_211\n        /* \"#utility.yul\":9519:9524   */\n      dup3\n        /* \"#utility.yul\":9501:9525   */\n      tag_164\n      jump\t// in\n    tag_211:\n        /* \"#utility.yul\":9492:9525   */\n      swap2\n      pop\n        /* \"#utility.yul\":9547:9613   */\n      0xffffffffffffffffffffffffffffffffffffffffffffffffffffffffffffffff\n        /* \"#utility.yul\":9540:9545   */\n      dup3\n        /* \"#utility.yul\":9537:9614   */\n      eq\n        /* \"#utility.yul\":9534:9536   */\n      iszero\n      tag_212\n      jumpi\n        /* \"#utility.yul\":9617:9635   */\n      tag_213\n      tag_214\n      jump\t// in\n    tag_213:\n        /* \"#utility.yul\":9534:9536   */\n    tag_212:\n        /* \"#utility.yul\":9664:9665   */\n      0x01\n        /* \"#utility.yul\":9657:9662   */\n      dup3\n        /* \"#utility.yul\":9653:9666   */\n      add\n        /* \"#utility.yul\":9646:9666   */\n      swap1\n      pop\n        /* \"#utility.yul\":9482:9672   */\n      swap2\n      swap1\n      pop\n      jump\t// out\n        /* \"#utility.yul\":9678:9858   */\n    tag_214:\n        /* \"#utility.yul\":9726:9803   */\n      0x4e487b7100000000000000000000000000000000000000000000000000000000\n        /* \"#utility.yul\":9723:9724   */\n      0x00\n        /* \"#utility.yul\":9716:9804   */\n      mstore\n        /* \"#utility.yul\":9823:9827   */\n      0x11\n        /* \"#utility.yul\":9820:9821   */\n      0x04\n        /* \"#utility.yul\":9813:9828   */\n      mstore\n        /* \"#utility.yul\":9847:9851   */\n      0x24\n        /* \"#utility.yul\":9844:9845   */\n      0x00\n        /* \"#utility.yul\":9837:9852   */\n      revert\n        /* \"#utility.yul\":9864:10044   */\n    tag_205:\n        /* \"#utility.yul\":9912:9989   */\n      0x4e487b7100000000000000000000000000000000000000000000000000000000\n        /* \"#utility.yul\":9909:9910   */\n      0x00\n        /* \"#utility.yul\":9902:9990   */\n      mstore\n        /* \"#utility.yul\":10009:10013   */\n      0x22\n        /* \"#utility.yul\":10006:10007   */\n      0x04\n        /* \"#utility.yul\":9999:10014   */\n      mstore\n        /* \"#utility.yul\":10033:10037   */\n      0x24\n        /* \"#utility.yul\":10030:10031   */\n      0x00\n        /* \"#utility.yul\":10023:10038   */\n      revert\n        /* \"#utility.yul\":10050:10230   */\n    tag_186:\n        /* \"#utility.yul\":10098:10175   */\n      0x4e487b7100000000000000000000000000000000000000000000000000000000\n        /* \"#utility.yul\":10095:10096   */\n      0x00\n        /* \"#utility.yul\":10088:10176   */\n      mstore\n        /* \"#utility.yul\":10195:10199   */\n      0x41\n        /* \"#utility.yul\":10192:10193   */\n      0x04\n        /* \"#utility.yul\":10185:10200   */\n      mstore\n        /* \"#utility.yul\":10219:10223   */\n      0x24\n        /* \"#utility.yul\":10216:10217   */\n      0x00\n        /* \"#utility.yul\":10209:10224   */\n      revert\n        /* \"#utility.yul\":10236:10353   */\n    tag_101:\n        /* \"#utility.yul\":10345:10346   */\n      0x00\n        /* \"#utility.yul\":10342:10343   */\n      dup1\n        /* \"#utility.yul\":10335:10347   */\n      revert\n        /* \"#utility.yul\":10359:10476   */\n    tag_94:\n        /* \"#utility.yul\":10468:10469   */\n      0x00\n        /* \"#utility.yul\":10465:10466   */\n      dup1\n        /* \"#utility.yul\":10458:10470   */\n      revert\n        /* \"#utility.yul\":10482:10599   */\n    tag_109:\n        /* \"#utility.yul\":10591:10592   */\n      0x00\n        /* \"#utility.yul\":10588:10589   */\n      dup1\n        /* \"#utility.yul\":10581:10593   */\n      revert\n        /* \"#utility.yul\":10605:10722   */\n    tag_106:\n        /* \"#utility.yul\":10714:10715   */\n      0x00\n        /* \"#utility.yul\":10711:10712   */\n      dup1\n        /* \"#utility.yul\":10704:10716   */\n      revert\n        /* \"#utility.yul\":10728:10830   */\n    tag_145:\n        /* \"#utility.yul\":10769:10775   */\n      0x00\n        /* \"#utility.yul\":10820:10822   */\n      0x1f\n        /* \"#utility.yul\":10816:10823   */\n      not\n        /* \"#utility.yul\":10811:10813   */\n      0x1f\n        /* \"#utility.yul\":10804:10809   */\n      dup4\n        /* \"#utility.yul\":10800:10814   */\n      add\n        /* \"#utility.yul\":10796:10824   */\n      and\n        /* \"#utility.yul\":10786:10824   */\n      swap1\n      pop\n        /* \"#utility.yul\":10776:10830   */\n      swap2\n      swap1\n      pop\n      jump\t// out\n        /* \"#utility.yul\":10836:10997   */\n    tag_150:\n        /* \"#utility.yul\":10976:10989   */\n      0x4e6f7420616c6c6f776564000000000000000000000000000000000000000000\n        /* \"#utility.yul\":10972:10973   */\n      0x00\n        /* \"#utility.yul\":10964:10970   */\n      dup3\n        /* \"#utility.yul\":10960:10974   */\n      add\n        /* \"#utility.yul\":10953:10990   */\n      mstore\n        /* \"#utility.yul\":10942:10997   */\n      pop\n      jump\t// out\n        /* \"#utility.yul\":11003:11176   */\n    tag_155:\n        /* \"#utility.yul\":11143:11168   */\n      0x5375636365737366756c6c792052656769737465726564000000000000000000\n        /* \"#utility.yul\":11139:11140   */\n      0x00\n        /* \"#utility.yul\":11131:11137   */\n      dup3\n        /* \"#utility.yul\":11127:11141   */\n      add\n        /* \"#utility.yul\":11120:11169   */\n      mstore\n        /* \"#utility.yul\":11109:11176   */\n      pop\n      jump\t// out\n        /* \"#utility.yul\":11182:11416   */\n    tag_160:\n        /* \"#utility.yul\":11322:11356   */\n      0x5573657220646f65736e6f742065786973742021212052656769737465722061\n        /* \"#utility.yul\":11318:11319   */\n      0x00\n        /* \"#utility.yul\":11310:11316   */\n      dup3\n        /* \"#utility.yul\":11306:11320   */\n      add\n        /* \"#utility.yul\":11299:11357   */\n      mstore\n        /* \"#utility.yul\":11391:11408   */\n      0x6e642074727920616761696e2021210000000000000000000000000000000000\n        /* \"#utility.yul\":11386:11388   */\n      0x20\n        /* \"#utility.yul\":11378:11384   */\n      dup3\n        /* \"#utility.yul\":11374:11389   */\n      add\n        /* \"#utility.yul\":11367:11409   */\n      mstore\n        /* \"#utility.yul\":11288:11416   */\n      pop\n      jump\t// out\n\n    auxdata: 0xa264697066735822122032ce7533f0d71e8400561af4804e2862728c56eb0a28cafd31677192d792b6bd64736f6c63430008060033\n}\n",
				"bytecode": {
					"linkReferences": {},
					"object": "608060405234801561001057600080fd5b5060008081905550610f78806100276000396000f3fe608060405234801561001057600080fd5b50600436106100625760003560e01c8063126793231461006757806358467dbc146100855780635a09007b146100a1578063681f3e6d146100bd578063c127ae41146100db578063ebc3eee8146100f9575b600080fd5b61006f610117565b60405161007c9190610c38565b60405180910390f35b61009f600480360381019061009a919061095c565b61011d565b005b6100bb60048036038101906100b691906109d4565b61029f565b005b6100c561056b565b6040516100d29190610bb6565b60405180910390f35b6100e361063d565b6040516100f09190610bb6565b60405180910390f35b6101016107df565b60405161010e9190610b9b565b60405180910390f35b60005481565b600061012761056b565b90506000600160003373ffffffffffffffffffffffffffffffffffffffff1673ffffffffffffffffffffffffffffffffffffffff168152602001908152602001600020600301805461017890610d43565b80601f01602080910402602001604051908101604052809291908181526020018280546101a490610d43565b80156101f15780601f106101c6576101008083540402835291602001916101f1565b820191906000526020600020905b8154815290600101906020018083116101d457829003601f168201915b5050505050905083805190602001208280519060200120148015610222575082805190602001208180519060200120145b15610263577f05c766d1c5ea6f40afc38cd8e27308c236c492fbcfa32b458d2755cf76ec1e21846040516102569190610bb6565b60405180910390a1610299565b7f05c766d1c5ea6f40afc38cd8e27308c236c492fbcfa32b458d2755cf76ec1e2160405161029090610c18565b60405180910390a15b50505050565b84600160003373ffffffffffffffffffffffffffffffffffffffff1673ffffffffffffffffffffffffffffffffffffffff16815260200190815260200160002060000190805190602001906102f5929190610849565b5083600160003373ffffffffffffffffffffffffffffffffffffffff1673ffffffffffffffffffffffffffffffffffffffff168152602001908152602001600020600101908051906020019061034c929190610849565b5033600160003373ffffffffffffffffffffffffffffffffffffffff1673ffffffffffffffffffffffffffffffffffffffff16815260200190815260200160002060050160006101000a81548173ffffffffffffffffffffffffffffffffffffffff021916908373ffffffffffffffffffffffffffffffffffffffff16021790555082600160003373ffffffffffffffffffffffffffffffffffffffff1673ffffffffffffffffffffffffffffffffffffffff1681526020019081526020016000206002019080519060200190610424929190610849565b5081600160003373ffffffffffffffffffffffffffffffffffffffff1673ffffffffffffffffffffffffffffffffffffffff168152602001908152602001600020600301908051906020019061047b929190610849565b5080600160003373ffffffffffffffffffffffffffffffffffffffff1673ffffffffffffffffffffffffffffffffffffffff16815260200190815260200160002060040190805190602001906104d2929190610849565b506000808154809291906104e590610da6565b919050555060016000541461052f576040517f08c379a000000000000000000000000000000000000000000000000000000000815260040161052690610bf8565b60405180910390fd5b7f05c766d1c5ea6f40afc38cd8e27308c236c492fbcfa32b458d2755cf76ec1e2160405161055c90610bf8565b60405180910390a15050505050565b6060600160003373ffffffffffffffffffffffffffffffffffffffff1673ffffffffffffffffffffffffffffffffffffffff16815260200190815260200160002060020180546105ba90610d43565b80601f01602080910402602001604051908101604052809291908181526020018280546105e690610d43565b80156106335780601f1061060857610100808354040283529160200191610633565b820191906000526020600020905b81548152906001019060200180831161061657829003601f168201915b5050505050905090565b6060600160003373ffffffffffffffffffffffffffffffffffffffff1673ffffffffffffffffffffffffffffffffffffffff16815260200190815260200160002060050160009054906101000a900473ffffffffffffffffffffffffffffffffffffffff1673ffffffffffffffffffffffffffffffffffffffff163373ffffffffffffffffffffffffffffffffffffffff161461070f576040517f08c379a000000000000000000000000000000000000000000000000000000000815260040161070690610bd8565b60405180910390fd5b600160003373ffffffffffffffffffffffffffffffffffffffff1673ffffffffffffffffffffffffffffffffffffffff168152602001908152602001600020600001805461075c90610d43565b80601f016020809104026020016040519081016040528092919081815260200182805461078890610d43565b80156107d55780601f106107aa576101008083540402835291602001916107d5565b820191906000526020600020905b8154815290600101906020018083116107b857829003601f168201915b5050505050905090565b6000600160003373ffffffffffffffffffffffffffffffffffffffff1673ffffffffffffffffffffffffffffffffffffffff16815260200190815260200160002060050160009054906101000a900473ffffffffffffffffffffffffffffffffffffffff16905090565b82805461085590610d43565b90600052602060002090601f01602090048101928261087757600085556108be565b82601f1061089057805160ff19168380011785556108be565b828001600101855582156108be579182015b828111156108bd5782518255916020019190600101906108a2565b5b5090506108cb91906108cf565b5090565b5b808211156108e85760008160009055506001016108d0565b5090565b60006108ff6108fa84610c78565b610c53565b90508281526020810184848401111561091b5761091a610e81565b5b610926848285610d01565b509392505050565b600082601f83011261094357610942610e7c565b5b81356109538482602086016108ec565b91505092915050565b6000806040838503121561097357610972610e8b565b5b600083013567ffffffffffffffff81111561099157610990610e86565b5b61099d8582860161092e565b925050602083013567ffffffffffffffff8111156109be576109bd610e86565b5b6109ca8582860161092e565b9150509250929050565b600080600080600060a086880312156109f0576109ef610e8b565b5b600086013567ffffffffffffffff811115610a0e57610a0d610e86565b5b610a1a8882890161092e565b955050602086013567ffffffffffffffff811115610a3b57610a3a610e86565b5b610a478882890161092e565b945050604086013567ffffffffffffffff811115610a6857610a67610e86565b5b610a748882890161092e565b935050606086013567ffffffffffffffff811115610a9557610a94610e86565b5b610aa18882890161092e565b925050608086013567ffffffffffffffff811115610ac257610ac1610e86565b5b610ace8882890161092e565b9150509295509295909350565b610ae481610cc5565b82525050565b6000610af582610ca9565b610aff8185610cb4565b9350610b0f818560208601610d10565b610b1881610e90565b840191505092915050565b6000610b30600b83610cb4565b9150610b3b82610ea1565b602082019050919050565b6000610b53601783610cb4565b9150610b5e82610eca565b602082019050919050565b6000610b76602f83610cb4565b9150610b8182610ef3565b604082019050919050565b610b9581610cf7565b82525050565b6000602082019050610bb06000830184610adb565b92915050565b60006020820190508181036000830152610bd08184610aea565b905092915050565b60006020820190508181036000830152610bf181610b23565b9050919050565b60006020820190508181036000830152610c1181610b46565b9050919050565b60006020820190508181036000830152610c3181610b69565b9050919050565b6000602082019050610c4d6000830184610b8c565b92915050565b6000610c5d610c6e565b9050610c698282610d75565b919050565b6000604051905090565b600067ffffffffffffffff821115610c9357610c92610e4d565b5b610c9c82610e90565b9050602081019050919050565b600081519050919050565b600082825260208201905092915050565b6000610cd082610cd7565b9050919050565b600073ffffffffffffffffffffffffffffffffffffffff82169050919050565b6000819050919050565b82818337600083830152505050565b60005b83811015610d2e578082015181840152602081019050610d13565b83811115610d3d576000848401525b50505050565b60006002820490506001821680610d5b57607f821691505b60208210811415610d6f57610d6e610e1e565b5b50919050565b610d7e82610e90565b810181811067ffffffffffffffff82111715610d9d57610d9c610e4d565b5b80604052505050565b6000610db182610cf7565b91507fffffffffffffffffffffffffffffffffffffffffffffffffffffffffffffffff821415610de457610de3610def565b5b600182019050919050565b7f4e487b7100000000000000000000000000000000000000000000000000000000600052601160045260246000fd5b7f4e487b7100000000000000000000000000000000000000000000000000000000600052602260045260246000fd5b7f4e487b7100000000000000000000000000000000000000000000000000000000600052604160045260246000fd5b600080fd5b600080fd5b600080fd5b600080fd5b6000601f19601f8301169050919050565b7f4e6f7420616c6c6f776564000000000000000000000000000000000000000000600082015250565b7f5375636365737366756c6c792052656769737465726564000000000000000000600082015250565b7f5573657220646f65736e6f74206578697374202121205265676973746572206160008201527f6e642074727920616761696e202121000000000000000000000000000000000060208201525056fea264697066735822122032ce7533f0d71e8400561af4804e2862728c56eb0a28cafd31677192d792b6bd64736f6c63430008060033",
					"opcodes": "PUSH1 0x80 PUSH1 0x40 MSTORE CALLVALUE DUP1 ISZERO PUSH2 0x10 JUMPI PUSH1 0x0 DUP1 REVERT JUMPDEST POP PUSH1 0x0 DUP1 DUP2 SWAP1 SSTORE POP PUSH2 0xF78 DUP1 PUSH2 0x27 PUSH1 0x0 CODECOPY PUSH1 0x0 RETURN INVALID PUSH1 0x80 PUSH1 0x40 MSTORE CALLVALUE DUP1 ISZERO PUSH2 0x10 JUMPI PUSH1 0x0 DUP1 REVERT JUMPDEST POP PUSH1 0x4 CALLDATASIZE LT PUSH2 0x62 JUMPI PUSH1 0x0 CALLDATALOAD PUSH1 0xE0 SHR DUP1 PUSH4 0x12679323 EQ PUSH2 0x67 JUMPI DUP1 PUSH4 0x58467DBC EQ PUSH2 0x85 JUMPI DUP1 PUSH4 0x5A09007B EQ PUSH2 0xA1 JUMPI DUP1 PUSH4 0x681F3E6D EQ PUSH2 0xBD JUMPI DUP1 PUSH4 0xC127AE41 EQ PUSH2 0xDB JUMPI DUP1 PUSH4 0xEBC3EEE8 EQ PUSH2 0xF9 JUMPI JUMPDEST PUSH1 0x0 DUP1 REVERT JUMPDEST PUSH2 0x6F PUSH2 0x117 JUMP JUMPDEST PUSH1 0x40 MLOAD PUSH2 0x7C SWAP2 SWAP1 PUSH2 0xC38 JUMP JUMPDEST PUSH1 0x40 MLOAD DUP1 SWAP2 SUB SWAP1 RETURN JUMPDEST PUSH2 0x9F PUSH1 0x4 DUP1 CALLDATASIZE SUB DUP2 ADD SWAP1 PUSH2 0x9A SWAP2 SWAP1 PUSH2 0x95C JUMP JUMPDEST PUSH2 0x11D JUMP JUMPDEST STOP JUMPDEST PUSH2 0xBB PUSH1 0x4 DUP1 CALLDATASIZE SUB DUP2 ADD SWAP1 PUSH2 0xB6 SWAP2 SWAP1 PUSH2 0x9D4 JUMP JUMPDEST PUSH2 0x29F JUMP JUMPDEST STOP JUMPDEST PUSH2 0xC5 PUSH2 0x56B JUMP JUMPDEST PUSH1 0x40 MLOAD PUSH2 0xD2 SWAP2 SWAP1 PUSH2 0xBB6 JUMP JUMPDEST PUSH1 0x40 MLOAD DUP1 SWAP2 SUB SWAP1 RETURN JUMPDEST PUSH2 0xE3 PUSH2 0x63D JUMP JUMPDEST PUSH1 0x40 MLOAD PUSH2 0xF0 SWAP2 SWAP1 PUSH2 0xBB6 JUMP JUMPDEST PUSH1 0x40 MLOAD DUP1 SWAP2 SUB SWAP1 RETURN JUMPDEST PUSH2 0x101 PUSH2 0x7DF JUMP JUMPDEST PUSH1 0x40 MLOAD PUSH2 0x10E SWAP2 SWAP1 PUSH2 0xB9B JUMP JUMPDEST PUSH1 0x40 MLOAD DUP1 SWAP2 SUB SWAP1 RETURN JUMPDEST PUSH1 0x0 SLOAD DUP2 JUMP JUMPDEST PUSH1 0x0 PUSH2 0x127 PUSH2 0x56B JUMP JUMPDEST SWAP1 POP PUSH1 0x0 PUSH1 0x1 PUSH1 0x0 CALLER PUSH20 0xFFFFFFFFFFFFFFFFFFFFFFFFFFFFFFFFFFFFFFFF AND PUSH20 0xFFFFFFFFFFFFFFFFFFFFFFFFFFFFFFFFFFFFFFFF AND DUP2 MSTORE PUSH1 0x20 ADD SWAP1 DUP2 MSTORE PUSH1 0x20 ADD PUSH1 0x0 KECCAK256 PUSH1 0x3 ADD DUP1 SLOAD PUSH2 0x178 SWAP1 PUSH2 0xD43 JUMP JUMPDEST DUP1 PUSH1 0x1F ADD PUSH1 0x20 DUP1 SWAP2 DIV MUL PUSH1 0x20 ADD PUSH1 0x40 MLOAD SWAP1 DUP2 ADD PUSH1 0x40 MSTORE DUP1 SWAP3 SWAP2 SWAP1 DUP2 DUP2 MSTORE PUSH1 0x20 ADD DUP3 DUP1 SLOAD PUSH2 0x1A4 SWAP1 PUSH2 0xD43 JUMP JUMPDEST DUP1 ISZERO PUSH2 0x1F1 JUMPI DUP1 PUSH1 0x1F LT PUSH2 0x1C6 JUMPI PUSH2 0x100 DUP1 DUP4 SLOAD DIV MUL DUP4 MSTORE SWAP2 PUSH1 0x20 ADD SWAP2 PUSH2 0x1F1 JUMP JUMPDEST DUP3 ADD SWAP2 SWAP1 PUSH1 0x0 MSTORE PUSH1 0x20 PUSH1 0x0 KECCAK256 SWAP1 JUMPDEST DUP2 SLOAD DUP2 MSTORE SWAP1 PUSH1 0x1 ADD SWAP1 PUSH1 0x20 ADD DUP1 DUP4 GT PUSH2 0x1D4 JUMPI DUP3 SWAP1 SUB PUSH1 0x1F AND DUP3 ADD SWAP2 JUMPDEST POP POP POP POP POP SWAP1 POP DUP4 DUP1 MLOAD SWAP1 PUSH1 0x20 ADD KECCAK256 DUP3 DUP1 MLOAD SWAP1 PUSH1 0x20 ADD KECCAK256 EQ DUP1 ISZERO PUSH2 0x222 JUMPI POP DUP3 DUP1 MLOAD SWAP1 PUSH1 0x20 ADD KECCAK256 DUP2 DUP1 MLOAD SWAP1 PUSH1 0x20 ADD KECCAK256 EQ JUMPDEST ISZERO PUSH2 0x263 JUMPI PUSH32 0x5C766D1C5EA6F40AFC38CD8E27308C236C492FBCFA32B458D2755CF76EC1E21 DUP5 PUSH1 0x40 MLOAD PUSH2 0x256 SWAP2 SWAP1 PUSH2 0xBB6 JUMP JUMPDEST PUSH1 0x40 MLOAD DUP1 SWAP2 SUB SWAP1 LOG1 PUSH2 0x299 JUMP JUMPDEST PUSH32 0x5C766D1C5EA6F40AFC38CD8E27308C236C492FBCFA32B458D2755CF76EC1E21 PUSH1 0x40 MLOAD PUSH2 0x290 SWAP1 PUSH2 0xC18 JUMP JUMPDEST PUSH1 0x40 MLOAD DUP1 SWAP2 SUB SWAP1 LOG1 JUMPDEST POP POP POP POP JUMP JUMPDEST DUP5 PUSH1 0x1 PUSH1 0x0 CALLER PUSH20 0xFFFFFFFFFFFFFFFFFFFFFFFFFFFFFFFFFFFFFFFF AND PUSH20 0xFFFFFFFFFFFFFFFFFFFFFFFFFFFFFFFFFFFFFFFF AND DUP2 MSTORE PUSH1 0x20 ADD SWAP1 DUP2 MSTORE PUSH1 0x20 ADD PUSH1 0x0 KECCAK256 PUSH1 0x0 ADD SWAP1 DUP1 MLOAD SWAP1 PUSH1 0x20 ADD SWAP1 PUSH2 0x2F5 SWAP3 SWAP2 SWAP1 PUSH2 0x849 JUMP JUMPDEST POP DUP4 PUSH1 0x1 PUSH1 0x0 CALLER PUSH20 0xFFFFFFFFFFFFFFFFFFFFFFFFFFFFFFFFFFFFFFFF AND PUSH20 0xFFFFFFFFFFFFFFFFFFFFFFFFFFFFFFFFFFFFFFFF AND DUP2 MSTORE PUSH1 0x20 ADD SWAP1 DUP2 MSTORE PUSH1 0x20 ADD PUSH1 0x0 KECCAK256 PUSH1 0x1 ADD SWAP1 DUP1 MLOAD SWAP1 PUSH1 0x20 ADD SWAP1 PUSH2 0x34C SWAP3 SWAP2 SWAP1 PUSH2 0x849 JUMP JUMPDEST POP CALLER PUSH1 0x1 PUSH1 0x0 CALLER PUSH20 0xFFFFFFFFFFFFFFFFFFFFFFFFFFFFFFFFFFFFFFFF AND PUSH20 0xFFFFFFFFFFFFFFFFFFFFFFFFFFFFFFFFFFFFFFFF AND DUP2 MSTORE PUSH1 0x20 ADD SWAP1 DUP2 MSTORE PUSH1 0x20 ADD PUSH1 0x0 KECCAK256 PUSH1 0x5 ADD PUSH1 0x0 PUSH2 0x100 EXP DUP2 SLOAD DUP2 PUSH20 0xFFFFFFFFFFFFFFFFFFFFFFFFFFFFFFFFFFFFFFFF MUL NOT AND SWAP1 DUP4 PUSH20 0xFFFFFFFFFFFFFFFFFFFFFFFFFFFFFFFFFFFFFFFF AND MUL OR SWAP1 SSTORE POP DUP3 PUSH1 0x1 PUSH1 0x0 CALLER PUSH20 0xFFFFFFFFFFFFFFFFFFFFFFFFFFFFFFFFFFFFFFFF AND PUSH20 0xFFFFFFFFFFFFFFFFFFFFFFFFFFFFFFFFFFFFFFFF AND DUP2 MSTORE PUSH1 0x20 ADD SWAP1 DUP2 MSTORE PUSH1 0x20 ADD PUSH1 0x0 KECCAK256 PUSH1 0x2 ADD SWAP1 DUP1 MLOAD SWAP1 PUSH1 0x20 ADD SWAP1 PUSH2 0x424 SWAP3 SWAP2 SWAP1 PUSH2 0x849 JUMP JUMPDEST POP DUP2 PUSH1 0x1 PUSH1 0x0 CALLER PUSH20 0xFFFFFFFFFFFFFFFFFFFFFFFFFFFFFFFFFFFFFFFF AND PUSH20 0xFFFFFFFFFFFFFFFFFFFFFFFFFFFFFFFFFFFFFFFF AND DUP2 MSTORE PUSH1 0x20 ADD SWAP1 DUP2 MSTORE PUSH1 0x20 ADD PUSH1 0x0 KECCAK256 PUSH1 0x3 ADD SWAP1 DUP1 MLOAD SWAP1 PUSH1 0x20 ADD SWAP1 PUSH2 0x47B SWAP3 SWAP2 SWAP1 PUSH2 0x849 JUMP JUMPDEST POP DUP1 PUSH1 0x1 PUSH1 0x0 CALLER PUSH20 0xFFFFFFFFFFFFFFFFFFFFFFFFFFFFFFFFFFFFFFFF AND PUSH20 0xFFFFFFFFFFFFFFFFFFFFFFFFFFFFFFFFFFFFFFFF AND DUP2 MSTORE PUSH1 0x20 ADD SWAP1 DUP2 MSTORE PUSH1 0x20 ADD PUSH1 0x0 KECCAK256 PUSH1 0x4 ADD SWAP1 DUP1 MLOAD SWAP1 PUSH1 0x20 ADD SWAP1 PUSH2 0x4D2 SWAP3 SWAP2 SWAP1 PUSH2 0x849 JUMP JUMPDEST POP PUSH1 0x0 DUP1 DUP2 SLOAD DUP1 SWAP3 SWAP2 SWAP1 PUSH2 0x4E5 SWAP1 PUSH2 0xDA6 JUMP JUMPDEST SWAP2 SWAP1 POP SSTORE POP PUSH1 0x1 PUSH1 0x0 SLOAD EQ PUSH2 0x52F JUMPI PUSH1 0x40 MLOAD PUSH32 0x8C379A000000000000000000000000000000000000000000000000000000000 DUP2 MSTORE PUSH1 0x4 ADD PUSH2 0x526 SWAP1 PUSH2 0xBF8 JUMP JUMPDEST PUSH1 0x40 MLOAD DUP1 SWAP2 SUB SWAP1 REVERT JUMPDEST PUSH32 0x5C766D1C5EA6F40AFC38CD8E27308C236C492FBCFA32B458D2755CF76EC1E21 PUSH1 0x40 MLOAD PUSH2 0x55C SWAP1 PUSH2 0xBF8 JUMP JUMPDEST PUSH1 0x40 MLOAD DUP1 SWAP2 SUB SWAP1 LOG1 POP POP POP POP POP JUMP JUMPDEST PUSH1 0x60 PUSH1 0x1 PUSH1 0x0 CALLER PUSH20 0xFFFFFFFFFFFFFFFFFFFFFFFFFFFFFFFFFFFFFFFF AND PUSH20 0xFFFFFFFFFFFFFFFFFFFFFFFFFFFFFFFFFFFFFFFF AND DUP2 MSTORE PUSH1 0x20 ADD SWAP1 DUP2 MSTORE PUSH1 0x20 ADD PUSH1 0x0 KECCAK256 PUSH1 0x2 ADD DUP1 SLOAD PUSH2 0x5BA SWAP1 PUSH2 0xD43 JUMP JUMPDEST DUP1 PUSH1 0x1F ADD PUSH1 0x20 DUP1 SWAP2 DIV MUL PUSH1 0x20 ADD PUSH1 0x40 MLOAD SWAP1 DUP2 ADD PUSH1 0x40 MSTORE DUP1 SWAP3 SWAP2 SWAP1 DUP2 DUP2 MSTORE PUSH1 0x20 ADD DUP3 DUP1 SLOAD PUSH2 0x5E6 SWAP1 PUSH2 0xD43 JUMP JUMPDEST DUP1 ISZERO PUSH2 0x633 JUMPI DUP1 PUSH1 0x1F LT PUSH2 0x608 JUMPI PUSH2 0x100 DUP1 DUP4 SLOAD DIV MUL DUP4 MSTORE SWAP2 PUSH1 0x20 ADD SWAP2 PUSH2 0x633 JUMP JUMPDEST DUP3 ADD SWAP2 SWAP1 PUSH1 0x0 MSTORE PUSH1 0x20 PUSH1 0x0 KECCAK256 SWAP1 JUMPDEST DUP2 SLOAD DUP2 MSTORE SWAP1 PUSH1 0x1 ADD SWAP1 PUSH1 0x20 ADD DUP1 DUP4 GT PUSH2 0x616 JUMPI DUP3 SWAP1 SUB PUSH1 0x1F AND DUP3 ADD SWAP2 JUMPDEST POP POP POP POP POP SWAP1 POP SWAP1 JUMP JUMPDEST PUSH1 0x60 PUSH1 0x1 PUSH1 0x0 CALLER PUSH20 0xFFFFFFFFFFFFFFFFFFFFFFFFFFFFFFFFFFFFFFFF AND PUSH20 0xFFFFFFFFFFFFFFFFFFFFFFFFFFFFFFFFFFFFFFFF AND DUP2 MSTORE PUSH1 0x20 ADD SWAP1 DUP2 MSTORE PUSH1 0x20 ADD PUSH1 0x0 KECCAK256 PUSH1 0x5 ADD PUSH1 0x0 SWAP1 SLOAD SWAP1 PUSH2 0x100 EXP SWAP1 DIV PUSH20 0xFFFFFFFFFFFFFFFFFFFFFFFFFFFFFFFFFFFFFFFF AND PUSH20 0xFFFFFFFFFFFFFFFFFFFFFFFFFFFFFFFFFFFFFFFF AND CALLER PUSH20 0xFFFFFFFFFFFFFFFFFFFFFFFFFFFFFFFFFFFFFFFF AND EQ PUSH2 0x70F JUMPI PUSH1 0x40 MLOAD PUSH32 0x8C379A000000000000000000000000000000000000000000000000000000000 DUP2 MSTORE PUSH1 0x4 ADD PUSH2 0x706 SWAP1 PUSH2 0xBD8 JUMP JUMPDEST PUSH1 0x40 MLOAD DUP1 SWAP2 SUB SWAP1 REVERT JUMPDEST PUSH1 0x1 PUSH1 0x0 CALLER PUSH20 0xFFFFFFFFFFFFFFFFFFFFFFFFFFFFFFFFFFFFFFFF AND PUSH20 0xFFFFFFFFFFFFFFFFFFFFFFFFFFFFFFFFFFFFFFFF AND DUP2 MSTORE PUSH1 0x20 ADD SWAP1 DUP2 MSTORE PUSH1 0x20 ADD PUSH1 0x0 KECCAK256 PUSH1 0x0 ADD DUP1 SLOAD PUSH2 0x75C SWAP1 PUSH2 0xD43 JUMP JUMPDEST DUP1 PUSH1 0x1F ADD PUSH1 0x20 DUP1 SWAP2 DIV MUL PUSH1 0x20 ADD PUSH1 0x40 MLOAD SWAP1 DUP2 ADD PUSH1 0x40 MSTORE DUP1 SWAP3 SWAP2 SWAP1 DUP2 DUP2 MSTORE PUSH1 0x20 ADD DUP3 DUP1 SLOAD PUSH2 0x788 SWAP1 PUSH2 0xD43 JUMP JUMPDEST DUP1 ISZERO PUSH2 0x7D5 JUMPI DUP1 PUSH1 0x1F LT PUSH2 0x7AA JUMPI PUSH2 0x100 DUP1 DUP4 SLOAD DIV MUL DUP4 MSTORE SWAP2 PUSH1 0x20 ADD SWAP2 PUSH2 0x7D5 JUMP JUMPDEST DUP3 ADD SWAP2 SWAP1 PUSH1 0x0 MSTORE PUSH1 0x20 PUSH1 0x0 KECCAK256 SWAP1 JUMPDEST DUP2 SLOAD DUP2 MSTORE SWAP1 PUSH1 0x1 ADD SWAP1 PUSH1 0x20 ADD DUP1 DUP4 GT PUSH2 0x7B8 JUMPI DUP3 SWAP1 SUB PUSH1 0x1F AND DUP3 ADD SWAP2 JUMPDEST POP POP POP POP POP SWAP1 POP SWAP1 JUMP JUMPDEST PUSH1 0x0 PUSH1 0x1 PUSH1 0x0 CALLER PUSH20 0xFFFFFFFFFFFFFFFFFFFFFFFFFFFFFFFFFFFFFFFF AND PUSH20 0xFFFFFFFFFFFFFFFFFFFFFFFFFFFFFFFFFFFFFFFF AND DUP2 MSTORE PUSH1 0x20 ADD SWAP1 DUP2 MSTORE PUSH1 0x20 ADD PUSH1 0x0 KECCAK256 PUSH1 0x5 ADD PUSH1 0x0 SWAP1 SLOAD SWAP1 PUSH2 0x100 EXP SWAP1 DIV PUSH20 0xFFFFFFFFFFFFFFFFFFFFFFFFFFFFFFFFFFFFFFFF AND SWAP1 POP SWAP1 JUMP JUMPDEST DUP3 DUP1 SLOAD PUSH2 0x855 SWAP1 PUSH2 0xD43 JUMP JUMPDEST SWAP1 PUSH1 0x0 MSTORE PUSH1 0x20 PUSH1 0x0 KECCAK256 SWAP1 PUSH1 0x1F ADD PUSH1 0x20 SWAP1 DIV DUP2 ADD SWAP3 DUP3 PUSH2 0x877 JUMPI PUSH1 0x0 DUP6 SSTORE PUSH2 0x8BE JUMP JUMPDEST DUP3 PUSH1 0x1F LT PUSH2 0x890 JUMPI DUP1 MLOAD PUSH1 0xFF NOT AND DUP4 DUP1 ADD OR DUP6 SSTORE PUSH2 0x8BE JUMP JUMPDEST DUP3 DUP1 ADD PUSH1 0x1 ADD DUP6 SSTORE DUP3 ISZERO PUSH2 0x8BE JUMPI SWAP2 DUP3 ADD JUMPDEST DUP3 DUP2 GT ISZERO PUSH2 0x8BD JUMPI DUP3 MLOAD DUP3 SSTORE SWAP2 PUSH1 0x20 ADD SWAP2 SWAP1 PUSH1 0x1 ADD SWAP1 PUSH2 0x8A2 JUMP JUMPDEST JUMPDEST POP SWAP1 POP PUSH2 0x8CB SWAP2 SWAP1 PUSH2 0x8CF JUMP JUMPDEST POP SWAP1 JUMP JUMPDEST JUMPDEST DUP1 DUP3 GT ISZERO PUSH2 0x8E8 JUMPI PUSH1 0x0 DUP2 PUSH1 0x0 SWAP1 SSTORE POP PUSH1 0x1 ADD PUSH2 0x8D0 JUMP JUMPDEST POP SWAP1 JUMP JUMPDEST PUSH1 0x0 PUSH2 0x8FF PUSH2 0x8FA DUP5 PUSH2 0xC78 JUMP JUMPDEST PUSH2 0xC53 JUMP JUMPDEST SWAP1 POP DUP3 DUP2 MSTORE PUSH1 0x20 DUP2 ADD DUP5 DUP5 DUP5 ADD GT ISZERO PUSH2 0x91B JUMPI PUSH2 0x91A PUSH2 0xE81 JUMP JUMPDEST JUMPDEST PUSH2 0x926 DUP5 DUP3 DUP6 PUSH2 0xD01 JUMP JUMPDEST POP SWAP4 SWAP3 POP POP POP JUMP JUMPDEST PUSH1 0x0 DUP3 PUSH1 0x1F DUP4 ADD SLT PUSH2 0x943 JUMPI PUSH2 0x942 PUSH2 0xE7C JUMP JUMPDEST JUMPDEST DUP2 CALLDATALOAD PUSH2 0x953 DUP5 DUP3 PUSH1 0x20 DUP7 ADD PUSH2 0x8EC JUMP JUMPDEST SWAP2 POP POP SWAP3 SWAP2 POP POP JUMP JUMPDEST PUSH1 0x0 DUP1 PUSH1 0x40 DUP4 DUP6 SUB SLT ISZERO PUSH2 0x973 JUMPI PUSH2 0x972 PUSH2 0xE8B JUMP JUMPDEST JUMPDEST PUSH1 0x0 DUP4 ADD CALLDATALOAD PUSH8 0xFFFFFFFFFFFFFFFF DUP2 GT ISZERO PUSH2 0x991 JUMPI PUSH2 0x990 PUSH2 0xE86 JUMP JUMPDEST JUMPDEST PUSH2 0x99D DUP6 DUP3 DUP7 ADD PUSH2 0x92E JUMP JUMPDEST SWAP3 POP POP PUSH1 0x20 DUP4 ADD CALLDATALOAD PUSH8 0xFFFFFFFFFFFFFFFF DUP2 GT ISZERO PUSH2 0x9BE JUMPI PUSH2 0x9BD PUSH2 0xE86 JUMP JUMPDEST JUMPDEST PUSH2 0x9CA DUP6 DUP3 DUP7 ADD PUSH2 0x92E JUMP JUMPDEST SWAP2 POP POP SWAP3 POP SWAP3 SWAP1 POP JUMP JUMPDEST PUSH1 0x0 DUP1 PUSH1 0x0 DUP1 PUSH1 0x0 PUSH1 0xA0 DUP7 DUP9 SUB SLT ISZERO PUSH2 0x9F0 JUMPI PUSH2 0x9EF PUSH2 0xE8B JUMP JUMPDEST JUMPDEST PUSH1 0x0 DUP7 ADD CALLDATALOAD PUSH8 0xFFFFFFFFFFFFFFFF DUP2 GT ISZERO PUSH2 0xA0E JUMPI PUSH2 0xA0D PUSH2 0xE86 JUMP JUMPDEST JUMPDEST PUSH2 0xA1A DUP9 DUP3 DUP10 ADD PUSH2 0x92E JUMP JUMPDEST SWAP6 POP POP PUSH1 0x20 DUP7 ADD CALLDATALOAD PUSH8 0xFFFFFFFFFFFFFFFF DUP2 GT ISZERO PUSH2 0xA3B JUMPI PUSH2 0xA3A PUSH2 0xE86 JUMP JUMPDEST JUMPDEST PUSH2 0xA47 DUP9 DUP3 DUP10 ADD PUSH2 0x92E JUMP JUMPDEST SWAP5 POP POP PUSH1 0x40 DUP7 ADD CALLDATALOAD PUSH8 0xFFFFFFFFFFFFFFFF DUP2 GT ISZERO PUSH2 0xA68 JUMPI PUSH2 0xA67 PUSH2 0xE86 JUMP JUMPDEST JUMPDEST PUSH2 0xA74 DUP9 DUP3 DUP10 ADD PUSH2 0x92E JUMP JUMPDEST SWAP4 POP POP PUSH1 0x60 DUP7 ADD CALLDATALOAD PUSH8 0xFFFFFFFFFFFFFFFF DUP2 GT ISZERO PUSH2 0xA95 JUMPI PUSH2 0xA94 PUSH2 0xE86 JUMP JUMPDEST JUMPDEST PUSH2 0xAA1 DUP9 DUP3 DUP10 ADD PUSH2 0x92E JUMP JUMPDEST SWAP3 POP POP PUSH1 0x80 DUP7 ADD CALLDATALOAD PUSH8 0xFFFFFFFFFFFFFFFF DUP2 GT ISZERO PUSH2 0xAC2 JUMPI PUSH2 0xAC1 PUSH2 0xE86 JUMP JUMPDEST JUMPDEST PUSH2 0xACE DUP9 DUP3 DUP10 ADD PUSH2 0x92E JUMP JUMPDEST SWAP2 POP POP SWAP3 SWAP6 POP SWAP3 SWAP6 SWAP1 SWAP4 POP JUMP JUMPDEST PUSH2 0xAE4 DUP2 PUSH2 0xCC5 JUMP JUMPDEST DUP3 MSTORE POP POP JUMP JUMPDEST PUSH1 0x0 PUSH2 0xAF5 DUP3 PUSH2 0xCA9 JUMP JUMPDEST PUSH2 0xAFF DUP2 DUP6 PUSH2 0xCB4 JUMP JUMPDEST SWAP4 POP PUSH2 0xB0F DUP2 DUP6 PUSH1 0x20 DUP7 ADD PUSH2 0xD10 JUMP JUMPDEST PUSH2 0xB18 DUP2 PUSH2 0xE90 JUMP JUMPDEST DUP5 ADD SWAP2 POP POP SWAP3 SWAP2 POP POP JUMP JUMPDEST PUSH1 0x0 PUSH2 0xB30 PUSH1 0xB DUP4 PUSH2 0xCB4 JUMP JUMPDEST SWAP2 POP PUSH2 0xB3B DUP3 PUSH2 0xEA1 JUMP JUMPDEST PUSH1 0x20 DUP3 ADD SWAP1 POP SWAP2 SWAP1 POP JUMP JUMPDEST PUSH1 0x0 PUSH2 0xB53 PUSH1 0x17 DUP4 PUSH2 0xCB4 JUMP JUMPDEST SWAP2 POP PUSH2 0xB5E DUP3 PUSH2 0xECA JUMP JUMPDEST PUSH1 0x20 DUP3 ADD SWAP1 POP SWAP2 SWAP1 POP JUMP JUMPDEST PUSH1 0x0 PUSH2 0xB76 PUSH1 0x2F DUP4 PUSH2 0xCB4 JUMP JUMPDEST SWAP2 POP PUSH2 0xB81 DUP3 PUSH2 0xEF3 JUMP JUMPDEST PUSH1 0x40 DUP3 ADD SWAP1 POP SWAP2 SWAP1 POP JUMP JUMPDEST PUSH2 0xB95 DUP2 PUSH2 0xCF7 JUMP JUMPDEST DUP3 MSTORE POP POP JUMP JUMPDEST PUSH1 0x0 PUSH1 0x20 DUP3 ADD SWAP1 POP PUSH2 0xBB0 PUSH1 0x0 DUP4 ADD DUP5 PUSH2 0xADB JUMP JUMPDEST SWAP3 SWAP2 POP POP JUMP JUMPDEST PUSH1 0x0 PUSH1 0x20 DUP3 ADD SWAP1 POP DUP2 DUP2 SUB PUSH1 0x0 DUP4 ADD MSTORE PUSH2 0xBD0 DUP2 DUP5 PUSH2 0xAEA JUMP JUMPDEST SWAP1 POP SWAP3 SWAP2 POP POP JUMP JUMPDEST PUSH1 0x0 PUSH1 0x20 DUP3 ADD SWAP1 POP DUP2 DUP2 SUB PUSH1 0x0 DUP4 ADD MSTORE PUSH2 0xBF1 DUP2 PUSH2 0xB23 JUMP JUMPDEST SWAP1 POP SWAP2 SWAP1 POP JUMP JUMPDEST PUSH1 0x0 PUSH1 0x20 DUP3 ADD SWAP1 POP DUP2 DUP2 SUB PUSH1 0x0 DUP4 ADD MSTORE PUSH2 0xC11 DUP2 PUSH2 0xB46 JUMP JUMPDEST SWAP1 POP SWAP2 SWAP1 POP JUMP JUMPDEST PUSH1 0x0 PUSH1 0x20 DUP3 ADD SWAP1 POP DUP2 DUP2 SUB PUSH1 0x0 DUP4 ADD MSTORE PUSH2 0xC31 DUP2 PUSH2 0xB69 JUMP JUMPDEST SWAP1 POP SWAP2 SWAP1 POP JUMP JUMPDEST PUSH1 0x0 PUSH1 0x20 DUP3 ADD SWAP1 POP PUSH2 0xC4D PUSH1 0x0 DUP4 ADD DUP5 PUSH2 0xB8C JUMP JUMPDEST SWAP3 SWAP2 POP POP JUMP JUMPDEST PUSH1 0x0 PUSH2 0xC5D PUSH2 0xC6E JUMP JUMPDEST SWAP1 POP PUSH2 0xC69 DUP3 DUP3 PUSH2 0xD75 JUMP JUMPDEST SWAP2 SWAP1 POP JUMP JUMPDEST PUSH1 0x0 PUSH1 0x40 MLOAD SWAP1 POP SWAP1 JUMP JUMPDEST PUSH1 0x0 PUSH8 0xFFFFFFFFFFFFFFFF DUP3 GT ISZERO PUSH2 0xC93 JUMPI PUSH2 0xC92 PUSH2 0xE4D JUMP JUMPDEST JUMPDEST PUSH2 0xC9C DUP3 PUSH2 0xE90 JUMP JUMPDEST SWAP1 POP PUSH1 0x20 DUP2 ADD SWAP1 POP SWAP2 SWAP1 POP JUMP JUMPDEST PUSH1 0x0 DUP2 MLOAD SWAP1 POP SWAP2 SWAP1 POP JUMP JUMPDEST PUSH1 0x0 DUP3 DUP3 MSTORE PUSH1 0x20 DUP3 ADD SWAP1 POP SWAP3 SWAP2 POP POP JUMP JUMPDEST PUSH1 0x0 PUSH2 0xCD0 DUP3 PUSH2 0xCD7 JUMP JUMPDEST SWAP1 POP SWAP2 SWAP1 POP JUMP JUMPDEST PUSH1 0x0 PUSH20 0xFFFFFFFFFFFFFFFFFFFFFFFFFFFFFFFFFFFFFFFF DUP3 AND SWAP1 POP SWAP2 SWAP1 POP JUMP JUMPDEST PUSH1 0x0 DUP2 SWAP1 POP SWAP2 SWAP1 POP JUMP JUMPDEST DUP3 DUP2 DUP4 CALLDATACOPY PUSH1 0x0 DUP4 DUP4 ADD MSTORE POP POP POP JUMP JUMPDEST PUSH1 0x0 JUMPDEST DUP4 DUP2 LT ISZERO PUSH2 0xD2E JUMPI DUP1 DUP3 ADD MLOAD DUP2 DUP5 ADD MSTORE PUSH1 0x20 DUP2 ADD SWAP1 POP PUSH2 0xD13 JUMP JUMPDEST DUP4 DUP2 GT ISZERO PUSH2 0xD3D JUMPI PUSH1 0x0 DUP5 DUP5 ADD MSTORE JUMPDEST POP POP POP POP JUMP JUMPDEST PUSH1 0x0 PUSH1 0x2 DUP3 DIV SWAP1 POP PUSH1 0x1 DUP3 AND DUP1 PUSH2 0xD5B JUMPI PUSH1 0x7F DUP3 AND SWAP2 POP JUMPDEST PUSH1 0x20 DUP3 LT DUP2 EQ ISZERO PUSH2 0xD6F JUMPI PUSH2 0xD6E PUSH2 0xE1E JUMP JUMPDEST JUMPDEST POP SWAP2 SWAP1 POP JUMP JUMPDEST PUSH2 0xD7E DUP3 PUSH2 0xE90 JUMP JUMPDEST DUP2 ADD DUP2 DUP2 LT PUSH8 0xFFFFFFFFFFFFFFFF DUP3 GT OR ISZERO PUSH2 0xD9D JUMPI PUSH2 0xD9C PUSH2 0xE4D JUMP JUMPDEST JUMPDEST DUP1 PUSH1 0x40 MSTORE POP POP POP JUMP JUMPDEST PUSH1 0x0 PUSH2 0xDB1 DUP3 PUSH2 0xCF7 JUMP JUMPDEST SWAP2 POP PUSH32 0xFFFFFFFFFFFFFFFFFFFFFFFFFFFFFFFFFFFFFFFFFFFFFFFFFFFFFFFFFFFFFFFF DUP3 EQ ISZERO PUSH2 0xDE4 JUMPI PUSH2 0xDE3 PUSH2 0xDEF JUMP JUMPDEST JUMPDEST PUSH1 0x1 DUP3 ADD SWAP1 POP SWAP2 SWAP1 POP JUMP JUMPDEST PUSH32 0x4E487B7100000000000000000000000000000000000000000000000000000000 PUSH1 0x0 MSTORE PUSH1 0x11 PUSH1 0x4 MSTORE PUSH1 0x24 PUSH1 0x0 REVERT JUMPDEST PUSH32 0x4E487B7100000000000000000000000000000000000000000000000000000000 PUSH1 0x0 MSTORE PUSH1 0x22 PUSH1 0x4 MSTORE PUSH1 0x24 PUSH1 0x0 REVERT JUMPDEST PUSH32 0x4E487B7100000000000000000000000000000000000000000000000000000000 PUSH1 0x0 MSTORE PUSH1 0x41 PUSH1 0x4 MSTORE PUSH1 0x24 PUSH1 0x0 REVERT JUMPDEST PUSH1 0x0 DUP1 REVERT JUMPDEST PUSH1 0x0 DUP1 REVERT JUMPDEST PUSH1 0x0 DUP1 REVERT JUMPDEST PUSH1 0x0 DUP1 REVERT JUMPDEST PUSH1 0x0 PUSH1 0x1F NOT PUSH1 0x1F DUP4 ADD AND SWAP1 POP SWAP2 SWAP1 POP JUMP JUMPDEST PUSH32 0x4E6F7420616C6C6F776564000000000000000000000000000000000000000000 PUSH1 0x0 DUP3 ADD MSTORE POP JUMP JUMPDEST PUSH32 0x5375636365737366756C6C792052656769737465726564000000000000000000 PUSH1 0x0 DUP3 ADD MSTORE POP JUMP JUMPDEST PUSH32 0x5573657220646F65736E6F742065786973742021212052656769737465722061 PUSH1 0x0 DUP3 ADD MSTORE PUSH32 0x6E642074727920616761696E2021210000000000000000000000000000000000 PUSH1 0x20 DUP3 ADD MSTORE POP JUMP INVALID LOG2 PUSH5 0x6970667358 0x22 SLT KECCAK256 ORIGIN 0xCE PUSH22 0x33F0D71E8400561AF4804E2862728C56EB0A28CAFD31 PUSH8 0x7192D792B6BD6473 PUSH16 0x6C634300080600330000000000000000 "
				},
				"gasEstimates": {
					"creation": {
						"codeDepositCost": "792000",
						"executionCost": "5839",
						"totalCost": "797839"
					},
					"external": {
						"getSignatureHash()": "infinite",
						"getUserAddress()": "2705",
						"getUsername()": "infinite",
						"login(string,string)": "infinite",
						"nbOfUsers()": "2407",
						"register(string,string,string,string,string)": "infinite"
					}
				},
				"methodIdentifiers": {
					"getSignatureHash()": "c127ae41",
					"getUserAddress()": "ebc3eee8",
					"getUsername()": "681f3e6d",
					"login(string,string)": "58467dbc",
					"nbOfUsers()": "12679323",
					"register(string,string,string,string,string)": "5a09007b"
				}
			},
			"userdoc": {
				"kind": "user",
				"methods": {},
				"version": 1
			}
		}
	}
}