{
	"data": {
		"bytecode": {
			"linkReferences": {},
			"object": "608060405234801561001057600080fd5b5060008081905550611e22806100276000396000f3fe608060405234801561001057600080fd5b50600436106100935760003560e01c80635a09007b116100665780635a09007b1461014a578063681f3e6d1461017a578063b4bfc3a514610198578063c127ae41146101c8578063ebc3eee8146101e657610093565b8063107046bd1461009857806312679323146100cc5780633162a709146100ea57806358467dbc1461011a575b600080fd5b6100b260048036038101906100ad919061146f565b610204565b6040516100c3959493929190611576565b60405180910390f35b6100d461048a565b6040516100e191906115f4565b60405180910390f35b61010460048036038101906100ff9190611744565b610490565b6040516101119190611933565b60405180910390f35b610134600480360381019061012f9190611955565b6107b8565b60405161014191906119cd565b60405180910390f35b610164600480360381019061015f91906119ef565b6108f2565b60405161017191906119cd565b60405180910390f35b610182610c57565b60405161018f91906119cd565b60405180910390f35b6101b260048036038101906101ad9190611af6565b610d29565b6040516101bf91906119cd565b60405180910390f35b6101d06110e9565b6040516101dd91906119cd565b60405180910390f35b6101ee61128b565b6040516101fb9190611bcd565b60405180910390f35b6003818154811061021457600080fd5b906000526020600020906005020160009150905080600001805461023790611c17565b80601f016020809104026020016040519081016040528092919081815260200182805461026390611c17565b80156102b05780601f10610285576101008083540402835291602001916102b0565b820191906000526020600020905b81548152906001019060200180831161029357829003601f168201915b5050505050908060010180546102c590611c17565b80601f01602080910402602001604051908101604052809291908181526020018280546102f190611c17565b801561033e5780601f106103135761010080835404028352916020019161033e565b820191906000526020600020905b81548152906001019060200180831161032157829003601f168201915b50505050509080600201805461035390611c17565b80601f016020809104026020016040519081016040528092919081815260200182805461037f90611c17565b80156103cc5780601f106103a1576101008083540402835291602001916103cc565b820191906000526020600020905b8154815290600101906020018083116103af57829003601f168201915b5050505050908060030180546103e190611c17565b80601f016020809104026020016040519081016040528092919081815260200182805461040d90611c17565b801561045a5780601f1061042f5761010080835404028352916020019161045a565b820191906000526020600020905b81548152906001019060200180831161043d57829003601f168201915b5050505050908060040160009054906101000a900473ffffffffffffffffffffffffffffffffffffffff16905085565b60005481565b6060600061049c610c57565b905082805190602001208180519060200120036107b1576003805480602002602001604051908101604052809291908181526020016000905b828210156107a557838290600052602060002090600502016040518060a001604052908160008201805461050890611c17565b80601f016020809104026020016040519081016040528092919081815260200182805461053490611c17565b80156105815780601f1061055657610100808354040283529160200191610581565b820191906000526020600020905b81548152906001019060200180831161056457829003601f168201915b5050505050815260200160018201805461059a90611c17565b80601f01602080910402602001604051908101604052809291908181526020018280546105c690611c17565b80156106135780601f106105e857610100808354040283529160200191610613565b820191906000526020600020905b8154815290600101906020018083116105f657829003601f168201915b5050505050815260200160028201805461062c90611c17565b80601f016020809104026020016040519081016040528092919081815260200182805461065890611c17565b80156106a55780601f1061067a576101008083540402835291602001916106a5565b820191906000526020600020905b81548152906001019060200180831161068857829003601f168201915b505050505081526020016003820180546106be90611c17565b80601f01602080910402602001604051908101604052809291908181526020018280546106ea90611c17565b80156107375780601f1061070c57610100808354040283529160200191610737565b820191906000526020600020905b81548152906001019060200180831161071a57829003601f168201915b505050505081526020016004820160009054906101000a900473ffffffffffffffffffffffffffffffffffffffff1673ffffffffffffffffffffffffffffffffffffffff1673ffffffffffffffffffffffffffffffffffffffff1681525050815260200190600101906104d5565b505050509150506107b3565b505b919050565b606060006107c4610c57565b90506000600160003373ffffffffffffffffffffffffffffffffffffffff1673ffffffffffffffffffffffffffffffffffffffff168152602001908152602001600020600301805461081590611c17565b80601f016020809104026020016040519081016040528092919081815260200182805461084190611c17565b801561088e5780601f106108635761010080835404028352916020019161088e565b820191906000526020600020905b81548152906001019060200180831161087157829003601f168201915b50505050509050848051906020012082805190602001201480156108bf575083805190602001208180519060200120145b156108ce5784925050506108ec565b6040518060600160405280602f8152602001611dbe602f9139925050505b92915050565b60606108fc61128b565b73ffffffffffffffffffffffffffffffffffffffff16600160003373ffffffffffffffffffffffffffffffffffffffff1673ffffffffffffffffffffffffffffffffffffffff16815260200190815260200160002060050160009054906101000a900473ffffffffffffffffffffffffffffffffffffffff1673ffffffffffffffffffffffffffffffffffffffff16146109cb576040517f08c379a00000000000000000000000000000000000000000000000000000000081526004016109c290611cba565b60405180910390fd5b85600160003373ffffffffffffffffffffffffffffffffffffffff1673ffffffffffffffffffffffffffffffffffffffff1681526020019081526020016000206000019080519060200190610a219291906112f5565b5084600160003373ffffffffffffffffffffffffffffffffffffffff1673ffffffffffffffffffffffffffffffffffffffff1681526020019081526020016000206001019080519060200190610a789291906112f5565b5033600160003373ffffffffffffffffffffffffffffffffffffffff1673ffffffffffffffffffffffffffffffffffffffff16815260200190815260200160002060050160006101000a81548173ffffffffffffffffffffffffffffffffffffffff021916908373ffffffffffffffffffffffffffffffffffffffff16021790555083600160003373ffffffffffffffffffffffffffffffffffffffff1673ffffffffffffffffffffffffffffffffffffffff1681526020019081526020016000206002019080519060200190610b509291906112f5565b5082600160003373ffffffffffffffffffffffffffffffffffffffff1673ffffffffffffffffffffffffffffffffffffffff1681526020019081526020016000206003019080519060200190610ba79291906112f5565b5081600160003373ffffffffffffffffffffffffffffffffffffffff1673ffffffffffffffffffffffffffffffffffffffff1681526020019081526020016000206004019080519060200190610bfe9291906112f5565b50600080815480929190610c1190611d09565b91905055506040518060400160405280601781526020017f5375636365737366756c6c792052656769737465726564000000000000000000815250905095945050505050565b6060600160003373ffffffffffffffffffffffffffffffffffffffff1673ffffffffffffffffffffffffffffffffffffffff1681526020019081526020016000206002018054610ca690611c17565b80601f0160208091040260200160405190810160405280929190818152602001828054610cd290611c17565b8015610d1f5780601f10610cf457610100808354040283529160200191610d1f565b820191906000526020600020905b815481529060010190602001808311610d0257829003601f168201915b5050505050905090565b60606000610d35610c57565b51146110a85784600260003373ffffffffffffffffffffffffffffffffffffffff1673ffffffffffffffffffffffffffffffffffffffff1681526020019081526020016000206000019080519060200190610d919291906112f5565b5083600260003373ffffffffffffffffffffffffffffffffffffffff1673ffffffffffffffffffffffffffffffffffffffff1681526020019081526020016000206001019080519060200190610de89291906112f5565b5082600260003373ffffffffffffffffffffffffffffffffffffffff1673ffffffffffffffffffffffffffffffffffffffff1681526020019081526020016000206002019080519060200190610e3f9291906112f5565b5081600260003373ffffffffffffffffffffffffffffffffffffffff1673ffffffffffffffffffffffffffffffffffffffff1681526020019081526020016000206003019080519060200190610e969291906112f5565b5033600260003373ffffffffffffffffffffffffffffffffffffffff1673ffffffffffffffffffffffffffffffffffffffff16815260200190815260200160002060040160006101000a81548173ffffffffffffffffffffffffffffffffffffffff021916908373ffffffffffffffffffffffffffffffffffffffff1602179055506003600260003373ffffffffffffffffffffffffffffffffffffffff1673ffffffffffffffffffffffffffffffffffffffff16815260200190815260200160002090806001815401808255809150506001900390600052602060002090600502016000909190919091506000820181600001908054610f9690611c17565b610fa192919061137b565b506001820181600101908054610fb690611c17565b610fc192919061137b565b506002820181600201908054610fd690611c17565b610fe192919061137b565b506003820181600301908054610ff690611c17565b61100192919061137b565b506004820160009054906101000a900473ffffffffffffffffffffffffffffffffffffffff168160040160006101000a81548173ffffffffffffffffffffffffffffffffffffffff021916908373ffffffffffffffffffffffffffffffffffffffff16021790555050506040518060400160405280601a81526020017f50726f6a656374205361766564205375636365737366756c6c7900000000000081525090506110e1565b6040518060400160405280601481526020017f4572726f7220536176696e672050726f6a65637400000000000000000000000081525090505b949350505050565b6060600160003373ffffffffffffffffffffffffffffffffffffffff1673ffffffffffffffffffffffffffffffffffffffff16815260200190815260200160002060050160009054906101000a900473ffffffffffffffffffffffffffffffffffffffff1673ffffffffffffffffffffffffffffffffffffffff163373ffffffffffffffffffffffffffffffffffffffff16146111bb576040517f08c379a00000000000000000000000000000000000000000000000000000000081526004016111b290611d9d565b60405180910390fd5b600160003373ffffffffffffffffffffffffffffffffffffffff1673ffffffffffffffffffffffffffffffffffffffff168152602001908152602001600020600001805461120890611c17565b80601f016020809104026020016040519081016040528092919081815260200182805461123490611c17565b80156112815780601f1061125657610100808354040283529160200191611281565b820191906000526020600020905b81548152906001019060200180831161126457829003601f168201915b5050505050905090565b6000600160003373ffffffffffffffffffffffffffffffffffffffff1673ffffffffffffffffffffffffffffffffffffffff16815260200190815260200160002060050160009054906101000a900473ffffffffffffffffffffffffffffffffffffffff16905090565b82805461130190611c17565b90600052602060002090601f016020900481019282611323576000855561136a565b82601f1061133c57805160ff191683800117855561136a565b8280016001018555821561136a579182015b8281111561136957825182559160200191906001019061134e565b5b5090506113779190611408565b5090565b82805461138790611c17565b90600052602060002090601f0160209004810192826113a957600085556113f7565b82601f106113ba57805485556113f7565b828001600101855582156113f757600052602060002091601f016020900482015b828111156113f65782548255916001019190600101906113db565b5b5090506114049190611408565b5090565b5b80821115611421576000816000905550600101611409565b5090565b6000604051905090565b600080fd5b600080fd5b6000819050919050565b61144c81611439565b811461145757600080fd5b50565b60008135905061146981611443565b92915050565b6000602082840312156114855761148461142f565b5b60006114938482850161145a565b91505092915050565b600081519050919050565b600082825260208201905092915050565b60005b838110156114d65780820151818401526020810190506114bb565b838111156114e5576000848401525b50505050565b6000601f19601f8301169050919050565b60006115078261149c565b61151181856114a7565b93506115218185602086016114b8565b61152a816114eb565b840191505092915050565b600073ffffffffffffffffffffffffffffffffffffffff82169050919050565b600061156082611535565b9050919050565b61157081611555565b82525050565b600060a082019050818103600083015261159081886114fc565b905081810360208301526115a481876114fc565b905081810360408301526115b881866114fc565b905081810360608301526115cc81856114fc565b90506115db6080830184611567565b9695505050505050565b6115ee81611439565b82525050565b600060208201905061160960008301846115e5565b92915050565b600080fd5b600080fd5b7f4e487b7100000000000000000000000000000000000000000000000000000000600052604160045260246000fd5b611651826114eb565b810181811067ffffffffffffffff821117156116705761166f611619565b5b80604052505050565b6000611683611425565b905061168f8282611648565b919050565b600067ffffffffffffffff8211156116af576116ae611619565b5b6116b8826114eb565b9050602081019050919050565b82818337600083830152505050565b60006116e76116e284611694565b611679565b90508281526020810184848401111561170357611702611614565b5b61170e8482856116c5565b509392505050565b600082601f83011261172b5761172a61160f565b5b813561173b8482602086016116d4565b91505092915050565b60006020828403121561175a5761175961142f565b5b600082013567ffffffffffffffff81111561177857611777611434565b5b61178484828501611716565b91505092915050565b600081519050919050565b600082825260208201905092915050565b6000819050602082019050919050565b600082825260208201905092915050565b60006117d58261149c565b6117df81856117b9565b93506117ef8185602086016114b8565b6117f8816114eb565b840191505092915050565b61180c81611555565b82525050565b600060a083016000830151848203600086015261182f82826117ca565b9150506020830151848203602086015261184982826117ca565b9150506040830151848203604086015261186382826117ca565b9150506060830151848203606086015261187d82826117ca565b91505060808301516118926080860182611803565b508091505092915050565b60006118a98383611812565b905092915050565b6000602082019050919050565b60006118c98261178d565b6118d38185611798565b9350836020820285016118e5856117a9565b8060005b858110156119215784840389528151611902858261189d565b945061190d836118b1565b925060208a019950506001810190506118e9565b50829750879550505050505092915050565b6000602082019050818103600083015261194d81846118be565b905092915050565b6000806040838503121561196c5761196b61142f565b5b600083013567ffffffffffffffff81111561198a57611989611434565b5b61199685828601611716565b925050602083013567ffffffffffffffff8111156119b7576119b6611434565b5b6119c385828601611716565b9150509250929050565b600060208201905081810360008301526119e781846114fc565b905092915050565b600080600080600060a08688031215611a0b57611a0a61142f565b5b600086013567ffffffffffffffff811115611a2957611a28611434565b5b611a3588828901611716565b955050602086013567ffffffffffffffff811115611a5657611a55611434565b5b611a6288828901611716565b945050604086013567ffffffffffffffff811115611a8357611a82611434565b5b611a8f88828901611716565b935050606086013567ffffffffffffffff811115611ab057611aaf611434565b5b611abc88828901611716565b925050608086013567ffffffffffffffff811115611add57611adc611434565b5b611ae988828901611716565b9150509295509295909350565b60008060008060808587031215611b1057611b0f61142f565b5b600085013567ffffffffffffffff811115611b2e57611b2d611434565b5b611b3a87828801611716565b945050602085013567ffffffffffffffff811115611b5b57611b5a611434565b5b611b6787828801611716565b935050604085013567ffffffffffffffff811115611b8857611b87611434565b5b611b9487828801611716565b925050606085013567ffffffffffffffff811115611bb557611bb4611434565b5b611bc187828801611716565b91505092959194509250565b6000602082019050611be26000830184611567565b92915050565b7f4e487b7100000000000000000000000000000000000000000000000000000000600052602260045260246000fd5b60006002820490506001821680611c2f57607f821691505b602082108103611c4257611c41611be8565b5b50919050565b7f4163636f756e7420616c7265616479207573656420706c65617365207472792060008201527f77697468206e6577206163636f756e7421210000000000000000000000000000602082015250565b6000611ca46032836114a7565b9150611caf82611c48565b604082019050919050565b60006020820190508181036000830152611cd381611c97565b9050919050565b7f4e487b7100000000000000000000000000000000000000000000000000000000600052601160045260246000fd5b6000611d1482611439565b91507fffffffffffffffffffffffffffffffffffffffffffffffffffffffffffffffff8203611d4657611d45611cda565b5b600182019050919050565b7f4e6f7420616c6c6f776564000000000000000000000000000000000000000000600082015250565b6000611d87600b836114a7565b9150611d9282611d51565b602082019050919050565b60006020820190508181036000830152611db681611d7a565b905091905056fe5573657220646f65736e6f7420657869737420212120526567697374657220616e642074727920616761696e202121a264697066735822122097b469f6eb9f4377233de844be31cb17209604b3e49dce466b3aa3c2f6dd5eaa64736f6c634300080d0033",
			"opcodes": "PUSH1 0x80 PUSH1 0x40 MSTORE CALLVALUE DUP1 ISZERO PUSH2 0x10 JUMPI PUSH1 0x0 DUP1 REVERT JUMPDEST POP PUSH1 0x0 DUP1 DUP2 SWAP1 SSTORE POP PUSH2 0x1E22 DUP1 PUSH2 0x27 PUSH1 0x0 CODECOPY PUSH1 0x0 RETURN INVALID PUSH1 0x80 PUSH1 0x40 MSTORE CALLVALUE DUP1 ISZERO PUSH2 0x10 JUMPI PUSH1 0x0 DUP1 REVERT JUMPDEST POP PUSH1 0x4 CALLDATASIZE LT PUSH2 0x93 JUMPI PUSH1 0x0 CALLDATALOAD PUSH1 0xE0 SHR DUP1 PUSH4 0x5A09007B GT PUSH2 0x66 JUMPI DUP1 PUSH4 0x5A09007B EQ PUSH2 0x14A JUMPI DUP1 PUSH4 0x681F3E6D EQ PUSH2 0x17A JUMPI DUP1 PUSH4 0xB4BFC3A5 EQ PUSH2 0x198 JUMPI DUP1 PUSH4 0xC127AE41 EQ PUSH2 0x1C8 JUMPI DUP1 PUSH4 0xEBC3EEE8 EQ PUSH2 0x1E6 JUMPI PUSH2 0x93 JUMP JUMPDEST DUP1 PUSH4 0x107046BD EQ PUSH2 0x98 JUMPI DUP1 PUSH4 0x12679323 EQ PUSH2 0xCC JUMPI DUP1 PUSH4 0x3162A709 EQ PUSH2 0xEA JUMPI DUP1 PUSH4 0x58467DBC EQ PUSH2 0x11A JUMPI JUMPDEST PUSH1 0x0 DUP1 REVERT JUMPDEST PUSH2 0xB2 PUSH1 0x4 DUP1 CALLDATASIZE SUB DUP2 ADD SWAP1 PUSH2 0xAD SWAP2 SWAP1 PUSH2 0x146F JUMP JUMPDEST PUSH2 0x204 JUMP JUMPDEST PUSH1 0x40 MLOAD PUSH2 0xC3 SWAP6 SWAP5 SWAP4 SWAP3 SWAP2 SWAP1 PUSH2 0x1576 JUMP JUMPDEST PUSH1 0x40 MLOAD DUP1 SWAP2 SUB SWAP1 RETURN JUMPDEST PUSH2 0xD4 PUSH2 0x48A JUMP JUMPDEST PUSH1 0x40 MLOAD PUSH2 0xE1 SWAP2 SWAP1 PUSH2 0x15F4 JUMP JUMPDEST PUSH1 0x40 MLOAD DUP1 SWAP2 SUB SWAP1 RETURN JUMPDEST PUSH2 0x104 PUSH1 0x4 DUP1 CALLDATASIZE SUB DUP2 ADD SWAP1 PUSH2 0xFF SWAP2 SWAP1 PUSH2 0x1744 JUMP JUMPDEST PUSH2 0x490 JUMP JUMPDEST PUSH1 0x40 MLOAD PUSH2 0x111 SWAP2 SWAP1 PUSH2 0x1933 JUMP JUMPDEST PUSH1 0x40 MLOAD DUP1 SWAP2 SUB SWAP1 RETURN JUMPDEST PUSH2 0x134 PUSH1 0x4 DUP1 CALLDATASIZE SUB DUP2 ADD SWAP1 PUSH2 0x12F SWAP2 SWAP1 PUSH2 0x1955 JUMP JUMPDEST PUSH2 0x7B8 JUMP JUMPDEST PUSH1 0x40 MLOAD PUSH2 0x141 SWAP2 SWAP1 PUSH2 0x19CD JUMP JUMPDEST PUSH1 0x40 MLOAD DUP1 SWAP2 SUB SWAP1 RETURN JUMPDEST PUSH2 0x164 PUSH1 0x4 DUP1 CALLDATASIZE SUB DUP2 ADD SWAP1 PUSH2 0x15F SWAP2 SWAP1 PUSH2 0x19EF JUMP JUMPDEST PUSH2 0x8F2 JUMP JUMPDEST PUSH1 0x40 MLOAD PUSH2 0x171 SWAP2 SWAP1 PUSH2 0x19CD JUMP JUMPDEST PUSH1 0x40 MLOAD DUP1 SWAP2 SUB SWAP1 RETURN JUMPDEST PUSH2 0x182 PUSH2 0xC57 JUMP JUMPDEST PUSH1 0x40 MLOAD PUSH2 0x18F SWAP2 SWAP1 PUSH2 0x19CD JUMP JUMPDEST PUSH1 0x40 MLOAD DUP1 SWAP2 SUB SWAP1 RETURN JUMPDEST PUSH2 0x1B2 PUSH1 0x4 DUP1 CALLDATASIZE SUB DUP2 ADD SWAP1 PUSH2 0x1AD SWAP2 SWAP1 PUSH2 0x1AF6 JUMP JUMPDEST PUSH2 0xD29 JUMP JUMPDEST PUSH1 0x40 MLOAD PUSH2 0x1BF SWAP2 SWAP1 PUSH2 0x19CD JUMP JUMPDEST PUSH1 0x40 MLOAD DUP1 SWAP2 SUB SWAP1 RETURN JUMPDEST PUSH2 0x1D0 PUSH2 0x10E9 JUMP JUMPDEST PUSH1 0x40 MLOAD PUSH2 0x1DD SWAP2 SWAP1 PUSH2 0x19CD JUMP JUMPDEST PUSH1 0x40 MLOAD DUP1 SWAP2 SUB SWAP1 RETURN JUMPDEST PUSH2 0x1EE PUSH2 0x128B JUMP JUMPDEST PUSH1 0x40 MLOAD PUSH2 0x1FB SWAP2 SWAP1 PUSH2 0x1BCD JUMP JUMPDEST PUSH1 0x40 MLOAD DUP1 SWAP2 SUB SWAP1 RETURN JUMPDEST PUSH1 0x3 DUP2 DUP2 SLOAD DUP2 LT PUSH2 0x214 JUMPI PUSH1 0x0 DUP1 REVERT JUMPDEST SWAP1 PUSH1 0x0 MSTORE PUSH1 0x20 PUSH1 0x0 KECCAK256 SWAP1 PUSH1 0x5 MUL ADD PUSH1 0x0 SWAP2 POP SWAP1 POP DUP1 PUSH1 0x0 ADD DUP1 SLOAD PUSH2 0x237 SWAP1 PUSH2 0x1C17 JUMP JUMPDEST DUP1 PUSH1 0x1F ADD PUSH1 0x20 DUP1 SWAP2 DIV MUL PUSH1 0x20 ADD PUSH1 0x40 MLOAD SWAP1 DUP2 ADD PUSH1 0x40 MSTORE DUP1 SWAP3 SWAP2 SWAP1 DUP2 DUP2 MSTORE PUSH1 0x20 ADD DUP3 DUP1 SLOAD PUSH2 0x263 SWAP1 PUSH2 0x1C17 JUMP JUMPDEST DUP1 ISZERO PUSH2 0x2B0 JUMPI DUP1 PUSH1 0x1F LT PUSH2 0x285 JUMPI PUSH2 0x100 DUP1 DUP4 SLOAD DIV MUL DUP4 MSTORE SWAP2 PUSH1 0x20 ADD SWAP2 PUSH2 0x2B0 JUMP JUMPDEST DUP3 ADD SWAP2 SWAP1 PUSH1 0x0 MSTORE PUSH1 0x20 PUSH1 0x0 KECCAK256 SWAP1 JUMPDEST DUP2 SLOAD DUP2 MSTORE SWAP1 PUSH1 0x1 ADD SWAP1 PUSH1 0x20 ADD DUP1 DUP4 GT PUSH2 0x293 JUMPI DUP3 SWAP1 SUB PUSH1 0x1F AND DUP3 ADD SWAP2 JUMPDEST POP POP POP POP POP SWAP1 DUP1 PUSH1 0x1 ADD DUP1 SLOAD PUSH2 0x2C5 SWAP1 PUSH2 0x1C17 JUMP JUMPDEST DUP1 PUSH1 0x1F ADD PUSH1 0x20 DUP1 SWAP2 DIV MUL PUSH1 0x20 ADD PUSH1 0x40 MLOAD SWAP1 DUP2 ADD PUSH1 0x40 MSTORE DUP1 SWAP3 SWAP2 SWAP1 DUP2 DUP2 MSTORE PUSH1 0x20 ADD DUP3 DUP1 SLOAD PUSH2 0x2F1 SWAP1 PUSH2 0x1C17 JUMP JUMPDEST DUP1 ISZERO PUSH2 0x33E JUMPI DUP1 PUSH1 0x1F LT PUSH2 0x313 JUMPI PUSH2 0x100 DUP1 DUP4 SLOAD DIV MUL DUP4 MSTORE SWAP2 PUSH1 0x20 ADD SWAP2 PUSH2 0x33E JUMP JUMPDEST DUP3 ADD SWAP2 SWAP1 PUSH1 0x0 MSTORE PUSH1 0x20 PUSH1 0x0 KECCAK256 SWAP1 JUMPDEST DUP2 SLOAD DUP2 MSTORE SWAP1 PUSH1 0x1 ADD SWAP1 PUSH1 0x20 ADD DUP1 DUP4 GT PUSH2 0x321 JUMPI DUP3 SWAP1 SUB PUSH1 0x1F AND DUP3 ADD SWAP2 JUMPDEST POP POP POP POP POP SWAP1 DUP1 PUSH1 0x2 ADD DUP1 SLOAD PUSH2 0x353 SWAP1 PUSH2 0x1C17 JUMP JUMPDEST DUP1 PUSH1 0x1F ADD PUSH1 0x20 DUP1 SWAP2 DIV MUL PUSH1 0x20 ADD PUSH1 0x40 MLOAD SWAP1 DUP2 ADD PUSH1 0x40 MSTORE DUP1 SWAP3 SWAP2 SWAP1 DUP2 DUP2 MSTORE PUSH1 0x20 ADD DUP3 DUP1 SLOAD PUSH2 0x37F SWAP1 PUSH2 0x1C17 JUMP JUMPDEST DUP1 ISZERO PUSH2 0x3CC JUMPI DUP1 PUSH1 0x1F LT PUSH2 0x3A1 JUMPI PUSH2 0x100 DUP1 DUP4 SLOAD DIV MUL DUP4 MSTORE SWAP2 PUSH1 0x20 ADD SWAP2 PUSH2 0x3CC JUMP JUMPDEST DUP3 ADD SWAP2 SWAP1 PUSH1 0x0 MSTORE PUSH1 0x20 PUSH1 0x0 KECCAK256 SWAP1 JUMPDEST DUP2 SLOAD DUP2 MSTORE SWAP1 PUSH1 0x1 ADD SWAP1 PUSH1 0x20 ADD DUP1 DUP4 GT PUSH2 0x3AF JUMPI DUP3 SWAP1 SUB PUSH1 0x1F AND DUP3 ADD SWAP2 JUMPDEST POP POP POP POP POP SWAP1 DUP1 PUSH1 0x3 ADD DUP1 SLOAD PUSH2 0x3E1 SWAP1 PUSH2 0x1C17 JUMP JUMPDEST DUP1 PUSH1 0x1F ADD PUSH1 0x20 DUP1 SWAP2 DIV MUL PUSH1 0x20 ADD PUSH1 0x40 MLOAD SWAP1 DUP2 ADD PUSH1 0x40 MSTORE DUP1 SWAP3 SWAP2 SWAP1 DUP2 DUP2 MSTORE PUSH1 0x20 ADD DUP3 DUP1 SLOAD PUSH2 0x40D SWAP1 PUSH2 0x1C17 JUMP JUMPDEST DUP1 ISZERO PUSH2 0x45A JUMPI DUP1 PUSH1 0x1F LT PUSH2 0x42F JUMPI PUSH2 0x100 DUP1 DUP4 SLOAD DIV MUL DUP4 MSTORE SWAP2 PUSH1 0x20 ADD SWAP2 PUSH2 0x45A JUMP JUMPDEST DUP3 ADD SWAP2 SWAP1 PUSH1 0x0 MSTORE PUSH1 0x20 PUSH1 0x0 KECCAK256 SWAP1 JUMPDEST DUP2 SLOAD DUP2 MSTORE SWAP1 PUSH1 0x1 ADD SWAP1 PUSH1 0x20 ADD DUP1 DUP4 GT PUSH2 0x43D JUMPI DUP3 SWAP1 SUB PUSH1 0x1F AND DUP3 ADD SWAP2 JUMPDEST POP POP POP POP POP SWAP1 DUP1 PUSH1 0x4 ADD PUSH1 0x0 SWAP1 SLOAD SWAP1 PUSH2 0x100 EXP SWAP1 DIV PUSH20 0xFFFFFFFFFFFFFFFFFFFFFFFFFFFFFFFFFFFFFFFF AND SWAP1 POP DUP6 JUMP JUMPDEST PUSH1 0x0 SLOAD DUP2 JUMP JUMPDEST PUSH1 0x60 PUSH1 0x0 PUSH2 0x49C PUSH2 0xC57 JUMP JUMPDEST SWAP1 POP DUP3 DUP1 MLOAD SWAP1 PUSH1 0x20 ADD KECCAK256 DUP2 DUP1 MLOAD SWAP1 PUSH1 0x20 ADD KECCAK256 SUB PUSH2 0x7B1 JUMPI PUSH1 0x3 DUP1 SLOAD DUP1 PUSH1 0x20 MUL PUSH1 0x20 ADD PUSH1 0x40 MLOAD SWAP1 DUP2 ADD PUSH1 0x40 MSTORE DUP1 SWAP3 SWAP2 SWAP1 DUP2 DUP2 MSTORE PUSH1 0x20 ADD PUSH1 0x0 SWAP1 JUMPDEST DUP3 DUP3 LT ISZERO PUSH2 0x7A5 JUMPI DUP4 DUP3 SWAP1 PUSH1 0x0 MSTORE PUSH1 0x20 PUSH1 0x0 KECCAK256 SWAP1 PUSH1 0x5 MUL ADD PUSH1 0x40 MLOAD DUP1 PUSH1 0xA0 ADD PUSH1 0x40 MSTORE SWAP1 DUP2 PUSH1 0x0 DUP3 ADD DUP1 SLOAD PUSH2 0x508 SWAP1 PUSH2 0x1C17 JUMP JUMPDEST DUP1 PUSH1 0x1F ADD PUSH1 0x20 DUP1 SWAP2 DIV MUL PUSH1 0x20 ADD PUSH1 0x40 MLOAD SWAP1 DUP2 ADD PUSH1 0x40 MSTORE DUP1 SWAP3 SWAP2 SWAP1 DUP2 DUP2 MSTORE PUSH1 0x20 ADD DUP3 DUP1 SLOAD PUSH2 0x534 SWAP1 PUSH2 0x1C17 JUMP JUMPDEST DUP1 ISZERO PUSH2 0x581 JUMPI DUP1 PUSH1 0x1F LT PUSH2 0x556 JUMPI PUSH2 0x100 DUP1 DUP4 SLOAD DIV MUL DUP4 MSTORE SWAP2 PUSH1 0x20 ADD SWAP2 PUSH2 0x581 JUMP JUMPDEST DUP3 ADD SWAP2 SWAP1 PUSH1 0x0 MSTORE PUSH1 0x20 PUSH1 0x0 KECCAK256 SWAP1 JUMPDEST DUP2 SLOAD DUP2 MSTORE SWAP1 PUSH1 0x1 ADD SWAP1 PUSH1 0x20 ADD DUP1 DUP4 GT PUSH2 0x564 JUMPI DUP3 SWAP1 SUB PUSH1 0x1F AND DUP3 ADD SWAP2 JUMPDEST POP POP POP POP POP DUP2 MSTORE PUSH1 0x20 ADD PUSH1 0x1 DUP3 ADD DUP1 SLOAD PUSH2 0x59A SWAP1 PUSH2 0x1C17 JUMP JUMPDEST DUP1 PUSH1 0x1F ADD PUSH1 0x20 DUP1 SWAP2 DIV MUL PUSH1 0x20 ADD PUSH1 0x40 MLOAD SWAP1 DUP2 ADD PUSH1 0x40 MSTORE DUP1 SWAP3 SWAP2 SWAP1 DUP2 DUP2 MSTORE PUSH1 0x20 ADD DUP3 DUP1 SLOAD PUSH2 0x5C6 SWAP1 PUSH2 0x1C17 JUMP JUMPDEST DUP1 ISZERO PUSH2 0x613 JUMPI DUP1 PUSH1 0x1F LT PUSH2 0x5E8 JUMPI PUSH2 0x100 DUP1 DUP4 SLOAD DIV MUL DUP4 MSTORE SWAP2 PUSH1 0x20 ADD SWAP2 PUSH2 0x613 JUMP JUMPDEST DUP3 ADD SWAP2 SWAP1 PUSH1 0x0 MSTORE PUSH1 0x20 PUSH1 0x0 KECCAK256 SWAP1 JUMPDEST DUP2 SLOAD DUP2 MSTORE SWAP1 PUSH1 0x1 ADD SWAP1 PUSH1 0x20 ADD DUP1 DUP4 GT PUSH2 0x5F6 JUMPI DUP3 SWAP1 SUB PUSH1 0x1F AND DUP3 ADD SWAP2 JUMPDEST POP POP POP POP POP DUP2 MSTORE PUSH1 0x20 ADD PUSH1 0x2 DUP3 ADD DUP1 SLOAD PUSH2 0x62C SWAP1 PUSH2 0x1C17 JUMP JUMPDEST DUP1 PUSH1 0x1F ADD PUSH1 0x20 DUP1 SWAP2 DIV MUL PUSH1 0x20 ADD PUSH1 0x40 MLOAD SWAP1 DUP2 ADD PUSH1 0x40 MSTORE DUP1 SWAP3 SWAP2 SWAP1 DUP2 DUP2 MSTORE PUSH1 0x20 ADD DUP3 DUP1 SLOAD PUSH2 0x658 SWAP1 PUSH2 0x1C17 JUMP JUMPDEST DUP1 ISZERO PUSH2 0x6A5 JUMPI DUP1 PUSH1 0x1F LT PUSH2 0x67A JUMPI PUSH2 0x100 DUP1 DUP4 SLOAD DIV MUL DUP4 MSTORE SWAP2 PUSH1 0x20 ADD SWAP2 PUSH2 0x6A5 JUMP JUMPDEST DUP3 ADD SWAP2 SWAP1 PUSH1 0x0 MSTORE PUSH1 0x20 PUSH1 0x0 KECCAK256 SWAP1 JUMPDEST DUP2 SLOAD DUP2 MSTORE SWAP1 PUSH1 0x1 ADD SWAP1 PUSH1 0x20 ADD DUP1 DUP4 GT PUSH2 0x688 JUMPI DUP3 SWAP1 SUB PUSH1 0x1F AND DUP3 ADD SWAP2 JUMPDEST POP POP POP POP POP DUP2 MSTORE PUSH1 0x20 ADD PUSH1 0x3 DUP3 ADD DUP1 SLOAD PUSH2 0x6BE SWAP1 PUSH2 0x1C17 JUMP JUMPDEST DUP1 PUSH1 0x1F ADD PUSH1 0x20 DUP1 SWAP2 DIV MUL PUSH1 0x20 ADD PUSH1 0x40 MLOAD SWAP1 DUP2 ADD PUSH1 0x40 MSTORE DUP1 SWAP3 SWAP2 SWAP1 DUP2 DUP2 MSTORE PUSH1 0x20 ADD DUP3 DUP1 SLOAD PUSH2 0x6EA SWAP1 PUSH2 0x1C17 JUMP JUMPDEST DUP1 ISZERO PUSH2 0x737 JUMPI DUP1 PUSH1 0x1F LT PUSH2 0x70C JUMPI PUSH2 0x100 DUP1 DUP4 SLOAD DIV MUL DUP4 MSTORE SWAP2 PUSH1 0x20 ADD SWAP2 PUSH2 0x737 JUMP JUMPDEST DUP3 ADD SWAP2 SWAP1 PUSH1 0x0 MSTORE PUSH1 0x20 PUSH1 0x0 KECCAK256 SWAP1 JUMPDEST DUP2 SLOAD DUP2 MSTORE SWAP1 PUSH1 0x1 ADD SWAP1 PUSH1 0x20 ADD DUP1 DUP4 GT PUSH2 0x71A JUMPI DUP3 SWAP1 SUB PUSH1 0x1F AND DUP3 ADD SWAP2 JUMPDEST POP POP POP POP POP DUP2 MSTORE PUSH1 0x20 ADD PUSH1 0x4 DUP3 ADD PUSH1 0x0 SWAP1 SLOAD SWAP1 PUSH2 0x100 EXP SWAP1 DIV PUSH20 0xFFFFFFFFFFFFFFFFFFFFFFFFFFFFFFFFFFFFFFFF AND PUSH20 0xFFFFFFFFFFFFFFFFFFFFFFFFFFFFFFFFFFFFFFFF AND PUSH20 0xFFFFFFFFFFFFFFFFFFFFFFFFFFFFFFFFFFFFFFFF AND DUP2 MSTORE POP POP DUP2 MSTORE PUSH1 0x20 ADD SWAP1 PUSH1 0x1 ADD SWAP1 PUSH2 0x4D5 JUMP JUMPDEST POP POP POP POP SWAP2 POP POP PUSH2 0x7B3 JUMP JUMPDEST POP JUMPDEST SWAP2 SWAP1 POP JUMP JUMPDEST PUSH1 0x60 PUSH1 0x0 PUSH2 0x7C4 PUSH2 0xC57 JUMP JUMPDEST SWAP1 POP PUSH1 0x0 PUSH1 0x1 PUSH1 0x0 CALLER PUSH20 0xFFFFFFFFFFFFFFFFFFFFFFFFFFFFFFFFFFFFFFFF AND PUSH20 0xFFFFFFFFFFFFFFFFFFFFFFFFFFFFFFFFFFFFFFFF AND DUP2 MSTORE PUSH1 0x20 ADD SWAP1 DUP2 MSTORE PUSH1 0x20 ADD PUSH1 0x0 KECCAK256 PUSH1 0x3 ADD DUP1 SLOAD PUSH2 0x815 SWAP1 PUSH2 0x1C17 JUMP JUMPDEST DUP1 PUSH1 0x1F ADD PUSH1 0x20 DUP1 SWAP2 DIV MUL PUSH1 0x20 ADD PUSH1 0x40 MLOAD SWAP1 DUP2 ADD PUSH1 0x40 MSTORE DUP1 SWAP3 SWAP2 SWAP1 DUP2 DUP2 MSTORE PUSH1 0x20 ADD DUP3 DUP1 SLOAD PUSH2 0x841 SWAP1 PUSH2 0x1C17 JUMP JUMPDEST DUP1 ISZERO PUSH2 0x88E JUMPI DUP1 PUSH1 0x1F LT PUSH2 0x863 JUMPI PUSH2 0x100 DUP1 DUP4 SLOAD DIV MUL DUP4 MSTORE SWAP2 PUSH1 0x20 ADD SWAP2 PUSH2 0x88E JUMP JUMPDEST DUP3 ADD SWAP2 SWAP1 PUSH1 0x0 MSTORE PUSH1 0x20 PUSH1 0x0 KECCAK256 SWAP1 JUMPDEST DUP2 SLOAD DUP2 MSTORE SWAP1 PUSH1 0x1 ADD SWAP1 PUSH1 0x20 ADD DUP1 DUP4 GT PUSH2 0x871 JUMPI DUP3 SWAP1 SUB PUSH1 0x1F AND DUP3 ADD SWAP2 JUMPDEST POP POP POP POP POP SWAP1 POP DUP5 DUP1 MLOAD SWAP1 PUSH1 0x20 ADD KECCAK256 DUP3 DUP1 MLOAD SWAP1 PUSH1 0x20 ADD KECCAK256 EQ DUP1 ISZERO PUSH2 0x8BF JUMPI POP DUP4 DUP1 MLOAD SWAP1 PUSH1 0x20 ADD KECCAK256 DUP2 DUP1 MLOAD SWAP1 PUSH1 0x20 ADD KECCAK256 EQ JUMPDEST ISZERO PUSH2 0x8CE JUMPI DUP5 SWAP3 POP POP POP PUSH2 0x8EC JUMP JUMPDEST PUSH1 0x40 MLOAD DUP1 PUSH1 0x60 ADD PUSH1 0x40 MSTORE DUP1 PUSH1 0x2F DUP2 MSTORE PUSH1 0x20 ADD PUSH2 0x1DBE PUSH1 0x2F SWAP2 CODECOPY SWAP3 POP POP POP JUMPDEST SWAP3 SWAP2 POP POP JUMP JUMPDEST PUSH1 0x60 PUSH2 0x8FC PUSH2 0x128B JUMP JUMPDEST PUSH20 0xFFFFFFFFFFFFFFFFFFFFFFFFFFFFFFFFFFFFFFFF AND PUSH1 0x1 PUSH1 0x0 CALLER PUSH20 0xFFFFFFFFFFFFFFFFFFFFFFFFFFFFFFFFFFFFFFFF AND PUSH20 0xFFFFFFFFFFFFFFFFFFFFFFFFFFFFFFFFFFFFFFFF AND DUP2 MSTORE PUSH1 0x20 ADD SWAP1 DUP2 MSTORE PUSH1 0x20 ADD PUSH1 0x0 KECCAK256 PUSH1 0x5 ADD PUSH1 0x0 SWAP1 SLOAD SWAP1 PUSH2 0x100 EXP SWAP1 DIV PUSH20 0xFFFFFFFFFFFFFFFFFFFFFFFFFFFFFFFFFFFFFFFF AND PUSH20 0xFFFFFFFFFFFFFFFFFFFFFFFFFFFFFFFFFFFFFFFF AND EQ PUSH2 0x9CB JUMPI PUSH1 0x40 MLOAD PUSH32 0x8C379A000000000000000000000000000000000000000000000000000000000 DUP2 MSTORE PUSH1 0x4 ADD PUSH2 0x9C2 SWAP1 PUSH2 0x1CBA JUMP JUMPDEST PUSH1 0x40 MLOAD DUP1 SWAP2 SUB SWAP1 REVERT JUMPDEST DUP6 PUSH1 0x1 PUSH1 0x0 CALLER PUSH20 0xFFFFFFFFFFFFFFFFFFFFFFFFFFFFFFFFFFFFFFFF AND PUSH20 0xFFFFFFFFFFFFFFFFFFFFFFFFFFFFFFFFFFFFFFFF AND DUP2 MSTORE PUSH1 0x20 ADD SWAP1 DUP2 MSTORE PUSH1 0x20 ADD PUSH1 0x0 KECCAK256 PUSH1 0x0 ADD SWAP1 DUP1 MLOAD SWAP1 PUSH1 0x20 ADD SWAP1 PUSH2 0xA21 SWAP3 SWAP2 SWAP1 PUSH2 0x12F5 JUMP JUMPDEST POP DUP5 PUSH1 0x1 PUSH1 0x0 CALLER PUSH20 0xFFFFFFFFFFFFFFFFFFFFFFFFFFFFFFFFFFFFFFFF AND PUSH20 0xFFFFFFFFFFFFFFFFFFFFFFFFFFFFFFFFFFFFFFFF AND DUP2 MSTORE PUSH1 0x20 ADD SWAP1 DUP2 MSTORE PUSH1 0x20 ADD PUSH1 0x0 KECCAK256 PUSH1 0x1 ADD SWAP1 DUP1 MLOAD SWAP1 PUSH1 0x20 ADD SWAP1 PUSH2 0xA78 SWAP3 SWAP2 SWAP1 PUSH2 0x12F5 JUMP JUMPDEST POP CALLER PUSH1 0x1 PUSH1 0x0 CALLER PUSH20 0xFFFFFFFFFFFFFFFFFFFFFFFFFFFFFFFFFFFFFFFF AND PUSH20 0xFFFFFFFFFFFFFFFFFFFFFFFFFFFFFFFFFFFFFFFF AND DUP2 MSTORE PUSH1 0x20 ADD SWAP1 DUP2 MSTORE PUSH1 0x20 ADD PUSH1 0x0 KECCAK256 PUSH1 0x5 ADD PUSH1 0x0 PUSH2 0x100 EXP DUP2 SLOAD DUP2 PUSH20 0xFFFFFFFFFFFFFFFFFFFFFFFFFFFFFFFFFFFFFFFF MUL NOT AND SWAP1 DUP4 PUSH20 0xFFFFFFFFFFFFFFFFFFFFFFFFFFFFFFFFFFFFFFFF AND MUL OR SWAP1 SSTORE POP DUP4 PUSH1 0x1 PUSH1 0x0 CALLER PUSH20 0xFFFFFFFFFFFFFFFFFFFFFFFFFFFFFFFFFFFFFFFF AND PUSH20 0xFFFFFFFFFFFFFFFFFFFFFFFFFFFFFFFFFFFFFFFF AND DUP2 MSTORE PUSH1 0x20 ADD SWAP1 DUP2 MSTORE PUSH1 0x20 ADD PUSH1 0x0 KECCAK256 PUSH1 0x2 ADD SWAP1 DUP1 MLOAD SWAP1 PUSH1 0x20 ADD SWAP1 PUSH2 0xB50 SWAP3 SWAP2 SWAP1 PUSH2 0x12F5 JUMP JUMPDEST POP DUP3 PUSH1 0x1 PUSH1 0x0 CALLER PUSH20 0xFFFFFFFFFFFFFFFFFFFFFFFFFFFFFFFFFFFFFFFF AND PUSH20 0xFFFFFFFFFFFFFFFFFFFFFFFFFFFFFFFFFFFFFFFF AND DUP2 MSTORE PUSH1 0x20 ADD SWAP1 DUP2 MSTORE PUSH1 0x20 ADD PUSH1 0x0 KECCAK256 PUSH1 0x3 ADD SWAP1 DUP1 MLOAD SWAP1 PUSH1 0x20 ADD SWAP1 PUSH2 0xBA7 SWAP3 SWAP2 SWAP1 PUSH2 0x12F5 JUMP JUMPDEST POP DUP2 PUSH1 0x1 PUSH1 0x0 CALLER PUSH20 0xFFFFFFFFFFFFFFFFFFFFFFFFFFFFFFFFFFFFFFFF AND PUSH20 0xFFFFFFFFFFFFFFFFFFFFFFFFFFFFFFFFFFFFFFFF AND DUP2 MSTORE PUSH1 0x20 ADD SWAP1 DUP2 MSTORE PUSH1 0x20 ADD PUSH1 0x0 KECCAK256 PUSH1 0x4 ADD SWAP1 DUP1 MLOAD SWAP1 PUSH1 0x20 ADD SWAP1 PUSH2 0xBFE SWAP3 SWAP2 SWAP1 PUSH2 0x12F5 JUMP JUMPDEST POP PUSH1 0x0 DUP1 DUP2 SLOAD DUP1 SWAP3 SWAP2 SWAP1 PUSH2 0xC11 SWAP1 PUSH2 0x1D09 JUMP JUMPDEST SWAP2 SWAP1 POP SSTORE POP PUSH1 0x40 MLOAD DUP1 PUSH1 0x40 ADD PUSH1 0x40 MSTORE DUP1 PUSH1 0x17 DUP2 MSTORE PUSH1 0x20 ADD PUSH32 0x5375636365737366756C6C792052656769737465726564000000000000000000 DUP2 MSTORE POP SWAP1 POP SWAP6 SWAP5 POP POP POP POP POP JUMP JUMPDEST PUSH1 0x60 PUSH1 0x1 PUSH1 0x0 CALLER PUSH20 0xFFFFFFFFFFFFFFFFFFFFFFFFFFFFFFFFFFFFFFFF AND PUSH20 0xFFFFFFFFFFFFFFFFFFFFFFFFFFFFFFFFFFFFFFFF AND DUP2 MSTORE PUSH1 0x20 ADD SWAP1 DUP2 MSTORE PUSH1 0x20 ADD PUSH1 0x0 KECCAK256 PUSH1 0x2 ADD DUP1 SLOAD PUSH2 0xCA6 SWAP1 PUSH2 0x1C17 JUMP JUMPDEST DUP1 PUSH1 0x1F ADD PUSH1 0x20 DUP1 SWAP2 DIV MUL PUSH1 0x20 ADD PUSH1 0x40 MLOAD SWAP1 DUP2 ADD PUSH1 0x40 MSTORE DUP1 SWAP3 SWAP2 SWAP1 DUP2 DUP2 MSTORE PUSH1 0x20 ADD DUP3 DUP1 SLOAD PUSH2 0xCD2 SWAP1 PUSH2 0x1C17 JUMP JUMPDEST DUP1 ISZERO PUSH2 0xD1F JUMPI DUP1 PUSH1 0x1F LT PUSH2 0xCF4 JUMPI PUSH2 0x100 DUP1 DUP4 SLOAD DIV MUL DUP4 MSTORE SWAP2 PUSH1 0x20 ADD SWAP2 PUSH2 0xD1F JUMP JUMPDEST DUP3 ADD SWAP2 SWAP1 PUSH1 0x0 MSTORE PUSH1 0x20 PUSH1 0x0 KECCAK256 SWAP1 JUMPDEST DUP2 SLOAD DUP2 MSTORE SWAP1 PUSH1 0x1 ADD SWAP1 PUSH1 0x20 ADD DUP1 DUP4 GT PUSH2 0xD02 JUMPI DUP3 SWAP1 SUB PUSH1 0x1F AND DUP3 ADD SWAP2 JUMPDEST POP POP POP POP POP SWAP1 POP SWAP1 JUMP JUMPDEST PUSH1 0x60 PUSH1 0x0 PUSH2 0xD35 PUSH2 0xC57 JUMP JUMPDEST MLOAD EQ PUSH2 0x10A8 JUMPI DUP5 PUSH1 0x2 PUSH1 0x0 CALLER PUSH20 0xFFFFFFFFFFFFFFFFFFFFFFFFFFFFFFFFFFFFFFFF AND PUSH20 0xFFFFFFFFFFFFFFFFFFFFFFFFFFFFFFFFFFFFFFFF AND DUP2 MSTORE PUSH1 0x20 ADD SWAP1 DUP2 MSTORE PUSH1 0x20 ADD PUSH1 0x0 KECCAK256 PUSH1 0x0 ADD SWAP1 DUP1 MLOAD SWAP1 PUSH1 0x20 ADD SWAP1 PUSH2 0xD91 SWAP3 SWAP2 SWAP1 PUSH2 0x12F5 JUMP JUMPDEST POP DUP4 PUSH1 0x2 PUSH1 0x0 CALLER PUSH20 0xFFFFFFFFFFFFFFFFFFFFFFFFFFFFFFFFFFFFFFFF AND PUSH20 0xFFFFFFFFFFFFFFFFFFFFFFFFFFFFFFFFFFFFFFFF AND DUP2 MSTORE PUSH1 0x20 ADD SWAP1 DUP2 MSTORE PUSH1 0x20 ADD PUSH1 0x0 KECCAK256 PUSH1 0x1 ADD SWAP1 DUP1 MLOAD SWAP1 PUSH1 0x20 ADD SWAP1 PUSH2 0xDE8 SWAP3 SWAP2 SWAP1 PUSH2 0x12F5 JUMP JUMPDEST POP DUP3 PUSH1 0x2 PUSH1 0x0 CALLER PUSH20 0xFFFFFFFFFFFFFFFFFFFFFFFFFFFFFFFFFFFFFFFF AND PUSH20 0xFFFFFFFFFFFFFFFFFFFFFFFFFFFFFFFFFFFFFFFF AND DUP2 MSTORE PUSH1 0x20 ADD SWAP1 DUP2 MSTORE PUSH1 0x20 ADD PUSH1 0x0 KECCAK256 PUSH1 0x2 ADD SWAP1 DUP1 MLOAD SWAP1 PUSH1 0x20 ADD SWAP1 PUSH2 0xE3F SWAP3 SWAP2 SWAP1 PUSH2 0x12F5 JUMP JUMPDEST POP DUP2 PUSH1 0x2 PUSH1 0x0 CALLER PUSH20 0xFFFFFFFFFFFFFFFFFFFFFFFFFFFFFFFFFFFFFFFF AND PUSH20 0xFFFFFFFFFFFFFFFFFFFFFFFFFFFFFFFFFFFFFFFF AND DUP2 MSTORE PUSH1 0x20 ADD SWAP1 DUP2 MSTORE PUSH1 0x20 ADD PUSH1 0x0 KECCAK256 PUSH1 0x3 ADD SWAP1 DUP1 MLOAD SWAP1 PUSH1 0x20 ADD SWAP1 PUSH2 0xE96 SWAP3 SWAP2 SWAP1 PUSH2 0x12F5 JUMP JUMPDEST POP CALLER PUSH1 0x2 PUSH1 0x0 CALLER PUSH20 0xFFFFFFFFFFFFFFFFFFFFFFFFFFFFFFFFFFFFFFFF AND PUSH20 0xFFFFFFFFFFFFFFFFFFFFFFFFFFFFFFFFFFFFFFFF AND DUP2 MSTORE PUSH1 0x20 ADD SWAP1 DUP2 MSTORE PUSH1 0x20 ADD PUSH1 0x0 KECCAK256 PUSH1 0x4 ADD PUSH1 0x0 PUSH2 0x100 EXP DUP2 SLOAD DUP2 PUSH20 0xFFFFFFFFFFFFFFFFFFFFFFFFFFFFFFFFFFFFFFFF MUL NOT AND SWAP1 DUP4 PUSH20 0xFFFFFFFFFFFFFFFFFFFFFFFFFFFFFFFFFFFFFFFF AND MUL OR SWAP1 SSTORE POP PUSH1 0x3 PUSH1 0x2 PUSH1 0x0 CALLER PUSH20 0xFFFFFFFFFFFFFFFFFFFFFFFFFFFFFFFFFFFFFFFF AND PUSH20 0xFFFFFFFFFFFFFFFFFFFFFFFFFFFFFFFFFFFFFFFF AND DUP2 MSTORE PUSH1 0x20 ADD SWAP1 DUP2 MSTORE PUSH1 0x20 ADD PUSH1 0x0 KECCAK256 SWAP1 DUP1 PUSH1 0x1 DUP2 SLOAD ADD DUP1 DUP3 SSTORE DUP1 SWAP2 POP POP PUSH1 0x1 SWAP1 SUB SWAP1 PUSH1 0x0 MSTORE PUSH1 0x20 PUSH1 0x0 KECCAK256 SWAP1 PUSH1 0x5 MUL ADD PUSH1 0x0 SWAP1 SWAP2 SWAP1 SWAP2 SWAP1 SWAP2 POP PUSH1 0x0 DUP3 ADD DUP2 PUSH1 0x0 ADD SWAP1 DUP1 SLOAD PUSH2 0xF96 SWAP1 PUSH2 0x1C17 JUMP JUMPDEST PUSH2 0xFA1 SWAP3 SWAP2 SWAP1 PUSH2 0x137B JUMP JUMPDEST POP PUSH1 0x1 DUP3 ADD DUP2 PUSH1 0x1 ADD SWAP1 DUP1 SLOAD PUSH2 0xFB6 SWAP1 PUSH2 0x1C17 JUMP JUMPDEST PUSH2 0xFC1 SWAP3 SWAP2 SWAP1 PUSH2 0x137B JUMP JUMPDEST POP PUSH1 0x2 DUP3 ADD DUP2 PUSH1 0x2 ADD SWAP1 DUP1 SLOAD PUSH2 0xFD6 SWAP1 PUSH2 0x1C17 JUMP JUMPDEST PUSH2 0xFE1 SWAP3 SWAP2 SWAP1 PUSH2 0x137B JUMP JUMPDEST POP PUSH1 0x3 DUP3 ADD DUP2 PUSH1 0x3 ADD SWAP1 DUP1 SLOAD PUSH2 0xFF6 SWAP1 PUSH2 0x1C17 JUMP JUMPDEST PUSH2 0x1001 SWAP3 SWAP2 SWAP1 PUSH2 0x137B JUMP JUMPDEST POP PUSH1 0x4 DUP3 ADD PUSH1 0x0 SWAP1 SLOAD SWAP1 PUSH2 0x100 EXP SWAP1 DIV PUSH20 0xFFFFFFFFFFFFFFFFFFFFFFFFFFFFFFFFFFFFFFFF AND DUP2 PUSH1 0x4 ADD PUSH1 0x0 PUSH2 0x100 EXP DUP2 SLOAD DUP2 PUSH20 0xFFFFFFFFFFFFFFFFFFFFFFFFFFFFFFFFFFFFFFFF MUL NOT AND SWAP1 DUP4 PUSH20 0xFFFFFFFFFFFFFFFFFFFFFFFFFFFFFFFFFFFFFFFF AND MUL OR SWAP1 SSTORE POP POP POP PUSH1 0x40 MLOAD DUP1 PUSH1 0x40 ADD PUSH1 0x40 MSTORE DUP1 PUSH1 0x1A DUP2 MSTORE PUSH1 0x20 ADD PUSH32 0x50726F6A656374205361766564205375636365737366756C6C79000000000000 DUP2 MSTORE POP SWAP1 POP PUSH2 0x10E1 JUMP JUMPDEST PUSH1 0x40 MLOAD DUP1 PUSH1 0x40 ADD PUSH1 0x40 MSTORE DUP1 PUSH1 0x14 DUP2 MSTORE PUSH1 0x20 ADD PUSH32 0x4572726F7220536176696E672050726F6A656374000000000000000000000000 DUP2 MSTORE POP SWAP1 POP JUMPDEST SWAP5 SWAP4 POP POP POP POP JUMP JUMPDEST PUSH1 0x60 PUSH1 0x1 PUSH1 0x0 CALLER PUSH20 0xFFFFFFFFFFFFFFFFFFFFFFFFFFFFFFFFFFFFFFFF AND PUSH20 0xFFFFFFFFFFFFFFFFFFFFFFFFFFFFFFFFFFFFFFFF AND DUP2 MSTORE PUSH1 0x20 ADD SWAP1 DUP2 MSTORE PUSH1 0x20 ADD PUSH1 0x0 KECCAK256 PUSH1 0x5 ADD PUSH1 0x0 SWAP1 SLOAD SWAP1 PUSH2 0x100 EXP SWAP1 DIV PUSH20 0xFFFFFFFFFFFFFFFFFFFFFFFFFFFFFFFFFFFFFFFF AND PUSH20 0xFFFFFFFFFFFFFFFFFFFFFFFFFFFFFFFFFFFFFFFF AND CALLER PUSH20 0xFFFFFFFFFFFFFFFFFFFFFFFFFFFFFFFFFFFFFFFF AND EQ PUSH2 0x11BB JUMPI PUSH1 0x40 MLOAD PUSH32 0x8C379A000000000000000000000000000000000000000000000000000000000 DUP2 MSTORE PUSH1 0x4 ADD PUSH2 0x11B2 SWAP1 PUSH2 0x1D9D JUMP JUMPDEST PUSH1 0x40 MLOAD DUP1 SWAP2 SUB SWAP1 REVERT JUMPDEST PUSH1 0x1 PUSH1 0x0 CALLER PUSH20 0xFFFFFFFFFFFFFFFFFFFFFFFFFFFFFFFFFFFFFFFF AND PUSH20 0xFFFFFFFFFFFFFFFFFFFFFFFFFFFFFFFFFFFFFFFF AND DUP2 MSTORE PUSH1 0x20 ADD SWAP1 DUP2 MSTORE PUSH1 0x20 ADD PUSH1 0x0 KECCAK256 PUSH1 0x0 ADD DUP1 SLOAD PUSH2 0x1208 SWAP1 PUSH2 0x1C17 JUMP JUMPDEST DUP1 PUSH1 0x1F ADD PUSH1 0x20 DUP1 SWAP2 DIV MUL PUSH1 0x20 ADD PUSH1 0x40 MLOAD SWAP1 DUP2 ADD PUSH1 0x40 MSTORE DUP1 SWAP3 SWAP2 SWAP1 DUP2 DUP2 MSTORE PUSH1 0x20 ADD DUP3 DUP1 SLOAD PUSH2 0x1234 SWAP1 PUSH2 0x1C17 JUMP JUMPDEST DUP1 ISZERO PUSH2 0x1281 JUMPI DUP1 PUSH1 0x1F LT PUSH2 0x1256 JUMPI PUSH2 0x100 DUP1 DUP4 SLOAD DIV MUL DUP4 MSTORE SWAP2 PUSH1 0x20 ADD SWAP2 PUSH2 0x1281 JUMP JUMPDEST DUP3 ADD SWAP2 SWAP1 PUSH1 0x0 MSTORE PUSH1 0x20 PUSH1 0x0 KECCAK256 SWAP1 JUMPDEST DUP2 SLOAD DUP2 MSTORE SWAP1 PUSH1 0x1 ADD SWAP1 PUSH1 0x20 ADD DUP1 DUP4 GT PUSH2 0x1264 JUMPI DUP3 SWAP1 SUB PUSH1 0x1F AND DUP3 ADD SWAP2 JUMPDEST POP POP POP POP POP SWAP1 POP SWAP1 JUMP JUMPDEST PUSH1 0x0 PUSH1 0x1 PUSH1 0x0 CALLER PUSH20 0xFFFFFFFFFFFFFFFFFFFFFFFFFFFFFFFFFFFFFFFF AND PUSH20 0xFFFFFFFFFFFFFFFFFFFFFFFFFFFFFFFFFFFFFFFF AND DUP2 MSTORE PUSH1 0x20 ADD SWAP1 DUP2 MSTORE PUSH1 0x20 ADD PUSH1 0x0 KECCAK256 PUSH1 0x5 ADD PUSH1 0x0 SWAP1 SLOAD SWAP1 PUSH2 0x100 EXP SWAP1 DIV PUSH20 0xFFFFFFFFFFFFFFFFFFFFFFFFFFFFFFFFFFFFFFFF AND SWAP1 POP SWAP1 JUMP JUMPDEST DUP3 DUP1 SLOAD PUSH2 0x1301 SWAP1 PUSH2 0x1C17 JUMP JUMPDEST SWAP1 PUSH1 0x0 MSTORE PUSH1 0x20 PUSH1 0x0 KECCAK256 SWAP1 PUSH1 0x1F ADD PUSH1 0x20 SWAP1 DIV DUP2 ADD SWAP3 DUP3 PUSH2 0x1323 JUMPI PUSH1 0x0 DUP6 SSTORE PUSH2 0x136A JUMP JUMPDEST DUP3 PUSH1 0x1F LT PUSH2 0x133C JUMPI DUP1 MLOAD PUSH1 0xFF NOT AND DUP4 DUP1 ADD OR DUP6 SSTORE PUSH2 0x136A JUMP JUMPDEST DUP3 DUP1 ADD PUSH1 0x1 ADD DUP6 SSTORE DUP3 ISZERO PUSH2 0x136A JUMPI SWAP2 DUP3 ADD JUMPDEST DUP3 DUP2 GT ISZERO PUSH2 0x1369 JUMPI DUP3 MLOAD DUP3 SSTORE SWAP2 PUSH1 0x20 ADD SWAP2 SWAP1 PUSH1 0x1 ADD SWAP1 PUSH2 0x134E JUMP JUMPDEST JUMPDEST POP SWAP1 POP PUSH2 0x1377 SWAP2 SWAP1 PUSH2 0x1408 JUMP JUMPDEST POP SWAP1 JUMP JUMPDEST DUP3 DUP1 SLOAD PUSH2 0x1387 SWAP1 PUSH2 0x1C17 JUMP JUMPDEST SWAP1 PUSH1 0x0 MSTORE PUSH1 0x20 PUSH1 0x0 KECCAK256 SWAP1 PUSH1 0x1F ADD PUSH1 0x20 SWAP1 DIV DUP2 ADD SWAP3 DUP3 PUSH2 0x13A9 JUMPI PUSH1 0x0 DUP6 SSTORE PUSH2 0x13F7 JUMP JUMPDEST DUP3 PUSH1 0x1F LT PUSH2 0x13BA JUMPI DUP1 SLOAD DUP6 SSTORE PUSH2 0x13F7 JUMP JUMPDEST DUP3 DUP1 ADD PUSH1 0x1 ADD DUP6 SSTORE DUP3 ISZERO PUSH2 0x13F7 JUMPI PUSH1 0x0 MSTORE PUSH1 0x20 PUSH1 0x0 KECCAK256 SWAP2 PUSH1 0x1F ADD PUSH1 0x20 SWAP1 DIV DUP3 ADD JUMPDEST DUP3 DUP2 GT ISZERO PUSH2 0x13F6 JUMPI DUP3 SLOAD DUP3 SSTORE SWAP2 PUSH1 0x1 ADD SWAP2 SWAP1 PUSH1 0x1 ADD SWAP1 PUSH2 0x13DB JUMP JUMPDEST JUMPDEST POP SWAP1 POP PUSH2 0x1404 SWAP2 SWAP1 PUSH2 0x1408 JUMP JUMPDEST POP SWAP1 JUMP JUMPDEST JUMPDEST DUP1 DUP3 GT ISZERO PUSH2 0x1421 JUMPI PUSH1 0x0 DUP2 PUSH1 0x0 SWAP1 SSTORE POP PUSH1 0x1 ADD PUSH2 0x1409 JUMP JUMPDEST POP SWAP1 JUMP JUMPDEST PUSH1 0x0 PUSH1 0x40 MLOAD SWAP1 POP SWAP1 JUMP JUMPDEST PUSH1 0x0 DUP1 REVERT JUMPDEST PUSH1 0x0 DUP1 REVERT JUMPDEST PUSH1 0x0 DUP2 SWAP1 POP SWAP2 SWAP1 POP JUMP JUMPDEST PUSH2 0x144C DUP2 PUSH2 0x1439 JUMP JUMPDEST DUP2 EQ PUSH2 0x1457 JUMPI PUSH1 0x0 DUP1 REVERT JUMPDEST POP JUMP JUMPDEST PUSH1 0x0 DUP2 CALLDATALOAD SWAP1 POP PUSH2 0x1469 DUP2 PUSH2 0x1443 JUMP JUMPDEST SWAP3 SWAP2 POP POP JUMP JUMPDEST PUSH1 0x0 PUSH1 0x20 DUP3 DUP5 SUB SLT ISZERO PUSH2 0x1485 JUMPI PUSH2 0x1484 PUSH2 0x142F JUMP JUMPDEST JUMPDEST PUSH1 0x0 PUSH2 0x1493 DUP5 DUP3 DUP6 ADD PUSH2 0x145A JUMP JUMPDEST SWAP2 POP POP SWAP3 SWAP2 POP POP JUMP JUMPDEST PUSH1 0x0 DUP2 MLOAD SWAP1 POP SWAP2 SWAP1 POP JUMP JUMPDEST PUSH1 0x0 DUP3 DUP3 MSTORE PUSH1 0x20 DUP3 ADD SWAP1 POP SWAP3 SWAP2 POP POP JUMP JUMPDEST PUSH1 0x0 JUMPDEST DUP4 DUP2 LT ISZERO PUSH2 0x14D6 JUMPI DUP1 DUP3 ADD MLOAD DUP2 DUP5 ADD MSTORE PUSH1 0x20 DUP2 ADD SWAP1 POP PUSH2 0x14BB JUMP JUMPDEST DUP4 DUP2 GT ISZERO PUSH2 0x14E5 JUMPI PUSH1 0x0 DUP5 DUP5 ADD MSTORE JUMPDEST POP POP POP POP JUMP JUMPDEST PUSH1 0x0 PUSH1 0x1F NOT PUSH1 0x1F DUP4 ADD AND SWAP1 POP SWAP2 SWAP1 POP JUMP JUMPDEST PUSH1 0x0 PUSH2 0x1507 DUP3 PUSH2 0x149C JUMP JUMPDEST PUSH2 0x1511 DUP2 DUP6 PUSH2 0x14A7 JUMP JUMPDEST SWAP4 POP PUSH2 0x1521 DUP2 DUP6 PUSH1 0x20 DUP7 ADD PUSH2 0x14B8 JUMP JUMPDEST PUSH2 0x152A DUP2 PUSH2 0x14EB JUMP JUMPDEST DUP5 ADD SWAP2 POP POP SWAP3 SWAP2 POP POP JUMP JUMPDEST PUSH1 0x0 PUSH20 0xFFFFFFFFFFFFFFFFFFFFFFFFFFFFFFFFFFFFFFFF DUP3 AND SWAP1 POP SWAP2 SWAP1 POP JUMP JUMPDEST PUSH1 0x0 PUSH2 0x1560 DUP3 PUSH2 0x1535 JUMP JUMPDEST SWAP1 POP SWAP2 SWAP1 POP JUMP JUMPDEST PUSH2 0x1570 DUP2 PUSH2 0x1555 JUMP JUMPDEST DUP3 MSTORE POP POP JUMP JUMPDEST PUSH1 0x0 PUSH1 0xA0 DUP3 ADD SWAP1 POP DUP2 DUP2 SUB PUSH1 0x0 DUP4 ADD MSTORE PUSH2 0x1590 DUP2 DUP9 PUSH2 0x14FC JUMP JUMPDEST SWAP1 POP DUP2 DUP2 SUB PUSH1 0x20 DUP4 ADD MSTORE PUSH2 0x15A4 DUP2 DUP8 PUSH2 0x14FC JUMP JUMPDEST SWAP1 POP DUP2 DUP2 SUB PUSH1 0x40 DUP4 ADD MSTORE PUSH2 0x15B8 DUP2 DUP7 PUSH2 0x14FC JUMP JUMPDEST SWAP1 POP DUP2 DUP2 SUB PUSH1 0x60 DUP4 ADD MSTORE PUSH2 0x15CC DUP2 DUP6 PUSH2 0x14FC JUMP JUMPDEST SWAP1 POP PUSH2 0x15DB PUSH1 0x80 DUP4 ADD DUP5 PUSH2 0x1567 JUMP JUMPDEST SWAP7 SWAP6 POP POP POP POP POP POP JUMP JUMPDEST PUSH2 0x15EE DUP2 PUSH2 0x1439 JUMP JUMPDEST DUP3 MSTORE POP POP JUMP JUMPDEST PUSH1 0x0 PUSH1 0x20 DUP3 ADD SWAP1 POP PUSH2 0x1609 PUSH1 0x0 DUP4 ADD DUP5 PUSH2 0x15E5 JUMP JUMPDEST SWAP3 SWAP2 POP POP JUMP JUMPDEST PUSH1 0x0 DUP1 REVERT JUMPDEST PUSH1 0x0 DUP1 REVERT JUMPDEST PUSH32 0x4E487B7100000000000000000000000000000000000000000000000000000000 PUSH1 0x0 MSTORE PUSH1 0x41 PUSH1 0x4 MSTORE PUSH1 0x24 PUSH1 0x0 REVERT JUMPDEST PUSH2 0x1651 DUP3 PUSH2 0x14EB JUMP JUMPDEST DUP2 ADD DUP2 DUP2 LT PUSH8 0xFFFFFFFFFFFFFFFF DUP3 GT OR ISZERO PUSH2 0x1670 JUMPI PUSH2 0x166F PUSH2 0x1619 JUMP JUMPDEST JUMPDEST DUP1 PUSH1 0x40 MSTORE POP POP POP JUMP JUMPDEST PUSH1 0x0 PUSH2 0x1683 PUSH2 0x1425 JUMP JUMPDEST SWAP1 POP PUSH2 0x168F DUP3 DUP3 PUSH2 0x1648 JUMP JUMPDEST SWAP2 SWAP1 POP JUMP JUMPDEST PUSH1 0x0 PUSH8 0xFFFFFFFFFFFFFFFF DUP3 GT ISZERO PUSH2 0x16AF JUMPI PUSH2 0x16AE PUSH2 0x1619 JUMP JUMPDEST JUMPDEST PUSH2 0x16B8 DUP3 PUSH2 0x14EB JUMP JUMPDEST SWAP1 POP PUSH1 0x20 DUP2 ADD SWAP1 POP SWAP2 SWAP1 POP JUMP JUMPDEST DUP3 DUP2 DUP4 CALLDATACOPY PUSH1 0x0 DUP4 DUP4 ADD MSTORE POP POP POP JUMP JUMPDEST PUSH1 0x0 PUSH2 0x16E7 PUSH2 0x16E2 DUP5 PUSH2 0x1694 JUMP JUMPDEST PUSH2 0x1679 JUMP JUMPDEST SWAP1 POP DUP3 DUP2 MSTORE PUSH1 0x20 DUP2 ADD DUP5 DUP5 DUP5 ADD GT ISZERO PUSH2 0x1703 JUMPI PUSH2 0x1702 PUSH2 0x1614 JUMP JUMPDEST JUMPDEST PUSH2 0x170E DUP5 DUP3 DUP6 PUSH2 0x16C5 JUMP JUMPDEST POP SWAP4 SWAP3 POP POP POP JUMP JUMPDEST PUSH1 0x0 DUP3 PUSH1 0x1F DUP4 ADD SLT PUSH2 0x172B JUMPI PUSH2 0x172A PUSH2 0x160F JUMP JUMPDEST JUMPDEST DUP2 CALLDATALOAD PUSH2 0x173B DUP5 DUP3 PUSH1 0x20 DUP7 ADD PUSH2 0x16D4 JUMP JUMPDEST SWAP2 POP POP SWAP3 SWAP2 POP POP JUMP JUMPDEST PUSH1 0x0 PUSH1 0x20 DUP3 DUP5 SUB SLT ISZERO PUSH2 0x175A JUMPI PUSH2 0x1759 PUSH2 0x142F JUMP JUMPDEST JUMPDEST PUSH1 0x0 DUP3 ADD CALLDATALOAD PUSH8 0xFFFFFFFFFFFFFFFF DUP2 GT ISZERO PUSH2 0x1778 JUMPI PUSH2 0x1777 PUSH2 0x1434 JUMP JUMPDEST JUMPDEST PUSH2 0x1784 DUP5 DUP3 DUP6 ADD PUSH2 0x1716 JUMP JUMPDEST SWAP2 POP POP SWAP3 SWAP2 POP POP JUMP JUMPDEST PUSH1 0x0 DUP2 MLOAD SWAP1 POP SWAP2 SWAP1 POP JUMP JUMPDEST PUSH1 0x0 DUP3 DUP3 MSTORE PUSH1 0x20 DUP3 ADD SWAP1 POP SWAP3 SWAP2 POP POP JUMP JUMPDEST PUSH1 0x0 DUP2 SWAP1 POP PUSH1 0x20 DUP3 ADD SWAP1 POP SWAP2 SWAP1 POP JUMP JUMPDEST PUSH1 0x0 DUP3 DUP3 MSTORE PUSH1 0x20 DUP3 ADD SWAP1 POP SWAP3 SWAP2 POP POP JUMP JUMPDEST PUSH1 0x0 PUSH2 0x17D5 DUP3 PUSH2 0x149C JUMP JUMPDEST PUSH2 0x17DF DUP2 DUP6 PUSH2 0x17B9 JUMP JUMPDEST SWAP4 POP PUSH2 0x17EF DUP2 DUP6 PUSH1 0x20 DUP7 ADD PUSH2 0x14B8 JUMP JUMPDEST PUSH2 0x17F8 DUP2 PUSH2 0x14EB JUMP JUMPDEST DUP5 ADD SWAP2 POP POP SWAP3 SWAP2 POP POP JUMP JUMPDEST PUSH2 0x180C DUP2 PUSH2 0x1555 JUMP JUMPDEST DUP3 MSTORE POP POP JUMP JUMPDEST PUSH1 0x0 PUSH1 0xA0 DUP4 ADD PUSH1 0x0 DUP4 ADD MLOAD DUP5 DUP3 SUB PUSH1 0x0 DUP7 ADD MSTORE PUSH2 0x182F DUP3 DUP3 PUSH2 0x17CA JUMP JUMPDEST SWAP2 POP POP PUSH1 0x20 DUP4 ADD MLOAD DUP5 DUP3 SUB PUSH1 0x20 DUP7 ADD MSTORE PUSH2 0x1849 DUP3 DUP3 PUSH2 0x17CA JUMP JUMPDEST SWAP2 POP POP PUSH1 0x40 DUP4 ADD MLOAD DUP5 DUP3 SUB PUSH1 0x40 DUP7 ADD MSTORE PUSH2 0x1863 DUP3 DUP3 PUSH2 0x17CA JUMP JUMPDEST SWAP2 POP POP PUSH1 0x60 DUP4 ADD MLOAD DUP5 DUP3 SUB PUSH1 0x60 DUP7 ADD MSTORE PUSH2 0x187D DUP3 DUP3 PUSH2 0x17CA JUMP JUMPDEST SWAP2 POP POP PUSH1 0x80 DUP4 ADD MLOAD PUSH2 0x1892 PUSH1 0x80 DUP7 ADD DUP3 PUSH2 0x1803 JUMP JUMPDEST POP DUP1 SWAP2 POP POP SWAP3 SWAP2 POP POP JUMP JUMPDEST PUSH1 0x0 PUSH2 0x18A9 DUP4 DUP4 PUSH2 0x1812 JUMP JUMPDEST SWAP1 POP SWAP3 SWAP2 POP POP JUMP JUMPDEST PUSH1 0x0 PUSH1 0x20 DUP3 ADD SWAP1 POP SWAP2 SWAP1 POP JUMP JUMPDEST PUSH1 0x0 PUSH2 0x18C9 DUP3 PUSH2 0x178D JUMP JUMPDEST PUSH2 0x18D3 DUP2 DUP6 PUSH2 0x1798 JUMP JUMPDEST SWAP4 POP DUP4 PUSH1 0x20 DUP3 MUL DUP6 ADD PUSH2 0x18E5 DUP6 PUSH2 0x17A9 JUMP JUMPDEST DUP1 PUSH1 0x0 JUMPDEST DUP6 DUP2 LT ISZERO PUSH2 0x1921 JUMPI DUP5 DUP5 SUB DUP10 MSTORE DUP2 MLOAD PUSH2 0x1902 DUP6 DUP3 PUSH2 0x189D JUMP JUMPDEST SWAP5 POP PUSH2 0x190D DUP4 PUSH2 0x18B1 JUMP JUMPDEST SWAP3 POP PUSH1 0x20 DUP11 ADD SWAP10 POP POP PUSH1 0x1 DUP2 ADD SWAP1 POP PUSH2 0x18E9 JUMP JUMPDEST POP DUP3 SWAP8 POP DUP8 SWAP6 POP POP POP POP POP POP SWAP3 SWAP2 POP POP JUMP JUMPDEST PUSH1 0x0 PUSH1 0x20 DUP3 ADD SWAP1 POP DUP2 DUP2 SUB PUSH1 0x0 DUP4 ADD MSTORE PUSH2 0x194D DUP2 DUP5 PUSH2 0x18BE JUMP JUMPDEST SWAP1 POP SWAP3 SWAP2 POP POP JUMP JUMPDEST PUSH1 0x0 DUP1 PUSH1 0x40 DUP4 DUP6 SUB SLT ISZERO PUSH2 0x196C JUMPI PUSH2 0x196B PUSH2 0x142F JUMP JUMPDEST JUMPDEST PUSH1 0x0 DUP4 ADD CALLDATALOAD PUSH8 0xFFFFFFFFFFFFFFFF DUP2 GT ISZERO PUSH2 0x198A JUMPI PUSH2 0x1989 PUSH2 0x1434 JUMP JUMPDEST JUMPDEST PUSH2 0x1996 DUP6 DUP3 DUP7 ADD PUSH2 0x1716 JUMP JUMPDEST SWAP3 POP POP PUSH1 0x20 DUP4 ADD CALLDATALOAD PUSH8 0xFFFFFFFFFFFFFFFF DUP2 GT ISZERO PUSH2 0x19B7 JUMPI PUSH2 0x19B6 PUSH2 0x1434 JUMP JUMPDEST JUMPDEST PUSH2 0x19C3 DUP6 DUP3 DUP7 ADD PUSH2 0x1716 JUMP JUMPDEST SWAP2 POP POP SWAP3 POP SWAP3 SWAP1 POP JUMP JUMPDEST PUSH1 0x0 PUSH1 0x20 DUP3 ADD SWAP1 POP DUP2 DUP2 SUB PUSH1 0x0 DUP4 ADD MSTORE PUSH2 0x19E7 DUP2 DUP5 PUSH2 0x14FC JUMP JUMPDEST SWAP1 POP SWAP3 SWAP2 POP POP JUMP JUMPDEST PUSH1 0x0 DUP1 PUSH1 0x0 DUP1 PUSH1 0x0 PUSH1 0xA0 DUP7 DUP9 SUB SLT ISZERO PUSH2 0x1A0B JUMPI PUSH2 0x1A0A PUSH2 0x142F JUMP JUMPDEST JUMPDEST PUSH1 0x0 DUP7 ADD CALLDATALOAD PUSH8 0xFFFFFFFFFFFFFFFF DUP2 GT ISZERO PUSH2 0x1A29 JUMPI PUSH2 0x1A28 PUSH2 0x1434 JUMP JUMPDEST JUMPDEST PUSH2 0x1A35 DUP9 DUP3 DUP10 ADD PUSH2 0x1716 JUMP JUMPDEST SWAP6 POP POP PUSH1 0x20 DUP7 ADD CALLDATALOAD PUSH8 0xFFFFFFFFFFFFFFFF DUP2 GT ISZERO PUSH2 0x1A56 JUMPI PUSH2 0x1A55 PUSH2 0x1434 JUMP JUMPDEST JUMPDEST PUSH2 0x1A62 DUP9 DUP3 DUP10 ADD PUSH2 0x1716 JUMP JUMPDEST SWAP5 POP POP PUSH1 0x40 DUP7 ADD CALLDATALOAD PUSH8 0xFFFFFFFFFFFFFFFF DUP2 GT ISZERO PUSH2 0x1A83 JUMPI PUSH2 0x1A82 PUSH2 0x1434 JUMP JUMPDEST JUMPDEST PUSH2 0x1A8F DUP9 DUP3 DUP10 ADD PUSH2 0x1716 JUMP JUMPDEST SWAP4 POP POP PUSH1 0x60 DUP7 ADD CALLDATALOAD PUSH8 0xFFFFFFFFFFFFFFFF DUP2 GT ISZERO PUSH2 0x1AB0 JUMPI PUSH2 0x1AAF PUSH2 0x1434 JUMP JUMPDEST JUMPDEST PUSH2 0x1ABC DUP9 DUP3 DUP10 ADD PUSH2 0x1716 JUMP JUMPDEST SWAP3 POP POP PUSH1 0x80 DUP7 ADD CALLDATALOAD PUSH8 0xFFFFFFFFFFFFFFFF DUP2 GT ISZERO PUSH2 0x1ADD JUMPI PUSH2 0x1ADC PUSH2 0x1434 JUMP JUMPDEST JUMPDEST PUSH2 0x1AE9 DUP9 DUP3 DUP10 ADD PUSH2 0x1716 JUMP JUMPDEST SWAP2 POP POP SWAP3 SWAP6 POP SWAP3 SWAP6 SWAP1 SWAP4 POP JUMP JUMPDEST PUSH1 0x0 DUP1 PUSH1 0x0 DUP1 PUSH1 0x80 DUP6 DUP8 SUB SLT ISZERO PUSH2 0x1B10 JUMPI PUSH2 0x1B0F PUSH2 0x142F JUMP JUMPDEST JUMPDEST PUSH1 0x0 DUP6 ADD CALLDATALOAD PUSH8 0xFFFFFFFFFFFFFFFF DUP2 GT ISZERO PUSH2 0x1B2E JUMPI PUSH2 0x1B2D PUSH2 0x1434 JUMP JUMPDEST JUMPDEST PUSH2 0x1B3A DUP8 DUP3 DUP9 ADD PUSH2 0x1716 JUMP JUMPDEST SWAP5 POP POP PUSH1 0x20 DUP6 ADD CALLDATALOAD PUSH8 0xFFFFFFFFFFFFFFFF DUP2 GT ISZERO PUSH2 0x1B5B JUMPI PUSH2 0x1B5A PUSH2 0x1434 JUMP JUMPDEST JUMPDEST PUSH2 0x1B67 DUP8 DUP3 DUP9 ADD PUSH2 0x1716 JUMP JUMPDEST SWAP4 POP POP PUSH1 0x40 DUP6 ADD CALLDATALOAD PUSH8 0xFFFFFFFFFFFFFFFF DUP2 GT ISZERO PUSH2 0x1B88 JUMPI PUSH2 0x1B87 PUSH2 0x1434 JUMP JUMPDEST JUMPDEST PUSH2 0x1B94 DUP8 DUP3 DUP9 ADD PUSH2 0x1716 JUMP JUMPDEST SWAP3 POP POP PUSH1 0x60 DUP6 ADD CALLDATALOAD PUSH8 0xFFFFFFFFFFFFFFFF DUP2 GT ISZERO PUSH2 0x1BB5 JUMPI PUSH2 0x1BB4 PUSH2 0x1434 JUMP JUMPDEST JUMPDEST PUSH2 0x1BC1 DUP8 DUP3 DUP9 ADD PUSH2 0x1716 JUMP JUMPDEST SWAP2 POP POP SWAP3 SWAP6 SWAP2 SWAP5 POP SWAP3 POP JUMP JUMPDEST PUSH1 0x0 PUSH1 0x20 DUP3 ADD SWAP1 POP PUSH2 0x1BE2 PUSH1 0x0 DUP4 ADD DUP5 PUSH2 0x1567 JUMP JUMPDEST SWAP3 SWAP2 POP POP JUMP JUMPDEST PUSH32 0x4E487B7100000000000000000000000000000000000000000000000000000000 PUSH1 0x0 MSTORE PUSH1 0x22 PUSH1 0x4 MSTORE PUSH1 0x24 PUSH1 0x0 REVERT JUMPDEST PUSH1 0x0 PUSH1 0x2 DUP3 DIV SWAP1 POP PUSH1 0x1 DUP3 AND DUP1 PUSH2 0x1C2F JUMPI PUSH1 0x7F DUP3 AND SWAP2 POP JUMPDEST PUSH1 0x20 DUP3 LT DUP2 SUB PUSH2 0x1C42 JUMPI PUSH2 0x1C41 PUSH2 0x1BE8 JUMP JUMPDEST JUMPDEST POP SWAP2 SWAP1 POP JUMP JUMPDEST PUSH32 0x4163636F756E7420616C7265616479207573656420706C656173652074727920 PUSH1 0x0 DUP3 ADD MSTORE PUSH32 0x77697468206E6577206163636F756E7421210000000000000000000000000000 PUSH1 0x20 DUP3 ADD MSTORE POP JUMP JUMPDEST PUSH1 0x0 PUSH2 0x1CA4 PUSH1 0x32 DUP4 PUSH2 0x14A7 JUMP JUMPDEST SWAP2 POP PUSH2 0x1CAF DUP3 PUSH2 0x1C48 JUMP JUMPDEST PUSH1 0x40 DUP3 ADD SWAP1 POP SWAP2 SWAP1 POP JUMP JUMPDEST PUSH1 0x0 PUSH1 0x20 DUP3 ADD SWAP1 POP DUP2 DUP2 SUB PUSH1 0x0 DUP4 ADD MSTORE PUSH2 0x1CD3 DUP2 PUSH2 0x1C97 JUMP JUMPDEST SWAP1 POP SWAP2 SWAP1 POP JUMP JUMPDEST PUSH32 0x4E487B7100000000000000000000000000000000000000000000000000000000 PUSH1 0x0 MSTORE PUSH1 0x11 PUSH1 0x4 MSTORE PUSH1 0x24 PUSH1 0x0 REVERT JUMPDEST PUSH1 0x0 PUSH2 0x1D14 DUP3 PUSH2 0x1439 JUMP JUMPDEST SWAP2 POP PUSH32 0xFFFFFFFFFFFFFFFFFFFFFFFFFFFFFFFFFFFFFFFFFFFFFFFFFFFFFFFFFFFFFFFF DUP3 SUB PUSH2 0x1D46 JUMPI PUSH2 0x1D45 PUSH2 0x1CDA JUMP JUMPDEST JUMPDEST PUSH1 0x1 DUP3 ADD SWAP1 POP SWAP2 SWAP1 POP JUMP JUMPDEST PUSH32 0x4E6F7420616C6C6F776564000000000000000000000000000000000000000000 PUSH1 0x0 DUP3 ADD MSTORE POP JUMP JUMPDEST PUSH1 0x0 PUSH2 0x1D87 PUSH1 0xB DUP4 PUSH2 0x14A7 JUMP JUMPDEST SWAP2 POP PUSH2 0x1D92 DUP3 PUSH2 0x1D51 JUMP JUMPDEST PUSH1 0x20 DUP3 ADD SWAP1 POP SWAP2 SWAP1 POP JUMP JUMPDEST PUSH1 0x0 PUSH1 0x20 DUP3 ADD SWAP1 POP DUP2 DUP2 SUB PUSH1 0x0 DUP4 ADD MSTORE PUSH2 0x1DB6 DUP2 PUSH2 0x1D7A JUMP JUMPDEST SWAP1 POP SWAP2 SWAP1 POP JUMP INVALID SSTORE PUSH20 0x657220646F65736E6F7420657869737420212120 MSTORE PUSH6 0x676973746572 KECCAK256 PUSH2 0x6E64 KECCAK256 PUSH21 0x727920616761696E202121A2646970667358221220 SWAP8 0xB4 PUSH10 0xF6EB9F4377233DE844BE BALANCE 0xCB OR KECCAK256 SWAP7 DIV 0xB3 0xE4 SWAP14 0xCE CHAINID PUSH12 0x3AA3C2F6DD5EAA64736F6C63 NUMBER STOP ADDMOD 0xD STOP CALLER "
		},
		"gasEstimates": {
			"creation": {
				"codeDepositCost": "1542800",
				"executionCost": "6631",
				"totalCost": "1549431"
			},
			"external": {
				"getProjectDetails(string)": "infinite",
				"getSignatureHash()": "infinite",
				"getUserAddress()": "2705",
				"getUsername()": "infinite",
				"login(string,string)": "infinite",
				"nbOfUsers()": "2452",
				"projects(uint256)": "infinite",
				"register(string,string,string,string,string)": "infinite",
				"saveProject(string,string,string,string)": "infinite"
			}
		},
		"methodIdentifiers": {
			"getProjectDetails(string)": "3162a709",
			"getSignatureHash()": "c127ae41",
			"getUserAddress()": "ebc3eee8",
			"getUsername()": "681f3e6d",
			"login(string,string)": "58467dbc",
			"nbOfUsers()": "12679323",
			"projects(uint256)": "107046bd",
			"register(string,string,string,string,string)": "5a09007b",
			"saveProject(string,string,string,string)": "b4bfc3a5"
		}
	},
	"abi": [
		{
			"inputs": [],
			"stateMutability": "nonpayable",
			"type": "constructor"
		},
		{
			"inputs": [
				{
					"internalType": "string",
					"name": "userName",
					"type": "string"
				}
			],
			"name": "getProjectDetails",
			"outputs": [
				{
					"components": [
						{
							"internalType": "string",
							"name": "projectName",
							"type": "string"
						},
						{
							"internalType": "string",
							"name": "description",
							"type": "string"
						},
						{
							"internalType": "string",
							"name": "deadline",
							"type": "string"
						},
						{
							"internalType": "string",
							"name": "amount",
							"type": "string"
						},
						{
							"internalType": "address",
							"name": "userAddress",
							"type": "address"
						}
					],
					"internalType": "struct Authentication.Project[]",
					"name": "",
					"type": "tuple[]"
				}
			],
			"stateMutability": "view",
			"type": "function"
		},
		{
			"inputs": [],
			"name": "getSignatureHash",
			"outputs": [
				{
					"internalType": "string",
					"name": "",
					"type": "string"
				}
			],
			"stateMutability": "view",
			"type": "function"
		},
		{
			"inputs": [],
			"name": "getUserAddress",
			"outputs": [
				{
					"internalType": "address",
					"name": "",
					"type": "address"
				}
			],
			"stateMutability": "view",
			"type": "function"
		},
		{
			"inputs": [],
			"name": "getUsername",
			"outputs": [
				{
					"internalType": "string",
					"name": "",
					"type": "string"
				}
			],
			"stateMutability": "view",
			"type": "function"
		},
		{
			"inputs": [
				{
					"internalType": "string",
					"name": "username",
					"type": "string"
				},
				{
					"internalType": "string",
					"name": "password",
					"type": "string"
				}
			],
			"name": "login",
			"outputs": [
				{
					"internalType": "string",
					"name": "",
					"type": "string"
				}
			],
			"stateMutability": "nonpayable",
			"type": "function"
		},
		{
			"inputs": [],
			"name": "nbOfUsers",
			"outputs": [
				{
					"internalType": "uint256",
					"name": "",
					"type": "uint256"
				}
			],
			"stateMutability": "view",
			"type": "function"
		},
		{
			"inputs": [
				{
					"internalType": "uint256",
					"name": "",
					"type": "uint256"
				}
			],
			"name": "projects",
			"outputs": [
				{
					"internalType": "string",
					"name": "projectName",
					"type": "string"
				},
				{
					"internalType": "string",
					"name": "description",
					"type": "string"
				},
				{
					"internalType": "string",
					"name": "deadline",
					"type": "string"
				},
				{
					"internalType": "string",
					"name": "amount",
					"type": "string"
				},
				{
					"internalType": "address",
					"name": "userAddress",
					"type": "address"
				}
			],
			"stateMutability": "view",
			"type": "function"
		},
		{
			"inputs": [
				{
					"internalType": "string",
					"name": "_signature",
					"type": "string"
				},
				{
					"internalType": "string",
					"name": "email",
					"type": "string"
				},
				{
					"internalType": "string",
					"name": "username",
					"type": "string"
				},
				{
					"internalType": "string",
					"name": "password",
					"type": "string"
				},
				{
					"internalType": "string",
					"name": "repeatPassword",
					"type": "string"
				}
			],
			"name": "register",
			"outputs": [
				{
					"internalType": "string",
					"name": "",
					"type": "string"
				}
			],
			"stateMutability": "nonpayable",
			"type": "function"
		},
		{
			"inputs": [
				{
					"internalType": "string",
					"name": "projectName",
					"type": "string"
				},
				{
					"internalType": "string",
					"name": "description",
					"type": "string"
				},
				{
					"internalType": "string",
					"name": "deadline",
					"type": "string"
				},
				{
					"internalType": "string",
					"name": "amount",
					"type": "string"
				}
			],
			"name": "saveProject",
			"outputs": [
				{
					"internalType": "string",
					"name": "",
					"type": "string"
				}
			],
			"stateMutability": "nonpayable",
			"type": "function"
		}
	]
}